:020000040000FA
:10000000802C0020F902000001030000030300001F
:1000100005030000070300000903000000000000C2
:100020000000000000000000000000000B030000C2
:100030000D030000000000000F030000110300008A
:100040007906000013030000590A0000F5060000BD
:100050001303000013030000B104000013030000A9
:100060001303000013030000130300001303000038
:100070001303000013030000130300001303000028
:1000800013030000D1060000130300001303000057
:1000900039070000130300001303000013030000DE
:1000A00013030000130300001303000013030000F8
:1000B0001303000013030000000000000000000014
:1000C00013030000130300001303000013030000D8
:1000D00013030000130300001303000000000000DE
:1000E0000000000000000000000000000000000010
:1000F0000000000000000000000000000000000000
:1001000000000000000000000000000000000000EF
:1001100000000000000000000000000000000000DF
:1001200000000000000000000000000000000000CF
:1001300000000000000000000000000000000000BF
:1001400000000000000000000000000000000000AF
:10015000000000000000000000000000000000009F
:10016000000000000000000000000000000000008F
:10017000000000000000000000000000000000007F
:10018000000000000000000000000000000000006F
:10019000000000000000000000000000000000005F
:1001A000000000000000000000000000000000004F
:1001B000000000000000000000000000000000003F
:1001C000000000000000000000000000000000002F
:1001D000000000000000000000000000000000001F
:1001E000000000000000000000000000000000000F
:1001F00000000000000000000000000000000000FF
:10020000DFF80CD000F016F9004800473D1B000055
:10021000802C002030B4044654E8000F0D4644E81A
:100220000053002BF8D1156030BC704730B4044641
:1002300054E8000F40EA010544E80053002BF7D1D1
:10024000156030BC704730B4044654E8000F00EA33
:10025000010544E80053002BF7D1156030BC70470E
:1002600030B4044654E8000F80EA010544E8005326
:10027000002BF7D1156030BC704730B4044654E809
:10028000000F00EB010544E80053002BF7D1156087
:1002900030BC704730B4044654E8000FA0EB0105B1
:1002A00044E80053002BF7D1156030BC704770B4A0
:1002B00004464FF0000054E8006F0D68AE4207BFDF
:1002C00044E80023012044E800630E60002B1CBFBB
:1002D0000020F0E770BC704730B4044654E8000FCB
:1002E00088422CBF451A054644E80053002BF5D13F
:1002F000156030BC7047000006488047064800473C
:10030000FEE7FEE7FEE7FEE7FEE7FEE7FEE7FEE7C5
:10031000FEE7FEE73D070000010200002DE9F05F67
:100320000546002092469B46884606468146402464
:100330001BE0284641464746224600F06BF85346EC
:100340005A46C01A914110D311461846224600F071
:1003500016F82D1A67EB01084F46224601200021AE
:1003600000F00DF817EB00094E41201EA4F1010426
:10037000DFDC484631462A464346BDE8F09F202A46
:1003800004DB203A00FA02F1002070479140C2F1EC
:10039000200320FA03F31943904070470048704748
:1003A0008454000040EA01039B0703D009E008C918
:1003B000121F08C0042AFAD203E011F8013B00F82A
:1003C000013B521EF9D27047D2B201E000F8012B76
:1003D000491EFBD270470022F6E710B513460A46C5
:1003E00004461946FFF7F0FF204610BD421C10F8E6
:1003F000011B0029FBD1801A704730B5044600204C
:10040000034600E05B1C934203D2E05CCD5C401BE2
:10041000F8D030BD202A04DB203A21FA02F0002176
:10042000704721FA02F3D040C2F120029140084304
:1004300019467047064C074D06E0E06840F001039E
:1004400094E8070098471034AC42F6D3FFF7DCFE7F
:10045000485500006855000070B58C1810F8015B15
:1004600015F0070301D110F8013B2A1106D110F84D
:10047000012B03E010F8016B01F8016B5B1EF9D151
:100480002B0705D40023521E0DD401F8013BFAE7D7
:1004900010F8013BCB1A921C03E013F8015B01F842
:1004A000015B521EF9D5A142D8D3002070BD0000D7
:1004B0002DE9F04700268AB0DFF85091B0464FF49E
:1004C0008075012437460696284602F08FF938B128
:1004D000D9F80403204203D0284602F07DF92643D0
:1004E0002D1D64007F1CADB2082FEDD34FF4BE74F8
:1004F000204602F07BF948B1204602F06DF946F043
:10050000004606AA0121002002F052F9404D16F0E3
:10051000FF0F15D00127002437420DD009EB8401CD
:10052000D1F81005D1F81015C0F3042055F8242097
:10053000C1F3014102B190477F00641C082CEBD34A
:10054000002E5FDA4FF0FF30CDF8108054E028190C
:1005500010F8507F90F9000027F0C008401C3BD0F5
:1005600007A9404601F03AFC10B34FEA97194046FC
:1005700000F012FF55F820701FB1B9F1030F03D03E
:1005800006E0B9F1030F27D104A9404601F02EFC83
:100590004FF0A04101EB8800D0F8000706A9C0F396
:1005A000014A404601F01AFC18B1BAF1020F03D01B
:1005B00012E0BAF1030F0FD1B9F1030F08D1BAF16C
:1005C000020F1DD00221404602F0C0F8761CF6B2A0
:1005D00017B149464046B847641C042CB7D3002ED7
:1005E00010D06A460121002002F0E2F80699009836
:1005F000884207D006900498002634460790A6E764
:100600000321E0E70AB0BDE8F08700000060004089
:10061000B404002000F01F02012191404009800035
:1006200000F1E020C0F88012704700F01F020121A5
:1006300091404009800000F1E020C0F800117047AF
:1006400000F01F02012191404009800000F1E020EC
:10065000C0F8001270474907090E002806DA00F0BA
:100660000F0000F1E02080F8141D704700F1E02039
:1006700080F800147047000070B54FF48076304663
:1006800001F0BEFB114CB50560B1304601F0BFFB77
:100690000120C5F80803607920B901206071216844
:1006A000002088474FF48276304601F0A9FB0028ED
:1006B0000AD0304601F0ABFB0220C5F808032168E0
:1006C000BDE870400120084770BD0000CC0000204C
:1006D00007480021C0F84011C0F84411C0F8481183
:1006E000C0F84C11C0F80011C0F8041103F066BE48
:1006F0000010014038B50E480E4C0025C0F80851D6
:10070000D0F808110091214603F09CFE00280ED17C
:10071000A07FFF2801D002F038F865772572D4E970
:10072000002101B004F10800BDE83040104738BD99
:10073000003000401005002003F092BDF0B5B54830
:100740000023021D0178101D01254FF08054062959
:100750000BD11678360708D10678C6F30316032E98
:1007600006D0042E04D0052E02D0062907D00EE0B4
:10077000B4F82463A84FC6F304263E6002E016785E
:10078000360704D10678C6F30316032E02D00629D5
:1007900004D00FE0A24FA14E7E670EE01678360718
:1007A00008D10678C6F30316032E06D0042E04D013
:1007B000052E02D0062907D00EE0D4F84462994FE6
:1007C000C6F342363E6002E01678360704D106785A
:1007D000C6F30316032E02D0062906D011E0924E6E
:1007E000376827F0807737600EE01678360708D133
:1007F0000678C6F30316032E06D0042E04D0052E69
:1008000002D006290AD011E04FF08046C6F80C311C
:10081000C6F81031834E361F336002E01678360773
:1008200004D10678C6F30316032E02D0062905D09C
:100830000CE07C4F032664373E600AE016783607EA
:1008400004D10678C6F30316032E02D006290DD074
:1008500014E0764F05263E60744E78363560734E50
:10086000083633603F263F1D3E6002E016783607AB
:1008700004D10678C6F30316052E02D0062957D0F8
:1008800062E06B4E36686B4F3E60694E361D3668CF
:100890003F1D3E60664E083636683F1D3E60644E22
:1008A0000C3636683F1D3E60614E103636683F1D7F
:1008B0003E605F4E143636683F1D3E605C4E183613
:1008C00036685C4F20373E60594E1C3636683F1DF7
:1008D0003E60574E203636683F1D3E60544E2436EB
:1008E00036683F1D3E60524E283636683F1D3E60DA
:1008F0004F4E2C3636683F1D3E604D4E30363668C2
:100900004C4F40373E604A4E343636683F1D3E609D
:10091000474E383636683F1D3E60454E3C36366899
:100920003F1D3E60424E403636683F1D3E6002E04D
:100930001678360708D10678C6F30316032E06D0BC
:10094000042E04D0052E02D0062907D019E0D4F8D1
:100950005812394A01F04F01116002E0117809077D
:100960000FD10078C0F30310032803D0042801D06E
:10097000052806D131480168C90702D06FF001018E
:100980000160D4F83001062808D1D4F834010628D3
:1009900004D12B48016841F4806101602248743819
:1009A000016841F470010160BFF34F8FBFF36F8F97
:1009B0004FF01021D1F80002002803DBD1F8040227
:1009C000002822DA1F4A15601F480468002CFCD05A
:1009D0001524C1F800420568002DFCD0C1F804427E
:1009E00001680029FCD0136001680029FCD0BFF326
:1009F0004F8F0D48F0380168144A01F4E06111434B
:100A00000160BFF34F8F00BFFDE712491048086037
:100A1000F0BD0000E00F00F0403501400DF0ADBA30
:100A200000C007403C050040FCED00E010560040CF
:100A30000404001020C50040E40E00400004004003
:100A40003C17004004E5014000E401400400FA05C1
:100A50000090D0039001002001480068004700008A
:100A6000D400002002E008C8121F08C1002AFAD1F1
:100A700070477047002001E001C1121F002AFBD11E
:100A80007047022000F0F0B970B50024064D06E072
:100A90006868012110F8340002F0EEFB641C28782D
:100AA0008442F5D3002070BDE0000020F8B5154663
:100AB0000C460646052A01D20720F8BD02F0D6FCF6
:100AC00018B902F09DFC0028F7D1124900224E60AF
:100AD0000C708D60C1E90422C1E906220E4D0DE0C3
:100AE00006EBC4002968009181788DF80110007828
:100AF0000A4A694602F012FC0028DED1641EE4B204
:100B0000EED2BDE8F84004480021054A001D00F07F
:100B100057B80000E0000020605300008D15000071
:100B20009914000072B602F0F1F800BF01F044FF22
:100B30000028FBD111481249401AC408012000EBDB
:100B4000044010A102F050F811480068C00700D01E
:100B500000BE022000EB04400EA102F045F8BFF3F6
:100B60004F8F0B48E43801680E4A01F4E0611143ED
:100B70000160BFF34F8F00BFFDE70000C0550000CC
:100B800078550000466174616C206572726F720066
:100B9000F0ED00E053797374656D207265736574D0
:100BA000000000000400FA050EB500210091CDE917
:100BB00001106A4644F20100FFF7B4FF0EBD0000C9
:100BC000074B9B7823B12AB120B10068037C1BB18D
:100BD0000820704707207047417442610020704729
:100BE000AC05002070B503F08FF8104800240B21ED
:100BF000047044700E4D817014206C602C706C7009
:100C0000FFF708FD06211420FFF725FD1420FFF74C
:100C10000CFD0848046006211120FFF71CFD054863
:100C2000001F0068A860002070BD0000AC05002017
:100C300000010020081501402DE9F843DFF870900D
:100C400099F802305BB350B3052902D20720BDE802
:100C5000F88343691BB3437C012B22D00027044651
:100C6000002588461646284600F036F8684603F008
:100C7000FFFDC0B1012101700E4944600968C0E95F
:100C80000218C0E904769DF8000089F801000020F0
:100C900000F024F81420FFF7D3FC2846D7E70820FB
:100CA000D5E70F46DBE70425002000F017F8F4E74E
:100CB000AC050020041501400649897839B130B1EE
:100CC000416921B100210174022103F057BB0820C2
:100CD00070470000AC05002000F002B800F008B832
:100CE00072B602480168491C016070471401002077
:100CF00003490868401E086000D162B670470000D2
:100D0000140100202DE9F041064608680C46411CFC
:100D10004FF0A0474FF0010506D005FA00F1C7F8E3
:100D20000815206801F0FEFC6068411C02D000211B
:100D300001F0DCFC3168A069C1F82405607D227DEA
:100D400031681043C1F86C05D4E900123068C0F86E
:100D50001425C0F80C15207D012815D1A068411C70
:100D600002D0002101F0C2FCE068411C05D08540A2
:100D7000C7F80855E06801F0D5FCD4E902123068E4
:100D8000C0F80825C0F81015BDE8F0812DE9F04144
:100D9000064608680C46411C4FF0A0474FF001057D
:100DA00006D005FA00F1C7F80815206801F0C4FC68
:100DB0006068411C02D0002101F0A1FC3168A069EB
:100DC000C1F82405607D217D32680843C2F86C05B6
:100DD000D4E900123068C0F80C15C0F81425207D45
:100DE000012815D1A068411C02D0002101F087FC28
:100DF000E068411C05D08540C7F80855E06801F05F
:100E00009BFCD4E902123068C0F80825C0F8101520
:100E1000BDE8F0812DE9FC410646C0074FF0000512
:100E20000ED0104F00240122385D0095002311469A
:100E3000019501F0EFFB641C042CF4D300F046F89C
:100E4000B0070DD5074E0024361D0022305D032368
:100E500000951146019501F0DDFB641C042CF4D3D0
:100E6000BDE8FC81284B000007490B5C4FF0A04116
:100E7000D1F804250120984020EA0203C1F8083582
:100E80001040C1F80C057047284B00000249085C6F
:100E9000012101F081BC0000284B00000249085CE0
:100EA000002101F079BC0000284B00000649095CD4
:100EB0004FF0A040D0F80405C84010F0010000D069
:100EC000012080F001007047284B000010B500247D
:100ED0002046FFF7DBFF641C042CF9D310BD10B5CE
:100EE00000242046FFF7DAFF641C042CF9D310BD60
:100EF00010B50246064B4FF0FF3000215C5C944277
:100F000001D1084610BD491C0429F7D310BD0000CB
:100F10002C4B00002DE9F0470D468146FFF7E8FF16
:100F20000446042836D2DFF874801B481C4EA8F112
:100F30000C0725B3012D0ED0022D2BD104EB44005C
:100F400030444578002D25D0B968002922D02846A4
:100F5000BDE8F047084704EB4401755C0E44717826
:100F600049B10E4A4FF40041093A8068FFF764FE28
:100F700008B987F80390B17808F80410E2E78068B0
:100F8000FFF79AFE04EB4401314418F804008D7811
:100F9000A842D7D0BDE8F087304B0000BC0000204D
:100FA0005C0400200E2805D0112805D1002103483B
:100FB00001F0D6B90121FAE770470000744900003A
:100FC00070B50023042810D20D4D00EB4004012A17
:100FD00002D101290CD00022094E00EB4000304420
:100FE00061B1012906D0022906D00723184670BD39
:100FF0000E30C2B22A55F9E74270F7E78270F5E782
:101000005C04002070B506461E480024C0E901615A
:10101000B00720D50025012211462846FFF7D0FF52
:101020006D1C0446042D02D2002CF4D013E094B9B8
:1010300040F2666204211448FFF738FD04000AD12B
:10104000FFF722FD040006D10F48104A0021001FBF
:10105000FFF7B6FD0446F00712D00120FFF7DAFED5
:1010600074B909480A4A00210C38FFF7A9FD0400A9
:1010700006D10548074A01210838FFF7A1FD0446BB
:10108000204670BDB00000203C4B00002D13000036
:10109000DD180000830A00002DE9F05F6E4C054664
:1010A00000266078B34618B184F801B000F0FEFB6A
:1010B0006A4F4FF47A694FF4C87A4FF00108182D3F
:1010C00069D2DFE805F00C1313384754696E727B60
:1010D000727BC58484848484B3B6B9BCC5C500F072
:1010E000E5FB3868FFF7E8FD06465CE00020FFF707
:1010F000DDFE00284FF0000008D0FFF7C7FE022DEC
:1011000002D14FF4E16008E0484606E0FFF7C6FE72
:10111000022D01D1C82000E05046410CC0034FF41D
:10112000FA72801841F10001257052000023FFF788
:10113000F5F801462AE00020FFF7B8FE00284FF03E
:10114000000004D0FFF7A2FE4FF44870E5E7FFF778
:10115000A5FEDFE70020FFF7A9FE00284FF0000002
:1011600002D0FFF793FECFE7FFF798FED4E7002009
:10117000FFF79CFE00284FF0000002D0FFF786FE2C
:1011800001E0FFF78BFE257041F69A1100223868C6
:10119000FFF752FD064646E00020FFF765FE25708A
:1011A00008E0002051E025703DE084F80180012036
:1011B000FFF75AFE002240F6CD41E8E784F80180AF
:1011C0000120FFF751FE00224FF48041DFE77868ED
:1011D000FFF772FD0646D5F1110000D02EB10220B6
:1011E000FFF754FE84F802B01DE0012816D980B242
:1011F000C8214843C117C90341EA5041C0034FF415
:10120000FA72801841F1000152000023FFF786F8BE
:10121000014600227868FFF70FFD06460220FFF71F
:101220003DFE84F802803046BDE8F09F00F03EFBB2
:10123000B9E700F03BFBB4E700F038FB04E000F056
:1012400035FB0020FFF72AFE0120FFF727FEAAE763
:10125000FFF745FEA7E70000B0000020304B00007C
:101260002DE9F0470546861C90460F464FF00109D0
:101270000020FFF731FD1B4C20683860D4E90001E5
:10128000401AA16804F21C47081A0EE001213846F2
:1012900000F03CFD00F004FC0146384600F036FD4D
:1012A000D4E90001401AA168081A401C8642EDD812
:1012B000B8F1000F03D0052065F3891002E0062085
:1012C00065F39F50A2682168114004EB8101C8605A
:1012D0002068304420600020FFF700FD4846BDE84C
:1012E000F08700005C08002070B50D4604460A290E
:1012F00002D10D21FFF7F8FFA0682268411CA16010
:101300001554D4E90101814204D32046BDE8704060
:1013100000F029BE70BD0000034803C8814201D11E
:1013200001207047002070475C08002000780221EF
:10133000FFF7F0BD05494FF0FF32082841F82020A3
:1013400002D3084480F8482070470000B40400200D
:10135000F0B54FF0FF3512B10023082601E0082355
:101360000C260C4C05E000BF54F823707F1C04D001
:101370005B1CB342F8D32846F0BD26185DB286F850
:10138000305044F82310002AF5D1E11881F84800C4
:10139000F1E70000B40400200249084490F930004D
:1013A00070470000B404002070B5084C050009D057
:1013B00010342168002907D0086820604968284651
:1013C0008847F6E70834F4E770BD00008804002081
:1013D000054A012120B1012805D19170FFF7E4BF32
:1013E00051700020FAE77047880400202DE9F05F73
:1013F00026484168F1B3DFF898B00E688146DBF803
:10140000004087688078E11B21F07F45ED1CB0B972
:10141000DFF880804FF48030C8F84403C8F8040334
:101420001120FFF7F7F81120FFF7FFF84FF0010A3E
:10143000C8F800A02F2001F017FF89F802A0B542DC
:1014400000D23546124BE8193C3320F07F4018603B
:10145000DBF800105A46091B21F07F41001B20F0E9
:101460007F40C91C81420FD9106818602F2001F0FD
:10147000FBFE00E004E0BDE8F05F1120FFF7E0B8FC
:10148000BDE8F05F02F040BCBDE8F09F0001002025
:1014900004150140001001402DE9F0470025DFF858
:1014A00090803DE06068002100EBC50601203278A5
:1014B0009146FEF764FFD4E9062300EA020701EA39
:1014C000030C57EA0C0729D082438B434846C4E9F2
:1014D000062301F08BFF32788246914601200021DD
:1014E000FEF74DFFD4E9042300EA020401EA0307F2
:1014F0004A4650460021FEF742FF44404F403C43DD
:101500000CD17078012801D0012000E00020726821
:1015100080EA0A0012B1C1B2484690476D1CEDB294
:1015200098F8000044468542BCD3BDE8F08700002F
:10153000E000002010B50021024800F0F2FB80F32B
:10154000100010BD780C0020704700000E4910B547
:101550000A784C780023A24212D0521CD2B20A70F0
:10156000022A00D10B70084A0B780C3252F8232063
:1015700002608868104420F07F408860012010BD20
:101580000360002010BD0000000100202DE9F041A3
:101590008046024601200021FEF7F1FE1A4F054663
:1015A0000E467868FFF788FB00280CD1174CD4E969
:1015B000062110462A4001EA06031A4305D0A84333
:1015C000B143C4E90601BDE8F081404601F00EFFD9
:1015D00030B1D4E9040128433143C4E9040105E0F2
:1015E000D4E90410A943B043C4E90410D4E90601C6
:1015F00028433143C4E90601A1687868BDE8F04199
:101600000022FFF719BB000060530000E00000203B
:10161000F0B593B01546064631B1012907D002292D
:1016200007D0072013B0F0BD6FF0270102E00021C2
:1016300000E02821404C01AF0DF1100C0DCC87E8E3
:101640000D0001F14002ADF80420ADF8082089CC6E
:101650008CE88900501FADF81000C01CADF81400D4
:10166000B4E888100DF11C0E8EE88810ADF81C004F
:10167000001DADF82000B4E888100DF1280E8EE8AA
:101680008810ADF82800C01CADF82C0054E91A03EE
:10169000CDE90D03ADF8342054E91802CDE90F026D
:1016A00001F13C00ADF83C0054E91602CDE911020D
:1016B0004331ADF844102A4601A9304600F053FEEC
:1016C00008B1FFF771FA2A4604A9304600F04BFE34
:1016D00008B1FFF769FA2A4607A9304600F043FE31
:1016E00008B1FFF761FA2A460AA9304600F03BFE2E
:1016F00008B1FFF759FA00232A460DA9304600F039
:101700002BFD08B1FFF750FA01242B4622460FA902
:101710003046009400F0FAFE08B1FFF745FA2B4678
:10172000012211A93046009400F0F0FE08B1FFF745
:101730003BFA002076E70000944900002DE9FC5FA9
:101740000E008346DDE90C47C6F10000984692463C
:10175000814600D40846012503E000BF90FBFAF063
:101760006D1C5045FADAA84500D9454624B1002E33
:1017700001DB780700D5641EB80702D5B8F1000F69
:101780000AD0F80708D13CB1A54205D2202158461D
:10179000641EFFF7A9FDF6E7002E02DA4E462D2162
:1017A00002E0780703D52B215846FFF79DFD07F08F
:1017B000030002280BD1B8F1000F08D13CB1A542BB
:1017C00005D230215846641EFFF78EFDF6E7CDE9BD
:1017D0000047434652463146584602F0EFFFBDE807
:1017E000FC9F000070B50D46044600684FF48871F8
:1017F00001F0E7FC4FF49071206801F0E2FC4FF437
:101800009271206801F0DDFC4FF4A271206801F0B4
:10181000D8FC20681149C0F804132068690740F318
:101820000730090E002806DA00F00F0000F1E02072
:1018300080F8141D03E000F1E02080F80014206817
:10184000012140F3073000F01F0291404009800061
:1018500000F1E020C0F8001170BD0000100302008C
:10186000024600201268530713D502F00300012836
:1018700002D002280CD105E0C2F383100B68801C53
:10188000184404E00223086803EB925210440860F5
:10189000012070470268134602E08A4204D01268B1
:1018A000002AFAD10B600160704700000A4810B5A9
:1018B000807860B1002401E0022C06D02046FFF7BA
:1018C000E5FA641C042CF7D310BD0324F6E7BDE849
:1018D0001040FFF7FBBA0000B00000200348017978
:1018E000C90702D00078FFF7D7BB7047B0000020CF
:1018F0002DE9FF4F83B09946DDF840800F4616462C
:101900004FF0FF30494501D2012300E00346019327
:10191000424500DA012000904FF0000BB9EB0700C0
:1019200000D5404205B2B8EB060000D5404204B2F3
:10193000119B039802F034F9A54204DA65406C402B
:1019400065404FF0010B601B400000B20290600048
:101950000FFA80FAAAEB050004B21EE0002C09DBA6
:101960000198384487B20098304486B202982044E7
:1019700004B20CE004EB0A0004B2BBF1000F03D088
:101980000098304486B202E00198384487B232466B
:101990003946119B039802F003F94645DED14F45C5
:1019A000DCD107B0BDE8F08F2DE9F047394E0027B4
:1019B00080463D46DFF8E090D6F804A057E003D01B
:1019C0000446D0F81C8035E099F8002002EB420173
:1019D000521CD2B289F8002009EBC10199F80230FB
:1019E000091D9A4201D189F8005048680A780446D6
:1019F000012A12D0022A02D0032A3BD108E002F0C9
:101A00008DFC00B10127257434E00574C06900E045
:101A100070680028F9D170602CE0207C50BB886889
:101A20006060C868A0600869E0604869A061F078FB
:101A300000B165606268B168184B501A20F07F40B1
:101A4000984202D2A168084406E0881AA16820F0F2
:101A50007F40814202D9081A206000E0256065605D
:101A60000120A56020742046E56102F039FCB8F140
:101A70000000A4D199F8001099F801008142A3D187
:101A800017B97168514502D00120BDE8F0870020E8
:101A9000FBE7000000010020AC050020FFFF7F00F5
:101AA0002DE9FF410026234800F02DF92148001FB1
:101AB000074600F028F9204C60680090A56800E017
:101AC00000986946284004EB80000C30FFF7C8FE00
:101AD0000028F5D101AA009901EA050304EB83036C
:101AE000491CDB6842F82030401C00910228F2D3E8
:101AF000019800F0030001280BD0022810D10198B2
:101B0000032101EB90500099BDF80A6001EB9000B1
:101B100005E00198BDF80A60C0F383100844009006
:101B2000384600F0EDF808B10098606004B0304627
:101B3000BDE8F081740C00205C0800200EB54FF465
:101B400000442146002001F0ABF808B1FFF72CF863
:101B500000F024FF00F074F908B1FFF725F8002029
:101B600000F088F9FFF73EF808B1FFF71DF8234AA7
:101B700001212348FFF724F808B1FFF715F82146A3
:101B80001F4C00222068FFF757F808B1FFF70CF848
:101B900001F09CF908B1FFF707F81A490220FFF796
:101BA00031FA08B1FFF700F81548203000F0CEFBFD
:101BB00008B1FEF7F9FF14481449401AC008032180
:101BC00001EB004012A101F00FF8606802900021C3
:101BD0001A48CDE900010A4819A3012202A92030C0
:101BE00000F03CFC08B1FEF7DFFF01F083F900BF15
:101BF00000F0E2FE0028FBD1F7E70000CD41000035
:101C000054490000A50F0000C055000078550000A1
:101C1000535049207472616E73616374696F6E20F2
:101C20006D616E61676572206578616D706C6520AD
:101C3000737461727465642E200A0D0054530000A1
:101C400020204E4F5244494353454D490000000067
:101C50002DE9F047C5881E1DB6FBF5F78946B6FB92
:101C6000F5F1044605FB176C407916686843DDF80A
:101C700020A0F718001F874200D9C61A166001E09D
:101C80002468491E0029FBD1A5EB0C078846B74202
:101C900016D818E004EB0C00001D09EB0803BAF19C
:101CA000000F3A4602D00146184600E01946FEF7FA
:101CB00079FB2468F61B4FF0000CB844B54201D9FB
:101CC000374600E02F46002EE4D1BDE8F087000043
:101CD00030B5024651B101F001F80021074C08E08F
:101CE00034F821301568AB4202D11160002030BDBC
:101CF000491C8142F4D3052030BD000000000000E3
:101D0000002100F009B8012100F010B808B56A46BA
:101D1000FEF7B3FA009808BD08B56A46FEF793FAD5
:101D200008BD08B56A46FEF775FA08BD08B56A46EB
:101D3000FEF77CFA009808BD08B56A46FEF7AAFAD5
:101D4000009808BD70B5044600252846FEF7C4FF7C
:101D500021686268086890420ED9401E08600178C8
:101D6000238AE26801FB0325227A2168101AC0B297
:101D70000A79824200D208710020FEF7AFFF2846A0
:101D800070BD70B505460C460020FEF7A5FFE8685B
:101D9000298A201AB0FBF1F12A681068431C1360ED
:101DA0000170BDE870400020FEF798BF10B530B15B
:101DB000017A42680368891AC9B21A6006E00E20E7
:101DC00010BD03681A68541C1C601170491EC9B20A
:101DD000F7D2006800210171084610BDC20800F06A
:101DE00007030120895C98400840704710B5C2087D
:101DF00000F00703885C01249C402043885410BDF8
:101E000000F180400068002800D00120704708B52C
:101E100000F18040002101600068009008BD0000D2
:101E20002DE9F041040007D0044E4FF47A47751CA9
:101E30003846A847641EFAD1BDE8F081D0490000B9
:101E400070B50A4C207808B185250CE00020A06010
:101E500060602061E060064801F0D0F9054601F0BD
:101E6000B7F901202070284670BD000088040020CA
:101E7000D113000070B5104D0446A87838B114B1E4
:101E80006168012088470020FEF726FF0CE0002053
:101E9000FEF722FF24B1084821461030FFF7FAFC74
:101EA000E86808B901F0BAF9E868401CE860BDE8E4
:101EB00070400020FEF712BF8804002030B41C469A
:101EC0000378064D45F823200C3545F8234002B130
:101ED000034A30BC001D01F0FDBA00009C04002044
:101EE000253E0000F0B505460478154889B0164631
:101EF00040F82420124A0869121DA2F1080742F88E
:101F00002400487F385520226846FEF74BFA049497
:101F10002878385C48B10EB10A4A00E000226946D0
:101F2000281D01F041FD09B0F0BD0EB1064A00E0E8
:101F30000022694605F10C0001F00AFCF3E70000FD
:101F4000C400002099460000E54400000FB408B525
:101F50000399002904D004AA00926A4600F00FF801
:101F600001B05DF814FB10B582680446002A05D064
:101F7000D4E90403216898470020A06010BD2DE932
:101F8000FC4791460C00804676D014F8011B39B10D
:101F900025290ED04046FFF7A7F920780028F4D174
:101FA00098F80C00002867D04046BDE8FC47FFF7D2
:101FB000DABF0020012221782B291BD02D2902D045
:101FC000302908D102E040F0010001E040F00200B9
:101FD000641C002AEFD100252A290ED02178A1F116
:101FE00030020A2A11D205EB850201EB4205641C7E
:101FF000303DF1E740F00400EAE7D9F800100B1D8E
:10200000C9F800300968641C0D44217800232E298A
:102010000BD114F8011FA1F130020A2A05D203EBFB
:10202000830201EB4203303BF3E76C290DD06829B2
:102030000BD0692921D00BDC252918D0582931D0A3
:1020400063290ED0642915D117E014F8011FECE7BD
:10205000702969D0732932D075291BD0782909D10C
:1020600020E0D9F80000011DC9F8001001784046B1
:10207000FFF73AF9641C90E76CE0D9F800100A1DEC
:10208000C9F800200968CDE900500A224046FFF750
:1020900055FBEFE7D9F800100A1DC9F800200968C0
:1020A0000A2206E0D9F800100A1DC9F800200968C4
:1020B0001022CDE90050404602F080FBDAE7D9F863
:1020C000001000270A1DC9F800200E68C00705D1BE
:1020D00012E04046761C7F1CFFF706F93178002994
:1020E000F7D104E0202140466D1EFFF7FDF8BD4208
:1020F000C0D9002DF6D1BDE74EB13046FEF776F9D6
:10210000074604E0202140466D1EFFF7EDF8BD4272
:1021100006D9002DF6D103E04046761CFFF7E4F81F
:1021200031780029F8D1A5E7D9F80000011DC9F8D8
:102130000010056830214046FFF7D6F87821404668
:10214000FFF7D2F808200021CDE900010346102254
:102150002946B0E7BDE8FC872DE9FF5F0C46B1F9E1
:102160000450C169904683469A462288A08800267A
:102170008B88121A3746934206DB62884988101A08
:102180004FF00109814277DA072004B0BDE8F09FE3
:10219000BAF1000F72D02188881B01D44A1B33D5B5
:1021A000701CCDF80090CDE90180084483B26088AE
:1021B0000021401B82B2584601F088FDCDE900980D
:1021C0002188681C0390084483B260880021801B2A
:1021D00082B2584601F07AFDCDE900982188039833
:1021E000084483B260880021304482B2584601F02E
:1021F0006DFDCDE9009821880298084483B260887B
:102200000021284482B233E009EB4601CDF800906A
:10221000CDE901818BB26188491B8AB281B25846EF
:1022200001F054FD09EB4500CDE9009883B203901D
:102230006088801B82B22088401B81B2584601F022
:1022400045FDCDE90098039883B26088304482B29E
:102250002088401B81B2584601F038FDCDE9009836
:1022600060880299284482B220888BB2801B81B298
:10227000584601F02BFD51E061E0FFE760884346DE
:10228000284482B22088304481B2584601F088FC4C
:1022900060884346284482B22088801B81B2584619
:1022A00001F07EFC60884346304482B22088284496
:1022B00081B2584601F074FC60884346304482B2D3
:1022C0002088401B81B2584601F06AFC6088434672
:1022D000401B82B22088801B81B2584601F060FC0E
:1022E00060884346401B82B22088304481B2584601
:1022F00001F056FC60884346801B82B22088401B58
:1023000081B2584601F04CFC60884346801B82B283
:102310002088284481B2584601F042FC002F07DC97
:10232000761C36B207EB4600401C07B2002F06DDD4
:102330006D1E2DB2684207EB4000401E07B2B54249
:10234000BFF626AF002020E70069004710B504461D
:1023500000688047002802D1E2690121117010BD98
:102360008269084610472DE9FC47C3690C4681463F
:10237000988809884FF000081546C446884203D261
:102380005A88A688B24206D36288904206D25888FC
:10239000E388984202D20720BDE8FC87A388E6883C
:1023A000CF1AA2EB060000D57F42002800DA404297
:1023B000874202DDB4F808C001E0B4F80880994211
:1023C00001D0B24210D1581AB31A00D55B4263440F
:1023D0009BB2CDE90035002800DA4042404483B288
:1023E000484601F073FC36E0B8F1000F15D0002626
:1023F0000FE0B4F90600CDE90005A08862883044FA
:1024000083B22088304481B24846FFF771FA761CC7
:10241000B6B22089B042ECD81DE0BCF1000F14D058
:1024200000260EE0E088304400B2CDE90005608867
:10243000A388304482B221884846FFF759FA761CB7
:10244000B6B22089B042EDD805E030B2CDE9000542
:102450004846FFF74DFA00209EE700002DE9FE4FA9
:10246000814608880C9DADF80800D9F81C00884604
:102470004C88418828781F46081A9346A04202DA01
:102480000720BDE8FE8F00264FF00A0A2BE00A2A3B
:102490002ED0CDE9004B02AB2946484602F000FAA7
:1024A000B95D6878081AC0B220292CD0696811F883
:1024B000200000BFD9F81C108A88121ABDF8080045
:1024C00082420FDA0D9888B1B8F80000ADF8080024
:1024D00028784988B0FBFAF22244024494B2081AE0
:1024E000A04203DB761CBA5D002AD0D10020C8E7E9
:1024F000B8F80000ADF808002878B0FBFAF12144E4
:10250000084484B2CCE728784008D3E72DE9FE4F91
:102510009A468B8815468146581B87B2C8880C4658
:10252000411BDDF830C08EB2012B13D0012811D031
:10253000B3EB450F0ED3B0EB450F0BD3D9F81C20EE
:102540002188B2F80480884507D25288B4F8028006
:10255000424502D20720BDE8FE8FBCF1000F06D035
:10256000CDE9000A6288484601F0B0FB50E0ADF8C2
:1025700000106088ADF802002088A1885246084407
:10258000ADF804006088ADF80600ADF80850694663
:102590004846FFF7E8FE2088ADF800006088524604
:1025A0003044ADF802002088A1880844ADF804004A
:1025B000608869463044ADF806004846FFF7D3FE10
:1025C0002088ADF80000608852462844ADF802002B
:1025D0002088ADF80400608869463044ADF80600F4
:1025E0004846FFF7C0FE208852463844ADF8000048
:1025F000608869462844ADF8020020883844ADF868
:10260000040060883044ADF806004846FFF7ABFE92
:102610000020A0E770B541EA4201DDE904564FF021
:10262000A04441EA830141EA052104EB800041EA2C
:102630000641C0F8001770BD70B541EA4201DDE9FE
:1026400004564FF0A04441EA830141EA052104EB1E
:10265000800041EA0641C0F8001770BD70B541EA3C
:102660004201DDE904564FF0A04441EA830141EA0A
:10267000052104EB800041EA0641C0F8001770BD57
:1026800070B541EA4201DDE904564FF0A04441EA49
:10269000830141EA052104EB800041EA0641C0F8CC
:1026A000001770BD70B541EA4201DDE904564FF0F4
:1026B000A04441EA830141EA052104EB800041EA9C
:1026C0000641C0F8001770BD1CB5002100910B46F3
:1026D00001220191FFF7D4FF1CBD1CB50021009120
:1026E0000B4601220191FFF7DDFF1CBD1CB5002246
:1026F0000B46009211460192FFF7C2FF1CBD1CB5AC
:1027000000220B46009211460192FFF7CBFF1CBD41
:102710001CB5002100910B46012201911146FFF7E3
:102720009DFF1CBD1CB5002100910B4601220191AB
:102730001146FFF7A5FF1CBD1CB5002100910B46FB
:10274000012201911146FFF7ADFF1CBD4FF0A042E1
:1027500002EB8000D0F8002722F44032C0F80027B6
:10276000D0F8002742EA0141C0F8001770474FF047
:10277000A04221B101218140C2F81815704702EB37
:1027800080000021C0F8001770474FF0A0420121DF
:102790008140C2F80815704701224FF0A0438240E3
:1027A00011B1C3F808257047C3F80C257047000025
:1027B00018B5084B6C4601441B68009306E000BF47
:1027C00054F82030D3F81035401C08C28142F7D8A5
:1027D00018BD00005C4B0000034908B50844002107
:1027E00001600068009008BD006000400249405848
:1027F000012800D0002070470060004030B5154A25
:1028000001460020D2F8104423460AE0DB681D7917
:10281000854205D1401C0A28F6DB4FF0FF3030BD61
:102820001B68002BF2D1431CF9D0CB681871D2F889
:10283000103443B1DB68CC681B682360D2F81024E5
:10284000D268116030BDC2F81014C96800220A6055
:1028500030BD00005C080020F0B595B01C46154660
:102860000F4608461A9E00F00BFB182109A8FDF739
:10287000B2FD0E96CDE909540023082203A938467B
:1028800000F013FB05980690BDF81000ADF81C0091
:10289000BDF81200ADF81E0000208DF8210003984D
:1028A000082600F00300012802D0022818D032E0E8
:1028B00003983346850AC0F3C2008DF820000398C0
:1028C0000FA9C0F38314A200384600F0EEFA09A85D
:1028D000009006AB22460FA9284600F02DFA1AE018
:1028E0000398840DC0F3C2008DF82000082C01D29B
:1028F000254600E0082533462A460FA9384600F051
:10290000D4FA2E44641B09AB06AA29460FA800F08E
:102910006FF9002CEAD1384600F0B8FA15B0F0BDD6
:102920007047012001F0FCBD084810B50178084A45
:10293000515C19B1001D01F0C3F802E00C3000F049
:10294000D1FFBDE81040002001F0EABD24010020C5
:10295000C000002008B5034A00924023024AFFF756
:102960007BFF08BDA53D0000C40600200A4A0129DE
:1029700002EBC00007D0022907D0032907D00429A1
:1029800007D000207047022070470420704700796C
:1029900070474079704700007855000010B5FFF788
:1029A000C0FF04210348FFF729FF02490120C9683D
:1029B000487110BD685500002DE9F0478CB0FEF756
:1029C000ABFC18B100200CB0BDE8F0877D4C0020B6
:1029D000C4F81804BFF34F8F60680290A5684FF0E9
:1029E0000008284004EB80000CE000BFD4F8180475
:1029F00070B921680298814201D86160E2E72840FD
:102A000004EB80000C3002A9FEF72AFF0028EDD16C
:102A1000002003AA029901EA050304EB8303491C81
:102A2000DB6842F82030401C02910228F2D3039860
:102A300000F00300022802D001284DD0A7E003983F
:102A40005022810D8946B2EB905F00D850210E468E
:102A500066F39F50039008315B4800F0C8F9070007
:102A600078D000F00DFA4346082203A9384600F05A
:102A700024FA029908F1080A2940681A8000001D0A
:102A8000864222D94F4D0C3530B1C2B204EB8101E0
:102A9000301A90460C3104E02946F2B200259046E7
:102AA0002846C6B25346384600F007FA0AEB080338
:102AB00025B132462946384600F0FFF9029909F15E
:102AC000030001EB900002903BE004EB81015346D0
:102AD000324638460C31EFE70398C0F383100628DE
:102AE00000D30620039960F38911C1F38310801C81
:102AF00003918100344800F07AF9070047D000F0D4
:102B0000BFF94346082203A9384600F0D6F908F178
:102B1000080800260FE00298434600EA0501401C21
:102B200004EB81010290042238460C3100F0C5F913
:102B300008F10408761C0398C0F38310B042EAD869
:102B400047B1D4F81054D4F8180478B1384600F0DE
:102B50009DF931E01BE0E8684079012804D12A683A
:102B60002846394612689047E8680568002DF2D17A
:102B7000384600F08BF90020FEF7AEF8D4F81804C0
:102B800008B9029860600020FEF7A8F814E0D4F8B5
:102B9000104405E02168204689688847E068046899
:102BA000002CF7D109480A49401AC008022101EB5C
:102BB000004008A100F018F8FEF7AEFB80F001001D
:102BC00001E700005C080020C8550000C055000067
:102BD000785500004261636B656E647320666C75A6
:102BE000736865640000000000231A4601F0A8BA6B
:102BF0002DE9F0470E4680461C469246082940D8EB
:102C000094F80C90002020731946104600F0FAFF4B
:102C10000025B54206D218F805201BA12046FFF773
:102C200095F903E01AA12046FFF790F96D1C082DD5
:102C3000EFD318A12046FFF789F90025B54212D23B
:102C400018F805707E2F08D8FDF7A8FB0068C05D56
:102C500010F03E0F01D03A4600E02E220EA1204691
:102C6000FFF774F903E00DA12046FFF76FF96D1C23
:102C7000082DE3D301222146504600F0A5FF84F839
:102C80000C90BDE8F087000020253032780000006D
:102C9000202020007C0000002563000020000000B0
:102CA0000B4810B5FF218160002101604160C0F830
:102CB0001814C0F8141480F82014064800F0E4F842
:102CC000002803D1044800F0E8F9002010BD0000FE
:102CD0005C080020C8550000F45300000248034976
:102CE000401AC00870470000C85500007855000021
:102CF00013B56846FEF7ECFF08B100201CBD024882
:102D0000009950F831001CBD7855000070B5094895
:102D10000125D0F8104480F8205407E0E0684571A0
:102D20002168204649688847E0680468002CF5D18E
:102D300070BD00005C0800202DE9FF4781460C9D16
:102D400000200C462F7B28739846164629461846C5
:102D500000F058FF072E42D2DFE806F004090F16F4
:102D60001F2A360049462846FFF7F0F837E0494663
:102D700028462268FFF7EAF831E0D4E90023494603
:102D80002846FFF7E3F82AE0A0680090D4E9002382
:102D900049462846FFF7DAF821E0D4E90201CDE9F7
:102DA0000001D4E9002349462846FFF7CFF816E092
:102DB00004F1080007C88DE80700D4E9002349465C
:102DC0002846FFF7C3F80AE004F108000FC88DE8B1
:102DD0000F00D4E9002349462846FFF7B7F8002240
:102DE0002946404600F0F0FE2F73BDE8FF872DE92D
:102DF000F041058A80462D1F4819C01CB0FBF5F034
:102E0000C6B24046FEF79EFF041E19D00020207176
:102E100001206071E58000272546761EC4F80080F9
:102E20000BE04046FEF78EFF60B16179491C61718D
:102E3000286005467F1CC0F80080B742F1D32046C9
:102E4000BDE8F081204600F002F80020F8E72DE907
:102E5000F041457901466B1E002201E00968521CD1
:102E60009A42FBD30F680146002605E038460C68FD
:102E7000FEF787FF2146761CAE42F7D3BDE8F0810E
:102E80000121001DFEF742BFFEF790BF10B50446BA
:102E90000121001DFEF750FF10F0FF0F04D1204666
:102EA000BDE81040FFF7D3BF10BD1CB50192012251
:102EB000009201AAFEF7CCFE1CBD1CB501920022B7
:102EC000009201AAFEF7C4FE1CBD0000064910B521
:102ED00000204870091D0860BFF35F8F0349044854
:102EE00000F0E9F8002010BD18010020A0530000F8
:102EF000B806002010B50020FDF7EEFEF1EE100A36
:102F000020F09F00E1EE100ABFF35F8F05494020DB
:102F1000C1F880020020FDF7E1FE20BF40BF20BFC6
:102F200010BD000004E000E02DE9F0410446002758
:102F300090460E463846FDF7CFFE204600F038F8A2
:102F400030B105270020FDF7C9FE3846BDE8F08105
:102F500020680568B8F1000F05D10168204600F02F
:102F60003FF821680860E268012A0CD0022A0ED0DE
:102F7000042A11D06068082A13D005FB02013046EC
:102F8000FDF710FADEE76068405D3070DAE76068F0
:102F900030F815003080D5E7606850F825003060C3
:102FA000D0E700EBC500D0E90010C6E90010C9E782
:102FB000016808684968884201D1012070470020F3
:102FC000704701680A6849688068884201D9491CCD
:102FD00000E00021914201D101207047002070479C
:102FE0008068884201D9481C7047002070472DE94D
:102FF000F04104464FF000080E464046FDF76CFED7
:103000002046FFF7DEFF070009D0207C38B14FF0E3
:1030100004080020FDF762FE4046BDE8F08120680C
:10302000456841682046FFF7DBFF2168486037B1FB
:10303000206801682046FFF7D3FF21680860E26836
:10304000012A14D0022A16D0042A19D0082A1CD02A
:103050006068314605FB0200FDF7A4F9204600F048
:1030600029FE21688A688242D3D28860D1E76168EC
:1030700030784855F2E76168308821F81500EDE7AF
:103080006168306841F82500E8E7D6E90001626828
:1030900002EBC502C2E90001E0E78268002191600D
:1030A00082681161826851618268D1608268516072
:1030B000806801607047016009684160AFF300807B
:1030C00010B5D0E900215368994201D1002104E0F4
:1030D000D1E90034A34202D01946816010BD083105
:1030E0004160F0E770B5044603460D46074A0830D4
:1030F000FEF7E4FE010007D12068002204C03CCDA9
:103100003CC0A0F110020260084670BDE53D000021
:103110002DE9F0418046134888B01D460E9C00689A
:1031200016460F4600900F491822091D01A8FDF709
:1031300039F96846CDE903068DF8145001A94046D7
:10314000069700F011F8002808D101E004B1A0476B
:103150009DF800000028F9D19DF8010008B0BDE8F5
:10316000F0810000AC53000073B50546406801A92A
:10317000FFF73DFF040003D10021284600F07EFF49
:1031800020467CBD10B504460C3000F071FA216871
:103190000020086010BD4058002800D00120704772
:1031A00008B5002242504058009008BDD0F80403F2
:1031B000084000D0012070474058002800D001206E
:1031C000704708B5002242504058009008BD0000EA
:1031D00008480068012110F0010F06D14FF0E020EF
:1031E000C02280F80024C0F80011034901200860C3
:1031F0007047000000E100E0180500400649024663
:1032000000200B790BB1852070470A6001220A71FA
:1032100000224A7170470000CC00002070B54FF4C6
:103220008270FEF7F4FD02204107C1F804030B4B46
:10323000196841F0807018600948026842F0010482
:10324000046044684FF40A554668361BAE42FBD30F
:103250000260196003490120086070BDFCED00E0C8
:10326000001000E008000040002802D00149800161
:1032700008477047715300002DE9F0418846054624
:1032800000F076FC234E002828461AD0FEF784F87A
:10329000304490F848008009032802D001280ED05D
:1032A00007E04FF0A040D0F81005E84010F0010F03
:1032B00005D003212846BDE8F041FFF747BA0221B7
:1032C000F8E700F061FC002822D02846FEF764F8F9
:1032D00004464FF4807000EB84000F4F81B207EB7F
:1032E0008400D0F8102542F00102C0F810250846ED
:1032F000FFF772FAB8F1000F0AD02846FEF74CF833
:1033000056F82000002803D00120A040C7F804038D
:10331000BDE8F081B4040020006000402DE9FC41CC
:10332000DFF8BC80044608EB0400002790F9300069
:103330001346C0170E46401C01D008274CE0B07859
:103340001946C0F340022046FEF702F80546401C2D
:1033500041D0B078410719D4C0070AD04FF0A0403F
:1033600000EB8401D1F8000720F00200C1F800074B
:1033700007E000217378204600910A460191FFF78B
:103380005BF9174920465431FEF730FDB0788007CD
:1033900018D51448317800EB8500D0F81025124B71
:1033A0001A40C0F810254FF4F8524FF4403302EAA7
:1033B000042203EA01410A43D0F810150A43C0F879
:1033C000102509E008EB0500327810F8481F41EAA3
:1033D0008211017000E004273846BDE8FC8100003E
:1033E000B404002000600040FFE0FCFF4FF0A0416B
:1033F000D1F81015C14011F0010000D00120704734
:1034000070B5174D95F8580008B1082070BD002020
:10341000411E2A18401CC0B282F830102028F8D370
:1034200000242046FDF786FF641CE4B20C2CF8D380
:1034300000240C49C0206C6581F80004012640205E
:10344000891FC1F800014FF4BE70FFF7C5F90649A6
:10345000F007C1F8040385F85860204670BD0000ED
:10346000B404002006E000E000600040034890F84B
:103470005800002800D0012070470000B40400204C
:103480000121B1EB507F01D101207047002070472E
:1034900070B50D4600F002FC04000FD00020FDF7CF
:1034A0001BFC207920B10020FDF718FC112070BD15
:1034B0000120256020710020FDF710FC002070BD68
:1034C00010B500F0EBFB002802D000210160017173
:1034D00010BD00002DE9FC5F064600790C4615463C
:1034E00000EB400101EBC0025F49984601EB820707
:1034F000397F11B10820BDE8FC9F5C4951F82010CC
:103500003068FFF7C5FF08B11120F4E7C7E900589C
:10351000207B4FF0A04B4FF00109012805D82278FD
:1035200009FA02F0CBF80C0502E02078FFF72DF93C
:103530004FF0000ACDF800A0CDF804A02078534643
:1035400052460121FFF78AF865784FF0FF38FF2DCA
:1035500007D009FA05F0CBF80C052846FFF7D8F894
:1035600000E04546A078FF2809D0002280460123CC
:10357000CDF800A01146CDF804A0FFF76FF8307920
:10358000DFF8E4B000EB400202EBC0020BEB82007C
:10359000A178C177E078FF2804D0FFF7F6F8E0784B
:1035A000FFF7B6F83279E07802EB420101EBC20195
:1035B0000BEB8101887730682378C0F80835C0F8B4
:1035C0000C55C0F81085A168C0F82415237B617BD9
:1035D00001B10121012B04D0022B05D0032B08D10E
:1035E00005E041F0020104E041F0040101E041F096
:1035F0000601C0F854153379617903EB430505EBF7
:10360000C3030BEB830282F82010396811B1042147
:10361000C0F804134946C0F800953868F8B130681E
:10362000227940F3073000284FEA421206DA00F010
:103630000F0000F1E02080F8142D03E000F1E020FD
:1036400080F80024306840F3073000F01F0201FAD0
:1036500002F24009800000F1E020C0F8002150464D
:1036600087F81DA0397746E710050020604B000061
:103670002DE9FC410646007900EB400101EBC0005A
:10368000154901EB8005286860B1306840F30731C7
:1036900001F01F02012090404909890001F1E02159
:1036A000C1F880013768286810B10420C7F8080302
:1036B000E87F0024FF2806D0002300940122194649
:1036C0000194FEF7CBFFC7F800453068FFF7F8FE1E
:1036D0002C77BDE8FC810000100500202DE9F041A9
:1036E00016460A460179002501EB410303EBC101AF
:1036F000124B03EB81014B7F13B11120BDE8F08128
:103700000C68012304B14B7792E8905001F10C084A
:1037100088E89050002781F828708C7FFF2C04D017
:103720004FF0A04CA340CCF80C3516B14F770625CE
:1037300002E0006800F096FB2846DFE71005002055
:103740000149024800F014BF3C0500200020004061
:103750002DE9F0410546007916460F4600EB400181
:103760002C4A01EBC00102EB810494F82A1011B13C
:103770000820BDE8F081284951F820102868FFF79B
:1037800087FE08B11120F4E739462846FDF7BAFA5A
:1037900066603869206030004FF001062DD03F7F11
:1037A0004FF48E712868FFF7FBFC4FF4A271286874
:1037B000FFF7F6FC28681949C0F8041328684FEA97
:1037C000471140F30730002806DA00F00F0000F13F
:1037D000E02080F8141D03E000F1E02080F80014E0
:1037E000286840F3073000F01F0106FA01F1400994
:1037F000800000F1E020C0F8001128680421C0F822
:1038000000150020A061E06184F8290044F8140F3D
:10381000A675AEE73C050020644B00008000020066
:103820002DE9F047054600790B4600EB400101EB1E
:10383000C000234901EB8004284600F043F810B192
:103840001120BDE8F0874FF00008C4F82080A36085
:10385000626184F828804FF48E76474631462868A6
:10386000FFF79EFC28684FF00109C0F80890214638
:10387000286800F019FE606800BBD5F800A00EE0D3
:1038800094F8280008B10F2716E031465046FFF79C
:1038900082FC0028F4D02146504600F005FE216A43
:1038A00060698142F1D331462868FFF774FC002833
:1038B000F9D02868C0F80C90C4F814803846C0E7E6
:1038C0003C050020007900EB400101EBC0000449F9
:1038D00001EB80004069002800D001207047000003
:1038E0003C0500202DE9F047044600794FF000091F
:1038F00000EB400101EBC000254901EB8007206887
:10390000C0F80095786880B120682249C0F8081393
:103910002068012140F3073000F01F029140400968
:10392000800000F1E020C0F880112068D0F80C255C
:10393000D0F81485D0F80865D0F810554FF0FF3155
:10394000C0F81415C0F80C152068C0F80815C0F8A8
:103950001015501C02D01046FEF7B6FEB8F1FF3F1E
:1039600002D04046FEF7B0FE681C02D02846FEF7A3
:10397000ABFE701C02D03046FEF7A6FE2068FFF7B3
:103980009FFD87F82A90C7F80490BDE8F0870000F3
:103990003C050020840202000149024800F094BE68
:1039A00068050020002000402DE9F041054616463C
:1039B00000790F46154A00EBC00102EB810494F830
:1039C000201011B10820BDE8F081114951F82010F4
:1039D0002868FFF75DFD08B11120F4E73946284655
:1039E000FDF7D4F96660386920601EB1397F28463A
:1039F000FDF7F8FE28680821C0F800150020A06136
:103A0000E0616061012184F82010DCE76805002096
:103A1000684B00002DE9F04704460E460079204926
:103A200000EBC00001EB800517463046FFF728FD8C
:103A300030B1204600F036F820B11120BDE8F08703
:103A40001020FBE76F61AE604FF49076002731469F
:103A50002068FFF7B6FB4FF4AC7841462068FFF7CB
:103A6000B0FB2068AA686969C0F84425C0F8481509
:103A7000206801218160686878B9B14649462068AC
:103A8000FFF79AFB064641462068FFF795FB064381
:103A9000F4D000B10F27002068613846CEE700005F
:103AA000680500200079054900EBC00001EB8000AB
:103AB0004069002800D00120704700006805002000
:103AC0002DE9F04704460079274900EBC00001EBDF
:103AD000800720684FF00009C0F80095786880B131
:103AE00020682249C0F808132068012140F30730FC
:103AF00000F01F0291404009800000F1E020C0F872
:103B000080112068D0F80C25D0F81485D0F808650D
:103B1000D0F810554FF0FF31C0F80C15C0F814154F
:103B20002068C0F80815C0F81015501C02D01046C7
:103B3000FEF7D3FDB8F1FF3F02D04046FEF7CDFDC2
:103B4000681C02D02846FEF7C8FD701C02D0304623
:103B5000FEF7C3FD2068FFF7B3FC87F82090C7F895
:103B60000490BDE8F0870000680500201003020003
:103B70000449084490F93000082801DB012070470F
:103B800000207047B40400200449084490F9300034
:103B9000082801D20120704700207047B40400209B
:103BA000F0B40D46C16914468A884988954208D206
:103BB0008C4206D2866821462846B446F0BC1A4696
:103BC0006047F0BC7047000010B50C46017A05292B
:103BD00008D0407A38B1084808A102682046FEF7AC
:103BE000B5F900E01AB106A12046FEF7AFF920466C
:103BF000BDE81040FEF7B7B96C0100202573000046
:103C00000D0A000038B5C3880D46044633B114A030
:103C1000009015A216A12846FEF798F9217A0529E9
:103C20001CD0607A48B1A088FEF7A0FE164951F872
:103C3000202016A12846FEF789F9A0880021FFF769
:103C400057F803461049207A143951F8202001B062
:103C50002846BDE830400EA1FEF778B938BD000017
:103C60001B5B306D000000001B5B313B33316D008E
:103C700025734C6F67732064726F707065642028C1
:103C800025642925730D0A006C01002025730000AE
:103C90003C25733E2025733A2000000003498842EA
:103CA00001D1034870470020704700000020004009
:103CB000D400002001680A684968914201D3881A3B
:103CC00070478068801A0844401C7047F8B5154654
:103CD0000246C0691C460E46DDE9063781884088E9
:103CE0008E420FD285420DD2891BA14200DA8CB2DE
:103CF000401B984200DA83B20097D76822462946D3
:103D00003046B847F8BD000070B5012670044FF08A
:103D1000E0210025C1F88001084C4010C4F8480398
:103D2000C4F8080366602F20FFF79EFAA660044CD3
:103D30002F20A560FFF798FAA57070BD0010014014
:103D40000001002070B5054688690C4600284FF434
:103D5000847128460AD0FFF723FAD5F81805626A5D
:103D6000E1688854606A401C606270BDFFF718FA11
:103D7000D5F8180570BD1FB501238DF80030CDE9C9
:103D80000121D0E90012684690471FBD1FB50123ED
:103D90008DF80030CDE90121D0E900126846904746
:103DA0001FBD000070B50D4C0020D2B22070201D48
:103DB0000B4D0378EB5C1BB1001DFFF72BFE02E0FF
:103DC0000C30FFF72DFD08B1FCF7EEFE60780028FF
:103DD00002D021780029FAD070BD00002001002017
:103DE000C000002010B50C4601462068097849B192
:103DF0000321204600F01CFB2046BDE810400121B5
:103E000000F03CB9027E0021521C0368D2B21B7C38
:103E10009342EED90276204600F07CF90100E8D109
:103E200010BD000000B585B00A4601788DF800107D
:103E300041680191017A8DF80810C1680391007CF6
:103E40008DF81000044850F822100C3850F8222049
:103E50006846904705B000BDA804002048700020C7
:103E600008707047F8B50026044604204E620D46DF
:103E7000C4F80803C4F80861D4F808010090506839
:103E800010B11068007801E095F82000C4F81C0516
:103E90005068012802D91068407804E0D0680128F1
:103EA00003D995F82000C4F81C05286818B104202F
:103EB000C4F80403F8BDD4F808010028FBD0C4F806
:103EC0000861D4F8080100902946204600F0BAFAAB
:103ED0000028F0D1A87FFF28ECD0BDE8F840FEF71D
:103EE00054BC0000084900EB400001EBC00106484B
:103EF00010B5F838FFF738F9002803D0BDE81040B6
:103F0000FCF752BE10BD0000D84A000070B5002476
:103F10000E4D02E001D3072010E00C4804EB4406EC
:103F200005EBC6011838FFF71FF930B907486030B4
:103F300000EBC6017838FFF717F908B1FCF734FE3B
:103F4000641CE4B2042CE5D370BD0000F849000005
:103F500070B51D4C86B004F168000FC88DE80F00E5
:103F60006946A4F17000FFF7BDF800282AD14FF48C
:103F700000711648FCF72FFA01211220FEF7F7FB1B
:103F800001211820FEF7F3FB4FF0A0454FF080769B
:103F9000C5F80C650F2005F5A165FDF741FF2E6002
:103FA0000220FDF73DFF783401AD94E80F0085E86D
:103FB0000F00002001460090012301AAA4F1E800AF
:103FC000FFF7A6F806B070BD504A00001C020020A2
:103FD00070B5C1F3C703C3EBC314C1F3C7050444F1
:103FE000C5EBC51630442844084D2344074C405DBA
:103FF000074D01F007011C44695C01238B400AB1A5
:10400000184300E09843207070BD00001C0200209F
:10401000D64900002DE9F0438618DDF81C90804653
:10402000802E15D2CF18202F12D2CDB20EE000BFB5
:1040300008F0FF0406E04A4629462046FFF7C8FF7D
:10404000641CE4B2A642F6D86D1CEDB2AF42EFD8C4
:10405000BDE8F0834FF0A0414FF48020C1F80C057B
:1040600070474FF0A0414FF48020C1F80805704719
:104070000148FFF787B80000E04900002DE9F04152
:104080000E460546002700202C68FCF725FE3EB9A9
:104090002868006820B1BDE8F0410020FCF71EBE92
:1040A000002221466868FEF73FFF08B12760F2E76B
:1040B0000020FCF713FE2068406928B32068466999
:1040C000102231466069FCF798F960B105F10808E3
:1040D00005F10C00FFF7CCFA2B460D4A314640465D
:1040E000FDF7ECFE6661277628680068016809B173
:1040F00080688847284600F00DF8010006D0284661
:1041000000F096F90126BEE7261DD9E7BDE8F0814B
:10411000E53D00001FB550F80C2B117E1268D268E7
:1041200002EB01110C790B688A68097BCDE9003438
:10413000CDE9022100226946FFF7D0FA04B010BD94
:104140002DE9F84F204D92468946064698460122B1
:1041500069461846AF68FDF783F858B30098002108
:104160000446801C09E000BF00EA07035AF821203A
:1041700005EB8303401C491CDA604145F4D34FEA48
:10418000164AFDF7D7F94AEA0041601C384005EBB2
:1041900080003C4005EB8402C160D06866F3C50036
:1041A00068F3891069F39F2020F00300401C20F081
:1041B0000400D06095F8200402E000BFFEF7FCFB8D
:1041C0000028FBD1BDE8F88F5C08002010B5224C18
:1041D000207830B301284FF00002204811462CD03F
:1041E000FDF716FA08B1FCF7DFFC002201211B489D
:1041F000FDF70EFA08B1FCF7D7FC0122022117489F
:10420000FDF706FA08B1FCF7CFFC1448FEF79CF85E
:104210002078401CC0B22070022801D900202070F4
:1042200010BD012200210D48FDF7F2F908B1FCF79D
:10423000BBFC002207E00022E0E7FDF7E9F908B146
:10424000FCF7B2FC012201210448FDF7E1F9002846
:10425000F1D0FCF7A9FCEEE708000020744900004B
:104260002DE9F84F1D4C00256846D4E901A6FDF75D
:104270006DF9002738B30023009A61681CE0D1F87B
:1042800000C00846944503D9ACEB02020A6015E071
:10429000A2EB0C0263440760D0F80CC0C1698146F0
:1042A000BCF1000F08D006EB030828F07F48C0E9F6
:1042B000018CC9F81C5005460029E0D128466160F0
:1042C000FDF772FB03E02846FDF76EFB10B1504688
:1042D000FDF78CF8E770BDE8F88F000000010020C2
:1042E0000D4B10B5596831B102680C68A24204D870
:1042F000A21A0A60C161586010BD0B4603E00B466C
:10430000C969121B21B10C689442F8D3A41A0C603D
:104310000260C161D86110BD000100202DE9F041AB
:10432000144E77683D462C4603E0844204D025466F
:10433000E469002CF9D11BE0D4B1A5420BD1F86996
:10434000706040B90C49012088600021B160F070B4
:104350002F20FEF789FF2168E069E86110B102684B
:10436000114401607068874202D00120BDE8F081ED
:104370000020FBE70001002000100140F8B50646D0
:1043800000240D462046FCF7A7FC684600F070FAB2
:1043900068B10570084946609DF80000487000202B
:1043A000FCF79CFC1420FCF74BF92046F8BD0424D4
:1043B0000020FCF793FCF8E7AC0500202DE9F04164
:1043C000194D6C68002C2CD0184800270068A9688B
:1043D000B846401A20F07F462068B0420CD82146EB
:1043E000361A0744E469087C20B181F81080886996
:1043F00049698847002CEFD129786878814206D135
:10440000401CC0B26870022801D185F801800648BE
:1044100069780C3040F82170BDE8F0411420FCF7B9
:104420000FB9BDE8F0810000000100200415014033
:1044300000680B4600684268002A02D0816818466E
:104440001047704738B5D0F818258DF800208B69D3
:104450004A6A9A4203D29DF800304C69A3544B6AD1
:104460005B1C4B6291F828405A1C3CB10C69944289
:1044700000D90A618C69944200D98A610D6995421C
:1044800002D9C968895C04E08C69944204D991F826
:104490002010C0F81C1503E0AB4201D3A34201D2A7
:1044A000012038BD002038BD70B50C4605464FF4DC
:1044B0008E71FEF775FE216AA068415C206A401C7F
:1044C0002062C5F81C1570BD1FB500228DF80020B4
:1044D0000291816801914261D0E9001268469047DB
:1044E0001FBD00001FB50A4601788DF80010416815
:1044F0000191017A8DF80810C0680390044850F8C3
:104500002210001F50F82220684690471FBD00006F
:10451000C8000020014901200870704720010020D8
:1045200010B588B0044620220E496846FBF73AFFD2
:1045300006200090C01F0190029003904FF0EB7096
:1045400006900CB1084A00E0002269460748FDF7D2
:10455000C9FC08B1FCF728FB0448001F447008B0F0
:1045600010BD0000D45300001545000024010020B8
:104570002DE9FF470C4605464FF40071FEF716FE85
:1045800001274FF40178002618B34FF49279494679
:104590002846FEF700FEE0B149462846FEF700FE39
:1045A000C5F8088394F8290000B96F6002208DF8DF
:1045B0000000D5F88004C5F880040390A06902903B
:1045C000E0680190A661E661D4E900126846904770
:1045D00028E004212846FEF7E9FD18B34FF4847162
:1045E0002846FEF7D8FDE8B121462846FFF7AAFB8A
:1045F000616AA069884215D1E06938B1E268616AF0
:10460000A0612069E6616662E06008E094F8290034
:1046100000B96F60C5F80883A661E268616A204648
:10462000FFF7A9FB4FF48E7841462846FEF7B3FD0D
:1046300078B1206A6169884202D294F8280020B3D8
:1046400041462846FEF7ACFD616911B12046FFF7EF
:104650003BFF4FF4A27841462846FEF79CFD002818
:1046600018D041462846FEF79BFD94F8290000B17A
:104670002F60A06900280DD0A661E268616A04B0CD
:104680002046BDE8F047FFF776BB21462846FFF7F6
:104690000BFFDEE7BDE8FF871FB50A4601788DF8FE
:1046A000001041680191017A8DF80810C0680390EC
:1046B000044850F82210001F50F822206846904706
:1046C0001FBD0000C80000202DE9FF410C464FF43B
:1046D000927706463946FEF76FFD0025B8B1394698
:1046E0003046FEF76EFD02208DF80000D6F88004FB
:1046F000C6F880040390D6F83C050290E06801906B
:10470000A561E561D4E900126846904723E04FF4C3
:10471000887739463046FEF74FFDE0B139463046DE
:10472000FEF74FFDD6F83C15A069884213D1E06929
:1047300060B1E268D6F8000220F02000C6F800025E
:10474000E069A0612069E561E06001E0A561E268DF
:104750002046FFF71BFB4FF4A27739463046FEF7A1
:104760002BFD68B139463046FEF72BFDA06938B104
:10477000A561E561D6F83C152046E268FFF706FB27
:104780004FF4907739463046FEF716FD002812D0D8
:1047900039463046FEF715FD606900280BD0D6F883
:1047A0004C058DF800500290A06801906561D4E935
:1047B000001268469047BDE8FF8100002DE9F05FD8
:1047C0008346DDE90A4A994690460D460846012788
:1047D00003E000BFB0FBF8F07F1C4045FAD2B945BA
:1047E00000D94F465FEACA7012D18CB15FEA8A7075
:1047F00002D5B9F1000F01D0202607E0302605E0F0
:1048000031465846641EFCF76FFD0CB1A742F7D342
:104810005FF00106B9F1010F02D9A9F1010903E026
:10482000B5FBF6F0404502D306FB08F6F2E7DFF8E9
:104830003C9000BFB5FBF6F000FB165519F80010D0
:104840005846FCF751FDB6FBF8F6002EF2D15FEAB0
:10485000CA7009D0002C07D0A74205D220215846A3
:10486000641EFCF741FDF5E7BDE8F09F76530000BC
:104870000A494A788B78521CD2B2934200D1002266
:104880000B78934201D1002070470270487800EB0A
:10489000400001EBC000001D70470000AC05002087
:1048A0002DE9FF4F487883B0101AC0B20C46009033
:1048B0004968984611F82000C01D4FEAD009202A07
:1048C00001D0002734E0B8F80000217800EB510057
:1048D0003AE0002628E000250098022101EB800B39
:1048E000109807FB096A384401906168C5F1070216
:1048F00031F80B00A1680144012011F80A10904022
:1049000001420BD0B8F8000005EBC601084481B2A3
:104910000198119B82B20398FFF742F96D1CEDB22A
:10492000082DE2D3761CB6B24E45D4D37F1CBFB25D
:104930002078B842CDD86168009811F82000E1785D
:104940000144B8F800000844A8F8000007B0BDE82A
:10495000F08F000094010020050001000000150008
:104960000800000000001300020002000000130015
:1049700002000200513F000071400000D13F0000E2
:10498000154000000D3F000049150000E53E000005
:1049900000000020000014000000160001000000CC
:1049A00000001700000019000100000000001900BD
:1049B00000001900010000000000190000001700AD
:1049C00001000000000000000000000000000000E6
:1049D0000338FDD8704707060504030201000000F4
:1049E00000020020DC550000000000000030004004
:1049F0000000000000000000554000000000000022
:104A0000000000002C000020010000000000000059
:104A10005540000000000000000000003C000020A5
:104A200001000000000000005540000000000000F0
:104A3000000000004C000020010000000000000009
:104A40005540000000000000000000005C00002055
:104A500001000000000000006340000000000000B2
:104A6000000000006C0000200100000000000000B9
:104A70006340000000000000000000007C000020F7
:104A80000100000000000000634000000000000082
:104A9000000000008C000020010000000000000069
:104AA0006340000000000000000000009C000020A7
:104AB00001000000000000001917FF1607FF0000AA
:104AC00000000080000000001D0000200C0000001D
:104AD0000000000000000000554000000000000041
:104AE00000000000084B0000010000000000000072
:104AF000554000000000000000000000184B0000BE
:104B00000100000000000000AC00002001000000D7
:104B10000000000000000000AD00002001000000C7
:104B20000000000000000000111213140D0E0F1001
:104B30001C0400203C040020680400200D00030039
:104B4000150F00000E000300150F00000F000300FA
:104B5000150F000010000300150F000000000050AA
:104B6000F506000041370000993900000000C080C0
:104B700080808080800000C0000000000000A0A0B5
:104B8000A0A00000000000000000000000002222A1
:104B900022FF242424FF44440000000010384480F5
:104BA000C060380C0484C478100000000000E3A248
:104BB000A4E80810262949860000000000003848B3
:104BC0004040205089864639000000000000808067
:104BD0008080000000000000000000002020404015
:104BE00080808080808080808040402080C0402005
:104BF0002020202020202020202040800000C0E015
:104C0000C0000000000000000000000000000008DC
:104C1000080808FF0808080800000000000000005D
:104C20000000000000000080808080000000000084
:104C300000000000F800000000000000000000007C
:104C400000000000000000C000000000000003029F
:104C50000404080810102020404080000000384460
:104C6000C682828282C64438000000000000307094
:104C7000B03030303030303000000000000078C8F4
:104C8000840408103060C0FC00000000000070C800
:104C9000080830080484C8780000000000000C0CEC
:104CA0001414244444FE04040000000000007C802E
:104CB00080F88C0404048C780000000000000810C8
:104CC000207844868286C478000000000000FE063A
:104CD000040C08101020204000000000000070C8E4
:104CE00088C870888484887800000000000078C438
:104CF000868284C47810306000000000000000004C
:104D000000C00000000000C0000000000000000023
:104D100000C00000000000C0404080000000000211
:104D20000C3060C0601806020000000000000000A7
:104D30000000FF0000FF00000000000000000080F5
:104D4000601806020C30C08000000000000070886F
:104D5000880818302020002000000000000000001B
:104D600078489CA4A49C403C000000000000000087
:104D70000C000C00140012003200230021007F0000
:104D80004080C08000000000000000000000F88C9F
:104D9000848CF884828286FC0000000000003E6261
:104DA000C080808080C0623E000000000000F88467
:104DB00082828383828284F8000000000000F880F1
:104DC0008080F880808080F8000000000000F8807B
:104DD0008080F880808080800000000000001E61DC
:104DE00040808F818141611E0000000000008383AC
:104DF0008383FF838383838300000000000080801F
:104E00008080808080808080000000000000202062
:104E100020202020202020C00000000000008688E4
:104E200090A0C0A0908884820000000000008080D4
:104E300080808080808080F80000000000000000FA
:104E4000C0C0C0C0A140B34092408C408C4088405C
:104E5000804080400000000000000000000081C190
:104E6000A1B191898D8783810000000000000000BE
:104E70003E006300C1808080808080808080C1800F
:104E800063003E0000000000000000000000F88405
:104E90008484F88080808080000000000000000092
:104EA0003E006300C1808080808080808480C380D9
:104EB00063003EC000000000000000000000F88415
:104EC0008484FC908888848600000000000078C4F8
:104ED00080C0700C04868478000000000000FE1082
:104EE000101010101010101000000000000082823E
:104EF000828282828282463C000000000000000024
:104F0000C080418041006100220022001600140090
:104F10001C000C0000000000000000000000000069
:104F20008404C60C420862182310231013B014A086
:104F30001CE0084000000000000000000000C36208
:104F4000241C1818142662C1000000000000C16271
:104F50002614180808080808000000000000FE04D5
:104F60000C0810302040C0FE00000000E08080806F
:104F70008080808080808080808080E00000804011
:104F8000402020101008080404020300E020202024
:104F90002020202020202020202020E000000800C9
:104FA0000C0014001600220022004100C180000005
:104FB00000000000000000000000000000000000F1
:104FC0000000000000000000FE0000000000C060C3
:104FD00000000000000000000000000000000000D1
:104FE00000708808F88898E80000000000008080C1
:104FF00080B8CC848484CCB800000000000000009D
:105000000070908080809070000000000000040418
:1050100004748C8484848C74000000000000000000
:1050200000708888FC8088700000000000007040DC
:1050300040E04040404040400000000000000000D0
:1050400000748C8484848C740488700000008080D8
:1050500080B8C88484848484000000000000C000FC
:105060000080808080808080000000000000600060
:1050700000606060606060606040C0000000808030
:105080008098B0E0E0B098880800000000008080C0
:105090008080808080808060000000000000000030
:1050A000000000000000FB80CCC0884088408840A1
:1050B0008840884000000000000000000000000060
:1050C00000B8C884848484840000000000000000CC
:1050D0000070888484848870000000000000000054
:1050E00000B8CC848484CCB88080800000000000AC
:1050F00000748C8484848C74040404000000000018
:1051000000B0C080808080800000000000000000AF
:1051100000384840380CCC780000000000004040C7
:1051200040F04040404040380000000000000000D7
:10513000008484848484CC7400000000000000009B
:1051400000C444486828301000000000000000003F
:10515000000000000000D880498049004D00350063
:1051600036003200000000000000000000000000D7
:1051700000C64C3810384CC600000000000000008B
:10518000008484848484CC7404887000000000004F
:1051900000F818302040C0F8000000006040404097
:1051A00040408080808040404040406000008080DF
:1051B00080808080808080808080000080404040AF
:1051C000404040406040404040404080000000007F
:1051D00000000062528C000000000000020000008D
:1051E0000300100008002000060030000800400006
:1051F0000800500001006000030070000300800000
:10520000030090000800A0000100B0000500C000ED
:105210000200D0000800E0000700F00004000001D8
:1052200006001001060020010700300106004001C1
:1052300007005001070060010600700107008001AF
:10524000020090010200A0010700B0010800C001A7
:105250000700D0010500E0010600F001090000028E
:10526000070020020700300208004002050050023B
:105270000500600208007002080080020100900230
:105280000300A0020700B0020500C0020A00D0021D
:105290000800F00209000003060020030A003003A2
:1052A0000700500307006003070070030700800336
:1052B000090090030E00B0030800D0030800E003CB
:1052C0000700F0030300000408001004030020049A
:1052D0000900300407005004030060040500700456
:1052E00006008004040090040600A0040600B00438
:1052F0000400C0040600D0040600E0040200F0042C
:105300000300000505001005030020050A00300514
:1053100006005005060060050600700506008005C1
:10532000040090050600A0050500B0050600C005B4
:105330000600D0050900E00507000006060010067B
:105340000500200603003006010040060300500659
:10535000070060060F217E02DC5100006C4B00004C
:10536000030000008C050020000000000000000089
:105370000338FDD870473031323334353637383959
:105380004142434445460000000000000000000088
:10539000000000000000000000000000000000000D
:1053A00088530000A053000004000000010000002A
:1053B000000000005D3E0000000000000000000052
:1053C000000000000000000055290000292900000D
:1053D00021290000FFFFFFFFFFFFFFFFFFFFFFFF8F
:1053E000FFFFFFFF00000000000000000000D601EA
:1053F00006010000C40700207F00000044080020D0
:1054000000404040404040404040414141414140D7
:10541000404040404040404040404040404040408C
:10542000400502020202020202020202020202021B
:105430000220202020202020202020020202020220
:105440000202909090909090101010101010101078
:105450001010101010101010101010100202020284
:1054600002028888888888880808080808080808C8
:1054700008080808080808080808080802020202C4
:1054800040000000015400007761726E696E670091
:1054900064656275670000001B5B313B33306D0053
:1054A0001B5B306D000000001B5B313B33316D0036
:1054B0001B5B313B33326D001B5B313B33336D0083
:1054C0001B5B313B33346D001B5B313B33356D006F
:1054D0001B5B313B33366D001B5B313B33376D005B
:1054E000696E666F000000006572726F72000000E6
:1054F000636C6F636B000000434C4F434B00000034
:105500004750494F544500005052530053504900F2
:1055100055415254000000005541525445000000CE
:10552000676678007077725F6D676D7400000000C9
:10553000756172745F6C6F675F6261636B656E64E7
:105540000000000061707000F055000000000020B5
:1055500094010000580400006C56000094010020E3
:10556000EC2A0000740A0000C8530000000000008C
:105570003055000038010020F05400000000000009
:10558000F85400000000000000550000000000007A
:1055900008550000000000000C550000000000004D
:1055A0001055000000000000185500000000000029
:1055B00020550000000003032455000000000000F7
:1055C0004455000000000303480100204001002072
:1055D000480100200407002018000000F40100200A
:1055E000B40100200F0000000400000001000000D2
:1055F000211220428013B3402C10E0B2052AB105DD
:105600002AB005300DE2AEA2A0C0222F40AF811714
:10561000A61A092DB205DA0E10DA1310DA181013D3
:105620001C023A206C71DA9C10DB1C0320D9100399
:105630007BA6A71220BA400831021FFF23E8541AA4
:1056400088041AE0041A90041AA0041A98041AA8EC
:10565000041AB0041AB8041AC0041AC8041AD004F0
:0C5660001AD80411040090D003000000D0
:0400000500000201F4
:00000001FF
