:020000040001F9
:1090000058530020DD920100E5920100E792010033
:10901000E9920100EB920100ED92010000000000D6
:10902000000000000000000000000000EF920100BE
:10903000F192010000000000F3920100F59201009E
:109040004D950100F7920100A9980100F7920100E7
:10905000B595010000000000E1930100F7920100C6
:10906000F7920100F7920100F7920100F7920100D8
:10907000F7920100F7920100F7920100F7920100C8
:10908000F7920100A5950100F7920100F792010007
:10909000F7920100F7920100C5950100F7920100D7
:1090A000F7920100F79201000000000000000000AC
:1090B000F7920100F792010000000000000000009C
:1090C00000000000000000000000000000000000A0
:1090D0000000000000000000000000000000000090
:1090E0000000000000000000000000000000000080
:1090F0000000000000000000000000000000000070
:10910000000000000000000000000000000000005F
:10911000000000000000000000000000000000004F
:10912000000000000000000000000000000000003F
:10913000000000000000000000000000000000002F
:10914000000000000000000000000000000000001F
:10915000000000000000000000000000000000000F
:1091600000000000000000000000000000000000FF
:1091700000000000000000000000000000000000EF
:1091800000000000000000000000000000000000DF
:1091900000000000000000000000000000000000CF
:1091A00000000000000000000000000000000000BF
:1091B00000000000000000000000000000000000AF
:1091C000000000000000000000000000000000009F
:1091D000000000000000000000000000000000008F
:1091E000000000000000000000000000000000007F
:1091F000000000000000000000000000000000006F
:10920000DFF80CD000F0AEF800480047452002001F
:109210005853002030B450E8012F93B2C48923443E
:109220008489A34228BF1B1B0489A34202BFBFF34A
:109230002F8F002007E0C3EA020340E80134002C2E
:10924000E9D14FF001000A6030BC704750E8012FAF
:10925000C2EA024240E801210029F7D1704730B448
:1092600050E8022F1FFAA2F3C488A34202BFBFF343
:109270002F8F00200DE0C48923448489A34228BF96
:109280001B1BC2EA034340E80234002CE8D14FF034
:1092900001000A6030BC704750E8022FC2EA224247
:1092A00040E802210029F7D17047034653E8022F16
:1092B000D988B2EB324F4FF0000017BF92B241EAAB
:1092C000014142EA014104E05A68B2EB324F08BF63
:1092D000012043E80212002AE8D17047064880477F
:1092E00006480047FEE7FEE7FEE7FEE7FEE7FEE78B
:1092F000FEE7FEE7FEE7FEE7C995010001920100E7
:1093000040EA01039B0703D009E008C9121F08C007
:10931000042AFAD203E011F8013B00F8013B521E87
:10932000F9D27047D2B201E000F8012B491EFBD2FE
:1093300070470022F6E710B513460A460446194660
:10934000FFF7F0FF204610BD30B50446002003466D
:1093500000E05B1C934203D2E05CCD5C401BF8D084
:1093600030BD0000064C074D06E0E06840F0010308
:1093700094E8070098471034AC42F6D3FFF744FF57
:10938000944F0200B44F020070B58C1810F8015BC6
:1093900015F0070301D110F8013B2A1106D110F88E
:1093A000012B03E010F8016B01F8016B5B1EF9D192
:1093B0002B0705D40023521E0DD401F8013BFAE718
:1093C00010F8013BCB1A921C03E013F8015B01F883
:1093D000015B521EF9D5A142D8D3002070BD000018
:1093E0002DE9F043002589B0DFF84091A8464FF4FD
:1093F000807601242F460695304609F0ABF838B147
:10940000D9F80403204203D0304609F099F82543E7
:10941000361D64007F1CB6B2082FEDD34FF4BE7426
:10942000204609F097F848B1204609F089F845F040
:10943000004506AA0121002009F06EF83C4E15F007
:10944000FF0F15D0012700242F420DD009EB840116
:10945000D1F81005D1F81015C0F3042056F82420D7
:10946000C1F3014102B190477F00641C082CEBD38B
:10947000002D2DDA4FF0FF30CDF808804AE004A926
:10948000204608F06AFE002822D04FEA95182046B0
:1094900006F0DEFC56F820501DB1B8F1030F03D0E2
:1094A00006E0B8F1030F13D102A9204608F05DFED3
:1094B0004FF0A04000EB8400D0F8000706A9C0F3ED
:1094C0000149204608F049FE28B1B9F1020F05D044
:1094D00009B0BDE8F083B9F1030FF9D1B8F1030F7A
:1094E00007D1B9F1020F1FD00221204608F0F8FF82
:1094F000012715B141462046A847002FE8D06A460B
:109500000121002009F008F8069900988842DFD070
:1095100006900298049096F84450002768B225F00F
:10952000C004401CABD1D3E70321DEE7006000405C
:10953000F03B002000F01F02012191404009800013
:1095400000F1E020C0F880127047000070B54FF4C1
:109550008076304608F013FE114CB50560B13046F8
:1095600008F014FE0120C5F80803607920B9012035
:1095700060712168002088474FF48276304608F0F9
:10958000FEFD00280AD0304608F000FE0220C5F893
:1095900008032168BDE870400120084770BD000045
:1095A000A827002002490248091F096800680847E7
:1095B000E427002002494FF040200AF0E5BE0000F9
:1095C0003C3C002009F06CB82DE9F047A44E4FF068
:1095D0008054371D31783D1D4FF0010906290BD10C
:1095E0003878000708D12878C0F30310032806D084
:1095F000042804D0052802D0062907D011E0B4F8C9
:1096000024039849C0F30420086002E0387800077A
:1096100007D12878C0F30310032802D19349924858
:10962000486708F051FB28B1D4F844029049C0F3D0
:10963000423008603078B04606280CD138780007F0
:1096400009D12878C0F30310032804D189480168A0
:1096500021F08071016008F05DFB002640B14FF001
:109660008040C0F80C61C0F810618148001F06609E
:1096700098F80000062807D13978090704D129781D
:10968000C1F30311032902D0062805D019E0784A56
:1096900003216432116007E03978090711D1297874
:1096A000C1F3031103290CD1734B05221A60724ACE
:1096B0007832C2F80090704908310E603F211A1DBF
:1096C0001160D4F830110A2904D1D4F834215AB1E8
:1096D000012A09D0062807D13A78120704D12A783E
:1096E000C2F30312052A55D1644A1268644B1A600A
:1096F000624A121D12681B1D1A60604A0832126805
:109700001B1D1A605D4A0C3212681B1D1A605B4AF1
:10971000103212681B1D1A60584A143212681B1D41
:109720001A60564A18321268554B20331A60534A51
:109730001C3212681B1D1A60504A203212681B1D11
:109740001A604E4A243212681B1D1A604B4A283296
:1097500012681B1D1A60494A2C3212681B1D1A60C0
:10976000464A30321268464B40331A60434A34321C
:1097700012681B1D1A60414A383212681B1D1A609C
:109780003E4A3C3212681B1D1A603C4A4032126845
:109790001B1D1A600A2905D1D4F8341111B9394AB0
:1097A000FB211160062811D1387800070ED12878E6
:1097B000C0F30310032803D0042801D0052805D1E5
:1097C000D4F85802304900F04F00086008F056FA0B
:1097D00030B12E480168C90702D06FF00101016065
:1097E000D4F83001062808D1D4F83401062804D171
:1097F0002748016841F4806101604FF01021D1F8E1
:109800000002002803DBD1F80402002823DA214AF1
:10981000C2F8009020480368002BFCD01523C1F843
:1098200000320468002CFCD0C1F804320168002921
:10983000FCD0166001680029FCD0BFF34F8F0D48A3
:10984000F0380168154A01F4E06111430160BFF38B
:109850004F8F00BFFDE7134911480860BDE8F0874E
:10986000E00F00F0403501400DF0ADBA00C00740F8
:109870003C050040FCED00E01056004004040010E0
:1098800020C5004018F50040E40E004000040040F0
:109890003C17004004E5014000E401400400FA05E3
:1098A0000090D003B0280020014800680047000065
:1098B000B027002002E008C8121F08C1002AFAD110
:1098C00070477047002001E001C1121F002AFBD140
:1098D000704700000121202803DA8140054801403B
:1098E00003E0402802DA2038814009B101207047A6
:1098F00000207047FC06FFBD0121202803DA8140CB
:109900000548014003E0402802DA2038814009B1CF
:109910000120704700207047FC06FFBD024801216E
:109920000164816370470000001000400648002178
:10993000C0F81C1101214161D0F81C110029FBD095
:1099400002480068C0B2704700100040481500404F
:1099500038B5044600208DF80000684600F04AF94A
:109960000A4884420CD0BFF34F8F09480168094A66
:1099700001F4E06111430160BFF34F8F00BFFDE7C9
:109980009DF8000000F05AF938BD0000FECADDBAAB
:109990000CED00E00400FA050EB500210091CDE9C0
:1099A00001106A4644F20100FFF7D2FF0EBD00002D
:1099B0002DE9F84F2C4C8146924660880E46814234
:1099C0004FD800274FF6FF788DF80070684600F0FA
:1099D00011F922786078A188884201DA401C00E001
:1099E0000020C0B2904204D19DF8000000F026F99A
:1099F00035E065786078884201DA401C00E000209C
:109A0000607020786278824201D3101A02E0081A4E
:109A10001044401CE18880B2884200D9E0809DF863
:109A2000000000F00BF9454519D0E068B9F1000FCE
:109A300040F835A00DD066B161882069324605FB3B
:109A400001004946FFF75CFCE06800EBC50086803A
:109A500002E000EBC50087800020BDE8F88F0420FD
:109A6000FBE70920F9E70000B827002010B50F4CEC
:109A700003E0401C00E000202070A068002814D102
:109A800020786178814210D0227861882069E3686B
:109A900002FB010003EBC20153F832208988904792
:109AA0002078A1888842E6DAE3E710BDB8270020D5
:109AB00030B5CB0008339DB293074FF0000401D0BE
:109AC000072030BD054BDA602A441A615C701C70B7
:109AD00058809980DC80002030BD0000B82700202D
:109AE00008B500208DF80000684600F083F80549AD
:109AF0008868421C01D0401C88609DF8000000F07E
:109B00009DF808BDB8270020074801784078064A2C
:109B10008842928801D3401A02E0511A0844401C3E
:109B2000101A80B270470000B827002008B5002046
:109B30008DF80000684600F05DF80548816809B1BD
:109B4000491E81609DF8000000F078F808BD000013
:109B5000B82700203AB100680129C26000D0002176
:109B600081600020704707207047000038B50E481C
:109B700008235822416800910C49006808F0AEFAA9
:109B800000280FD10A4A69460A4807F085FC0400FC
:109B900008D10121074807F0C8FC0649012008390F
:109BA0000870204638BD0000784C0200B83C002008
:109BB000FD360200D427002070B50D460446B1F5ED
:109BC000350F01D3072070BD207D08B1002070BD86
:109BD0000748226107F05CFC28446060A06800B17F
:109BE000A5602146BDE8704000200AF03FBD00009E
:109BF000D427002030B5EFF3108172B60D4A946877
:109C0000012324B10370002900D162B630BD9360F6
:109C10004FF0E023D3F88051074C25401560C3F87E
:109C20008041D3F8844154605A17C3F8842100223C
:109C30000270E8E7103D0020FC06FFBD0B498A6872
:109C4000002A11D000280FD1EFF3108072B60B68F4
:109C50004FF0E022C2F800314B68C2F80431002214
:109C60008A60002800D162B670470000103D0020D5
:109C70002DE9F041064608680C46411C4FF0A0470C
:109C80004FF0010506D005FA00F1C7F80815206865
:109C900008F008FC6068411C02D0002108F0F0FBCD
:109CA0003168A069C1F82405607D227D31681043C8
:109CB000C1F86C05D4E900123068C0F81425C0F86A
:109CC0000C15207D012815D1A068411C02D000216F
:109CD00008F0D6FBE068411C05D08540C7F8085560
:109CE000E06808F0DFFBD4E902123068C0F808250C
:109CF000C0F81015BDE8F0812DE9F041064608686E
:109D00000C46411C4FF0A0474FF0010506D005FA64
:109D100000F1C7F80815206808F0CEFB6068411C08
:109D200002D0002108F0B5FB3168A069C1F8240514
:109D3000607D217D32680843C2F86C05D4E90012C9
:109D40003068C0F80C15C0F81425207D012815D105
:109D5000A068411C02D0002108F09BFBE068411C78
:109D600005D08540C7F80855E06808F0A5FBD4E9A0
:109D700002123068C0F80825C0F81015BDE8F0815F
:109D80002DE9FC471D46070090460E460AD036B125
:109D90000024019438780DF10409692804D00720C3
:109DA000BDE8FC870E20FBE70120134601904A46E0
:109DB00038460AF053FE0028F2D12B464A46314677
:109DC0003846009406F0B4F80028E9D12B68C3B3F4
:109DD0000025D8F800002C46232819D008DC0128DB
:109DE00018D020280DD021280DD0222816D10DE022
:109DF000402811D0412829D0A02829D0A1280DD150
:109E000028E0164D00E0164D9C1C07E0154DFBE7C1
:109E1000154DF9E7154D00E0154D1C462038032877
:109E200006D84A46314638460AF050FE0028B7D1D7
:109E300023464A4631463846009507F0A6FF0028DB
:109E4000AED10198B04207D00920A9E7094DE4E757
:109E5000094DE2E7094DE0E70020A1E7DBAA010098
:109E6000C5D1010031E60100F3CE01008D9E010055
:109E7000A9AA010025AA01009BE301008DE30100CE
:109E800013460A460146692009F068BD18B112B1AF
:109E90000BB10AF01BBE0E20704738B568B162B135
:109EA0005BB11C466B460AF011FE002804D19DF8F8
:109EB000001001F00101217038BD0E2038BD08B539
:109EC00051B14BB140B1007800F001008DF80000B5
:109ED00068460AF008FE08BD0E2008BD2DE9F843CB
:109EE00016465FEA00082BD056B34BB3164F1C46FC
:109EF0000D46009707F067FF002822D1631C324609
:109F000029464046009707F05EFF002819D1A31CA0
:109F10003246294640460AF0D9FD002811D1E31CFB
:109F20003246294640460AF0D1FD002809D101B049
:109F3000231D324629464046BDE8F0430AF0C6BD1F
:109F40000E20BDE8F883000081F701002DE9F843F9
:109F50001D4690460E002AD04DB340B3154F04461F
:109F6000009707F080FF002822D12B464246314659
:109F7000601C009707F077FF002819D12B46424656
:109F80003146A01C0AF0AFFD002811D12B464246F5
:109F90003146E01C0AF0A7FD002809D101B02B468C
:109FA00042463146201DBDE8F0430AF09CBD0E201C
:109FB000BDE8F883BFF701002DE9FC411646070014
:109FC00010D07EB173B11C460D4601AB0AF046FDC0
:109FD000002808D14FF48070A080019840B121681A
:109FE00019B105E00E20BDE8FC8105F0EDFF206011
:109FF000201D0090234632462946384607F0D9FFF7
:10A00000F1E72DE9FC411D4617460E0019D0C5B1F8
:10A01000B8B1044600200190206805F0FDFF0190D2
:10A020002B463A46314601A80AF02FFD002806D1FA
:10A030000095A1883B463246206807F0D2FFBDE874
:10A04000FC810E20FBE7F8B5144606000D461ED035
:10A05000ECB100200090631C6A4630460AF036FDE1
:10A06000002813D123466A46294630460AF02EFDC1
:10A0700000280BD1631D6A46294630460AF026FDAA
:10A08000002803D10099A94200D00920F8BD0E2074
:10A09000F8BD17B581B0144669B164B100200090D5
:10A0A0006B4601A822680AF0F0FC002801D1009953
:10A0B000216004B010BD0E20FBE728B111B100787B
:10A0C000602803D0072070470E207047012901D077
:10A0D000092070470020704713460A460146602059
:10A0E00009F03CBC30B4EAB1E3B1D8B10488302CFB
:10A0F00076D01ADC272C7DD2DFE804F0AD3330AD0A
:10A10000ADADADADADADADADADADADAD545136391F
:10A110003C425A455D3F484E4BAD57ADAA6360ADDA
:10A12000ADAD66000E2030BC7047313C272C61D2AB
:10A13000DFE804F0674D506D535C6A6459705F73DB
:10A1400091919191919191919191919191919191FF
:10A150009191917F8285767C88798B0030BC00F06C
:10A160007EB830BC00F0C7B830BC01F02FB930BCAD
:10A1700001F0AABC30BC01F037BC30BC01F078B8AB
:10A1800030BC01F0E9BA30BC01F03EB830BC01F09F
:10A1900063B930BC01F0A2BB30BC01F02DBD30BCB6
:10A1A00001F016BA30BC01F09DB930BC01F0D2BC50
:10A1B00030BC01F058BA30BC01F088BA30BC01F0B4
:10A1C0000FBB30BC01F052BB30BC00F0BBBF30BC99
:10A1D00003F0D6B830BC03F011BA30BC03F042B97A
:10A1E00030BC03F03FBB30BC03F0CCBA30BC03F052
:10A1F000A9BB00E02FE030BC03F088BC30BC03F00A
:10A200001BBD30BC03F00EBC30BC03F097B930BCB2
:10A2100003F02EB830BC03F063BA30BC03F0C7BC07
:10A2200030BC04F0BDBA30BC04F03ABC30BC04F021
:10A23000CDBB30BC04F074BC30BC04F047BB30BCB8
:10A2400004F0EEBB30BC04F06BBA30BC04F0E7BAEB
:10A2500030BC01F07FBB06200021196063E72DE9C7
:10A26000FE431D461646040007D036B12DB12088A6
:10A27000022804D00720BDE8FE830E20FBE700275C
:10A280000197D5F8008002200DF10409ADF808000F
:10A290004B464246314602A80AF0C6FB0028EAD1E6
:10A2A0004B4642463146201D0AF0BEFB0028E2D153
:10A2B0004B464246314604F108000AF014FC0028DF
:10A2C000D9D14B464246314604F110000AF0ACFBAE
:10A2D0000028D0D100974B4642463146E06805F051
:10A2E00055FE0028C7D1A08805F048FF0028C2D13C
:10A2F00001992960BFE72DE9FC411D46164604007F
:10A3000007D036B12DB12088012804D00720BDE840
:10A31000FC810E20FBE7002000902F680120E8461A
:10A32000ADF8040043463A46314601A80AF07CFBEA
:10A330000028ECD143463A463146201D0AF074FB12
:10A340000028E4D143463A46314604F108000AF0B9
:10A35000CAFB0028DBD100992960D8E77CB50C4600
:10A3600040B12CB100230193057801A96D2D03D0D4
:10A3700007207CBD0E207CBD0125CDE900351346AC
:10A380000A46214605F0D4FD0028F4D10198A042E8
:10A3900001D009207CBD00207CBD2DE9FF4182B0A9
:10A3A000984614460F0028D03CB300200090256842
:10A3B0006D206E468DF8040033462A4601A80AF047
:10A3C00092FB002816D133462A46394602A80AF0E5
:10A3D0005CFB00280ED1029848B95FEA08003946B4
:10A3E0002A46334609D000F05BF8002802D10098D5
:10A3F0002060002006B0BDE8F0810E20FAE70000E2
:10A400001CB50C4640B12CB100210191037801A983
:10A410006C2B03D007201CBD0E201CBD0123019313
:10A42000074B009313460A46214605F081FD00289C
:10A43000F3D10198A04201D009201CBD00201CBD11
:10A4400051A4010013460A4601466C2009F086BA61
:10A450002DE9FC411646070020D0FEB1F3B11C46A1
:10A460000D4601AB0AF032FB002815D10620009002
:10A47000631C3246294638460AF042FB00280BD1BD
:10A480009DF80420217862F3000121709DF80420DA
:10A49000520862F347012170BDE8FC810E20FBE702
:10A4A0002DE9FC411D4617460E0013D095B188B129
:10A4B000044600788DF8040001A80AF014FB002877
:10A4C00006D13B4632460621601C00950AF02EFB61
:10A4D000BDE8FC810E20FBE72DE9F84316465FEA54
:10A4E000000813D096B18BB1094F1C460D4600975A
:10A4F00007F055FC002807D104F10803324629462D
:10A500004046009707F04BFCBDE8F8830E20FBE7C0
:10A51000B99F01002DE9F8431D4690460E0012D068
:10A520008DB180B1094F0446009707F06AFC0028FE
:10A5300007D12B464246314604F10800009707F048
:10A5400060FCBDE8F8830E20FBE7000003A00100DB
:10A550002DE9FF41164607006ED0002E6CD0002B6F
:10A560006AD0364800901C460D46384607F017FC66
:10A5700000285ED132480090231D324629463846D5
:10A5800005F0D6FC002854D104F1080332462946D0
:10A5900038460AF063FA00284BD104F10C03324626
:10A5A000294638460AF031FA002842D104F10E0358
:10A5B0003246294638460AF089FA002839D104F192
:10A5C0000F00029005200090019002AB3246294610
:10A5D000384605F0A8FB00282BD104F114033246BD
:10A5E000294638460AF072FA002822D104F11503F0
:10A5F0003246294638460AF069FA002819D104F192
:10A6000016033246294638460AF060FA002810D16F
:10A6100003AB3246294638460AF058FA002808D1DA
:10A620009DF80C20E17D62F30301120962F304112D
:10A63000E17504B0BDE8F0810E20FAE745A60100FF
:10A6400051A40100F8B51646070019D0C6B1BBB138
:10A650001C460D460AF03AFA002810D16B463246E5
:10A66000294638460AF032FA002808D19DF8002021
:10A67000617862F30001520862F341016170F8BD34
:10A680000E20F8BD2DE9FC411D46089C0E46070032
:10A6900037D036B10020019038780DF104087228C7
:10A6A00002D00720BDE8FC81012001904AB3106868
:10A6B00038B335B3286820B31CB3206808B31348F7
:10A6C000134600904246384605F032FC0028E9D196
:10A6D0000F4800902B4642463146384605F028FC8C
:10A6E0000028DFD10B4800902346424631463846C9
:10A6F00005F01EFC0028D5D10198B04203D00920F6
:10A70000D0E70E20CEE70020CCE70000CD4A0200C3
:10A71000D9A4010051A501002DE9FF4184B01446E0
:10A72000DDF838800F0019D0C4B1002001902568F1
:10A73000722001AE8DF8080033462A4602A80AF0BE
:10A74000D2F900280BD133462A46394604A80AF02C
:10A750009CF9002803D1049870B903E00E2008B0DA
:10A76000BDE8F0810648009033462A463946404607
:10A7700005F00CFC0028F2D1019820600020EEE7E3
:10A78000E74A0200F8B51F460C46050008D02CB178
:10A790000020009028786E46732803D00720F8BD6B
:10A7A0000E20F8BD012013460090324628460AF0DC
:10A7B0008DF90028F5D13B463246214628460AF05D
:10A7C00085F90028EDD10098A04201D00920F8BDFC
:10A7D0000020F8BD13460A460146732009F0BEB8B2
:10A7E00038B50C4640B12CB1002100910378694680
:10A7F000742B03D0072038BD0E2038BD01230093F1
:10A8000013460A4621460AF061F90028F5D100985E
:10A81000A04201D0092038BD002038BD13460A46A9
:10A820000146742009F09AB87CB50C46D0B12CB121
:10A8300000230193057801A9792D01D007207CBD63
:10A840000125019572B1156865B1009313460A465A
:10A85000214605F06DFB0028F1D10198A04203D0FC
:10A8600009207CBD0E207CBD00207CBD2DE9FF4170
:10A8700084B0984614460F0019D0C4B1002001904E
:10A880002568792001AE8DF8080033462A4602A8D3
:10A890000AF029F900280BD133462A46394604A884
:10A8A0000AF0F3F8002803D1049870B903E00E20F1
:10A8B00008B0BDE8F0810748009033462A46394683
:10A8C000404605F063FB0028F2D10198206000208B
:10A8D000EEE70000294A020038B50C46B8B12CB1A9
:10A8E0000021009103786946782B01D0072038BDFC
:10A8F000012300935AB113460A4621460AF085F80F
:10A900000028F4D10098A04203D0092038BD0E20C1
:10A9100038BD002038BD13460A460146782009F0AC
:10A920001DB82DE9FE431F46DDF828800C460500C2
:10A9300022D0F4B100200290287802AE802818D1ED
:10A9400001200290C2B1BFB11346324628460AF038
:10A950005CF800280ED13B463246214628460AF0D4
:10A96000B5F8002806D1387840B1012808D002286F
:10A9700008D00720BDE8FE830E20FBE7002202E09E
:10A98000062200E010220092019243463246214600
:10A99000284605F0C8F90028ECD10298A04201D061
:10A9A0000920E7E70020E5E713460A460146802034
:10A9B00008F0D4BF2DE9FC411C460D46060025D009
:10A9C0002DB100200190307801AF7E2802D0072001
:10A9D000BDE8FC8101200190C2B1BCB12068A8B1E2
:10A9E00013463A4630460AF010F80028F0D10948DC
:10A9F000009023463A462946304605F099FA002849
:10AA0000E6D10198A84203D00920E1E70E20DFE754
:10AA10000020DDE75DCB010013460A4601467E209B
:10AA200008F09CBF2DE9FE4316465FEA000836D0C9
:10AA3000A6B39BB35F891B4800901C460D46404659
:10AA400007F0ADF9002827D102AB3246294640462F
:10AA50000AF03CF800281FD19DF8080004F1080313
:10AA600000F00300607032462946404609F0CDFFF1
:10AA7000002811D104F10A0332462946404609F064
:10AA8000C4FF002808D12089231DCDE9007032467B
:10AA90002946404605F047F9BDE8FE83FFE70E2052
:10AAA000FAE70000E1AC01002DE9F041154606008F
:10AAB00010D07DB173B11F460C465B1C0AF006F83E
:10AAC000002808D13B462A4621463046BDE8F041E1
:10AAD00009F0FCBF0E20BDE8F0812DE9F0411646DB
:10AAE00007000FD076B16BB11C460D4609F0EEFFA2
:10AAF000002808D1A31C324629463846BDE8F0415B
:10AB000009F083BF0E20BDE8F08100002DE9FC4173
:10AB10001C460D46060025D02DB10020019030784E
:10AB200001AF752802D00720BDE8FC81012001900B
:10AB3000C2B1BCB12068A8B113463A46304609F00C
:10AB400064FF0028F0D10948009023463A46294680
:10AB5000304605F0EDF90028E6D10198A84203D06F
:10AB60000920E1E70E20DFE70020DDE77DAB0100F3
:10AB700013460A460146752008F0F0BE2DE9F04163
:10AB8000164607001FD0F6B1EBB11C460D4609F082
:10AB90003CFF002818D1A31C32462946384609F04C
:10ABA00034FF002810D1231D32462946384609F0CB
:10ABB0002CFF002808D1A31D324629463846BDE89F
:10ABC000F04109F022BF0E20BDE8F0812DE9F041EF
:10ABD0001D4617460E001ED0EDB1E0B1044609F047
:10ABE00023FF002818D12B463A463146A01C09F015
:10ABF0001BFF002810D12B463A463146201D09F094
:10AC000013FF002808D12B463A463146A01DBDE867
:10AC1000F04109F009BF0E20BDE8F0812DE9FC41AB
:10AC200098460C46050021D02CB1002601962878C4
:10AC300001AF872802D00720BDE8FC8101200190E8
:10AC4000A2B113463A46284609F0DFFE0028F3D1A8
:10AC500043463A4621462846009605F069F9002801
:10AC6000EAD10198A04203D00920E5E70E20E3E7EE
:10AC70000020E1E72DE9FF4184B01C46150088461D
:10AC80001AD0CCB1002001902668872001AF8DF842
:10AC900008003B463246294602A809F024FF002856
:10ACA0000BD13B463246294604A809F0EEFE0028A7
:10ACB00003D1049870B903E00E2008B0BDE8F0811C
:10ACC000064800903B4632462946404605F05EF96C
:10ACD0000028F2D1019820600020EEE72DAD0100A0
:10ACE00038B5A0B19AB193B11C466B4609F0EEFE9F
:10ACF00000280BD19DF80020217862F30301217018
:10AD00009DF80020120962F30711217038BD0E2052
:10AD100038BD08B541B13BB130B100788DF80000C5
:10AD2000684609F0E0FE08BD0E2008BDF8B51D46D6
:10AD300017460E0012D08DB180B10446084800902D
:10AD4000204607F05EF8002809D101B02B463A46AC
:10AD50003146601CBDE8F04009F0C5BE0E20F8BDCC
:10AD600013AD01002DE9FF5F1D460E9F1446884676
:10AD70005FEA000942D0B8F1000F07D0002602A810
:10AD8000CDE9010699F800006F2803D0072004B030
:10AD9000BDE8F09F012002907CB3206868B3006892
:10ADA00058B355B3286840B3006830B33B464146BA
:10ADB0004846019A09F08AFE0028E8D103AB4146D3
:10ADC0004846019A09F082FE0028E0D19DF80C0067
:10ADD000012815D0266003AB41464846019A09F088
:10ADE00075FE0028D3D19DF80C0001281ED02E60DE
:10ADF000029941452DD00920C9E7FFE70E20C6E79B
:10AE0000D4F800A00024DFF850B00BE00AEB840374
:10AE1000CDF800B041464846019A05F089F800286F
:10AE2000B5D1641C3878A042F0D8D4E72D6800244E
:10AE30000A4E0AE005EB8403009641464846019A13
:10AE400005F076F80028A2D1641C3878A042F1D829
:10AE5000CEE700209BE7000061BC0100E1BC0100DF
:10AE600013460A4601466F2008F078BD2DE9FC41E3
:10AE700090460C46050022D02CB100260196287879
:10AE800001AF7D2802D00720BDE8FC8101200190A0
:10AE9000ABB10D4800903A46284605F049F8002825
:10AEA000F2D143463A4621462846009605F040F83E
:10AEB0000028E9D10198A04203D00920E4E70E2040
:10AEC000E2E70020E0E700000B4A02002DE9FF4323
:10AED00083B01E000E9C154689461BD0D4B10020BD
:10AEE0000190D4F800807D2001AF8DF808003B462A
:10AEF0004246314602A809F0F6FD00280BD13B4638
:10AF00004246314603A809F0C0FD002803D103984A
:10AF1000C0B903E00E2007B0BDE8F0830B480090F5
:10AF20003B4642463146284605F030F80028F2D12B
:10AF300045B10097298843463246484609F0F6FD58
:10AF40000028E8D1019820600020E4E7294A0200A7
:10AF50002DE9FC419846089E0C46050027D02CB1EF
:10AF600000200190287801AF7C2802D00720BDE89E
:10AF7000FC8101200190D2B1B8F1000F17D0B6B119
:10AF80000D48134600903A46284604F0D1FF0028A9
:10AF9000EDD143463A4621462846009607F009F887
:10AFA0000028E4D10198A04203D00920DFE70E2059
:10AFB000DDE70020DBE70000E1AC010013460A46B4
:10AFC00001467C2008F0CABCF8B51F460C460500B7
:10AFD00020D02CB10020009028786E46762801D031
:10AFE0000720F8BD01200090A2B19FB11346324660
:10AFF000284609F00AFD0028F3D13B463246214697
:10B00000284609F063FD0028EBD10098A04203D048
:10B010000920F8BD0E20F8BD0020F8BD13460A46F1
:10B020000146762008F09ABC2DE9FC41164607003F
:10B0300020D0FEB1F3B1102000901C460D463846DA
:10B0400009F05EFD002813D101AB3246294638468F
:10B0500009F03CFD00280BD19DF80410227C4B0820
:10B0600061F3000263F34102890861F387022274ED
:10B07000BDE8FC810E20FBE72DE9FC411D4617468B
:10B080000E001DD0E5B1D8B113460A460446102182
:10B09000009509F04BFD002810D1207C2B46C0F311
:10B0A0004002014662F35F0120F0030001438DF886
:10B0B00004103A46314601A809F015FDBDE8FC81AF
:10B0C0000E20FBE7F8B51646070014D09EB193B1E9
:10B0D0000A4800901C460D46384606F060FE0028DF
:10B0E00008D10748009004F1120332462946384639
:10B0F00006F055FEF8BD0E20F8BD000029B0010095
:10B100003DC00100F8B51D4617460E0013D095B19D
:10B1100088B1044609480090204606F072FE0028D7
:10B1200008D1074800902B463A46314604F11200F8
:10B1300006F067FEF8BD0E20F8BD000079B00100F2
:10B140006BC001002DE9FE431D461646040007D0E2
:10B1500036B12DB12088262804D00720BDE8FE8313
:10B160000E20FBE7002001902F6826200DF1040837
:10B17000ADF8080043463A46314602A809F054FCAF
:10B180000028EBD143463A463146201D09F04CFCDD
:10B190000028E3D10648009043463A46314604F180
:10B1A000080006F024FE0028D8D101992960D5E7CF
:10B1B000B5B10100F8B51D4617460E001FD0F5B118
:10B1C000E8B1044609F08FFC002817D12B463A4617
:10B1D0003146601C09F087FC00280FD12B463A4607
:10B1E0003146A01C09F07FFC002807D105480090DB
:10B1F0002B463A463146201D06F003FEF8BD0E20D0
:10B20000F8BD000015A501002DE9FC411D461646BC
:10B21000040007D036B12DB12088172804D00720AC
:10B22000BDE8FC810E20FBE7002000902F6817206E
:10B23000E846ADF8040043463A46314601A809F015
:10B24000F3FB0028ECD143463A463146201D09F075
:10B25000EBFB0028E4D143463A46314604F10800AE
:10B2600009F041FC0028DBD100992960D8E70000F3
:10B270002DE9FF411D461646040008D03EB135B108
:10B280002088192805D0072004B0BDE8F0810E20E1
:10B29000FAE7002001902F6819200DF10408ADF89D
:10B2A000080043463A46314602A809F0BDFB002893
:10B2B000EAD143463A463146201D09F0B5FB002845
:10B2C000E2D11648009043463A46314604F1080060
:10B2D00006F08DFD0028D7D1A08803A904F0F4FE64
:10B2E00018B1002001992960CEE70D48009003981D
:10B2F0000C49C0EB001000EB800001EB80004346DE
:10B300003A463146001D06F072FD0028BCD1A088E7
:10B3100004F0BCFE0028E5D0B6E7000029B3010028
:10B32000E1C901001C3D00202DE9FC411D4690466D
:10B330000E0045D0F5B3E8B341780446C1F380026E
:10B34000084662F39F00C1F3C00140EAC1008DF8D6
:10B35000040042463146204609F0C5FB00282DD1A5
:10B360002B464246314601A809F0BDFB002825D1F5
:10B37000144F2B4642463146A01C009706F041FD73
:10B3800000281BD12B4642463146E01C009706F0B0
:10B3900038FD002812D10C4F2B4642463146201D65
:10B3A000009706F02EFD002808D12B464246314674
:10B3B000601D00E004E0009706F023FDBDE8FC817D
:10B3C0000E20FBE71DCA010093C801002DE9FE43D2
:10B3D0001D461646040007D036B12DB1208812282C
:10B3E00004D00720BDE8FE830E20FBE7002001907B
:10B3F0002F6812200DF10408ADF8080043463A46C4
:10B40000314602A809F010FB0028EBD143463A462A
:10B410003146201D09F008FB0028E3D106480090C2
:10B4200043463A46314604F1080006F0E0FC0028A5
:10B43000D8D101992960D5E73DB4010038B531B1C3
:10B440002BB120B1034C009406F0DBFC38BD0E207C
:10B4500038BD0000CDAB01002DE9FE431D46164668
:10B46000040007D036B12DB120881A2804D0072057
:10B47000BDE8FE830E20FBE7002001902F681A2014
:10B480000DF10408ADF8080043463A46314602A8DB
:10B4900009F0CAFA0028EBD143463A463146201D4E
:10B4A00009F0C2FA0028E3D10648009043463A4624
:10B4B000314604F1080006F09AFC0028D8D1019921
:10B4C0002960D5E7C9B4010038B531B12BB120B13D
:10B4D000034C009406F095FC38BD0E2038BD0000EA
:10B4E0002DAD01002DE9FE431D461646040007D090
:10B4F00036B12DB12088102804D00720BDE8FE8386
:10B500000E20FBE7002001902F6810200DF10408A9
:10B51000ADF8080043463A46314602A809F084FADD
:10B520000028EBD143463A463146201D09F07CFA0B
:10B530000028E3D10648009043463A46314604F1DC
:10B54000080006F054FC0028D8D101992960D5E7FD
:10B5500055B50100F8B51D4617460E0030D075B33D
:10B5600068B3044617480090204606F04AFC0028BD
:10B5700024D12B463A463146E01D09F0B4FA0028A2
:10B580001CD1114800902B463A46314604F1080080
:10B5900006F037FC002811D12B463A46314604F11B
:10B5A000100009F0A0FA002808D1084800902B46A6
:10B5B0003A46314604F1140006F023FCF8BDFFE7DB
:10B5C0000E20FBE7A1A40100CDAB010015A50100F1
:10B5D0002DE9FF411D461646040008D03EB135B1A5
:10B5E0002088112805D0072004B0BDE8F0810E2086
:10B5F000FAE7002001902F6811200DF10408ADF842
:10B60000080043463A46314602A809F00DFA0028E0
:10B61000EAD143463A463146201D09F005FA002892
:10B62000E2D10C48009043463A46314604F1080006
:10B6300006F0DDFB0028D7D1A08803A904F044FD63
:10B6400020B9A08804F022FD0028CDD10199002066
:10B650002960C9E759B6010019B113B108B109F061
:10B6600042BA0E2070472DE9FC411D4616460400E3
:10B6700007D036B12DB12088162804D00720BDE8A8
:10B68000FC810E20FBE7002000902F681620E84682
:10B69000ADF8040043463A46314601A809F0C4F922
:10B6A0000028ECD143463A463146201D09F0BCF94A
:10B6B0000028E4D143463A46314604F1080009F037
:10B6C00012FA0028DBD100992960D8E72DE9FF4163
:10B6D0001D461646040008D03EB135B12088182812
:10B6E00005D0072004B0BDE8F0810E20FAE7002065
:10B6F00001902F6818200DF10408ADF808004346AA
:10B700003A46314602A809F08FF90028EAD1207B99
:10B71000434600F001008DF80C003A463146201DEA
:10B7200009F082F90028DDD10A48009043463A46E4
:10B730003146A06804F02AFC0028D3D143463A469B
:10B74000314603A809F0CFF90028CBD1019929602F
:10B75000C8E7000023C001002DE9FF411D469046C7
:10B7600004000AD0B8F1000F07D035B120881528A1
:10B7700005D0072004B0BDE8F0810E20FAE70020D4
:10B7800001902F68152001AEADF8080033463A4607
:10B79000414602A809F048F90028EBD1A07B3346C6
:10B7A00000F001008DF80C003A464146201D09F0DA
:10B7B0003BF90028DED13B464246062104F1080051
:10B7C000009609F0B3F90028D4D133463A464146F1
:10B7D00003A809F088F90028CCD101992960C9E7AC
:10B7E0002DE9FC411D461646040007D036B12DB1A7
:10B7F0002088222804D00720BDE8FC810E20FBE72A
:10B80000002000902F682220E846ADF8040043464F
:10B810003A46314601A809F007F90028ECD1434621
:10B820003A463146201D09F0FFF80028E4D143468E
:10B830003A46314604F1080009F055F90028DBD1F9
:10B8400043463A46314604F1090009F04CF9002814
:10B85000D2D143463A46314604F10A0009F043F991
:10B860000028C9D100992960C6E700002DE9FE43F0
:10B870001D461646040007D036B12DB12088212878
:10B8800004D00720BDE8FE830E20FBE700200190D6
:10B890002F6821200DF10408ADF8080043463A4610
:10B8A000314602A809F0C0F80028EBD143463A46D9
:10B8B0003146201D09F0B8F80028E3D10648009071
:10B8C00043463A46314604F1080006F090FA002853
:10B8D000D8D101992960D5E7E1C201002DE9FC41E9
:10B8E0001D461646040007D036B12DB120881C280D
:10B8F00004D00720BDE8FC810E20FBE7002000906B
:10B900002F681C20E846ADF8040043463A4631460D
:10B9100001A809F089F80028ECD143463A4631469F
:10B92000201D09F081F80028E4D143463A4631460B
:10B9300004F1080009F0D7F80028DBD143463A4665
:10B94000314604F1090009F0CEF80028D2D100995F
:10B950002960CFE72DE9FE431D461646040007D0B7
:10B9600036B12DB12088202804D00720BDE8FE8301
:10B970000E20FBE7002001902F6820200DF1040825
:10B98000ADF8080043463A46314602A809F04CF8A3
:10B990000028EBD143463A463146201D09F044F8D1
:10B9A0000028E3D143463A46314604F1080009F045
:10B9B0009AF80028DAD10B48009043463A463146BF
:10B9C00004F10A0006F013FA0028CFD143463A46A4
:10B9D000314604F1090009F086F80028C6D1019922
:10B9E0002960C3E7A1A401002DE9FE431D461646C8
:10B9F000040007D036B12DB12088142804D00720C8
:10BA0000BDE8FE830E20FBE7002001902F68142084
:10BA10000DF10408ADF8080043463A46314602A845
:10BA200009F002F80028EBD143463A463146201D82
:10BA300008F0FAFF0028E3D10648009043463A4652
:10BA4000314604F1080006F0D2F90028D8D1019956
:10BA50002960D5E759BA01002DE9FC411D4617467A
:10BA60000E002AD04DB340B30446807CC0F34002A0
:10BA7000014662F35F01C0F3800041EA80008DF867
:10BA800004000F4800903A463146204606F0B9F9C6
:10BA9000002810D10B4800902B463A46314604F15D
:10BAA000080006F0AEF9002805D12B463A4631468B
:10BAB00001A809F018F8BDE8FC810E20FBE70000A2
:10BAC000A1A401006BC001002DE9FE431D461646EE
:10BAD000040007D036B12DB12088132804D00720E8
:10BAE000BDE8FE830E20FBE7002001902F681320A5
:10BAF0000DF10408ADF8080043463A46314602A865
:10BB000008F092FF0028EBD143463A463146201D0B
:10BB100008F08AFF0028E3D10648009043463A46E1
:10BB2000314604F1080006F062F90028D8D10199E5
:10BB30002960D5E739BB010038B531B12BB120B14F
:10BB4000034C009406F05DF938BD0E2038BD0000AE
:10BB500019CC01002DE9FE431D461646040007D00E
:10BB600036B12DB120881E2804D00720BDE8FE8301
:10BB70000E20FBE7002001902F681E200DF1040825
:10BB8000ADF8080043463A46314602A808F04CFF9B
:10BB90000028EBD143463A463146201D08F044FFC9
:10BBA0000028E3D10648009043463A46314604F166
:10BBB000080006F01CF90028D8D101992960D5E7C2
:10BBC000C5BB010038B5A9B1A3B198B10078C0F3E5
:10BBD0004005044665F35F04C0F3800544EA85042C
:10BBE000C0F3C00044EAC0008DF80000684608F0C9
:10BBF0007AFF38BD0E2038BD2DE9FC411D461646A2
:10BC0000040007D036B12DB120881B2804D00720AE
:10BC1000BDE8FC810E20FBE7002000902F681B2070
:10BC2000E846ADF8040043463A46314601A808F01C
:10BC3000FBFE0028ECD143463A463146201D08F071
:10BC4000F3FE0028E4D143463A46314604F10800A9
:10BC500008F049FF0028DBD100992960D8E70000EF
:10BC6000F8B51646070014D09EB193B10A4800906B
:10BC70001C460D46384606F092F8002808D10748C1
:10BC8000009004F1100332462946384606F087F842
:10BC9000F8BD0E20F8BD0000E1BC010051A4010078
:10BCA000F8B51D4617460E0013D095B188B104466D
:10BCB00009480090204606F0A4F8002808D107485B
:10BCC00000902B463A46314604F1100006F099F8F0
:10BCD000F8BD0E20F8BD0000F7BC0100A1A40100D2
:10BCE00038B530B12AB123B11024009408F008FF10
:10BCF00038BD0E2038BD08B541B13BB130B100931D
:10BD000013460A46102108F011FF08BD0E2008BD99
:10BD1000F8B51F460C46050020D02CB1002000903D
:10BD200028786E46822801D00720F8BD01200090B7
:10BD3000A2B19FB113463246284608F066FE00289D
:10BD4000F3D13B4632462146284608F0BFFE002884
:10BD5000EBD10098A04203D00920F8BD0E20F8BD19
:10BD60000020F8BD13460A460146822007F0F6BDC2
:10BD70002DE9FC411F460C46050023D02CB10020C4
:10BD80000190287801AE812802D00720BDE8FC810F
:10BD900001200190B2B1AFB113463246284608F0F7
:10BDA00034FE0028F2D1094800903B463246214635
:10BDB000284604F0BDF80028E8D10198A04203D03D
:10BDC0000920E3E70E20E1E70020DFE7DDBD010009
:10BDD00013460A460146812007F0C0BD38B530B190
:10BDE0002AB123B12024009408F08AFE38BD0E2029
:10BDF00038BD00002DE9FC479846DDF828900C4638
:10BE0000050031D02CB100260196287801AF832897
:10BE100002D00720BDE8FC870120019022B35FEA31
:10BE2000090021D0B8F1000F1ED013463A4628462B
:10BE300008F0EBFD0028EDD10D48009043463A464E
:10BE40002146284604F074F80028E3D14B463A46D0
:10BE500021462846009604F06BF80028DAD10198B4
:10BE6000A04203D00920D5E70E20D3E70020D1E778
:10BE70000DC001002DE9FF4184B01C461500884625
:10BE80001AD0CCB1002001902668832001AF8DF834
:10BE900008003B463246294602A808F024FE002846
:10BEA0000BD13B463246294604A808F0EEFD002897
:10BEB00003D1049870B903E00E2008B0BDE8F0810A
:10BEC000064800903B4632462946404604F05EF85C
:10BED0000028F2D1019820600020EEE7C1BF0100E8
:10BEE0002DE9FC479846DDF828900C46050031D036
:10BEF0002CB100200190287801AE842802D00720C0
:10BF0000BDE8FC870120019022B3B8F1000F21D0D9
:10BF10005FEA09001ED013463246284608F075FD38
:10BF20000028EDD10D4F4346324621462846009762
:10BF300003F0FEFF0028E3D14B4632462146284657
:10BF4000009703F0F5FF0028DAD10198A04203D052
:10BF50000920D5E70E20D3E70020D1E76DBF01000F
:10BF600013460A460146842007F0F8BC2DE9F84341
:10BF700016465FEA00081ED0EEB1E3B10F4800900C
:10BF80001C460D46404605F00AFF002811D1102737
:10BF9000E31D324629464046009708F0B1FD0028CF
:10BFA00007D104F11703324629464046009708F0AE
:10BFB000A7FDBDE8F8830E20FBE7000051A40100B7
:10BFC000F8B51D4617460E001BD0D5B1C8B10446C2
:10BFD0000D480090204605F014FF002810D13B4684
:10BFE00032461021E01D009508F0A0FD002807D181
:10BFF0003B463246102104F11700009508F096FDEB
:10C00000F8BD0E20F8BD0000A1A4010038B530B184
:10C010002AB123B14024009408F072FD38BD0E20EF
:10C0200038BD08B541B13BB130B1009313460A4663
:10C03000402108F07BFD08BD0E2008BDF8B516466E
:10C04000070010D07EB173B11C460D4608F0DDFC30
:10C05000002807D108200090A31C32462946384604
:10C0600008F04EFDF8BD0E20F8BDF8B51D46174688
:10C070000E000ED06DB160B1044608F0D5FC00286A
:10C0800006D13B4632460821A01C009508F04EFD23
:10C09000F8BD0E20F8BD2DE9F041164607000FD07F
:10C0A00076B16BB11C460D4608F0AFFC002808D1F4
:10C0B000A31C324629463846BDE8F04108F0A5BC2D
:10C0C0000E20BDE8F0812DE9F0411D4617460E0017
:10C0D0000ED06DB160B1044608F0A6FC002808D16E
:10C0E0002B463A463146A01CBDE8F04108F09CBC06
:10C0F0000E20BDE8F081F8B51646070010D07EB1DD
:10C1000073B11C460D4608F080FC002807D10520BD
:10C110000090A31C32462946384608F0F1FCF8BDD1
:10C120000E20F8BDF8B51D4617460E000ED06DB1B5
:10C1300060B1044608F078FC002806D13B46324640
:10C140000521A01C009508F0F1FCF8BD0E20F8BDFB
:10C15000F8B51646070018D0BEB1B3B11C460D465F
:10C1600008F053FC00280FD1A31C3246294638465C
:10C1700008F04BFC002807D105480090231D3246EB
:10C180002946384603F0D4FEF8BD0E20F8BD000065
:10C190000B4A0200F8B51D4617460E0017D0B5B180
:10C1A000A8B1044608F040FC00280FD12B463A46BF
:10C1B0003146A01C08F038FC002807D10548009043
:10C1C0002B463A463146606803F0E0FEF8BD0E208B
:10C1D000F8BD0000294A02001CB538B132B12BB1BC
:10C1E00006240094019403F09EFD1CBD0E201CBD8E
:10C1F00008B549B143B138B1009313460A46006807
:10C20000062103F0C2FD08BD0E2008BDF8B5164694
:10C21000070013D096B18BB11C460D4608F0F5FB14
:10C2200000280AD16B4632462946384608F04EFCB3
:10C23000002802D19DF80010A170F8BD0E20F8BDB5
:10C240002DE9FC411C460D46060025D02DB10020ED
:10C250000190307801AF8F2802D00720BDE8FC8123
:10C2600001200190C2B1BCB12068A8B113463A4682
:10C27000304608F0CAFB0028F0D109480090234658
:10C280003A462946304603F053FE0028E6D101988D
:10C29000A84203D00920E1E70E20DFE70020DDE718
:10C2A000B1C2010013460A4601468F2007F056BB73
:10C2B0002DE9F041164607000FD076B16BB11C4650
:10C2C0000D4608F003FC002808D1631C32462946BD
:10C2D0003846BDE8F04108F0F9BB0E20BDE8F0811A
:10C2E0002DE9F0411D4617460E000ED06DB160B12C
:10C2F000044608F0F8FB002808D12B463A463146A0
:10C30000601CBDE8F04108F0EEBB0E20BDE8F081F6
:10C310007CB50C46E0B12CB100230193057801A94E
:10C320007B2D01D007207CBD0125019582B11568C8
:10C3300075B1022C0AD3009313460A46214603F036
:10C34000F7FD0028EFD10198A04203D009207CBD61
:10C350000E207CBD00207CBD2DE9FF4184B09846B5
:10C3600014460F0019D0C4B10020019025687B202D
:10C3700001AE8DF8080033462A4602A808F0B3FB48
:10C3800000280BD133462A46394604A808F07DFB25
:10C39000002803D1049870B903E00E2008B0BDE86E
:10C3A000F0810748009033462A463946404603F05C
:10C3B000EDFD0028F2D1019820600020EEE700009A
:10C3C000CDAB01001CB50C46C8B12CB100210191C8
:10C3D000037801A97A2B01D007201CBD012301930A
:10C3E0006AB1094B009313460A46214603F0A0FDAB
:10C3F0000028F2D10198A04203D009201CBD0E20D4
:10C400001CBD00201CBD00007DAB010013460A4688
:10C4100001467A2007F0A2BA1CB50C4640B12CB1F7
:10C4200000210191037801A9712B03D007201CBDC5
:10C430000E201CBD01230193074B009313460A46AF
:10C44000214603F075FD0028F3D10198A04201D0E8
:10C4500009201CBD00201CBDC9C401002DE9FF41FD
:10C4600084B0984614460F0019D0C4B10020019042
:10C470002568712001AE8DF8080033462A4602A8CF
:10C4800008F031FB00280BD133462A46394604A870
:10C4900008F0FBFA002803D1049870B903E00E20DD
:10C4A00008B0BDE8F0810748009033462A46394677
:10C4B000404603F06BFD0028F2D101982060002077
:10C4C000EEE700001DC50100F8B51646070020D0B4
:10C4D000FEB1F3B11C460D4608F0F8FA002817D15A
:10C4E000631C32462946384608F0F0FA00280FD17E
:10C4F000A31C32462946384608F087FA002807D19F
:10C5000005480090231D32462946384603F010FDA9
:10C51000F8BD0E20F8BD0000E1BC0100F8B51D46D5
:10C5200017460E001FD0F5B1E8B1044608F0DBFA5B
:10C53000002817D12B463A463146601C08F0D3FA42
:10C5400000280FD12B463A463146A01C08F06CFA61
:10C55000002807D1054800902B463A4631466068CE
:10C5600003F014FDF8BD0E20F8BD0000F7BC01007B
:10C570001CB50C4640B12CB100210191037801A9F2
:10C58000702B03D007201CBD0E201CBD012301937E
:10C59000074B009313460A46214603F0C9FC0028C6
:10C5A000F3D10198A04201D009201CBD00201CBD80
:10C5B000C9C4010013460A460146702007F0CEB9EF
:10C5C0002DE9FC471D460A9C0E46070035D046B1B2
:10C5D0004FF00008CDF8048038780DF104098E285A
:10C5E00002D00720BDE8FC87012001902AB325B3C3
:10C5F000286810B313464A46384608F006FA002861
:10C60000F0D12B464A4631463846CDF8008003F03B
:10C610008FFC0028E6D184B1206870B123464A46D9
:10C6200031463846CDF8008003F082FC0028D9D18D
:10C630000198B04203D00920D4E70E20D2E70020B1
:10C64000D0E700002DE9FF4784B09946DDF840A00F
:10C6500014465FEA01081AD0CCB100200190266888
:10C660008E2001AF8DF808003B463246414602A8B5
:10C6700008F039FA00280BD13B463246414604A85F
:10C6800008F003FA002803D10498B8B903E00E209B
:10C6900008B0BDE8F0870B4D3B4632464146484660
:10C6A000009503F073FC0028F2D13B463246414628
:10C6B0005046009503F06AFC0028E9D101982060FB
:10C6C0000020E5E7E74A02002DE9F8431F46DDF8C0
:10C6D00020800C4605002CD02CB10020009028783A
:10C6E0006E46882802D00720BDE8F883012000901C
:10C6F000FAB1F7B15FEA08001BD01346324628466C
:10C7000008F083F90028EFD13B46324621462846FF
:10C7100008F0DCF90028E7D1434632462146284696
:10C7200008F0D4F90028DFD10098A04203D00920F6
:10C73000DAE70E20D8E70020D6E713460A4601467E
:10C74000882007F00BB938B50C46B8B12CB10021E0
:10C75000009103786946892B01D0072038BD012359
:10C7600000935AB113460A46214608F04EF90028B4
:10C77000F4D10098A04203D0092038BD0E2038BD66
:10C78000002038BD13460A460146892007F0E6B866
:10C790002DE9FC471E46DDE90A540F465FEA000812
:10C7A00042D03FB10020019098F800000DF104093B
:10C7B000862802D00720BDE8FC870120019092B3B3
:10C7C0008EB385B37CB3306868B3286858B32068EB
:10C7D00048B313464A46404608F017F90028EAD104
:10C7E0001348009033464A463946404603F0A0FBC2
:10C7F0000028E0D10F4800902B464A463946404673
:10C8000003F096FB0028D6D10B48009023464A46F9
:10C810003946404603F08CFB0028CCD10198B84241
:10C8200004D00920C7E7FFE70E20C4E70020C2E7D5
:10C8300029B00100E1BC0100B9CC010013460A4651
:10C840000146862007F08AB838B500B3FAB1F3B1D3
:10C850001C466B4608F03AF9002817D19DF80020D5
:10C86000217862F3000121709DF80020520862F3E4
:10C87000410121709DF80020920862F3820121702D
:10C880009DF80020D20862F3C301217038BD0E204C
:10C8900038BD38B5A9B1A3B198B10078C0F340054F
:10C8A000044665F35F04C0F3800544EA8504C0F3E1
:10C8B000C00044EAC0008DF80000684608F013F993
:10C8C00038BD0E2038BD0000F8B51646070029D047
:10C8D00046B33BB3144800901C460D46384603F05F
:10C8E00027FB00281DD111480090231D3246294600
:10C8F000384603F01DFB002813D10D48009004F1C9
:10C90000080332462946384603F012FB002808D1B6
:10C910000848009004F10C0332462946384603F0DB
:10C9200007FBF8BD0E20F8BDC5B0010061BC0100D9
:10C93000B9CC01000DC00100F8B51D4617460E0028
:10C9400026D02DB320B3044612480090206803F08F
:10C950001DFB00281BD1104800902B463A4631465B
:10C96000606803F013FB002811D10C4800902B469F
:10C970003A463146A06803F009FB002807D1084871
:10C9800000902B463A463146E06803F0FFFAF8BDC6
:10C990000E20F8BD05B10100A1BC0100CFCC010003
:10C9A00023C001002DE9F84316465FEA000813D0C2
:10C9B00096B18BB1094F1C460D46009705F0EFF973
:10C9C000002807D104F1100332462946404600975B
:10C9D00005F0E5F9BDE8F8830E20FBE7C9C80100C2
:10C9E0002DE9F8431D4690460E0012D08DB180B15E
:10C9F000094F0446009705F004FA002807D12B469A
:10CA00004246314604F11000009705F0FAF9BDE8FE
:10CA1000F8830E20FBE7000039C9010038B5A9B141
:10CA2000A3B198B10078C0F34005044665F35F04F4
:10CA3000C0F3800544EA8504C0F3C00044EAC000A6
:10CA40008DF80000684608F04EF838BD0E2038BD5D
:10CA50002DE9FC479846DDE90A540E4607003FD011
:10CA600036B10020019038780DF104097F2802D0FA
:10CA70000720BDE8FC870120019082B3B8F1000FC8
:10CA80002ED065B3286850B34CB3206838B3134632
:10CA90004A46384607F0B9FF0028EAD143464A46DD
:10CAA0003146384608F012F80028E2D10E480090CE
:10CAB0002B464A463146384603F03AFA0028D8D188
:10CAC0000A48009023464A463146384603F030FA79
:10CAD0000028CED10198B04204D00920C9E7FFE771
:10CAE0000E20C6E70020C4E75DCB0100A5C9010008
:10CAF0002DE9FF4184B0984614460F0019D0C4B107
:10CB00000020019025687F2001AE8DF80800334693
:10CB10002A4602A807F0E7FF00280BD133462A4631
:10CB2000394604A807F0B1FF002803D1049870B972
:10CB300003E00E2008B0BDE8F081074800903346BE
:10CB40002A463946404603F021FA0028F2D10198DE
:10CB500020600020EEE70000E1C901002DE9FC4162
:10CB600016465FEA000853D0002E51D0002B4FD05C
:10CB70001C460D4601AB07F0A9FF002846D1631CF7
:10CB800032462946404607F0A1FF00283ED1A31CAB
:10CB900032462946404607F099FF002836D11D4FFE
:10CBA000E31C324629464046009705F0F8F8002875
:10CBB0002CD1231D324629464046009705F0EFF858
:10CBC000002823D19DF80420217862F30001217010
:10CBD0009DF80420520862F3410121709DF8042061
:10CBE000920862F3820121709DF80420D20862F35A
:10CBF000C30121709DF80420120962F3061121700F
:10CC00009DF80420D20962F3C7112170BDE8FC81B0
:10CC10000E20FBE749C801002DE9FC411D46904666
:10CC20000E0045D0F5B3E8B304460078C0F34002E7
:10CC3000014662F35F01C0F3800241EA8201C0F362
:10CC4000C00241EAC201C0F3021241EA021120F01F
:10CC50007F0001438DF804104246314601A807F0D9
:10CC600042FF002822D12B4642463146601C07F085
:10CC70003AFF00281AD12B4642463146A01C07F045
:10CC800032FF002812D10B4F2B4642463146E01CA2
:10CC9000009705F0B6F8002808D12B4642463146E9
:10CCA000201D00E004E0009705F0ABF8BDE8FC8132
:10CCB0000E20FBE793C8010038B530B12AB123B18B
:10CCC0001024009407F01CFF38BD0E2038BD08B5B5
:10CCD00041B13BB130B1009313460A46102107F031
:10CCE00025FF08BD0E2008BD2DE9F8439846089F92
:10CCF0000C46050028D02CB10020009028786E4604
:10CD0000772802D00720BDE8F88301200090DFB12A
:10CD100013463246284607F0D9FE0028F3D1434691
:10CD200032462146284607F070FE0028EBD13B46EC
:10CD300032462146284607F0C9FE0028E3D1009874
:10CD4000A04203D00920DEE70E20DCE70020DAE76E
:10CD500013460A460146772006F000BE2DE9FE4F35
:10CD60001446060098460D4629D035B10027019794
:10CD700030780DF1040A6E2802D00720BDE8FE8F3E
:10CD800001200190DCB12068C8B10068B8B15246FA
:10CD9000304607F09BFE0028F0D102AB52462946F0
:10CDA000304607F093FE0028E8D19DF808000128DE
:10CDB00007D027600198A84219D00920DEE70E208D
:10CDC000DCE727680024DFF82C900BE007EB8403F6
:10CDD000524629463046CDF8009003F0A9F80028C5
:10CDE000CCD1641C98F80000A042EFD8E2E7002004
:10CDF000C4E7000051A4010013460A4601466E2014
:10CE000006F0ACBD38B5A0B19AB193B11C466B46E3
:10CE100007F05CFE00280BD19DF80020217862F31A
:10CE2000000121709DF80020520862F34101217039
:10CE300038BD0E2038BD38B590B38AB383B31C46D5
:10CE40006B4607F043FE002829D19DF80020217889
:10CE500062F3000121709DF80020520862F3410145
:10CE600021709DF80020920862F3820121709DF8E4
:10CE70000020D20862F3C30121709DF8002012093E
:10CE800062F3041121709DF80020520962F34511EC
:10CE900021709DF80020920962F38611217038BD3F
:10CEA000FFE70E20FBE738B509B303B3F8B100780C
:10CEB000C0F34005044665F35F04C0F3800544EA0F
:10CEC0008504C0F3C00544EAC504C0F3001544EA74
:10CED0000514C0F3401544EA4514C0F3801044EA39
:10CEE00080108DF80000684607F0FDFD38BD0E206B
:10CEF00038BD18B112B10BB107F087BD0E207047D5
:10CF0000F8B51D4617460E000FD075B168B104463E
:10CF100007F08AFD002807D1054800902B463A46C5
:10CF20003146A01C04F081FFF8BD0E20F8BD0000C2
:10CF30009FF80100F8B51D4617460E000FD075B1D9
:10CF400068B1044607F070FD002807D1054800903D
:10CF50002B463A463146A01C04F067FFF8BD0E2070
:10CF6000F8BD0000B9FA01002DE9FC411C460D4650
:10CF7000060025D02DB100200190307801AF9F2808
:10CF800002D00720BDE8FC8101200190C2B1BCB1F4
:10CF90002068A8B113463A46304607F036FD00280F
:10CFA000F0D10948009023463A462946304602F01F
:10CFB000BFFF0028E6D10198A84203D00920E1E78D
:10CFC0000E20DFE70020DDE787DD010013460A467B
:10CFD00001469F2006F0C2BC2DE9FC411D461746C4
:10CFE0000E0032D085B378B304461948009020462D
:10CFF00004F01BFF002825D1164800902B463A4626
:10D000003146201D04F011FF00281BD160792B460A
:10D0100000F001008DF804003A46314601A807F0FF
:10D0200062FD00280ED12B463A463146A01D07F07E
:10D03000FBFC002806D12B463A46314604F1080095
:10D0400007F0F2FCBDE8FC81FFE70E20FAE70000E4
:10D05000B9FA0100A7CE01002DE9FC411D46089C4C
:10D060000E46070033D036B10020019038780DF11C
:10D070000408A02802D00720BDE8FC81012001900F
:10D080002AB325B3286810B30CB32068F8B113464F
:10D090004246384607F0B9FC0028EDD10E48009012
:10D0A0002B4642463146384602F042FF0028E3D183
:10D0B0000A480090234642463146384602F038FF7F
:10D0C0000028D9D10198B04203D00920D4E70E201E
:10D0D000D2E70020D0E7000089FA010087DD0100D7
:10D0E00013460A460146A02006F038BC2DE9FC4153
:10D0F0001C46089F0D46060026D035B10020019041
:10D1000030780DF10408A22802D00720BDE8FC8188
:10D1100001200190C2B1BCB12068A8B1A7B11346EB
:10D120004246304607F071FC0028EFD123464246C4
:10D1300029463046009704F05DF90028E6D10198B1
:10D14000A84203D00920E1E70E20DFE70020DDE759
:10D1500013460A460146A22006F000BC2DE9FC4118
:10D160001F460C46050009D02CB1002001902878FC
:10D1700001AE9D2804D00720BDE8FC810E20FBE70E
:10D180000120134601903246284607F03EFC002855
:10D19000F2D1084800903B4632462146284602F02C
:10D1A000C7FE0028E8D10198A04201D00920E3E79A
:10D1B0000020E1E787DD010013460A4601469D2075
:10D1C00006F0CCBB18B112B10BB107F07FBC0E203A
:10D1D00070470000F8B51D4617460E000FD075B118
:10D1E00068B1044607F020FC002807D105480090EC
:10D1F0002B463A463146A01C04F017FEF8BD0E201F
:10D20000F8BD0000B9FA01002DE9FC411F460C46AB
:10D21000050009D02CB100200190287801AE9E288D
:10D2200004D00720BDE8FC810E20FBE70120134657
:10D2300001903246284607F0E8FB0028F2D1084862
:10D2400000903B4632462146284602F071FE0028F7
:10D25000E8D10198A04201D00920E3E70020E1E7EE
:10D2600087DD010013460A4601469E2006F076BB84
:10D270002DE9FE431D461646040007D036B12DB1F8
:10D280002088342804D00720BDE8FE830E20FBE769
:10D29000002001902F6834200DF10408ADF808003B
:10D2A00043463A46314602A807F0BEFB0028EBD1C0
:10D2B00043463A463146201D07F0B6FB0028E3D12D
:10D2C00043463A463146A01D07F0AEFB0028DBD1AD
:10D2D00043463A46314604F1080007F0A5FB002812
:10D2E000D2D10748009043463A46314604F10A003D
:10D2F00004F091FD0028C7D101992960C4E700001E
:10D3000005D301002DE9F8431F4691465FEA010865
:10D3100014D09FB190B1044607F086FB00280ED1CF
:10D320003B464A464146A01C07F0DDFB002806D1DB
:10D33000A178012905D0104E002515E00E20BDE88A
:10D34000F8830E4EF8E7A078012811D005EBC50050
:10D3500004EB4000001D3B464A464146009604F05F
:10D3600064FD0028EBD16D1C2188A942EBD8E6E7CB
:10D3700005EB4500ECE7000001CF010035CF0100CF
:10D380002DE9FE431D461646040007D036B12DB1E7
:10D390002088322804D00720BDE8FE830E20FBE75A
:10D3A000002001902F6832200DF10408ADF808002C
:10D3B00043463A46314602A807F036FB0028EBD137
:10D3C00043463A463146201D07F02EFB0028E3D1A4
:10D3D00043463A463146A01D07F026FB0028DBD124
:10D3E00043463A46314604F1080007F01DFB002889
:10D3F000D2D10748009043463A46314604F10A002C
:10D4000004F009FD0028C7D101992960C4E7000094
:10D4100015D401002DE9F8431E4691465FEA010844
:10D4200009D046B138B1044607F0FEFA002803D10E
:10D4300000250B4F10E00E20BDE8F88305EB8500BA
:10D4400004EB400033464A464146801C009704F0F6
:10D45000ECFC0028F0D16D1C2188A942EED8EBE746
:10D46000D9CF01002DE9FE431D461646040007D022
:10D4700036B12DB12088352804D00720BDE8FE83C1
:10D480000E20FBE7002001902F6835200DF10408E5
:10D49000ADF8080043463A46314602A807F0C4FA00
:10D4A0000028EBD143463A463146201D07F0BCFA2E
:10D4B0000028E3D143463A463146A01D07F0B4FAAE
:10D4C0000028DBD143463A46314604F1080007F014
:10D4D000ABFA0028D2D10748009043463A4631467D
:10D4E00004F10A0004F097FC0028C7D101992960D3
:10D4F000C4E70000F9D40100F8B51D4617460E0038
:10D500001AD0CDB1C0B1044607F08EFA002812D16E
:10D510002B463A463146A01C07F086FA00280AD16D
:10D5200060882188801C484381B23B463246201DDA
:10D53000009507F0FBFAF8BD0E20F8BD2DE9FE437B
:10D540001D461646040007D036B12DB12088372875
:10D5500004D00720BDE8FE830E20FBE700200190E9
:10D560002F6837200DF10408ADF8080043463A460D
:10D57000314602A807F058FA0028EBD143463A4654
:10D580003146201D07F050FA0028E3D143463A46C1
:10D590003146A01D07F048FA0028DBD143463A4641
:10D5A000314604F1080007F03FFA0028D2D10748BD
:10D5B000009043463A46314604F10A0004F02BFC41
:10D5C0000028C7D101992960C4E70000D1D5010026
:10D5D000F8B51D4617460E000ED06DB160B1044679
:10D5E00007F022FA002806D1009521883B463246F2
:10D5F000A01C07F09BFAF8BD0E20F8BD2DE9FE43F4
:10D600001D461646040007D036B12DB120883328B8
:10D6100004D00720BDE8FE830E20FBE70020019028
:10D620002F6833200DF10408ADF8080043463A4650
:10D63000314602A807F0F8F90028EBD143463A46F4
:10D640003146201D07F0F0F90028E3D143463A4661
:10D650003146A01D07F0E8F90028DBD143463A46E1
:10D66000314604F1080007F0DFF90028D2D107485D
:10D67000009043463A46314604F10A0004F0CBFBE1
:10D680000028C7D101992960C4E7000091D60100A4
:10D690002DE9F8431E4691465FEA010809D046B1DC
:10D6A00038B1044607F0C0F9002803D100250B4F1C
:10D6B00010E00E20BDE8F88305EB450004EB4000C8
:10D6C00033464A464146801C009704F0AEFB0028D2
:10D6D000F0D16D1C2188A942EED8EBE7D5D101002D
:10D6E0002DE9FE431D461646040007D036B12DB184
:10D6F00020883A2804D00720BDE8FE830E20FBE7EF
:10D70000002001902F683A200DF10408ADF80800C0
:10D7100043463A46314602A807F086F90028EBD185
:10D7200043463A463146201D07F07EF90028E3D1F2
:10D7300043463A463146A01D07F076F90028DBD172
:10D7400043463A46314604F1080007F06DF90028D7
:10D75000D2D10748009043463A46314604F10A00C8
:10D7600004F059FB0028C7D101992960C4E70000E3
:10D7700075D7010019B113B108B107F055B90E20E2
:10D78000704700002DE9FE431D461646040007D0F1
:10D7900036B12DB12088392804D00720BDE8FE839A
:10D7A0000E20FBE7002001902F6839200DF10408BE
:10D7B000ADF8080043463A46314602A807F034F96E
:10D7C0000028EBD143463A463146201D07F02CF99C
:10D7D0000028E3D143463A463146A01D07F024F91C
:10D7E0000028DBD143463A46314604F1080007F0F1
:10D7F0001BF90028D2D10748009043463A463146EB
:10D8000004F10A0004F007FB0028C7D10199296040
:10D81000C4E7000019D80100F8B51D4617460E00F0
:10D820001ED0EDB1E0B1044607F0FEF8002816D195
:10D830002B463A463146A01C07F055F900280ED178
:10D840002B463A463146201D07F0EEF8002806D157
:10D850000095A1883B463246A01D07F067F9F8BD48
:10D860000E20F8BD2DE9FE431D461646040007D0E4
:10D8700036B12DB12088302804D00720BDE8FE83C2
:10D880000E20FBE7002001902F6830200DF10408E6
:10D89000ADF8080043463A46314602A807F0C4F8FE
:10D8A0000028EBD143463A463146201D07F0BCF82C
:10D8B0000028E3D143463A463146A01D07F0B4F8AC
:10D8C0000028DBD143463A46314604F1080007F010
:10D8D000ABF80028D2D10748009043463A4631467B
:10D8E00004F10A0004F097FA0028C7D101992960D1
:10D8F000C4E70000F9D801002DE9F8431E4691461F
:10D900005FEA010809D046B138B1044607F08CF847
:10D91000002803D100250A4F0EE00E20BDE8F88351
:10D9200004EBC50033464A464146801C009704F08C
:10D930007CFA0028F2D16D1C2188A942F0D8EDE7CD
:10D94000D1DF01002DE9FE431D461646040007D035
:10D9500036B12DB12088362804D00720BDE8FE83DB
:10D960000E20FBE7002001902F6836200DF10408FF
:10D97000ADF8080043463A46314602A807F054F88D
:10D980000028EBD143463A463146201D07F04CF8BB
:10D990000028E3D143463A463146A01D07F044F83B
:10D9A0000028DBD143463A46314604F1080007F02F
:10D9B0003BF80028D2D10748009043463A4631460A
:10D9C00004F10A0004F027FA0028C7D10199296060
:10D9D000C4E70000D9D90100F8B51D4617460E006E
:10D9E0001ED0EDB1E0B1044607F01EF8002816D1B4
:10D9F0002B463A463146A01C07F016F800280ED1F7
:10DA00002B463A463146201D07F00EF8002806D175
:10DA10000095A1883B463246A01D07F087F8F8BD67
:10DA20000E20F8BD2DE9FE431D461646040007D022
:10DA300036B12DB12088312804D00720BDE8FE83FF
:10DA40000E20FBE7002001902F6831200DF1040823
:10DA5000ADF8080043463A46314602A806F0E4FF16
:10DA60000028EBD143463A463146201D06F0DCFF44
:10DA70000028E3D143463A463146A01D06F0D4FFC4
:10DA80000028DBD143463A46314604F1080006F04F
:10DA9000CBFF0028D2D10748009043463A46314692
:10DAA00004F10A0004F0B7F90028C7D101992960F0
:10DAB000C4E70000B9DA01002DE9F84F9846924614
:10DAC0005FEA01090ED0B8F1000F0BD050B1044647
:10DAD0004346494606F0A8FF002804D1A51C0026AD
:10DAE000094F0DE00E20BDE8F88F434652464946E7
:10DAF0002846009704F099F90028F4D10A35761CDD
:10DB00002188B142F1D8EEE745DE01002DE9FE4360
:10DB10001D461646040007D036B12DB120883B289B
:10DB200004D00720BDE8FE830E20FBE70020019013
:10DB30002F683B200DF10408ADF8080043463A4633
:10DB4000314602A806F070FF0028EBD143463A4662
:10DB50003146201D06F068FF0028E3D143463A46CF
:10DB60003146A01D06F060FF0028DBD143463A464F
:10DB7000314604F1080006F057FF0028D2D10748CB
:10DB8000009043463A46314604F10A0004F043F956
:10DB90000028C7D101992960C4E70000A1DB01007A
:10DBA00019B113B108B106F09EBF0E2070472DE9E0
:10DBB000FC411D461646040007D036B12DB1208821
:10DBC0003C2804D00720BDE8FC810E20FBE70020A4
:10DBD00000902F683C20E846ADF8040043463A46E2
:10DBE000314601A806F020FF0028ECD143463A4612
:10DBF0003146201D06F018FF0028E4D143463A467E
:10DC00003146A01D06F010FF0028DCD143463A46FD
:10DC1000314604F1080006F007FF0028D3D143463F
:10DC20003A46314604F10A0006F05DFF0028CAD1E9
:10DC300000992960C7E700002DE9FE431D461646FE
:10DC4000040007D036B12DB12088382804D0072031
:10DC5000BDE8FE830E20FBE7002001902F683820EE
:10DC60000DF10408ADF8080043463A46314602A8D3
:10DC700006F0DAFE0028EBD143463A463146201D35
:10DC800006F0D2FE0028E3D143463A463146A01DB5
:10DC900006F0CAFE0028DBD143463A46314604F17D
:10DCA000080006F0C1FE0028D2D107480090434684
:10DCB0003A46314604F10A0004F0ADF80028C7D115
:10DCC00001992960C4E70000CDDC0100F8B51D46CC
:10DCD00017460E0027D035B328B3044606F0A4FE3D
:10DCE00000281FD12B463A463146A01C06F0FBFE09
:10DCF000002817D12B463A463146201D06F094FEE7
:10DD000000280FD12B463A463146A01D06F08CFE66
:10DD1000002807D10095E1883B46324604F108000F
:10DD200006F004FFF8BD0E20F8BDF8B51F460C46FE
:10DD3000050008D02CB10020009028786E46A52858
:10DD400003D00720F8BD0E20F8BD01201346009037
:10DD50003246284606F059FE0028F5D13B463246A9
:10DD60002146284606F051FE0028EDD10098A04239
:10DD700001D00920F8BD0020F8BD13460A4601462F
:10DD8000A52005F0EBBD2DE9F041164607000FD0A8
:10DD900076B16BB11C460D4606F037FE002808D15F
:10DDA000A31C324629463846BDE8F04106F02DBE98
:10DDB0000E20BDE8F0812DE9F0411D4617460E000A
:10DDC0000ED06DB160B1044606F02EFE002808D1D9
:10DDD0002B463A463146A01CBDE8F04106F024BE71
:10DDE0000E20BDE8F081F8B51F460C46050008D0AE
:10DDF0002CB10020009028786E46A42803D007207C
:10DE0000F8BD0E20F8BD012013460090324628468A
:10DE100006F0FBFD0028F5D13B4632462146284658
:10DE200006F0F3FD0028EDD10098A04201D00920B2
:10DE3000F8BD0020F8BD13460A460146A42005F0AF
:10DE40008DBD0000F8B51D4617460E000FD075B108
:10DE500068B1044606F0E8FD002807D105480090A7
:10DE60002B463A463146A01C03F0DFFFF8BD0E20DA
:10DE7000F8BD0000D1DF01002DE9FC411F46DDF8AF
:10DE800020800C46050009D02CB100200190287894
:10DE900001AE9B2804D00720BDE8FC810E20FBE7E3
:10DEA0000120134601903246284606F0AEFD0028B8
:10DEB000F2D13B4632462146284606F0A6FD002810
:10DEC000EAD108480090434632462146284602F0EF
:10DED0002FF80028E0D10198A04201D00920DBE70B
:10DEE0000020D9E789FA010013460A4601469B2023
:10DEF00005F034BD2DE9F8431F46DDF820800C46BF
:10DF0000050009D02CB10020009028786E46A12889
:10DF100004D00720BDE8F8830E20FBE7012013465C
:10DF200000903246284606F070FD0028F2D13B46AC
:10DF300032462146284606F068FD0028EAD14346CD
:10DF400032462146284606F060FD0028E2D10098BE
:10DF5000A04201D00920DDE70020DBE713460A4696
:10DF60000146A12005F0FABC2DE9FC411F460C46F4
:10DF7000050009D02CB100200190287801AE9C2822
:10DF800004D00720BDE8FC810E20FBE701201346EA
:10DF900001903246284606F038FD0028F2D10848A4
:10DFA00000903B4632462146284601F0C1FF00283A
:10DFB000E8D10198A04201D00920E3E70020E1E781
:10DFC00087DD010013460A4601469C2005F0C6BCC9
:10DFD000F8B51D4617460E0012D08DB180B104462B
:10DFE00008480090204603F020FF002807D106488B
:10DFF00000902B463A463146201D03F016FFF8BD2F
:10E000000E20F8BDB9FA0100B7DD0100F8B51646DB
:10E01000070028D03EB333B31C460D4606F056FD2C
:10E0200000281FD1631C32462946384606F04EFDB3
:10E03000002817D1A31C32462946384606F0E5FCD5
:10E0400000280FD1231D32462946384606F0DDFC54
:10E05000002807D1A01D831C00903246294638466F
:10E0600003F0A7FFF8BD0E20F8BD00002DE9FC412C
:10E070001F460C46050009D02CB1002001902878DD
:10E0800001AEA32804D00720BDE8FC810E20FBE7E9
:10E090000120134601903246284606F0B6FC0028BF
:10E0A000F2D1084800903B4632462146284601F00E
:10E0B0003FFF0028E8D10198A04201D00920E3E702
:10E0C0000020E1E70DE0010013460A460146A320C7
:10E0D00005F044BC2DE9FC479846DDF828900D4634
:10E0E000060009D02DB100240194307801AFB42886
:10E0F00004D00720BDE8FC870E20FBE70120134673
:10E1000001903A46304606F080FC0028F2D14346A2
:10E110003A4629463046009401F00AFF0028E9D12A
:10E120004B463A4629463046009401F001FF00284C
:10E13000E0D10198A84201D00920DBE70020D9E70F
:10E140002DE9FF4383B09846DDF8389014460F0060
:10E1500019D0C4B1002001902568B42001AE8DF81B
:10E16000080033462A4602A806F0BDFC00280BD161
:10E1700033462A46394603A806F087FC002803D117
:10E180000398C0B903E00E2007B0BDE8F0830C4847
:10E19000009033462A463946404601F0F7FE0028F3
:10E1A000F2D10848009033462A463946484601F0E5
:10E1B000EDFE0028E8D1019820600020E4E700008F
:10E1C000B9FA010035E201002DE9FC4116465FEA8B
:10E1D00000082BD056B34BB3154F1C460D46009785
:10E1E00003F0E7FD00281FD1631C32462946404654
:10E1F000009703F0DEFD002816D101AB3246294618
:10E20000404606F063FC00280ED19DF80410A27869
:10E210004B0861F3000263F34202CB0863F3C302CD
:10E22000090961F30412A270BDE8FC810E20FBE72E
:10E23000E1AC01002DE9FC411D4690460E0032D0B4
:10E2400085B378B3194F0446009703F002FE002807
:10E2500026D12B4642463146601C009703F0F9FD5B
:10E2600000281DD1A0782B46C0F34102014662F37D
:10E270005F01C0F3C00241EAC201C0F3001041EAED
:10E2800000108DF804004246314601A806F02BFC30
:10E29000002805D1A178C1F34101012900D0072050
:10E2A000BDE8FC81FFE70E20FAE7000013AD010096
:10E2B000F8B51646070032D086B37BB319480090F4
:10E2C0001C460D46384601F033FE002825D116487D
:10E2D0000090231D32462946384601F029FE0028C9
:10E2E0001BD104F10A0332462946384606F08DFB5D
:10E2F000002812D104F10C0332462946384606F0B4
:10E3000084FB002809D104F10800009004F11003F7
:10E3100032462946384603F04CFEF8BDFFE70E2092
:10E32000FBE7000089FA0100C9E101002DE9FC4189
:10E330001646070028D03EB333B31C460D4606F000
:10E3400064FB00281ED101AB32462946384606F050
:10E35000BDFB002816D1231D32462946384606F05B
:10E3600054FB00280ED1A01D831C00903246294684
:10E37000384603F01EFE002804D19DF8041001F079
:10E380000101A170BDE8FC810E20FBE718B112B1BC
:10E390000BB106F063BB0E20704738B558B152B1CF
:10E3A0004BB11C466B4606F091FB002802D19DF84C
:10E3B0000010217038BD0E2038BD2DE9F0411D46FA
:10E3C00017460E001ED0EDB1E0B1044606F02CFB5E
:10E3D000002818D12B463A463146A01C06F024FBF3
:10E3E000002810D12B463A463146201D06F01CFB72
:10E3F000002808D12B463A463146A01DBDE8F04121
:10E4000006F012BB0E20BDE8F08100002DE9F843B4
:10E4100016465FEA000854D0002E52D0002B50D090
:10E42000294800901C460D46404603F0C2FC0028D7
:10E4300045D126480090631C32462946404603F0E9
:10E44000B8FC00283BD104F1080332462946404677
:10E4500006F0DBFA002832D104F10A000090231DF7
:10E4600032462946404603F0A4FD002827D118482B
:10E47000009004F10C0332462946404601F058FD55
:10E4800000281CD1134F04F11003324629464046A0
:10E49000009701F04DFD002811D104F1140332461C
:10E4A00029464046009701F043FD002807D104F1BA
:10E4B0001803324629464046009701F039FDBDE871
:10E4C000F8830E20FBE7000037CE010005CE0100E7
:10E4D000D9E40100C9E101002DE9F0411646070029
:10E4E00027D036B32BB31C460D4606F0EFFA0028B2
:10E4F00020D1631C32462946384606F0E7FA002848
:10E5000018D1A31C32462946384606F07EFA002868
:10E5100010D1231D32462946384606F0D7FA002886
:10E5200008D1A31D324629463846BDE8F04106F021
:10E530006CBA0E20BDE8F0812DE9FC479846DDE974
:10E540000A9A0C46050009D02CB1002601962878BD
:10E5500001AFAA2804D00720BDE8FC870E20FBE706
:10E560000120134601903A46284606F04EFA00284C
:10E57000F2D11248009043463A462146284601F01F
:10E58000D7FC0028E8D10E4800904B463A46214679
:10E59000284601F0CDFC0028DED153463A462146FC
:10E5A0002846009601F0C4FC0028D5D10198A0426D
:10E5B00001D00920D0E70020CEE700000DE40100E3
:10E5C000B1E201002DE9FF4184B0984614460F00E6
:10E5D00019D0C4B1002001902568AA2001AE8DF8A1
:10E5E000080033462A4602A806F07DFA00280BD11F
:10E5F00033462A46394604A806F047FA002803D1D4
:10E60000049870B903E00E2008B0BDE8F081074817
:10E61000009033462A463946404601F0B7FC0028B0
:10E62000F2D1019820600020EEE70000BBE301007A
:10E6300018B112B10BB106F049BA0E2070470000B4
:10E640002DE9FC479846DDF828900C46050009D0D6
:10E650002CB100260196287801AFAB2804D0072002
:10E66000BDE8FC870E20FBE70120134601903A46E7
:10E67000284606F0CAF90028F2D10D48009043461A
:10E680003A462146284601F053FC0028E8D14B4683
:10E690003A4621462846009601F04AFC0028DFD180
:10E6A0000198A04201D00920DAE70020D8E7000055
:10E6B000B1E201002DE9FF4184B0984614460F00F5
:10E6C00019D0C4B1002001902568AB2001AE8DF8AF
:10E6D000080033462A4602A806F005FA00280BD1A6
:10E6E00033462A46394604A806F0CFF9002803D15C
:10E6F000049870B903E00E2008B0BDE8F081074827
:10E70000009033462A463946404601F03FFC002837
:10E71000F2D1019820600020EEE70000294A0200B3
:10E720002DE9FE431D461646040007D036B12DB133
:10E730002088552804D00720BDE8FE830E20FBE783
:10E74000002001902F6855200DF10408ADF8080055
:10E7500043463A46314602A806F066F90028EBD156
:10E7600043463A463146201D06F05EF90028E3D1C3
:10E770000648009043463A463146A01D03F05FFB31
:10E780000028D9D101992960D6E7000091E701005E
:10E7900019B113B108B106F047B90E207047000057
:10E7A0002DE9FE431D461646040007D036B12DB1B3
:10E7B0002088532804D00720BDE8FE830E20FBE705
:10E7C000002001902F6853200DF10408ADF80800D7
:10E7D00043463A46314602A806F026F90028EBD116
:10E7E00043463A463146201D06F01EF90028E3D183
:10E7F0000648009043463A463146A01D03F01FFBF1
:10E800000028D9D101992960D6E7000011E801005C
:10E8100019B113B108B106F007B90E2070472DE900
:10E82000FC411D461646040007D036B12DB12088A4
:10E83000572804D00720BDE8FC810E20FBE700200C
:10E8400000902F685720E846ADF8040043463A464A
:10E85000314601A806F0E8F80028ECD143463A46D4
:10E860003146201D06F0E0F80028E4D143463A4640
:10E870003146A01D06F037F90028DCD10099296047
:10E88000D9E70000F8B51D4617460E0019D0C5B1EE
:10E89000B8B1044606F0C8F8002813D10A48009021
:10E8A0002B463A463146A01C03F0D3FA002809D182
:10E8B00001B02B463A463146A01DBDE8F04006F0B7
:10E8C000B3B80E20F8BD0000B9FA01002DE9F041FF
:10E8D00086B01E461746040008D03FB136B12088E6
:10E8E000512805D0072006B0BDE8F0810E20FAE7D8
:10E8F00000200390356851200DF10C08ADF8100090
:10E9000043462A46394604A806F08EF80028EAD184
:10E9100043462A463946201D06F086F80028E2D1F3
:10E920001648009043462A463946A01D03F087FA50
:10E930000500D8D1A07902281CD1A07B062801D0DF
:10E94000042817D1A08801A901F036FC052811D0B0
:10E9500003A800900198336800EB400101EB00111F
:10E9600007483A4600EB81000189406803F039FB13
:10E970000500B8D1039830602846B4E785E9010066
:10E9800094470020F8B51D4617460E000DD065B11E
:10E9900058B1044606F0A7F8002805D120780128D0
:10E9A00005D0022805D00720F8BD0E20F8BD054887
:10E9B00000E0054800902B463A463146A01C03F083
:10E9C00048FAF8BD85E80100D5EB01002DE9FC41CE
:10E9D0001C461646050007D036B12CB128885428AD
:10E9E00004D00720BDE8FC810E20FBE7002000904A
:10E9F00027685420E846ADF8040043463A463146BD
:10EA000001A806F011F80028ECD143463A463146F9
:10EA1000281D06F009F80028E4D100992160E1E7FB
:10EA20002DE9FE431D461646040007D036B12DB130
:10EA30002088522804D00720BDE8FE830E20FBE783
:10EA4000002001902F6852200DF10408ADF8080055
:10EA500043463A46314602A805F0E6FF0028EBD1CE
:10EA600043463A463146201D05F0DEFF0028E3D13B
:10EA70000648009043463A463146A01D03F0DFF9B0
:10EA80000028D9D101992960D6E7000091EA010058
:10EA900019B113B108B106F026B80E207047000076
:10EAA0002DE9FE431D461646040007D036B12DB1B0
:10EAB0002088562804D00720BDE8FE830E20FBE7FF
:10EAC000002001902F6856200DF10408ADF80800D1
:10EAD00043463A46314602A805F0A6FF0028EBD18E
