:020000040000FA
:1000000040290020F9020000010300000303000062
:1000100005030000070300000903000000000000C2
:100020000000000000000000000000000B030000C2
:100030000D030000000000000F030000110300008A
:100040005D06000013030000690B000013030000AD
:10005000130300001303000013030000D90600007F
:1000600013030000410B0000550B000013030000B8
:100070001303000013030000130300001303000028
:1000800013030000B506000013030000CF050000B5
:1000900021080000130300001303000013030000F5
:1000A00013030000130300001303000013030000F8
:1000B0001303000013030000000000000000000014
:1000C00013030000130300001303000013030000D8
:1000D00013030000130300001303000000000000DE
:1000E0000000000000000000000000000000000010
:1000F0000000000000000000000000000000000000
:1001000000000000000000000000000000000000EF
:1001100000000000000000000000000000000000DF
:1001200000000000000000000000000000000000CF
:1001300000000000000000000000000000000000BF
:1001400000000000000000000000000000000000AF
:10015000000000000000000000000000000000009F
:10016000000000000000000000000000000000008F
:10017000000000000000000000000000000000007F
:10018000000000000000000000000000000000006F
:10019000000000000000000000000000000000005F
:1001A000000000000000000000000000000000004F
:1001B000000000000000000000000000000000003F
:1001C000000000000000000000000000000000002F
:1001D000000000000000000000000000000000001F
:1001E000000000000000000000000000000000000F
:1001F00000000000000000000000000000000000FF
:10020000DFF80CD000F0C2F9004800472D170000BD
:100210004029002030B4044654E8000F0D4644E85D
:100220000053002BF8D1156030BC704730B4044641
:1002300054E8000F40EA010544E80053002BF7D1D1
:10024000156030BC704730B4044654E8000F00EA33
:10025000010544E80053002BF7D1156030BC70470E
:1002600030B4044654E8000F80EA010544E8005326
:10027000002BF7D1156030BC704730B4044654E809
:10028000000F00EB010544E80053002BF7D1156087
:1002900030BC704730B4044654E8000FA0EB0105B1
:1002A00044E80053002BF7D1156030BC704770B4A0
:1002B00004464FF0000054E8006F0D68AE4207BFDF
:1002C00044E80023012044E800630E60002B1CBFBB
:1002D0000020F0E770BC704730B4044654E8000FCB
:1002E00088422CBF451A054644E80053002BF5D13F
:1002F000156030BC7047000006488047064800473C
:10030000FEE7FEE7FEE7FEE7FEE7FEE7FEE7FEE7C5
:10031000FEE7FEE7250800000102000000487047E4
:100320004038000040EA01039B0703D009E008C9F8
:10033000121F08C0042AFAD203E011F8013B00F8AA
:10034000013B521EF9D27047D2B201E000F8012BF6
:10035000491EFBD270470022F6E710B513460A4645
:1003600004461946FFF7F0FF204610BD421C10F866
:10037000011B0029FBD1801A70472DE9FE4F81EA4D
:10038000030404F0004421F0004100944FF0000BFE
:1003900023F0004350EA01045ED052EA03045BD02C
:1003A000C3F30A54C1F30A552C44A4F2F334019464
:1003B000A0FB0254C1F3130141F48011C3F31303F2
:1003C00043F4801301FB024400FB034E840A970AA6
:1003D00044EA815447EA8357A4FB076802958D0AD3
:1003E00005FB07854FEA932C04FB0C542705029D5F
:1003F0004FEA065847EA1637B5EB08056EEB070CCF
:10040000870E920E47EA811742EA8312A7FB020188
:10041000B6EB0B0164EB00042B0D43EA0C335E18C2
:1004200044EB1C50DA465146E7FB0201C5F31304C6
:100430004FEA0B3343EA14534FEA0432019C43EA78
:100440000603A4F10C040294009CCDE900B400F072
:100450004FF803B0BDE8F08F00200146F9E70EB574
:10046000C10F80EAE0700844CA07002140F233431C
:100470008DE80E000A460B4600F03AF803B000BDC6
:10048000C1F30A5210B5C1F3130140F2FF3341F436
:1004900080119A4201DA002010BD40F233439A42A3
:1004A000A2F2334203DC524200F003F810BD904048
:1004B00010BD202A04DB203A21FA02F00021704707
:1004C00021FA02F3D040C2F12002914008431946BC
:1004D000704710B5141E73F1000408DA401C41F196
:1004E000000192185B411A4301D120F0010010BDB8
:1004F0002DE9F04D92469B4611B1B1FA81F202E02E
:10050000B0FA80F22032904600F052F804460F46CE
:1005100040EA0A0041EA0B0153465A46084313D009
:10052000114653EA010019D0C8F140025046FFF7C6
:10053000C0FF05460E4650465946424600F038F880
:10054000084305D0012004E020463946BDE8F08D7F
:100550000020054346EAE0762C4337430A986305BA
:10056000E40AA0EB08000022FD0A44EA47540A30DE
:1005700002D500200146E9E7010510196941DDE9CE
:10058000084500196941BDE8F04DA2E7064C074D4A
:1005900006E0E06840F0010394E807009847103453
:1005A000AC42F6D3FFF730FE0439000024390000D6
:1005B000202A04DB203A00FA02F100207047914023
:1005C000C2F1200320FA03F319439040704710B59D
:1005D0000121080200F000FD02214FF4827000F0BA
:1005E000FBFC04214FF4847000F0F6FCBDE81040E1
:1005F00008214FF4867000F0EFBC00F01F020121CB
:1006000091404009800000F1E020C0F8801270475E
:1006100000F01F02012191404009800000F1E0201C
:10062000C0F80011704700F01F02012191404009FD
:10063000800000F1E020C0F8001270474907090E61
:10064000002806DA00F00F0000F1E02080F8141D09
:10065000704700F1E02080F80014704770B54FF447
:100660008076304601F08EF9114CB50560B1304608
:1006700001F08FF90120C5F80803607920B9012045
:1006800060712168002088474FF48276304601F07F
:1006900079F900280AD0304601F07BF90220C5F82C
:1006A00008032168BDE870400120084770BD0000C4
:1006B0006C00002007480021C0F84011C0F8441128
:1006C000C0F84811C0F84C11C0F80011C0F804116E
:1006D00002F00CBE001001402DE9FE434FF4827879
:1006E000404601F0EDFF4C4F00254C4C012600B375
:1006F000404601F0EDFF94F82E0010B194F82F1051
:10070000D1B18DF80050616801912189ADF80810D0
:10071000E26832B1218B618362602181E56010B1B2
:1007200002E0257400E03E6021686846884784F84E
:100730002F5094F82E0060B34FF48077384601F0C4
:10074000BFFF30B3384601F0C3FF628B94F82D1021
:100750008A420AD9A2EB010080B260832289A2EB0F
:100760000000626802EB400005E007D1E06828B1B4
:1007700084F82F60658301F091FF04E08A4202D182
:1007800084F82F606583404601F0A2FF2248001DD7
:1007900006604FF48877384601F092FF48B138463A
:1007A00001F096FF257402208DF80000216868464C
:1007B00088474FF48A77384601F082FF28B13846DF
:1007C00001F086FF2574BDE8FE834FF000484FF42A
:1007D0008C7967691DE000BFB7FA87F028FA00F14D
:1007E00009EB80058F43284601F06AFF88B128464F
:1007F00001F06EFFA5F58C75E8088DF8040045F34F
:100800008000401C8DF800608DF805002168684666
:100810008847002FE0D1D6E7007000404801002053
:1008200002F0D6BCF0B5B5480023021D0178101DBA
:1008300001254FF0805406290BD11678360708D1D0
:100840000678C6F30316032E06D0042E04D0052E18
:1008500002D0062907D00EE0B4F82463A84FC6F3EF
:1008600004263E6002E01678360704D10678C6F307
:100870000316032E02D0062904D00FE0A24FA14E8A
:100880007E670EE01678360708D10678C6F30316A1
:10089000032E06D0042E04D0052E02D0062907D040
:1008A0000EE0D4F84462994FC6F342363E6002E04F
:1008B0001678360704D10678C6F30316032E02D045
:1008C000062906D011E0924E376827F0807737600E
:1008D0000EE01678360708D10678C6F30316032E05
:1008E00006D0042E04D0052E02D006290AD011E02D
:1008F0004FF08046C6F80C31C6F81031834E361FD3
:10090000336002E01678360704D10678C6F3031682
:10091000032E02D0062905D00CE07C4F0326643755
:100920003E600AE01678360704D10678C6F303164F
:10093000032E02D006290DD014E0764F05263E6026
:10094000744E78363560734E083633603F263F1D4F
:100950003E6002E01678360704D10678C6F3031627
:10096000052E02D0062957D062E06B4E36686B4FD9
:100970003E60694E361D36683F1D3E60664E083645
:1009800036683F1D3E60644E0C3636683F1D3E6043
:10099000614E103636683F1D3E605F4E1436366835
:1009A0003F1D3E605C4E183636685C4F20373E6017
:1009B000594E1C3636683F1D3E60574E203636680D
:1009C0003F1D3E60544E243636683F1D3E60524EF9
:1009D000283636683F1D3E604F4E2C3636683F1D28
:1009E0003E604D4E303636684C4F40373E604A4E82
:1009F000343636683F1D3E60474E383636683F1DF8
:100A00003E60454E3C3636683F1D3E60424E4036A5
:100A100036683F1D3E6002E01678360708D106783A
:100A2000C6F30316032E06D0042E04D0052E02D0E2
:100A3000062907D019E0D4F85812394A01F04F01BD
:100A4000116002E0117809070FD10078C0F303109C
:100A5000032803D0042801D0052806D131480168B5
:100A6000C90702D06FF001010160D4F830010628F7
:100A700008D1D4F83401062804D12B48016841F488
:100A80008061016022487438016841F4700101609E
:100A9000BFF34F8FBFF36F8F4FF01021D1F80002DB
:100AA000002803DBD1F80402002822DA1F4A15606F
:100AB0001F480468002CFCD01524C1F800420568CA
:100AC000002DFCD0C1F8044201680029FCD013605D
:100AD00001680029FCD0BFF34F8F0D48F038016842
:100AE000144A01F4E06111430160BFF34F8F00BF6E
:100AF000FDE7124910480860F0BD0000E00F00F06B
:100B0000403501400DF0ADBA00C007403C05004043
:100B1000FCED00E0105600400404001020C5004029
:100B2000E40E0040000400403C17004004E5014092
:100B300000E401400400FA050090D00320010020E9
:100B400004220249024800F0F9BC000078010020AC
:100B50000090004004220249024800F0EFBC00006F
:100B60008401002000A00040014800680047000008
:100B70007C00002002E008C8121F08C1002AFAD138
:100B800070477047002001E001C1121F002AFBD10D
:100B90007047000072B601F093FC00BF01F0DEFA6E
:100BA0000028FBD111481249401AC408012000EB6B
:100BB000044010A101F0EAFB11480068C00700D012
:100BC00000BE022000EB04400EA101F0DFFBBFF3EA
:100BD0004F8F0B48E43801680E4A01F4E06111437D
:100BE0000160BFF34F8F00BFFDE700007C390000BC
:100BF00034390000466174616C206572726F720056
:100C0000F0ED00E053797374656D2072657365745F
:100C1000000000000400FA050EB500210091CDE9A6
:100C200001106A4644F20100FFF7B4FF0EBD000058
:100C3000074B9B7823B12AB120B10068037C1BB11C
:100C400008207047072070474174426100207047B8
:100C5000E001002070B502F07BF9104800240B2160
:100C6000047044700E4D817014206C602C706C7098
:100C7000FFF7C3FC06211420FFF7E0FC1420FFF768
:100C8000C7FC0848046006211120FFF7D7FC05487F
:100C9000001F0068A860002070BD0000E001002077
:100CA00084000020081501402DE9F843DFF870901A
:100CB00099F802305BB350B3052902D20720BDE892
:100CC000F88343691BB3437C012B22D000270446E1
:100CD000002588461646284600F026F8684602F0A9
:100CE00023FDC0B1012101700E4944600968C0E9CB
:100CF0000218C0E904769DF8000089F80100002080
:100D000000F014F81420FFF78EFC2846D7E70820DF
:100D1000D5E70F46DBE70425002000F007F8F4E7ED
:100D2000E00100200415014000F002B800F008B80E
:100D300072B602480168491C0160704798000020A3
:100D400003490868401E086000D162B67047000081
:100D5000980000202DE9F041064608680C46411C29
:100D60004FF0A0474FF0010506D005FA00F1C7F893
:100D70000815206801F0F8F86068411C02D00021D5
:100D800001F0E0F83168A069C1F82405607D227D9A
:100D900031681043C1F86C05D4E900123068C0F81E
:100DA0001425C0F80C15207D012815D1A068411C20
:100DB00002D0002101F0C6F8E068411C05D0854052
:100DC000C7F80855E06801F0CFF8D4E9021230689E
:100DD000C0F80825C0F81015BDE8F0812DE9F041F4
:100DE000064608680C46411C4FF0A0474FF001052D
:100DF00006D005FA00F1C7F80815206801F0BEF822
:100E00006068411C02D0002101F0A5F83168A0699A
:100E1000C1F82405607D217D32680843C2F86C0565
:100E2000D4E900123068C0F80C15C0F81425207DF4
:100E3000012815D1A068411C02D0002101F08BF8D7
:100E4000E068411C05D08540C7F80855E06801F00E
:100E500095F8D4E902123068C0F80825C0F81015DA
:100E6000BDE8F0812DE9F0470546861C90460F4607
:100E70004FF001090020FFF757FF1B4C2068386036
:100E8000D4E90001401AA16804F21C47081A0EE0D8
:100E90000121384600F00EFD00F0FAFB014638460D
:100EA00000F008FDD4E90001401AA168081A401CAE
:100EB0008642EDD8B8F1000F03D0052065F3891004
:100EC00002E0062065F39F50A2682168114004EB00
:100ED0008101C8602068304420600020FFF726FFB1
:100EE0004846BDE8F08700001C05002070B50D469F
:100EF00004460A2902D10D21FFF7F8FFA0682268F5
:100F0000411CA1601554D4E90101814204D320465B
:100F1000BDE8704000F0E7BE70BD0000034803C8A4
:100F2000814201D101207047002070471C0500203C
:100F30000348017FB1FA81F1C1F11F014176704789
:100F40006403002070B5491C114AC9B202EB410389
:100F500032F8115033F8022C5C88AE1833198E1E0B
:100F600072434E1E05FB062204FB01218289807B11
:100F7000521E401E5143584301EB5001B1FBF0F0AB
:100F8000401C84B228210248FFF7E5F9204670BDD5
:100F90003C03002070B5084C050009D010342168CE
:100FA000002907D008682060496828468847F6E786
:100FB0000834F4E770BD000034010020054A012127
:100FC00020B1012805D19170FFF7E4BF51700020D6
:100FD000FAE770473401002010B50446084822584B
:100FE000002A0CD0D0F80403084208D0204600F0B4
:100FF000D9FC044920464968BDE81040084710BDA7
:1010000000300140740000202DE9F05F264841685F
:10101000F1B3DFF898B00E688146DBF800408768CE
:101020008078E11B21F07F45ED1CB0B9DFF88080AE
:101030004FF48030C8F84403C8F804031120FFF7C8
:10104000DCFA1120FFF7E4FA4FF0010AC8F800A01B
:101050002F2001F0B5FB89F802A0B54200D2354639
:10106000124BE8193C3320F07F401860DBF8001089
:101070005A46091B21F07F41001B20F07F40C91C0C
:1010800081420FD9106818602F2001F099FB00E011
:1010900004E0BDE8F05F1120FFF7C5BABDE8F05FDE
:1010A00001F056BFBDE8F09F840000200415014008
:1010B0000010014038B5114C0546E07E00F068FF95
:1010C000607E04EB40000581ADF80050607E8DF835
:1010D0000200207F627E012191408843207702D167
:1010E000207607490860616868468847207F0028A5
:1010F00003D0FFF71DFF00F083FD38BD640300201F
:10110000007500402DE9FE43434D817801262A7F7A
:1011100006FA01F31A427CD005EB41010088888170
:1011200000F068FD002874D13C48A5F110074FF08D
:10113000000844685FE0E07BC0B30194D4F804C0C9
:10114000002000BF05EB40018A8937F81010A1F19B
:101150000F039A4202DB0F318A4201D9002012E0CC
:10116000401CC0B20828EDD344E000BF9CF8071033
:10117000BCF8042005EB41018989914201D9012085
:1011800004E0DCF800C0BCF1000FEFD1217C71B1AC
:101190000028A07B1CD001282CD9204600F0D6F8CE
:1011A000ADF8080004208DF8000020E022E008B32C
:1011B000A07B012808D9204600F0C8F8ADF8080047
:1011C00002208DF8000001E08DF8008026740EE00A
:1011D000012808D9204600F0B9F8ADF8080003202E
:1011E0008DF8000001E08DF8006084F81080296817
:1011F000684688472468002C9DD107482821203064
:10120000FFF7A9F8044910220C31A1F11C00FFF7E7
:1012100089F8BDE8FE8300001C0300209C0000202C
:1012200003480079022801D100F0EABC70470000B1
:101230001C03002010B50021024800F046FB80F39B
:10124000100010BD380900200E4910B50A784C78FE
:101250000023A24212D0521CD2B20A70022A00D13C
:101260000B70084A0B780C3252F823200260886811
:10127000104420F07F408860012010BD03600020F2
:1012800010BD0000840000202DE9F043034600203B
:1012900002462D4E02244FF00109596851E0CD79E4
:1012A0008F79D3F808C006EB450504EB8707AD89B5
:1012B0003CF80780A84501D92CF807508F79D3F85E
:1012C00008C03CF82780A84501D22CF827508D791A
:1012D0009F6804EB850837F825C037F80870BC45CF
:1012E00023D9ACEB070C1FFA8CFCBCF1000F1CD00F
:1012F00091F8078006EB4808B8F80C80A8EB0707C0
:101300004FF47A7807FB08F7B7FBFCF7DFF838C033
:10131000BFB20CF1200C0CEB450597426F8008D949
:101320008D793A4609FA05F00AE04FF00000BDE871
:10133000F08305D13A468F7909FA07F545EA0000AE
:1013400009680029ABD1F2E71C0300202DE9F04722
:101350008146FFF799FF02004FF6FF703CD05142E3
:1013600032EA010108D00026044631464FF0010858
:101370001A4F99F80E5021E0B2FA82F0C0F11F0026
:1013800080B223E008FA01FC1CEA020F14D007EB3C
:10139000410C37F81130BCF804C05CFA83F3DBB2BF
:1013A00021B1A5F1010C8C4500D05B08462B03D977
:1013B000B34201D91E460846491CC9B28D42E1D844
:1013C0000749A04201D1088800E00880C1B2484620
:1013D000BDE8F047FFF7B6BDBDE8F0873C0300204D
:1013E0009C0000202DE9FC5F0E008346DDE90C47E0
:1013F000C6F1000098469246814600D40846012571
:1014000003E000BF90FBFAF06D1C5045FADAA845E6
:1014100000D9454624B1002E01DB780700D5641EB3
:10142000B80702D5B8F1000F0AD0F80708D13CB1CF
:10143000A54205D220215846641EFFF757FDF6E766
:10144000002E02DA4E462D2102E0780703D52B212B
:101450005846FFF74BFD07F0030002280BD1B8F107
:10146000000F08D13CB1A54205D230215846641E78
:10147000FFF73CFDF6E7CDE90047434652463146CB
:10148000584602F0F7F8BDE8FC9F000070B50D4625
:10149000044600684FF4887101F040F94FF49071F0
:1014A000206801F03BF94FF49271206801F036F9A1
:1014B0004FF4A271206801F031F920681149C0F899
:1014C00004132068690740F30730090E002806DA84
:1014D00000F00F0000F1E02080F8141D03E000F19F
:1014E000E02080F800142068012140F3073000F06C
:1014F0001F0291404009800000F1E020C0F8001177
:1015000070BD00001003020002460020126853075D
:1015100013D502F00300012802D002280CD105E007
:10152000C2F383100B68801C184404E0022308688F
:1015300003EB925210440860012070472DE9F041FE
:10154000174688460646002417E000BF4FF4A070F7
:1015500000EB84054FF480307159A04059B1D6F8A2
:101560000413014207D02946304601F0BBF8D8E900
:10157000002128469047641CE4B2BC42E6D3BDE893
:10158000F0810268134602E08A4204D01268002A01
:10159000FAD10B60016070472DE9F047394E002702
:1015A00080463D46DFF8E090D6F804A057E003D02F
:1015B0000446D0F81C8035E099F8002002EB420187
:1015C000521CD2B289F8002009EBC10199F802300F
:1015D000091D9A4201D189F8005048680A780446EA
:1015E000012A12D0022A02D0032A3BD108E001F0DE
:1015F0004DFE00B10127257434E00574C06900E098
:1016000070680028F9D170602CE0207C50BB88689D
:101610006060C868A0600869E0604869A061F0780F
:1016200000B165606268B168184B501A20F07F40C5
:10163000984202D2A168084406E0881AA16820F006
:101640007F40814202D9081A206000E02560656071
:101650000120A56020742046E56101F0F9FDB8F194
:101660000000A4D199F8001099F801008142A3D19B
:1016700017B97168514502D00120BDE8F0870020FC
:10168000FBE7000084000020E0010020FFFF7F0056
:101690002DE9FF410026234800F009F92148001FE9
:1016A000074600F004F9204C60680090A56800E04F
:1016B00000986946284004EB80000C30FFF724FFB7
:1016C0000028F5D101AA009901EA050304EB830380
:1016D000491CDB6842F82030401C00910228F2D3FC
:1016E000019800F0030001280BD0022810D10198C6
:1016F000032101EB90500099BDF80A6001EB9000C6
:1017000005E00198BDF80A60C0F38310084400901A
:10171000384600F0C9F808B10098606004B030465F
:10172000BDE8F081340900201C0500204FF4004181
:10173000002000F08FFE08B1FFF76EFA00F000FD08
:10174000FFF788FA08B1FFF767FA00F0E7F910B180
:10175000FFF762FA02E0002000F0FAF91648174994
:10176000401AC008032101EB004015A100F00EFE55
:1017700040F266611D4800F0ADF908B1FFF74CFA80
:101780001B48811C486118311A484861A1F11800B2
:1017900000F012F908B1FFF73FFA15481A3000F0CF
:1017A0000BF908B1FFF738FAAFF3038000F0D6FC6D
:1017B0000028FBD1F8E700007C3900003439000034
:1017C000436170616369746976652073656E7369DE
:1017D0006E67206C696272617279206578616D70E4
:1017E0006C6520737461727465642E003D1A00008C
:1017F0000A000020FD3000002DE9F047C5881E1DBD
:10180000B6FBF5F78946B6FBF5F1044605FB176C08
:10181000407916686843DDF820A0F718001F87425A
:1018200000D9C61A166001E02468491E0029FBD1C0
:10183000A5EB0C078846B74216D818E004EB0C005D
:10184000001D09EB0803BAF1000F3A4602D0014629
:10185000184600E01946FEF765FD2468F61B4FF0B8
:10186000000CB844B54201D9374600E02F46002E9F
:10187000E4D1BDE8F087000030B5024651B100F078
:1018800007FE0021074C08E034F821301568AB4210
:1018900002D11160002030BD491C8142F4D30520E3
:1018A00030BD000000000000002100F009B8012157
:1018B00000F010B808B56A46FEF7DFFC009808BDD6
:1018C00008B56A46FEF7BFFC08BD08B56A46FEF7D4
:1018D000A1FC08BD08B56A46FEF7A8FC009808BD43
:1018E00008B56A46FEF7D6FC009808BD70B50446F8
:1018F00000252846FFF718FA2168626808689042B8
:101900000ED9401E08600178238AE26801FB032596
:10191000227A2168101AC0B20A79824200D2087174
:101920000020FFF703FA284670BD70B505460C4647
:101930000020FFF7F9F9E868298A201AB0FBF1F1D5
:101940002A681068431C13600170BDE870400020D5
:10195000FFF7ECB910B530B1017A42680368891A13
:10196000C9B21A6006E00E2010BD03681A68541C44
:101970001C601170491EC9B2F7D2006800210171C4
:10198000084610BD00F180400068002800D001200A
:10199000704708B500F180400021016000680090A8
:1019A00008BD0000034908B5084400220260006831
:1019B000009008BD00300140044900E011460A686B
:1019C000002AFBD1086000F003B80000A00000204E
:1019D0002DE9F041174C05460026207F38B91648FE
:1019E0000022A1684068FFF75FF900281FD101229B
:1019F000EA7302274FF6FF7E686811E08379A968D1
:101A000007EB830321F803E090F807C0237F02FA75
:101A10000CF10B4203D10E430B43F6B2237700685F
:101A20000028EBD12771304600F0B6F80020BDE861
:101A3000F08100001C030020683700001749184B94
:101A40000278C91AC908052A20D2DFE802F0250366
:101A5000252512004068134A90421DD14069028832
:101A6000521C92B20280032000EB01400EA100F054
:101A700091BC0C4A4168183291420DD10089A0F501
:101A80007F42FF3A08D04A6902211047022000EB4A
:101A900001400CA100F07ABC704700007C390000C6
:101AA000343900000C000020427574746F6E20748D
:101AB0006F756368656420253033642074696D65D3
:101AC000732E0000556E6B6E6F776E206576656EB7
:101AD000742E000010B50C4C0D4AA1600B4920601B
:101AE0000020486001210B48FFF7A2F8002809D127
:101AF00008480949001F00F05DF8002802D10120C4
:101B00002071002010BD00001C0300209C0000205C
:101B1000211200006C3700000511000070B50A4C5E
:101B2000207808B185250CE00020A060606020616D
:101B3000E060064800F00EFE054600F0F5FD0120CD
:101B40002070284670BD000034010020BD0F000049
:101B500070B5104D0446A87838B114B16168012001
:101B600088470020FFF7E0F80CE00020FFF7DCF8E2
:101B700024B1084821461030FFF703FDE86808B992
:101B800000F0F8FDE868401CE860BDE87040002007
:101B9000FFF7CCB834010020054901220A76022261
:101BA0000A708A7E02438A76002008767047000019
:101BB0006403002070B50D46C0B1BDB10C4C0021CE
:101BC00021760078E0764FF0A04202EB80000321FE
:101BD000C0F80017E07E00F0DBF9656001F046FA1E
:101BE000002802D101202070002070BD072070BDA8
:101BF000640300200148007E704700006403002059
:101C000070B5144CA07E10B3207F012550B9124846
:101C10000560207E08B1112070BD2576A07E20775A
:101C2000FFF786F9607E0D49401CC0B2C8710C49AF
:101C30000022C1F81425C1F81005E07E4FF0A04144
:101C40008540C1F80C5500F0DFFE0028E4D10020EB
:101C500070BD00006403002000750040A600002055
:101C600000700040F0B505460478154889B0164666
:101C700040F82420124A0869121DA2F1080742F810
:101C80002400487F385520226846FEF74BFB049419
:101C90002878385C48B10EB10A4A00E00022694653
:101CA000281D00F0FBFF09B0F0BD0EB1064A00E0B0
:101CB0000022694605F10C0000F0C4FEF3E70000C5
:101CC00064000020513500009D3300000FB408B5BA
:101CD0000399002904D004AA00926A4600F00FF884
:101CE00001B05DF814FB10B582680446002A05D0E7
:101CF000D4E90403216898470020A06010BD2DE9B5
:101D0000FC4791460C00804676D014F8011B39B18F
:101D100025290ED04046FFF7E9F820780028F4D1B5
:101D200098F80C00002867D04046BDE8FC47FFF754
:101D3000DABF0020012221782B291BD02D2902D0C7
:101D4000302908D102E040F0010001E040F002003B
:101D5000641C002AEFD100252A290ED02178A1F198
:101D600030020A2A11D205EB850201EB4205641C00
:101D7000303DF1E740F00400EAE7D9F800100B1D10
:101D8000C9F800300968641C0D44217800232E290D
:101D90000BD114F8011FA1F130020A2A05D203EB7E
:101DA000830201EB4203303BF3E76C290DD0682935
:101DB0000BD0692921D00BDC252918D0582931D026
:101DC00063290ED0642915D117E014F8011FECE740
:101DD000702969D0732932D075291BD0782909D18F
:101DE00020E0D9F80000011DC9F800100178404634
:101DF000FFF77CF8641C90E76CE0D9F800100A1D2E
:101E0000C9F800200968CDE900500A224046FFF7D2
:101E1000E9FAEFE7D9F800100A1DC9F800200968AF
:101E20000A2206E0D9F800100A1DC9F80020096846
:101E30001022CDE90050404601F01CFCDAE7D9F849
:101E4000001000270A1DC9F800200E68C00705D140
:101E500012E04046761C7F1CFFF748F831780029D5
:101E6000F7D104E0202140466D1EFFF73FF8BD4248
:101E7000C0D9002DF6D1BDE74EB13046FEF776FA57
:101E8000074604E0202140466D1EFFF72FF8BD42B3
:101E900006D9002DF6D103E04046761CFFF726F860
:101EA00031780029F8D1A5E7D9F80000011DC9F85B
:101EB0000010056830214046FFF718F878214046A9
:101EC000FFF714F808200021CDE900010346102295
:101ED0002946B0E7BDE8FC8770B541EA4201DDE97B
:101EE00004564FF0A04441EA830141EA052104EB86
:101EF000800041EA0641C0F8001770BD70B541EAA4
:101F00004201DDE904564FF0A04441EA830141EA71
:101F1000052104EB800041EA0641C0F8001770BDBE
:101F20001CB5002100910B4601220191FFF7D4FF5F
:101F30001CBD1CB5002100910B4601220191FFF749
:101F4000DDFF1CBD1CB500220B460092114601921C
:101F5000FFF7C2FF1CBD1CB500220B4600921146C4
:101F60000192FFF7CBFF1CBD1CB5002100910B4671
:101F7000012201911146FFF7AFFF1CBD1CB50021E6
:101F800000910B46012201911146FFF7B7FF1CBDDE
:101F90004FF0A04201218140C2F8081570470000AF
:101FA00030B5154A01460020D2F8104423460AE015
:101FB000DB681D79854205D1401C0A28F6DB4FF00D
:101FC000FF3030BD1B68002BF2D1431CF9D0CB6829
:101FD0001871D2F8103443B1DB68CC681B682360F9
:101FE000D2F81024D268116030BDC2F81014C9684C
:101FF00000220A6030BD00001C050020F0B595B03D
:102000001C4615460F4608461A9E00F013FB182181
:1020100009A8FEF7A0F90E96CDE90954002308227D
:1020200003A9384600F01BFB05980690BDF8100088
:10203000ADF81C00BDF81200ADF81E0000208DF8B0
:1020400021000398082600F00300012802D002288E
:1020500018D032E003983346850AC0F3C2008DF8E9
:10206000200003980FA9C0F38314A200384600F0A3
:10207000F6FA09A8009006AB22460FA9284600F000
:1020800035FA1AE00398840DC0F3C2008DF82000E1
:10209000082C01D2254600E0082533462A460FA920
:1020A000384600F0DCFA2E44641B09AB06AA294628
:1020B0000FA800F077F9002CEAD1384600F0C0FAFA
:1020C00015B0F0BD7047012001F086B9084810B581
:1020D0000178084A515C19B1001D00F06BFE02E066
:1020E0000C3000F079FDBDE81040002001F074B91B
:1020F000B40000206000002008B5034A009240238D
:10210000024AFFF77BFF08BDBD30000084030020BA
:102110000A4A012902EBC00007D0022907D003298F
:1021200007D0042907D00020704702207047042000
:1021300070470079704740797047000034390000DB
:1021400010B5FFF7C0FF04210348FFF729FF02493C
:102150000120C968487110BD243900002DE9F047FD
:102160008CB0FEF7DBFE18B100200CB0BDE8F087A4
:102170007D4C0020C4F81804BFF34F8F60680290B4
:10218000A5684FF00008284004EB80000CE000BF79
:10219000D4F8180470B921680298814201D86160AE
:1021A000E2E7284004EB80000C3002A9FFF7ACF90D
:1021B0000028EDD1002003AA029901EA050304EBEF
:1021C0008303491CDB6842F82030401C029102283E
:1021D000F2D3039800F00300022802D001284DD06A
:1021E000A7E003985022810D8946B2EB905F00D89A
:1021F00050210E4666F39F50039008315B4800F073
:10220000D0F9070078D000F015FA4346082203A958
:10221000384600F02CFA029908F1080A2940681A99
:102220008000001D864222D94F4D0C3530B1C2B21C
:1022300004EB8101301A90460C3104E02946F2B2D9
:10224000002590462846C6B25346384600F00FFA9D
:102250000AEB080325B132462946384600F007FA52
:10226000029909F1030001EB900002903BE004EBBE
:1022700081015346324638460C31EFE70398C0F3EC
:102280008310062800D30620039960F38911C1F357
:102290008310801C03918100344800F082F907000C
:1022A00047D000F0C7F94346082203A9384600F09A
:1022B000DEF908F1080800260FE00298434600EA1C
:1022C0000501401C04EB81010290042238460C31C8
:1022D00000F0CDF908F10408761C0398C0F38310D0
:1022E000B042EAD847B1D4F81054D4F8180478B101
:1022F000384600F0A5F931E01BE0E8684079012894
:1023000004D12A682846394612689047E86805686B
:10231000002DF2D1384600F093F90020FEF704FDBD
:10232000D4F8180408B9029860600020FEF7FEFC9B
:1023300014E0D4F8104405E02168204689688847F5
:10234000E0680468002CF7D109480A49401AC0081F
:10235000022101EB004008A100F018F8FEF7DEFDB5
:1023600080F0010001E700001C0500208439000016
:102370007C390000343900004261636B656E647320
:1023800020666C75736865640000000000231A46BF
:1023900000F0D8BE08B5012300926A4600F0D2FED4
:1023A00008BD00002DE9F0470E4680461C469246C7
:1023B000082940D894F80C90002020731946104644
:1023C00000F06EFD0025B54206D218F805201BA1CD
:1023D0002046FFF77BFC03E01AA12046FFF776FCBE
:1023E0006D1C082DEFD318A12046FFF76FFC0025C8
:1023F000B54212D218F805707E2F08D8FDF78EFF6F
:102400000068C05D10F03E0F01D03A4600E02E2279
:102410000EA12046FFF75AFC03E00DA12046FFF76E
:1024200055FC6D1C082DE3D301222146504600F0D7
:1024300019FD84F80C90BDE8F087000020253032AB
:1024400078000000202020007C00000025630000B0
:10245000200000000B4810B5FF21816000210160C1
:102460004160C0F81814C0F8141480F8201406480D
:1024700000F0E4F8002803D1044800F000F900203F
:1024800010BD00001C05002084390000B03700009A
:1024900002480349401AC008704700008439000010
:1024A0003439000013B56846FFF7E6F908B100209B
:1024B0001CBD0248009950F831001CBD34390000A1
:1024C00070B509480125D0F8104480F8205407E081
:1024D000E06845712168204649688847E0680468DB
:1024E000002CF5D170BD00001C0500202DE9FF4730
:1024F00081460C9D00200C462F7B2873984616467B
:102500002946184600F0CCFC072E42D2DFE806F040
:1025100004090F161F2A360049462846FFF7D6FB46
:1025200037E0494628462268FFF7D0FB31E0D4E97E
:10253000002349462846FFF7C9FB2AE0A06800901F
:10254000D4E9002349462846FFF7C0FB21E0D4E93F
:102550000201CDE90001D4E9002349462846FFF7EE
:10256000B5FB16E004F1080007C88DE80700D4E9C0
:10257000002349462846FFF7A9FB0AE004F10800BA
:102580000FC88DE80F00D4E9002349462846FFF71D
:102590009DFB00222946404600F064FC2F73BDE8F5
:1025A000FF872DE9F041058A80462D1F4819C01C80
:1025B000B0FBF5F0C6B24046FFF798F9041E19D0FB
:1025C0000020207101206071E58000272546761EDD
:1025D000C4F800800BE04046FFF788F960B16179EC
:1025E000491C6171286005467F1CC0F80080B74215
:1025F000F1D32046BDE8F081204600F002F800202B
:10260000F8E72DE9F041457901466B1E002201E013
:102610000968521C9A42FBD30F680146002605E068
:1026200038460C68FFF781F92146761CAE42F7D395
:10263000BDE8F0810121001DFFF73CB9FFF78AB921
:1026400010B504460121001DFFF74AF910F0FF0FF5
:1026500004D12046BDE81040FFF7D3BF10BD1CB524
:1026600001920122009201AAFFF7C6F81CBD1CB519
:1026700001920022009201AAFFF7BEF81CBD8268F9
:102680000021916082681161826851618268D16025
:10269000826851608068016070470000024A1060E3
:1026A000101D0160704700002C76004003010348B4
:1026B0001844C0F81425C0F8101570470070004089
:1026C00002494058002800D00120704700700040A7
:1026D000034908B50844002202600068009008BD64
:1026E0000070004008B5002242504058009008BDDC
:1026F0004058002800D00120704708B50022425001
:102700004058009008BDD0F80403084000D00120D4
:1027100070474058002800D00120704708B50022BB
:1027200042504058009008BD08480068012110F050
:10273000010F06D14FF0E020C02280F80024C0F83D
:1027400000110349012008607047000000E100E02B
:10275000180500400649024600200B790BB1852080
:1027600070470A6001220A7100224A717047000016
:102770006C00002070B54FF48270FFF70AF9022058
:102780004107C1F804030B4B196841F080701860D1
:102790000948026842F00104046044684FF40A5595
:1027A0004668361BAE42FBD3026019600349012024
:1027B000086070BDFCED00E0001000E00800004083
:1027C000002802D0014980010847704761370000A6
:1027D0000121B1EB507F01D10120704700207047EB
:1027E00070B50D4600F0A8FB04000FD00020FEF7E6
:1027F0009BFA207920B10020FEF798FA112070BDD5
:102800000120256020710020FEF790FA002070BDA5
:1028100010B500F091FB002802D000210160017189
:1028200010BD00002DE9F041254C064612200D4652
:10283000C4F808032348017C022918D0027C014611
:102840004FF4807891F82E10012A12D00222C4F899
:10285000042301270774466005810022C26021B36A
:10286000458390F82D103046FFF718FF25E0122021
:1028700002E0C2682AB10220C4F804031120BDE8B6
:10288000F081C660058361B947463846FFF718FFF7
:102890000028FAD03846FFF71BFF29463046FFF7DD
:1028A000FDFE0220C4F8040307E029463046FFF786
:1028B000F5FE4046FFF70CFF27600020DFE7000031
:1028C000007000404801002070B50C4626490A7C83
:1028D0000AB1112070BD2279244D0AB1012A01D11B
:1028E00000222A6001EB4002137F1BB911F82D3F33
:1028F0005B1C0B70E1791177217A5177217862782E
:10290000302301F0030103EA02121143A2784FF4CD
:10291000E06303EA02221143E2784FF4805303EAB2
:102920000232114322794FF4E02303EA02421143B9
:1029300062794FF4801303EA02521143A2791B011A
:1029400003EA02620A4B114303EB0012C2F81815A6
:10295000227AE179FFF7AAFE207908B1012801D196
:1029600001202860002070BD480100200075004053
:10297000007000402DE9F0411F4C054694F82C00F2
:1029800010B10820BDE8F08144F8101B1B492878DD
:102990000860091D68780860E878A0770127277724
:1029A0000020207060776060154EE0776FF0004087
:1029B000C6F808034FF48270FFF78AFEB015FFF7E0
:1029C00087FE4FF48A70FFF783FEA8780D49400117
:1029D00081F800048020C91FC1F800010220C6F858
:1029E0000403A07F10B10120C6F804030348F038A7
:1029F00007600020C6E7000048010020F075004095
:102A00000070004007E000E0084900200A7C012A2D
:102A100001D00820704791F82E30054A01210BB1F2
:102A200011607047024A121DFAE7000048010020B9
:102A3000007000400149024800F0F6BC90010020FF
:102A4000002000402DE9F0410546007916460F466A
:102A500000EB40012C4A01EBC00102EB810494F829
:102A60002A1011B10820BDE8F081284951F8201042
:102A70002868FFF7B5FE08B11120F4E7394628466B
:102A8000FEF768F966603869206030004FF0010693
:102A90002DD03F7F4FF48E712868FFF72EFE4FF444
:102AA000A2712868FFF729FE28681949C0F80413A5
:102AB00028684FEA471140F30730002806DA00F093
:102AC0000F0000F1E02080F8141D03E000F1E02089
:102AD00080F80014286840F3073000F01F0106FA60
:102AE00001F14009800000F1E020C0F800112868E1
:102AF0000421C0F800150020A061E06184F82900DD
:102B000044F8140FA675AEE7900100205837000076
:102B1000800002002DE9F047054600790B4600EBE6
:102B2000400101EBC000234901EB8004284600F07E
:102B300043F810B11120BDE8F0874FF00008C4F849
:102B40002080A360626184F828804FF48E76474627
:102B500031462868FFF7D1FD28684FF00109C0F819
:102B600008902146286800F0FBFB606800BBD5F8A0
:102B700000A00EE094F8280008B10F2716E03146B7
:102B80005046FFF7B5FD0028F4D02146504600F02E
:102B9000E7FB216A60698142F1D331462868FFF77B
:102BA000A7FD0028F9D02868C0F80C90C4F814805C
:102BB0003846C0E790010020007900EB400101EBAE
:102BC000C000044901EB80004069002800D00120CA
:102BD00070470000900100202DE9F047044600797D
:102BE0004FF0000900EB400101EBC000254901EB6B
:102BF00080072068C0F80095786880B12068224975
:102C0000C0F808132068012140F3073000F01F02CC
:102C100091404009800000F1E020C0F88011206858
:102C2000D0F80C25D0F81485D0F80865D0F81055E8
:102C30004FF0FF31C0F81415C0F80C152068C0F82B
:102C40000815C0F81015501C02D01046FFF768F99F
:102C5000B8F1FF3F02D04046FFF762F9681C02D08E
:102C60002846FFF75DF9701C02D03046FFF758F98F
:102C70002068FFF7CDFD87F82A90C7F80490BDE8DB
:102C8000F087000090010020840202000149024800
:102C900000F076BCBC010020002000402DE9F0418E
:102CA0000546164600790F46154A00EBC00102EBB7
:102CB000810494F8201011B10820BDE8F081114979
:102CC00051F820102868FFF78BFD08B11120F4E7B8
:102CD00039462846FEF782F86660386920601EB1E2
:102CE000397F2846FEF7D2FB28680821C0F8001576
:102CF0000020A061E0616061012184F82010DCE720
:102D0000BC0100205C3700002DE9F04704460E4668
:102D10000079204900EBC00001EB800517463046E2
:102D2000FFF756FD30B1204600F036F820B11120F3
:102D3000BDE8F0871020FBE76F61AE604FF490763E
:102D4000002731462068FFF7E9FC4FF4AC78414694
:102D50002068FFF7E3FC2068AA686969C0F8442589
:102D6000C0F84815206801218160686878B9B146CB
:102D700049462068FFF7CDFC064641462068FFF72C
:102D8000C8FC0643F4D000B10F2700206861384624
:102D9000CEE70000BC0100200079054900EBC0002F
:102DA00001EB80004069002800D00120704700003E
:102DB000BC0100202DE9F04704460079274900EBCB
:102DC000C00001EB800720684FF00009C0F80095B3
:102DD000786880B120682249C0F808132068012172
:102DE00040F3073000F01F0291404009800000F1DD
:102DF000E020C0F880112068D0F80C25D0F81485A8
:102E0000D0F80865D0F810554FF0FF31C0F80C1518
:102E1000C0F814152068C0F80815C0F81015501C2B
:102E200002D01046FFF785F8B8F1FF3F02D04046C8
:102E3000FFF77FF8681C02D02846FFF77AF8701C6D
:102E400002D03046FFF775F82068FFF7E1FC87F8FD
:102E50002090C7F80490BDE8F0870000BC01002076
:102E60001003020010B50C46017A052908D0407AFB
:102E700038B1084808A102682046FEF727FF00E0A5
:102E80001AB106A12046FEF721FF2046BDE81040FA
:102E9000FEF729BFFC000020257300000D0A00008A
:102EA00038B5C3880D46044633B114A0009015A26E
:102EB00016A12846FEF70AFF217A05291CD0607A60
:102EC00048B1A088FFF724F9164951F8202016A12F
:102ED0002846FEF7FBFEA0880021FFF7E3FA034631
:102EE0001049207A143951F8202001B02846BDE855
:102EF00030400EA1FEF7EABE38BD00001B5B306D0E
:102F0000000000001B5B313B33316D0025734C6FBB
:102F100067732064726F70706564202825642925AA
:102F2000730D0A00FC000020257300003C25733E51
:102F30002025733A200000000349884201D103484C
:102F40007047002070470000002000407C000020F7
:102F500070B5012670044FF0E0210025C1F8800112
:102F6000084C4010C4F84803C4F8080366602F20DA
:102F7000FFF726FCA660044C2F20A560FFF720FC7D
:102F8000A57070BD001001408400002070B505469A
:102F900088690C4600284FF4847128460AD0FFF750
:102FA000ACFBD5F81805626AE1688854606A401C79
:102FB000606270BDFFF7A1FBD5F8180570BD1FB5A5
:102FC00001238DF80030CDE90121D0E900126846D7
:102FD00090471FBD1FB501238DF80030CDE90121B9
:102FE000D0E90012684690471FBD000010B50446A6
:102FF0001548C07EFEF7CCFF01216068FFF712FC88
:103000006068B0F90000FDF72AFA9FED101B53EC41
:10301000112BFDF7B2F99FED0F1B53EC112BFDF7B0
:10302000ACF99FED0E1B53EC112BFDF7A6F99FEDAC
:103030000D1B53EC112BFDF7A0F9FDF721FABDE8AC
:10304000104080B2FEF736B86403002033333333C8
:103050003333E33F0000000000408F4000000000D9
:1030600000000840000000000000503F0E4910B56D
:10307000032088700D490E48FFF77CFC70B90D489D
:10308000C07EFEF785FF08490020FFF71DFC28B928
:1030900005480121801EFFF7C5FB08B1032010BDC4
:1030A00005490020086010BDA6000020ED2F00009B
:1030B00070370000640300200075004070B50D4CAF
:1030C0000020D2B22070201D0B4D0378EB5C1BB1A9
:1030D000001DFFF719FE02E00C30FFF71BFD08B1E1
:1030E000FDF79AFD6078002802D021780029FAD0F7
:1030F00070BD0000B00000206000002070B5094DD8
:1031000004462888A0420BD0074808492246401AA6
:10311000C008032101EB004005A1FFF73BF92C801B
:1031200070BD0000080000207C3900003439000028
:10313000536C696465722076616C75653A20253040
:1031400033642E002DE9F84F204D924689460646FD
:103150009846012269461846AF68FDF783FE58B3CA
:10316000009800210446801C09E000BF00EA070324
:103170005AF8212005EB8303401C491CDA604145C5
:10318000F4D34FEA164AFEF755F84AEA0041601CAC
:10319000384005EB80003C4005EB8402C160D068FC
:1031A00066F3C50068F3891069F39F2020F00300DF
:1031B000401C20F00400D06095F8200402E000BF1D
:1031C000FEF7CCFF0028FBD1BDE8F88F1C050020DE
:1031D0002DE9F84F1D4C00256846D4E901A6FEF7FD
:1031E00033F8002738B30023009A61681CE0D1F857
:1031F00000C00846944503D9ACEB02020A6015E012
:10320000A2EB0C0263440760D0F80CC0C169814690
:10321000BCF1000F08D006EB030828F07F48C0E996
:10322000018CC9F81C5005460029E0D12846616090
:10323000FEF7B2F903E02846FEF7AEF910B15046AA
:10324000FDF7E2FEE770BDE8F88F00008400002083
:103250000D4B10B5596831B102680C68A24204D810
:10326000A21A0A60C161586010BD0B4603E00B460C
:10327000C969121B21B10C689442F8D3A41A0C60DE
:103280000260C161D86110BD840000202DE9F041C9
:10329000144E77683D462C4603E0844204D0254610
:1032A000E469002CF9D11BE0D4B1A5420BD1F86937
:1032B000706040B90C49012088600021B160F07055
:1032C0002F20FFF77DFA2168E069E86110B10268FC
:1032D000114401607068874202D00120BDE8F0818E
:1032E0000020FBE784000020001001402DE9F041A0
:1032F000194D6C68002C2CD0184800270068A9686C
:10330000B846401A20F07F462068B0420CD82146CB
:10331000361A0744E469087C20B181F81080886976
:1033200049698847002CEFD129786878814206D115
:10333000401CC0B26870022801D185F8018006489F
:1033400069780C3040F82170BDE8F0411420FDF799
:103350006AB9BDE8F0810000840000200415014036
:1033600070B50C4605464FF48E71FFF7C6F9216A19
:10337000A068415C206A401C2062C5F81C1570BD25
:103380001FB500228DF800200291816801914261F1
:10339000D0E90012684690471FBD00001FB50A46DD
:1033A00001788DF8001041680191017A8DF80810BC
:1033B000C0680390044850F82210001F50F82220E3
:1033C000684690471FBD00006800002001490120A9
:1033D00008707047B000002010B588B00446202265
:1033E0000E496846FCF79EFF06200090C01F019022
:1033F000029003904FF0EB7006900CB1084A00E089
:10340000002269460748FEF72DFC08B1FDF704FCD1
:103410000448001F447008B010BD00009037000041
:10342000CD330000B40000202DE9FF470C460546CF
:103430004FF40071FFF767F901274FF40178002678
:1034400018B34FF4927949462846FFF751F9E0B195
:1034500049462846FFF751F9C5F8088394F8290032
:1034600000B96F6002208DF80000D5F88004C5F81F
:1034700080040390A0690290E0680190A661E66173
:10348000D4E900126846904728E004212846FFF757
:103490003AF918B34FF484712846FFF729F9E8B1D7
:1034A00021462846FFF772FD616AA069884215D15E
:1034B000E06938B1E268616AA0612069E66166622C
:1034C000E06008E094F8290000B96F60C5F808834F
:1034D000A661E268616A2046FFF771FD4FF48E78BD
:1034E00041462846FFF704F978B1206A61698842AD
:1034F00002D294F8280020B341462846FFF7FDF891
:10350000616911B12046FFF73BFF4FF4A2784146B5
:103510002846FFF7EDF8002818D041462846FFF767
:10352000ECF894F8290000B12F60A06900280DD0B4
:10353000A661E268616A04B02046BDE8F047FFF783
:103540003EBD21462846FFF70BFFDEE7BDE8FF87BB
:103550001FB50A4601788DF8001041680191017A83
:103560008DF80810C0680390044850F82210001F1E
:1035700050F82220684690471FBD000068000020D8
:103580002DE9FF410C464FF4927706463946FFF786
:10359000C0F80025B8B139463046FFF7BFF8022021
:1035A0008DF80000D6F88004C6F880040390D6F8A1
:1035B0003C050290E0680190A561E561D4E9001244
:1035C0006846904723E04FF4887739463046FFF746
:1035D000A0F8E0B139463046FFF7A0F8D6F83C1520
:1035E000A069884213D1E06960B1E268D6F80002B0
:1035F00020F02000C6F80002E069A0612069E561C2
:10360000E06001E0A561E2682046FFF7E3FC4FF4CB
:10361000A27739463046FFF77CF868B13946304624
:10362000FFF77CF8A06938B1A561E561D6F83C15D3
:103630002046E268FFF7CEFC4FF4907739463046DB
:10364000FFF767F8002812D039463046FFF766F8D2
:10365000606900280BD0D6F84C058DF80050029018
:10366000A06801906561D4E9001268469047BDE802
:10367000FF8100002DE9F05F8346DDE90A4A9946A3
:1036800090460D460846012703E000BFB0FBF8F066
:103690007F1C4045FAD2B94500D94F465FEACA704F
:1036A00012D18CB15FEA8A7002D5B9F1000F01D056
:1036B000202607E0302605E031465846641EFDF717
:1036C00015FC0CB1A742F7D35FF00106B9F1010F69
:1036D00002D9A9F1010903E0B5FBF6F0404502D398
:1036E00006FB08F6F2E7DFF83C9000BFB5FBF6F00A
:1036F00000FB165519F800105846FDF7F7FBB6FB0E
:10370000F8F6002EF2D15FEACA7009D0002C07D07B
:10371000A74205D220215846641EFDF7E7FBF5E7D6
:10372000BDE8F09F743700000A494A788B78521C34
:10373000D2B2934200D100220B78934201D10020F3
:1037400070470270487800EB400001EBC000001D9C
:1037500070470000E0010020352A00008D2C000099
:103760000338FDD8704700001A000000EC0200206A
:1037700001000600303132333435363738394142B2
:1037800043444546F9200000CD200000C52000003C
:10379000FFFFFFFFFFFFFFFFFFFFFFFFFFFFFFFF39
:1037A00000000000000000000000D601060100003B
:1037B000840400207F0000000405002000404040F9
:1037C00040404040404041414141414040404040F4
:1037D00040404040404040404040404040050202A0
:1037E000020202020202020202020202022020205F
:1037F00020202020202020020202020202029090BB
:1038000090909090101010101010101010101010B8
:10381000101010101010101002020202020288880C
:103820008888888808080808080808080808080818
:103830000808080808080808020202024000000000
:10384000BD3700007761726E696E670064656275EE
:10385000670000001B5B313B33306D001B5B306D3C
:10386000000000001B5B313B33316D001B5B313BC3
:1038700033326D001B5B313B33336D001B5B313BDF
:1038800033346D001B5B313B33356D001B5B313BCB
:1038900033366D001B5B313B33376D00696E666FED
:1038A000000000006572726F72000000636C6F634D
:1038B0006B000000434C4F434B000000434F4D5002
:1038C0000000000050504900505253005341414401
:1038D0004300000054494D455200000055415254E8
:1038E000000000005541525445000000756172749B
:1038F0005F6C6F675F6261636B656E640000000000
:103900006170700098390000000000202401000060
:10391000740B0000BC3A0000240100201C280000A9
:10392000840B00008437000000000000EC38000029
:10393000C8000020AC38000000000000B4380000CF
:1039400000000000BC38000000000000C438000087
:1039500000000000C838000000000000CC38000063
:1039600000000000D438000000000000DC38000037
:1039700000000000E43800000000000000390000F2
:1039800000000303D8000020D0000020D800002051
:10399000C403002018000000000000009001000790
:1039A0000000000000000000000000205C0000207B
:1039B0000100010000000000000000000000000005
:1039C0003C00002024010020320004000000000020
:1039D0000000000044000020900100044C00002082
:1039E000900101015400002090010202000000003B
:1039F000900103040000000000000000000000002F
:103A000000000000000000000000000000000000B6
:103A100000000000000000000000000000000000A6
:103A20000000000000000000000000000000000096
:103A30000000000000000000000000000000000086
:103A40000000020000010000000000000000000073
:103A500000200040000000000020004000000000A6
:103A600000000000FF000000000000000000000057
:103A70000000000000000000000000000000000046
:103A800000000000A4380000443800009C3800000A
:103A90004C3800005C3800005438000064380000E6
:103AA0006C380000743800007C3800008438000056
:0C3AB0008C380000943800000090D00317
:0400000500000201F4
:00000001FF
