:020000040000FA
:1000000000040020810A000015070000610A0000BA
:100010001F07000029070000330700000000000050
:10002000000000000000000000000000A50A000021
:100030003D070000000000004707000051070000D6
:100040005B070000650700006F07000079070000EC
:10005000830700008D07000097070000A10700003C
:10006000AB070000B5070000BF070000C90700008C
:10007000D3070000DD070000E7070000F1070000DC
:10008000FB070000050800000F0800001908000029
:10009000230800002D080000370800004108000078
:1000A0004B080000550800005F08000069080000C8
:1000B000730800007D080000870800009108000018
:1000C0009B080000A5080000AF080000B908000068
:1000D000C3080000CD080000D7080000E1080000B8
:1000E000EB080000F5080000FF0800000909000007
:1000F000130900001D090000270900003109000054
:100100003B0900001FB500F003F88DE80F001FBD8C
:1001100000F0ACBC40F6FC7108684FF01022401CA7
:1001200008D00868401C09D00868401C04D0086842
:1001300000F037BA9069F5E79069F9E7704770B554
:100140000B46010B184400F6FF70040B4FF0805073
:100150000022090303692403406943431D1B104621
:1001600000F048FA29462046BDE8704000F042BA47
:10017000F0B54FF6FF734FF4B4751A466E1E11E0DA
:10018000A94201D3344600E00C46091B30F8027B3B
:10019000641E3B441A44F9D19CB204EB134394B25D
:1001A00004EB12420029EBD198B200EB134002EBB2
:1001B000124140EA0140F0BDF34992B00446D1E952
:1001C0000001CDE91001FF224021684600F0F4FB58
:1001D00094E80F008DE80F00684610A902E004C8FB
:1001E00041F8042D8842FAD110216846FFF7C0FF7C
:1001F0001090AA208DF8440000F099F9FFF78AFFCB
:1002000040F6FC7420684FF01025401C0FD0206889
:1002100010226946803000F078F92068401C08D030
:100220002068082210A900F070F900F061F9A869AF
:10023000EEE7A869F5E74FF080500369406940F6A2
:10024000FC71434308684FF01022401C06D0086838
:1002500000F58050834203D2092070479069F7E788
:100260000868401C04D00868401C03D00020704778
:100270009069F9E70420704770B504460068C34DE3
:10028000072876D2DFE800F033041929631E250021
:10029000D4E9026564682946304600F062F92A46CE
:1002A0002146304600F031F9AA002146304600F0E0
:1002B00057FB002800D0032070BD00F009FC4FF46C
:1002C000805007E0201D00F040F90028F4D100F034
:1002D000FFFB60682860002070BD241D94E80700C3
:1002E000920000F03DFB0028F6D00E2070BDFFF715
:1002F000A2FF0028FAD1D4E901034FF0805100EBAE
:10030000830208694D69684382420ED840F6F8704E
:1003100005684FF010226D1C09D0056805EB8305B8
:100320000B6949694B439D4203D9092070BD55694A
:10033000F4E70168491C03D00068401C02D003E0C8
:100340005069FAE70F2070BD2046FFF735FFFFF731
:1003500072FF0028F7D1201D00F0F7F80028F2D135
:1003600060680028F0D100F0E2F8FFF7D3FE00F05B
:10037000BFF8072070BD10B50C46182802D0012028
:10038000086010BD2068FFF777FF206010BD41684E
:10039000054609B1012700E0002740F6F8742068FF
:1003A0004FF01026401C2BD02068AA68920000F065
:1003B000D7FA38B3A86881002068401C27D020688D
:1003C000FFF7BDFED7B12068401C22D026684FF051
:1003D0008050AC686D68016942695143A9420DD9EA
:1003E000016940694143A14208D92146304600F0E5
:1003F000B8F822462946304600F087F800F078F831
:100400007069D2E700F093F8FFF784FEF6E77069B1
:10041000D6E77669DBE740F6FC7420684FF01026DB
:10042000401C23D02068401C0CD02068401C1FD0EA
:100430002568206805F18005401C1BD027683879A5
:10044000AA2819D040F6F8700168491C42D001680A
:10045000491C45D00168491C3ED001680968491C07
:100460003ED00168491C39D000683EE0B069DAE747
:10047000B569DEE7B769E2E710212846FFF778FEA5
:100480003968814222D12068401C05D0D4F8001080
:1004900001F18002C03107E0B169F9E730B108CA63
:1004A00051F8040D984201D1012000E000208A4259
:1004B000F4D158B1286810B1042803D0FEE72846CB
:1004C000FFF765FF3149686808600EE0FFF722FE1C
:1004D00000F00EF87169BBE77169BFE7706904E06D
:1004E0004FF480500168491C01D000F0CBFAFEE7C0
:1004F000BFF34F8F26480168264A01F4E06111439B
:100500000160BFF34F8F00BFFDE72DE9F0411746B3
:100510000D460646002406E03046296800F054F8EF
:10052000641C2D1D361DBC42F6D3BDE8F08140F69B
:10053000FC700168491C04D0D0F800004FF48051D1
:10054000FDE54FF010208069F8E74FF080510A690F
:10055000496900684A43824201D810207047002050
:10056000704770B50C4605464FF4806608E0284693
:1005700000F017F8B44205D3A4F5806405F5805562
:10058000002CF4D170BD0000F40A0000000000202F
:100590000CED00E00400FA05144801680029FCD0C5
:1005A0007047134A0221116010490B68002BFCD0E0
:1005B0000F4B1B1D186008680028FCD0002010603D
:1005C00008680028FCD07047094B10B501221A605A
:1005D000064A1468002CFCD0016010680028FCD08A
:1005E0000020186010680028FCD010BD00E4014015
:1005F00004E5014070B50C46054600F073F810B9EB
:1006000000F07EF828B121462846BDE8704000F091
:1006100007B821462846BDE8704000F037B8000012
:100620007FB5002200920192029203920A0B000B06
:100630006946012302440AE0440900F01F0651F80C
:10064000245003FA06F6354341F82450401C8242F8
:10065000F2D80D490868009A10430860081D016827
:10066000019A1143016000F03DF800280AD00649C4
:1006700010310868029A10430860091D0868039A3F
:10068000104308607FBD00000006004030B50F4CED
:10069000002200BF04EB0213D3F800582DB9D3F8A1
:1006A000045815B9D3F808581DB1521C082AF1D3C3
:1006B00030BD082AFCD204EB0212C2F80008C3F8CD
:1006C00004180220C3F8080830BD000000E0014013
:1006D0004FF08050D0F83001082801D0002070473A
:1006E000012070474FF08050D0F83011062905D016
:1006F000D0F83001401C01D0002070470120704725
:100700004FF08050D0F830010A2801D00020704707
:100710000120704708208F490968095808471020B0
:100720008C4909680958084714208A4909680958FA
:100730000847182087490968095808473020854923
:100740000968095808473820824909680958084744
:100750003C20804909680958084740207D490968BC
:100760000958084744207B49096809580847482028
:1007700078490968095808474C207649096809589A
:10078000084750207349096809580847542071499F
:1007900009680958084758206E49096809580847E8
:1007A0005C206C4909680958084760206949096854
:1007B00009580847642067490968095808476820AC
:1007C00064490968095808476C2062490968095852
:1007D000084770205F4909680958084774205D4937
:1007E00009680958084778205A490968095808478C
:1007F0007C205849096809580847802055490968EC
:10080000095808478420534909680958084788202F
:1008100050490968095808478C204E490968095809
:10082000084790204B4909680958084794204949CE
:10083000096809580847982046490968095808472F
:100840009C204449096809580847A0204149096883
:1008500009580847A4203F49096809580847A820B3
:100860003C49096809580847AC203A4909680958C1
:100870000847B0203749096809580847B420354966
:10088000096809580847B8203249096809580847D3
:10089000BC203049096809580847C0202D4909681B
:1008A00009580847C4202B49096809580847C82037
:1008B0002849096809580847CC2026490968095879
:1008C0000847D0202349096809580847D4202149FE
:1008D000096809580847D8201E4909680958084777
:1008E000DC201C49096809580847E02019490968B3
:1008F00009580847E4201749096809580847E820BB
:100900001449096809580847EC2012490968095830
:100910000847F0200F49096809580847F4200D4995
:10092000096809580847F8200A490968095808471A
:10093000FC2008490968095808475FF48070054998
:10094000096809580847000003480449024A034B54
:100950007047000000000020000B0000000B0000AA
:1009600040EA010310B59B070FD1042A0DD310C82C
:1009700008C9121F9C42F8D020BA19BA884201D97E
:10098000012010BD4FF0FF3010BD1AB1D30703D0C6
:10099000521C07E0002010BD10F8013B11F8014B7C
:1009A0001B1B07D110F8013B11F8014B1B1B01D198
:1009B000921EF1D1184610BD02F0FF0343EA032254
:1009C00042EA024200F005B87047704770474FF0A6
:1009D00000020429C0F0128010F0030C00F01B800C
:1009E000CCF1040CBCF1020F18BF00F8012BA8BF1A
:1009F00020F8022BA1EB0C0100F00DB85FEAC17CDE
:100A000024BF00F8012B00F8012B48BF00F8012B90
:100A100070474FF0000200B51346944696462039C1
:100A200022BFA0E80C50A0E80C50B1F12001BFF4A7
:100A3000F7AF090728BFA0E80C5048BF0CC05DF80D
:100A400004EB890028BF40F8042B08BF704748BF5B
:100A500020F8022B11F0804F18BF00F8012B7047CF
:100A6000014B1B68DB6818470000002009480A4951
:100A70007047FFF7FBFFFFF745FB00BD20BFFDE719
:100A8000064B1847064A1060016881F308884068E1
:100A900000470000000B0000000B000017040000DE
:100AA000000000201EF0040F0CBFEFF30881EFF3ED
:100AB0000981886902380078182803D100E0000015
:100AC000074A1047074A12682C3212681047000084
:100AD00000B5054B1B68054A9B58984700BD0000B0
:100AE0007703000000000020F00A0000040000006E
:100AF000001000000000000000FFFFFF0090D00386
:1010000000420020F5140000FD140000151300003C
:101010000115000003150000051500000000000088
:1010200000000000000000000000000007150000A4
:1010300009150000000000000B1500000D15000050
:10104000411C00000F150000851F00000F15000057
:101050000F1500000F150000651800000F150000A7
:101060000F1500000F1500000F1500000F150000F0
:101070000F1500000F1500000F1500000F150000E0
:101080000F150000511C00000F1500000F15000087
:101090000F1500000F1500000F1500000F150000C0
:1010A0000F1500000F1500000F1500000F150000B0
:1010B0000F1500000F1500000000000000000000E8
:1010C0000F1500000F1500000F1500000F15000090
:1010D0000F1500000F1500000F150000DD1F0000A8
:1010E0000F1500000F1500000F1500000000000094
:1010F000000000000F150000000000000F150000A8
:1011000000000000000000000000000000000000DF
:1011100000000000000000000000000000000000CF
:1011200000000000000000000000000000000000BF
:1011300000000000000000000000000000000000AF
:10114000000000000000000000000000000000009F
:10115000000000000000000000000000000000008F
:10116000000000000000000000000000000000007F
:10117000000000000000000000000000000000006F
:10118000000000000000000000000000000000005F
:10119000000000000000000000000000000000004F
:1011A000000000000000000000000000000000003F
:1011B000000000000000000000000000000000002F
:1011C000000000000000000000000000000000001F
:1011D000000000000000000000000000000000000F
:1011E00000000000000000000000000000000000FF
:1011F00000000000000000000000000000000000EF
:10120000DFF80CD000F0E2FA00480047A98C00009B
:101210000042002030B4044654E8000F0D4644E874
:101220000053002BF8D1156030BC704730B4044631
:1012300054E8000F40EA010544E80053002BF7D1C1
:10124000156030BC704730B4044654E8000F00EA23
:10125000010544E80053002BF7D1156030BC7047FE
:1012600030B4044654E8000F80EA010544E8005316
:10127000002BF7D1156030BC704730B4044654E8F9
:10128000000F00EB010544E80053002BF7D1156077
:1012900030BC704730B4044654E8000FA0EB0105A1
:1012A00044E80053002BF7D1156030BC704770B490
:1012B00004464FF0000054E8006F0D68AE4207BFCF
:1012C00044E80023012044E800630E60002B1CBFAB
:1012D0000020F0E770BC704730B4044654E8000FBB
:1012E00088422CBF451A054644E80053002BF5D12F
:1012F000156030BC7047000000B583B002900091CB
:10130000019244F2010071466A4601F067F803B0A9
:1013100000BD0000094B1EF0040F1CBFEFF3098055
:101320001847EFF308800649064A884201D89042E0
:1013300002D88D464FF0000018470000191A00002F
:10134000004200200022002030B450E8012F93B268
:10135000C48923448489A34228BF1B1B0489A34258
:1013600002BFBFF32F8F002007E0C3EA020340E86B
:101370000134002CE9D14FF001000A6030BC704705
:1013800050E8012FC2EA024240E801210029F7D1CA
:10139000704730B450E8022F1FFAA2F3C488A3426A
:1013A00002BFBFF32F8F00200DE0C489234484893E
:1013B000A34228BF1B1BC2EA034340E80234002CAF
:1013C000E8D14FF001000A6030BC704750E8022FAE
:1013D000C2EA224240E802210029F7D170470346C1
:1013E00053E8022FD988B2EB324F4FF0000017BFFD
:1013F00092B241EA014142EA014104E05A68B2EB8B
:10140000324F08BF012043E80212002AE8D170479A
:1014100030B4044654E8000F0D4644E80053002B56
:10142000F8D1156030BC704730B4044654E8000F62
:1014300040EA010544E80053002BF7D1156030BCA9
:10144000704730B4044654E8000F00EA010544E850
:101450000053002BF7D1156030BC704730B4044600
:1014600054E8000F80EA010544E80053002BF7D14F
:10147000156030BC704730B4044654E8000F00EBF0
:10148000010544E80053002BF7D1156030BC7047CC
:1014900030B4044654E8000FA0EB010544E80053C3
:1014A000002BF7D1156030BC704770B404464FF084
:1014B000000054E8006F0D68AE4207BF44E8002307
:1014C000012044E800630E60002B1CBF0020F0E701
:1014D00070BC704730B4044654E8000F88422CBFFB
:1014E000451A054644E80053002BF5D1156030BC81
:1014F000704700000648804706480047FEE7FEE7C1
:10150000FEE7FEE7FEE7FEE7FEE7FEE7FEE7FEE7B3
:10151000A91D000001120000004870475C1B01007B
:10152000A0F14101192900D8203070472DE9FE4370
:10153000994615468846074601AC022942D3002D3C
:1015400040D000200290A8F101004FF0FF3600903B
:1015500022E000FB057201FB057011464A469047E8
:10156000002805DC54F82600304444F8260013E037
:1015700060682A4600FB057154F8040C00FB0570F6
:1015800007E00B7890F800C001F801CB00F8013BB0
:10159000521E002AF5D1764254F8040C6168884244
:1015A000D7DC4B462A463846FFF7C0FF54F8040CF8
:1015B0004B46A8EB0001401C00FB05702A46491E63
:1015C000FFF7B4FFBDE8FE8310B5431A934209D27A
:1015D0008318881803E010F8011D03F8011D521E3E
:1015E000F9D210BD40EA01039B0703D009E008C906
:1015F000121F08C0042AFAD203E011F8013B00F8D8
:10160000013B521EF9D210BDD2B201E000F8012B0D
:10161000491EFBD270470022F6E710B513460A4672
:1016200004461946FFF7F0FF204610BD30B50546C9
:101630002A460B4612F8010B13F8014B08B1A042E1
:10164000F8D01CB1002802D06D1CF1E7284630BD4F
:10165000CAB2401E10F8011F8A4202D00029F9D1F7
:1016600000207047421C10F8011B0029FBD1801A92
:10167000704710B5002200E0521C835C8C5CA342D2
:1016800001D1002BF8D1D8B2E1B2401A10BD034607
:1016900011F8012B00F8012B002AF9D118467047E8
:1016A00030B505460020034600E05B1C934205D29E
:1016B000EC5CC85C201A01D1002CF6D130BD2DE9BC
:1016C000F04791460F4680460446002614F8015B19
:1016D0002DB1FFF721FF0068405DC007F6D12B2D2B
:1016E00002D02D2D18D0641E4A463946204600F0FF
:1016F0001EF827B13968A14201D1C7F800807105F1
:101700004FF002040BD54042002803DD00F0D0FD6D
:101710000460A007BDE8F08746F48066E4E700288F
:10172000F8DA00F0C5FD04606FF00040F2E72DE943
:10173000F05F82460078002715468B460AF10104C7
:10174000B946302801D09DB113E014F8010B0127F0
:10175000782803D0582801D045B10AE00DB1102DEA
:1017600007D10027102514F8010B02E0082500E03E
:101770000A250026B0460EE005FB080005FB06F131
:10178000012701EB10461FFA80F8B6F5803F00D321
:10179000B94614F8010B294600F02AF80028EBDAC4
:1017A000BBF1000F05D00FB1641E00E05446CBF82A
:1017B0000040B9F1000F06D000F07AFD022101606F
:1017C000C81EBDE8F09F48EA0640FAE7064C074D00
:1017D00006E0E06840F0010394E807009847103401
:1017E000AC42F6D3FFF710FDB03B0100D03B010047
:1017F0003A2800D2303820F02002412A01D3A2F149
:101800003700884201D34FF0FF30704770B58C1815
:1018100010F8015B15F0070301D110F8013B2A1104
:1018200006D110F8012B03E010F8016B01F8016BF1
:101830005B1EF9D12B0705D40023521E0DD401F8ED
:10184000013BFAE710F8013BCB1A921C03E013F8B6
:10185000015B01F8015B521EF9D5A142D8D30020EB
:1018600070BD00002DE9F04F00268DB0DFF8A0819B
:10187000B14604964FF480750124374605962846F4
:1018800009F030FD38B1D8F80403204203D02846CF
:1018900009F01EFD26432D1D64007F1CADB2082FEC
:1018A000EDD34FF4BE74204609F01CFD48B120462C
:1018B00009F00EFD46F0004604AA0221002009F0BE
:1018C000D1FC544C16F0FF0F15D0012700253742EC
:1018D0000DD008EB8501D1F81005D1F81015C0F333
:1018E000052054F82520C1F3014102B190477F0043
:1018F0006D1C082DEBD3002E7EDA0020CDF8289049
:10190000411E0DF1100B07AACDF82C9042F82010C3
:10191000401C91460228F9D300252E46A11911F842
:10192000607F91F9000027F0C008401C40D007A953
:10193000404607F0ABFE40B34FEA971A404602F02C
:10194000A9FD54F820701FB1BAF1030F03D006E0CF
:10195000BAF1030F2CD10AA9404607F09FFE02A856
:10196000CDF8088009F0DAFB029900EB8100D0F88D
:10197000000704A9C0F301400290404607F086FE2C
:101980000028029802D0022802D011E003280FD1CB
:10199000BAF1030F08D10298022833D00221404641
:1019A00009F0A4FB6D1CEDB217B151464046B84793
:1019B000761C042EB2D3002D21D001AA02210020D2
:1019C00009F050FC00205A460DF1040152F8206045
:1019D00051F82030B34217D000200AAE4FEA090375
:1019E00051F8207042F8207056F8207043F82070AB
:1019F000401C0228F4D300E001E0002D8CD10DB092
:101A0000BDE8F08F0321CAE7401C0228DED3F6E7C9
:101A100000600040681100201CB582460AF0ECF915
:101A200009F064FF0028FBD139485FEA0A0507681E
:101A300039483A49374EA0EB01004FEAD0004FF049
:101A4000010808EB004470881ED0002821D02046F1
:101A500033A1AA690AF084F87088002819D0D5E962
:101A60000201CDE90001D5E90023204632A10AF0A8
:101A70008FF8708868B1E8690090D5E904232046A2
:101A80003BA10AF07CF804E018B1204642A10AF01C
:101A900063F81F48001D0068800705D5708818B1DD
:101AA00020464A490AF058F8DFF82491002500BF83
:101AB00008FA05F0384208D059F825202AB1708874
:101AC00018B1204643A10AF04BF86D1C1A2DEFD334
:101AD000380608D5708830B10D480C3002682046B1
:101AE0003FA10AF03DF8380408D5708830B10848A5
:101AF00010300268204642A10AF032F80448C8308B
:101B00000068C00700D000BE504600F087F8000013
:101B100028ED00E010040020783D0100B03C0100F9
:101B200048415244204641554C542061742030783D
:101B30002530385800000000202052303A20203054
:101B40007825303858202052313A202030782530FE
:101B50003858202052323A2020307825303858200A
:101B60002052333A202030782530385800000000C9
:101B700020205231323A2030782530385820204CFD
:101B8000523A202030782530385820205053523A8D
:101B90002030782530385800537461636B207669A3
:101BA0006F6C6174696F6E3A20737461636B20703F
:101BB0006F696E746572206F7574736964652073E4
:101BC0007461636B20617265612E0000E82601007C
:101BD000F001002043617573653A2025732E0000E3
:101BE0004D656D4D616E616765204661756C742051
:101BF000416464726573733A203078253038580038
:101C0000427573204661756C74204164647265731B
:101C1000733A20307825303858000000BFF34F8FDA
:101C200005480168054A01F4E06111430160BFF312
:101C30004F8F00BFFDE700000CED00E00400FA0547
:101C400010B50BF0F5FABDE810400BF023BA000018
:101C500002490248091F096800680847A4010020DA
:101C6000044900EB400001EBC000416D806D081A93
:101C700070470000781F002000F064BA70B5064677
:101C800014460D46002001F0A7FD224629463046A5
:101C900000F006F80446002001F0CCFD204670BD9F
:101CA0002DE9F0471B4D0746164628780C4608B923
:101CB00000F048FA07EB470005EBC007A046D7E95C
:101CC0001595002448374D4511D9B868441BB442D6
:101CD00000D334467868224641194046FFF774FC29
:101CE000B868361B2544A044A84200D10025A9EBC2
:101CF0000500B04200D206463EB17868324641192E
:101D00004046FFF761FC3444354404B13D61204650
:101D1000BDE8F087781F002070B50B4B06461446CF
:101D200018780D4608B900F00DFA002001F054FDB6
:101D300022462946304600F009F80446002001F00A
:101D400079FD204670BD0000781F002070B50E465A
:101D5000144900EB400001EBC0051446E86A183551
:101D600020B101280FD0022805D113E0284600F049
:101D70001DFAA04201D2002411E022463146284635
:101D800000F061FA0BE0284600F010FAA042F4D20D
:101D90000446F2E73146284600F028FA0446204679
:101DA00070BD0000781F002030B54FF08050002239
:101DB0008300D0F83011C3F80C21C3F81021624B16
:101DC0001A60624B1B68624C2360604B1B1D1B68D2
:101DD000241D23605D4B08331B68241D23605B4B6F
:101DE0000C331B68241D2360584B10331B68241DC3
:101DF0002360564B14331B68241D2360534B183348
:101E00001B68534C20342360504B1C331B68241D2B
:101E100023604E4B20331B68241D23604B4B24331F
:101E20001B68241D2360494B28331B68241D236035
:101E3000464B2C331B68241D2360444B30331B68F6
:101E4000434C40342360414B34331B68241D2360D2
:101E50003E4B38331B68241D23603C4B3C331B68CE
:101E6000241D2360394B40331B68241D236001234C
:101E7000082902D1D0F8344114B1082904D006E071
:101E8000354C3449216005E0D0F8344114B10829BB
:101E900004D006E0314CFB21216005E0D0F834414C
:101EA00014B1082908D00EE090F858422C48016877
:101EB00064F30301016002E0D0F834411CB9294900
:101EC0004FF40070086028480168C90702D06FF01D
:101ED000010101602548016841F470010160BFF310
:101EE0004F8FBFF36F8F4FF01021D1F80002002801
:101EF00003DBD1F80402002822DA1D4C23601D48C0
:101F00000368002BFCD01223C1F800320568002DB5
:101F1000FCD0C1F8043201680029FCD022600168BD
:101F20000029FCD0BFF34F8F10487C380168124A5B
:101F300001F4E06111430160BFF34F8F00BFFDE783
:101F40000F490E48086030BD3805004004040010F9
:101F500020C50040488103008C56004018F5004021
:101F6000E40E0040409602400004004088ED00E08E
:101F700004E5014000E401400400FA050090D003AC
:101F80003403002010B5054C206818B904A12B209B
:101F900001F006FD2068BDE8104000470C0100205C
:101FA0002E2E5C2E2E5C2E2E5C2E2E5C2E2E5C2E6B
:101FB0002E5C6D6F64756C65735C6E7266785C64C4
:101FC0007269766572735C7372635C7072735C6E57
:101FD0007266785F7072732E630000002DE9F05F07
:101FE0005448D0F8045300242E464FF0010913E062
:101FF00096FAA6F0B0FA80F7B80000F58070804637
:102000000AF044FF28B140460AF048FF09FA07F0F9
:10201000044309FA07F08643002EE9D10CF01FF9BA
:10202000002869D0444AD078F0BBA00264D5434967
:1020300040F2A978C1F80080081D036813F0FF0C76
:1020400002D0036803EA0C0C40F2AA7AC1F800A09F
:10205000036813F0FF0301D00668334040F2AB7B06
:10206000C1F800B0066816F0FF0601D007683E40D0
:1020700040F2AC770F60076817EA0C0709D0D2F876
:1020800010C04CEA070CC2F810C0C1F8008007600D
:10209000076840F2AD770F6007681F4009D01369E9
:1020A00043EA0743136100E026E0C1F800A007609F
:1020B000036840F2AE730B60036833400BD0DE0759
:1020C00001D044F40004DE0601D544F00104C1F857
:1020D00000B003600068106930F0011102D005F013
:1020E00080710C4310F0011F06D0690504D520F063
:1020F000011044F480641061C4F3C05624F4000459
:102100004F46DFF83C8009E094FAA4F0B0FA80F57D
:1021100058F82500804707FA05F08443002CF3D1D6
:102120000EF0A0FB002E03D0BDE8F05F05F09EB9D5
:10213000BDE8F09F007002401401002000780240CA
:10214000B411010010B5124C02202061606111A091
:10215000A06104F17800E0614FF40070206200207B
:10216000A06260620BA1A164E06204F51E71E164EB
:102170001021A065C4E91410E06509A1E01DFFF776
:1021800086FA08A12046FFF782FA2020A07110BD30
:10219000781F00205465726D696E616C000000004C
:1021A0005254540053454747455200000269C168E4
:1021B0008A4203D88068401A104400E0501A401E3A
:1021C00070470000C11700EBD161074B4A1153F86B
:1021D000222021F01F01411A01208840024201D033
:1021E000012070470020704700E100E02DE9F04732
:1021F000C4681746894606464FF000083069A04279
:1022000001D9051B02E0B168201A0D1AB0686D1ED5
:10221000001BA84200D80546BD4200D33D46706869
:102220002A4620444946FFF7CFF9B0687F1B2C446B
:10223000A844A944A04200D10024F460002FDDD1BD
:102240004046BDE8F0872DE9F04104468846D4E9D0
:102250000207C51BE168606816460844B54206D906
:102260004146FFF7B1F9B819E060BDE8F0812A46B0
:102270004146FFF7A9F9761B08EB05013246606875
:10228000FFF7A2F9E660F0E70FB4084B10B504A918
:1022900002AA039800F01FF8044602A9002000F0EB
:1022A00085F8204610BC5DF814FB0000AD2300004B
:1022B000004870473803002002E008C8121F08C118
:1022C000002AFAD170477047002001E001C1121FB7
:1022D000002AFBD170472DE9F84F9946924688466F
:1022E0000546002706E025280AD051464A46904771
:1022F0006D1C7F1C28780028F5D13846BDE8F88F82
:10230000002315F8011F18462E2915D115F8011FB5
:1023100004232A290DD06FF02F022978A1F130046F
:10232000092C09D800EB800002EB400008446D1C2A
:10233000F3E758F8040B6D1C2A78002ADDD0632AD5
:1023400007D0732A0FD0104651464A4690477F1C4B
:102350002AE018F8042B8DF8002000218DF80110D8
:102360006E46012103E058F8046B4FF0FF315A0725
:102370004FF0000401D409E0641C84420BDA8C4263
:10238000FADB325D002AF7D105E0641C8C42FCDBED
:10239000305D0028F9D1274404E016F8010B5146BE
:1023A0004A469047641EF8D26D1CA3E70A68531C86
:1023B0000B6010707047800701D00020704701202B
:1023C0007047C3688B4206D811440069491E814298
:1023D00001D8012070470020704700002DE9FE431E
:1023E00014460F46804672B609F006FD09F07EFAE3
:1023F0000028FBD12448254A6FF48041A0EB02005D
:10240000204E4FEAD0004FF0010218EB010102EB21
:1024100000451ED07088012912D020B128463A46C6
:102420001BA109F09DFB20480068C00700D000BE3A
:10243000224603B039464046BDE8F04300F062B89A
:102440000028F0D02388284618A1626809F08FFB85
:10245000E9E770880028E6D0A0680AF045FB03464B
:10246000D4E90001CDE900100297284616A1A26820
:1024700009F098FB70880028D5D028461CA109F0E7
:102480006BFBD0E734040020C03D0100B03C0100EC
:10249000554E4B4E4F574E204641554C542061747B
:1024A0002030782530385800F0ED00E04153534596
:1024B0005254494F4E204641494C454420617420B6
:1024C00025733A25750000004552524F522025755C
:1024D000205B25735D2061742025733A25750D0AF4
:1024E00050432061743A203078253038780000005D
:1024F000456E64206F66206572726F72207265701F
:102500006F72740008B501238DF800309DF800301B
:10251000144B186059609A606FF48041401807D0DE
:1025200001280FD1DA60D86800889861D86807E080
:102530001A6118698068586118690068986118699B
:102540004068D861186858689868D86818695869E8
:102550009869D86972B600BF9DF800000028FBD1C9
:1025600062B608BD5C140020014804F0FEBB000008
:102570003001002070B514460E46050004D10B4909
:1025800040F2C91001F00CFA3CB12868012EC46079
:102590000AD000218160002070BD04494FF4E5702D
:1025A00001F0FEF9072070BD0121F3E7E4230100EB
:1025B00038B50E4808235822416800910C4900683C
:1025C00006F05BFE00280FD10A4A69460A4804F06B
:1025D000D1FB040008D10121074804F0A6FC0649FC
:1025E000012008390870204638BD00005012010053
:1025F0007C140020C5F300003001002070B51646A1
:102600000D46040004D10E4940F2D91001F0C8F97A
:10261000B5F5350F01D3072070BD207E08B100202D
:1026200070BD0848266104F0A0FB28446060A068E3
:1026300000B1A5602146BDE8704000200DF098BDB6
:10264000E42301003001002010B5040004D1064944
:102650004FF4FA7001F0A4F9002021462076BDE87D
:10266000104001200DF084BDE423010070B5054643
:102670000648446807E02946204602F085F82046CF
:1026800000F02AFA0446002CF5D170BD500100205C
:1026900070B50A4845680EE02E7A002405E0214610
:1026A000284600F063FE641CE4B2B442F7D3284627
:1026B00000F012FA0546002DEED170BD5001002049
:1026C0002DE9F0410E4840F24477456814E02E7A37
:1026D00000240BE000222146284600F0ABFE18B192
:1026E00008A1384601F05CF9641CE4B2B442F1D3AD
:1026F000284600F0F1F90546002DE8D1BDE8F0814B
:10270000500100202E2E5C2E2E5C2E2E5C2E2E5C78
:102710002E2E5C2E2E5C636F6D706F6E656E747303
:102720005C6C69627261726965735C757362645C2A
:102730006170705F757362642E63000070B5064649
:102740000948062544680AE03146204602F01CF894
:102750000546062805D1204600F0BEF90446002CA7
:10276000F2D1284670BD0000500100202DE9FC4147
:1027700015460F00064604D11E4940F2F93001F01B
:102780000FF9304601F0C2F90446007DC00715D0AC
:10279000002001F021F8E06E98B1A84200D805466B
:1027A0002A463846A16EFEF70FFFE06E401BE0663A
:1027B000A06E65672844A066002405E00820BDE8F7
:1027C000FC81A06928B11124002001F033F82046D3
:1027D000F5E7C4E90675304604F06DFA06498969E3
:1027E000CDE90014694600F0C5FB0400ECD1922449
:1027F000EAE7000070240100B812010010B501F0F2
:1028000085F9406F10BD0000FEB515460E46044622
:1028100001F07CF9007D10F0010F0CD0204604F08F
:1028200041FAA90609D000210096CDE90151694677
:1028300000F0ECFBFEBD0820FEBD0149896AF3E70C
:10284000B8120100F8B5040004D138A140F2445098
:1028500001F0A6F8606820B934A140F2455001F0BB
:102860009FF86068006820B930A140F2465001F03E
:1028700097F82068006820B12CA140F2475001F081
:102880008FF80BF08BFE10B90BF092FE20B927A148
:1028900040F24B5001F084F800250FE0002705E0DE
:1028A000007800F07BFB08B11120F8BD3946781C98
:1028B000C7B2304600F0C0F80028F1D12946681CA4
:1028C000C5B2204600F0E0F80600E7D100250DE093
:1028D000002703E00078214600F066FB3946781CAB
:1028E000C7B2304600F0A8F80028F3D12946681C8A
:1028F000C5B2204600F0C8F80600E9D1194D40F2F3
:10290000715607E0A04203D108A1304601F048F813
:102910002868056828680028F4D113482C606946A7
:1029200080690090204601F02FFFF8BD2E2E5C2E0E
:102930002E5C2E2E5C2E2E5C2E2E5C2E2E5C636F5B
:102940006D706F6E656E74735C6C696272617269D2
:1029500065735C757362645C6170705F75736264EB
:102960002E63000054010020641201002DE9F04F95
:1029700087B04FF000081D46934689460446DDF8AF
:1029800040A04646CDF80C8000E0761C606801232C
:1029900000224768214603A8B8470028F5D14046E1
:1029A0008DF800800027B84601903BE06068012365
:1029B0006A46D0F804C0214601A8E04760680123B8
:1029C00005AAD0F804C0214601A8E0479DF81410DC
:1029D00049451AD1D84514D19DF80000CAF8000025
:1029E00005F8010B6A1C85F8009060689DF80030BE
:1029F0002146456801A89B1EA847002007B0BDE8F6
:102A0000F08F08F1010000F0FF0860689DF80030C9
:102A10000022D0F804C0214601A89B1EE0479DF883
:102A200000000744B742C1D30520E7E701484068EA
:102A3000704700005001002070B50D46040004D11D
:102A4000064940F21D1000F0ABFF6078A84201D8A3
:102A5000002070BDA0782044284470BD2C240100C3
:102A600070B50D46040004D1064940F21D1000F077
:102A700097FF6078A84201D8002070BDA07820445C
:102A8000284470BD2C24010070B50D46040003D10C
:102A90000649EA2000F084FF207AA84201D80020ED
:102AA00070BD05EB45000934204470BD2C240100A5
:102AB00070B50D46040003D10649EA2000F070FF0E
:102AC000207AA84201D8002070BD05EB45000934EA
:102AD000204470BD2C24010010B5040004D1044929
:102AE00040F21D2000F05CFF2068006810BD00006F
:102AF000D432000010B5040004D104A140F21D201E
:102B000000F04EFF2068006810BD00002E2E5C2EE5
:102B10002E5C2E2E5C2E2E5C2E2E5C2E2E5C636F79
:102B20006D706F6E656E74735C6C696272617269F0
:102B300065735C757362645C6170705F7573626409
:102B40002E68000002484078002800D0012070471D
:102B50005001002010B5002000F0F8F9BDE8104049
:102B6000802000F0F3B910B5002000F0F1F9BDE8C5
:102B70001040802000F0ECB92DE9F0414C4E0D469C
:102B800002460978062430780B2934D009DC4FF04E
:102B9000010707296DD2DFE801F06C0D0F116C29D8
:102BA00051000C292FD00D2936D00E293DD0852972
:102BB0005FD115E0032016E000245AE03C48001DD8
:102BC00006F09DFB28B13B480760BFF36F8FBFF352
:102BD0004F8F30780028EFD137A140F211400FE03D
:102BE000032846D104200DF047FD42E0104600F0D6
:102BF0009DF804463DE00028DED02FA140F225409C
:102C000000F0CEFED8E7012804D02BA140F22B40E3
:102C100000F0C6FE002005E03648006810F0010F05
:102C20000AD002200DF028FDC6E7022804D222A116
:102C300040F23F4000F0B4FE0120F3E7E8780328BB
:102C400017D0A87830B1802804D01BA140F24D40A5
:102C500000F0A6FE1649E87808310A6832B1002370
:102C60000B6049689047040006D000E00E240BF08A
:102C7000F9FC2046BDE8F0810DF0F6FC28B1A878FB
:102C80000028F6D10BF0B1FCF3E74FF08050D0F8FC
:102C90003011082904D1D0F8340108B1012000E036
:102CA000002090F0010FE4D10BF09CFCE1E7000064
:102CB000740100205C7002402E2E5C2E2E5C2E2EA5
:102CC0005C2E2E5C2E2E5C2E2E5C636F6D706F6EF4
:102CD000656E74735C6C69627261726965735C7550
:102CE0007362645C6170705F757362645F636F725E
:102CF000652E630038040040024A0146D2E9000212
:102D0000104700001C15002070B50C4605460BF05E
:102D100063FCA84201D0102070BD0348D4E9001222
:102D2000C0E90212002070BD740100207FB5054685
:102D300005208DF8000006240DF101000BF06AFC5F
:102D40000DF092FC2949002008609DF8010010F068
:102D50001F0006D001280FD0022826D0032833D127
:102D600006E0694628460CF043FD044606282AD1B1
:102D70006846FFF7E3FC25E09DF8050003A900F095
:102D800035FB050008D06A469DF80C1000F0EAFA01
:102D90000446062802D016E0102415E06A469DF885
:102DA0000C1028460CF076FE0CE09DF8050001079B
:102DB00005D0694600F080F80446062803D168462D
:102DC0000CF0B8FD044624B10BF04CFC04B02046D6
:102DD00070BD0DF049FC30B10BF0FEFB0028F5D1C1
:102DE0000BF003FCF2E70BF0FDFBEFE77C010020AA
:102DF000FEB5C08814460E46A04201D2054600E04A
:102E00001546844207D280200BF07AF8B4FBF0F12B
:102E100000FB114068B100200096CDE90150002070
:102E200000F0DAFC6946802000F0F0F8040002D0DF
:102E300006E00120F0E705498020FFF765FF044622
:102E4000002000F0F7FC2046FEBD0000F412010057
:102E500008B1402101600148704700007015002052
:102E600010B50BF0ADFB20B104A140F2AB3000F087
:102E700097FDBDE810400AF049BE00002E2E5C2EE2
:102E80002E5C2E2E5C2E2E5C2E2E5C2E2E5C636F06
:102E90006D706F6E656E74735C6C6962726172697D
:102EA00065735C757362645C6170705F7573626496
:102EB0002E6300000AF068BE10B50C46010600F053
:102EC0000F02092A08D200F009F8006820B1214653
:102ED000BDE8104001F058BC102010BD10B501062F
:102EE00000F00F0408D5092C04D309A14FF4B970E0
:102EF00000F056FD144808E0092C04D304A14FF457
:102F0000BC7000F04DFD1048483000EBC40010BD0F
:102F10002E2E5C2E2E5C2E2E5C2E2E5C2E2E5C2EEB
:102F20002E5C636F6D706F6E656E74735C6C69623E
:102F30007261726965735C757362645C6170705F05
:102F4000757362642E630000D41400200AF0D4BEAE
:102F500010B5044600F00F00082805D220460AF0FC
:102F6000FBFE20460BF04CF82046BDE810400AF06E
:102F700017BF000070B50C4605460AF061FF18B196
:102F800005480078022801D0082070BD2146284657
:102F9000BDE870400AF05CBF5001002010B5FFF79B
:102FA0009DFF006810BD000070B50D460646FFF796
:102FB00095FF0446056015B16868006808E00EB129
:102FC000802E04D103A14FF4CE7000F0E9FC002064
:102FD000606070BD2E2E5C2E2E5C2E2E5C2E2E5C24
:102FE0002E2E5C2E2E5C636F6D706F6E656E74732B
:102FF0005C6C69627261726965735C757362645C52
:103000006170705F757362642E63000070B50C466A
:1030100005460AF015FF18B105480078022801D0CE
:10302000082070BD21462846BDE870400BF07CB8F2
:1030300050010020017805290BD107490968064A8B
:10304000C9B2121F126812F0FF0F02D1052900D178
:10305000024803490968084784740240821201004B
:103060006415002070B58A4C0546606820B989A1B6
:1030700040F2FF3000F094FC03F090FC062804D2EC
:1030800084A140F2064000F08BFC2878092876D015
:1030900007DC18D2DFE800F07494C39DB0CCD117E0
:1030A000F40082282DD008DC0A28F0D00F28EED0BA
:1030B000802841D0812806D10CE0832847D084287D
:1030C0004ED0852872D0BDE8704072A14FF4A06048
:1030D00000F066BC7D48FFF70FFE7C48FFF7C6FA9C
:1030E0000D200DF0B5FDFFF7D3FAFFF733FDA06813
:1030F00010B97748007A00B101200BF0B7FA01202F
:1031000089E0FFF7C5FA0BF001FB00200CF074FE1C
:103110006E48401CFFF7AAFA6C48401CFFF7ECFD14
:103120000E200DF095FD207800F03CFB002846D0E5
:10313000BDE8704007F04EBA2078052803D0062875
:1031400003D007283BD1022065E0082063E0207807
:10315000032834D10BF022FB002830D004205AE0A1
:103160002078032805D10BF019FB10B104200CF0D6
:1031700043FE0BF0F3FB002821D006204BE080E05B
:103180002078032801D0082803D15048801CFFF77D
:1031900069FF00200DF05CFDA46840F239260CE0C8
:1031A0002946204601F0F0FA2CB900E040E049A1A0
:1031B000304600F0F5FB20684468002CF0D170BD6B
:1031C000FFF766FAFFF7CFFC02200CF015FE012096
:1031D00006E02078082809D005200CF00DFE032019
:1031E0000DF036FD2846FFF787FD4CE002200CF07D
:1031F00003FE0BF06BF9F2E703200DF029FD3348D5
:10320000C01CFFF779FD3148C01CFFF72FFA20786A
:10321000062898D10720BDE870400CF0EDBD0320D2
:103220000CF0EAFD02200DF013FD2846FFF71EFA10
:103230002846BDE87040FFF75FBDA878FFF74EFE57
:103240000446006820B913A140F2DC4000F0A8FB5E
:10325000606820B90FA140F2DD4000F0A1FBD4E985
:103260000002294690470028A9D0A8780107A6D0D7
:1032700000F00F010829A2D2BDE870400AF08EBE0E
:1032800008200DF0E5FC2846BDE87040FFF7EEB9D8
:10329000500100202E2E5C2E2E5C2E2E5C2E2E5CDD
:1032A0002E2E5C2E2E5C636F6D706F6E656E747368
:1032B0005C6C69627261726965735C757362645C8F
:1032C0006170705F757362642E6300007512010097
:1032D000641500202E2E5C2E2E5C2E2E5C2E2E5C75
:1032E0002E2E5C2E2E5C636F6D706F6E656E747328
:1032F0005C6C69627261726965735C757362645C4F
:103300006170705F757362642E680000FFF792BE93
:1033100010B520B104A140F2552000F041FBBDE8FA
:1033200010400F48FFF786BE2E2E5C2E2E5C2E2EF0
:103330005C2E2E5C2E2E5C2E2E5C636F6D706F6E7D
:10334000656E74735C6C69627261726965735C75D9
:103350007362645C6170705F757362642E630000F9
:1033600064120100114601F00FBA000070B5044666
:1033700040680D46C2680AB120469047207AA842AC
:1033800004D20CA140F2F22000F00AFB29462046AC
:10339000FFF77AFB05464678002408E021462846D8
:1033A000FFF74AFB00780AF0A7FC641CE4B2B442C1
:1033B000F4D370BD2E2E5C2E2E5C2E2E5C2E2E5C39
:1033C0002E2E5C2E2E5C636F6D706F6E656E747347
:1033D0005C6C69627261726965735C757362645C6E
:1033E0006170705F757362642E6300002DE9F041B7
:1033F00080460F480E46456816E02F7A00240DE0FF
:1034000021462846FFF740FB0178414504D106B12B
:1034100034702846BDE8F081641CE4B2BC42EFD3AE
:103420002846FFF759FB0546002DE6D10020F1E7BD
:103430005001002070B50446406815460E4683686A
:103440001BB120469847062809D1207AB04204D201
:103450000E4940F2D32000F0A3FA0DB1072070BD51
:1034600031462046FFF710FB05464678002408E069
:1034700021462846FFF7E0FA0078FFF769FD641C53
:10348000E4B2B442F4D3002070BD0000B4330000B5
:10349000034600205A681269002A01D018461047D6
:1034A000704700002DE9F843044607F041F920B9C0
:1034B0002FA140F20B3000F073FA3B480BF00CF8F0
:1034C000002850D139490870486088604821384840
:1034D000FEF7A1F8364848214830FEF79CF83448FA
:1034E000344D80304CB194E80E00103080E80E006E
:1034F0002F489030016821B105E005F134010EC973
:10350000F3E72D490160002007F068F930B1852804
:1035100004D017A240F23931FDF7EEFE274E002409
:103520000DE0002703E000783146FFF73DFD394606
:10353000781CC7B24046FFF77FFA0028F3D1214636
:10354000641CE4B23046FFF79FFA5FEA0008E8D156
:10355000686800906946304601F016F9040004D00E
:103560000BF0D0F92046BDE8F8830020FBE700000F
:103570002E2E5C2E2E5C2E2E5C2E2E5C2E2E5C2E85
:103580002E5C636F6D706F6E656E74735C6C6962D8
:103590007261726965735C757362645C6170705F9F
:1035A000757362642E6300000D330000500100202B
:1035B000D4140020641201006530000034130100AF
:1035C00040B1012808D0022809D007A14FF40F709C
:1035D00000F0E6B9124804E01148001D01E010486F
:1035E0000830FFF727BD00002E2E5C2E2E5C2E2EFD
:1035F0005C2E2E5C2E2E5C2E2E5C636F6D706F6EBB
:10360000656E74735C6C69627261726965735C7516
:103610007362645C6170705F757362642E63000036
:103620008612010010B50AF0C3FF10B10AF0B6FF10
:1036300008B1082010BD054807F0E4F820B104A245
:103640004FF46771FDF758FE002010BD9412010081
:103650002E2E5C2E2E5C2E2E5C2E2E5C2E2E5C2EA4
:103660002E5C636F6D706F6E656E74735C6C6962F7
:103670007261726965735C757362645C6170705FBE
:10368000757362642E6300002DE9F0410D46164902
:1036900001EB800757F82500017849B10020FFF7BA
:1036A000D7FB57F8255006460024287848B911E082
:1036B000801CBDE8F0811F2C03D30C49C02000F012
:1036C0006FF9641CE4B215F8010B26F81400287891
:1036D0000028F0D1022000EB4400C0B240F440705A
:1036E00030803046E5E7000084010020C02401005E
:1036F00010B50AF053FF20B909A140F2B23000F032
:103700004FF915480168C1F3400121B1BDE81040EF
:103710001248FFF78FBC016811F0010FF2D110BD04
:103720002E2E5C2E2E5C2E2E5C2E2E5C2E2E5C2ED3
:103730002E5C636F6D706F6E656E74735C6C696226
:103740007261726965735C757362645C6170705FED
:10375000757362642E630000380400406912010032
:10376000034808B5806800906846FFF763FC08BD11
:10377000641201004FF0000150B106280BD2074A35
:10378000105C002808D0064A52F820201AB100E048
:103790000020FFF779BF0020704700009C13010054
:1037A00084010020092808D2DFE800F00707050798
:1037B000070505050500012070470020704709280E
:1037C00008D2DFE800F0070705070707070705002D
:1037D000012070470020704710B50BF049FB01280D
:1037E00003D004A11D2000F0DBF8BDE8104000F07C
:1037F0004FB800002E2E5C2E2E5C2E2E5C2E2E5CE2
:103800002E2E5C2E2E5C636F6D706F6E656E747302
:103810005C6C69627261726965735C7574696C5C19
:103820006170705F7574696C5F706C6174666F72E3
:103830006D2E630010B50BF01BFB012803D004A113
:103840002B2000F0ADF8BDE8104000F029B80000D2
:103850002E2E5C2E2E5C2E2E5C2E2E5C2E2E5C2EA2
:103860002E5C636F6D706F6E656E74735C6C6962F5
:103870007261726965735C7574696C5C6170705FAC
:103880007574696C5F706C6174666F726D2E630025
:1038900072B602480168491C016070479C01002013
:1038A00003490868401E086000D162B670470000F6
:1038B0009C01002070B5054608680C46411C04D0E8
:1038C00007F0BCFC206807F0FDFB6068411C02D0DB
:1038D000002107F0E5FB2968A069C1F82405607D97
:1038E000227D29681043C1F86C05D4E900122868CC
:1038F000C0F81425C0F80C15207D012814D1A0684B
:10390000411C02D0002107F0CBFBE068411C04D031
:1039100007F094FCE06807F0D5FBD4E902122868B0
:10392000C0F80825C0F8101570BD70B505460868C8
:103930000C46411C04D007F08BFC206807F0CCFB40
:103940006068411C02D0002107F0B3FB2968A06920
:10395000C1F82405607D217D2A680843C2F86C0502
:10396000D4E900122868C0F80C15C0F81425207D91
:10397000012814D1A068411C02D0002107F099FB56
:10398000E068411C04D007F063FCE06807F0A4FB8A
:10399000D4E902122868C0F80825C0F8101570BDD7
:1039A0001CB56A46ADF800000191002144F2020006
:1039B000FEF714FD1CBD0000F0B500220D4BCA60DF
:1039C000C1E901230C4B0D4D1446EE1A0A600CE0C0
:1039D00003EB0215EF683F79FF2F05D0A04202D11B
:1039E000A8680860F0BD641C521CB2EB161FEFD330
:1039F000F0BD000068190100603C0100B03C01000E
:103A0000102802D31038C0B2704740F080007047D1
:103A10002DE9F0470546C61C90460F464FF00109B8
:103A20000020FFF7D9FE1B4C20683860D4E9000164
:103A3000401AA16804F21C47081A0EE0012138461A
:103A400005F066FC05F03AF80146384605F060FCE2
:103A5000D4E90001401AA168081A401C8642EDD83A
:103A6000B8F1000F03D0052065F3891002E00620AD
:103A700065F39F50A2682168114004EB8101C86082
:103A80002068304420600020FFF7D4FE4846BDE89F
:103A9000F0870000541B002070B50D4604460A292B
:103AA00002D10D21FFF7F8FFA0682268411CA16038
:103AB0001554D4E90101814204D32046BDE8704089
:103AC00006F054BF70BD0000034803C8814201D115
:103AD0000120704700207047541B00204360CA69D2
:103AE0009A420DD38A690260886918448861086F18
:103AF00018440867C869C01AC86100D0012070471F
:103B000001F12802026000208B67704710B50400A5
:103B100003D106493920FFF743FF206818B903494C
:103B20003A20FFF73DFF20680C3010BD70240100E3
:103B300070B50C46060004D1224940F2B720FFF7C9
:103B40002FFF24B91F494FF42E70FFF729FF20786B
:103B500000250F2833D2DFE800F033083333320C6E
:103B600011323208323333333300304600F0D5FBA4
:103B700026E0214630460BF027FF0FE0304602F0EA
:103B8000FAFD0146A0780025814219D00106E178AE
:103B90004FF0030004D531B901210CE005460FE0D8
:103BA00021B101290CD00329F8D109E0304600F0F9
:103BB000C5FB0546002130460DF03CF800E0062527
:103BC000284670BD702401002DE9FF5F054601986D
:103BD000DFF8F0931F46017A89F800101646019825
:103BE00000F044FB804625B9F74940F2E920FFF791
:103BF000D7FE29684FF0000A40F21F325446A1F266
:103C00001F304FF0020B914256D04CDC40F2013293
:103C1000A1F20130914272D029DC40F2F120A1F2F0
:103C2000F12281426CD015DC40F2EE22A1F2EE23AB
:103C300091426ED009DC4FF43B73E1B3994270D0EE
:103C4000A1F50071ED395ED17AE0012B74D0022B21
:103C500059D19BE0092A70D004DC012A6ED0022AD7
:103C600051D1B7E00A2A6AD00F2A4CD1DDE00E28E4
:103C700071D00EDC07286ED006DC01286CD0052838
:103C80006BD006283FD116E10C2867D00D283AD119
:103C900038E11538092836D2DFE800F0F53535353A
:103CA00035F4F3F2F10013286FD010DCA0F103001B
:103CB000102828D201E02EE079E1DFE800F0F0EFF3
:103CC000EEEDEC2424EBEAE9E82424E7E6E53728E6
:103CD0000CD00CDC292878D004DC142876D02828D5
:103CE00011D125E22D2872D032280CD150E244287F
:103CF0006ED006DC3E286CD03F2804D16FE29FE0F6
:103D00004CE04928F4D00020C5F800A004B0BDE87C
:103D1000F09F24E005E008212971002F01D82B60D5
:103D200081E20EB1297931700B2101242971012F13
:103D300006D840F2ED2075E21CE059E03AE062E07E
:103D40000EB12979315598F81410641C2971BC42C0
:103D500005D32A6067E2BAE07FE0A1E0C7E00EB1D8
:103D600029793155641C85F804B0BC4202D340F275
:103D7000EF2057E20EB129793155641C85F804B063
:103D8000BC4203D34FF43C704CE2A6E10EB129795A
:103D90003155641C85F804B0BC42CCD20EB12879F0
:103DA000305598F81900641C2871BC4202D340F2C7
:103DB000F22037E20EB128793055641C85F804A052
:103DC000BC4207D340F2F3202CE2BCE191E1CDE10B
:103DD00019E2F9E10EB12879305589F801A0641C87
:103DE00037E209202871BC4202D340F2FA2019E2DE
:103DF0000EB1287930550420641C2871BC4202D3CE
:103E000040F2FB200EE20EB12879305599F80110EE
:103E1000641C0198FEF74CFEC9F804000078287174
:103E2000BC4202D34FF44070FCE10EB1287930550A
:103E3000641C85F804A0BC4202D340F20130F1E1D9
:103E40000EB128793055D9F80400641CBC42407882
:103E5000287102D340F20230E4E10EB128793055E6
:103E6000D9F8040098F81410641C0078814233D10A
:103E700085F804B0BC4213D340F20630D2E18BE0A7
:103E80007FE073E067E054E01BE10FE103E1F7E05E
:103E9000EBE0DFE0D3E0C7E0B9E0ADE0A1E095E022
:103EA0000EB128793055641C85F804B0BC4202D3A9
:103EB00040F20730B6E10EB12879305598F8190074
:103EC000641C2871BC4202D34FF44270AAE10EB1C7
:103ED00028793055641C25E098F8161081421CD1D1
:103EE0000A202871BC4202D340F20D309AE10EB193
:103EF00028793055641C85F804A0BC4202D340F2F6
:103F00000E308FE10EB128793055641C85F804A07D
:103F1000BC42DCD340F20F3084E12B4940F2133035
:103F2000FFF73EFD85F804A0BC4202D340F21630F4
:103F300078E10EB128793055D9F8040098F81410BA
:103F4000641C007881426ED105202871BC4202D3E6
:103F500040F21B3066E10EB1287930552420641CF4
:103F60002871BC4202D34FF447705BE10EB128794F
:103F70003055641C85F804A0BC4202D340F21D30C9
:103F800050E10EB1287930551020641C2871BC42D4
:103F900002D340F21E3045E10EB1287930550120A0
:103FA000641C2871BC4202D340F21F303AE10EB1CA
:103FB000287930550520641C2871BC4206D340F294
:103FC00022302FE168010020702401000EB1287911
:103FD00030552420641C2871BC4202D340F22330A7
:103FE00020E10EB1287930550120641C2871BC42B3
:103FF00002D34FF4497015E10EB1287930550320F2
:10400000641C2871BC4202D340F225300AE10EB193
:104010002879305598F81600641C2871BC4203D3E7
:1040200040F22630FEE069E00EB1287930550420D8
:10403000641C2871BC4202D340F22930F2E00EB178
:10404000287930552420641C2871BC4202D340F2E8
:104050002A30E7E00EB128793055641C85F804B0A9
:10406000BC4202D340F22B30DCE00EB1287930554F
:10407000641C85F804B0BC4202D34FF44B70D1E00D
:104080000EB1287930550520641C2871BC4202D33A
:1040900040F22F30C6E00EB1287930552420641C40
:1040A0002871BC4202D34FF44C70BBE00EB12879AA
:1040B00030550620641C2871BC4202D340F23130D6
:1040C000B0E00EB12879305598F81400641C2871BE
:1040D000BC4202D340F23230A4E00EB12879305510
:1040E00098F81600641C2871BC4202D340F23330A9
:1040F00098E00EB128793055641C08E098F8161045
:10410000814204D058494FF44F70FFF749FCD9F869
:1041100004104846497889F80210514689F803A0EE
:104120008EE007202871BC4202D340F2473079E08C
:104130000EB1287930550520641C2871BC4202D389
:104140004FF452706EE00EB12879305599F8031093
:10415000641CD9F80400FEF783FCC9F80800007855
:104160002871BC4202D34FF453705BE00EB1287942
:104170003055D9F8040098F81410641C0078814276
:104180000BD103202871BC4202D340F2513049E0E8
:104190000EB128793055641C0FE098F81610814252
:1041A00006D185F804B0BC42F2D340F2563039E073
:1041B0002D4940F25A30FFF7F3FB40202871BC42F2
:1041C00002D340F25D302DE00EB128793055641CE9
:1041D00085F804A0BC4202D340F25E3022E00EB16A
:1041E00028793055D9F8040098F81410641C007828
:1041F00081420DD1D8F82000BC420078287102D34A
:1042000040F263300EE00EB128793055641C11E0A5
:1042100098F81610814208D185F804A0BC42F2D368
:104220004FF45A702860012070E50F494FF45B701D
:10423000FFF7B6FB99F803104846491C89F80310AC
:104240008278C9B29142FFF46CAF4178491C89F879
:10425000011099F8011099F800008142FFF4C1ADF6
:1042600040F27330DEE700007024010010B5040056
:1042700003D103492C20FFF793FB204610BD00001B
:104280007024010070B50546144808F06BF830B989
:10429000134800684068D0E9002100209047402280
:1042A00010491148FEF762FA38B1922815D0BDE8DE
:1042B00070400E4A4B21FDF71FB82846FEF79EFAC4
:1042C000044602460749054808F002F88442DBD05C
:1042D00006494220FFF764FBD6E770BD543E01005B
:1042E00060020020CC17002038160100042F0100C6
:1042F00010B508B1032010BD0846FFF707FC017890
:10430000202901D0062010BDD0F80210C160C1885C
:104310000182017A8174002010BD10B5FFF7A6FF5D
:10432000FFF7F4FB0021818281610162C1660167B0
:104330004167816700F12801816610BD2DE9FC47C6
:104340008146FFF793FFFFF7E1FB0446484602F082
:10435000B2FC07462F4800268068CDE90004E069DA
:10436000B0B1D4F878804546404500D205462A468B
:1043700004F12801A069FDF727F9206F2844C4E95A
:104380001C60A8EB0500E06660192830A06627E0F5
:10439000206F60672667E666216A304621B1626A4F
:1043A000A161C4E907202CE0A06130E004F118020B
:1043B000616A82E84300E26E1AB38A4215D3A36EA3
:1043C0000A461946FDF700F9E16EE069091AE1664F
:1043D000A16E0144A1666067002148460CF02AFCEA
:1043E000206A0028E2D1A66111E0A16EFDF7ECF889
:1043F000E06E2067E169091AE161A1690818A0610E
:1044000005D069463846FEF7B5FDBDE8FC870020BB
:10441000FBE70000B81201004360CA699A4204D366
:104420008A6902600B67CB6103E001F12802026038
:104430008B6700207047000070B5044681B10129E8
:1044400005D002291CD1BDE87040FFF71BBF0D4805
:1044500000684068D0E90021BDE8704001201047A5
:10446000FEF7CCF9054602460749084807F030FF39
:10447000854203D006496C20FFF792FA2046E2E716
:1044800070BD000060020020CC170020543E0100E7
:10449000042F01000249084490F9300070470000E1
:1044A0006811002070B581680446CA8C002A4DD07E
:1044B000088D00284AD0121A084495B200F12C0148
:1044C0006A1C2B30FDF780F8A068018D491E01851C
:1044D000A068C18C491EC1848DB308221C49206983
:1044E00006F004FA204604F0A0FE8188C0888142CC
:1044F00011D1A06817A2018D4318082120462C3342
:1045000005F0D8FC204600F0BDF929462046BDE85C
:10451000704002F0CDBA204600F0C0FA204600F00C
:10452000B1F9A0680BA2018D4318082120462C3355
:1045300005F0C0FC2046BDE8704000F079BA206963
:10454000BDE87040044A03A106F0D0B970BD000078
:104550008447000025730000F115010070B5044682
:104560008068C28C018D521A15042D0C48D0084465
:1045700000F12D012A462C30FDF726F8A068C18CE9
:10458000491EC184204604F050FE8188C0888142C3
:104590000CD1A0681BA2018D4318082120462C33A2
:1045A00005F088FC40F26946C4B913E0204600F0EB
:1045B00075FA204600F066F9A06812A2018D431832
:1045C000082120462C3305F075FC2046BDE87040DC
:1045D00000F02EBA0CA13046FFF7E2F9206918B9B5
:1045E00009A13046FFF7DCF9154A06A1206906F05B
:1045F0007DF96D1EA9B22046BDE8704002F058BAA0
:1046000070BD0000257300002E2E5C2E2E5C2E2E19
:104610005C2E2E5C2E2E5C2E2E5C636F6D706F6E8A
:10462000656E74735C6C69627261726965735C63F8
:104630006C695C6E72665F636C692E6300000000DB
:10464000F51501002DE9F041044680680F46D0F8C9
:104650005413028D11F00106C18CA1EB02039DB22F
:104660004FF4BF730BD0994201D9002D7ED0A068C2
:10467000018D0844002180F82C7066B113E0994246
:104680007CD8002DF3D0831803F12C012A46481C56
:10469000FCF79AFFEBE7A068C28C521C92B2C2846E
:1046A000A0682C3281544DB3204604F0BEFD8188B1
:1046B000C08881420ED1A06831A2018D4318082123
:1046C00020462C3305F0F6FBA81B81B2204602F0F1
:1046D000EFF921E0204600F0E1F9A06828A2018D61
:1046E0004318082120462C3305F0E4FB204600F057
:1046F0009FF90121204602F0BDFA0DE03EB1A0680D
:10470000C28C521C92B2C284A0682C3281543A46A8
:104710001CA1206906F0EAF8A168088D401C0885F4
:10472000204602F0B2F90028204603D0BDE8F0414F
:1047300002F0CAB903F028FB00281FD0204604F07D
:1047400074FD0546C088A988401A401E81B22046E3
:1047500002F03CF9204602F0B7F9E888A988401A2F
:1047600081B2204602F092FA288800E006E0401E5E
:1047700081B22046BDE8F04102F07CBABDE8F0818C
:10478000257300002563000070B50D46040003D1B9
:104790000BA1E920FFF704F9606818B908A1EA2025
:1047A000FFF7FEF86068006818B905A1EB20FFF775
:1047B000F7F86068294602682046BDE87040104757
:1047C0002E2E5C2E2E5C2E2E5C2E2E5C2E2E5C2E23
:1047D0002E5C636F6D706F6E656E74735C6C696276
:1047E0007261726965735C757362645C6170705F3D
:1047F000757362642E63000009B1062070470020C3
:104800007047000041680A6041684B6001490860D8
:10481000002070476002002070B51C0015460E464F
:1048200003D10649A020FFF7BBF82A4631460448C9
:1048300007F060FE2060002070BD0000042F010022
:10484000543E01000020704770B51C0015460E460E
:1048500003D10A49AD20FFF7A3F82A46314608489C
:10486000FDF7D2FF38B1082805D0112802D1002069
:104870002060002070BD2560FBE70000042F0100D0
:104880003816010070B504004FF4D77503D108A1A4
:104890002846FFF785F8206918B905A12846FFF7D3
:1048A0007FF82069BDE870400F4A10A106F01EB8DD
:1048B0002E2E5C2E2E5C2E2E5C2E2E5C2E2E5C2E32
:1048C0002E5C636F6D706F6E656E74735C6C696285
:1048D0007261726965735C636C695C6E72665F635A
:1048E0006C692E6300000000E915010025730000CB
:1048F0008268002182F82C10826811858068C1844A
:10490000704700002DE9F04781680546C88C0028F3
:104910007CD0088D002879D00446002603E0761C60
:10492000641EB6B2A4B284B104F12B028A5C202AC0
:10493000F5D0641E240406F10106240CB6B204D09E
:1049400004F12B028A5C202AF3D1804621462846B6
:1049500000F072FA07464146284600F06DFAA7EBD0
:104960000008A8682146B0F82890284600F052F8C0
:1049700007464946284600F04DF83F1AA868031933
:10498000C18C8A1B06F12C01194404F12C03184434
:10499000FCF71AFEA868C18C891BC184A868002195
:1049A000002F0485A868C28C104480F82C1028467B
:1049B00003DDB9B202F05EF905E004DAC7F10001E7
:1049C00089B202F075F82846B8F1000F04DD1FFA2D
:1049D00088F101F0FBFF05E004DAC8F1000189B2BB
:1049E00002F054F9284600F059F8A86808A2018D91
:1049F0004318082128462C3305F05CFA2846FFF7B7
:104A000041FF2846BDE8F04700F012B8BDE8F08746
:104A10002573000070B584680D46006800F0CAFD7B
:104A2000E18B2844B0FBF1F201FB1200401C70BD89
:104A300070B504004FF4DD7503D108A12846FEF7D8
:104A4000AFFF206918B905A12846FEF7A9FF206924
:104A5000BDE870400F4A10A105F048BF2E2E5C2E15
:104A60002E5C2E2E5C2E2E5C2E2E5C2E2E5C636F0A
:104A70006D706F6E656E74735C6C69627261726981
:104A800065735C636C695C6E72665F636C692E63F0
:104A900000000000E31501002573000070B504005C
:104AA0004FF4DA7503D108A12846FEF779FF206993
:104AB00018B905A12846FEF773FF2069BDE87040CC
:104AC0000F4A10A105F012BF2E2E5C2E2E5C2E2E4A
:104AD0005C2E2E5C2E2E5C2E2E5C636F6D706F6EC6
:104AE000656E74735C6C69627261726965735C6334
:104AF0006C695C6E72665F636C692E630000000017
:104B0000E015010025730000074A084BADF59E4DE6
:104B10000020134469469A1A01E00854401C82425E
:104B2000FBD80DF59E4D70470022002000200000AC
:104B30002DE9F04F4FF000099BB005464E464C461C
:104B400001F0CCFD284603F05BFBA868CA464FF491
:104B5000C07100F5D670FCF75EFDA86800F12C016D
:104B6000C28C00F5D670FCF72FFDA86800F5D67052
:104B70000BF05CF8A86800F5D67000F01BFDA96882
:104B8000401C4885284601F02DFF284601F07DFF96
:104B900010B9284601F098FFAA680C2304A911A8AF
:104BA0002C3204F075F90346119840B15BB16CA248
:104BB0000221284605F07EF91BB0BDE8F08F28469B
:104BC00001F082FFF8E76B496B480027A1EB000872
:104BD0000DF1100B13E008D368A000906CA2022125
:104BE0002846049B05F066F9E6E700EBC704606819
:104BF00001685BF82900FCF73CFD20B17F1C5E4892
:104C0000B7EBD80FE7D9207820B163A140F67D102B
:104C1000FEF7C6FE00201690A96848608860C8604C
:104C200008616168C86828B18AC9AA68C2E90370C6
:104C3000C2E90113606809F101044FF000088068BF
:104C40000390119884425FD25F465BF8240060A114
:104C5000FCF70FFDD0B157F824005EA1FCF709FD69
:104C6000A0B157F824000CF047F8B8B10020149018
:104C700014A8009057F8243022462846039901F0E2
:104C8000BBFD022840D014998A443BE0A868D0F8C4
:104C9000541341F00201C0F8541335E017A84246FE
:104CA000009008F1010816AB2146039801F078FA4C
:104CB000B8F1000F28D0169830B3016857F82400D7
:104CC000FCF7D7FC0028BCD11698C168B1B1BAF185
:104CD000000F0BD0284601F085FE284601F0D5FED6
:104CE00010B9284601F0F0FE3CA22CE090E88810B4
:104CF000AA682646C2E903C1C2E9013780684FF0BD
:104D000000080390641C9CE7BAF1000F10D0A8685B
:104D100000F5D671428D2C30FCF756FCA8680C23A8
:104D2000418DC184AA6804A911A82C3204F0B0F8FE
:104D3000A868036933B111980BEB8602811B2846E2
:104D4000984704E031A20221284605F0B3F8A8688C
:104D5000D0F8541321F00201C0F854132CE70000DE
:104D60006E6F74207465726D696E617465643A204B
:104D700025630A00603C0100D03B01003A20636FCC
:104D80006D6D616E64206E6F7420666F756E640069
:104D9000257325730A0000002E2E5C2E2E5C2E2E0D
:104DA0005C2E2E5C2E2E5C2E2E5C636F6D706F6EF3
:104DB000656E74735C6C69627261726965735C6361
:104DC0006C695C6E72665F636C692E630000000044
:104DD0002D6800002D2D68656C7000004572726FA3
:104DE000723A20726571756573746564206D756CB7
:104DF0007469706C652066756E6374696F6E20658A
:104E00007865637574696F6E730A0000506C656134
:104E100073652073706563696679206120737562BC
:104E2000636F6D6D616E642E0A0000008068D0F8BB
:104E30005403C0F3C000704770B584680D46006825
:104E400000F0B8FBE18B2844B0FBF1F070BD00002E
:104E50002DE9F0410446C0688EB00D46406800263A
:104E60003246006801A907F0C5F918B100200EB05C
:104E7000BDE8F0816DB1019807F08FF8A168D1F815
:104E80004403401CC1F8440300F0070001287AD114
:104E90000126204604F0C9F905468088012804D976
:104EA000401E81B2204601F0F1FE2888012804D975
:104EB000401E81B2204601F0FBFD2046FFF7E2FCD8
:104EC0002EB132A20221204604F0F4FF5BE04FF045
:104ED000010800230C2202A9019807F06DF804983C
:104EE0000590BDF80C00ADF81800BDF80E00ADF847
:104EF0001A008DF81D8002980C2700F0030001288D
:104F000002D0022818D032E002983B46860AC0F34D
:104F1000C2008DF81C00029808A9C0F38315AA00EE
:104F2000019807F049F82069009005AB2A4608A9C6
:104F3000304606F077FF1AE00298850DC0F3C200F4
:104F40008DF81C00082D01D22E4600E008263B46B5
:104F5000324608A9019807F02FF83744AD1B05AA7F
:104F6000314608A8236906F02BFE002DEAD10198EE
:104F700007F013F8E068002201A94068006807F014
:104F800039F90028A5D0012071E700004C6F737437
:104F9000206C6F6773202D20696E63726561736585
:104FA000206C6F67206261636B656E64207175654C
:104FB00075652073697A652E0A0000002DE9F041BD
:104FC0001E4617460D46040000D01DB909A1FD205C
:104FD000FEF7E6FC606818B906A1FE20FEF7E0FCCB
:104FE000606833463A4601680C692946A446BDE824
:104FF000F04160472E2E5C2E2E5C2E2E5C2E2E5CF9
:105000002E2E5C2E2E5C636F6D706F6E656E7473EA
:105010005C6C69627261726965735C636C695C6E19
:1050200072665F636C692E630000000070B5044611
:1050300040680E460025007A38B1A0680068FDF788
:1050400003FB08B108281AD10025BEB96068007AB0
:1050500050B90B4A0021A068FDF78CFA6168050081
:105060004FF00100087209D1A068224640F2666143
:105070000068FDF7C3FA0546FCF7FEFD284670BD43
:10508000ADFF000010B541680A6041684B604068A0
:1050900000210172FCF7F0FD024901200870002098
:1050A00010BD00006402002070B51C0015460E46BD
:1050B00003D106A16620FEF773FC2A463146002084
:1050C000FCF7DCFD2060002070BD00002E2E5C2E61
:1050D0002E5C2E2E5C2E2E5C2E2E5C2E2E5C636F94
:1050E0006D706F6E656E74735C6C6962726172690B
:1050F00065735C636C695C7274745C6E72665F632A
:105100006C695F7274742E63000000008068006830
:10511000FDF79ABA2DE9F05F5FEA030815460E46DF
:1051200003D11DA17420FEF73BFC2B480068C0078B
:105130000FD0DFF8A8B000244FF0050AB14600BF39
:1051400009EB04012A460020FCF7E6FD060003D027
:1051500011E0C8F8005018E09BF8000088B10A2759
:105160001F494FF47A4088477F1EF9D1AAF1010008
:105170005FEA000A0CD001218BF800103444AD1B0B
:10518000DED1002CE5D0C8F800400020BDE8F09F3B
:1051900000218BF80010F4E72E2E5C2E2E5C2E2EB4
:1051A0005C2E2E5C2E2E5C2E2E5C636F6D706F6EEF
:1051B000656E74735C6C69627261726965735C635D
:1051C0006C695C7274745C6E72665F636C695F724A
:1051D00074742E6300000000F0ED00E06402002013
:1051E000911601002DE9FC470025044640F2C677E0
:1051F00040F2C7780126019501AB0122694620469D
:10520000FFF7DCFE0198002837D09DF800007F28CA
:10521000F2D806F0DDFFA068417821B1012978D0ED
:10522000022977D1FBE09DF8001089460D2909D0AD
:105230000A2907D0D0F85423002161F38D12C0F859
:10524000542322E0D0F85423C2F387122AB1D0F8B5
:105250005423C2F387128A4217D1D0F8542361F342
:105260008D12C0F85423A068C18C41B12046FFF7CD
:105270005FFC0221204600F089F9BDE8FC87C0F8F8
:105280005053204601F020FCF3E74846B9F1090FDE
:1052900078D00ADCB9F1090F15D2DFE809F005FE74
:1052A000142B14FD14148E00A6E7172876D005DC05
:1052B0000C2830D0B9F1150F05D165E01B2815D0A9
:1052C000B9F17F0F77D0FCF727F9016811F80900D1
:1052D00010F03E0F90D02046FFF7A8FD00287ED0AA
:1052E0009DF800102046FFF7ADF985E7A168012081
:1052F000487081E7204601F075FB204601F0C5FBB0
:1053000010B9204601F0E0FB0221204600F03EF9F2
:1053100072E77BE07EE01CB98CA13846FEF740FBCB
:10532000206918B989A13846FEF73AFB954A96A13B
:10533000206905F0DBFA1CB984A14046FEF730FB7A
:10534000206918B981A14046FEF72AFB8D4A8EA13B
:105350001132206905F0CAFA8BA203212046236886
:1053600004F0A8FD2046FFF761FD00289CD0A3684B
:1053700085A2082120462C3304F09CFD204601F034
:1053800043FC39E70EE009E0204601F054FB2046DB
:10539000FFF7AEFA2046FFF775FA2DE72046FFF734
:1053A000B1FA29E72046FFF741FD00289DD02046AD
:1053B00000F006F920E709E011E02046FFF736FD8E
:1053C000002892D02046FFF76DF815E72046FFF73A
:1053D0002DFD002889D02046FFF7C0F80CE7A16812
:1053E0009DF80020C88CB0F5BF7F91D8088D0B18B0
:1053F000401C088583F82C20A068018D084480F8A3
:105400002C50A068C18C491CC184F5E69DF80010A1
:105410005B2901D0002100E002214170ECE600216F
:1054200041702046FFF702FD00283FF426AF9DF8AB
:105430000000422844D01BDC332872D012DC312813
:1054400078D032289DD1A16803204870A068D0F898
:105450005413D0F8542326EA010161F30002C0F886
:105460005423C9E634285ED041288AD1012128E09E
:1054700046285BD01FDC432827D044288DD1204606
:1054800003F0D3FE81460188007B401C814206D197
:10549000B9F80400012801E048E04EE081D001297C
:1054A0004FF00101204634D001F002FBA168088DC5
:1054B000401E0885A0E648283FD04C2885D1C5E786
:1054C0000021204602F080FD96E6204603F0ADFE66
:1054D000814601884088814205D1B9F80420B9F895
:1054E0000600824291D0B9F80A0081424FF00101D2
:1054F000204607D101F06AFAB9F80A10204601F0F7
:10550000D7FA01E001F0B6FBA068018D491C0185C6
:1055100072E601F0BBFBB9F80A10204601F0AAFBC5
:10552000C4E70EE006E0A16803204870204601F0C1
:1055300059FA61E6A16803204870204601F07BFA21
:105540005AE6A1680320487040E700002E2E5C2E2A
:105550002E5C2E2E5C2E2E5C2E2E5C2E2E5C636F0F
:105560006D706F6E656E74735C6C69627261726986
:1055700065735C636C695C6E72665F636C692E63F5
:1055800000000000F91501002573000010B5044665
:105590008068022901700AD12046FFF7A9F9204648
:1055A0002368BDE8104002A2032104F083BC10BDB3
:1055B00025730000002801D0FCF754B870470000A4
:1055C0002DE9F04F05460020A7B007460990064692
:1055D00020900690A868C18CA1F27F11494289B23F
:1055E0005FEA010973D0028D00F12C0100F5D6703D
:1055F000FBF7EAFFA8680024018D084480F8AC415D
:10560000FBF78AFF21900168A8680C23028D0244F1
:1056100092F82B20895CC0F85043AA6801F0010A77
:105620000BA918A802F5D67203F032FC0B98FFF70D
:10563000C1FF1FFA80F8A34619941A94189818B15C
:105640005044401EB0426DD8BAF1000F01D0002086
:1056500005E00BA850F82600FFF7ACFF80B28046AB
:1056600000241BA822460090641C19AB3146584602
:1056700000F096FD199800287DD001680BA84246DD
:1056800050F8260002F08EFF0028EAD01A987F1CFE
:10569000F0B119980068FFF78DFF069980B2884233
:1056A00000D90690B9F1000F2ED022A800901AABB5
:1056B00031465846099A00F073FD199801681A9806
:1056C00001EB08020168002001EB080316E043E04B
:1056D000601E209019980068FFF76CFF80B206905A
:1056E000A0EB080048450FDA80B20CE013F800C0C8
:1056F000614506D1401C0004000C10D0115C00294B
:10570000F4D1814500D98146601E099019981A90FC
:10571000A7D26AA20421284604F0CCFB2BE04FF666
:10572000FF70EEE700241BA822460090641C19AB12
:105730003146584600F034FD4CB1199800280BD082
:105740000BA850F826000BF0D7FAA0B907E05BA22F
:105750000421284604F0AEFB27B0BDE8F08F19986D
:1057600001680BA850F82600FBF783FF0028DAD168
:105770001998D0F808B0BBF1000F09D0199838B1CA
:105780001899761CB6B201EB0A008642FFF456AFB8
:10579000002FE1D0012F3AD000212846069A09F0C7
:1057A000ADF9209C0DF16C0A2246641C19AB314600
:1057B0005846CDF800A000F0F3FC19984246016865
:1057C0000BA850F8260002F0EDFE30B119987F1EAC
:1057D000069A0168284609F091F9002FE4D142A207
:1057E000032128462B6804F065FBAB683FA2082123
:1057F00028462C3304F05EFB284601F005FA1A987F
:105800004A4601682846414401F05CF8A4E79BF849
:10581000000038B11BA800901AAB31465846099ACF
:1058200000F0BEFC1A980068FFF7C4FE404506D0A1
:105830001A984A4601682846414401F043F82198E5
:10584000A9680268088D0B1893F82C30D25CD20737
:1058500015D0C98C8842D9D2284603F0E6FC84884A
:10586000A868018D491C0185284603F0DEFC80886C
:10587000A0421FD10121284601F0FCF96CE7D1F8C4
:105880005403C00711D0D1F8540320F00100C1F82F
:10589000540320212846FEF7D5FEA868D0F85413FB
:1058A00041F00101C0F8541356E720212846FEF7C5
:1058B000C9FE51E7284601F007F94DE7546162201F
:1058C00066756E6374696F6E3A20636F6D6D616E9D
:1058D000647320636F756E746572206F766572668F
:1058E0006C6F7765642E0A000A257300257300002B
:1058F00070B505460C0004D107A140F60920FEF75B
:105900004FF8002D06D0A068D0F8541341F02001C4
:10591000C0F8541370BD00002E2E5C2E2E5C2E2E6F
:105920005C2E2E5C2E2E5C2E2E5C636F6D706F6E67
:10593000656E74735C6C69627261726965735C63D5
:105940006C695C6E72665F636C692E6300000000B8
:1059500000238B540A460068194604F0ABBA0000D5
:105960002DE9F8431F4614468846050002D0B8F1D9
:10597000000F03D11EA1CE20FEF712F86868006860
:1059800018B91BA1CF20FEF70BF8002628E000BFB6
:10599000686808EB06016B460268D2F80CC0224624
:1059A000E04718B112A1D920FDF7FAFF0098844210
:1059B00003D20FA1DA20FDF7F3FF00980644241A62
:1059C00070B9A868017803290AD000BFD0F8541331
:1059D0008906FBD5D0F8541321F02001C0F85413E8
:1059E000002CD5D1002F01D000983860BDE8F88395
:1059F0002E2E5C2E2E5C2E2E5C2E2E5C2E2E5C2EE1
:105A00002E5C636F6D706F6E656E74735C6C696233
:105A10007261726965735C636C695C6E72665F6308
:105A20006C692E630000000070B5084C050009D0B9
:105A300010342168002907D008682060496828468A
:105A40008847F6E70834F4E770BD000054110020E1
:105A5000054A012120B1012805D19170FFF7E4BF6B
:105A600051700020FAE77047541100203EB50446FB
:105A700004F0EEFB38B103B02046BDE83040002210
:105A8000114604F075BA06490648CDE900010346FF
:105A9000029105A20821204604F00CFA3EBD000048
:105AA000B02F0100001000004170706C69636174D8
:105AB000696F6E20616464726573733A256420288F
:105AC000307825303858292C2073697A653A20259A
:105AD000642028307825303858290D0A000000004D
:105AE000F8B514460E46050004D121A140F20F106E
:105AF000FDF756FFA86818B1686808B1286820B992
:105B00001BA14FF48870FDF74BFF012E03D02846F0
:105B100004F098FB30B12846BDE8F84001221B494B
:105B200004F026BA022E08D0236801B02846BDE84A
:105B3000F04017A2022104F0BDB91CA16068FBF778
:105B400098FD68B11AA16068FBF793FD40B16068E9
:105B5000009019A202212846236804F0ABF9F8BD91
:105B60002846BDE8F8401BA2002104F0A3B90000BC
:105B70002E2E5C2E2E5C2E2E5C64656D6F5F636C2A
:105B8000695F636D64732E6300000000F410010010
:105B900025733A2062616420706172616D6574657D
:105BA0007220636F756E740A000000002D7400008F
:105BB0002D2D74657374000025733A20756E6B6E1D
:105BC0006F776E20706172616D657465723A202521
:105BD000730A000044756D6D792074657374206FCD
:105BE0007074696F6E2E0A00012904D0136804A234
:105BF000022104F05FB909490020486070470000A5
:105C000025733A2062616420706172616D6574650C
:105C10007220636F756E740A000000000800002097
:105C2000012904D0136804A2022104F043B90949F0
:105C3000012008707047000025733A2062616420DB
:105C4000706172616D6574657220636F756E740A40
:105C50000000000008000020012904D0136804A2FD
:105C6000022104F027B9094900200870704700009C
:105C700025733A2062616420706172616D6574659C
:105C80007220636F756E740A000000000800002027
:105C900070B514460D460646012902D004F0D2FA2A
:105CA00030B13046BDE870400022114604F060B9C2
:105CB0002368022D01D904A200E00AA23046BDE803
:105CC0007040022104F0F6B825733A206261642026
:105CD000706172616D6574657220636F756E740AB0
:105CE0000000000025733A20706C656173652073B5
:105CF00070656369667920737562636F6D6D616E3F
:105D0000640A00002DE9F04714460D46814604F070
:105D100099FA30B14846BDE8F0470022114604F038
:105D200027B9022D07D048462368BDE8F04728A2CE
:105D3000022104F0BFB8DFF8B48098F801001428FD
:105D400001D32BA206E06068FBF78CFC86B2212E03
:105D500002D32DA2022132E0002567680AE000BFCD
:105D6000FBF7DAFB0068795D405C10F0380F2BD050
:105D70006D1CEDB2B542F3D3284E002505EB45105E
:105D800030446168FBF775FC00281FD06D1CEDB234
:105D9000142DF3D398F80110454601EB4110491C2E
:105DA00088F8011030441EA16268FCF76DFA1D4BA3
:105DB000212269781948FBF7B9FB1BA2002148464C
:105DC000BDE8F04704F076B81EA2C3E72DA2C1E7F4
:105DD00025733A2062616420706172616D6574653B
:105DE0007220636F756E740A0000000008000020C6
:105DF000636F6D6D616E64206C696D69742072658E
:105E000061636865640A0000746F6F206C6F6E6771
:105E100020636F6D6D616E640A000000C404002091
:105E20002573000051FD0000636F6D6D616E64208D
:105E30006164646564207375636365737366756C10
:105E40006C790A0062616420636F6D6D616E64201D
:105E50006E616D65202D20706C65617365207573B2
:105E600065206F6E6C7920616C7068616E756D6510
:105E7000726963616C2063686172616374657273D7
:105E80000A0000006475706C696361746564206366
:105E90006F6D6D616E640A002DE9F84314460D467E
:105EA000804604F0CFF930B14046BDE8F843002207
:105EB000114604F05DB8022D03D014A2022123681C
:105EC0001DE00025184F194E09E000BF05EB4510F5
:105ED00038446168FBF7CDFB70B16D1CEDB2707892
:105EE0008542F3D36068009011A2022140462368E6
:105EF00003F0E0FFBDE8F883636814A2002101B05D
:105F00004046BDE8F04303F0D5BF000025733A20BA
:105F100062616420706172616D6574657220636F87
:105F2000756E740A00000000C40400200800002000
:105F300025733A20756B6E6F776E20706172616D9C
:105F4000657465723A2025730A00000064796E61F9
:105F50006D696320636F6D6D616E643A2025730A0D
:105F6000000000002DE9F04117460C46804601294B
:105F700002D004F067F930B14046BDE8F04100229C
:105F8000114603F0F5BF022C02D01BA23B6811E0C2
:105F90000024204E204D08E004EB44103044796882
:105FA000FBF767FB60B1641CE4B268788442F3D30A
:105FB0007B681AA24046BDE8F041022103F07ABF97
:105FC000132C14D06878001B00EB401204EB441033
:105FD000304400F12101FBF7F7FA687816A2401E61
