:1000000000600020B5020000DD020000DF020000F9
:10001000E1020000E3020000E50200000000000031
:10002000000000000000000000000000E7020000E7
:10003000E902000000000000EB020000ED020000F9
:10004000CD230000759D000015830000EF02000025
:10005000EF0200000000000059270000EF0200003E
:10006000EF020000EF020000EF020000DD6F000071
:10007000EF020000F9760000EF020000EF0200003E
:10008000EF0200004D100000EF020000EF02000040
:10009000ED100000EF020000EF020000EF02000090
:1000A000EF020000EF02000000000000000000006E
:1000B000EF020000EF02000000000000000000005E
:1000C0000000000000000000000000000000000030
:1000D0000000000000000000000000000000000020
:1000E0000000000000000000000000000000000010
:1000F0000000000000000000000000000000000000
:1001000000000000000000000000000000000000EF
:1001100000000000000000000000000000000000DF
:1001200000000000000000000000000000000000CF
:1001300000000000000000000000000000000000BF
:1001400000000000000000000000000000000000AF
:10015000000000000000000000000000000000009F
:10016000000000000000000000000000000000008F
:10017000000000000000000000000000000000007F
:10018000000000000000000000000000000000006F
:10019000000000000000000000000000000000005F
:1001A000000000000000000000000000000000004F
:1001B000000000000000000000000000000000003F
:1001C000000000000000000000000000000000002F
:1001D000000000000000000000000000000000001F
:1001E000000000000000000000000000000000000F
:1001F00000000000000000000000000000000000FF
:1002000010B5054C237833B9044B13B10448AFF350
:1002100000800123237010BD1802002000000000A0
:10022000D8FD000008B5034B1BB103490348AFF3E9
:10023000008008BD000000001C020020D8FD000066
:10024000154B002B08BF134B9D46A3F5803A0021A8
:100250008B460F461348144A121A0CF032F80F4B13
:10026000002B00D098470E4B002B00D09847002061
:10027000002104000D000D48002802D00C48AFF307
:1002800000800BF0A3FF2000290002F049FF0BF0D3
:1002900077FF00BF000008000060002000000000A1
:1002A0000000000018020020982300200000000039
:1002B000000000000649074A074B9B1A03DD043B78
:1002C000C858D050FBDC03F091F8FFF7B9FF0000ED
:1002D00028FE00000000002018020020FEE7FEE7D4
:1002E000FEE7FEE7FEE7FEE7FEE7FEE7FEE7FEE7E6
:1002F000054A4FF0A043105CD3F8043523FA00F010
:10030000C04300F0010070477CDB0000044B195C27
:100310004FF0A04201238B40C2F80C35704700BF5C
:100320007CDB0000044B195C4FF0A04201238B40A2
:10033000C2F80835704700BF7CDB00004FF0A043D7
:1003400010B44FF480204FF400344FF400214FF4E8
:100350008012C3F80845C3F80805C3F80815C3F8A8
:10036000082510BC704700BF4FF0A04310B44FF4F5
:1003700080204FF400344FF400214FF48012C3F872
:100380000C45C3F80C05C3F80C15C3F80C2510BCBC
:10039000704700BF074B4FF0A041185CD1F80435FF
:1003A0000122824022EA03001340C1F80805C1F887
:1003B0000C3570477CDB00000D2809D00E2809D0D1
:1003C0000F2809D010280CBF03204FF0FF307047D2
:1003D000002070470120704702207047C20730B4E8
:1003E0001AD54FF0A0430322C3F844274FF4003539
:1003F000C3F848274FF48024C3F84C274FF400215A
:10040000C3F850274FF48012C3F80855C3F80845C5
:10041000C3F80815C3F8082583070AD54FF0A04391
:100420000C22C3F83427C3F83827C3F83C27C3F895
:10043000402730BC704700BF704700BF00B583B095
:10044000044B0093044A402300F034F803B05DF8F5
:1004500004FB00BF5D0400003802002002B32DE958
:10046000F843114B114E8846144643F00109032707
:100470000025224608EB0501002002F09DFE034600
:100480001D444FF47A40E41A23B9337833B1C84796
:10049000013F06D001233370002CEAD1BDE8F88378
:1004A00070473770BDE8F88380DB0000340200201D
:1004B000704700BFF0B595B0002415460F460846BA
:1004C0001E4601F0BDFD384623460895082205A9C1
:1004D0001A9D09960D950A948DF82C400C9401F004
:1004E00009FE9DF814308DF81140DDE9061003F087
:1004F0000302012ACDE9020127D0022A04D038469E
:1005000001F0A2FD15B0F0BDBDF81650C3F3C20353
:100510008DF81030AD090826082D2C4628BF082478
:10052000334622460EA9384601F0E4FD2D1B214634
:1005300008AB02AA0EA8264400F03EFB002DEBD12A
:10054000384601F081FD15B0F0BDBDF81460059D81
:10055000C6F38316C3F3C204B2000EA938460823BB
:100560008DF81040C5F3952501F0C4FD08AB324667
:1005700028460EA9009302AB00F078FA384601F045
:1005800063FD15B0F0BD00BFF0B5324C85B004F589
:10059000836001F091F804F2144001F08DF8D4E981
:1005A000013703EA0702D01C04EB800114F8200095
:1005B00010F0040044D003F1020C0E7806F003069C
:1005C000012E654635D0022E02F1030621D004EB40
:1005D00086010028F1D104EB82020133D268019236
:1005E0003B4004EB830302F00302012ADE6829D0BA
:1005F000022A23D1BDF806309B090333360C05EBE4
:100600009305154801F064F800B16560304605B007
:10061000F0BD4B880CEB931307EA0302D11C03F1E6
:10062000020C14F82100654604EB810100F004007F
:10063000CFE70B88C3F383136344EDE70026E0E7BD
:100640009D1CC8E7BDF80430C3F38313360C1D446A
:10065000D7E700BF480300205C07002021B9124BF8
:1006600003EBC00000687047104A0F49521AD208C5
:1006700015D030B40E4D2B88834212D0002303E0F6
:1006800035F82340844205D001339A42F8D1002046
:1006900030BC704701EBC300006830BC70471046A7
:1006A00070470846F8E700BFDCFD0000FCFD0000D5
:1006B00014020020094B013903EBC00003290BD8B9
:1006C000DFE801F002080604022070474079704715
:1006D000007970470420704700207047DCFD00005F
:1006E0002DE9F843DFF8D890074600208846D9F86E
:1006F000084000F0ADFFD9E90132D9F80060134499
:1007000001339B1B012B56D809F21C4501212846B9
:1007100000F0BAFFFFF738FF0146284600F0B4FFAB
:10072000D9E90132D9F80010134401335B1A012BC7
:10073000ECD90A40033205230231002049F8223067
:10074000C9F8001000F08CFF00211C4800F092FF57
:1007500080F31000731C234009EB83030004344032
:10076000033440EA1740D86019F8243067F3C50312
:1007700009F8243039F824306FF3891329F824302C
:1007800059F8242068F39F221346012161F30103E5
:100790006FF3820349F8242009F8243099F82034B3
:1007A0001BB906E000F00EF818B1D9E900329A4200
:1007B000F8D1BDE8F8833146BBE700BF64070020ED
:1007C000480300202DE9F047914C002384B0C4F881
:1007D0001834BFF34F8FD4E9015605EA0602D31C43
:1007E00004EB830114F82330580719D527680B78D8
:1007F00003F00303012B43D0022B03D14B880235B6
:1008000005EB931506EA0502D4F81804D31C04EB93
:10081000830128B9AF4239D914F823305B07E6D4F5
:1008200004EB82026B1CD2680192334004EB830319
:1008300002F00302DB680293022A05F1020700F0CE
:100840008980012A26D0D4F810543DB12B6828465F
:100850009B689847EB681D68002DF7D16D486E4B7B
:100860006E49C01AC008000440F00200FFF738FFCC
:10087000D4E90030C01A18BF012004B0BDE8F087E9
:100880000B880235C3F383131D44BBE7676004B0D4
:10089000BDE8F087BDF804206148C2F38313062B3E
:1008A00028BF062363F3891202339900ADF80420B0
:1008B00001F084FB80460028C5D001F0C1FB002375
:1008C000082201A9404601F0E1FBBDF8043013F411
:1008D000707F00F09B806FF0010AAAEB050A0825E3
:1008E00006EA070103312B46042204EB810140464E
:1008F00001F0CCFBBDF8043007F101090AEB090255
:10090000C3F3831393424F4605F10405E8D8D4F8A6
:100910001834002B64D1D4F8105465B1EB685A79BF
:1009200028464146002A57D02B681B689847EB6839
:100930001D68002DF2D1404601F086FB002000F03A
:1009400087FED4F818340BB9C4F80490002000F0E6
:1009500087FE8DE7BDF8063031484FEA93194D46C2
:10096000502D28BF502565F38F1305F10801ADF810
:10097000063001F023FB804600283FF464AF26EAEE
:10098000070A0AF1010A01F05BFB4FEA8A0A002319
:10099000082201A9404601F079FB55452BD9EBB25D
:1009A000BAF1000F20D006EA0701A3EB0A030331D6
:1009B00004EB8101DDB252460823404601F066FB9C
:1009C0002A460AF108031749404601F05FFB09F186
:1009D000030907EB99099AE71D68002D9ED1AAE744
:1009E000404601F031FB43E72A4608230D494046C3
:1009F00001F04CFBEBE706EA0701033104EB810150
:100A00002A460823404601F041FBE0E7B9467EE76D
:100A100048030020ECFD0000DCFD0000A4DB00002A
:100A20000CFE000054030020044BD3E900239A423B
:100A300001D0FFF7C7BE0020704700BF4803002069
:100A400038B5094BD3F81044012583F820544CB134
:100A5000E3685D71236820465B689847E3681C681B
:100A6000002CF5D138BD00BF480300202DE9F04728
:100A700084B01D460C9C002394F80C802373EB88F3
:100A800081460E461746002B40D1297A05290ED003
:100A90006B7AA88873BB404B53F821A00021FFF765
:100AA000DDFD524603463D49204600F061FE062F1B
:100AB00009D8DFE807F0046A4249525D330049462D
:100AC000204600F055FE2B7A052B05D06B7A5BB9DA
:100AD0003349204600F04CFE204600F03DFE84F8ED
:100AE0000C8004B0BDE8F0872E4A2F49204600F064
:100AF0003FFEEDE7FFF7DEFD2C4B2B4953F820209E
:100B0000204600F035FE297AA888C4E7254A0092DD
:100B10002749284A204600F02BFEB6E7D6E9041004
:100B2000D6E900230390D6E902070291CDE9000738
:100B30004946204600F01CFEC5E74946D6E9002399
:100B4000204600F015FEBEE7B168D6E90023204636
:100B50000091494600F00CFEB5E7D6E90201D6E95E
:100B60000023019100904946204600F001FEAAE7CB
:100B7000D6E90371B068D6E900230291CDE90007F8
:100B80004946204600F0F4FD9DE73268494620467C
:100B900000F0EEFD97E700BF30DC000020DC000035
:100BA0002CDC000014DC00001CDC0000BCDB0000BE
:100BB000FCDB0000F4DB0000082900D970472DE9B8
:100BC000F04F1D46904600232A7B2B7385B0B8F862
:100BD0000630039207460E46002B7BD198F808108A
:100BE000052911D098F80930B8F80400002B63D11A
:100BF0003C4B53F821400021FFF730FD22460346CD
:100C00003949284600F0B4FDDFF8FCB0DFF8FC906D
:100C1000002405E03A5D013400F0AAFD082C09D05B
:100C2000A64249462846F5D85946013400F0A0FDB1
:100C3000082CF5D12D49DFF8D8B0DFF8D890284638
:100C400000F096FD00240CE017F804A0BAF17E0F26
:100C500023D92E2249462846013400F089FD082C6C
:100C600008D0A642F0D859462846013400F080FD4D
:100C7000082CF6D198F80830052B02D098F80930E6
:100C8000A3B91B49284600F073FD284600F064FD17
:100C9000039B2B7305B0BDE8F08F0BF0BFFA5044F7
:100CA0005246437813F0970FD3D0D3E7114A124935
:100CB000284600F05DFDE4E7FFF7FCFC0F4B0E4912
:100CC00053F82020284600F053FD98F80810B8F893
:100CD00004008DE7074A009209490A4A284600F0B5
:100CE00047FD7BE730DC000020DC0000ECDB00008F
:100CF0002CDC000014DC00001CDC0000BCDB00006D
:100D0000FCDB0000F4DB0000E8DB0000E0DB0000BF
:100D100028DC0000F0DB0000434B1978002900F0CC
:100D200081802DE9F04F002487B001258E4603E035
:100D30000134E4B2744560D23C4B27B21E6816F809
:100D400037C0ACF1200205FA02F9394ACCF1200390
:100D5000D2E9000125FA03F349EA030905FA0CF880
:100D600000EA080201EA0903134306EBC70BDFD0D0
:100D700021EA09032E4920EA08026046C1E900235E
:100D800001F0E0FC16F837C0ACF1200205FA02F2DF
:100D900001920199CCF12003C6B225FA03F3ACF11C
:100DA0002002194306FA02F30393224B0191D3E97F
:100DB0000023CDE9042305FA0CF30093CCF12001C4
:100DC000039B26FA01F10B43039306FA0CF30293FB
:100DD000DDE90467DDE9002316401F4032463B464B
:100DE000DDE90267BB4208BFB24209D00E4B0134B5
:100DF00093F800E0E4B274459ED307B0BDE8F08FED
:100E00009BF80110DBF80430A1F10101B1FA81F186
:100E10004909091AB1FA81F14909002BE6D0604667
:100E20009847E3E7704700BF6C070020A807002041
:100E3000A0070020980700202DE9F84F0646244817
:100E400000F0D2FBD8B9234F0123A6F1200103FA09
:100E500001FBC6F12002D7E9000123FA02F24BEAB6
:100E6000020B03FA06FA00EA0A0201EA0B03134333
:100E700007D020EA0A0421EA0B05C7E90045BDE8CE
:100E8000F88F304601F05EFC134ED6E90089C8B1F8
:100E900048EA0A0349EA0B049846A146D7E9002329
:100EA0004BEA03050D4B0A4819684AEA02044B460F
:100EB0004246C6E90023C7E900450022BDE8F84FD5
:100EC00000F044BB28EA0A0829EA0B09E6E700BF5C
:100ED00074070020A007002098070020700700205A
:100EE000042A36D92DE9F04182B00E460546144653
:100EF00001F0DEFA002836D01D491E4A1E4B0D6057
:100F00001E481F491C60167000230022741EC0E991
:100F10000023C1E90023E4B2EEB105EBC404194F8C
:100F2000083D4FF00008032601E0AC4213D0A3783F
:100F300020788DF806803A4601A98DF804608DF876
:100F4000053001F0BFFA083C0028EED002B0BDE841
:100F5000F081072070470C4A0C48002100F0E4FAA9
:100F600002B0BDE8F08101F05FFA0028C4D0EDE7DF
:100F7000A80700206C0700207007002098070020B9
:100F8000A0070020390E0000190D00009CDC0000B5
:100F900070B5084D2B785BB1074E002433680121F2
:100FA00013F8340001F06CFB2B780134A342F5D820
:100FB000002070BD6C070020A807002000B585B098
:100FC00000230390194601AA44F20100CDE9013340
:100FD00000F004F805B05DF804FB00BF10B572B670
:100FE000FFF72EFDFFF720FD0028FBD1104B114C21
:100FF0001149E41AE408240444F00100FFF770FBEF
:101000000E4B1B68DB0700D500BE44F002000C4904
:10101000FFF766FBBFF34F8F0A490B4BCA6802F418
:10102000E0621343CB60BFF34F8F00BFFDE700BF0B
:10103000DCFD0000ECFD0000A0DC0000F0ED00E0B5
:10104000ACDC000000ED00E00400FA05F8B5204A31
:10105000204B0024C2F84041C2F84441C2F8484144
:10106000C2F84C41C2F80041C2F804411B6833B3D6
:101070001949D2F804550A68AD1A1A6825F07F4557
:10108000AA4227460DD8197CDE69AD1A144419B15D
:101090001F74D3E9052090471EB133461A68AA424F
:1010A000F1D90E490E4A0B7812789A4208D00D49B0
:1010B0000D4A41F823404FF48013C2F80031F8BDC7
:1010C000531CDBB2022B08BF00230B70EFE700BFFD
:1010D00000100140CC080020C8080020C5080020EE
:1010E000C4080020BC08002000E100E02DE9F04F1A
:1010F0008C4A8D4913780978DFF85082994285B07F
:10110000D8F800A000F07B810133DBB2022B08BFCE
:10111000002386481370864A076852F823107B180C
:1011200023F07F4300240360534626462046A4460E
:10113000ABB11A688A4200F26581DC68C3F800C06E
:10114000891A1044DA6934B13D1825F07F45C3E9A6
:101150000154DE611E4613460124002BE9D1002C08
:1011600040F07C8101230093724B734FDFF8E091D4
:1011700043F00103019355464FF0000B46B3D6E907
:1011800001C13446F669694B6C481A68ACEB02033E
:1011900023F07F43834248D80B442360002201217F
:1011A000C4E90122E2612174002D5DD02A689A42CF
:1011B0004DD2284603E00A689A424FD20846C169D8
:1011C0009B1A0029F7D12360E161C461002ED6D1BA
:1011D00078783978884264D00B4603EB43034C1C83
:1011E000BA7807EBC303E1B28A421A79397004BFB7
:1011F00000213970022A9C6844D0032A38D0012A81
:10120000E8D1227C002AE5D1D3F80CC0C4F804C090
:101210001969A1605869E06099F800009B69A361B1
:101220000028B0D062609446ADE7A2EB0C0222F039
:101230007F428A4202D28B1A2360AFE70023012249
:10124000C4E90033A360E36122746DB12A68C8F871
:101250000040D31A2B60E56125468FE7D21A0A6059
:101260002360E161C461B1E7C8F80040254685E725
:10127000002DAFD000232B74ED69002DFBD1C8F8F1
:101280000050A5E74DB1AC422B4603D1E4E09442B7
:101290002FD01346DA69002AF9D10023237488423B
:1012A0009AD1BBF1000F01D1554553D0002D56D135
:1012B000234E244A1F4C4FF480334FF40031012752
:1012C000C2F880103C43C6F848334FF43C60C6F87F
:1012D00008337760A047154BB7604FF43C601D6042
:1012E000A047194B1D70002389F8003005B0BDE8F8
:1012F000F08FA34200F09180E0692168D861002856
:1013000000F086802A4603680B440360AA424FF02F
:1013100000033978787823741CBF15464FF0010B11
:10132000BDE700BFC4080020C5080020C808002091
:10133000BC080020C0DC0000AC070020FEFF7F00DE
:101340000010014000E100E0B9080020CC080020B6
:10135000B8080020009B002BC5D0002DA8D0434B1F
:10136000434A1C68D2F80465424FD5F800A039788A
:10137000331B23F07F43DD1CB9B93F493F4B4FF48A
:101380008030C2F844034FF00108C2F804034FF460
:101390000030C1F8800143F001030860C2F800800A
:1013A0004FF43C60984787F80080AA452CBF04EBB7
:1013B0000A0363192E4923F07F43C1F84035D1F861
:1013C0000425921B9B1B22F07F4223F07F430332B4
:1013D0009A4288D9294BD1F80425C1F8402543F019
:1013E00001034FF43C609847234B4FF40032C3F89D
:1013F0000021002389F8003005B0BDE8F08F0026F9
:101400000096B1E674BB521A1A6001230093ABE652
:10141000002339787878237441E71946EA69C8F8D7
:10142000002092B9CDE90231114BDFF840C0012014
:101430009860019B89F80000CCF800204FF43C60D4
:101440009847DDE90231D8F80020C8690968D861F9
:1014500000287FF458AF59E72946DFE7C8F8003085
:101460009A467FE6C8F800309A46CCE7C8080020C4
:1014700000100140B908002000E100E0C0DC0000DD
:101480002DE9F8431F4D204E204FDFF898804FF490
:1014900080334FF400324FF001090024C6F8802059
:1014A00047EA0907C5F848334FF43C60C5F80833EC
:1014B000C5F80490B847C5F808904FF43C60C8F8E8
:1014C0000040B847124A134B13491C601470134B69
:1014D000134A0C700B2114701C8099704FF4801209
:1014E000C023C6F8802186F814333260C5F8084559
:1014F00086F81133D5F80435C8F800302046BDE829
:10150000F88300BF0010014000E100E0C0DC0000F3
:10151000B9080020CC080020C4080020AC07002037
:10152000C5080020C8080020074B9B784BB132B19A
:1015300028B10368187C20B959745A617047072094
:1015400070470820704700BFAC0700202DE9F84322
:10155000224CA378002B35D0002833D0042934D96D
:1015600043697BB3437C0646012B4FF000000CBF60
:10157000884680461746894600F06AF86378A17865
:1015800022785D1CEDB2A94208BF0025AA421FD0F7
:1015900003EB430304EBC3030121114A9E6019715D
:1015A000D2F80425DA600020C3E904989F616570D1
:1015B00000F056F80B4B4FF48012C3F800210020C6
:1015C000BDE8F8830820BDE8F8830720BDE8F8836C
:1015D000002000F045F80420F2E700BFAC0700202F
:1015E0000010014000E100E070B5174DAB7823B367
:1015F00018B343690BB3002404740646204600F078
:1016000027F86A78A8782978531CDBB2984208BF7B
:101610002346994213D002EB420205EBC20202219B
:101620009660204611716B7000F01AF8074B4FF46A
:101630008012C3F80021204670BD082070BD2046EE
:1016400000F00EF8042070BDAC07002000E100E0BF
:1016500072B6024A1368013313607047D008002045
:10166000034A1368013B136003B962B6704700BFB9
:10167000D008002050E8002F0B4640E8003C9CF0CA
:10168000000FF7D11046704750E8003F03EB01020E
:1016900040E8002C9CF0000FF6D11046704700BFC8
:1016A00050E8003FA3EB010240E8002C9CF0000F43
:1016B000F6D11046704700BF012350E8002F42EAE0
:1016C000030C40E800C191F0000FF6D1604670476E
:1016D000002350E800CF0CEA030240E8002191F01B
:1016E000000FF6D16046704738B504460020FFF77A
:1016F000AFFFD4E900311A688A4215D9511E19602A
:101700002168A3680868258A12F8012CE4681B1A6E
:101710000879DBB2984205FB024400D20B7100202D
:10172000FFF79EFF204638BD0024F8E738B5054690
:1017300000200C46FFF78CFF2A681368591C1160C3
:10174000E9682A8A641AB4FBF2F41C700020BDE830
:101750003840FFF785BF00BF826842B110B504462C
:1017600043690168006998470023A36010BD704772
:101770000EB400B582B0039929B102AA04AB42F8B5
:10178000043D00F0A9F802B05DF804EB03B0704727
:101790002DE9F04F924683B051450F4605461E464F
:1017A000DDE90CB2C0F092800B464FF00108B3FBAC
:1017B000FAF39A4508F10108F9D9B04538BFB046A7
:1017C00012F00109A96802D1BBF1000F54D1012424
:1017D00002E0013E0AFB04F4012EFAD8B7FBF4F054
:1017E0008245F7D93B4E02E0A968B7FBF4F0335CC1
:1017F0002A680A2B04FB107702EB010E01F10100AD
:1018000029D0A8608EF80030D5E90131994202D381
:101810002846FFF7A1FFB4FBFAF4002CE4D1B9F19C
:10182000000F15D0BBF1000F12D0C34510D92024F2
:10183000AB682A68591CA960D454D5E901329A4290
:101840000BF1FF3B14D2BBF1000F01D0C345EFD128
:1018500003B0BDE8F08FA8604FF00D005054D5E9FB
:10186000011088421DD2296801EB000E0130C8E743
:101870002846FFF771FFE6E7930722D42024C345EB
:10188000A5D92B684A1CAA605C54D5E9013199425C
:101890000BF1FF3B10D2BBF1000F98D0C345F0D144
:1018A00095E728460193FFF757FFAA682968019B2F
:1018B000501C01EB020EA4E72846FFF74DFFA96874
:1018C000E9E7002E0CBF30242024D8E74FF00108B0
:1018D00073E700BFC8DC0000002900F0B9822DE9E1
:1018E000F04F054687B091460C460E78DFF8C8A643
:1018F0004FF00D0B13E0AB6828680A2E03F10102CC
:1019000000EB030100F04B82AA600E70D5E90132B2
:101910009A4280F01B812678002E00F01E8101344F
:10192000002E00F01A81252EE5D12346002713F85A
:10193000012B2D2A00F0E380302A00F0E4802B2ACE
:1019400000F0D4802A2A00F00D81A2F13006F1B215
:10195000092903D97DE2A1F130060346184606EBBA
:10196000860110F8012BA2F13004092C02EB410191
:10197000F1D92E2A00F002814FF00008013301E076
:1019800013F8012B02F0FB0168291C46F8D0253A18
:10199000532AC0D801A353F822F000BF871D0000CE
:1019A0001719000017190000171900001719000077
:1019B0001719000017190000171900001719000067
:1019C0001719000017190000171900001719000057
:1019D0001719000017190000171900001719000047
:1019E0001719000017190000171900001719000037
:1019F0001719000017190000171900001719000027
:101A00001719000017190000171900001719000016
:101A10001719000017190000171900001719000006
:101A200017190000171900001719000017190000F6
:101A300017190000171900001719000017190000E6
:101A400017190000171900001719000017190000D6
:101A500017190000171900001719000017190000C6
:101A600017190000171900006B1D0000171900005E
:101A700017190000171900001719000017190000A6
:101A80001719000017190000171900001719000096
:101A9000171900000F1B0000F11C000017190000AF
:101AA000171900001719000017190000F11C000099
:101AB0001719000017190000171900001719000066
:101AC0001719000017190000591C00001719000011
:101AD00017190000D11B000017190000B51B0000EA
:101AE00017190000171900006B1D000047F00407CC
:101AF0001C46234613F8012B2D2A7FF41DAF47F017
:101B000001071C46F5E747F002071C46F1E7D9F844
:101B100000301A1DC9F800201E78AB680A2E0CD1BF
:101B20002A68591CA96002F803B0D5E90123934241
:101B300003D32846FFF710FEAB682A68591CA9603A
:101B4000D654D5E901329A42FFF4E5AE2846FFF7B4
:101B500003FE2678002E7FF4E2AE2B7B23BB07B07A
:101B6000BDE8F08FD9F80020111DC9F800101668E3
:101B700062782E2A04F102007FF4FEAE5A78A2F1B8
:101B80003003092B00F2BD814FF0000808EB8808F4
:101B900002EB480810F8012FA2F13003092BA8F13D
:101BA0003008F3D90346E9E6284607B0BDE8F04F10
:101BB000FFF7D2BDD9F800301A1DC9F80020196806
:101BC0000197434600960A222846FFF7E1FDA2E668
:101BD000D9F800301A1DC9F80020D3F80080FB079F
:101BE00000F1E880B8F1000F00F0A18140460AF052
:101BF000D3FE0746BE4215D9A6B1202100E08EB122
:101C0000AA682B68501CA8609954D5E901329A4201
:101C100006F1FF3604D328460391FFF79DFD039993
:101C2000BE42ECD108F1FF3818F8016F002E3FF4E6
:101C300072AEAB6828680A2E03F1010200EB0301C3
:101C400000F09081AA600E70D5E901329A42EBD380
:101C50002846FFF781FDE7E7D9F80020131DC9F8F2
:101C60000030AB6829681768581C3022A860CA5435
:101C7000D5E90123934280F0E6802A68581C782138
:101C8000A860D154D5E90123934280F0D7800F2F6B
:101C900003D93A4612090F2AFCD84FF080560DE0BE
:101CA000AA6081F80080D5E901329A4202D3284621
:101CB000FFF752FD36093FF42EAEAB68B7FBF6F2E4
:101CC0001AF802802868B8F10A0F06FB127700EBB9
:101CD000030103F10102E3D1AA6000F803B0D5E9E2
:101CE00001329A4280F049812B6899180132D7E776
:101CF000D9F800301A1DC9F80020196881EAE1738B
:101D0000A3EBE173092B40F30E81AA480122A0FB4B
:101D100003C3DB08092B02F10102F8DC424513463C
:101D200038BF4346039307F00203002E40F095802E
:101D3000002B00F0B780B8F1000F00F0F680F80734
:101D400040F1B0800029C0F2FF807A0700F1C8801E
:101D500007F00303022B00F0A780CDE9006743469C
:101D60000A222846FFF714FDD5E5D9F800301A1DE0
:101D7000C9F80020196801974346009610222846AA
:101D8000FFF706FDC7E5AB682A68581C2521A86047
:101D9000D154D5E901329A42FFF4BDADD6E6AA602E
:101DA00000F803B0D5E901329A423FD229681144C4
:101DB0000132A9E54146A1EB080311F8017BD7B137
:101DC000AB68D5F800C00A2F03F101020CEB030049
:101DD00000F0AF80AA600770D5E901329A42EAD3D9
:101DE00028460391FFF7B8FC0399A1EB080311F80B
:101DF000017B002FE4D19E427FF68DAD202702E0CB
:101E0000002E3FF488ADA9682A68481CA860575482
:101E1000D5E90121914206F1FF3604D32846039308
:101E2000FFF79AFC039BB342EAD174E52846FFF71B
:101E300093FCAB6829685A1C194465E52846FFF7EE
:101E40008BFCAB6823E72846FFF786FCAB6814E7FA
:101E500070471846002623468BE5002920DB7A07C9
:101E60001ED41BB1B8F1000F3FF46CAFF8073FF57B
:101E700069AFBEB1039BB342BFF464AF2023AA682D
:101E8000501CA86028688354D5E90102824206F1FB
:101E9000FF3640D236B1039AB242F0D1164651E72E
:101EA000013EDEE700264DE7B8F1000F7FF455AFA5
:101EB000002E6AD0039BB342BFF44FAF3023AA6811
:101EC000501CA86028688354D5E90102824206F1BB
:101ED000FF3618D2002E58D0039AB242EFD13CE719
:101EE000AA68531CAB602B682B209854D5E90132AB
:101EF0009A42FFF42DAF28460491FFF72DFC049978
:101F000026E7034638E52846CDE90413FFF724FC0D
:101F1000DDE90413DEE72846CDE90413FFF71CFCD6
:101F2000DDE90413B6E70122F8E646460AE747462C
:101F300060E6AA600CF803B0D5E901329A4226D2D5
:101F40002B689818013245E7AA68531CAB602B68D0
:101F50002D209854D5E901329A42C1F10001FFF4D5
:101F6000F7AEC8E7AA6000F803B0D5E901329A429B
:101F700017D229681144013264E62846FFF7ECFBCA
:101F8000A9682B684A1C19448AE60026E5E628461B
:101F90000391FFF7E1FBA8682B680399421C1844E2
:101FA00018E72846FFF7D8FBAB6829685A1C194484
:101FB00048E600BFCDCCCCCCC8DC00002DE9F04118
:101FC000058ACE1C043D2E440746B6FBF5F6FFF706
:101FD0008BFB78B3F6B24FF48073013E0446C580A4
:101FE0000760838027D08046002509E06379AE42F0
:101FF00003F101036371C8F80000076080461AD03E
:102000003846FFF771FB01350028EFD16679721E63
:1020100014D02346013082421B68FBD11F684EB1A9
:10202000002523682146013538461C46FFF77EFB14
:10203000AE42F6D100242046BDE8F0812768EFE7E4
:1020400004300121FFF720BBF8B50121044604301C
:10205000FFF726FBC0B200B1F8BD6679721E12D040
:102060002346013082421B68FBD11F68002EF3D04B
:10207000002523682146013538461C46FFF756FBEC
:10208000AE42F6D1F8BD2768F2E700BF2DE9F8436C
:10209000C788467907FB06F6043E02EB030C0446AC
:1020A000664503F1040015468846B0FBF7F238BFD9
:1020B000F51A07FB120012B1013A2468FCD13E1A4E
:1020C000AE4228BF2E469DB14FF000090430AD1B33
:1020D0002044324608EB09010AF0CFF8AF42B14480
:1020E00024683E464FF0000028BF2E46002DEDD15B
:1020F000BDE8F8832DE9F843C7884679154607FB04
:1021000006F6043E05EB030C1A1D66450446884698
:10211000B2FBF7F038BFF51A07FB102110B10138F8
:102120002468FCD17E1AAE4228BF2E469DB14FF0E6
:10213000000904312144AD1B324608EB09000AF0C6
:102140009CF8AF42B14424683E464FF0000128BFDE
:102150002E46002DEDD1BDE8F88300BF10B570B15B
:1021600001280BD10D4C2369A0703BB1D3E90023AA
:102170000120226198472369002BF7D110BD074C3D
:10218000A36801226270002BF8D0D3E9002300205D
:10219000A2609847A368002BF7D1EFE7D40800208E
:1021A00038B50A4C23786BB909486360A360236192
:1021B000E36000F0A7F8054600F0B0F801232370B3
:1021C000284638BD8525284638BD00BFD4080020E4
:1021D0005D21000038B5154CA378054673B110B1E8
:1021E0004368012098470020FFF732FAE368013383
:1021F000E3600020BDE83840FFF732BA03F0FF008B
:10220000FFF726FA65B1226942B1954208D013461C
:1022100001E09D4204D01B68002BFAD12A602561A1
:10222000E368002BE2D100F08BF8DFE7D408002050
:1022300038B5084C0020FFF70BFAE368013BE36078
:10224000E56815B900F094F8A5700020BDE83840A5
:10225000FFF706BAD40800204FF08043D3F81804E3
:10226000C0F30040704700BF38B5154C6378054691
:1022700073B110B14368002098470020FFF7E8F9D8
:102280006368013363600020BDE83840FFF7E8B9B8
:1022900003F0FF00FFF7DCF965B1A26842B1954297
:1022A00008D0134601E09D4204D01B68002BFAD1F0
:1022B0002A60A5606368002BE2D100F065F8DFE7D3
:1022C000D408002038B5084C0020FFF7C1F9636836
:1022D000013B6360656815B900F068F8657000201F
:1022E000BDE83840FFF7BCB9D40800204FF0804368
:1022F000D3F80C0400F00110A0F10110B0FA80F046
:1023000040097047044A137923B901211060117103
:102310001846704785207047E8080020074B1A6868
:10232000D20704D4C021012283F800131A604FF0B1
:1023300080430122C3F81825704700BF00E100E088
:1023400010B4094B094A0021196083B01B6801933E
:10235000019C4FF0804102200123C1F80403136067
:1023600003B010BC704700BF0401004008000040EB
:10237000044B01221A604FF08042D2F81834DB037C
:10238000FBD470470C000040074B00221A6082B05B
:102390001B68019301994FF080430122C3F8042385
:1023A0001A6002B0704700BF00010040064B0122D6
:1023B0001A604FF08042D2F80C3403F00113B3F1ED
:1023C000011FF8D0704700BF0400004010B5134B48
:1023D0001A6882B062B1002018601B6800934FF049
:1023E000804201210E4B009CC2F808131B689847DD
:1023F0000C4B1A6882B100221A601B6801934FF0DF
:1024000080420221064B0198C2F808131B68012084
:1024100002B0BDE81040184702B010BD00010040F6
:10242000E80800200401004030B51D4C94F85850D5
:1024300083B095BB4FF0FF332946042204F15400CA
:10244000C4E90033C4E90233C4E90433C4E9063300
:10245000C4E90833C4E90A33C4E90C33C4E90E33D0
:10246000C4E91033C4E91233236509F02AFF0D4A89
:102470000D4B0E491D60C02082F8060340201060FD
:102480001B68019301984FF000430122284684F80D
:102490005820C1F8043303B030BD082003B030BD6C
:1024A000F008002000E100E07C6100400060004096
:1024B000034B93F85800003018BF0120704700BF4D
:1024C000F0080020F0B56C4B1C1894F93050002D2A
:1024D00068DA8E78C6F340069646002E5CD11D6AF7
:1024E000013500F0B58009240C2553F8247001371C
:1024F0005BD004F1010C53F82C70013700F0B3806D
:10250000A71CAF4246D253F82720013200F0AD801D
:1025100004F1030CAC453DD253F82C70013700F0A8
:10252000A28004F1040CAC4534D253F82C7001376E
:1025300000F0998004F1050CAC452BD253F82C70B7
:10254000013700F0908004F1060CAC4522D253F81C
:102550002C70013700F0878004F1070CAC4519D2CC
:1025600053F82C7001377ED004F1080CAC4511D221
:1025700053F82C70013776D004F1090CAC4509D220
:1025800053F82C7001376ED00A34AC4202D2DC6AA8
:10259000013409D00420F0BD1D68013567D0012445
:1025A0000825A2E70820F0BD0B241F1865B243F8E8
:1025B00024E087F83050002E51D08A78540714D484
:1025C000D6073BD44C784FF0A04600F5E072A4004B
:1025D00046F82240294EC40800F0070C375D01225E
:1025E00002FA0CF23A4332558A780C7812F0020261
:1025F00009D1083D2B44104693F8502042EA841438
:1026000083F85040F0BDAB0003F1804303F5C043B5
:102610000202D3F8101521F4473121F44071C3F8B8
:1026200010152404D3F8101504F4403402F4F852C1
:1026300022430A43C3F810250020F0BD820002F1B6
:10264000A042D2F8004724F00204C2F80047C1E7D4
:10265000082684F83060C3F820E0354634461C4430
:1026600084F84800A9E764469FE73C469DE70025BB
:102670001A6084F83050A0E7F008002044090020D8
:1026800070B42E4D2E1883B096F93030072B1CDD18
:102690002B4493F848309B09032B41D0012B14BFE6
:1026A0004FF440314FF40031800000F1A040D0F8E9
:1026B000002722F44032C0F80027D0F800370B433F
:1026C000C0F8003703B070BC7047DAB2072AF9D8F7
:1026D000980000F1804000F5C04003F14002D0F8BE
:1026E0001045920092B244F0010402F18042C0F819
:1026F000104502F5C04200200190019C10600029A5
:10270000E0D096F9302055F82220002ADAD00122B4
:102710000B4902FA03F3C1F8043303B070BC7047ED
:102720004FF0A043D3F81035C34013F0010F0CBF96
:102730004FF400314FF44031B6E700BFF0080020FD
:10274000006000404FF0A043D3F8103523FA00F0AA
:1027500000F00100704700BF2DE9F04186B0002372
:10276000A14A01931668012E00F054811E469F4B2A
:102770001A68012A00F05D819D4B1A68012A00F059
:102780006A819C4B1A68012A00F077819A4B1A687B
:10279000012A00F08481994B1A68012A00F0918186
:1027A000974B1A68012A00F09E81964B1A68012AFD
:1027B0000CD0954B1B68012B00F0A58116F0FF0F84
:1027C00015D1002E30DB06B0BDE8F0818F4AD2F87B
:1027D00004231706EDD500221A601A6804926033AC
:1027E000049A1B68012B46F0800600F08C81884F0C
:1027F00000240125A30003F18043354203F5C043C3
:102800004FEA45050BD0D3F8100557F82420D3F82C
:102810001015C0F30420C1F3014102B19047013407
:10282000082CE7D1002ECEDA00224FF0FF33CDE99D
:102830000223774C012602AF94F950305D1C2CD056
:10284000DBB223F0C00006AA4FEAD00C02EB0C0E5C
:1028500003F007021EF80C1C06FA02F211421CD00B
:102860002518990995F9303054F82330002B00F0E1
:102870009881032900F098814FEA800C0CF1A04C5C
:102880001EF8145CDCF800E71540CEF3014E40F072
:102890005C81BEF1030F00F0DE81002594F9513018
:1028A000581C2DD0DBB223F0C00006AA4FEAD00896
:1028B00002EB080E03F007011EF80C2C06FA01FCCF
:1028C00012EA0C0F1CD02218990992F9303054F8F2
:1028D0002330002B00F05B81032900F05B81820034
:1028E00002F1A0421EF8148CD2F800E718EA0C0F8F
:1028F000CEF3014E40F03681BEF1030F00F0A68109
:1029000094F95230591C2DD0DBB223F0C00006AA36
:102910004FEAD00802EB080E03F007011EF80C2C5A
:1029200006FA01FC12EA0C0F1CD02218990992F940
:10293000303054F82330002B00F03C81032900F0A4
:102940003C81820002F1A0421EF8148CD2F800E70C
:1029500018EA0C0FCEF3014E40F0E380BEF1030FF6
:1029600000F06E8194F953305A1C2DD0DBB223F065
:10297000C00006AA4FEAD00802EB080E03F00701D8
:102980001EF80C2C06FA01FC12EA0C0F1CD02218BF
:10299000990992F9303054F82330002B00F0ED8083
:1029A000032900F0ED80820002F1A0421EF8148C91
:1029B000D2F800E718EA0C0FCEF3014E40F0BC80CD
:1029C000BEF1030F00F00081002D3FF4FCAE4FF08C
:1029D000A043019AD3F8103593423FF4F4AE029A23
:1029E0000193039228E700BF0061004004610040AA
:1029F000086100400C61004010610040146100401B
:102A0000186100401C6100407C6100400060004093
:102A1000F00800209A49D1F8041311F0010170D098
:102A2000136013680493049B964B1A68012A7FF481
:102A3000A3AE934AD2F8042397077FF59DAE0022F8
:102A40001A601B680493049B8F4B1A68012A46F096
:102A500002067FF496AE8A4AD2F8042355077FF522
:102A600090AE00221A601B680493049B874B1A687F
:102A7000012A46F004067FF489AE814AD2F8042385
:102A800014077FF583AE00221A601B680493049B31
:102A90007F4B1A68012A46F008067FF47CAE784A1C
:102AA000D2F80423D0067FF576AE00221A601B68A8
:102AB0000493049B774B1A68012A46F010067FF4B2
:102AC0006FAE6F4AD2F8042391067FF569AE0022FB
:102AD0001A601B680493049B6F4B1A68012A46F026
:102AE00020067FF462AE664AD2F8042352067FF5D0
:102AF0005CAE00221A601B680493049B46F04006FB
:102B000053E60E4633E6654B00221A601B680593B8
:102B10004FF0A043059AD3F81035019346F00046D4
:102B20004CE6BEF1020F7FF41DAF032963D0002BEA
:102B30003FF418AF984715E7BEF1020F7FF444AF9A
:102B4000032969D0002B54D13EE7BEF1020F7FF478
:102B5000A4AE032900F091800025002B3FF49EAE27
:102B600098479BE6BEF1020F7FF4CAAE032956D008
:102B7000002B3FF4C5AE9847C2E603297FF424AF8B
:102B800017F8082042EA0C0207F808200BE703298F
:102B90007FF4B6AE17F8082042EA0C0207F80820C6
:102BA0009DE603297FF479AE17F80C50154307F81A
:102BB0000C5061E603297FF4D5AE17F8082042EAED
:102BC0000C0207F80820BCE60329BBD14FF4003EF5
:102BD000D2F800C72CF4403CC2F800C7D2F800C7B6
:102BE00001354CEA0E0CEDB2C2F800C7002B3FF4E1
:102BF000EEAE9847E8E64FF4403ED2F800C72CF41A
:102C0000403CC2F800C7D2F800C701354CEA0E0CB0
:102C1000EDB2C2F800C78AE74FF4403ED8E74FF460
:102C2000403ED2F800C72CF4403CC2F800C7D2F8AE
:102C300000C701354CEA0E0CEDB2C2F800C797E7A9
:102C400003297FF474AF4FF4003ED6E703298FD1F8
:102C50004FF4003EE5E703297FF47FAF4FF40035E2
:102C6000DCF8002722F44032CCF80027DCF80027FB
:102C70002A43CCF8002701256FE74FF44035EFE7F2
:102C80000060004004610040086100400C610040A9
:102C90001061004014610040186100407C610040F8
:102CA0000220FDF777BB00BF2DE9F0470D46064631
:102CB000FDF782FB03281ED8012D04461DD00ED33C
:102CC000022D18D11B4B00EB40041C44657895B1D4
:102CD000194B1B687BB12846BDE8F04718471748D9
:102CE000FEF782FC134B164A04EB44010B44125DC1
:102CF0009D78AA42EBD0BDE8F0870E4F4FEA40081E
:102D000008EB0003FA18FD5C53782BB9A044474444
:102D10000B4BBA781A55DAE7DFF8289007484A468D
:102D20004FF40041FEF712FC0028EFD189F8006053
:102D3000ECE700BFB0090020C409002070090020A2
:102D4000CC0900204C09002010B50078FDF734FBB9
:102D500003280BD8064B00EB40001844407828B1FC
:102D6000044B1B6813B1BDE81040184710BD00BFED
:102D7000B0090020C4090020B44B1B68DB0700D455
:102D8000704770B5B24DB34E2B7834786BB1B24BFF
:102D90001B7800202870002B4BD0FDF7C3FA0120D0
:102DA000FDF7C0FA0320FDF7BDFA172C40D8DFE885
:102DB00014F0B600F400F400DC000801CA001301AE
:102DC000EE0050004300500043006100180018005E
:102DD000180018001800660077008B009F005D0047
:102DE0005D009E48FEF700FCD4F11104054600F09A
:102DF0000081002840F0FD80012C13D0C82303FB84
:102E000004F44FF4FA704FF400430021C3FB0401B3
:102E10004FF47A7200230AF025FD2A4601468F48B6
:102E2000FEF794FB0220FDF771FA8B4B01221A701A
:102E300070BDFDF783FAB8E7012318462B70FDF744
:102E4000A9FA00224FF480418548BDE87040FEF7A2
:102E50007DBB012318462B70FDF79CFA002240F63B
:102E6000CD417F48BDE87040FEF770BBFDF77CFAAE
:102E7000347070BDFDF778FA0C23337070BD764B5B
:102E80001B78002B00F0BF800020FDF74BFA0120DB
:102E9000FDF748FA0320FDF745FA1223337070BDA1
:102EA0006D4B1B78002B00F0B1800020FDF73AFA43
:102EB0000120FDF737FA0320FDF734FA0020FDF773
:102EC00025FA1323337070BD634B1B78002B00F081
:102ED000AD800020FDF726FA0120FDF723FA03203C
:102EE000FDF720FA0120FDF711FA1423337070BDAD
:102EF000594B1B78002B00F083800020FDF712FA5D
:102F00000120FDF70FFA0320FDF70CFA0020FDF772
:102F1000FDF90120FDF7FAF91523337070BD4E4B12
:102F20001B78002B00F08A800020FDF7FBF90120C0
:102F3000FDF7F8F90320FDF7F5F94948FEF754FBD2
:102F40000023337070BD0020FDF7D2F9002860D057
:102F50000020FDF7E7F905233370002241F69A11AE
:102F60003F48BDE87040FEF7F1BA0020FDF7C0F918
:102F700000285ED00020FDF7D5F946F266610323F4
:102F8000337000223648BDE87040FEF7DFBA0020FB
:102F9000FDF7BCF90723337070BD0020FDF7A8F9D9
:102FA000D0B30020FDF7BEF9022C4EF2666118BFC7
:102FB0004FF40031347000222948BDE87040FEF71C
:102FC000C5BA0020FDF794F9D8B30020FDF7AAF99F
:102FD0004FF400310423D3E70020FDF7DBF906238B
:102FE0003370002240F6CD411D48BDE87040FEF729
:102FF000ADBA0220FDF796F9174B00221A7070BD8A
:10300000FDF79CF982E7FDF799F946E7FDF796F998
:1030100054E7FDF77BF99EE7FDF778F943F233318A
:1030200041F69A13022C08BF1946C3E7FDF786F94B
:1030300058E7FDF76BF941F69A11A0E7FDF77EF925
:103040007BE7FDF763F943F23331C3E7BC090020A6
:10305000C0090020C80900204D09002050090020A7
:103060009009002038B5244B244A1960830710606A
:1030700000F0010503D4CDB92C46204638BD204BC5
:1030800020480E240F2210211C701124DA7099712F
:103090005C7240F266620421FDF722FF0446B8B17B
:1030A00015B10120FDF79AF9204638BD0120FDF742
:1030B00095F9154A15480021FEF736FA044600280E
:1030C000F2D1134A13480121BDE83840FEF72CBA6B
:1030D000FDF75EFF04460028E2D101460E4A0F4884
:1030E000FEF722FA0446002DDED00120FDF776F926
:1030F000002CD9D1DDE700BFC4090020BC090020A5
:10310000B0090020F0DC0000792D000018DD00007F
:10311000A12C000010DD0000492D000014DD00008E
:1031200038B5FEF7ADF908B1FDF748FF00230120DF
:103130004FF0A041032204E015F4F01F18BF41F83E
:1031400024200133202B00FA03F503F5E074F3D1BA
:103150004FF0A0434FF4F0110022C3F808150120EE
:103160001146C3F80C25FFF77DFF08B1FDF726FFD8
:10317000104C00250021084604F076FF02F095FD72
:10318000206000F02DFA09E0206803F0C7F92068FC
:1031900004F08EFF206803F0CDF940B104F082FF07
:1031A0000028F1D0206802F084FD2560E2E720BF0E
:1031B000F4E700BFD00900202DE9F84F4400DFF804
:1031C0005CB126180BEBC6068146F76A012F8A46CA
:1031D000904667D03DD3022F30D100F1010909EBB1
:1031E0004909756A4FEAC9090027B36A346AAB42D4
:1031F00003F1FF329CBF1B1903F1FF33A4EB05045D
:103200008CBF531B5B1B0BEB0902444528BF444694
:103210009C42506828BF1C4628445146224609F06B
:103220002CF8336A25449D422744A8EB0408A244A5
:1032300008D07562B8F1000FD7D100E000273846FA
:10324000BDE8F88F00231D467362B8F1000FCCD1A2
:10325000F5E7B36A756AAB429CBF326A9B18013BC3
:103260005B1B9845EBD8044400F101090BEBC40447
:1032700009EB49090BEBC90B266ADBF80400761B46
:10328000B045284443D33246A8EB060508F0F5FFC5
:103290000AEB0601DBF804002A4608F0EEFF474679
:1032A0006562CCE7D6E90825B76AAF4298BFBF1878
:1032B000461C013F06EB46067F1B0BEBC606474547
:1032C00028BF47467068A2EB05084745284412D33B
:1032D000A1444246A7EB08050BEBC90B08F0CDFF54
:1032E0000AEB080170682A4608F0C7FFCBF82450A3
:1032F0003846BDE8F88FA1440BEBC90B3A463D4474
:1033000008F0BBFFCBF824503846BDE8F88F4246A2
:10331000454408F0B2FF4746656290E7081B00206D
:103320002DE9F0412B4C94F800C00546884616461E
:103330001F46BCF1000F23D02369AB4246D90020C1
:10334000FEF786F95DB92A46154404EBC504069BD1
:10335000E3620020FEF784F90020BDE8F0816B1CD9
:1033600003EB4303DB006A00511904EBC10144F88D
:103370000380234400200F625E6088624862E3E7B6
:10338000154B1648A3610222C4E904224FF40071D0
:10339000134AA3641023C4F828C02365C4F824C0CA
:1033A000C4F82CC0C4F858C0C4F854C0C4F85CC0F9
:1033B000E0612162E2640B49E01D09F0E5FA0A4987
:1033C000204609F0E1FA2023A371B5E74FF0FF3062
:1033D000C3E700BF081B00201CDD0000E40900203B
:1033E000D409002028DD00002CDD000030B4524B51
:1033F00052481A68524B534D534C4FF08041C2F320
:10340000423202604FF080520020C1F80C01C1F836
:103410001001C1F83805D2F80404C3F82005D2F829
:103420000804C3F82405D2F80C04C3F82805D2F820
:103430001004C3F82C05D2F81404C3F83005D2F8F0
:103440001804C3F83405D2F81C04C3F84005D2F8B8
:103450002004C3F84405D2F82404C3F84805D2F880
:103460002804C3F84C05D2F82C04C3F85005D2F850
:103470003004C3F85405D2F83404C3F86005D2F818
:103480003804C3F86405D2F83C04C3F86805D2F8E0
:103490004004C3F86C05D2F84424C3F870252B68A7
:1034A00003F04F032360D1F80034DB0744BF6FF013
:1034B0000103C1F800344FF01023D3F80022002A92
:1034C00008DBD3F80432002B04DB204B204A1A60BF
:1034D00030BC70471F4B0122C3F80425D3F80024E9
:1034E000002AFBD04FF0102315221A49C3F80022FE
:1034F000D1F80034002BFBD04FF010221521154BD2
:10350000C2F80412D3F80024002AFBD0002211498B
:10351000C3F80425D1F80034002BFBD0BFF34F8F44
:103520000D490E4BCA6802F4E0621343CB60BFF34F
:103530004F8F00BFFDE700BF440200103C05004074
:1035400000C0004058020010E40E004008000020B7
:103550000090D00300E0014000ED00E00400FA0517
:1035600038B504460D4600F05BFA04F5537104F5D6
:103570004C7000F04AF9234604F57671154A04F5BB
:103580004E7000F09CF904F25233C4F84C3304F24C
:10359000DE328023A4F85033C4F8D82300234FF43C
:1035A000007284F8D43384F8D533A4F8DC2384F88B
:1035B000E03529462346084A04F2E45002F065FF4C
:1035C00022460649201D01F0FDFD04F0EBFD2046DA
:1035D00038BD00BFED370000E336000013360000B1
:1035E00010B5054C01462046FFF7BAFF00F0ACFAD3
:1035F000844200D0FEE710BDE80B0020D0F84C2339
:1036000000F252339A4203D100F2E45002F060BF5C
:103610007047FFF7F3BF2DE9F8430446051D00F599
:103620004C764FF002080127284601F0D6FE94F8A8
:10363000D43390B1022B18D1012B21D3022BF3D11B
:10364000304600F01DF980B994F8E03584F8D403D1
:10365000002BE9D084F8E005E5E7012BEDD194F8E3
:10366000D513304600F0DEF8F8B1D4F84C1304F26C
:103670005230091A89B291B304F028FE78B3FEE7FC
:10368000204600F067FA08B104F05AF9204600F02D
:103690006BFA0028E9D1304600F0BBF80028E4D1ED
:1036A000284601F0E6FE84F8D473284601F0F6FEC1
:1036B00028B9284601F0FBFE84F8D503CFE794F83B
:1036C0009890284601F0C4FFB9F1000F04D094F897
:1036D00098300BB984F8E07584F8D483B0E7BDE87E
:1036E000F88308B500F030FABDE80840FFF793BF53
:1036F00000F25233C0F84C338023A0F8503300F26C
:10370000E45002F0E5BE08B500F01EFA18B1BDE8BD
:103710000840FFF7EDBF08BD38B504460D4600F080
:1037200013FA38B12A46214600F54E70BDE83840FC
:1037300000F0CEB838BD0000F0B50C46A1B016467A
:103740001F4600F01BFA2346194A1A4D802168468D
:1037500009F0DCF8684609F01FF9694602460020C6
:1037600001F0D6F80024BC42A0B20ED0292C0BD018
:10377000A4EB840104EB4400335D2A4680316844A5
:1037800009F0C4F80134EEE7204600EB4000C0F138
:103790008001094A684409F0B9F8684609F0FCF864
:1037A0000DF10101421E002001F0B2F821B0F0BD80
:1037B00034DD000048DD00004EDD000038B5D0F8F3
:1037C000D83300F2DE355B1B04469BB251B91A4672
:1037D000294600F0C0FF4FF40073C4F8D853A4F892
:1037E000DC3338BD2A46FFF7A7FFF4E7FFF7E6BF53
:1037F000838843B103685A1C026019708388013BB7
:10380000838000207047032070470022016082807F
:10381000704708B54FF6FF7383807E210068FFF77D
:10382000E7FF08BD38B57E2905460C4600680AD872
:103830007D2903D2112901D0132906D18388012BB8
:1038400008D8032005E0F829F7E72146FFF7D0FF65
:1038500040B138BD7D21FFF7CBFF84F020012868FF
:10386000FFF7C6FFAA88054B5440E4B2002033F8A6
:10387000143083EA1223AB80EBE700BF52DD000077
:103880002DE9F04186880368F543ADB2E9B20446FC
:103890001F68B3F80480FFF7C5FF48B9290A20461E
:1038A000FFF7C0FF20B97E212068FFF7A1FF20B1FC
:1038B00023681F60A3F80480A680BDE8F08130B5BE
:1038C00000250570C0E90112C0E9033530BD0000D4
:1038D0002DE9F843374E04460D468F184FF0020885
:1038E000AF4265D0237815F8011B012B24D01BD3E0
:1038F000022BF5D16068B0F80490B9F1000F50D0F8
:10390000B4F810C081F0200181EA0C02D2B236F87E
:10391000123083EA1C232382FFF76AFF638A013394
:10392000638201232370DBE77E29D9D10123237031
:103930004FF6FF732361D3E77D2917D07E2918D076
:103940006068B0F80490B9F1000F2AD0B4F810C044
:1039500081EA0C02D2B236F8123083EA1C232382A9
:10396000FFF746FF638A01336382B9E784F800807A
:10397000B6E7638A002BDBD0012B10D9228A4FF2E5
:10398000B8039A420BD163681A68023A1A609A889F
:1039900002329A800021D4E902309847C8E7062114
:1039A000F9E7A368E0680321984784F8009097E757
:1039B000BDE8F88352DD000021282CD8DFE800F0B4
:1039C0002E1113152B17191B2B2B2B2B1D1F2123EE
:1039D0002B2B2B2B2B2B2B27252B2B2B2B2B2B2B41
:1039E0002B29012070470E2070470B2070470C20B8
:1039F0007047092070470320704702207047042059
:103A00007047112070471220704713207047142010
:103A100070471520704700F58040704700207047C0
:103A20002DE9F0410646044646F8041B4FF40072A7
:103A3000884600F1D101304601F0B7FB002526652C
:103A400004F1540304F17402C3E9005508339A42A7
:103A5000FAD1A4F87450C4E91E5504F1800001F0B5
:103A60003EFE344BC4F8A030C823A4F8A43004F1BF
:103A7000AC074FF6FF73A4F8A8302F4A84F898508B
:103A80002346C4F89C5084F8A65084F8A7504146B9
:103A9000384602F0FAFC00230022C4E92E23C4E9D0
:103AA0003023042384F8C830244BC4F8B4501B6876
:103AB000C4F8CC304FF47F43A4F81633236884F85D
:103AC000D05084F8D15284F8D25284F8D35284F87A
:103AD000105384F8115384F8125384F8135384F864
:103AE000145384F8155384F81853C4F81C53C4F8BD
:103AF0002053C4F82453C4F8285384F82C5303B932
:103B0000FEE70F4B0F491C602246304601F05DFB7B
:103B10003C22002104F5357008F0D3FB7722002108
:103B200004F1B80001F0C2FF384602F0D1FC204693
:103B3000BDE8F08100F8FF07D13E000060DF000023
:103B4000D8110020373F0000014B1868704700BFB4
:103B5000D811002090F8C830042B1ABF90F89800B4
:103B600080F001000020704790F8C830012B06BF9C
:103B700090F8980080F0010000207047D0F81C33C6
:103B80000133C0F81C3370472DE9F843994690F88B
:103B9000143304469046002914BF0F46702713B112
:103BA0000D20BDE8F88300F1B8053946284602F03B
:103BB00013F80028F4D194F8D22294F8D3329A4220
:103BC0000AD00B220021284601F070FF04F1AC005E
:103BD00002F07EFC0320E4E704F150063B46062297
:103BE0008021304601F02FFF48B91FFA89F2414683
:103BF000206D01F003FD10B9304601F007FF0328E6
:103C0000CFD1DEE70138C0B204289ABF014B185C5F
:103C1000002070475BDF0000F8B511F00F0508D1F8
:103C2000022A04D11A462946B83001F03FFF28463F
:103C30000CE090F8D36290F8D272F41B0E2C06DDE3
:103C4000B8300E22002101F031FF0320F8BD90F8BA
:103C5000D142AC4217D0BE4215D93C460E2C02D9F7
:103C60000F3CE4B2FAE7B43400EB840494F804C0E7
:103C70001CF0100F0DD00CF00F0EAE4509D16FF3F4
:103C8000041C84F804C034460E2C05D90F3CE4B261
:103C9000FAE70137FFB2DEE7B43400EB8404013603
:103CA000257961F30305E9B241F0100162F3461191
:103CB0002171626863F3DE12626080F8D3620020D3
:103CC000C4E713460222FFF7A7BF38B511F0300F43
:103CD00000F1500408BFC0F89C20154600230622BE
:103CE000204601F0B0FE48B92946204601F0F3FD18
:103CF00020B92046BDE8384001F088BE38BD2DE926
:103D0000F74304460E46014668469146984600F041
:103D10000FFEDDE900570DB9F90717D504F150087A
:103D20004B4606223146404601F08DFED8B97B1045
:103D3000FA0704EB030044BFE3585D59A84790B964
:103D4000404603B0BDE8F04301F060BEB8F1000F9B
:103D500007D00D223146204603B0BDE8F043FFF7FF
:103D6000B4BF4246F6E703B0BDE8F08370B5044641
:103D7000002694F8D25294F8D332AB4237D0B435FF
:103D800004EB85021379D90616D404EB85052B794B
:103D90006FF304132B7194F8D2320133DBB20F2B83
:103DA00084F8D232E5D194F8D33284F8D2620E2B63
:103DB0001AD90F3BDBB2FAE7C3F30301526803F0F1
:103DC0006003402B41F08001C2F3D71205D1204699
:103DD000FFF77BFF0028D8D070BDB3FA83F35B09EF
:103DE0002046FFF78CFFF5E784F8D332C1E70020C7
:103DF000F2E700002DE9F04FD0E92E23134385B000
:103E0000044651D0B83001F04EFE2F4F01900025EE
:103E1000019AEBB2934247D2D4E92E03C5F12001B7
:103E200003FA01F1A5F1200220FA05FA23FA02F2C1
:103E30004AEA010A4AEA020A00230AF0010213438D
:103E4000A5F12003C5F12006029301D10135DFE77A
:103E50000C236B43D919DA5962BB4A68772A09D116
:103E60002068039203F052FD082898BF174B039A6D
:103E700098BF1A5C80212046FFF727FFA0B9029A5D
:103E8000012303FA02F923FA06F603FA05F8D4E946
:103E90002E2349EA060922EA080023EA090150EA2A
:103EA0000103C4E92E01D1D1012384F82C3305B0DC
:103EB000BDE8F08F94F82C33002BE0D00123802153
:103EC0002046FFF71CFFD9E764DF000052DF000047
:103ED000014B1868FFF78EBFD811002010B590F87D
:103EE0009830044633B1D0F8CC308B4204BF002365
:103EF00080F898302046FFF739FFD8B994F8D010F1
:103F000099B101230C222046FFF7F9FE90B994F8ED
:103F1000C83084F8D000042B07D0201D01F05BFAD4
:103F20000123C4F8CC0084F898302046BDE8104046
:103F3000FFF760BF10BDFFF7D1BFF8B500F1500427
:103F400005462046069EBDF81C7001F07CFD50B968
:103F50003A463146286D01F051FB20B92046BDE8B4
:103F6000F84001F053BDF8BD2DE9F04F042B87B0A8
:103F700004460F46924602D0052B16D0FEE70146B6
:103F800004A800F03DFEDDE904654FF0070905F0E7
:103F9000010B9EB9BBF1000F10D10D22394620460E
:103FA000FFF78FFE07B0BDE8F08F014604A800F0D0
:103FB00047FE4FF00809DDE90465E8E704F18008F1
:103FC000404601F04AFC0DF10A0203A9404601F007
:103FD00025FC404601F048FC6D10002384F81433A2
:103FE0006019BBF1000F01D063599E59B0470123FE
:103FF00084F81433054618B1FFF7DEFC0246CDE71E
:10400000BDF80A300193039B00934A465346394654
:104010002046FFF792FF0028C4D02A46BEE708B525
:104020000022FFF74EFE08BD38B50446006801F0D7
:1040300042FE722280212046FFF747FE054648B126
:1040400004F1B8007722002101F030FD04F1AC004A
:1040500002F03EFA284638BD30B5C3B004460D46DE
:10406000002301A98030019301F0BAFB40B1FFF7B2
:10407000A3FC294602462046FFF727FE43B030BD89
:104080008DF80701FF2202A90198503401F094FE37
:104090004FF46F5306222946204601F0D4FC002835
:1040A000ECD102A9204601F051FC0028E6D12046BF
:1040B00001F0ACFCE2E710B50446006801F005FE33
:1040C0000146206DBDE8104001F087BA10B50446E6
:1040D000006801F060FE0146206DBDE8104001F06F
:1040E0007CBA000037B502A90023054641F8043D1B
:1040F000803001F04EFB044690B99DF8041028680A
:1041000001F04BFE044658B9286801F0DEFD38B1D5
:1041100095F8123323B10449286801F0E1FD044603
:10412000204603B030BD00BF454D000010B5044629
:10413000006803F049FD002818BF0221206D08BF68
:104140000021BDE8104001F048BA37B502A90023AC
:10415000054601F8013D803001F0D9FA044650B916
:104160009DF807301BB1022B08D8012100E0014661
:10417000286803F02BFD204603B030BD0724FAE782
:1041800010B5044654F8500B01F00AFE01462046D3
:10419000BDE8104001F075BB13B504460DF10601F2
:1041A000803001F0E2FA20B9BDF80610206801F075
:1041B000F9FD02B010BD10B50446006801F0F5FD30
:1041C00008220146206DBDE8104001F017BA13B572
:1041D0000822044601A9803001F0F2FA18B90199C9
:1041E000206801F0E4FD02B010BD10B5044654F89B
:1041F000500B01F0DFFD01462046BDE8104001F004
:1042000040BB90F81213006D01F0E7B937B502A971
:104210000023054601F8013D803001F088FA04468C
:1042200078B9286801F051FD38B19DF80730286849
:1042300053B1074901F054FD04469DF8073085F855
:104240001233204603B030BD01F044FDF4E700BF57
:10425000454D0000F8B505460E460024012707FA33
:1042600004F33342E1B204D10134202CF7D1002011
:1042700004E0286D01F0B1F90028F5D0F8BD002365
:10428000F7B505460C460B6000F180070126B5F82E
:104290008620B5F888309A420FD00DF107013846D4
:1042A00001F035FA50B99DF807301F2B08D8226865
:1042B00006FA03F313432360E9E7002003B0F0BDDF
:1042C0000720FBE7D0F8A010FFF7C4BF13B502A981
:1042D000002341F8043D0446FFF7D1FF10B9019BCC
:1042E000C4F8A03002B010BDB0F8A410503001F0F6
:1042F000C8BA00F1A401803001F037BA10B5044605
:10430000006801F0E2FC50B194F9173301330CBF9F
:1043100000210221206DBDE8104001F05EB9014688
:10432000F8E7000037B502A90023054601F8013D72
:10433000803001F0ECF9044628B99DF8073013B13C
:10434000022B03D00C24204603B030BD286801F0B6
:10435000BCFC0028F7D095F91733013316D1D5F8F6
:10436000A020AAB1531E134012D15208D9B203F1B2
:10437000010009D185F81733B5F8A420054B28684A
:1043800001F0B9FC0446DEE70346EEE70D24DAE768
:104390000724D8E7C94E00002DE9F84F0546B8308C
:1043A00001F081FBDFF85890834600244FF00C0A9F
:1043B00005F15008E3B29B451FD9D5E93023C4F17C
:1043C000200022FA04F603FA00F0A4F1200123FAF7
:1043D00001F106430E4306F001020023134301D10D
:1043E0000134E7E70AFB04F3404653F8091001F0F3
:1043F00072FA0028F4D0BDE8F88F0020FBE700BF78
:1044000064DF0000F7B500230022C0E93023044632
:1044100000F1800700F1B806B4F88620B4F88830BF
:104420009A420BD001A9384601F0B3F9054648B9C4
:1044300001220199304601F07BFBEDE7002528467B
:1044400003B0F0BD012341F2080280212046FFF7AE
:1044500056FCF4E713B5044601A9803001F099F940
:1044600028B90122019904F1B80001F061FB02B002
:1044700010BD13B5044601A9803001F08AF928B9AE
:104480000246019904F1B80001F052FB02B010BDE0
:10449000D0F89C10503001F01EBA10B500F1500455
:1044A0000421204601F017FA28B920460321BDE86F
:1044B000104001F010BA10BD0321503001F00BBACA
:1044C0000021503001F007BA10B500F15004052169
:1044D000204601F000FAA8B90C21204601F0FBF9B2
:1044E00080B91821204601F0F6F958B9222120465A
:1044F00001F0F1F930B9204640F20121BDE8104049
:1045000001F0E9B910BD10B5044601F0D7FB014632
:1045100004F15000BDE8104001F018BA0121006D0F
:1045200001F05BB80021006D01F057B82120704701
:104530000421006D01F051B80C20704713B50446FA
:104540006946006803F03CFA08226946206D01F0D4
:1045500055F802B010BD0221503001F092BA90F827
:10456000C810006D01F039B873B504460E468030AE
:104570000DF1070101F0CBF8A0BB9DF80730042B2B
:1045800007D8012202FA03F111F01B0F02D14B07E9
:1045900003D4032384F8C83001E084F8C820002342
:1045A00084F8D0300C22012331462046FFF7A7FBC8
:1045B00094F8C830042B054608D070B9201D00F0CF
:1045C0000AFFC4F8CC00012384F8983015B184F8B0
:1045D000D0600025284602B070BD074B1B68C4F8A8
:1045E000CC30F0E7FFF7E8F9314602462046FFF706
:1045F0006CFB0546EEE700BF60DF0000712A10B5D6
:104600001C460CD0B2F56F5F06D00C2A0AD1FFF71A
:10461000ABFF2070012010BDFFF71EFDF9E700F091
:1046200075FDF6E70020F6E7F0B585B004460D46C7
:104630000026014602A817468DF8076000F066FACA
:10464000DDE9022303F0010102B9C1B15B1084F876
:104650001463E01809B1E3589A58904701228DF885
:10466000070084F81423C8B93B4629462046FFF7C3
:10467000D3FA8DF807009DF8070005B0F0BD0DF1E5
:1046800007033A4629462046FFF7B8FF0028F2D133
:104690000D2229462046FFF714FBEAE7FFF78CF9C5
:1046A0000246F6E773B50D4602A9002341F8043D22
:1046B00004468030164601F06CF8014650B1FFF711
:1046C0007BF9294602462046FFF7FBFA01460846D9
:1046D00002B070BDB31E032BF9D8DFE803F0020966
:1046E0000F0F019B002229462046FFF795FAEDE7C0
:1046F000019A29462046FFF797FFE7E73346019ADC
:1047000029462046FFF730FCE0E737B504460D4662
:10471000803001A901F03DF858B9019A052A14D852
:10472000DFE802F003090E0E0E0E29462046FFF7C1
:1047300076FC03B030BD29462046FFF775FCF8E74C
:1047400029462046FFF7AEFFF3E70522294620461B
:10475000FFF7B7FAEDE7F7B502AD0123002700F147
:104760008006044680F8143305F8017D304600F0D9
:10477000C3FF042384F8C83084F898702946304673
:1047800000F0C5FF80B99DF807100B060CD5D4F8D2
:10479000203311F0300F03F10103C4F8203308D0A7
:1047A00006222046FFF791FA002384F8143303B061
:1047B000F0BD2046FFF7A9FF38B19DF80710FFF7BD
:1047C000FBF802462046FFF77CFA94F8D22294F8D0
:1047D000D3329A4202D02046FFF7C8FA9DF807303C
:1047E00094F8D12203F00F0332B193421EBFD4F8E4
:1047F00024230132C4F824230F2B14BF01330123D7
:1048000084F8D132D0E700002DE9F0410446B830F9
:1048100001F049F90C4E074600254FF00C085034C2
:10482000EBB29F420ED908FB05F39A19127A0AB926
:104830000135F5E79959204601F04DF80028F7D0E9
:10484000BDE8F0810020FBE764DF000010B50446FE
:10485000006803F0B5F9C1B2206DBDE8104000F06A
:10486000BCBE10B50446006803F0E4FBC1B2206D85
:10487000BDE8104000F0B1BE13B504460DF10701CC
:10488000006803F003FA30B99DF80710206D00F0BE
:10489000A4FE02B010BDFFF78FF8014604F15000EE
:1048A00001F0EFF8F5E713B502A90023044601F87B
:1048B000013D803000F04DFF20B99DF907102068C0
:1048C00003F0EEF902B010BDFEE7FEE710B50446B6
:1048D00001F0FCFAFFF796F90146206DBDE81040A3
:1048E00000F07BBE10B50446006801F03BFB0146BA
:1048F0002046BDE81040FFF7ADBC10B50446006887
:1049000001F034FB01462046BDE81040FFF7A2BC91
:1049100010B41346054A0446106820B10A462146E1
:1049200010BCFFF731B90D2010BC7047D811002022
:10493000262A00F0888030D8072A00F0868012D816
:10494000032A78D007D8012A4FF0000300F08180B5
:1049500073D94C4A62E0052A4FF000035DD040F263
:104960008880494A5AE00D2A71D009D8092A4FF0A7
:10497000000364D05BD30C2A5BD0002303604EE0BD
:10498000212A5ED003D8202AF7D1404B4AE0222AC0
:1049900071D0252AF1D13E4B44E0372A5FD017D899
:1049A000312A60D007D8292A67D0302A59D0272A3F
:1049B000E3D1384B36E0342A4DD003D8322ADCD14B
:1049C000354B2FE0352A48D0362AD6D1334B29E053
:1049D00041F20B239A4252D00BD841F208039A427B
:1049E00043D041F209039A4241D0382AC5D12C4B19
:1049F00018E0B2F5804F14D005D841F203339A4243
:104A0000BBD1284B0EE044F201039A420DD044F290
:104A100002039A42B1D1244B04E0244A026043606D
:104A20007047234B03600023F9E7224BFAE7224A41
:104A3000F4E7224AF2E7224BF4E7224AEEE7224A61
:104A4000ECE7224BEEE7224BECE7224BEAE7224B66
:104A5000E8E7224AE2E7224BE4E7224BE2E7224B77
:104A6000E0E7224BDEE7224BDCE7224BDAE7224B82
:104A7000D8E7224AD2E7224BD4E7224BD2E7224B97
:104A8000D0E700BF074500001D450000B74000000B
:104A90007948000063480000E942000081410000BD
:104AA0002D410000ED4E0000CB480000C94400003D
:104AB000C9480000CD4800003D4500005F450000AA
:104AC000B94400009144000057450000CD4000006B
:104AD0004D48000031450000254500009B44000082
:104AE000B7410000EB41000003420000FD4200001E
:104AF000C54200009943000009480000C14400007D
:104B0000E5480000FB480000D54E0000342A46D09E
:104B10001AD8212A3BD009D80D2A34D0202A4AD0CD
:104B2000072A08D1254B0360002336E0302A3AD00B
:104B300004D8252A29D0002303602EE0312A30D062
:104B4000322AF8D11E4BEEE7382A22D006D8362A70
:104B50004FF000031FD028D91A4A1DE041F2033359
:104B60009A4224D005D841F208039A42E3D1164B69
:104B7000D9E741F204339A421BD041F205339A42FD
:104B8000D9D1124BCFE7124BCDE7124BCBE7124BEB
:104B9000C9E7124BC7E7124A026043607047114BE6
:104BA000C1E7114BBFE7114BBDE7114AF4E7114BC9
:104BB000B9E7114BB7E7114BB5E700BF3945000026
:104BC000F34200000D420000054400005B4F00006E
:104BD0002D450000A7480000E54000004B410000C3
:104BE00099410000CF410000CD4200002543000064
:104BF0006D500000F74E0000174F000019500000E4
:104C000041F204339A420CD041F205339A424FF0FC
:104C100000030BD041F208018A4209D1054A026023
:104C200002E0054B0360002343607047034AF6E748
:104C30000360F9E755440000D74F0000F54F00002E
:104C400041F204339A420CD041F205339A424FF0BC
:104C500000030BD041F208018A4209D1054A0260E3
:104C600002E0054B0360002343607047034AF6E708
:104C70000360F9E7734400009D4F0000BB4F000044
:104C8000F8B500F1500406460D4617468021712301
:104C90000622204600F0D7FE0146002850D1002F02
:104CA0004AD12A792968204600F040FE002847D1E1
:104CB000A97C306D00F091FC002841D18021306D3D
:104CC00000F08BFC00283BD12B7D13F0010F14BFAB
:104CD00010210021204600F0D4FD88BB204600F0C2
:104CE0004DFE68BB6979306D00F077FC40BBE97C14
:104CF000306D00F072FC18BBE968204600F0D0FD72
:104D0000F0B9298A204600F0BCFDC8B9204600F061
:104D100054FEA8B9204600F031FE88B93946204635
:104D200000F0D9FD60B9204600F047FE40B92046AA
:104D3000BDE8F84000F06ABE204600F0A2FDB5E7ED
:104D4000F8BD0000014B1868FFF79ABFD81100208A
:104D50002DE9F04190F816130646154698460029AD
:104D600071D041F080011AB313681F78C7F30017A0
:104D7000002306F1500486F816330622204600F080
:104D800062FE00285FD14046FEF716FE014620462F
:104D900000F0A1FD002856D13946306D00F01DFC11
:104DA000002850D135B92046BDE8F04100F02EBEB4
:104DB0001746DDE7B8F1000FF5D12979204600F05C
:104DC00060FD00283FD12A792968306D00F016FC7B
:104DD000002838D1A97C306D00F0FFFB98BB802102
:104DE000306D00F0FAFB70BB4146204600F049FDF3
:104DF00048BB204600F0C2FD28BB6979306D00F049
:104E0000ECFB00BBE97C306D00F0E7FBD8B9E9684A
:104E1000204600F045FDB0B9298A204600F031FD5A
:104E200088B9204600F0C9FD68B9204600F0A6FD0B
:104E3000014640B9204600F04EFD20B9204600F062
:104E4000BCFD0028AFD0BDE8F0810000014800683B
:104E5000FFF77EBFD8110020F8B5FF23044690F974
:104E6000177380F81733054654F8500B0E46154952
:104E700000F036FF392306228021204600F0E3FDB2
:104E8000F0B9F9B2286D00F0A8FBC8B9F1B2286DED
:104E900000F0A3FBA0B9204600F0B8FD80B9802146
:104EA00030230622204600F0CEFD014640B9286D91
:104EB00000F093FB20B92046BDE8F84000F0A6BD05
:104EC000F8BD00BF454D0000014B1868FFF7C4BF97
:104ED000D811002010B5044654F8500B00F008FF1C
:104EE00001462046BDE8104000F0F5BC90F81813CC
:104EF000006D00F072BB10B500F5467104468030BD
:104F000000F015FC30B994F818132068BDE8104083
:104F100000F0F4BE10BD73B50446006800F029FF30
:104F20000546B8B904F18006B4F88830B4F8862094
:104F30009B1A9BB2012B0DD90DF10601304600F0F2
:104F400014FC30B9BDF80610206800F0E0FE00281F
:104F5000EAD00546284602B070BD73B50446006825
:104F600000F010FF0546B0B904F18006B4F88830AF
:104F7000B4F886209B1A9BB2072B0CD9082201A9F2
:104F8000304600F01DFC28B90199206800F0C5FEEC
:104F90000028EBD00546284602B070BD13B5044684
:104FA0000DF10601803000F0E0FB20B9BDF80610DD
:104FB000206800F0C5FE02B010BD13B508220446FB
:104FC00001A9803000F0FCFB18B90199206800F0BD
:104FD000BDFE02B010BD13B504460DF106018030D0
:104FE00000F0C3FB20B9BDF80610206800F08FFE6A
:104FF00002B010BD13B502A90023044641F8043DD8
:105000000822803000F0DCFB18B90199206800F01C
:1050100084FE02B010BD000013B502A900230446AF
:1050200001F8013D803000F082FB60B99DF8073047
:10503000206853B994F812330BB100F04BFE0021F5
:10504000206800F03FFE02B010BD012100F03AFEE2
:105050000028F8D194F81233002BF4D002492068CC
:1050600000F03EFEEFE700BF454D000013B50446DB
:105070000DF10601803000F078FB20B9BDF8061074
:10508000206800F024FE02B010BD73B500F1800668
:105090000C460DF1020201A9304600F0C9FB05469D
:1050A00078BBBDF802207F2A2ED82546227155F8FC
:1050B000050B019907F0E1F82946304600F027FB7F
:1050C0000546F0B94FF44873A381A37B43F0020374
:1050D000A37304F10C01304600F019FB88B904F108
:1050E0000D01304600F013FB58B90DF101013046B7
:1050F00000F01DFB28B9A37B9DF8012062F341035A
:10510000A373284602B070BD0625FAE738B50446F9
:1051100000680D4600F0D9FDE8B1206800F0E3FD1D
:105120000146D0B12046FFF7B0FF034648B905F06D
:105130000F0384F816330A49206800F0D6FD0346B1
:1051400068B11846FEF738FC294602462046BDE8FD
:105150003840FEF7BABD0D23F3E70323F1E738BD6E
:105160004D4E000010B5036803625A1E11468B4273
:1051700002D904892144FAE7416202210177C0E99A
:105180000A330021016380F8341080F835104FF69F
:10519000FF71C1868363934202D901890A44FAE709
:1051A000C0E90F23C0E9113310BD10B50023016021
:1051B000114441600281C0E90333C0E90533FFF7C0
:1051C000D1FF10BDC0E903127047C0E90512704756
:1051D000012B0AD002D3022B0ED1FEE71144426804
:1051E0008A4209D80389C91AFAE7891A02688A42E9
:1051F00002D903891944FAE708467047012B0ED0FB
:1052000002D3022B15D1FEE78A423FBF43685B1AE7
:105210000168511A2CBF511AC91888B270478A42C6
:1052200081BF436800689A1A091A94BF891A8918BD
:10523000F3E70021F1E710B5144612120A700122BB
:10524000FFF7C6FF047010BD10B5134601220C789D
:10525000FFF7BEFF00782402204480B210BD2DE984
:10526000F041876A90F81C80C26A0E464346394670
:105270000446FFF7C3FF0128054614D942463946C4
:105280002046FFF7E1FF023DC5F30D05354340EA37
:105290000502434692B239462046FFF7CCFFE36A47
:1052A000A362BDE8F081E762FBE72DE9F047067FE6
:1052B000022E80460F4691461C4622D04D68836AD6
:1052C0009D4221D13346C26A2946FFF797FF3F68C6
:1052D000824633463A4629464046FFF78FFF204430
:1052E000504511DC94B119F8013B3B70394698F8F0
:1052F0001C3001224046FFF76BFF013CA4B2074679
:10530000F0E70D20BDE8F0870720FBE72046F9E72E
:105310002DE9F047057F022D04460F461CD04E684C
:10532000836A9E4218D1D0F82C802B4642463146E3
:10533000FFF764FF3F6881462B463A4631462046D8
:10534000FFF75CFF814507D92B4642463946204688
:10535000BDE8F047FFF752BF0020BDE8F0872DE918
:10536000F041067F022E04460F4616D04D68836A30
:105370009D4214D13346C26A2946FFF73FFF3F687A
:10538000804633463A4629462046FFF737FF804598
:1053900005D9E7620020BDE8F0810D20FBE707207A
:1053A000F9E738B5037F022B044612D00021FFF73E
:1053B00056FF227FA06A04EB8203196A21631862F8
:1053C000E56815B123462069A8470223237700200A
:1053D00038BD0D20FCE7006B7047C26B436A9A42F0
:1053E00005D1836B006A1B1A584258417047002050
:1053F000704790F8353033B9C36B426A9B1A18BFB7
:10540000012380F8343070472DE9F84390F8346078
:1054100000EB86070446D7F82080656C2564454577
:1054200022D0324629462046FFF70EFF030402D55C
:10543000BB6B9D4218D1C0F30D02334602322946A0
:105440002046FFF7C5FE33468146606402222946A6
:105450002046FFF7BDFE8145A064DED0012384F81D
:1054600035300020BDE8F883032384F83530172059
:10547000F8E708B50146FFF7B0FF68B90846FFF73F
:10548000B8FF91F834300E3351F82330C1E91033AE
:10549000BDE80840FFF7B8BF172008BD90F83500F9
:1054A00003281ABFB0FA80F040090120704738B5D0
:1054B00090F83520012A04460ED1816C90F83430E2
:1054C0000D78FFF785FE636CA064984202D12046F8
:1054D000FFF79AFF284638BD0025FBE7D0E90E23E9
:1054E000416A99420CD1017F012909D00168531EFC
:1054F000994202D902891344FAE74362C3637047B1
:10550000016A91420AD1027F42B141680133994256
:1055100002D802899B1AFAE7036283637047037F0C
:10552000022B06D0083350F82330C0E90A33022397
:105530000377FFF7D3BFF8B5047F022C05460F466B
:1055400000D1FEE72346C66AB4FA84F46409012256
:1055500031460834FFF73CFE55F82430834203D02F
:105560003770E8620020F8BD2846FFF7D8FF032017
:10557000F9E770B5D0E90A32934204461BD1027FA5
:105580000832002150F82260B3420CBF4FF40046AD
:105590000026FFF7D0FF054658B901462046FFF721
:1055A000CAFF054628B9237FA16A32462046FFF785
:1055B00042FE284670BD0025FBE738B5037F022B6D
:1055C00004460D4607D0FFF7D4FF18B9E36A2B60F5
:1055D000A36A6B6038BD0D20FCE738B5037F022B52
:1055E00004460D4608D0FFF7C4FF30B929462046CF
:1055F000BDE83840FFF79FBF0D2038BDF8B5037FE9
:10560000022B07460D46164610D0FFF7B2FF0446A0
:1056100050B92E44B54207D015F8011B3846FFF7A4
:105620008AFF0028F6D004462046F8BD0D24FBE78B
:1056300038B50D460446FFF772FF0DB1012D00D1BC
:105640002577237F083354F82330C4E90A3338BD63
:105650002DE9F0470446FFF7C0FE00283BD1204665
:10566000FFF7C7FE94F8349004EB89080B26D8F8AE
:105670003870D8F820A03D46AA4516D04A4629469B
:105680002046FFF7E1FD030401D5BD420DD1C0F373
:105690000D0229464B4602322046FFF799FD013E96
:1056A00016F0FF060546E7D1FEE7C8F83850204659
:1056B000FFF714FF656900264FF6FF7384F8356025
:1056C000E38655B1A06994F8342023463946A847AB
:1056D0003046BDE8F0871720FBE72846F9E70022AF
:1056E000C0E90022C0E90222704700228388C280FC
:1056F0000381827283817047002908BF002210B5A0
:1057000001608280FFF7F1FF8388838110BD10B5AF
:10571000C38802895C1C94429FBF0268D35C0B70F3
:10572000C3889BBF0133C3800620002010BD13B582
:105730000C460DF10701FFF7EAFF18B99DF8073095
:1057400013B9207002B010BD012B0CBF23700620CE
:10575000F8E713B50C460DF10701FFF7D8FF10B9B4
:105760009DF80730237002B010BD30B5C2880389A0
:10577000941C9C420BD80468A3185D78A35C43EA90
:1057800005230B80C3880233C380002030BD062070
:10579000FCE737B50446C3880D4601890068C91A7D
:1057A000184401AA00F03CFA0028C1BFE388C018E1
:1057B000019BE080D2BF062000202B6003B030BDEB
:1057C00030B5C4880389A5189D42DFBF03681B1943
:1057D0000B60C388DBBFD218C2800620002030BD1A
:1057E00038B5C3880D4601895A1C8A42044601D93E
:1057F000062038BD0068C91A184407F0D5F8E288B9
:1058000023899B1A9BB28342F2D9236813442B60ED
:10581000E38801331844E0800020EAE710B4C4882C
:1058200003891B1B9BB2138010BC1A46FFF7C8BF2D
:1058300073B50E460DF1060105461446FFF795FFB8
:1058400048B9BDF8062031462846FFF7B9FF10B920
:10585000BDF80630238002B070BDC3888381038900
:10586000C381837AC3727047838982889A4281BFD9
:10587000C380C3890381C37A86BF837200200D2051
:10588000704738B504460D460068C9B2FFF7A5FE5B
:1058900028B9290A2068BDE83840FFF79EBE38BD08
:1058A00038B504460D460068C9B2FFF796FE88B9C0
:1058B000C5F307212068FFF790FE58B9C5F30741EB
:1058C0002068FFF78AFE28B9290E2068BDE8384015
:1058D000FFF783BE38BD13B50A4604460621684665
:1058E00000F0CBF9694682B22068FFF787FE02B06C
:1058F00010BD70B504460D4611F00F0118BF00230E
:1059000000680EBF84F82410012184F82430164664
:10591000FFF78EFE29462068FFF75FFE28B9314663
:105920002046BDE87040FFF7D6BF70BD70B50E468B
:10593000114605461446FFF7A4FF30B9224631460A
:105940002868BDE87040FFF759BE70BD38B5044601
:1059500008460D4607F020F84FF6FF72824228BF36
:105960000246294692B22068FFF748FE014620B958
:105970002068BDE83840FFF730BE38BD10B590F85C
:1059800024100329044616D800EBC1010431006835
:10599000FFF713FE70B901462068FFF71EFE48B9F5
:1059A00001462068FFF719FE20B994F8243001332E
:1059B00084F8243010BD0D20FCE773B590F8241056
:1059C000044611B90D2002B070BD0139C9B20825D5
:1059D000042680F8241015FB016101440068FFF7DC
:1059E00097FC0128EED994F82410023880B28DF883
:1059F000040015FB0161E8408DF8050002230DEB62
:105A0000060221442068FFF750FCDCE710B504468D
:105A100094F824302BB12046FFF7CFFF0028F7D0B1
:105A200010BD2068BDE81040FFF7BBBC10B500F109
:105A3000280104460068FFF7C0FD18B994F8243027
:105A400084F8253010BD38B504461D46FFF751FFD8
:105A500048B92046FFF7EAFF28B929462046BDE8A5
:105A60003840FFF738BF38BD10B500F128010446B3
:105A70000068FFF774FC18B994F8253084F82430D6
:105A800010BD38B504460D46FFF7EEFF50B901468C
:105A90002046FFF720FF28B929462046BDE83840B8
:105AA000FFF719BF38BD1B20704700002DE9F048F3
:105AB0001E4D00230C2606FB03F467598F4230D19C
:105AC0002C44646894422CD1D0E90272C3F12006C0
:105AD00002FA06F6A3F1200127FA03FB22FA01F1EC
