:1000000000000420B5020000DD020000DF02000055
:10001000E1020000E3020000E50200000000000031
:10002000000000000000000000000000E7020000E7
:10003000E902000000000000EB020000ED020000F9
:10004000B52400008105040015A70300EF0200009D
:10005000EF020000EF020000B9280000EF020000EC
:10006000EF020000EF020000EF020000EF020000CC
:10007000EF02000001990300EF020000EF02000010
:10008000EF02000089100000EF020000EF02000004
:1000900029110000EF020000EF020000EF02000053
:1000A000EF020000EF020000EF020000EF0200008C
:1000B000EF020000EF02000000000000000000005E
:1000C000EF020000EF020000EF020000EF0200006C
:1000D000FD700300EF020000EF020000EF020000DD
:1000E000EF020000EF02000071DD030000000000DD
:1000F00000000000EF02000000000000EF0200001E
:1001000000000000000000000000000000000000EF
:1001100000000000000000000000000000000000DF
:1001200000000000000000000000000000000000CF
:1001300000000000000000000000000000000000BF
:1001400000000000000000000000000000000000AF
:10015000000000000000000000000000000000009F
:10016000000000000000000000000000000000008F
:10017000000000000000000000000000000000007F
:10018000000000000000000000000000000000006F
:10019000000000000000000000000000000000005F
:1001A000000000000000000000000000000000004F
:1001B000000000000000000000000000000000003F
:1001C000000000000000000000000000000000002F
:1001D000000000000000000000000000000000001F
:1001E000000000000000000000000000000000000F
:1001F00000000000000000000000000000000000FF
:1002000010B5054C237833B9044B13B10448AFF350
:1002100000800123237010BD580200200000000060
:1002200024B0040008B5034B1BB103490348AFF3E6
:10023000008008BD000000005C02002024B0040023
:10024000154B002B08BF134B9D46A3F5803A0021A8
:100250008B460F461348144A121A42F040FC0F4BCB
:10026000002B00D098470E4B002B00D09847002061
:10027000002104000D000D48002802D00C48AFF307
:10028000008042F0A9FB2000290003F0E7FA42F0C9
:100290007DFB00BF000008000000042000000000FB
:1002A000000000005802002088110120000000001A
:1002B000000000000649074A074B9B1A03DD043B78
:1002C000C858D050FBDC03F03BFCFFF7B9FF00003F
:1002D00074B004000000002058020020FEE7FEE792
:1002E000FEE7FEE7FEE7FEE7FEE7FEE7FEE7FEE7E6
:1002F000074B1B5C1F2B8ABF064A4FF0A04203F03E
:100300001F03D2F80405D840C04300F00100704735
:100310002C44040000030050074B1B5C1F2B86BFBE
:1003200003F01F0305494FF0A041012202FA03F335
:10033000C1F80C35704700BF2C4404000003005086
:10034000074B1B5C1F2B86BF03F01F0305494FF0B3
:10035000A041012202FA03F3C1F80835704700BF3B
:100360002C440400000300504FF0A04310B44FF49D
:1003700080404FF400544FF400414FF48032C3F8F2
:100380000845C3F80805C3F80815C3F808255DF843
:10039000044B70474FF0A04310B44FF480404FF42B
:1003A00000544FF400414FF48032C3F80C45C3F8B9
:1003B0000C05C3F80C15C3F80C255DF8044B704709
:1003C0000A4B195C1F298ABF09484FF0A04001F071
:1003D0001F01D0F8043501228A4022EA03011340AC
:1003E000C0F80815C0F80C35704700BF2C44040055
:1003F000000300500B2809D00C2809D0182809D078
:1004000019280CBF03204FF0FF30704700207047C1
:100410000120704702207047C20730B40ED4830712
:100420000AD54FF0A0430C22C3F82C27C3F830277D
:10043000C3F86027C3F8642730BC70474FF0A0436F
:100440000322C3F834274FF40055C3F838274FF47C
:100450008044C3F83C274FF40041C3F840274FF4D1
:100460008032C3F80855C3F80845C3F80815C3F827
:100470000825D4E7704700BF00B583B0044B009354
:10048000044A402300F034F803B05DF804FB00BFD9
:10049000990400007802002002B32DE9F843114BC3
:1004A000114E8846144643F00109032700252246D1
:1004B00008EB0501002003F029FA03461D444FF420
:1004C0007A40E41A23B9337833B1C847013F06D0E4
:1004D00001233370002CEAD1BDE8F88370473770F0
:1004E000BDE8F8833044040074020020704700BF68
:1004F000F0B595B0002415460F4608461E4601F09B
:10050000BDFD384623460895082205A91A9D09967F
:100510000D950A948DF82C400C9401F009FE9DF87D
:1005200014308DF81140DDE9061003F00302012AB2
:10053000CDE9020127D0022A04D0384601F0A2FDFD
:1005400015B0F0BDBDF81650C3F3C2038DF81030DE
:10055000AD090826082D2C4628BF0824334622461C
:100560000EA9384601F0E4FD2D1B214608AB02AA76
:100570000EA8264400F03EFB002DEBD1384601F0DA
:1005800081FD15B0F0BDBDF81460059DC6F383165E
:10059000C3F3C204B2000EA9384608238DF81040F8
:1005A000C5F3952501F0C4FD08AB324628460EA9D7
:1005B000009302AB00F078FA384601F063FD15B005
:1005C000F0BD00BFF0B5324C85B004F5836001F09A
:1005D00091F804F2144001F08DF8D4E9013703EAF0
:1005E0000702D01C04EB800114F8200010F0040076
:1005F00044D003F1020C0E7806F00306012E654686
:1006000035D0022E02F1030621D004EB860100282A
:10061000F1D104EB82020133D26801923B4004EB3A
:10062000830302F00302012ADE6829D0022A23D1C3
:10063000BDF806309B090333360C05EB93051548CE
:1006400001F064F800B16560304605B0F0BD4B883C
:100650000CEB931307EA0302D11C03F1020C14F80C
:100660002100654604EB810100F00400CFE70B8810
:10067000C3F383136344EDE70026E0E79D1CC8E75E
:10068000BDF80430C3F38313360C1D44D7E700BF15
:10069000880300209C07002021B9124B03EBC00007
:1006A00000687047104A0F49521AD20815D030B46A
:1006B0000E4D2B88834212D0002303E035F82340EF
:1006C000844205D001339A42F8D1002030BC7047F3
:1006D00001EBC300006830BC704710467047084605
:1006E000F8E700BF28B0040048B00400540200201E
:1006F000094B013903EBC00003290BD8DFE801F0F7
:10070000020806040220704740797047007970475C
:10071000042070470020704728B004002DE9F843FA
:10072000DFF8D890074600208846D9F8084000F046
:10073000ADFFD9E90132D9F80060134401339B1BA6
:10074000012B56D809F21C450121284600F0BAFFBA
:10075000FFF738FF0146284600F0B4FFD9E901321F
:10076000D9F80010134401335B1A012BECD90A406D
:10077000033205230231002049F82230C9F8001065
:1007800000F08CFF00211C4800F092FF80F3100065
:10079000731C234009EB830300043440033440EA14
:1007A0001740D86019F8243067F3C50309F82430DE
:1007B00039F824306FF3891329F8243059F82420AC
:1007C00068F39F221346012161F301036FF3820353
:1007D00049F8242009F8243099F820341BB906E0A0
:1007E00000F00EF818B1D9E900329A42F8D1BDE80C
:1007F000F8833146BBE700BFA40700208803002030
:100800002DE9F047914C002384B0C4F81834BFF3AD
:100810004F8FD4E9015605EA0602D31C04EB83018D
:1008200014F82330580719D527680B7803F0030311
:10083000012B43D0022B03D14B88023505EB9315D6
:1008400006EA0502D4F81804D31C04EB830128B986
:10085000AF4239D914F823305B07E6D404EB8202A7
:100860006B1CD2680192334004EB830302F0030255
:10087000DB680293022A05F1020700F08980012A51
:1008800026D0D4F810543DB12B6828469B68984771
:10089000EB681D68002DF7D16D486E4B6E49C01A8C
:1008A000C008000440F00200FFF738FFD4E9003030
:1008B000C01A18BF012004B0BDE8F0870B880235CC
:1008C000C3F383131D44BBE7676004B0BDE8F08742
:1008D000BDF804206148C2F38313062B28BF06230A
:1008E00063F3891202339900ADF8042001F084FB10
:1008F00080460028C5D001F0C1FB0023082201A9D1
:10090000404601F0E1FBBDF8043013F4707F00F0C5
:100910009B806FF0010AAAEB050A082506EA070189
:1009200003312B46042204EB8101404601F0CCFB4D
:10093000BDF8043007F101090AEB0902C3F3831380
:1009400093424F4605F10405E8D8D4F81834002B3B
:1009500064D1D4F8105465B1EB685A792846414601
:10096000002A57D02B681B689847EB681D68002D3C
:10097000F2D1404601F086FB002000F087FED4F85B
:1009800018340BB9C4F80490002000F087FE8DE7FE
:10099000BDF8063031484FEA93194D46502D28BF17
:1009A000502565F38F1305F10801ADF8063001F00D
:1009B00023FB804600283FF464AF26EA070A0AF1C9
:1009C000010A01F05BFB4FEA8A0A0023082201A911
:1009D000404601F079FB55452BD9EBB2BAF1000F37
:1009E00020D006EA0701A3EB0A03033104EB8101DF
:1009F000DDB252460823404601F066FB2A460AF162
:100A000008031749404601F05FFB09F1030907EBB2
:100A100099099AE71D68002D9ED1AAE7404601F08A
:100A200031FB43E72A4608230D49404601F04CFBC1
:100A3000EBE706EA0701033104EB81012A460823AC
:100A4000404601F041FBE0E7B9467EE7880300201D
:100A500038B0040028B004005444040058B0040026
:100A600094030020044BD3E900239A4201D0FFF7FE
:100A7000C7BE0020704700BF8803002038B5094B6F
:100A8000D3F81044012583F820544CB1E3685D711C
:100A9000236820465B689847E3681C68002CF5D102
:100AA00038BD00BF880300202DE9F04784B01D4603
:100AB0000C9C002394F80C802373EB8881460E462F
:100AC0001746002B40D1297A05290ED06B7AA888C9
:100AD00073BB404B53F821A00021FFF7DDFD5246C8
:100AE00003463D49204600F061FE062F09D8DFE8A5
:100AF00007F0046A4249525D33004946204600F03F
:100B000055FE2B7A052B05D06B7A5BB9334920460D
:100B100000F04CFE204600F03DFE84F80C8004B04E
:100B2000BDE8F0872E4A2F49204600F03FFEEDE752
:100B3000FFF7DEFD2C4B2B4953F82020204600F018
:100B400035FE297AA888C4E7254A00922749284A11
:100B5000204600F02BFEB6E7D6E90410D6E90023C4
:100B60000390D6E902070291CDE9000749462046E5
:100B700000F01CFEC5E74946D6E90023204600F0F8
:100B800015FEBEE7B168D6E900232046009149462C
:100B900000F00CFEB5E7D6E90201D6E90023019189
:100BA00000904946204600F001FEAAE7D6E903710D
:100BB000B068D6E900230291CDE9000749462046F6
:100BC00000F0F4FD9DE732684946204600F0EEFD56
:100BD00097E700BFDC440400D04404005C7C0400C0
:100BE000C4440400CC4404006C440400AC4404003D
:100BF000A4440400082900D970472DE9F04F1D4690
:100C0000904600232A7B2B7385B0B8F806300392F8
:100C100007460E46002B7BD198F80810052911D005
:100C200098F80930B8F80400002B63D13C4B53F816
:100C300021400021FFF730FD22460346394928466E
:100C400000F0B4FDDFF8FCB0DFF8FC90002405E014
:100C50003A5D013400F0AAFD082C09D0A6424946AD
:100C60002846F5D85946013400F0A0FD082CF5D1EE
:100C70002D49DFF8D8B0DFF8D890284600F096FD6F
:100C800000240CE017F804A0BAF17E0F23D92E221D
:100C900049462846013400F089FD082C08D0A642B8
:100CA000F0D859462846013400F080FD082CF6D1D2
:100CB00098F80830052B02D098F80930A3B91B49E1
:100CC000284600F073FD284600F064FD039B2B735B
:100CD00005B0BDE8F08F41F0A7FE5044524643787E
:100CE00013F0970FD3D0D3E7114A1249284600F0EA
:100CF0005DFDE4E7FFF7FCFC0F4B0E4953F82020A5
:100D0000284600F053FD98F80810B8F804008DE765
:100D1000074A009209490A4A284600F047FD7BE746
:100D2000DC440400D04404009C4404005C7C0400C7
:100D3000C4440400CC4404006C440400AC440400EB
:100D4000A44404009844040090440400D8440400DF
:100D5000A0440400434B1978002900F081802DE95C
:100D6000F04F002487B001258E4603E00134E4B241
:100D7000744560D23C4B27B21E6816F837C0ACF100
:100D8000200205FA02F9394ACCF12003D2E9000128
:100D900025FA03F349EA030905FA0CF800EA080208
:100DA00001EA0903134306EBC70BDFD021EA09036D
:100DB0002E4920EA08026046C1E9002301F06CFDDB
:100DC00016F837C0ACF1200205FA02F2019201993F
:100DD000CCF12003C6B225FA03F3ACF1200219438B
:100DE00006FA02F30393224B0191D3E90023CDE9E4
:100DF000042305FA0CF30093CCF12001039B26FA9F
:100E000001F10B43039306FA0CF30293DDE9046747
:100E1000DDE9002316401F4032463B46DDE902670C
:100E2000BB4208BFB24209D00E4B013493F800E038
:100E3000E4B274459ED307B0BDE8F08F9BF8011073
:100E4000DBF80430A1F10101B1FA81F14909091A75
:100E5000B1FA81F14909002BE6D060469847E3E7F3
:100E6000704700BFAC070020E8070020E007002023
:100E7000D80700202DE9F84F0646244800F0D2FBA1
:100E8000D8B9234F0123A6F1200103FA01FBC6F1D3
:100E90002002D7E9000123FA02F24BEA020B03FA1F
:100EA00006FA00EA0A0201EA0B03134307D020EA1C
:100EB0000A0421EA0B05C7E90045BDE8F88F304672
:100EC00001F0EAFC134ED6E90089C8B148EA0A03EA
:100ED00049EA0B049846A146D7E900234BEA0305EB
:100EE0000D4B0A4819684AEA02044B464246C6E9D5
:100EF0000023C7E900450022BDE8F84F00F044BBDD
:100F000028EA0A0829EA0B09E6E700BFB40700202F
:100F1000E0070020D8070020B0070020042A36D9B7
:100F20002DE9F04182B00E460546144601F03EFB25
:100F3000002836D01D491E4A1E4B0D601E481F4911
:100F40001C60167000230022741EC0E90023C1E952
:100F50000023E4B2EEB105EBC404194F083D4FF095
:100F60000008032601E0AC4213D0A37820788DF866
:100F700006803A4601A98DF804608DF8053001F02D
:100F80001FFB083C0028EED002B0BDE8F08107202E
:100F900070470C4A0C48002100F0E4FA02B0BDE8AA
:100FA000F08101F0B9FA0028C4D0EDE7E80700208D
:100FB000AC070020B0070020D8070020E007002081
:100FC000750E0000550D00004845040070B5084D31
:100FD0002B785BB1074E00243368012113F83400ED
:100FE00001F0DEFB2B780134A342F5D8002070BD60
:100FF000AC070020E807002000B585B0002303906F
:10100000194601AA44F20100CDE9013300F004F8C9
:1010100005B05DF804FB00BF10B572B6FFF72EFDFA
:10102000FFF720FD0028FBD1104B114C1149E41AA9
:10103000E408240444F00100FFF770FB0E4B1B682A
:10104000DB0700D500BE44F002000C49FFF766FB49
:10105000BFF34F8F0A490B4BCA6802F4E062134397
:10106000CB60BFF34F8F00BFFDE700BF28B0040087
:1010700038B004004C450400F0ED00E05845040091
:1010800000ED00E00400FA05F8B5204A204B0024EA
:10109000C2F84041C2F84441C2F84841C2F84C414C
:1010A000C2F80041C2F804411B6833B31949D2F8B1
:1010B00004550A68AD1A1A6825F07F45AA422746EA
:1010C0000DD8197CDE69AD1A144419B11F74D3E927
:1010D000052090471EB133461A68AA42F1D90E493D
:1010E0000E4A0B7812789A4208D00D490D4A41F801
:1010F00023404FF48013C2F80031F8BD531CDBB21B
:10110000022B08BF00230B70EFE700BF0010014067
:101110000C0900200809002005090020040900200E
:10112000FC08002000E100E02DE9F04F8C4A8D49D9
:1011300013780978DFF85082994285B0D8F800A07A
:1011400000F07B810133DBB2022B08BF002386480D
:101150001370864A076852F823107B1823F07F43E8
:1011600000240360534626462046A446ABB11A68C5
:101170008A4200F26581DC68C3F800C0891A104415
:10118000DA6934B13D1825F07F45C3E90154DE61C9
:101190001E4613460124002BE9D1002C40F07C812F
:1011A00001230093724B734FDFF8E09143F001038A
:1011B000019355464FF0000B46B3D6E901C13446C2
:1011C000F669694B6C481A68ACEB020323F07F4365
:1011D000834248D80B44236000220121C4E9012244
:1011E000E2612174002D5DD02A689A424DD22846D2
:1011F00003E00A689A424FD20846C1699B1A002947
:10120000F7D12360E161C461002ED6D178783978B6
:10121000884264D00B4603EB43034C1CBA7807EBBF
:10122000C303E1B28A421A79397004BF00213970D0
:10123000022A9C6844D0032A38D0012AE8D1227CB3
:10124000002AE5D1D3F80CC0C4F804C01969A16024
:101250005869E06099F800009B69A3610028B0D04C
:1012600062609446ADE7A2EB0C0222F07F428A4214
:1012700002D28B1A2360AFE700230122C4E90033B6
:10128000A360E36122746DB12A68C8F80040D31AE4
:101290002B60E56125468FE7D21A0A602360E16181
:1012A000C461B1E7C8F80040254685E7002DAFD0FE
:1012B00000232B74ED69002DFBD1C8F80050A5E781
:1012C0004DB1AC422B4603D1E4E094422FD01346FB
:1012D000DA69002AF9D10023237488429AD1BBF13C
:1012E000000F01D1554553D0002D56D1234E244A2D
:1012F0001F4C4FF480334FF400310127C2F88010A7
:101300003C43C6F848334FF43C60C6F80833776076
:10131000A047154BB7604FF43C601D60A047194BC8
:101320001D70002389F8003005B0BDE8F08FA3429E
:1013300000F09180E0692168D861002800F0868083
:101340002A4603680B440360AA424FF00003397831
:10135000787823741CBF15464FF0010BBDE700BF22
:10136000040900200509002008090020FC080020CD
:1013700070450400EC070020FEFF7F0000100140D4
:1013800000E100E0F90800200C090020F808002026
:10139000009B002BC5D0002DA8D0434B434A1C68AE
:1013A000D2F80465424FD5F800A03978331B23F0FA
:1013B0007F43DD1CB9B93F493F4B4FF48030C2F841
:1013C00044034FF00108C2F804034FF40030C1F8A1
:1013D000800143F001030860C2F800804FF43C60D4
:1013E000984787F80080AA452CBF04EB0A036319CD
:1013F0002E4923F07F43C1F84035D1F80425921BD4
:101400009B1B22F07F4223F07F4303329A4288D90C
:10141000294BD1F80425C1F8402543F001034FF4CE
:101420003C609847234B4FF40032C3F8002100235F
:1014300089F8003005B0BDE8F08F00260096B1E6CF
:1014400074BB521A1A6001230093ABE6002339786B
:101450007878237441E71946EA69C8F8002092B900
:10146000CDE90231114BDFF840C001209860019BAB
:1014700089F80000CCF800204FF43C609847DDE983
:101480000231D8F80020C8690968D86100287FF4C3
:1014900058AF59E72946DFE7C8F800309A467FE69B
:1014A000C8F800309A46CCE7080900200010014037
:1014B000F908002000E100E0704504002DE9F84340
:1014C0001F4D204E204FDFF898804FF480334FF4AB
:1014D00000324FF001090024C6F8802047EA0907CE
:1014E000C5F848334FF43C60C5F80833C5F804909C
:1014F000B847C5F808904FF43C60C8F80040B847BA
:10150000124A134B13491C601470134B134A0C708E
:101510000B2114701C8099704FF48012C023C6F800
:10152000802186F814333260C5F8084586F81133F7
:10153000D5F80435C8F800302046BDE8F88300BF70
:101540000010014000E100E070450400F9080020AF
:101550000C09002004090020EC07002005090020E8
:1015600008090020074B9B784BB132B128B10368C2
:10157000187C20B959745A617047072070470820B9
:10158000704700BFEC0700202DE9F843224CA378F8
:10159000002B35D0002833D0042934D943697BB3DC
:1015A000437C0646012B4FF000000CBF8846804666
:1015B0001746894600F06AF86378A17822785D1CA6
:1015C000EDB2A94208BF0025AA421FD003EB430396
:1015D00004EBC3030121114A9E601971D2F804255E
:1015E000DA600020C3E904989F61657000F056F846
:1015F0000B4B4FF48012C3F800210020BDE8F883A4
:101600000820BDE8F8830720BDE8F883002000F03B
:1016100045F80420F2E700BFEC070020001001406D
:1016200000E100E070B5174DAB7823B318B3436900
:101630000BB3002404740646204600F027F86A78AD
:10164000A8782978531CDBB2984208BF23469942F8
:1016500013D002EB420205EBC20202219660204643
:1016600011716B7000F01AF8074B4FF48012C3F839
:101670000021204670BD082070BD204600F00EF805
:10168000042070BDEC07002000E100E072B6024AC1
:10169000136801331360704710090020034A136870
:1016A000013B136003B962B6704700BF1009002008
:1016B00050E8002F0B4640E8003C9CF0000FF7D1AB
:1016C0001046704750E8003F03EB010240E8002C51
:1016D0009CF0000FF6D11046704700BF50E8003F65
:1016E000A3EB010240E8002C9CF0000FF6D110465D
:1016F000704700BF012350E8002F42EA030C40E886
:1017000000C191F0000FF6D160467047002350E809
:1017100000CF0CEA030240E8002191F0000FF6D15F
:101720006046704738B504460020FFF7AFFFD4E9A4
:1017300000311A688A4215D9511E19602168A368C0
:101740000868258A12F8012CE4681B1A0879DBB2B4
:10175000984205FB024400D20B710020FFF79EFF68
:10176000204638BD0024F8E738B5054600200C4671
:10177000FFF78CFF2A681368591C1160E9682A8AF0
:10178000641AB4FBF2F41C700020BDE83840FFF787
:1017900085BF00BF826842B110B504464369016845
:1017A000006998470023A36010BD70470EB400B5D0
:1017B00082B0039929B102AA04AB42F8043D00F0BB
:1017C000A9F802B05DF804EB03B070472DE9F04FC3
:1017D000924683B051450F4605461E46DDE90CB2E0
:1017E000C0F092800B464FF00108B3FBFAF39A4524
:1017F00008F10108F9D9B04538BFB04612F0010927
:10180000A96802D1BBF1000F54D1012402E0013ECE
:101810000AFB04F4012EFAD8B7FBF4F08245F7D99D
:101820003B4E02E0A968B7FBF4F0335C2A680A2B50
:1018300004FB107702EB010E01F1010029D0A86032
:101840008EF80030D5E90131994202D32846FFF7DE
:10185000A1FFB4FBFAF4002CE4D1B9F1000F15D0CC
:10186000BBF1000F12D0C34510D92024AB682A6801
:10187000591CA960D454D5E901329A420BF1FF3BBF
:1018800014D2BBF1000F01D0C345EFD103B0BDE8C6
:10189000F08FA8604FF00D005054D5E90110884238
:1018A0001DD2296801EB000E0130C8E72846FFF77A
:1018B00071FFE6E7930722D42024C345A5D92B68FE
:1018C0004A1CAA605C54D5E9013199420BF1FF3BF7
:1018D00010D2BBF1000F98D0C345F0D195E7284650
:1018E0000193FFF757FFAA682968019B501C01EB81
:1018F000020EA4E72846FFF74DFFA968E9E7002E8E
:101900000CBF30242024D8E74FF0010873E700BF54
:1019100078450400002900F0B9822DE9F04F054612
:1019200087B091460C460E78DFF8C8A64FF00D0B35
:1019300013E0AB6828680A2E03F1010200EB0301F3
:1019400000F04B82AA600E70D5E901329A4280F015
:101950001B812678002E00F01E810134002E00F03D
:101960001A81252EE5D12346002713F8012B2D2AB5
:1019700000F0E380302A00F0E4802B2A00F0D480CD
:101980002A2A00F00D81A2F13006F1B2092903D90B
:101990007DE2A1F130060346184606EB860110F8F9
:1019A000012BA2F13004092C02EB4101F1D92E2ABE
:1019B00000F002814FF00008013301E013F8012B21
:1019C00002F0FB0168291C46F8D0253A532AC0D8FA
:1019D00001A353F822F000BFC31D000053190000FB
:1019E0005319000053190000531900005319000047
:1019F0005319000053190000531900005319000037
:101A00005319000053190000531900005319000026
:101A10005319000053190000531900005319000016
:101A20005319000053190000531900005319000006
:101A300053190000531900005319000053190000F6
:101A400053190000531900005319000053190000E6
:101A500053190000531900005319000053190000D6
:101A600053190000531900005319000053190000C6
:101A700053190000531900005319000053190000B6
:101A800053190000531900005319000053190000A6
:101A90005319000053190000531900005319000096
:101AA00053190000A71D000053190000531900002E
:101AB0005319000053190000531900005319000076
:101AC0005319000053190000531900005319000066
:101AD0004B1B00002D1D000053190000531900007E
:101AE00053190000531900002D1D00005319000068
:101AF0005319000053190000531900005319000036
:101B000053190000951C00005319000053190000E0
:101B10000D1C000053190000F11B000053190000B8
:101B200053190000A71D000047F004071C46234678
:101B300013F8012B2D2A7FF41DAF47F001071C4637
:101B4000F5E747F002071C46F1E7D9F800301A1D07
:101B5000C9F800201E78AB680A2E0CD12A68591CDF
:101B6000A96002F803B0D5E90123934203D32846C4
:101B7000FFF710FEAB682A68591CA960D654D5E956
:101B800001329A42FFF4E5AE2846FFF703FE2678BD
:101B9000002E7FF4E2AE2B7B23BB07B0BDE8F08FB5
:101BA000D9F80020111DC9F80010166862782E2A95
:101BB00004F102007FF4FEAE5A78A2F13003092B43
:101BC00000F2BD814FF0000808EB880802EB4808DE
:101BD00010F8012FA2F13003092BA8F13008F3D936
:101BE0000346E9E6284607B0BDE8F04FFFF7D2BD4F
:101BF000D9F800301A1DC9F800201968019743462A
:101C000000960A222846FFF7E1FDA2E6D9F8003047
:101C10001A1DC9F80020D3F80080FB0700F1E88006
:101C2000B8F1000F00F0A181404641F0A1FB07464A
:101C3000BE4215D9A6B1202100E08EB1AA682B685A
:101C4000501CA8609954D5E901329A4206F1FF363A
:101C500004D328460391FFF79DFD0399BE42ECD1C2
:101C600008F1FF3818F8016F002E3FF472AEAB6830
:101C700028680A2E03F1010200EB030100F09081B5
:101C8000AA600E70D5E901329A42EBD32846FFF7DD
:101C900081FDE7E7D9F80020131DC9F80030AB68D3
:101CA00029681768581C3022A860CA54D5E9012356
:101CB000934280F0E6802A68581C7821A860D154AD
:101CC000D5E90123934280F0D7800F2F03D93A46FC
:101CD00012090F2AFCD84FF080560DE0AA6081F857
:101CE0000080D5E901329A4202D32846FFF752FD1F
:101CF00036093FF42EAEAB68B7FBF6F21AF8028055
:101D00002868B8F10A0F06FB127700EB030103F114
:101D10000102E3D1AA6000F803B0D5E901329A428A
:101D200080F049812B6899180132D7E7D9F8003043
:101D30001A1DC9F80020196881EAE173A3EBE17369
:101D4000092B40F30E81AA480122A0FB03C3DB0844
:101D5000092B02F10102F8DC4245134638BF434625
:101D6000039307F00203002E40F09580002B00F053
:101D7000B780B8F1000F00F0F680F80740F1B080AE
:101D80000029C0F2FF807A0700F1C88007F0030342
:101D9000022B00F0A780CDE9006743460A222846BF
:101DA000FFF714FDD5E5D9F800301A1DC9F8002059
:101DB000196801974346009610222846FFF706FD52
:101DC000C7E5AB682A68581C2521A860D154D5E91D
:101DD00001329A42FFF4BDADD6E6AA6000F803B026
:101DE000D5E901329A423FD2296811440132A9E56E
:101DF0004146A1EB080311F8017BD7B1AB68D5F8D8
:101E000000C00A2F03F101020CEB030000F0AF80C9
:101E1000AA600770D5E901329A42EAD328460391B5
:101E2000FFF7B8FC0399A1EB080311F8017B002F21
:101E3000E4D19E427FF68DAD202702E0002E3FF4D4
:101E400088ADA9682A68481CA8605754D5E90121C3
:101E5000914206F1FF3604D328460393FFF79AFC1C
:101E6000039BB342EAD174E52846FFF793FCAB68C5
:101E700029685A1C194465E52846FFF78BFCAB68B6
:101E800023E72846FFF786FCAB6814E7704718463F
:101E9000002623468BE5002920DB7A071ED41BB1E0
:101EA000B8F1000F3FF46CAFF8073FF569AFBEB172
:101EB000039BB342BFF464AF2023AA68501CA86000
:101EC00028688354D5E90102824206F1FF3640D2E8
:101ED00036B1039AB242F0D1164651E7013EDEE731
:101EE00000264DE7B8F1000F7FF455AF002E6AD001
:101EF000039BB342BFF44FAF3023AA68501CA860C5
:101F000028688354D5E90102824206F1FF3618D2CF
:101F1000002E58D0039AB242EFD13CE7AA68531C76
:101F2000AB602B682B209854D5E901329A42FFF41C
:101F30002DAF28460491FFF72DFC049926E70346B0
:101F400038E52846CDE90413FFF724FCDDE9041346
:101F5000DEE72846CDE90413FFF71CFCDDE9041396
:101F6000B6E70122F8E646460AE7474660E6AA6079
:101F70000CF803B0D5E901329A4226D22B689818A2
:101F8000013245E7AA68531CAB602B682D2098549A
:101F9000D5E901329A42C1F10001FFF4F7AEC8E77A
:101FA000AA6000F803B0D5E901329A4217D2296835
:101FB0001144013264E62846FFF7ECFBA9682B6860
:101FC0004A1C19448AE60026E5E628460391FFF7F5
:101FD000E1FBA8682B680399421C184418E72846BF
:101FE000FFF7D8FBAB6829685A1C194448E600BFC4
:101FF000CDCCCCCC784504002DE9F041058ACE1C2F
:10200000043D2E440746B6FBF5F6FFF78BFB78B38D
:10201000F6B24FF48073013E0446C58007608380AA
:1020200027D08046002509E06379AE4203F1010321
:102030006371C8F80000076080461AD03846FFF781
:1020400071FB01350028EFD16679721E14D023464A
:10205000013082421B68FBD11F684EB10025236806
:102060002146013538461C46FFF77EFBAE42F6D1CD
:1020700000242046BDE8F0812768EFE70430012105
:10208000FFF720BBF8B5012104460430FFF726FB1B
:10209000C0B200B1F8BD6679721E12D0234601307D
:1020A00082421B68FBD11F68002EF3D000252368F5
:1020B0002146013538461C46FFF756FBAE42F6D1A5
:1020C000F8BD2768F2E700BF2DE9F843C7884679D5
:1020D00007FB06F6043E02EB030C0446664503F1DB
:1020E000040015468846B0FBF7F238BFF51A07FB27
:1020F000120012B1013A2468FCD13E1AAE4228BF48
:102100002E469DB14FF000090430AD1B20443246ED
:1021100008EB090140F0BFFCAF42B14424683E46E1
:102120004FF0000028BF2E46002DEDD1BDE8F8830A
:102130002DE9F843C7884679154607FB06F6043EA5
:1021400005EB030C1A1D664504468846B2FBF7F002
:1021500038BFF51A07FB102110B101382468FCD1F3
:102160007E1AAE4228BF2E469DB14FF000090431C1
:102170002144AD1B324608EB090040F08CFCAF4215
:10218000B14424683E464FF0000128BF2E46002D82
:10219000EDD1BDE8F88300BF10B570B101280BD1B7
:1021A0000D4C2369A0703BB1D3E9002301202261CB
:1021B00098472369002BF7D110BD074CA368012273
:1021C0006270002BF8D0D3E900230020A26098476A
:1021D000A368002BF7D1EFE71409002038B50A4CAB
:1021E00023786BB909486360A3602361E36000F062
:1021F000F7F8054600F002F901232370284638BDA0
:102200008525284638BD00BF14090020992100000B
:1022100038B5154CA378054673B110B14368012059
:1022200098470020FFF732FAE3680133E3600020AB
:10223000BDE83840FFF732BA03F0FF00FFF726FA97
:1022400065B1226942B1954208D0134601E09D4232
:1022500004D01B68002BFAD12A602561E368002BAB
:10226000E2D100F0DDF8DFE71409002038B5084CB2
:102270000020FFF70BFAE368013BE360E56815B95E
:1022800000F0E6F8A5700020BDE83840FFF706BA78
:10229000140900204FF08043D3F81804C0F3004025
:1022A000704700BF38B5154C6378054673B110B15F
:1022B0004368002098470020FFF7E8F9636801337E
:1022C00063600020BDE83840FFF7E8B903F0FF0085
:1022D000FFF7DCF965B1A26842B1954208D0134618
:1022E00001E09D4204D01B68002BFAD12A60A56052
:1022F0006368002BE2D100F0B7F8DFE71409002093
:1023000038B5084C0020FFF7C1F96368013B6360F2
:10231000656815B900F0BAF865700020BDE838406E
:10232000FFF7BCB9140900204FF08043D3F80C0428
:1023300000F00110A0F10110B0FA80F040097047E0
:102340000A4A0223C2F80435BFF36F8FBFF34F8FE1
:10235000C2F80805D2F80034002BFBD00023C2F8E5
:102360000435BFF36F8FBFF34F8F704700E001401C
:102370009AB32DE9F047194CA0EB01080D468E18D1
:10238000C0004FF0FF0E4FF0010C002708EB0502D4
:1023900022F0030200F01809116815F8013BC4F897
:1023A00004C50EFA09FA21EA0A01BFF36F8FBFF3E1
:1023B0004F8F03FA09F30B441360D4F80034002B59
:1023C000FBD0C4F80475BFF36F8FBFF34F8FAE42DD
:1023D00000F10800DAD1BDE8F087704700E0014065
:1023E000054A13792BB901211060537118461171F8
:1023F00070478520704700BF28090020074B1A68E6
:10240000D20704D4C021012283F800131A604FF0D0
:1024100080430122C3F81825704700BF00E100E0A7
:1024200010B4094B094A0021196083B01B6801935D
:10243000019C4FF0804102200123C1F80403136086
:1024400003B05DF8044B70470401004008000040F1
:10245000044B01221A604FF08042D2F81834DB039B
:10246000FBD470470C000040074B00221A6082B07A
:102470001B68019301994FF080430122C3F80423A4
:102480001A6002B0704700BF00010040074B0122F4
:102490001A604FF08042D2F80C3403F00113B3F10C
:1024A000011FF8D0024B00225A717047040000400F
:1024B0002809002010B5154B1A6882B07AB10021A6
:1024C000134A19601B68507900934FF08041012333
:1024D000009CC1F8083310B91168537188470D4B3F
:1024E0001A6882B100221A601B6801934FF0804283
:1024F0000221074B0198C2F808131B68012002B0A3
:10250000BDE81040184702B010BD00BF00010040F8
:10251000280900200401004030B5204C94F86A508E
:1025200083B0002D36D14FF0FF332946062204F147
:102530006400C4E90033C4E90233C4E90433C4E9E4
:102540000633C4E90833C4E90A33C4E90C33C4E9E7
:102550000E33C4E91033C4E91233C4E91433C4E9B7
:102560001633236640F0BBFA0D4A0E4B0E491D6030
:10257000C02082F80603402010601B680193019878
:102580004FF000430122284684F86A20C1F8043342
:1025900003B030BD082003B030BD00BF30090020BB
:1025A00000E100E07C61004000600040034B93F8D4
:1025B0006A00003018BF0120704700BF30090020BA
:1025C000F0B5744B1C1894F93050002D6ADA8E78EF
:1025D000C6F340069646002E5ED11D6A013500F016
:1025E000C48009240C2553F8247001375DD004F110
:1025F000010C53F82C70013700F0C280A71CAF42C9
:1026000048D253F82720013200F0BC8004F1030CBB
:10261000AC453FD253F82C70013700F0B18004F183
:10262000040CAC4536D253F82C70013700F0A8806A
:1026300004F1050CAC452DD253F82C70013700F095
:102640009F8004F1060CAC4524D253F82C7001375E
:1026500000F0968004F1070CAC451BD253F82C70A7
:10266000013700F08D8004F1080CAC4512D253F80C
:102670002C70013700F0848004F1090CAC4509D2BC
:1026800053F82C7001377BD00A34AC4202D2DC6A9A
:10269000013409D00420F0BD1D68013574D0012437
:1026A0000825A0E70820F0BD0B241F1865B243F8E9
:1026B00024E087F83050002E5ED08A7854071AD470
:1026C000D60741D41F284A7887BF334E00F01F0435
:1026D00004464FF0A04604F5E074920046F824202A
:1026E0002E4EC40800F0070C375D012202FA0CF2EE
:1026F0003A4332558A780C7812F0020209D1083D2B
:102700002B44104693F8602042EA841483F860401A
:10271000F0BDAB0003F1804303F5C0430202D3F8E0
:10272000101521F44F3121F44071C3F81015240421
:10273000D3F8101504F4403402F47C5222430A43C7
:10274000C3F810250020F0BD1F2887BF124A00F0F3
:102750001F0404464FF0A04202EB8402D2F8004767
:1027600024F00204C2F80047BAE7082684F8306073
:10277000C3F820E0354634461C4484F858009CE7F2
:10278000644692E73C4690E700251A6084F8305092
:1027900093E700BF30090020000300509409002097
:1027A00070B43A4D2E1883B096F93030072B20DDE7
:1027B0002B4493F858309B09032B45D0012B14BFB1
:1027C0004FF440314FF400311F284DD900F01F0065
:1027D0002F4B03EB8000D0F8002722F44032C0F8E2
:1027E0000027D0F800370B43C0F8003703B070BCA7
:1027F0007047DAB2072AF9D8980000F1804000F556
:10280000C04003F14002D0F81045920092B244F06B
:10281000010402F18042C0F8104502F5C0420020D8
:102820000190019C10600029E0D096F9302055F805
:102830002220002ADAD00122164902FA03F3C1F855
:10284000043303B070BC70471F2810D9104BD3F865
:10285000103500F01F00C34013F0010F0CBF4FF400
:1028600000314FF44031B3E74FF0A043B1E74FF0F0
:10287000A0421346D2F81025C24012F0010F14BF37
:102880004FF440314FF40031A3E700BF300900207E
:1028900000030050006000401F288ABF054B4FF026
:1028A000A04300F01F00D3F8103523FA00F000F029
:1028B00001007047000300502DE9F047002388B065
:1028C000CDE90233CE4A1668012E00F03B821E4647
:1028D000CC4B1A68012A00F02782CB4B1A68012AD8
:1028E00000F01482C94B1A68012A00F00182C84B1B
:1028F0001A68012A00F0EE81C64B1A68012A00F01E
:10290000DB81C54B1A68012A00F0C881C34B1A68E5
:10291000012A00F0B581C24B1A68012A0FD10022AA
:102920001A601B6801934FF0A042019BD2F810255A
:10293000BC4B0292D3F81035039346F0004616F0D4
:10294000FF0F1AD0B84F00240125A30003F18043E4
:102950002E4203F5C0434FEA45050BD0D3F81005CE
:1029600057F82420D3F81015C0F30520C1F3014116
:1029700002B190470134082CE7D1002E02DB08B0E9
:10298000BDE8F087A84CA74F4FF0FF33CDE90633E1
:1029900094F960300DF1100800225D1CC8F8042085
:1029A00004924FF0010600F0F4805FFA83FC2CF0F3
:1029B000C00008AB4FEAD00903EB090E0CF0070387
:1029C0001EF8082C06FA03F312EA030521D0221898
:1029D0004FEA9C1192F9302054F82220002A00F08E
:1029E0002981032900F028811F2800F2F98005467B
:1029F0004FF0A04C0CEB850C1EF8185CDCF800E7DF
:102A00001D40CEF3014E40F0DF80BEF1030F00F019
:102A1000BF8194F96130581C32D0DBB223F0C00082
:102A200008AA4FEAD00E02EB0E0C03F007011CF8C7
:102A3000082C06FA01F912EA090F21D02218990987
:102A400092F9302054F82220002A00F0FB8003295C
:102A500000F0FB801F2800F2E98003464FF0A04EF3
:102A60000EEB83031CF818ECD3F800C71EEA090F1D
:102A7000CCF3014C40F0B880BCF1030F00F0AE8104
:102A800094F96230591C30D0DBB223F0C00008AAA0
:102A90004FEAD00E02EB0E0C03F007011CF8082CD5
:102AA00006FA01F912EA090F1FD02218990992F9C2
:102AB000302054F82220002A00F0D880032900F0AA
:102AC000D8801F287CD803464FF0A04E0EEB83031E
:102AD0001CF818ECD3F800C71EEA090FCCF3014C20
:102AE00064D1BCF1030F00F0658194F963305A1C86
:102AF00034D0DBB223F0C00008AA4FEAD00E02EBBC
:102B00000E0C03F007021CF8081C06FA02F2114230
:102B100024D004EB0009990999F9309054F82990D0
:102B2000B9F1000F00F09880032900F098801F2869
:102B30008BBFBE464FF0A04E03F01F0303460EEBC3
:102B400083031CF818ECD3F800C71EEA020FCCF37D
:102B5000014C20D1BCF1030F00F00181002D3FF4A6
:102B60000EAF4FF0A0430299D3F81035D7F81025D7
:102B7000994203D1039991423FF401AFDDE9040189
:102B8000CDE9023294F960305D1CCDE906017FF495
:102B90000CAF00253DE7BCF1020FDFD1032900F0A7
:102BA0003481B9F1000F40F0F180D7E7BCF1020F9A
:102BB0009BD1032900F02681002A96D0904794E704
:102BC00003F01F03BE4681E7BEF1020FE1D10329E6
:102BD00000F021810025002A3FF41BAF904718E741
:102BE0000CF01F05BC4605E7BCF1020F7FF448AFAF
:102BF000032900F00D81002A3FF442AF90473FE7E0
:102C00000061004004610040086100400C61004028
:102C10001061004014610040186100401C610040D8
:102C20007C610040000300503009002003F01F03C6
:102C3000BE4615E70329ACD118F809501D4308F822
:102C40000950D1E603297FF41BAF18F80EA04AEA19
:102C5000090A08F80EA0FDE603297FF47FAF18F8F3
:102C60000EA04AEA020A08F80EA060E703297FF4E2
:102C70003CAF18F80EA04AEA090A08F80EA020E7AF
:102C8000664AD2F8042317067FF545AE00221A6083
:102C90001B680093009B46F080063CE65F4AD2F832
:102CA000042352067FF532AE00221A601B6800939F
:102CB000009B46F0400629E6584AD2F804239106C4
:102CC0007FF51FAE00221A601B680093009B46F040
:102CD000200616E6514AD2F80423D0067FF50CAE42
:102CE00000221A601B680093009B46F0100603E662
:102CF0004A4AD2F8042314077FF5F9AD00221A607E
:102D00001B680093009B46F00806F0E5434AD2F8A2
:102D1000042355077FF5E6AD00221A601B68009377
:102D2000009B46F00406DDE53C4AD2F804239707F1
:102D30007FF5D3AD00221A601B680093009B46F01C
:102D40000206CAE53549D1F8041311F0010104D097
:102D5000136013680093009BBAE50E46B8E503299B
:102D60007FF41FAF4FF4003CD3F8002722F4403229
:102D7000C3F80027D3F80027013542EA0C02EDB270
:102D8000C3F80027B9F1000F3FF4EBAEC847E5E602
:102D900003297FF420AF4FF40035DCF8003723F42B
:102DA0004033CCF80037DCF800372B43CCF8003741
:102DB000012510E703297FF4FFAE4FF4003ED3F85E
:102DC00000C72CF4403CC3F800C7D3F800C7013556
:102DD0004EEA0C0CEDB2C3F800C7EDE603297FF410
:102DE0000AAF4FF4003ED3F800C72CF4403CC3F8C0
:102DF00000C7D3F800C701354EEA0C0CEDB2C3F89A
:102E000000C7F8E64FF4403ED9E74FF4403CABE74B
:102E10004FF4403EE7E74FF44035BEE70060004026
:102E20000220FDF7CDBA00BF2DE9F0470D4606465A
:102E3000FDF7E0FA03281ED8012D04461DD00ED35D
:102E4000022D18D11B4B00EB40041C44657895B152
:102E5000194B1B687BB12846BDE8F0471847174857
:102E6000FEF7E0FB134B164A04EB44010B44125DE2
:102E70009D78AA42EBD0BDE8F0870E4F4FEA40089C
:102E800008EB0003FA18FD5C53782BB9A0444744C3
:102E90000B4BBA781A55DAE7DFF8289007484A460C
:102EA0004FF40041FEF770FB0028EFD189F8006075
:102EB000ECE700BF000A0020140A0020C00900202F
:102EC0001C0A00209C09002010B50078FDF792FA3A
:102ED00003280BD8064B00EB40001844407828B17B
:102EE000044B1B6813B1BDE81040184710BD00BF6C
:102EF000000A0020140A0020B44B1B68DB0700D432
:102F0000704770B5B24DB34E2B7834786BB1B24B7D
:102F10001B7800202870002B4BD0FDF711FA012000
:102F2000FDF70EFA0320FDF70BFA172C40D8DFE867
:102F300014F0B600F400F400DC000801CA0013012C
:102F4000EE005000430050004300610018001800DC
:102F5000180018001800660077008B009F005D00C5
:102F60005D009E48FEF75EFBD4F11104054600F0BB
:102F70000081002840F0FD80012C13D0C82303FB02
:102F800004F44FF4FA704FF400430021C3FB040132
:102F90004FF47A72002341F0BDF82A4601468F486B
:102FA000FEF7F2FA0220FDF7B7F98B4B01221A70F7
:102FB00070BDFDF7D9F9B8E7012318462B70FDF76E
:102FC000FFF900224FF480418548BDE87040FEF7CC
:102FD000DBBA012318462B70FDF7F2F9002240F608
:102FE000CD417F48BDE87040FEF7CEBAFDF7D2F97B
:102FF000347070BDFDF7CEF90C23337070BD764B85
:103000001B78002B00F0BF800020FDF799F901200C
:10301000FDF796F90320FDF793F91223337070BD85
:103020006D4B1B78002B00F0B1800020FDF788F974
:103030000120FDF785F90320FDF782F90020FDF757
:103040006BF91323337070BD634B1B78002B00F0BA
:10305000AD800020FDF774F90120FDF771F9032020
:10306000FDF76EF90120FDF757F91423337070BD99
:10307000594B1B78002B00F083800020FDF760F98E
:103080000120FDF75DF90320FDF75AF90020FDF757
:1030900043F90120FDF740F91523337070BD4E4B05
:1030A0001B78002B00F08A800020FDF749F90120F1
:1030B000FDF746F90320FDF743F94948FEF7B2FA58
:1030C0000023337070BD0020FDF712F9002860D096
:1030D0000020FDF735F905233370002241F69A11DF
:1030E0003F48BDE87040FEF74FBA0020FDF700F9F9
:1030F00000285ED00020FDF723F946F26661032325
:10310000337000223648BDE87040FEF73DBA00201B
:10311000FDF702F90723337070BD0020FDF7E8F8D2
:10312000D0B30020FDF70CF9022C4EF2666118BFF7
:103130004FF40031347000222948BDE87040FEF79A
:1031400023BA0020FDF7D4F8D8B30020FDF7F8F833
:103150004FF400310423D3E70020FDF731F90623B3
:103160003370002240F6CD411D48BDE87040FEF7A7
:103170000BBA0220FDF7E4F8174B00221A7070BD5D
:10318000FDF7F2F882E7FDF7EFF846E7FDF7ECF818
:1031900054E7FDF7C1F89EE7FDF7BEF843F233317F
:1031A00041F69A13022C08BF1946C3E7FDF7DCF875
:1031B00058E7FDF7B1F841F69A11A0E7FDF7D4F80A
:1031C0007BE7FDF7A9F843F23331C3E70C0A00208F
:1031D000100A0020180A00209D090020A0090020E4
:1031E000E009002038B5C54B1C6814F0010401D17A
:1031F000204638BDC24C2378054663B1C14B1B78CD
:103200000020207023B3FDF79BF80120FDF798F80C
:103210000320FDF795F8172D00F26D81DFE815F01A
:10322000C300EC00EC001001D900230102013601BB
:1032300028001B0028001B006A007100710071004B
:10324000710071009A00AD0035004B00640064000D
:10325000FDF78AF8DFE7012318462370FDF7B0F881
:1032600000224FF48041A848BDE83840FEF78CB9F1
:10327000012318462370FDF7A3F8002240F6CD4144
:10328000A148BDE83840FEF77FB99E4B1B78002B64
:1032900000F016810020FDF753F80120FDF750F8EB
:1032A0000320FDF74DF80120FDF736F8974B142267
:1032B0001A7000249CE7934B1B78002B00F00381CD
:1032C0000020FDF73DF80120FDF73AF80320FDF757
:1032D00037F80020FDF720F80120FDF71DF88B4B93
:1032E00015221A70002483E7FDF754F8874B002459
:1032F0001D707DE7FDF74EF8844B0C221A700024F8
:1033000076E78348FEF78EF90446D5F1110000F008
:10331000C580002C40F0C280012814D0C82505FBD0
:1033200000F54FF400434FF4FA700021C3FB050190
:103330004FF47A72002340F0EDFE224601467448B5
:10334000FEF722F904460220FCF7E6FF6D4B01224E
:103350001A704DE76B4B1B78002B00F0AE800020FD
:10336000FCF7EEFF0120FCF7EBFF0320FCF7E8FF82
:10337000664B12221A7000243AE7624B1B78002B2E
:1033800000F093800020FCF7DBFF0120FCF7D8FF62
:103390000320FCF7D5FF0020FCF7BEFF5B4B132298
:1033A0001A70002424E7574B1B78002B00F08E8006
:1033B0000020FCF7C5FF0120FCF7C2FF0320FCF74B
:1033C000BFFF5148FEF72EF9504B002204461A70F9
:1033D0000EE70020FCF78CFF002869D00020FCF7E6
:1033E000AFFF4FF40031494B474804241C700022C2
:1033F000BDE83840FEF7C8B80020FCF779FF002888
:103400006CD00020FCF79CFF022D4EF2666118BFC5
:103410004FF400313D4B3C481D700022BDE8384060
:10342000FEF7B2B80020FCF7CBFF384B3648062435
:103430001C70002240F6CD41BDE83840FEF7A4B82C
:103440000020FCF755FF002843D00020FCF778FF50
:1034500046F266612D4B2C4803241C700022BDE807
:103460003840FEF791B80020FCF742FF00283FD01B
:103470000020FCF765FF254B234805241C70002223
:1034800041F69A11BDE83840FEF77EB80020FCF7FF
:1034900043FF1E4B07221A700024A9E60220FCF706
:1034A0004FFF184B00221A70A2E6FCF75DFF72E78F
:1034B000FCF732FF43F2333195E7FCF755FF57E74E
:1034C000FCF752FFEFE6FCF74FFF02E7FCF74CFF7B
:1034D00077E7FCF721FF41F69A11BBE7FCF71CFFE9
:1034E00043F2333141F69A13022D08BF194691E792
:1034F000FCF712FFBFE700247AE600BF0C0A0020A9
:10350000100A00209D090020E0090020180A002070
:10351000A009002038B5244B244A196083071060A5
:1035200000F0010503D4CDB92C46204638BD204B10
:1035300020480E240F2210211C701124DA7099717A
:103540005C7240F266620421FDF7E8FC0446B8B103
:1035500015B10120FCF760FF204638BD0120FCF7C3
:103560005BFF154A15480021FDF7FCFF04460028C3
:10357000F2D1134A13480121BDE83840FDF7F2BFEC
:10358000FDF724FD04460028E2D101460E4A0F480B
:10359000FDF7E8FF0446002DDED00120FCF73CFFDC
:1035A000002CD9D1DDE700BF140A00200C0A00204E
:1035B000000A0020A0450400F92E0000C8450400C0
:1035C000212E0000C0450400C92E0000C44504009F
:1035D00008B51B78802B00D008BD0D4B07220120B9
:1035E0001A70FCF785FE60B9FCF796FE0120FCF727
:1035F00093FE002241F69A110648BDE80840FDF707
:10360000C3BF0020FCF79CFE0120FCF799FEF0E709
:10361000500A0020540A0020420700D4704708B521
:1036200008461EF098FD88B1831E022B0A4A06D96F
:10363000062313701846BDE80840FFF7D3BD0723E3
:1036400013701846BDE80840FFF7CCBD024A107061
:10365000BDE80840FFF7C6BD410A002008B51C4B75
:103660001B78032B27D8DFE803F021120702012083
:10367000BDE80840FCF750BE0120FCF7A1FE002287
:1036800040F6CD411348BDE80840FDF77DBF01205D
:10369000FCF72EFE80B90120FCF73EFE41F69A11A0
:1036A00000220C48BDE80840FDF76EBF0120BDE8D0
:1036B0000840FCF745BE08BD0120FCF741FE46F27C
:1036C000666100220348BDE80840FDF75DBF00BF0A
:1036D000400A0020200A002008B52C4A1378013B3C
:1036E000DBB2137083B10120FCF702FEA0B9FCF736
:1036F00013FE0120FCF710FE002241F69A11244827
:10370000BDE80840FDF740BF224B1B78032B0DD8C6
:10371000DFE803F0121B2B090020FCF711FE01204B
:10372000FCF70EFEE8E70120FCF7F6FD1A4B1878CF
:10373000BDE80840FFF756BD0120FCF701FE164B1F
:103740001878BDE80840FFF74DBD0120FCF7D0FD1B
:10375000A8B10120FCF7F4FD46F2666100220F4893
:10376000FDF712FF0028E1D008BD0120FCF728FE7C
:10377000002240F6CD410948FDF706FFF2E701209F
:10378000FCF7CAFD41F69A11E8E700BF500A002095
:10379000540A0020400A0020410A0020200A00208C
:1037A00070B5134A134E144B00242146147005467D
:1037B0000C2230461C703FF092F921460F4B104A04
:1037C00010483360FDF7CEFE044628B901460E4A84
:1037D0000E48FDF7C7FE04462A460D49284609F063
:1037E0000BFF2846034909F03DFE204670BD00BF8F
:1037F000410A0020440A0020400A0020D135000080
:103800005D360000CC450400D9360000D0450400E8
:103810001936000010B504460C48FDF703FF0C48AC
:10382000FDF700FF0020FCF78BFD0120FCF788FD71
:1038300022462046074909F0E2FE074A002313709A
:103840001846BDE81040FFF7CDBC00BF200A00209D
:10385000540A002019360000410A002038B5FDF74F
:103860002DFE08B1FDF7C8FB002301204FF0A04159
:10387000032204E015F4F03F18BF41F8242001337F
:10388000202B00FA03F503F5E074F3D14FF0A043C9
:103890004FF4F0310022C3F8081501201146C3F897
:1038A0000C25FFF737FE08B1FDF7A6FB164C0025E7
:1038B0000021084636F0D0FD09F094FE206000F0AB
:1038C00061FA206805211EF08EFD2068FFF768FF71
:1038D00060B1FDF791FB09E020681EF015FB206840
:1038E00036F0E8FD20681EF01BFB58B136F0DCFD19
:1038F0000028F1D02068FFF78DFF206809F078FEDE
:103900002560D5E720BFF1E7740A00202DE9F84FC4
:103910004400DFF85CB126180BEBC6068146F76A57
:10392000012F8A46904667D03DD3022F30D100F157
:10393000010909EB4909756A4FEAC9090027B36A09
:10394000346AAB4203F1FF329CBF1B1903F1FF3312
:10395000A4EB05048CBF531B5B1B0BEB0902444516
:1039600028BF44469C42506828BF1C462844514604
:1039700022463FF090F8336A25449D422744A8EB45
:103980000408A24408D07562B8F1000FD7D100E056
:1039900000273846BDE8F88F00231D467362B8F152
:1039A000000FCCD1F5E7B36A756AAB429CBF326AAF
:1039B0009B18013B5B1B9845EBD8044400F10109BF
:1039C0000BEBC40409EB49090BEBC90B266ADBF8C6
:1039D0000400761BB045284443D33246A8EB0605C5
:1039E0003FF059F80AEB0601DBF804002A463FF0E5
:1039F00052F847466562CCE7D6E90825B76AAF4278
:103A000098BFBF18461C013F06EB46067F1B0BEB19
:103A1000C606474528BF47467068A2EB05084745DC
:103A2000284412D3A1444246A7EB08050BEBC90B6F
:103A30003FF031F80AEB080170682A463FF02BF896
:103A4000CBF824503846BDE8F88FA1440BEBC90BE6
:103A50003A463D443FF01FF8CBF824503846BDE8C5
:103A6000F88F424645443FF016F84746656290E7B6
:103A70001CF000202DE9F0412B4C94F800C00546C5
:103A8000884616461F46BCF1000F23D02369AB427F
:103A900046D90020FDF7FAFD5DB92A46154404EB2E
:103AA000C504069BE3620020FDF7F8FD0020BDE899
:103AB000F0816B1C03EB4303DB006A00511904EB3C
:103AC000C10144F80380234400200F625E608862D5
:103AD0004862E3E7154B1648A3610222C4E90422B9
:103AE0004FF40071134AA3641023C4F828C023655F
:103AF000C4F824C0C4F82CC0C4F858C0C4F854C0DA
:103B0000C4F85CC0E0612162E2640B49E01D3FF053
:103B100012FC0A4920463FF00EFC2023A371B5E7B2
:103B20004FF0FF30C3E700BF1CF00020D445040075
:103B3000880A0020780A0020E0450400E4450400DB
:103B400010B44FF080414FF080520020C1F80C01BA
:103B50005E4BC1F81001C1F83805D2F80414C3F85F
:103B60002015D2F80814C3F82415D2F80C14C3F8A1
:103B70002815D2F81014C3F82C15D2F81414C3F871
:103B80003015D2F81814C3F83415D2F81C14C3F841
:103B90004015D2F82014C3F84415D2F82414C3F801
:103BA0004815D2F82814C3F84C15D2F82C14C3F8D1
:103BB0005015D2F83014C3F85415D2F83414C3F8A1
:103BC0006015D2F83814C3F86415D2F83C04C3F871
:103BD0006805D2F840043E49C3F86C050968D2F87C
:103BE0004424C3F87025082924D04FF08043D3F82B
:103BF0000024D20744BF6FF00102C3F80024354A05
:103C0000D2F8883043F47003C2F88830BFF34F8F86
:103C1000BFF36F8F4FF01023D3F80022002A23DB6D
:103C2000D3F80432002B1FDB2B4B2C4A1A605DF8B3
:103C3000044B70472A4B1B68002BD6D129482A4ACF
:103C40002A4C04602A492B4BFB20C2F818050A684D
:103C50001B68294822F00F0203F00F0313434FF4AF
:103C600000720B600260C0E7244B0122C3F80425F8
:103C7000D3F80024002AFBD04FF0102312221F4952
:103C8000C3F80022D1F80034002BFBD04FF01022F3
:103C900012211A4BC2F80412D3F80024002AFBD0D8
:103CA00000221649C3F80425D1F80034002BFBD0BC
:103CB000BFF34F8F0749124BCA6802F4E062134307
:103CC000CB60BFF34F8F00BFFDE700BF00C00040D7
:103CD0003001001000ED00E0080000200090D0034B
:103CE000340100108C56004000F000404881030071
:103CF000E40E0040580200104096024000E00140EF
:103D00000400FA0538B504460D4600F05BFA04F5E8
:103D1000647104F55D7000F04AF9234604F21C4119
:103D2000154A04F55F7000F09CF904F29633C4F86C
:103D3000903304F222428023A4F89433C4F81C2464
:103D4000002340F2145284F8183484F81934A4F88B
:103D5000202484F8383929462346084A04F63C10C2
:103D60001EF08AF822460649201D06F0A9FB36F00F
:103D700019FC204638BD00BF913F0000873E00007F
:103D8000B73D000010B5054C01462046FFF7BAFFCD
:103D900000F0ECFA844200D0FEE710BD880C002051
:103DA000D0F8902300F296339A4203D100F63C10EB
:103DB0001EF084B87047FFF7F3BF2DE9F8430446BF
:103DC000051D00F55D764FF002080127284606F034
:103DD00097FC94F8183490B1022B18D1012B21D301
:103DE000022BF3D1304600F01DF980B994F8383930
:103DF00084F81804002BE9D084F83809E5E7012B92
:103E0000EDD194F81914304600F0DEF8F8B1D4F88A
:103E1000901304F29630091A89B291B336F056FC29
:103E200078B3FEE7204600F0A7FA08B135F02AFF84
:103E3000204600F0ABFA0028E9D1304600F0BBF88C
:103E40000028E4D1284606F0F1FC84F818742846CE
:103E500006F003FD28B9284606F008FD84F8190489
:103E6000CFE794F8C090284606F00EFEB9F1000F97
:103E700004D094F8C0300BB984F8387984F81884E9
:103E8000B0E7BDE8F88308B500F070FABDE8084077
:103E9000FFF793BF00F29633C0F890338023A0F869
:103EA000943300F63C101EF009B808B500F05EFA35
:103EB00018B1BDE80840FFF7EDBF08BD38B50446AE
:103EC0000D4600F053FA38B12A46214600F55F70DE
:103ED000BDE8384000F0CEB838BD0000F0B50C4663
:103EE000A1B016461F4600F05BFA2346194A1A4D48
:103EF000802168463FF0D4F968463FF039FA6946B8
:103F00000246002001F0EAF90024BC42A0B20ED023
:103F1000292C0BD0A4EB840104EB4400335D2A462A
:103F2000803168443FF0BCF90134EEE7204600EBF5
:103F30004000C0F18001094A68443FF0B1F9684689
:103F40003FF016FA0DF10101421E002001F0C6F902
:103F500021B0F0BDEB450400FF4504000546040018
:103F600038B5D0F81C3400F222455B1B04469BB2E6
:103F700051B91A46294601F0AEF840F21453C4F87C
:103F80001C54A4F8203438BD2A46FFF7A7FFF4E7F5
:103F9000FFF7E6BF838843B103685A1C02601970BB
:103FA0008388013B838000207047032070470022F4
:103FB00001608280704708B54FF6FF7383807E21D1
:103FC0000068FFF7E7FF08BD38B57E2905460C46B7
:103FD00000680AD87D2903D2112901D0132906D1FE
:103FE0008388012B08D8032005E0F829F7E721464C
:103FF000FFF7D0FF40B138BD7D21FFF7CBFF84F044
:1040000020012868FFF7C6FFAA88054B5440E4B298
:10401000002033F8143083EA1223AB80EBE700BFB3
:10402000084604002DE9F04186880368F543ADB2E7
:10403000E9B204461F68B3F80480FFF7C5FF48B92A
:10404000290A2046FFF7C0FF20B97E212068FFF72C
:10405000A1FF20B123681F60A3F80480A680BDE8FB
:10406000F08130B500250570C0E90112C0E90335C3
:1040700030BD00002DE9F843374E04460D468F1839
:104080004FF00208AF4265D0237815F8011B012BD1
:1040900024D01BD3022BF5D16068B0F80490B9F19D
:1040A000000F50D0B4F810C081F0200181EA0C025A
:1040B000D2B236F8123083EA1C232382FFF76AFF5C
:1040C000638A0133638201232370DBE77E29D9D120
:1040D000012323704FF6FF732361D3E77D2917D0A7
:1040E0007E2918D06068B0F80490B9F1000F2AD08A
:1040F000B4F810C081EA0C02D2B236F8123083EA6A
:104100001C232382FFF746FF638A01336382B9E7EA
:1041100084F80080B6E7638A002BDBD0012B10D92E
:10412000228A4FF2B8039A420BD163681A68023AA6
:104130001A609A8802329A800021D4E902309847A6
:10414000C8E70621F9E7A368E0680321984784F8E7
:10415000009097E7BDE8F8830846040021282CD892
:10416000DFE800F02E1113152B17191B2B2B2B2B0F
:104170001D1F21232B2B2B2B2B2B2B27252B2B2BC5
:104180002B2B2B2B2B29012070470E2070470B2047
:1041900070470C20704709207047032070470220A9
:1041A0007047042070471120704712207047132079
:1041B0007047142070471520704700F58040704705
:1041C000002070472DE9F8430646044646F8041BD4
:1041D0004FF40072894600F1F901304606F055F9B6
:1041E0000025A66704F17C0304F19C02C3E9005595
:1041F00008339A42FAD1A4F89C50C4E9285504F136
:10420000A80006F0A8FC4F4BC4F8C8304FF6FF7862
:10421000C82304F1D407A4F8CC304B4A84F8C0502A
:104220002346C4F8C45084F8CE5084F8CF50A4F884
:10423000D080494638461DF01FFE00230022C4E905
:104240003823C4E93A23042384F8F0303F4BC4F800
:10425000DC501B68C4F8F43084F8F85084F8F95244
:1042600084F8FA5284F8FB5284F8385384F83953AE
:1042700084F83A5384F83B5384F83C5384F83D5314
:1042800084F83E5384F83F5384F8405384F84183C4
:1042900084F84253C4F84853C4F84C53C4F85053FC
:1042A000C4F85453C4F85853C4F85C53C4F860536A
:1042B000C4F86453C4F86853C4F86C5384F870535A
:1042C000236803B9FEE7224B22491C602246304690
:1042D00006F0F9F83C22002104F53F703EF0FFFBA8
:1042E00004F5517011F033F822461B49206809F09B
:1042F00083F92246206819490AF002FA2068012150
:104300000AF007FA2246206815491FF028F82546CA
:104310002068002109F0A2F8206812491EF0B4F8C4
:1043200055F8E00B104922461DF0EFFF77220021DF
:10433000284606F0DFFE38461DF0C0FD2046BDE8E9
:10434000F88300BF00F8FF07FD460000F4480400B2
:10435000D01500206B4700000D9E0000FB9B000065
:104360001D9D000095680000E5670000014B18687E
:10437000704700BFD015002090F8F030042B1ABF12
:1043800090F8C00080F001000020704790F8F030F5
:10439000012B06BF90F8C00080F00100002070479C
:1043A000D0F860330133C0F8603370472DE9F8432B
:1043B000994690F83C3304469046002914BF0F46B6
:1043C000702713B10D20BDE8F88300F1E0053946F0
:1043D000284606F025FF0028F4D194F8FA2294F834
:1043E000FB329A420AD00B220021284606F082FEB8
:1043F00004F1D4001DF062FD0320E4E704F1780627
:104400003B4606228021304606F041FE48B91FFA9D
:1044100089F24146A06F06F00DFB10B9304606F058
:1044200019FE0328CFD1DEE70138C0B204289ABFB5
:10443000014B185C0020704711480400F8B511F0DA
:104440000F0508D1022A04D11A462946E03006F0A9
:1044500051FE28460CE090F8FB6290F8FA72F41BCB
:104460000E2C06DDE0300E22002106F043FE032074
:10447000F8BD90F8F942AC4217D0BE4215D93C467F
:104480000E2C02D90F3CE4B2FAE7BE3400EB8404F0
:1044900094F804C01CF0100F0DD00CF00F0EAE45B8
:1044A00009D16FF3041C84F804C034460E2C05D9DE
:1044B0000F3CE4B2FAE70137FFB2DEE7BE3400EBAF
:1044C00084040136257961F30305E9B241F0100156
:1044D00062F346112171626863F3DE12626080F854
:1044E000FB620020C4E713460222FFF7A7BF38B5DE
:1044F00011F0300F00F1780408BFC0F8C420154651
:1045000000230622204606F0C2FD48B9294620466F
:1045100006F005FD20B92046BDE8384006F09ABDFA
:1045200038BD2DE9F74304460E46014668469146DC
:10453000984600F0E5FEDDE900570DB9F90717D5FB
:1045400004F178084B4606223146404606F09FFDAE
:10455000D8B97B10FA0704EB030044BFE3585D5958
:10456000A84790B9404603B0BDE8F04306F072BDDD
:10457000B8F1000F07D00D223146204603B0BDE848
:10458000F043FFF7B4BF4246F6E703B0BDE8F0835F
:1045900070B50446002694F8FA5294F8FB32AB4208
:1045A00037D0BE3504EB85021379D90616D404EB57
:1045B00085052B796FF304132B7194F8FA320133CC
:1045C000DBB20F2B84F8FA32E5D194F8FB3284F891
:1045D000FA620E2B1AD90F3BDBB2FAE7C3F30301E1
:1045E000526803F06003402B41F08001C2F3D71200
:1045F00005D12046FFF77BFF0028D8D070BDB3FA65
:1046000083F35B092046FFF78CFFF5E784F8FB3264
:10461000C1E70020F2E700002DE9F04F044685B025
:1046200005F0FEFBD4E93823134352D004F1E00037
:1046300006F05DFD2F4F01900025019AEBB29342E9
:1046400047D2D4E93803C5F1200103FA01F1A5F1FD
:10465000200220FA05FA23FA02F24AEA010A4AEA9B
:10466000020A00230AF001021343A5F12003C5F159
:104670002006029301D10135DFE70C236B43D919E2
:10468000DA5962BB4A68772A09D12068039235F06B
:10469000DFFA082898BF184B039A98BF1A5C80214C
:1046A0002046FFF724FFA0B9029A012303FA02F97A
:1046B00023FA06F603FA05F8D4E9382349EA06098D
:1046C00022EA080023EA090150EA0103C4E938019B
:1046D000D1D1012384F8703305B0BDE8F08F94F890
:1046E0007033002BE0D0012380212046FFF719FF13
:1046F000D9E700BFF848040008480400014B1868D7
:10470000FFF78ABFD015002010B590F8C0300446DE
:1047100033B1D0F8F4308B4204BF002380F8C030AE
:104720002046FFF735FFF8B994F8F81099B1012346
:104730000C222046FFF7F5FEB0B994F8F03084F86B
:10474000F800042B07D0201D05F0D8FF0123C4F882
:10475000F40084F8C030204605F01FFA20B9204646
:10476000BDE81040FFF758BF10BDFFF7CDBFF8B54B
:1047700000F1780405462046069EBDF81C7006F040
:1047800086FC50B93A463146A86F06F053F920B975
:104790002046BDE8F84006F05DBCF8BD2DE9F04FBD
:1047A000042B87B004460F46924602D0052B16D044
:1047B000FEE7014604A801F0BBFEDDE904654FF009
:1047C000070905F0010B9EB9BBF1000F10D10D22B6
:1047D00039462046FFF787FE07B0BDE8F08F014657
:1047E00004A801F00FFF4FF00809DDE90465E8E7D0
:1047F00004F1A808404606F022FB0DF10A0203A9C5
:10480000404606F0C5FA404606F020FB6D10002336
:1048100084F83C336019BBF1000F01D063599E59F5
:10482000B047012384F83C33054618B1FFF796FCE6
:104830000246CDE7BDF80A300193039B00934A4638
:10484000534639462046FFF792FF0028C4D02A4637
:10485000BEE708B50022FFF746FE08BD38B504469E
:10486000006808F0C7FE002120681DF0F9FC002157
:10487000206809F011FF722280212046FFF737FEE1
:10488000054648B104F1E0007722002106F032FC31
:1048900004F1D4001DF012FB284638BD30B5C3B07A
:1048A00004460D46002301A9A830019306F052FAF0
:1048B00040B1FFF753FC294602462046FFF717FE9A
:1048C00043B030BD8DF80701FF2202A9019878346A
:1048D00006F010FD4FF46F5306222946204606F0DD
:1048E000D6FB0028ECD102A9204606F053FB002895
:1048F000E6D1204606F0AEFBE2E710B504460068BC
:104900000BF0BDFC0146A06FBDE8104006F081B879
:1049100010B5044600680BF05EFA0146A06FBDE8D2
:10492000104006F076B8000037B502A9002305460E
:1049300041F8043DA83006F0D3F9044690B99DF83B
:10494000041028680BF052FA044658B928680BF096
:1049500096FC38B195F83A3323B1044928680BF036
:104960009FFC0446204603B030BD00BFC59F000039
:1049700010B50446006835F0C9FA002818BF0221B6
:10498000A06F08BF0021BDE8104006F042B837B55F
:1049900002A90023054601F8013DA83006F0F3F80E
:1049A000044650B99DF807301BB1022B08D80121ED
:1049B00000E00146286835F0ABFA204603B030BD70
:1049C0000724FAE710B5044654F8780B0BF064FAA4
:1049D00001462046BDE8104006F045BA13B504462E
:1049E0000DF10601A83006F0FCF820B9BDF806105C
:1049F00020680BF055FA02B010BD10B504460068EF
:104A00000BF02FFA08220146A06FBDE8104006F017
:104A100011B813B50822044601A9A83006F077F9A9
:104A200018B9019920680BF020FA02B010BD10B53A
:104A3000044654F8780B0BF056FA01462046BDE8C0
:104A4000104006F010BA90F83A13806F05F0E1BFFD
:104A500037B502A90023054601F8013DA83006F04C
:104A6000A2F8044678B928680BF009FC38B19DF823
:104A70000730286853B107490BF012FC04469DF833
:104A8000073085F83A33204603B030BD0BF000FC08
:104A9000F4E700BFC59F0000F8B505460E460024A8
:104AA000012707FA04F33342E1B204D10134202C88
:104AB000F7D1002004E0A86F05F0ABFF0028F5D087
:104AC000F8BD0023F7B505460C460B6000F1A807BA
:104AD0000126B5F8AE20B5F8B0309A420FD00DF1EE
:104AE0000701384606F04FF850B99DF807301F2BE4
:104AF00008D8226806FA03F313432360E9E700208D
:104B000003B0F0BD0720FBE7D0F8C810FFF7C4BF23
:104B100013B502A9002341F8043D0446FFF7D1FF75
:104B200010B9019BC4F8C83002B010BDB0F8CC1069
:104B3000783006F098B900F1CC01A83006F051B8F1
:104B400010B5044600680BF09AFB48B194F9413364
:104B5000013312D00221A06FBDE8104005F059BF0B
:104B600020680BF02FFA50B920680BF045FA0028A6
:104B7000F0D120681DF0BDFB18B90021EBE7012141
:104B8000E9E70321E7E7000010B586B006A9002396
:104B9000044601F8013DA83005F0F5FF40B99DF845
:104BA0001730032B03D8DFE803F047050F370C203D
:104BB00006B010BDB4F8CC200094224BD4F8C81035
:104BC00020680BF0EBF9F3E720680BF058FBC8B155
:104BD00094F94133013331D1D4F8C82082B3531E44
:104BE00013402DD15208D9B203F1010008D184F845
:104BF0004133B4F8CC20144B20680BF065FBD7E7A9
:104C00000346EFE7B4F8CC200094104BD4F8C8105A
:104C100020680BF0DDF9CBE70A49019194F8CF1039
:104C2000009194F8CE30B4F8D0200294D4F8C81093
:104C300020681DF04AFBBBE70020B9E70D20B7E76D
:104C40000720B5E7879A000049A10000EB9A000011
:104C50002DE9F84F0546E03006F049FADFF85890A4
:104C6000834600244FF00C0A05F17808E3B29B4517
:104C70001FD9D5E93A23C4F1200022FA04F603FA39
:104C800000F0A4F1200123FA01F106430E4306F0DF
:104C900001020023134301D10134E7E70AFB04F3C7
:104CA000404653F8091006F03AF90028F4D0BDE860
:104CB000F88F0020FBE700BFF8480400F7B5002399
:104CC0000022C0E93A23044600F1A80700F1E006FB
:104CD000B4F8AE20B4F8B0309A420BD001A93846EF
:104CE00005F0FEFF054648B901220199304606F05D
:104CF00043FAEDE70025284603B0F0BD012341F259
:104D0000080280212046FFF70CFCF4E713B50446A7
:104D100001A9A83005F0E4FF28B90122019904F1A6
:104D2000E00006F029FA02B010BD13B5044601A94F
:104D3000A83005F0D5FF28B90246019904F1E0003A
:104D400006F01AFA02B010BDD0F8C410783006F0A0
:104D5000E6B810B500F178040421204606F0DFF82B
:104D600028B920460321BDE8104006F0D8B810BD90
:104D70000321783006F0D3B80021783006F0CFB8A0
:104D800010B500F178040521204606F0C8F8002887
:104D90005DD10C21204606F0C2F8002857D1182119
:104DA000204606F0BCF8002851D12021204606F00C
:104DB000B6F800284BD140F20121204606F0AFF8AA
:104DC000002844D13521204606F0A9F8F8BB0E2171
:104DD000204606F0A4F8D0BB4FF40071204606F040
:104DE0009EF8A0BB4FF40171204606F098F870BB06
:104DF00040F20A21204606F092F840BB30212046BE
:104E000006F08DF818BB3121204606F088F8F0B97D
:104E10004FF48061204606F082F8C0B940F20341A9
:104E2000204606F07CF890B940F20441204606F096
:104E300076F860B940F20241204606F070F830B9C9
:104E4000204640F20541BDE8104006F068B810BDAC
:104E500010B5044608F0D8FB014604F17800BDE81F
:104E6000104006F097B80121806F05F0D2BD0021F7
:104E7000806F05F0CEBD212070470421806F05F0C2
:104E8000C8BD0C20704713B504466946006834F06D
:104E900039FF08226946A06F05F0CCFD02B010BDB5
:104EA0000221783006F011B990F8F010806F05F00B
:104EB000B0BD000073B504460E46A8300DF10701E1
:104EC00005F061FEA0BB9DF80730042B07D8012236
:104ED00002FA03F111F01B0F02D14B0703D4032395
:104EE00084F8F03001E084F8F020002384F8F830F2
:104EF0000C22012331462046FFF713FB94F8F030D3
:104F0000042B054608D070B9201D05F0F7FBC4F846
:104F1000F400012384F8C03015B184F8F86000254E
:104F2000284602B070BD074B1B68C4F8F430F0E7A8
:104F3000FFF714F9314602462046FFF7D8FA054636
:104F4000EEE700BFF4480400712A10B51C4616D0E5
:104F500003D80C2A0BD000200DE041F210539A42E6
:104F60000AD0B2F56F5FF6D1FFF798FC01E0FFF7CA
:104F7000A1FF2070012010BD02F04BF8F9E705F009
:104F800005FAF6E7F0B585B004460D460026014661
:104F900002A817468DF8076001F05CF8DDE90223EE
:104FA00003F0010102B9C1B15B1084F83C63E01861
:104FB00009B1E3589A58904701228DF8070084F808
:104FC0003C23C8B93B4629462046FFF737FA8DF8FF
:104FD00007009DF8070005B0F0BD0DF107033A4644
:104FE00029462046FFF7B0FF0028F2D10D222946BE
:104FF0002046FFF778FAEAE7FFF7B0F80246F6E74F
:1050000073B50D4602A9002341F8043D0446A830BB
:10501000164605F065FE014650B1FFF79FF8294698
:1050200002462046FFF75FFA0146084602B070BD0F
:10503000B31E032BF9D8DFE803F002090F0F019B21
:10504000002229462046FFF7F9F9EDE7019A2946A3
:105050002046FFF797FFE7E73346019A29462046A7
:10506000FFF79CFBE0E737B504460D46A83001A9E1
:1050700005F036FE70B9019A0B2A26D8DFE802F057
:10508000060C11111111252525161B202946204635
:10509000FFF7DFFB03B030BD29462046FFF7DEFBFC
:1050A000F8E729462046FFF7ABFFF3E729462046FD
:1050B00002F04DF9EEE72946204602F04CF9E9E707
:1050C0002946204602F057F9E4E705222946204602
:1050D000FFF709FADEE7F7B502AD0123002700F17B
:1050E000A806044680F83C3305F8017D304605F0FB
:1050F0003FFD042384F8F03084F8C0702946304620
:1051000005F041FD80B99DF807100B060CD5D4F8C9
:10511000643311F0300F03F10103C4F8643308D095
:1051200006222046FFF7E3F9002384F83C3303B05E
:10513000F0BD2046FFF797FF38B19DF80710FFF745
:105140000DF802462046FFF7CEF994F8FA2294F8BB
:10515000FB329A4202D02046FFF71AFA9DF8073038
:1051600094F8F92203F00F0332B193421EBFD4F832
:1051700068230132C4F868230F2B14BF01330123C5
:1051800084F8F932D0E700002DE9F0410446E03020
:1051900005F0ADFF0C4E074600254FF00C087834A3
:1051A000EBB29F420ED908FB05F39A19127A0AB99D
:1051B0000135F5E79959204605F0B1FE0028F7D0F2
:1051C000BDE8F0810020FBE7F848040010B5044674
:1051D000006834F097FEC1B2A06FBDE8104005F042
:1051E00018BC10B50446006835F0C6F8C1B2A06F0F
:1051F000BDE8104005F00DBC13B504460DF10701E4
:10520000006834F0E5FE30B99DF80710A06F05F096
:1052100000FC02B010BDFEF7A1FF014604F17800CA
:1052200005F053FFF5E713B502A90023044601F882
:10523000013DA83005F0C9FC20B99DF90710206890
:1052400034F0D0FE02B010BDFEE7FEE710B5044614
:105250000BF09AF8FFF7E8F80146A06FBDE81040A0
:1052600005F0D7BB07B502A9002301F8013DA8301E
:1052700005F089FC60B99DF80730072B15D8DFE8E9
:1052800003F01212040A0A0C0E1001200BF07EF833
:1052900003B05DF804FB0220F8E70320F6E70420E2
:1052A000F4E70520F2E70020F0E70720F0E710B56B
:1052B000044600680AF0BEFD01462046BDE81040E5
:1052C000FFF7EABB10B5044600681BF0B5FA0146CB
:1052D0002046BDE81040FFF7DFBB000010B41346C6
:1052E000064A0446106828B10A4621465DF8044B78
:1052F000FFF75CB80D205DF8044B7047D015002017
:1053000040F207539A4200F0E384B2F5A16F80F0B7
:105310006681482A00F0498400F2A780272A00F01D
:10532000D6834CD8082A00F0B6831FD8032A00F091
:10533000C0830AD8012A4FF0000300F0DA8340F25C
:10534000BD83CB4AC0E900237047052A4FF0000314
:1053500000F06683C0F0EE83062A00F0A683072AD9
:1053600000F0BE830023C0E900337047212A00F01B
:10537000A98314D80C2A00F0938306D8092AF1D106
:10538000BC4B03600023436070470D2A00F0AC83E0
:10539000202AE7D1B84B0360002343607047232ADB
:1053A0004FF0000300F0EC83C0F0C883252A00F022
:1053B0009383262AD6D1B14AC0E900237047382A00
:1053C00000F0A58328D8322A00F0AA830FD8292A12
:1053D0004FF0000300F0B683C0F0B883302A00F02D
:1053E0009B83312ABED1A64AC0E900237047352AE3
:1053F00000F0888306D8342AB4D1A24B036000237E
:1054000043607047362A00F07883372AAAD19E4B32
:105410000360002343607047432A00F0CF8314D811
:10542000402A00F0D08306D83A2A9BD1974B0360DC
:10543000002343607047412A00F0A683422A91D19D
:10544000934B0360002343607047452A4FF00003ED
:1054500000F0BE83C0F0A583462A00F09E83472A51
:1054600080D18C4AC0E900237047612A00F0118482
:105470004FD8562A00F0F48325D8512A00F0D8835B
:1054800010D84A2A4FF0000300F08383C0F09283C3
:105490004B2A00F03A85502A7FF464AF7E4AC0E977
:1054A00000237047532A4FF0000300F0AC83C0F094
:1054B0003485542A00F02D85552A7FF453AF774A5E
:1054C000C0E9002370475B2A00F0AD8310D8582A4A
:1054D0004FF0000300F0C983C0F0A183592A00F007
:1054E000BB835A2A7FF43EAF6D4AC0E90023704760
:1054F0005D2A4FF0000300F06F83C0F071835E2AD5
:1055000000F08583602A7FF42DAF664AC0E900234E
:105510007047852A00F034852BD8662A00F0BE83B8
:1055200010D8632A4FF0000300F0AB83C0F0AD83C6
:10553000642A00F0B883652A7FF414AF5A4AC0E9A0
:1055400000237047802A00F0118507D8672A7FF46E
:1055500009AF564B0360002343607047822A00F076
:105560000A85842A7FF4FEAE514B0360002343601A
:10557000704740F202539A4200F0998318D8A12A4A
:1055800000F0B98407D8A02A7FF4ECAE494B036041
:10559000002343607047A22A00F0B28440F2015316
:1055A0009A427FF4DFAE444B0360002343607047B0
:1055B00040F204539A424FF0000300F08183C0F0A0
:1055C0007B8340F205518A4200F07E8340F206510F
:1055D0008A427FF4C7AE394AC0E90023704740F2DF
:1055E00092639A4200F0558400F21481B2F5AE6FD6
:1055F00000F0428400F29B8040F266539A4200F031
:10560000158461D840F20C539A4200F0FE8317D8FB
:1056100040F209539A4200F06583B2F5A16F40F25F
:105620005C8340F20A539A4200F0EA8340F20B5343
:105630009A427FF497AE224B036000234360704789
:1056400040F20E539A424FF0000300F0E783C0F09F
:10565000E18340F264518A4200F0E48340F26551F4
:105660008A427FF47FAE174AC0E90023704700BF2B
:10567000514E0000A14E0000FB480000CD5100003B
:10568000094B0000FB490000474A00009B720000E4
:10569000C97300005D750000CB760000AB680000A8
:1056A00005790000818700007B88000039890000AF
:1056B0004D6D0000137B0000958C00000D8D0000E7
:1056C000858D0000FD8D000040F26B539A4200F082
:1056D000BE8315D8B2F5AD6F4FF0000300F0AF8375
:1056E000C0F0A98340F269518A4200F0AC8340F2D5
:1056F0006A518A427FF436AECE4AC0E90023704731
:1057000040F26D539A424FF0000300F0AD83C0F0B9
:10571000A78340F26E518A4200F0AA8340F26F5193
:105720008A427FF41FAEC44AC0E90023704740F2AA
:10573000CD539A4200F0C38332D8B2F5B96F00F06E
:10574000AD8316D840F272539A424FF0000300F036
:105750009C83C0F0968340F273518A4200F07C83B0
:1057600040F274518A427FF4FDADB44AC0E900238F
:10577000704740F2CA539A424FF0000300F09783FB
:10578000C0F0918340F2CB518A4200F0948340F202
:10579000CC518A427FF4E6ADA94AC0E900237047A4
:1057A00040F231639A4200F099831DD840F22D6394
:1057B0009A4200F0898309D840F22C639A427FF420
:1057C000D1ADA04B036000234360704740F22E63CD
:1057D0009A4200F07E83B2F5C66F7FF4C3AD9A4B58
:1057E000036000234360704740F233639A424FF0F6
:1057F000000300F07C83C0F07683B2F5D26F00F036
:10580000BB8140F291618A427FF4ACAD8F4AC0E91E
:105810000023704741F209539A4200F0998300F245
:10582000848041F208339A4200F09C813AD841F2D8
:1058300001339A4200F09B811DD841F209039A423C
:1058400000F0738109D841F208039A427FF48AADCF
:105850007F4B036000234360704741F20B239A4261
:1058600000F09383B2F5985F7FF47CAD794B0360D1
:1058700000234360704741F203339A424FF0000324
:1058800000F08883C0F0668141F206318A4200F060
:10589000658141F207318A427FF464AD6E4AC0E906
:1058A0000023704741F203539A4200F04C831DD805
:1058B000B2F5A85F00F0988109D841F209339A4205
:1058C0007FF450AD654B036000234360704741F2A5
:1058D00001539A4200F0B18141F202539A427FF49F
:1058E00041AD5F4B036000234360704741F20653B4
:1058F0009A4200F0A78109D841F204539A427FF4FA
:1059000031AD584B036000234360704741F20753A9
:105910009A4200F00F8341F208539A427FF422AD7D
:10592000514B036000234360704741F217539A4282
:1059300000F0FB823BD841F20E539A4200F087817F
:1059400016D841F20B539A424FF0000300F06381E6
:10595000C0F0038341F20C518A4200F0F08241F220
:105960000D518A427FF4FEAC404AC0E900237047E3
:1059700041F213539A4200F03C8109D841F210538E
:105980009A427FF4EFAC3A4B0360002343607047C8
:1059900041F214539A4200F0318141F215539A4278
:1059A0007FF4E0AC334B036000234360704741F267
:1059B00023539A4200F0D58216D841F219539A42E5
:1059C0004FF0000300F05981C0F0538141F22151A2
:1059D0008A4200F0A68241F222518A427FF4C2AC90
:1059E000254AC0E900237047B2F5804F1CD009D882
:1059F00041F60E139A427FF4B5AC204B03600023AE
:105A00004360704744F201039A423FD044F20203DC
:105A10009A427FF4A7AC1A4B03600023436070479F
:105A2000184AC0E900237047174B03600023436006
:105A3000704700BF758E0000358F0000D58E0000C6
:105A4000A58F0000B98F0000D78F000015910000CE
:105A5000514C000059930000039400007D8C00001D
:105A60002B6B00001B6C0000676B00006176000070
:105A7000F96F00006D7D0000BB7700003D990000CC
:105A80004B520000814D000049520000984B0360CA
:105A9000002343607047974B0360002343607047C7
:105AA000954B0360002343607047944AC0E900238C
:105AB0007047934B0360002343607047914AC0E9ED
:105AC00000237047904B03600023436070478F4B67
:105AD00003600023436070478D4AC0E9002370478C
