:1000000000600020B5020000DD020000DF020000F9
:10001000E1020000E3020000E50200000000000031
:10002000000000000000000000000000E7020000E7
:10003000E902000000000000EB020000ED020000F9
:1000400049120000BDCC010085B30100EF020000A1
:10005000EF02000000000000D5150000EF020000D4
:10006000EF020000EF020000EF020000E99F010034
:10007000EF02000065A70100EF020000EF020000A0
:10008000EF020000E9080000EF020000EF020000AC
:10009000B1090000EF020000EF020000EF020000D3
:1000A000EF020000EF02000000000000000000006E
:1000B000EF020000EF02000000000000000000005E
:1000C0000000000000000000000000000000000030
:1000D0000000000000000000000000000000000020
:1000E0000000000000000000000000000000000010
:1000F0000000000000000000000000000000000000
:1001000000000000000000000000000000000000EF
:1001100000000000000000000000000000000000DF
:1001200000000000000000000000000000000000CF
:1001300000000000000000000000000000000000BF
:1001400000000000000000000000000000000000AF
:10015000000000000000000000000000000000009F
:10016000000000000000000000000000000000008F
:10017000000000000000000000000000000000007F
:10018000000000000000000000000000000000006F
:10019000000000000000000000000000000000005F
:1001A000000000000000000000000000000000004F
:1001B000000000000000000000000000000000003F
:1001C000000000000000000000000000000000002F
:1001D000000000000000000000000000000000001F
:1001E000000000000000000000000000000000000F
:1001F00000000000000000000000000000000000FF
:1002000010B5054C237833B9044B13B10448AFF350
:1002100000800123237010BD1802002000000000A0
:10022000DC61020008B5034B1BB103490348AFF37F
:10023000008008BD000000001C020020DC610200FC
:10024000154B002B08BF134B9D46A3F5803A0021A8
:100250008B460F461348144A121A1EF0C7FF0F4B65
:10026000002B00D098470E4B002B00D09847002061
:10027000002104000D000D48002802D00C48AFF307
:1002800000801EF047FF2000290002F067F91EF0F1
:100290001BFF00BF000008000060002000000000FD
:1002A000000000001802002010570020000000008D
:1002B000000000000649074A074B9B1A03DD043B78
:1002C000C858D050FBDC02F0C1FAFFF7B9FF0000BC
:1002D000E86102000000002018020020FEE7FEE7AF
:1002E000FEE7FEE7FEE7FEE7FEE7FEE7FEE7FEE7E6
:1002F000054A4FF0A043105CD3F8043523FA00F010
:10030000C04300F0010070471C0B0200044B195C55
:100310004FF0A04201238B40C2F80C35704700BF5C
:100320001C0B0200044B195C4FF0A04201238B40D0
:10033000C2F80835704700BF1C0B02004FF0A04305
:1003400010B44FF480204FF400344FF400214FF4E8
:100350008012C3F80845C3F80805C3F80815C3F8A8
:10036000082510BC704700BF4FF0A04310B44FF4F5
:1003700080204FF400344FF400214FF48012C3F872
:100380000C45C3F80C05C3F80C15C3F80C2510BCBC
:10039000704700BF074B4FF0A041185CD1F80435FF
:1003A0000122824022EA03001340C1F80805C1F887
:1003B0000C3570471C0B02000D2809D00E2809D0FF
:1003C0000F2809D010280CBF03204FF0FF307047D2
:1003D000002070470120704702207047C20730B4E8
:1003E0001AD54FF0A0430322C3F844274FF4003539
:1003F000C3F848274FF48024C3F84C274FF400215A
:10040000C3F850274FF48012C3F80855C3F80845C5
:10041000C3F80815C3F8082583070AD54FF0A04391
:100420000C22C3F83427C3F83827C3F83C27C3F895
:10043000402730BC704700BF434B1978002900F0BB
:1004400081802DE9F04F002487B001258E4603E01E
:100450000134E4B2744560D23C4B27B21E6816F8F2
:1004600037C0ACF1200205FA02F9394ACCF1200379
:10047000D2E9000125FA03F349EA030905FA0CF869
:1004800000EA080201EA0903134306EBC70BDFD0B9
:1004900021EA09032E4920EA08026046C1E9002347
:1004A00001F08EF816F837C0ACF1200205FA02F21E
:1004B00001920199CCF12003C6B225FA03F3ACF105
:1004C0002002194306FA02F30393224B0191D3E968
:1004D0000023CDE9042305FA0CF30093CCF12001AD
:1004E000039B26FA01F10B43039306FA0CF30293E4
:1004F000DDE90467DDE9002316401F4032463B4634
:10050000DDE90267BB4208BFB24209D00E4B01349D
:1005100093F800E0E4B274459ED307B0BDE8F08FD5
:100520009BF80110DBF80430A1F10101B1FA81F16F
:100530004909091AB1FA81F14909002BE6D0604650
:100540009847E3E7704700BF3402002070020020A4
:1005500068020020600200202DE9F84F064624487A
:1005600000F0A4FCD8B9234F0123A6F1200103FA1F
:1005700001FBC6F12002D7E9000123FA02F24BEA9F
:10058000020B03FA06FA00EA0A0201EA0B0313431C
:1005900007D020EA0A0421EA0B05C7E90045BDE8B7
:1005A000F88F304601F00CF8134ED6E90089C8B137
:1005B00048EA0A0349EA0B049846A146D7E9002312
:1005C0004BEA03050D4B0A4819684AEA02044B46F8
:1005D0004246C6E90023C7E900450022BDE8F84FBE
:1005E00000F016BC28EA0A0829EA0B09E6E700BF72
:1005F0003C02002068020020600200203802002037
:10060000042A36D92DE9F04182B00E46054614463B
:1006100000F08CFE002836D01D491E4A1E4B0D608E
:100620001E481F491C60167000230022741EC0E97A
:100630000023C1E90023E4B2EEB105EBC404194F75
:10064000083D4FF00008032601E0AC4213D0A37828
:1006500020788DF806803A4601A98DF804608DF85F
:10066000053000F06DFE083C0028EED002B0BDE879
:10067000F081072070470C4A0C48002100F0B6FBBF
:1006800002B0BDE8F08100F00DFE0028C4D0EDE717
:100690007002002034020020380200206002002096
:1006A000680200205905000039040000200B0200F8
:1006B00070B5084D2B785BB1074E002433680121DB
:1006C00013F8340000F01AFF2B780134A342F5D858
:1006D000002070BD340200207002002000B585B0FB
:1006E00000230390194601AA44F20100CDE9013329
:1006F00000F004F805B05DF804FB00BF72B6094BCA
:100700001B68DB0700D500BEBFF34F8F0649074BC0
:10071000CA6802F4E0621343CB60BFF34F8F00BF9F
:10072000FDE700BFF0ED00E000ED00E00400FA0599
:10073000F0B412F0030412D14B1CDB000A4D0B4E37
:100740000B4F34709BB213442B600A4E0A4D0B4B77
:1007500028803A60347019802046F0BC7047072426
:100760002046F0BC704700BF7802002074020020D1
:100770007C020020840200208002002082020020EF
:100780002DE9F047294F3B888B4235D305460020A1
:1007900016460C4600F0BEFB254B264A2648197823
:1007A00013780088DBB2834238BF0133C9B234BF4B
:1007B000DBB20023994222D092F800801378DFF850
:1007C0008090DBB2984286BF0133DBB200235FFA30
:1007D00088F80020137000F0A5FBD9F800300FFA5C
:1007E00088F24FEAC20A43F83260534405B164B953
:1007F00000209880BDE8F0870920BDE8F087002040
:1008000000F090FB0420BDE8F0870C4B38881B6893
:10081000294608FB003022461EF0C4FCD9F80030FF
:100820009A440020AAF80440E4E700BF80020020B8
:10083000840200207402002082020020780200203E
:100840007C0200202DE9F84F1B4C1C4D22782B78A0
:100850009A4226D0DFF86CA0DFF86C90184FDFF8D2
:100860006CB04FF000082378DAF800203888D9F807
:100870000060DBB20FFA83FE02EBCE0103FB0060E7
:10088000898852F83E3098472378BBF80010DBB2D5
:100890005A1C9942D2B206D9227023782A789A42F9
:1008A000E1D1BDE8F88F84F8008022782B789A4255
:1008B000D9D1BDE8F88F00BF840200207402002067
:1008C000800200207C0200207802002082020020AA
:1008D000082910B5044602D00020FFF7FFFED4E936
:1008E0000030BDE8104018472DE9F041284A294B57
:1008F0000024C2F84041C2F84441C2F84841C2F85D
:100900004C41C2F80041C2F804411B6882B033B3C5
:100910002149D2F804550A68204EAD1A1A6825F00C
:100920007F45AA4227460CD8197CD3F81C80AD1A03
:100930001444B9B9B8F1000F03D043461A68AA426B
:10094000F2D91749174A0B7812789A4219D01649EA
:10095000164A41F823404FF48013C2F8003102B028
:10096000BDE8F0811F74D3E9053208210192684681
:1009700032460093FFF704FF0028DBD0FFF7AEFEFE
:10098000D8E7531CDBB2022B08BF00230B70DEE755
:1009900000100140A8030020A4030020D10800009B
:1009A000A1030020A00300209803002000E100E044
:1009B0002DE9F04F8C4A8D4913780978DFF8508281
:1009C000994285B0D8F800A000F07B810133DBB2FA
:1009D000022B08BF002386481370864A076852F826
:1009E00023107B1823F07F430024036053462646E0
:1009F0002046A446ABB11A688A4200F26581DC68E1
:100A0000C3F800C0891A1044DA6934B13D1825F0E2
:100A10007F45C3E90154DE611E4613460124002BC5
:100A2000E9D1002C40F07C8101230093724B734F7D
:100A3000DFF8E09143F00103019355464FF0000BBE
:100A400046B3D6E901C13446F669694B6C481A6869
:100A5000ACEB020323F07F43834248D80B4423606E
:100A600000220121C4E90122E2612174002D5DD040
:100A70002A689A424DD2284603E00A689A424FD229
:100A80000846C1699B1A0029F7D12360E161C4615E
:100A9000002ED6D178783978884264D00B4603EBA3
:100AA00043034C1CBA7807EBC303E1B28A421A79BC
:100AB000397004BF00213970022A9C6844D0032A8F
:100AC00038D0012AE8D1227C002AE5D1D3F80CC025
:100AD000C4F804C01969A1605869E06099F8000081
:100AE0009B69A3610028B0D062609446ADE7A2EB99
:100AF0000C0222F07F428A4202D28B1A2360AFE7B7
:100B000000230122C4E90033A360E36122746DB1C4
:100B10002A68C8F80040D31A2B60E56125468FE7A4
:100B2000D21A0A602360E161C461B1E7C8F80040ED
:100B3000254685E7002DAFD000232B74ED69002DED
:100B4000FBD1C8F80050A5E74DB1AC422B4603D10C
:100B5000E4E094422FD01346DA69002AF9D1002349
:100B6000237488429AD1BBF1000F01D1554553D06F
:100B7000002D56D1234E244A1F4C4FF480334FF49E
:100B800000310127C2F880103C43C6F848334FF4C7
:100B90003C60C6F808337760A047154BB7604FF448
:100BA0003C601D60A047194B1D70002389F8003080
:100BB00005B0BDE8F08FA34200F09180E0692168A4
:100BC000D861002800F086802A4603680B44036041
:100BD000AA424FF000033978787823741CBF154679
:100BE0004FF0010BBDE700BFA0030020A1030020D0
:100BF000A403002098030020300B0200880200208C
:100C0000FEFF7F000010014000E100E0950300209E
:100C1000A803002094030020009B002BC5D0002DCA
:100C2000A8D0434B434A1C68D2F80465424FD5F81C
:100C300000A03978331B23F07F43DD1CB9B93F494D
:100C40003F4B4FF48030C2F844034FF00108C2F824
:100C500004034FF40030C1F8800143F00103086041
:100C6000C2F800804FF43C60984787F80080AA459E
:100C70002CBF04EB0A0363192E4923F07F43C1F80C
:100C80004035D1F80425921B9B1B22F07F4223F0B4
:100C90007F4303329A4288D9294BD1F80425C1F801
:100CA000402543F001034FF43C609847234B4FF439
:100CB0000032C3F80021002389F8003005B0BDE8F8
:100CC000F08F00260096B1E674BB521A1A60012319
:100CD0000093ABE6002339787878237441E719460E
:100CE000EA69C8F8002092B9CDE90231114BDFF86A
:100CF00040C001209860019B89F80000CCF80020DA
:100D00004FF43C609847DDE90231D8F80020C8690B
:100D10000968D86100287FF458AF59E72946DFE712
:100D2000C8F800309A467FE6C8F800309A46CCE70B
:100D3000A4030020001001409503002000E100E022
:100D4000300B02002DE9F8431F4D204E204FDFF8F5
:100D500098804FF480334FF400324FF001090024A3
:100D6000C6F8802047EA0907C5F848334FF43C60CD
:100D7000C5F80833C5F80490B847C5F808904FF493
:100D80003C60C8F80040B847124A134B13491C6036
:100D90001470134B134A0C700B2114701C80997043
:100DA0004FF48012C023C6F8802186F814333260D5
:100DB000C5F8084586F81133D5F80435C8F8003071
:100DC0002046BDE8F88300BF0010014000E100E0CC
:100DD000300B020095030020A8030020A003002090
:100DE00088020020A1030020A4030020074B9B7869
:100DF0004BB132B128B10368187C20B959745A61DB
:100E00007047072070470820704700BF8802002005
:100E10002DE9F843224CA378002B35D0002833D09D
:100E2000042934D943697BB3437C0646012B4FF038
:100E300000000CBF884680461746894600F06AF8D5
:100E40006378A17822785D1CEDB2A94208BF002525
:100E5000AA421FD003EB430304EBC3030121114A51
:100E60009E601971D2F80425DA600020C3E9049865
:100E70009F61657000F056F80B4B4FF48012C3F879
:100E800000210020BDE8F8830820BDE8F883072092
:100E9000BDE8F883002000F045F80420F2E700BF29
:100EA000880200200010014000E100E070B5174DFD
:100EB000AB7823B318B343690BB30024047406461C
:100EC000204600F027F86A78A8782978531CDBB20E
:100ED000984208BF2346994213D002EB420205EB29
:100EE000C20202219660204611716B7000F01AF860
:100EF000074B4FF48012C3F80021204670BD082034
:100F000070BD204600F00EF8042070BD880200205D
:100F100000E100E072B6024A1368013313607047C3
:100F2000AC030020034A1368013B136003B962B6A7
:100F3000704700BFAC03002010B570B101280BD181
:100F40000D4C2369A0703BB1D3E90023012022613D
:100F500098472369002BF7D110BD074CA3680122E5
:100F60006270002BF8D0D3E900230020A2609847DC
:100F7000A368002BF7D1EFE7B003002038B50A4C87
:100F800023786BB909486360A3602361E36000F0D4
:100F9000F7F8054600F000F901232370284638BD14
:100FA0008525284638BD00BFB0030020390F00005A
:100FB00038B5154CA378054673B110B143680120CC
:100FC00098470020FFF7A6FFE3680133E3600020A5
:100FD000BDE83840FFF7A6BF03F0FF00FFF79AFF18
:100FE00065B1226942B1954208D0134601E09D42A5
:100FF00004D01B68002BFAD12A602561E368002B1E
:10100000E2D100F0DBF8DFE7B003002038B5084C90
:101010000020FFF77FFFE368013BE360E56815B957
:1010200000F0E4F8A5700020BDE83840FFF77ABF73
:10103000B00300204FF08043D3F81804C0F3004001
:10104000704700BF38B5154C6378054673B110B1D1
:101050004368002098470020FFF75CFF6368013376
:1010600063600020BDE83840FFF75CBF03F0FF007D
:10107000FFF750FF65B1A26842B1954208D0134610
:1010800001E09D4204D01B68002BFAD12A60A560C4
:101090006368002BE2D100F0B5F8DFE7B003002071
:1010A00038B5084C0020FFF735FF6368013B6360EB
:1010B000656815B900F0B8F865700020BDE83840E3
:1010C000FFF730BFB00300204FF08043D3F80C048B
:1010D00000F00110A0F10110B0FA80F04009704753
:1010E0000A4A0223C2F80435BFF36F8FBFF34F8F54
:1010F000C2F80805D2F80034002BFBD00023C2F858
:101100000435BFF36F8FBFF34F8F704700E001408E
:101110009AB32DE9F047194CA0EB01080D468E1843
:10112000C0004FF0FF0E4FF0010C002708EB050246
:1011300022F0030200F01809116815F8013BC4F809
:1011400004C50EFA09FA21EA0A01BFF36F8FBFF353
:101150004F8F03FA09F30B441360D4F80034002BCB
:10116000FBD0C4F80475BFF36F8FBFF34F8FAE424F
:1011700000F10800DAD1BDE8F087704700E00140D7
:10118000044A137923B90121106011711846704780
:1011900085207047C4030020074B1A68D20704D487
:1011A000C021012283F800131A604FF0804301220E
:1011B000C3F81825704700BF00E100E010B4094BE8
:1011C000094A0021196083B01B680193019C4FF00C
:1011D000804102200123C1F80403136003B010BC56
:1011E000704700BF0401004008000040044B01228A
:1011F0001A604FF08042D2F81834DB03FBD47047FA
:101200000C000040074B00221A6082B01B6801935B
:1012100001994FF080430122C3F804231A6002B001
:10122000704700BF00010040064B01221A604FF0DA
:101230008042D2F80C3403F00113B3F1011FF8D04F
:10124000704700BF0400004010B5134B1A6882B00D
:1012500062B1002018601B6800934FF080420121AA
:101260000E4B009CC2F808131B6898470C4B1A6879
:1012700082B100221A601B6801934FF08042022164
:10128000064B0198C2F808131B68012002B0BDE8A4
:101290001040184702B010BD00010040C4030020F8
:1012A0000401004030B51D4C94F8585083B095BBF4
:1012B0004FF0FF332946042204F15400C4E90033FF
:1012C000C4E90233C4E90433C4E90633C4E908338A
:1012D000C4E90A33C4E90C33C4E90E33C4E910335A
:1012E000C4E9123323651DF081FF0D4A0D4B0E49F1
:1012F0001D60C02082F80603402010601B68019327
:1013000001984FF000430122284684F85820C1F884
:10131000043303B030BD082003B030BDCC0300203F
:1013200000E100E07C61004000600040034B93F866
:101330005800003018BF0120704700BFCC030020C8
:10134000F0B56C4B1C1894F93050002D68DA8E788B
:10135000C6F340069646002E5CD11D6A013500F0AA
:10136000B58009240C2553F8247001375BD004F1B3
:10137000010C53F82C70013700F0B380A71CAF426A
:1013800046D253F82720013200F0AD8004F1030C5F
:10139000AC453DD253F82C70013700F0A28004F127
:1013A000040CAC4534D253F82C70013700F099800E
:1013B00004F1050CAC452BD253F82C70013700F02A
:1013C000908004F1060CAC4522D253F82C70013702
:1013D00000F0878004F1070CAC4519D253F82C704B
:1013E00001377ED004F1080CAC4511D253F82C70B3
:1013F000013776D004F1090CAC4509D253F82C70B2
:1014000001376ED00A34AC4202D2DC6A013409D012
:101410000420F0BD1D68013567D001240825A2E72E
:101420000820F0BD0B241F1865B243F824E087F8AC
:101430003050002E51D08A78540714D4D6073BD4AC
:101440004C784FF0A04600F5E072A40046F8224028
:10145000294EC40800F0070C375D012202FA0CF295
:101460003A4332558A780C7812F0020209D1083DCD
:101470002B44104693F8502042EA841483F85040DD
:10148000F0BDAB0003F1804303F5C0430202D3F883
:10149000101521F4473121F44071C3F810152404CC
:1014A000D3F8101504F4403402F4F85222430A43EE
:1014B000C3F810250020F0BD820002F1A042D2F84E
:1014C000004724F00204C2F80047C1E7082684F868
:1014D0003060C3F820E0354634461C4484F84800A8
:1014E000A9E764469FE73C469DE700251A6084F81B
:1014F0003050A0E7CC0300202004002070B42E4D13
:101500002E1883B096F93030072B1CDD2B4493F84E
:1015100048309B09032B41D0012B14BF4FF44031BD
:101520004FF40031800000F1A040D0F8002722F4F1
:101530004032C0F80027D0F800370B43C0F800371E
:1015400003B070BC7047DAB2072AF9D8980000F1EE
:10155000804000F5C04003F14002D0F810459200F1
:1015600092B244F0010402F18042C0F8104502F545
:10157000C04200200190019C10600029E0D096F943
:10158000302055F82220002ADAD001220B4902FA35
:1015900003F3C1F8043303B070BC70474FF0A043AD
:1015A000D3F81035C34013F0010F0CBF4FF40031D6
:1015B0004FF44031B6E700BFCC030020006000408C
:1015C0004FF0A043D3F8103523FA00F000F00100EB
:1015D000704700BF2DE9F04186B00023A14A019376
:1015E0001168012900F054811E469F4B1A68012A98
:1015F00000F05E819D4B1A68012A00F06B819C4BC4
:101600001A68012A00F078819A4B1A68012A00F0C2
:101610008581994B1A68012A00F09281974B1A68CC
:10162000012A00F09F81964B1A68012A0CD0954B35
:101630001B68012B00F0A48116F0FF0F15D1002EBE
:1016400030DB06B0BDE8F0818F4AD2F804231706DC
:10165000EDD500221A601A6804926033049A1B6860
:10166000012B46F0800600F08B81884F0125002475
:10167000A30003F18043354203F5C0434FEA45051B
:101680000BD0D3F8100557F82420D3F81015C0F369
:101690000420C1F3014102B190470134082CE7D185
:1016A000002ECEDA00224FF0FF33CDE90223774C33
:1016B000012602AF94F950305D1C2CD0DBB223F030
:1016C000C00006AA4FEAD00C02EB0C0E03F0070292
:1016D0001EF80C1C06FA02F211421CD025189909BA
:1016E00095F9303054F82330002B00F0978103290E
:1016F00000F097814FEA800C0CF1A04C1EF8145CAE
:10170000DCF800E71540CEF3014E40F05B81BEF1FE
:10171000030F00F0DD81002594F95130581C2DD0C5
:10172000DBB223F0C00006AA4FEAD00802EB080E95
:1017300003F007011EF80C2C06FA01FC12EA0C0F4C
:101740001CD02218990992F9303054F82330002B1C
:1017500000F05A81032900F05A81820002F1A04270
:101760001EF8148CD2F800E718EA0C0FCEF3014EE5
:1017700040F03581BEF1030F00F0A58194F952309D
:10178000591C2DD0DBB223F0C00006AA4FEAD008C6
:1017900002EB080E03F007011EF80C2C06FA01FC00
:1017A00012EA0C0F1CD02218990992F9303054F823
:1017B0002330002B00F03B81032900F03B818200A5
:1017C00002F1A0421EF8148CD2F800E718EA0C0FC0
:1017D000CEF3014E40F0E280BEF1030F00F06D81C8
:1017E00094F953305A1C2DD0DBB223F0C00006AA66
:1017F0004FEAD00802EB080E03F007011EF80C2C8C
:1018000006FA01FC12EA0C0F1CD02218990992F971
:10181000303054F82330002B00F0EC80032900F026
:10182000EC80820002F1A0421EF8148CD2F800E78E
:1018300018EA0C0FCEF3014E40F0BB80BEF1030F4F
:1018400000F0FF80002D3FF4FCAE4FF0A043019A62
:10185000D3F8103593423FF4F4AE029A0193039209
:1018600028E700BF006100400461004008610040BB
:101870000C6100401061004014610040186100409C
:101880001C6100407C61004000600040CC030020EF
:101890009A49D1F8046316F001063FF4A6AE13602E
:1018A00013680493049B964B1A68012A7FF4A2AE36
:1018B000924AD2F8042397077FF59CAE00221A6063
:1018C0001B680493049B8F4B1A68012A46F002069A
:1018D0007FF495AE894AD2F8042355077FF58FAE81
:1018E00000221A601B680493049B874B1A68012A24
:1018F00046F004067FF488AE804AD2F80423140729
:101900007FF582AE00221A601B680493049B7F4B14
:101910001A68012A46F008067FF47BAE774AD2F8AF
:101920000423D0067FF575AE00221A601B6804936D
:10193000049B774B1A68012A46F010067FF46EAEBE
:101940006E4AD2F8042391067FF568AE00221A6031
:101950001B680493049B6F4B1A68012A46F020060B
:101960007FF461AE654AD2F8042352067FF55BAE80
:1019700000221A601B680493049B46F0400652E65E
:10198000654B00221A601B6805934FF0A043059A2F
:10199000D3F81035019346F000464DE6BEF1020F34
:1019A0007FF41EAF032963D0002B3FF419AF984793
:1019B00016E7BEF1020F7FF445AF032969D0002B73
:1019C00054D13FE7BEF1020F7FF4A5AE032900F02A
:1019D00091800025002B3FF49FAE98479CE6BEF116
:1019E000020F7FF4CBAE032956D0002B3FF4C6AED6
:1019F0009847C3E603297FF425AF17F8082042EA89
:101A00000C0207F808200CE703297FF4B7AE17F89B
:101A1000082042EA0C0207F808209EE603297FF41A
:101A20007AAE17F80C50154307F80C5062E60329FC
:101A30007FF4D6AE17F8082042EA0C0207F8082017
:101A4000BDE60329BBD14FF4003ED2F800C72CF409
:101A5000403CC2F800C7D2F800C701354CEA0E0C72
:101A6000EDB2C2F800C7002B3FF4EFAE9847E9E6AD
:101A70004FF4403ED2F800C72CF4403CC2F800C7F7
:101A8000D2F800C701354CEA0E0CEDB2C2F800C71F
:101A90008AE74FF4403ED8E74FF4403ED2F800C703
:101AA0002CF4403CC2F800C7D2F800C701354CEA1C
:101AB0000E0CEDB2C2F800C797E703297FF474AFAC
:101AC0004FF4003ED6E703298FD14FF4003EE5E7FF
:101AD00003297FF47FAF4FF40035DCF8002722F4B0
:101AE0004032CCF80027DCF800272A43CCF8002746
:101AF00001256FE74FF44035EFE700BF006000407D
:101B000004610040086100400C6100401061004029
:101B100014610040186100407C6100400220FEF723
:101B200039BC00BF2DE9F0470D460646FEF744FCE0
:101B300003281ED8012D04461DD00ED3022D18D126
:101B40001B4B00EB40041C44657895B1194B1B6896
:101B50007BB12846BDE8F04718471748FFF7A6F9BC
:101B6000134B164A04EB44010B44125D9D78AA42C4
:101B7000EBD0BDE8F0870E4F4FEA400808EB0003BA
:101B8000FA18FD5C53782BB9A04447440B4BBA7844
:101B90001A55DAE7DFF8289007484A464FF4004123
:101BA000FFF736F90028EFD189F80060ECE700BFB5
:101BB0008C040020A00400204C040020A804002075
:101BC0002804002010B50078FEF7F6FB03280BD898
:101BD000064B00EB40001844407828B1044B1B68CA
:101BE00013B1BDE81040184710BD00BF8C040020A1
:101BF000A0040020B44B1B68DB0700D4704770B50D
:101C0000B24DB34E2B7834786BB1B24B1B780020B9
:101C10002870002B4BD0FEF785FB0120FEF782FBDE
:101C20000320FEF77FFB172C40D8DFE814F0B60046
:101C3000F400F400DC000801CA001301EE005000BB
:101C400043005000430061001800180018001800FD
:101C50001800660077008B009F005D005D009E48C5
:101C6000FFF724F9D4F11104054600F000810028A3
:101C700040F0FD80012C13D0C82303FB04F44FF483
:101C8000FA704FF400430021C3FB04014FF47A7251
:101C900000231EF0B7FD2A4601468F48FFF7B8F82B
:101CA0000220FEF733FB8B4B01221A7070BDFEF74A
:101CB00045FBB8E7012318462B70FEF76BFB0022AB
:101CC0004FF480418548BDE87040FFF7A1B801237B
:101CD00018462B70FEF75EFB002240F6CD417F4890
:101CE000BDE87040FFF794B8FEF73EFB347070BD5E
:101CF000FEF73AFB0C23337070BD764B1B78002B3C
:101D000000F0BF800020FEF70DFB0120FEF70AFB6C
:101D10000320FEF707FB1223337070BD6D4B1B7859
:101D2000002B00F0B1800020FEF7FCFA0120FEF746
:101D3000F9FA0320FEF7F6FA0020FEF7E7FA13237C
:101D4000337070BD634B1B78002B00F0AD8000201A
:101D5000FEF7E8FA0120FEF7E5FA0320FEF7E2FAC3
:101D60000120FEF7D3FA1423337070BD594B1B7852
:101D7000002B00F083800020FEF7D4FA0120FEF74C
:101D8000D1FA0320FEF7CEFA0020FEF7BFFA0120B9
:101D9000FEF7BCFA1523337070BD4E4B1B78002B39
:101DA00000F08A800020FEF7BDFA0120FEF7BAFAA3
:101DB0000320FEF7B7FA4948FFF778F8002333709D
:101DC00070BD0020FEF794FA002860D00020FEF7D6
:101DD000A9FA05233370002241F69A113F48BDE865
:101DE0007040FFF715B80020FEF782FA00285ED099
:101DF0000020FEF797FA46F2666103233370002253
:101E00003648BDE87040FFF703B80020FEF77EFAC1
:101E10000723337070BD0020FEF76AFAD0B30020AC
:101E2000FEF780FA022C4EF2666118BF4FF40031C3
:101E3000347000222948BDE87040FEF7E9BF002059
:101E4000FEF756FAD8B30020FEF76CFA4FF40031D3
:101E50000423D3E70020FEF79DFA06233370002207
:101E600040F6CD411D48BDE87040FEF7D1BF0220CD
:101E7000FEF758FA174B00221A7070BDFEF75EFA93
:101E800082E7FEF75BFA46E7FEF758FA54E7FEF7FB
:101E90003DFA9EE7FEF73AFA43F2333141F69A13E0
:101EA000022C08BF1946C3E7FEF748FA58E7FEF7C9
:101EB0002DFA41F69A11A0E7FEF740FA7BE7FEF70C
:101EC00025FA43F23331C3E7980400209C04002034
:101ED000A4040020290400202C0400206C0400200D
:101EE00038B5C54B1C6814F0010401D1204638BD3B
:101EF000C24C2378054663B1C14B1B78002020708B
:101F000023B3FEF70FFA0120FEF70CFA0320FEF7C9
:101F100009FA172D00F26D81DFE815F0C300EC001F
:101F2000EC001001D90023010201360128001B003A
:101F300028001B006A0071007100710071007100BF
:101F40009A00AD0035004B0064006400FEF7F6F91E
:101F5000DFE7012318462370FEF71CFA00224FF436
:101F60008041A848BDE83840FEF752BF012318461B
:101F70002370FEF70FFA002240F6CD41A148BDE8DC
:101F80003840FEF745BF9E4B1B78002B00F01681B2
:101F90000020FEF7C7F90120FEF7C4F90320FEF781
:101FA000C1F90120FEF7B2F9974B14221A700024F0
:101FB0009CE7934B1B78002B00F003810020FEF779
:101FC000B1F90120FEF7AEF90320FEF7ABF90020CE
:101FD000FEF79CF90120FEF799F98B4B15221A7038
:101FE000002483E7FEF7C0F9874B00241D707DE7CE
:101FF000FEF7BAF9844B0C221A70002476E7834866
:10200000FEF754FF0446D5F1110000F0C580002C06
:1020100040F0C280012814D0C82505FB00F54FF41C
:1020200000434FF4FA700021C3FB05014FF47A72AC
:1020300000231EF0E7FB224601467448FEF7E8FE47
:1020400004460220FEF762F96D4B01221A704DE73B
:102050006B4B1B78002B00F0AE800020FEF762F97E
:102060000120FEF75FF90320FEF75CF9664B1222B0
:102070001A7000243AE7624B1B78002B00F0938023
:102080000020FEF74FF90120FEF74CF90320FEF780
:1020900049F90020FEF73AF95B4B13221A7000242D
:1020A00024E7574B1B78002B00F08E800020FEF7B2
:1020B00039F90120FEF736F90320FEF733F95148CC
:1020C000FEF7F4FE504B002204461A700EE7002083
:1020D000FEF70EF9002869D00020FEF723F94FF42F
:1020E0000031494B474804241C700022BDE83840A9
:1020F000FEF78EBE0020FEF7FBF800286CD0002013
:10210000FEF710F9022D4EF2666118BF4FF4003150
:102110003D4B3C481D700022BDE83840FEF778BEBC
:102120000020FEF737F9384B364806241C70002291
:1021300040F6CD41BDE83840FEF76ABE0020FEF70C
:10214000D7F8002843D00020FEF7ECF846F266618D
:102150002D4B2C4803241C700022BDE83840FEF7AC
:1021600057BE0020FEF7C4F800283FD00020FEF73D
:10217000D9F8254B234805241C70002241F69A11FA
:10218000BDE83840FEF744BE0020FEF7BFF81E4B06
:1021900007221A700024A9E60220FEF7C3F8184BA4
:1021A00000221A70A2E6FEF7C9F872E7FEF7AEF851
:1021B00043F2333195E7FEF7C1F857E7FEF7BEF873
:1021C000EFE6FEF7BBF802E7FEF7B8F877E7FEF7B1
:1021D0009DF841F69A11BBE7FEF798F843F23331C8
:1021E00041F69A13022D08BF194691E7FEF78EF8C3
:1021F000BFE700247AE600BF980400209C0400207A
:10220000290400206C040020A40400202C040020D9
:1022100038B5244B244A19608307106000F001058B
:1022200003D4CDB92C46204638BD204B20480E247F
:102230000F2210211C701124DA7099715C7240F227
:1022400066620421FEF7DCF90446B8B115B101203D
:10225000FEF7C4F8204638BD0120FEF7BFF8154A46
:1022600015480021FEF7C2FD04460028F2D1134AAA
:1022700013480121BDE83840FEF7B8BDFEF718FA53
:1022800004460028E2D101460E4A0F48FEF7AEFD93
:102290000446002DDED00120FEF7A0F8002CD9D195
:1022A000DDE700BFA0040020980400208C0400207B
:1022B000380B0200F51B0000600B02001D1B000024
:1022C000580B0200C51B00005C0B020008B51B7810
:1022D000802B00D008BD0D4B072201201A70FEF79D
:1022E00007F860B9FEF712F80120FEF70FF8002298
:1022F00041F69A110648BDE80840FEF789BD002066
:10230000FEF710F80120FEF70DF8F0E7DC040020DE
:10231000E0040020420700D4704708B5084610F0DA
:102320006BFE88B1831E022B0A4A06D9062313705E
:102330001846BDE80840FFF7D3BD072313701846C1
:10234000BDE80840FFF7CCBD024A1070BDE8084068
:10235000FFF7C6BDCD04002008B51C4B1B78032B2E
:1023600027D8DFE803F0211207020120BDE808406A
:10237000FDF7CCBF0120FEF70DF8002240F6CD415D
:102380001348BDE80840FEF743BD0120FDF7B0FF4C
:1023900080B90120FDF7BAFF41F69A1100220C48DE
:1023A000BDE80840FEF734BD0120BDE80840FDF758
:1023B000B9BF08BD0120FDF7B5FF46F266610022F6
:1023C0000348BDE80840FEF723BD00BFCC04002051
:1023D000AC04002008B52C4A1378013BDBB2137023
:1023E00083B10120FDF784FFA0B9FDF78FFF012025
:1023F000FDF78CFF002241F69A112448BDE8084001
:10240000FEF706BD224B1B78032B0DD8DFE803F047
:10241000121B2B090020FDF785FF0120FDF782FF2D
:10242000E8E70120FDF772FF1A4B1878BDE8084075
:10243000FFF756BD0120FDF775FF164B1878BDE874
:102440000840FFF74DBD0120FDF752FFA8B1012064
:10245000FDF768FF46F2666100220F48FEF7D8FCE0
:102460000028E1D008BD0120FDF794FF002240F6CE
:10247000CD410948FEF7CCFCF2E70120FDF746FF0D
:1024800041F69A11E8E700BFDC040020E0040020D8
:10249000CC040020CD040020AC04002070B5134A09
:1024A000134E144B00242146147005460C2230466E
:1024B0001C701CF09BFE21460F4B104A10483360E5
:1024C000FEF794FC044628B901460E4A0E48FEF772
:1024D0008DFC04462A460D49284606F0ADF82846EC
:1024E000034905F0E6FF204670BD00BFCD04002083
:1024F000D0040020CC040020CD220000592300008D
:10250000640B0200D5230000680B020015230000B5
:1025100010B504460C48FEF7C9FC0C48FEF7C6FC93
:102520000020FDF7FFFE0120FDF7FCFE22462046BD
:10253000074906F084F8074A002313701846BDE8DF
:102540001040FFF7CDBC00BFAC040020E004002029
:1025500015230000CD040020704700BF70B52C4A41
:1025600084B020210820FEF7E3F808B1FEF7B6F8A2
:10257000FEF7E8FB08B1FEF7B1F8002301204FF0A9
:10258000A041032204E015F4F01F18BF41F82420F5
:102590000133202B00FA03F503F5E074F3D14FF07B
:1025A000A0434FF4F0110022C3F808150120114692
:1025B000C3F80C25FFF72CFE08B1FEF78FF8154E77
:1025C0000024012501A8CDE9014403948DF80550AC
:1025D00000F0F6F900F04AFA304600F079FA00F01F
:1025E00071FAFFF75BFF40B1FEF778F805E000F005
:1025F00053FAFEF727F900F05BFA00F071FA0028B1
:10260000F5D000F05FFAFFF783FF00F03BFAD9E75F
:1026100000050020592500002DE9F84F4400DFF89F
:102620005CB126180BEBC6068146F76A012F8A4675
:10263000904667D03DD3022F30D100F1010909EB5C
:102640004909756A4FEAC9090027B36A346AAB427F
:1026500003F1FF329CBF1B1903F1FF33A4EB050408
:102660008CBF531B5B1B0BEB0902444528BF444640
:102670009C42506828BF1C462844514622461CF004
:1026800091FD336A25449D422744A8EB0408A244E7
:1026900008D07562B8F1000FD7D100E000273846A6
:1026A000BDE8F88F00231D467362B8F1000FCCD14E
:1026B000F5E7B36A756AAB429CBF326A9B18013B6F
:1026C0005B1B9845EBD8044400F101090BEBC404F3
:1026D00009EB49090BEBC90B266ADBF80400761BF2
:1026E000B045284443D33246A8EB06051CF05AFDFA
:1026F0000AEB0601DBF804002A461CF053FD4746AE
:102700006562CCE7D6E90825B76AAF4298BFBF1823
:10271000461C013F06EB46067F1B0BEBC6064745F2
:1027200028BF47467068A2EB05084745284412D3E6
:10273000A1444246A7EB08050BEBC90B1CF032FD88
:102740000AEB080170682A461CF02CFDCBF82450D7
:102750003846BDE8F88FA1440BEBC90B3A463D441F
:102760001CF020FDCBF824503846BDE8F88F4246D7
:1027700045441CF017FD4746656290E7804E0020F7
:102780002DE9F0412B4C94F800C0054688461646CA
:102790001F46BCF1000F23D02369AB4246D900206D
:1027A000FEF7B8FB5DB92A46154404EBC504069B49
:1027B000E3620020FEF7B6FB0020BDE8F0816B1C51
:1027C00003EB4303DB006A00511904EBC10144F839
:1027D0000380234400200F625E6088624862E3E762
:1027E000154B1648A3610222C4E904224FF400717C
:1027F000134AA3641023C4F828C02365C4F824C076
:10280000C4F82CC0C4F858C0C4F854C0C4F85CC0A4
:10281000E0612162E2640B49E01D1DF058F80A49AD
:1028200020461DF054F82023A371B5E74FF0FF3088
:10283000C3E700BF804E00206C0B02002007002081
:1028400010070020780B02007C0B020030B4524BC2
:1028500052481A68524B534D534C4FF08041C2F3CB
:10286000423202604FF080520020C1F80C01C1F8E2
:102870001001C1F83805D2F80404C3F82005D2F8D5
:102880000804C3F82405D2F80C04C3F82805D2F8CC
:102890001004C3F82C05D2F81404C3F83005D2F89C
:1028A0001804C3F83405D2F81C04C3F84005D2F864
:1028B0002004C3F84405D2F82404C3F84805D2F82C
:1028C0002804C3F84C05D2F82C04C3F85005D2F8FC
:1028D0003004C3F85405D2F83404C3F86005D2F8C4
:1028E0003804C3F86405D2F83C04C3F86805D2F88C
:1028F0004004C3F86C05D2F84424C3F870252B6853
:1029000003F04F032360D1F80034DB0744BF6FF0BE
:102910000103C1F800344FF01023D3F80022002A3D
:1029200008DBD3F80432002B04DB204B204A1A606A
:1029300030BC70471F4B0122C3F80425D3F8002494
:10294000002AFBD04FF0102315221A49C3F80022A9
:10295000D1F80034002BFBD04FF010221521154B7D
:10296000C2F80412D3F80024002AFBD00022114937
:10297000C3F80425D1F80034002BFBD0BFF34F8FF0
:102980000D490E4BCA6802F4E0621343CB60BFF3FB
:102990004F8F00BFFDE700BF440200103C05004020
:1029A00000C0004058020010E40E0040000000206B
:1029B0000090D00300E0014000ED00E00400FA05C3
:1029C00070B5002182B00546084618F087FB05F077
:1029D00029FE254C206004F0DFFA08B9AB784BBB28
:1029E0006E780EB102B070BD0122314601A81CF014
:1029F000FDFB2B78012B9DF8043029D043F0030315
:102A00008DF804309DF80410206810F093FAA9683E
:102A1000D1B90121206806F08FFD206804F0BCFACE
:102A200010B9AB78002BDDD02068012110F039FB04
:102A300002B070BD0B21206807F0F1F84AF6CD31E5
:102A4000206807F028F9CBE7206810F018FAE0E7D3
:102A500066F30003DBB26968206843F002038DF877
:102A6000043007F031F9CDE72009002010B5044CFF
:102A7000206800F069F82068BDE8104003F080BCD1
:102A80002009002010B5034C206805F0D1FD00237B
:102A9000236010BD2009002010B5044C206810F000
:102AA000D3F92068BDE8104018F03CBB2009002095
:102AB00008B5034B186810F0D3F900B920BF08BD62
:102AC00020090020014B1868704700BF2009002032
:102AD000024B1A680146104605F0AEBD20090020E1
:102AE00018F01ABB4FF0FF307047B0F81637B0F847
:102AF0001827C3F580618A42CCBFA0F81A17A0F846
:102B00001A27B0F81A1721B100F21630184418F03D
:102B100015BC704710B50A4B044640F8043B00F062
:102B2000E9F9084B23600023A4F81433A4F81637FE
:102B3000A4F81837A4F81A3718F06CFB204610BD1B
:102B40008C0B0200980B020010B5044C0146204685
:102B5000FFF7E0FF024B1C6010BD00BF28090020FA
:102B6000B010002010B500210446B4F81423A318B7
:102B700093F813310A2B01D00D2B07D1013A92B2F1
:102B8000A4F81423224482F81411EEE72AB1234654
:102B900004F58A71201D02F04DF90020A4F81403F9
:102BA00010BD00002DE9F8432A4FDFF8AC80DFF8B4
:102BB000AC9004460D468E18B54249D22B780A2BAC
:102BC00019D014D8082B2ED0B4F81433B3F5FF7FE6
:102BD00027D8236801221B68294620469847B4F865
:102BE00014335A1CA4F814232A7823442DE00D2B07
:102BF00001D07F2BE7E7236802221B683946204675
:102C00009847B4F8143333B12344002283F81421D5
:102C10002046FFF7A7FF236802221B684146204693
:102C200098470135C8E7B4F81433002BF9D023686E
:102C300003221B68494620469847B4F81433013BE9
:102C40009BB2A4F814330022234483F81421E8E74C
:102C5000BDE8F883A10B02009F0B02009C0B020051
:102C6000024B0A4601461868FFF79CBFB0100020CF
:102C7000B0F81A370BB9FFF738BF704770B5B0F826
:102C80001847C4F58064A4B2944228BF14460D4688
:102C90006B1A9C420FDDB0F81827B0F8163715F8FC
:102CA000016B1344C3F309030344013283F8166331
:102CB000A0F81827ECE7FFF7DBFF204670BDB0F85F
:102CC0001A17B0F816270A44C2F30902A0F816270B
:102CD000B0F81827521AA0F818270022A0F81A27CF
:102CE000FFF703BF014B1868FFF7E9BFB0100020E2
:102CF0002DE9F0410F4F104E054600244FF00C080F
:102D000008FB04F33146DA59A868013403F0F8F9F6
:102D10002A2CF5D1084E00242B79A34208D92B6820
:102D2000A86853F83420314603F0EAF90134F3E798
:102D3000BDE8F081781402007A160200D0F80C0188
:102D400005F080BCD0F80C0105F074BC38B5044621
:102D50008568D0F80C0110F059F90549024628465B
:102D600003F0CEF9A0680349BDE8384003F0C8B9C4
:102D70001F1A0200160D020030B5C1B00446002330
:102D800008468DF8FF301146FF236A4603F0FAFA31
:102D9000A468236868461D681CF0B6FD694682B2C7
:102DA0002046A84741B030BD0149806803F0A8B96A
:102DB000160D020010B504468AB06946D0F80C0121
:102DC0000AF0C7FDBDF800202B49A06803F098F970
:102DD000BDF802202949A06803F092F9BDF8063039
:102DE000BDF804202649A06803F08AF9BDF80A302E
:102DF000BDF808202349A06803F082F9BDF80E3021
:102E0000BDF80C202049A06803F07AF9BDF8123013
:102E1000BDF810201D49A06803F072F9BDF8163006
:102E2000BDF814201A49A06803F06AF9BDF81A30F9
:102E3000BDF818201749A06803F062F9BDF81E30EC
:102E4000BDF81C201449A06803F05AF9BDF82230DF
:102E5000BDF820201149A06803F052F9BDF82630D2
:102E6000BDF824200E49A06803F04AF92046FFF778
:102E70009BFF0AB010BD00BF7B1202008712020048
:102E800092120200A4120200B6120200C312020043
:102E9000D0120200DD1202000B130200EA1202003F
:102EA000FF12020010B5044605F0CEFB04490246AD
:102EB000A06803F025F92046BDE81040FFF774BF75
:102EC0007A16020010B50446D0F80C0110F022F971
:102ED00040B10549A06803F013F92046BDE8104051
:102EE000FFF762BF0149F5E71A1202002112020042
:102EF00000BA704770B5002504460E46056005719E
:102F0000856029462C220C301CF070F9184A84F890
:102F100058504FF47A73C4E90E23164BC4E91035A8
:102F200004F14003A364214604F1980003F0ACF9D6
:102F30002146C4F8D44004F1D80002F05DF92246DD
:102F40003046C4F80C610C4910F09FF80B4BD4F8D4
:102F50000C01C4E9133404F14C0105F0AAFA3E2235
:102F6000294604F159001CF041F9204670BD00BF0C
:102F70000800010061420000A54F00002D41000043
:102F80002DE9F041074690460C461CF0BDFC3D186B
:102F900000F001060130B8EB500F12D3384621463D
:102FA0000022854221D910F8013BA3F14107052FEA
:102FB0000BD8373B1343DBB29EB10B7000260131B7
:102FC000EEE74FF0FF30BDE8F081A3F16107052F78
:102FD00001D8573BEEE7303BDBB2092BF1D8134366
:102FE000EAE71B01DAB20126DBE7081BEBE700008A
:102FF00070B50C4619B9BDE87040FFF7D5BE8568BD
:10300000084606F0F7FF2246034603492846BDE876
:10301000704003F075B800BF7016020070B5054629
:1030200014460E46B1B9D0F80C0110F053F804461E
:1030300050B11249A86803F063F8304601462846AB
:10304000BDE87040FFF7D4BF0D49A86803F058F8F9
:103050002046F3E70B4910681CF02FFC28B901212A
:10306000D5F80C0110F04AF8E8E7074920681CF091
:1030700024FC01460028F3D00720DFE7F01102000E
:10308000300D0200FA1102000112020010B50446D0
:10309000D83002F0F7F801462046BDE81040FFF7AF
:1030A000A7BF000070B5054614460E46B1B9D0F86A
:1030B0000C0106F054FA044650B11249A86803F016
:1030C0001FF8304601462846BDE87040FFF790BF24
:1030D0000D49A86803F014F82046F3E70B4910687F
:1030E0001CF0EBFB28B90121D5F80C0106F024FAFD
:1030F000E8E7074920681CF0E0FB01460028F3D010
:103100000720DFE7DC110200E1110200E8110200F4
:10311000EB11020037B504466946D0F80C010FF0F8
:103120006EFF0546E0B9009A1049A06802F0E8FF7A
:103130009DF804200E49A06802F0E2FF9DF80520EA
:103140000C49A06802F0DCFF9DF806200A49A0683F
:1031500002F0D6FF9DF807200849A06802F0D0FFD2
:1031600029462046FFF744FF03B030BD1913020083
:103170002C130200431302003C13020056130200FA
:1031800073B50E46044615460021012201A81CF025
:103190002DF86EBBD4F80C010FF0A0FE8DF80400E2
:1031A000C00703D52949A06802F0AAFF9DF80430A2
:1031B000990703D52649A06802F0A2FF9DF80430C4
:1031C0005A0703D52349A06802F09AFF9DF80430FE
:1031D0001B0703D52049A06802F092FF1F49A06891
:1031E00002F08EFF00212046FFF702FF02B070BD03
:1031F0002A68013A12F8013F03B36E2B19D003D8A5
:10320000642B11D00621EEE7722B06D0732BF9D177
:103210009DF8043043F0020303E09DF8043043F0CE
:1032200001038DF80430E5E79DF8043043F0040312
:10323000F7E79DF8043043F00803F2E79DF8041027
:10324000D4F80C010FF076FE0146CCE75F140200C3
:10325000191F02006E120200AA170200BE0D020022
:1032600010B50446D0F80C0103F002FC01462046DC
:10327000BDE81040FFF7BCBE2DE9F04186B001AFBC
:1032800004463946D0F80C010FF0C4FE064650BB88
:103290001849A068DFF8748002F032FF35467A5D85
:1032A000A0684146013502F02BFF082DF7D11249E5
:1032B000A06802F025FFBDF80C201049A06802F0BC
:1032C0001FFF9DF811200E49A06802F019FF9DF81C
:1032D00012200C49A06802F013FF9DF813200A4940
:1032E000A06802F00DFF31462046FFF781FE06B0D0
:1032F000BDE8F081BD0C0200BE0D0200CD0C020045
:10330000D80C0200EE0C0200050D0200C80C0200F1
:1033100070B504461646B1B9D0F80C0106F027FD89
:1033200078B1D4F80C0117F0C7FC50B11649A06869
:1033300002F0E6FE002001462046BDE87040FFF79F
:1033400057BE1249F3E7124910681CF0B6FA58B993
:103350001049D4F80C01224606F005FD0121D4F8ED
:103360000C0106F009FDE6E70B4930681CF0A5FAF0
:10337000054638B901460246D4F80C0106F0F3FCC4
:103380002946ECE70720D6E7F0110200300D0200D5
:10339000FA110200814300000112020070B50546D7
:1033A00016460C46C9B9D0F80C010FF025FE0128CD
:1033B0000FD003D302280ED0134900E01349A868A8
:1033C00002F09EFE204601462846BDE87040FFF709
:1033D0000FBE0F49F3E70F49F1E70F4910681CF0E2
:1033E0006CFA20B9D5F80C010FF0FDFDEBE70B49A5
:1033F00030681CF062FA20B9D5F80C010FF0F7FD27
:10340000E1E70720DFE700BF960C0200780C02001E
:10341000830C02008E0C0200A60C0200AF0C02000E
:10342000002938B50446154606DC0720014620462B
:10343000BDE83840FFF7DCBD094910681CF03DFAD3
:1034400028B90121D4F80C010FF02BFEEEE7054955
:1034500028681CF032FA01460028E6D1F2E700BFE6
:10346000A01602001D0D020010B50446D43002F073
:10347000FFFD01462046BDE81040FFF7B9BD10B57D
:103480000446983002F00AFF01462046BDE810408D
:10349000FFF7AEBDF8B5044617460D4649B97B495E
:1034A000806802F02DFE7A49A06802F029FE2946C4
:1034B00002E0012905D007212046BDE8F840FFF7CA
:1034C00097BD744910681CF0F8F90646002840F0D2
:1034D000A280D4F80C0106F069FC054602686E492A
:1034E000A06802F00DFE6A686C49A06802F008FE50
:1034F000AA686B49A06802F003FEEA686949A068FF
:1035000002F0FEFD2A696849A06802F0F9FD6A69C7
:103510006649A06802F0F4FDAA696549A06802F056
:10352000EFFDEA696349A06802F0EAFD2A6A624990
:10353000A06802F0E5FD6A6A6049A06802F0E0FD5B
:10354000AA6A5F49A06802F0DBFDEA6A5D49A068EB
:1035500002F0D6FD2A6B5C49A06802F0D1FDAA6B8F
:103560005A49A06802F0CCFDEA6B5949A06802F004
:10357000C7FD2A6C5749A06802F0C2FD6A6C564923
:10358000A06802F0BDFDAA6C5449A06802F0B8FD25
:10359000EA6C5349A06802F0B3FD2A6D5149A06856
:1035A00002F0AEFD6A6D5049A06802F0A9FDAA6D57
:1035B0004E49A06802F0A4FDEA6D4D49A06802F0F2
:1035C0009FFD2A6E4B49A06802F09AFD6A6E4A4937
:1035D000A06802F095FDAA6E4849A06802F090FD2F
:1035E000EA6E4749A06802F08BFD2A6F4549A06842
:1035F00002F086FD6A6F4449A06802F081FDAA6F5F
:103600004249A06802F07CFD4149EA6FA06802F0DF
:1036100077FD314650E73F4938681CF04EF90546C2
:1036200000287FF448AFD4F80C010FF088FD06465F
:1036300002883949A06802F063FD72883749A068A2
:1036400002F05EFDB2883649A06802F059FDF288AA
:103650003449A06802F054FD32893349A06802F071
:103660004FFD72893149A06802F04AFDB2893049A4
:10367000A06802F045FDF2892E49A06802F040FDE5
:10368000328A2D49A06802F03BFD10E7C10D02000F
:10369000C70D0200CD0D0200D10D0200DF0D0200AA
:1036A000F30D0200090E0200220E0200340E020089
:1036B0004F0E0200600E0200750E0200880E02001E
:1036C000A20E0200B40E0200C60E0200D90E0200C5
:1036D000F40E0200020F0200160F02002C0F02006F
:1036E0003D0F0200520F0200650F02007F0F020023
:1036F000910F0200AD0F0200CA0F0200E10F02009D
:10370000F80F020019100200371002004A100200E0
:103710005D10020072100200761002008A10020092
:103720009E100200AF100200C1100200FF10020044
:10373000D3100200EE10020015110200F0B513467E
:1037400085B00446C9B9D0F80C01144F0FF008FC3D
:10375000461E00F10F0516F8012FA068394602F049
:10376000CFFCAE42F7D10E49A06802F0C9FC00219F
:103770002046FFF73DFC05B0F0BD102269461868F1
:10378000FFF7FEFB102806D16946D4F80C010FF0B4
:10379000EBFB0146ECE70621EAE700BFC80C02009C
:1037A000BE0D020038B505460C46D0F80C0169B9CB
:1037B0000FF0F3FB084903461022A86802F0A0FCB2
:1037C00021462846BDE83840FFF712BC11680FF0CB
:1037D000E7FB0146F5E700BFA71302002DE9F04122
:1037E000084F06460D4690460C46631B984506DD7D
:1037F00014F8012BB068394602F082FCF5E7BDE809
:10380000F08100BFC80C020037B505460C4699B9D7
:103810006946D0F80C0106F039FA082269462846B4
:10382000FFF7DCFF0549A86802F06AFC214628463C
:10383000FFF7DEFB03B030BD0721F8E7BE0D020045
:1038400037B5134605460C4691B9D0F80C0106F081
:1038500006FA082201462846FFF7C0FF0C49A8686F
:1038600002F04EFC21462846FFF7C2FB03B030BDF4
:10387000082269461868FFF783FB002801DA062151
:10388000F1E76946D5F80C0106F0ECF90146EAE7E4
:10389000BE0D020037B5134605460C4691B9D0F867
:1038A0000C010FF0F0FA082201462846FFF796FFB8
:1038B0000C49A86802F024FC21462846FFF798FB33
:1038C00003B030BD082269461868FFF759FB00288D
:1038D00001DA0621F1E76946D5F80C010FF0D6FAB6
:1038E0000146EAE7BE0D020010B5CC894B880A8874
:1038F00086B064BAA4B205948C8964BAA4B2049464
:103900004C8964BAA4B203940C8964BAA4B2029438
:10391000CC8864BAA4B20194898849BA89B200916A
:103920005BBA52BA9BB292B20249806802F0E8FBDD
:1039300006B010BD7F16020013B500220C4601A987
:103940001CF084F8019B20601B78002B14BF06201C
:10395000002002B010BD000073B505460C4681B9C9
:103960008668D0F80C0106F04FF90C490246304643
:1039700002F0C6FB204601462846FFF739FB02B09D
:1039800070BD01A91068FFF7D7FF0028F3D19DF89B
:103990000410D5F80C0106F042F9ECE768130200B8
:1039A00073B505460C4679B98668D0F80C010FF05E
:1039B00062FA0C490246304602F0A2FB2146284634
:1039C000FFF716FB02B070BD01A91068FFF7B4FF46
:1039D00004460028F2D10199D5F80C010FF04FFAF6
:1039E000ECE700BF6813020010B5002986B004465A
:1039F0001FDD05A91068FFF79FFFE8B9059B1F2B86
:103A000019D8012199400F4B019300230294009390
:103A10004FF6FF72D4F80C010FF07EFB60B90A4933
:103A2000A06802F06DFB0949A06802F069FB06B0CE
:103A300010BD0021E7E7072001462046FFF7D8FA2E
:103A4000F5E700BF894900002A1102008311020036
:103A50002DE9F04190B00DF114080E4635230446CF
:103A6000154600212C22404601931BF0BFFB002E7F
:103A700042DD254928681BF020FF00283CD194F83E
:103A80005830002B3ED1012E36D068681BF03CFF29
:103A90003D2831D804F15907696838461BF017FFF3
:103AA0000123022E8DF838300BD0A96809A805F043
:103AB000ACFC10BB032E09D001A9E868FFF73CFF5E
:103AC00003E0124909A805F0A0FCB0B9019BADF8CC
:103AD000363000238DF810300D4AD4F80C012346FF
:103AE00002A9CDE9027804F098F930B9012384F8ED
:103AF000583010B0BDE8F081072001462046FFF79E
:103B000077FAF6E70520F8E7A30B0200AB0B0200FB
:103B1000813E00004B1E012BF7B505460F461646A9
:103B200006D9072421462846FFF762FA03B0F0BD04
:103B30001D4910681BF0C1FE0446C8B9012F0AD107
:103B4000D5F80C01AE680FF041FA0246174930462D
:103B500002F0D6FAE6E701A97068FFF7EDFE044629
:103B60000028DFD10199D5F80C010FF032FAD9E71E
:103B70000F4930681BF0A1FE04460028D1D1012F67
:103B800005D1D5F80C01AE680FF027FADDE701A9E1
:103B90007068FFF7D1FE04460028C3D10199D5F81B
:103BA0000C010FF01DFABDE7951302006813020027
:103BB0009D13020073B505460C4681B98668D0F89E
:103BC0000C0106F065F80C490246304602F098FAFE
:103BD000204601462846FFF70BFA02B070BD01A946
:103BE0001068FFF7A9FE0028F3D1BDF80410D5F83E
:103BF0000C0106F050F8ECE71F1A020073B50546F9
:103C00000C4681B98668D0F80C0106F059F80C49C9
:103C10000246304602F074FA204601462846FFF775
:103C2000E7F902B070BD01A91068FFF785FE002812
:103C3000F3D10199D5F80C0106F046F8EDE700BF85
:103C4000681302007FB50E1E0446154643DD234966
:103C500010681BF032FED0B9012E3AD003A9686873
:103C6000FFF76AFE78BBBDF80C501D49A06802F052
:103C700047FA1C49A06802F043FA00941A4BD4F8A2
:103C80000C012A46002106F0A9F800B31BE003A9A5
:103C90002868FFF751FEB0B9039B1F2B12D80125EE
:103CA0009D401249A06802F02BFA1149A06802F069
:103CB00027FA00940F4BD4F80C010022294606F095
:103CC00079F8E2E7072001462046FFF791F904B0B2
:103CD00070BD0546C9E70025E3E700BF510C0200AF
:103CE000580C0200680C0200B54900002A110200BD
:103CF000831102008949000037B5054691B901A931
:103D0000D0F80C0116F0FCFF044628B99DF90420F8
:103D10000C49A86802F0F4F921462846FFF768F933
:103D200003B030BD01A91068FFF706FE0446002865
:103D3000F2D19DF90410D5F80C0116F0EBFF044602
:103D4000EAE700BFCC1C02002DE9F04702298AB047
:103D500005460F4616463CDD01A9506805F02BFCD0
:103D6000002837D106F10409023F04460DF1140A78
:103D7000BC425FFA84F80DD0132C0AD0694659F87A
:103D8000040FFFF7D9FD28BB009B04F80A3001346B
:103D9000EEE7A046124930681BF08FFD48B9434654
:103DA00005AA01A9D5F80C010FF073F90AB0BDE816
:103DB000F0870C4930681BF080FD50B9434605AAD6
:103DC00001A9D5F80C010FF068F92846FEF7ECFFC1
:103DD000ECE7072001462846FFF70AF9E6E700BFAF
:103DE0006114020007170200002330B51360013987
:103DF0004FF47A730A2411F8010FE8B1A0F13005ED
:103E0000092D11D8B3F57A7F02BF106860431060A6
:103E100008781568303803FB0050B3F57A7F1060DE
:103E2000E9D0B3FBF4F3E6E72E2804D1B3F57A7FAB
:103E300001D16423DFE7062030BD0000F8B59DF80E
:103E400018500446174680680A460B491E4602F081
:103E500057F965B939462046FFF746FD324607490E
:103E6000A06802F04DF9002384F85830F8BD2946C7
:103E70002046FFF7BDF8F6E72912020040120200C3
:103E800010B49DF80440019410BCFFF7D7BF10B5E3
:103E9000002986B0044614DD6946106805F08BFBE6
:103EA00068B940238DF810309DF81130D4F80C011A
:103EB00043F0030369468DF8113005F057FB06B057
:103EC00010BD0720FBE700291FB504460BDD69463E
:103ED000106805F070FB20B96946D4F80C0105F0B4
:103EE00049FB04B010BD0720FBE7000070B5054694
:103EF00014460E4681B9D0F80C01174E05F033FB7D
:103F0000044624B321462846FFF7EEFC3146A86854
:103F100002F0F6F86469F4E7104910681BF0CDFC74
:103F200050B9221D711E2846FFF7B1FF01462846F1
:103F3000BDE87040FFF75CB8094920681BF0BDFC84
:103F400038B9221D711E2846FFF7BDFFEEE7204657
:103F5000ECE70720EAE700BFBE0D0200B50C020047
:103F6000B90C020000291FB504460BDD6946106834
:103F700005F021FB20B96946D4F80C0105F001FBDE
:103F800004B010BD0720FBE700291FB504460BDD78
:103F90006946106805F00FFB20B96946D4F80C019A
:103FA00005F0F3FA04B010BD0720FBE7F8B50546AD
:103FB00016460F4689B9D0F80C0105F0EAFA044616
:103FC00030B11149A86802F09BF83C462046F8BD84
:103FD0000E49A86802F094F8F8E70D4910681BF044
:103FE0006CFC044628B90121D5F80C0105F0D4FA7F
:103FF000ECE7084930681BF060FC044608B901464C
:10400000F2E70724E2E700BFF0110200300D0200E2
:10401000FA1102000112020070B5054614460E4660
:1040200081B9D0F80C011C4E05F0A8FA04467CB307
:1040300021462846FFF758FC3146A86802F060F890
:104040002469F4E7154910681BF037FC50B9221DAC
:10405000711E2846FFF786FF01462846BDE87040DE
:10406000FEF7C6BF0E4920681BF027FC28B9221DA9
:10407000711E2846FFF788FFEEE70A4920681BF00B
:104080001CFC38B9221D711E2846FFF78FFFE3E79D
:104090002046E1E70720DFE7BE0D0200B50C020075
:1040A000B90C02003B140200F7B51F460023019330
:1040B0003B78812B04460D4616462DD10B8CCA8BBE
:1040C00080681649D21A083202F01AF806F1100177
:1040D0002046FFF709FCFA8896F825301049A068B9
:1040E00052BA92B202F00CF801AB0422298C284695
:1040F00009F05DF803280BD90198A568FEF7F8FED2
:10410000064615F08CFE0749821B284601F0F8FF91
:104110000549A06801F0F4FF03B0F0BD4B120200A6
:104120005A12020070120200BE0D0200FFF7BCBF5F
:1041300037B5044615F073FEFEF7DAFE0021019054
:10414000D4F80C0105F02BFA0546B0B104220DEBB2
:10415000020109F0F5FBE8B9218F284609F0ECFBD4
:10416000C0B9012304F10C022946D4F80C0104F073
:10417000A4F978B9638F013B6387638F43B1E56B23
:1041800015F04DFE2A46014604F140000FF08AF971
:1041900003B030BD284609F0CBFBEEE7F7B50F1EA4
:1041A0000546164655DD10682B491BF086FB05F1C8
:1041B00040030446AA6C50B9934246D018460FF00B
:1041C0003BF9204601462846FEF712FF3BE09342AA
:1041D0003DD1316805F11C0005F017F90028F1D137
:1041E0001E4A4FF47A73C5E90E23012485F8304046
:1041F000BC4225DA022C0ED0032C15D0012C28D17C
:1042000069467068FFF798FB0028DBD1009B2B877D
:104210000134E4B2ECE76946B068FFF78DFB002893
:10422000D0D1009B6B87F3E701AAF1682846FFF71E
:10423000DBFD0028C6D1019B002B0ADDEB63E7E71D
:104240002846FFF775FF03B0F0BD0D20BAE7052043
:10425000B8E70720B6E700BF1D0D02000800010007
:10426000024B18680430FFF763BF00BFB010002096
:104270002DE9F84F04460E4680683649364F01F066
:104280003FFF2C253946A06801F03AFF013DF9D1E6
:1042900032793249A068304F01F032FF1C2539468F
:1042A000A06801F02DFF013DF9D12A49A068DFF88F
:1042B000C08001F025FF3379A068AB423CD941466C
:1042C00001F01EFF00273279A068EB19934229D232
:1042D00032682349D25C01F013FF0137102FF2D16D
:1042E0004146A068DFF88C90DFF88CA0DFF88CB036
:1042F00001F006FF00273279A068EB19934219D22A
:104300003268D25CA2F120035E2B0FD8594601F02F
:10431000F7FE0137102FEED11249A06801F0F0FE30
:104320001035C8E7104901F0EBFED6E7514601F021
:10433000E7FEEEE74946FAE70C4E53253146A06802
:1043400001F0DEFE013DF9D1A0680249BDE8F84F59
:1043500001F0D6BEBE0D0200D3130200D513020039
:10436000E31302007F110200E9130200F7130200B9
:10437000E1130200F4130200F1130200ED13020036
:1043800013460A4601461846FFF772BF2DE9F0476B
:104390000F1E88B00646154640F39580182200216E
:1043A00002A81AF023FF2F2128681BF079FA04468F
:1043B000002800F083800023037002A9286805F01C
:1043C000FAF800287AD1024601A9601C1BF03EFBD6
:1043D000019B8DF818001B78002B72D1DFF8EC8060
:1043E000DFF8EC90DFF8ECA00124A74261D0414651
:1043F00055F824001BF061FA40B99DF819300122EC
:1044000062F301038DF819300134EEE7494655F89F
:1044100024001BF052FA20B99DF8193060F3010313
:10442000F0E7514655F824001BF047FA20B99DF8F3
:10443000193043F00303E5E755F82420013A12F858
:10444000013F002BE0D0613B122B3AD8DFE803F0AC
:1044500011391B1639393939393939393939250A78
:1044600039202A009DF8193043F004038DF81930E3
:10447000E5E79DF8193043F00803F7E79DF8193098
:1044800043F01003F2E79DF8193043F02003EDE705
:104490009DF8193043F04003E8E79DF8193043F0E8
:1044A0008003E3E79DF81A3043F001038DF81A30DA
:1044B000C5E702A9D6F80C0102F081FA08B0BDE800
:1044C000F0870620FAE70720F8E700BF0D12020088
:1044D000121202001612020070B5002986B00646BC
:1044E000154624DD1122002101A81AF07FFE2F219C
:1044F00028681BF0D5F90446A8B10023037001A970
:10450000286805F058F870B902466946601C1BF02F
:104510009DFA009B8DF814001B7833B901A9D6F8D9
:104520000C0102F077FA06B070BD0620FBE7072009
:10453000F9E70000F0B58DB000233A4D3A4E3B4FFD
:104540000593044606AA05A9D4F80C0102F068FAFE
:10455000002863D19DF828100291BDF81E10BDF807
:104560001A30BDF81820A06849BA89B20191BDF887
:104570001C1049BA89B25BBA52BA00919BB292B28E
:10458000294601F0BDFD9DF829305A0703D5314673
:10459000A06801F0B5FD9DF829301B0703D5394609
:1045A000A06801F0ADFD9DF82930D80603D520495B
:1045B000A06801F0A5FD9DF82930990603D51D4995
:1045C000A06801F09DFD9DF829305A0603D51A49CF
:1045D000A06801F095FD9DF82930DB0903D017494B
:1045E000A06801F08DFD9DF82A30DB0703D5144942
:1045F000A06801F085FD9DF8293043F301035BB20B
:10460000002B07D008DC01339CD10E49A06801F0D3
:1046100077FD97E70C49F9E70C49F7E700200DB063
:10462000F0BD00BF6D130200C91602007026020023
:104630006E120200EF1302005F140200AF160200B8
:10464000191F02007F130200861302008D1302005F
:1046500070B5054614460E4639B9FFF76BFF0146A3
:104660002846BDE87040FEF7C3BC0C4910681BF03B
:1046700024F928B9221D711E2846FFF787FEEEE7B0
:10468000074920681BF019F928B9221D711E284618
:10469000FFF722FFE3E70720E1E700BFB50C0200C8
:1046A0000F0D02002DE9F04788B00E46074615466B
:1046B0000021182202A81AF099FD002E5ADD2F21A0
:1046C00028681BF0EDF8044688B10023037002A9A6
:1046D000286804F070FF50B9024601A9601C1BF065
:1046E000B5F9019B8DF818001B781BB1062008B0A6
:1046F000BDE8F087DFF88480DFF88490DFF884A0DD
:104700000124B44230D0414655F824001BF0D5F8BE
:1047100038B99DF81C3043F004038DF81C30013487
:10472000EFE7494655F824001BF0C7F828B99DF873
:104730001C30012262F30103EFE7514655F82400D3
:104740001BF0BBF820B99DF81C3060F30103E4E7CF
:10475000094955F824001BF0B0F80028C6D19DF88F
:104760001C3043F00303D8E702A9D7F80C0102F08C
:1047700060F9BCE70720BAE716120200191F020011
:104780000D1202001212020070B586B00C460646E9
:1047900015460021112201A81AF028FD002C1DDD6C
:1047A0002F2128681BF07CF80446A8B10023037071
:1047B00001A9286804F0FFFE70B902466946601C32
:1047C0001BF044F9009B8DF814001B7843B901A934
:1047D000D6F80C0102F03DF906B070BD0720FBE7EA
:1047E0000620F9E7F0B58DB00023224D224E234F6D
:1047F0000593044606AA05A9D4F80C0102F02FF986
:10480000002833D19DF828100291BDF81E10BDF884
:104810001A30BDF81820A06849BA89B20191BDF8D4
:104820001C1049BA89B25BBA52BA00919BB292B2DB
:10483000294601F065FC9DF82C305B0703D5314615
:10484000A06801F05DFC9DF82C3043F301035BB2DE
:10485000002B07D008DC0133CCD10949A06801F056
:104860004FFCC7E73946F9E70649F7E700200DB0E6
:10487000F0BD00BF6D130200191F02008613020075
:104880007F1302008D13020070B5054614460E46D4
:1048900039B9FFF7A7FF01462846BDE87040FEF78B
:1048A000A7BB0C4910681BF008F828B9221D711E1F
:1048B0002846FFF7F7FEEEE7074920681AF0FDFFEC
:1048C00028B9221D711E2846FFF75EFFE3E7072087
:1048D000E1E700BFB50C02000F0D020038B5044639
:1048E0000D46806821B91F49BDE8384001F008BC79
:1048F00091F839201C49C2F3401201F001FC05F186
:1049000008021A49A06801F0FBFB1949A06801F0F0
:10491000F7FB082205F119012046FEF75FFF154954
:10492000A06801F0EDFB6A8E1349A06801F0E8FB76
:10493000294620460822FEF751FF95F836200F49F8
:10494000A06801F0DDFB95F937200D49A06801F062
:10495000D7FB95F83820A0680A49BDE8384001F037
:10496000CFBB00BF160D0200F9130200FF130200B7
:104970000F1402004C60020008140200121402001E
:104980001A140200211402000B4601461846FFF7D4
:10499000A5BF0000806811B9044901F0B1BB91F9CD
:1049A00001300A78024901F0ABBB00BF160D0200CE
:1049B0002B1402000B4601461846FFF7EBBF000020
:1049C0002DE9F04385B004460023D0F80C018DF8A2
:1049D000033005F07DF950BB3749A06801F090FB2A
:1049E000DFF8EC80354F01AD2A460DF10301D4F814
:1049F0000C0105F086F910BB082229462046FEF777
:104A0000EDFE9DF90C607F2E0CD03146D4F80C01E0
:104A1000D4F8089005F091F93246034641464846DD
:104A200001F06EFB3946A06801F06AFBDCE7012863
:104A300001D12349D1E70228D2D12249CDE7002371
:104A40002149A0688DF8033001F05AFBDFF884801B
:104A50001E4FD4F80C012A460DF1030105F065F94B
:104A600038BB2B5CFF2B0FD101300828F9D19DF901
:104A70000C60D4F80C01D4F80890314605F05DF9CB
:104A800032460346394610E0082229462046FEF702
:104A9000A5FE9DF90C60D4F80C01D4F808903146BD
:104AA00005F04BF9324603464146484601F028FBE3
:104AB000CFE705B0BDE8F083220D0200BE0D020075
:104AC0003B0D0200550D0200820D0200A50D0200F3
:104AD0006F0D0200900D02002DE9F04186B00546F1
:104AE0000E460023D0F80C018DF80730144605F06F
:104AF000EFF89EBB50BB5049A86801F001FB4F4F37
:104B00004F4ED5F80C0103AA0DF1070105F0F9F895
:104B1000002840F08F80082203A92846FEF75EFE99
:104B20009DF914407F2C0CD02146D5F80C01D5F806
:104B3000088005F002F9224603463946404601F056
:104B4000DFFA3146A86801F0DBFADAE7012801D183
:104B50003C49D1E70228D2D13B49CDE73B49206807
:104B60001AF0ABFE014628B9012E0BD0072006B083
:104B7000BDE8F081364920681AF09FFE38B9012E51
:104B8000F4D13146D5F80C0105F0A5F8EFE731492D
:104B900020681AF092FE18B9012EE7D10221F1E740
:104BA0002D4920681AF089FE20BB012EDEDD082287
:104BB00003A96068FEF7E4F9082801D00620D6E7CB
:104BC00003A9D5F80C0105F08AF808B11828CED150
:104BD000022ECCD0032EC9D102A9A068FEF7ACFEEC
:104BE0000028C4D19DF90820D5F80C0103A905F0CF
:104BF00090F8BCE7194920681AF05FFE70B9022EE0
:104C0000B4D1082203A96068FEF7BAF90828D5D103
:104C100003A9D5F80C0105F069F8A8E71049206848
:104C20001AF04BFE0028A1D1012E9FD1D5F80C011E
:104C300005F063F800209AE7300D02006F0D0200C6
:104C4000BE0D0200490D0200630D020001120200B8
:104C50004714020051140200B50C02000F0D0200AF
:104C60005B1402002DE9F04387B000230546164689
:104C70008DF807300C4621BB524FDFF8608103AC42
:104C800022460DF10701D5F80C0105F04EF8002879
:104C900040F08480235CFF2B40F0828001300828A4
:104CA000F8D19DF91460D5F80C01D5F8089031467B
:104CB00005F043F8324603464146484601F020FAE3
:104CC000DEE7414910681AF0F8FD78BB032C04D0E8
:104CD0000724204607B0BDE8F08302A9B068FEF7BC
:104CE0002BFE04460028F4D19DF80810032901D9B1
:104CF0000624EEE7D5F80C0105F02AF807463349FB
:104D000070681AF0DAFD10B93A46214608E0082228
:104D100003A97068FEF734F90828E9D13A4603A9D7
:104D2000D5F80C0104F0F5FF0446D2E728493068B5
:104D30001AF0C3FD58B9032CCAD102A9B068FEF716
:104D4000FBFD04460028C4D19DF90870D7E721492E
:104D500030681AF0B2FDA8B9022CB9D11B497068AD
:104D60001AF0ABFD014620B9D5F80C0104F0D5FFCF
:104D7000DAE7082203A97068FEF702F90828B7D11C
:104D800003A9F1E7144930681AF097FD044600289A
:104D90009ED1D5F80C0104F0C4FF9AE7002498E7EF
:104DA000082221462846FEF719FD9DF91460D5F822
:104DB0000C01D5F80890314604F0BFFF3246034697
:104DC00039467AE7900D0200AE130200B6130200D6
:104DD000B50C02000F0D02005B140200B8130200B4
:104DE00070B5064615460C4641B9FFF7E9FD204669
:104DF00001463046BDE87040FEF7FAB80B4910682E
:104E00001AF05BFD28B92A1D611E3046FFF764FECB
:104E1000EEE7074928681AF050FD28B92A1D611EDF
:104E20003046FFF71FFFE3E70720E1E72017020006
:104E3000091202002DE9F043A3B004460D461646C0
:104E40000021802202A81F461AF0D0F900238DF815
:104E50000730A76095B1711C28461AF06FFDB0426B
:104E60000CD8202302AA0DF1070128460DF070FA94
:104E700038B120222D49A06801F042F923B0BDE8E5
:104E8000F0839DF8073023B92949A06801F038F96B
:104E9000F4E7029F01F078FA30B1264938461AF05B
:104EA0000CFD08B12449F0E7244D00264FF00C0911
:104EB00009FB06F8384658F805101AF0FEFC88B9C8
:104EC0004544A9686B684A10C90704EB02009DF8C5
:104ED000071048BFA25801F1FF3148BFD35803AAB9
:104EE0009847CBE701362A2EE2D100262379F5B286
:104EF000AB4212D92368384653F835101AF0DDFC5E
:104F00004FEAC50801360028F0D123689DF8070054
:104F1000434403A95B68013898472379AB42ADD17C
:104F200006212046FEF764F8A8E700BFC00B020088
:104F3000E00B0200FB0B0200000C020078140200E0
:104F40002DE9FF41CC8B0B8C07460E468068134938
:104F5000E41A01F0D5F8A4B20025C4B1318C102CAC
:104F6000A046294428BF4FF010086B46424689B23C
:104F7000304608F01CF9A4EB08045FFA88F2694691
:104F800038464544FEF72AFCA4B2ADB2E5E7044931
:104F9000B86801F0B5F804B0BDE8F081651402000E
:104FA000BE0D020013460A4601461846FFF7C8BF69
:104FB0002DE9F041094E0A4D074600244FF00C0838
:104FC00008FB04F23B68925998682946013401F0C5
:104FD00097F8082CF4D10020BDE8F081B018020049
:104FE0007A160200036841F23361D3F80C0101F034
:104FF00083BD10B503680446011DD3F80C0101F010
:105000008AFD2368BDE81040D3F80C0101F079BD9A
:105010002DE9F04F5D4B9BB08346186807908A4698
:105020001B798DF82030154600211B220DF121003F
:105030001AF0DCF8BAF1000F04DC072420461BB09C
:10504000BDE8F08F524928681AF037FC00286ED06E
:10505000504928681AF031FC00286BD04E49286866
:105060001AF02BFC002868D04C4928681AF025FC5F
:105070000028E2D14FF00408BAF1010FDDD00DF1A4
:105080000C094946686804F096FA04460028D5D110
:10509000BAF1020FD1D0A8681AF036FC1F28CCD87C
:1050A0002022A96807A81AF01AFCBAF1030F47D109
:1050B0001027DBF800300021D3F80C0101F0DDFCF3
:1050C000064600285FD04246394601F0E1FC022145
:1050D000304601F0E1FC07A9304601F0DFFC044650
:1050E000002846D1BAF1040F32DC2C2200210FA88F
:1050F0001AF07CF899E80F0013AC84E80F0041F235
:105100003363ADF85E3001238DF86030DBF80000CA
:10511000002F32D1224BCDF800B00FAA3146D0F883
:105120000C0101F0E4FC0446002887D021E04FF098
:105130000108A1E74FF002089EE74FF003089BE744
:105140001849E8681AF0B9FB0028B1D10746B0E762
:1051500028691AF0D9FB84B2002CC6D0304601F081
:105160009FFC22462969304608F0EAFB04460028E5
:10517000BBD0304608F0DCFB60E7B8F1010FC9D0C6
:1051800000230093C9E7032458E700BFD7170200A4
:10519000611402009A1802009F180200A31802006E
:1051A00095540000AA180200012938B50446154696
:1051B00016DD50681AF0A8FB1F280FD80C4BA3600F
:1051C00004F114006060E460696820221AF087FB33
:1051D0002368211DD3F80C0101F098FC002038BD94
:1051E000D0E900320349986800F08AFFF6E700BF73
:1051F000415400007A16020010B51022044640F80F
:10520000041B002119F0F2FF204610BD2DE9FF41DB
:10521000074608460E4608F08DFB0446304608F067
:105220008DFB241AA4B20CB33B681449986800F0B3
:1052300067FF0025102C3046A04628BF4FF010080D
:1052400008F07CFB411943466A4689B23046A4EB1C
:10525000080408F077FB45445FFA88F2694638682D
:10526000A4B2FEF7BBFAADB2002CE3D13B6804490F
:10527000986800F045FF04B0BDE8F0811019020005
:10528000BE0D02002DE9F047B1F1000806461746B1
:1052900006DC00221146FFF78BFE0720BDE8F087F1
:1052A000104C00254FF00C0A0AFB05F9386859F834
:1052B00004101AF002FB78B94C44A16863684A10E4
:1052C000C90706EB020048BFB258414648BFD35851
:1052D0003A46BDE8F04718470135082DE4D10620CD
:1052E000DCE700BFB01802002DE9F34130238DF850
:1052F000073003680446174698680D46474900F092
:10530000FFFE07F110012068FEF7EEFA236844491A
:10531000986800F0F5FE284601F0D1FB01382368BB
:1053200003282AD8DFE800F0022725233D499868A2
:1053300000F0E6FE20462946FFF768FF284601F008
:10534000B7FBF8B9284601F0BAFB236801284FF0F3
:105350000001D3F80C010CBF4FF045084FF0430893
:1053600001F08BFB064698B902B0BDE8F0812E49EA
:10537000DDE72E49DBE72E49D9E72E49986800F092
:10538000BFFEF1E7284601F09AFB0128ECD1D9E7EE
:105390004246202101F07CFB284601F095FB0146A6
:1053A000304601F07FFB284601F09CFB80462846F2
:1053B00001F091FB41460246304601F06BFB284666
:1053C00001F07DFB0128054617D023683A46314697
:1053D000D3F80C0101F0A4FB0546D8B12368284698
:1053E0009C6804F007FE2A4603461349204600F055
:1053F00087FE304608F09CFAB6E7304601F050FBD5
:105400002A460DF10701304608F09AFA05460028B1
:10541000DBD0E3E723680949B0E700BFF7170200D4
:105420004C6002000A1802000E1802001518020053
:10543000191802001E1802002A1802004C18020057
:10544000FFF752BF2DE9F0419046026804460F462F
:1054500096681D4653B1184604F0CCFD2A46034613
:105460000A493046BDE8F04100F04ABE08493046DE
:1054700000F046FE08F110012068FEF735FA3946C3
:105480002046BDE8F041FFF7C1BE00BF6118020031
:1054900086180200FFF7D6BF2DE9F041094E0A4DEC
:1054A000074600244FF00C0808FB04F23B689259B1
:1054B00098682946013400F023FE142CF4D1002012
:1054C000BDE8F081441A02007A16020008B568228D
:1054D0000021024819F08AFE002008BD4810002073
:1054E000002938B50446154619DD0E4910681AF032
:1054F000E4F938B923680C49D3F80C01BDE8384009
:1055000001F043BD094928681AF0D7F938B9236872
:105510000549D3F80C01BDE8384001F05DBD072016
:1055200038BD00BFB55802004810002029190200FC
:10553000002937B511DD01A91068FEF7FDF950B952
:10554000074B019C93F86420E517C3E9004542F03E
:10555000010283F8642003B030BD0720FBE700BFE1
:1055600048100020002907B511DD01A91068FEF7D9
:10557000E3F948B9074B019AA3F84A2093F865204C
:1055800042F0010283F8652003B05DF804FB0720B8
:10559000FAE700BF48100020002907B510DD01A977
:1055A0001068FEF7C9F940B9064B019A1A6693F8DC
:1055B000652042F0080283F8652003B05DF804FB23
:1055C0000720FAE748100020002907B510DD01A9DF
:1055D0001068FEF7B1F940B9064B019A5A6493F886
:1055E000642042F0400283F8642003B05DF804FBBD
:1055F0000720FAE748100020002907B511DD01A9AE
:105600001068FEF799F948B9074B019AA3F84820AA
:1056100093F8642042F0800283F8642003B05DF8C0
:1056200004FB0720FAE700BF48100020002937B527
:1056300011DD01A91068FEF77FF950B9074B019CF5
:1056400093F86420E517C3E9024542F0020283F8AB
:10565000642003B030BD0720FBE700BF48100020E6
:1056600037B50D1E144641DD01A91068FEF764F937
:10567000D0BB1F4B019AA3F85C20012D83F85E007C
:105680002CD06168013911F8012F3AB36E2A16D077
:1056900005D8622A1DD0632A16D0062024E06F2A7E
:1056A00006D0722AF9D193F85E2042F0200203E07E
:1056B00093F85E2062F07F0283F85E20E3E793F8C0
:1056C0005E2042F04002F7E793F85E2042F01002BD
:1056D000F2E793F85E2042F00802EDE793F86520C8
:1056E00042F0040283F8652003B030BD0720FBE7D9
:1056F00048100020002938B50446154619DD0E492A
:1057000010681AF0DAF838B923680C49D3F80C019C
:10571000BDE8384001F059BC094928681AF0CDF8B5
:1057200038B923680549D3F80C01BDE8384001F0C9
:105730005ABC072038BD00BFB558020048100020F1
:1057400029190200002913B5134618DD08226946FD
:105750001868FDF715FC00280FDB0A4C0822694683
:1057600004F1310019F01EFD94F8643043F0100389
:1057700084F86430002002B010BD0620FBE707204B
:10578000F9E700BF4810002000291FB5134618DDB7
:10579000102269461868FDF7F3FB102802460ED167
:1057A000094C694604F1100019F0FCFC94F86430CF
:1057B00043F0040384F86430002004B010BD0620D8
:1057C000FBE70720F9E700BF4810002030B50029AB
:1057D00085B015DD6946106803F0EDFE044660B93A
:1057E000084D0822694605F1390019F0DBFC95F8EF
:1057F000643043F0200385F86430204605B030BDA6
:105800000724FAE748100020002970B515461ADD74
:1058100010681AF079F81028064616D80C4C112298
:10582000002104F1200019F0E1FC3246296804F15E
:10583000200019F0B7FC94F8643043F0080384F8B2
:105840006430002070BD0720FCE70620FAE700BFA7
:1058500048100020002970B5164618DD10681AF0AF
:1058600053F8441C6408A2B2102A12D80B4D3068B9
:10587000A91A5C311446FDF783FBA0420BD195F8C1
:10588000653043F0020385F86530002070BD0720C5
:10589000FCE70320FAE70620F8E700BF48100020E5
:1058A0002DE9F04F0E1EC3B08146144617DD682265
:1058B000002108A819F09AFCDFF820B301254FF069
:1058C0000008AE4240F34B812FB2B84954F827008C
:1058D00019F0F3FFD0B96B1CDBB29E4201DC07204C
:1058E0004CE19DF8842054F8230042F0010203A902
:1058F0008DF88420FEF720F8002840F03F81039ABD
:10590000D317CDE908230235EDB2DAE7A84954F8F8
:10591000270019F0D2FFB0B96B1CDBB29E42DEDD6E
:105920009DF8842054F8230042F0020203A98DF868
:105930008420FEF701F8002840F02081039AD31755
:10594000CDE90A23DFE7594654F8270019F0B5FFDF
:105950000190A8B9681CC0B28642C0DD9DF88420C1
:1059600054F8200042F004028DF884200CA9102283
:10597000FDF706FB1028019B00F0EF800620FDE0FC
:105980008C4954F8270019F098FF8246F0B96F1C33
:10599000FFB2BE42A3DD9DF884203FB242F0080270
:1059A00054F827008DF8842019F0AEFF10288046A7
:1059B000E4DC1122514610A819F018FC424654F8B4
:1059C000271010A819F0EEFBD0469CE77A4954F84E
:1059D000270019F072FFA0B96B1CDBB29E427FF763
:1059E0007EAF9DF8842054F8230042F010028DF819
:1059F00084200DF151010822FDF7C2FA002882DA55
:105A0000BCE76E4954F8270019F057FFC8B96B1C62
:105A1000DBB29E427FF763AF9DF8842054F82300E9
:105A200042F0200204A98DF8842003F0C4FD002870
:105A300040F0A480082204A90DF1590019F0B2FB2E
:105A400061E75F4954F8270019F037FFA8B96B1CCC
:105A5000DBB29E427FF743AF9DF8842054F82300C9
:105A600042F0400203A98DF88420FDF765FF00286D
:105A700040F08480039B199345E7524954F827006E
:105A800019F01BFFA8B96B1CDBB29E427FF727AF52
:105A90009DF8842054F8230042F0800203A98DF879
:105AA0008420FDF749FF002868D1039BADF86830DA
:105AB00029E7454954F8270019F0FFFEA8B96B1CE7
:105AC000DBB29E427FF70BAF9DF8852054F8230090
:105AD00042F0010203A98DF88520FDF72DFF002873
