:1000000000000420B5020000DD020000DF02000055
:10001000E1020000E3020000E50200000000000031
:10002000000000000000000000000000E7020000E7
:10003000E902000000000000EB020000ED020000F9
:100040008D340000C1560300613C0000EF02000047
:10005000EF020000EF02000095390000EF020000FF
:10006000EF020000EF020000C9420000EF020000B2
:10007000EF02000031400000EF020000EF0200003C
:10008000EF020000391F0000EF020000EF02000045
:10009000D51F0000EF020000EF020000EF02000099
:1000A000EF020000EF020000DD420000EF0200005E
:1000B000113F0000EF0200000000000000000000FF
:1000C000EF020000EF020000EF020000EF0200006C
:1000D000F57B0300EF020000EF020000EF020000DA
:1000E000EF020000EF020000EF020000000000003D
:1000F00000000000EF02000000000000EF0200001E
:1001000000000000000000000000000000000000EF
:1001100000000000000000000000000000000000DF
:1001200000000000000000000000000000000000CF
:1001300000000000000000000000000000000000BF
:1001400000000000000000000000000000000000AF
:10015000000000000000000000000000000000009F
:10016000000000000000000000000000000000008F
:10017000000000000000000000000000000000007F
:10018000000000000000000000000000000000006F
:10019000000000000000000000000000000000005F
:1001A000000000000000000000000000000000004F
:1001B000000000000000000000000000000000003F
:1001C000000000000000000000000000000000002F
:1001D000000000000000000000000000000000001F
:1001E000000000000000000000000000000000000F
:1001F00000000000000000000000000000000000FF
:1002000010B5054C237833B9044B13B10448AFF350
:1002100000800123237010BD18060020000000009C
:1002200010C2030008B5034B1BB103490348AFF3E9
:10023000008008BD000000001C06002010C2030062
:10024000154B002B08BF134B9D46A3F5803A0021A8
:100250008B460F461348144A121A38F03AF80F4BDF
:10026000002B00D098470E4B002B00D09847002061
:10027000002104000D000D48002802D00C48AFF307
:10028000008037F0AFFF2000290005F015F937F0A6
:1002900083FF00BF000008000000042000000000F1
:1002A00000000000180600208C5B00200000000009
:1002B000000000000649074A074B9B1A03DD043B78
:1002C000C858D050FBDC05F037FAFFF7B9FF000043
:1002D000ECC203000000002018060020FEE7FEE745
:1002E000FEE7FEE7FEE7FEE7FEE7FEE7FEE7FEE7E6
:1002F000F0B595B01C46164608460D4602F064FD62
:100300001A9B0D93CDE9086400242346082205A911
:1003100028460A948DF82C400C9402F073FD079B3C
:100320000293BDF81830ADF80C30BDF81A30ADF8B6
:100330000E309DF814308DF8114003F00302012AAD
:100340001DD1BDF81440059EC3F3C203C4F383144A
:100350008DF81030A20008230EA9284602F052FDA5
:10036000C6F3952608AB0093224602AB0EA9304691
:1003700000F0FCFC284602F02BFD15B0F0BD022A6F
:10038000F8D1BDF81640C3F3C203A4098DF81030AC
:100390000827082C264628BF08263B4632460EA9C9
:1003A000284602F02FFDA41B08AB02AA31460EA876
:1003B000374400F03FFD002CEBD1DBE7014B01227D
:1003C0001A707047750600207047000070B50F4D19
:1003D00006460FCD88B06C460FC495E80F00002E7E
:1003E00084E80F004FF006030093094A09484FF0D4
:1003F000805308BF00226946069302F025FF08B12A
:1004000001F064FA044B1E7008B070BD1C97030025
:10041000BD030000000000203406002007B5044B97
:100420000093044A4023FFF763FF03B05DF804FB29
:10043000390400003506002038B50D4B0D4D002065
:1004400018700D4804782D5DD2B21C4665B1043099
:1004500004F0AEFB08B101F039FA084B1A7812B17A
:100460002378002BFBD038BD0C3004F071F9F1E794
:1004700075060020DE3D002000000020340600202C
:1004800008B50848084A0378D35C3BB1043004F04F
:1004900035FB0020BDE80840FFF798BF0C3004F0A2
:1004A000FDF8F6E700000020DE3D00200120FFF708
:1004B0008DBF000008B5FFF7F9FF0421034800F0E5
:1004C000B3FB034B01225A7108BD00BFBCC203003D
:1004D00014000020037813F0040216D003F0030385
:1004E000012B03D0022B09D0012070470A68008835
:1004F0000232C0F3831002440A60F5E70B684288B9
:10050000023303EB92130B60EEE7104670470000D6
:100510002DE9F04F484C87B00F460546861C002059
:10052000019201F053FF23683B60D4E90123134497
:10053000226801339B1A04F21C4704F5836A04F213
:100540001448B34219D3019A0023002A6CD0012227
:1005500062F3010343F0040365F389132168A26881
:100560000A4003320E44002044F82230266001F095
:100570002FFF012007B0BDE8F08F0121384601F0C0
:100580005FFF504601F075FF404601F072FF0DF12C
:1005900018096068D4F808B049F8100D00EA0B009B
:1005A000033004EB80004946FFF794FF029BB0B98B
:1005B0000BEA030204EB8202D16803919A1C013317
:1005C00003EA0B0B04EB8B0C01F00303012B0292EB
:1005D000DCF80CB020D0022B04D083460BE00BEAF1
:1005E0000300DDE7BDF80E309B0903334FEA1B4BD8
:1005F00002EB93030293404601F03EFF08B1029BD9
:1006000063605946384601F01BFFD4E901231344C7
:10061000226801339B1A94E7BDF80C30C3F38313AF
:100620004FEA1B4B1344E5E7022262F3010343F058
:10063000040365F39F5391E74807002030B50A4B48
:100640000A4A0B49D21AD20800239A4201D1052046
:1006500006E031F823500468A54202D1036000206F
:1006600030BD0133F1E700BF2CC20300BCC2030060
:10067000700500202DE9F84F224B2348FF229A6095
:100680000022C3F81824C3E90022C3F8142483F815
:10069000202402F052FB804688B91C481C4E1D4D98
:1006A000DFF874A002F098FCAD1BED084446AC42A4
:1006B00008D10023184919481A469C421BD14046CC
:1006C000BDE8F88F4FF000094F4606EBC40BBC4263
:1006D0000AD0142256F83710DBF8000038F028F959
:1006E0000028C8BF09F101090137BD42EFD12AF83E
:1006F00024900134DBE701EB830540F823206A8076
:100700000133DAE748070020CCC203005C970300FE
:100710002CC20300BCC2030070050020B8050020F5
:1007200007B5019031B9019A064B53F8320003B076
:100730005DF804FB01A8FFF781FF0028F3D000203B
:10074000F5E700BF2CC20300094B013903EBC000E1
:10075000032909D8DFE801F00A02040604207047E3
:100760000079704740797047002070470220704739
:100770002CC2030030B5124C00EB400054F821505D
:100780008240072303FA00F06A4002400D4B6A40A2
:10079000C2F3821044F8212003EB8101C2F3C203AB
:1007A000834238BF0346C2F34220834202F007026D
:1007B00038BF03469A4238BF1A464A8030BD00BF50
:1007C000B805002070050020034BD3E90030C31AA0
:1007D00058425841704700BF480700202DE9F04FAC
:1007E00085B0FFF7F1FF0646002840F018818D4DD7
:1007F000C5F81804BFF34F8F6868AC6804AF47F8BA
:10080000100D2040033005EB80003946FFF762FEF3
:10081000009B18B1D5F81824002A66D004EA030218
:10082000991C013305EB8202234005EB8303D26858
:10083000DB68029302F00303022B0192009169D15D
:10084000BDF8063078489DF804604FEA931ABAF173
:10085000500FD14628BF4FF0500969F38F1309F1AB
:100860000801ADF8063002F080FAC6F3C2068046F1
:10087000002800F0BB8002F0A7FA01A9002308229B
:10088000404602F0B4FA009924EA01070137BF009C
:10089000B94538D95FFA89F997B3FFB2A9EB0709CF
:1008A000214003315FFA89FBB946604F05EB8101B6
:1008B00008234A46404602F09AFA37B109F1080384
:1008C0005A463946404602F092FA009B0AF1030A62
:1008D00003EB9A030093D5F81834002B50D1D5F8C8
:1008E0001044DFF85C9107276FE02A689A4204D829
:1008F0006A60304605B0BDE8F08F04EA030081E786
:100900004A49BB46D4E72140033108234A4605EB58
:100910008101D7E7012B69D1BDF804604248C6F3D5
:100920008311062928BF062161F389160231890047
:10093000ADF8046002F019FAC6F3C206804600283A
:1009400054D002F041FA0023082201A9404602F0E7
:100950004EFA0027BDF80420C2F38312BB1C974255
:100960004FEA8303B7D200994A1C21400331009219
:1009700005EB81010422404602F039FA0137E9E72C
:10098000404602F025FAFFF71FFF80F00100C6B2D3
:10099000AFE7E3685A79B2B11B79BDF8081003EBF1
:1009A000430259F8211007FA02F3052E03EA010366
:1009B00023FA02F308BF0326B34204D32368414657
:1009C0001B6820469847E3681C68002CE1D140462C
:1009D00002F0FEF9204601F0F9FCD5F818340BB905
:1009E000009B6B60002001F0F3FCCCE7D5F81044CD
:1009F00074B90F4B5B88012BC5D90E4B0E480F49BC
:100A0000C01AC008000440F0020000F073F8BAE712
:100A1000236820469B689847E3681C68E8E700263F
:100A200067E700BF48070020CCC20300540700203E
:100A3000940500202CC2030074C2030068970300D1
:100A4000B80500202DE9F74F284C80460F46924606
:100A500001A9012218469B46D4F80890FFF758FDDB
:100A600088B3019D0026A91C5E4506EB010234D126
:100A700000211F4801F0AEFC80F310006A1C02EA5E
:100A8000090204EB8202000405EA0903033340EA89
:100A90001840D06014F8232068F3C50204F823201E
:100AA00034F8232066F3891224F8232054F82320F5
:100AB000012167F39F2244F8232061F301026FF3C1
:100AC000820204F8232094F820341BB1FFF786FE3D
:100AD0000028FBD103B0BDE8F08F09EA020204EB65
:100AE00082025AF82630D3600136BDE7480700205D
:100AF000640B002000231A46FFF7A4BF13B502AC15
:100B0000012344F8042D2246FFF79CFF02B010BDDC
:100B100007B5CDE9002302236A46FFF793FF03B030
:100B20005DF804FB1FB5CDE90123069B039301AAE1
:100B30000323FFF787FF05B05DF804FB1FB5CDE980
:100B40000023069B0293079B03936A460423FFF747
:100B500079FF05B05DF804FB2DE9F3478046304C82
:100B6000D01C8A46174601A900228008A568FFF715
:100B7000CFFC002840D0DDF80490A66809F10200FF
:100B8000019001362840361AB6000330B74204EB14
:100B900080003BD83A46514637F077FB0021214888
:100BA00001F018FC80F3100009F101032B4004EB65
:100BB00083034FEA184242EA0040D86005EA09037D
:100BC000033304EB830214F8231068F3C50104F81F
:100BD000231034F823106FF38F1124F82310518859
:100BE00067F38F11518014F82320022161F3010271
:100BF0006FF3820204F8232094F820341BB1FFF72E
:100C0000EDFD0028FBD102B0BDE8F0873246514629
:100C100037F03BFBBA1B0AEB060104F10C00BBE703
:100C200048070020640B00202DE9F8431F4B88463D
:100C3000D3F81014054600240A469AB9E9680C71E5
:100C4000D3F81014A1B9C3F81054EB681A60184F08
:100C5000184EF61BF6084FF00009B14511D1204699
:100C6000BDE8F883D2681079A04218D01268E4E792
:100C7000C968EA6809681160D3F81034DB681D6040
:100C8000E5E707EBC9034946DA79EB68424528BF37
:100C900042461879FFF76EFD09F10109DDE70134DD
:100CA0000A2CC9D14FF0FF34D9E700BF4807002014
:100CB0002CC20300BCC2030010B5037A052B0C46FE
:100CC0000FD0437A23B1084A0849204601F033FC8B
:100CD0000749204601F02FFC2046BDE8104001F0F6
:100CE0001FBC002AF8D0F3E7C3970300C89703009E
:100CF000E897030073B5C38804460D4633B1144A20
:100D000000921449144A284601F015FC217A05295D
:100D10001CD0637A4BB1A088FFF716FD0F4B10492A
:100D200053F82020284601F006FC227A0D4BA088BB
:100D300053F822600021FFF7F3FC0B4903463246CB
:100D4000284602B0BDE8704001F0F5BB02B070BDAE
:100D5000C3970300D3970300CB970300909703003A
:100D6000C8970300F8970300EB9703002DE9F043C1
:100D700085B01F460C9D002306460C46904695F80C
:100D80000C902B7329463846FFF7B4FFB8F1060FD5
:100D900009D8DFE808F00412181F28334000314654
:100DA000284601F0C8FB002229463846FFF784FF99
:100DB00085F80C9005B0BDE8F083226831462846DE
:100DC00001F0B9FBEFE7D4E900233146284601F0F2
:100DD000B2FBE8E7A36800933146D4E90023284634
:100DE00001F0A9FBDFE7E3680193A36800933146B4
:100DF000D4E90023284601F09EFBD4E7236902933F
:100E0000E3680193A36800933146D4E900232846A0
:100E100001F091FBC7E76369039323690293E368D9
:100E20000193A36800933146D4E90023284601F0DA
:100E300082FBB8E708292DE9F84F80460E46174691
:100E40001C4635D8002593F80C901D7319461046A2
:100E5000FFF750FFDFF88CA0DFF88CB0AE4229D945
:100E600018F805205946204601F065FB0135082D8C
:100E7000F4D11A49DFF874B0204601F05CFB4FF062
:100E8000000A564524D918F80A507E2D17D92E226B
:100E90005946204601F04FFB0AF1010ABAF1080F4A
:100EA000EFD1012221463846FFF706FF84F80C9067
:100EB000BDE8F88F5146204601F03DFBD6E737F0FC
:100EC000B5F92844427812F0970FE0D02A46DFE7C0
:100ED0000349204601F02FFBDEE700BFBE97030069
:100EE000BC970300BA970300B4970300C0970300B0
:100EF000074B1B5C1F2B8ABF064A4FF0A04203F032
:100F00001F03D2F80405D840C04300F00100704729
:100F10005D98030000030050074B1B5C1F2B86BF2E
:100F200003F01F0305494FF0A041012202FA03F329
:100F3000C1F80C35704700BF5D98030000030050F6
:100F4000074B1B5C1F2B86BF03F01F0305494FF0A7
:100F5000A041012202FA03F3C1F80835704700BF2F
:100F60005D9803000003005008B50020FFF7E8FF7C
:100F70000120FFF7E5FF0220FFF7E2FF0320BDE8B5
:100F80000840FFF7DDBF08B50020FFF7C5FF0120CF
:100F9000FFF7C2FF0220FFF7BFFF0320BDE80840B4
:100FA000FFF7BABF0A4B185C1F288ABF094B4FF0E6
:100FB000A04300F01F00D3F804250121814021EA5D
:100FC00002000A40C3F80805C3F80C25704700BFAB
:100FD0005D98030000030050014B185C704700BF90
:100FE0005D9803000B2809D00C2809D0182809D0D7
:100FF00019280CBF03204FF0FF30704700207047C6
:101000000120704702207047C20710B504460CD576
:101010004FF0A0430322C3F83427C3F83827C3F89E
:101020003C27C3F84027FFF79FFFA3070AD54FF0DF
:10103000A0430C22C3F82C27C3F83027C3F860273D
:10104000C3F8642710BD00000D4930B5A1F50E723C
:101050000225914201D800200EE08B1ADB1093FB91
:10106000F5F302EBC30452F83330834205DC02DAB5
:1010700004F10802EDE7606830BD2146E9E700BFF2
:10108000F89F030008B5FFF7DFFF024B002808BFF9
:10109000184608BD6198030013B502AC002304F89C
:1010A000053D01939DF80330032B08D904210DEB76
:1010B000010002F087F830B9019802B010BD204657
:1010C00002F076F8EEE70020F7E708B500F07EFAC8
:1010D00000F07EF8002002F04BF810B100F0CEF8DE
:1010E000FCE7FFF7D9FF37F0C3FB02F0EBF810B9CC
:1010F00000F0C4F8FCE708BD08B500F0BFF8FCE755
:1011000062B6704772B67047FFF7C6BF08B513F0F6
:1011100079F84FF47053584308BD0000034A431A4E
:10112000934288BF0B1A1846704700BFFEFFFF7F2F
:1011300010B50446FFF7EAFF0444FFF7E7FFA042BB
:1011400004D9FFF7E3FFA042FBD810BDFFF7DEFF95
:10115000A042FBD3F9E738B50D4614465AB151B158
:1011600048B102F0F3F82946204602F0C5F810B95C
:1011700000F084F8FCE738BDEFF30580003018BFBD
:101180000120704700000000F7B54FF080530025A4
:101190001C6E596E04F0FF0745EA010206A5D5E969
:1011A000004502A9224347EA050361E90223082218
:1011B00037F06BF803B0F0BD000000000036CEF44D
:1011C00000487047040C002001F028BE7047000062
:1011D00008B50EF06BFF48B9054B1B7813B9054BEA
:1011E0001B781BB1BDE808400EF066BF08BD00BF0C
:1011F00032020020360200202DE9F84307460E4651
:101200000EF054FF58B1184C184BDFF86890DFF817
:101210006880E41AE408240444F003040EB9BDE82D
:10122000F883D9F80000C0F10805B542A8BF3546DB
:101230002A463946404437F028F8D9F800202A4495
:10124000082AC9F800202F44A6EB0506E6D1084B72
:101250005B88022B03D941462046FFF77DFC002323
:10126000C9F80030DAE700BFACC203002CC20300AB
:10127000B0050020500C0020480C002010B50C4C8C
:10128000226882B10B4B5B88022B0AD90A480B4BB0
:101290000B49C01AC008000492B240F00300FFF7E7
:1012A0005BFC00232360BDE81040FFF797BA00BF46
:1012B000500C0020B0050020ACC203002CC203007B
:1012C000480C00204FF0102358694FF08053411C08
:1012D0001A695B6908BF03FB02F070470378022BB1
:1012E00001D80EF0F7BE704710B5FFF7EBFF0A4CC0
:1012F0002061FFF7E7FF094B0949A0F54040E06096
:1013000000222046C3F8082101F0D8FA18B1BDE840
:101310001040FFF7F1BE10BD00060020540C002065
:1013200000A203004FF4804070470220704708B5C8
:1013300013460A4631B143B10146184636F0A5FFBF
:10134000002008BD6FF00A00FBE76FF00B00F8E724
:101350000128F8B507460C4616461D4612D80B4420
:10136000B3F5804F11D29AB1ADB1FFF7ABFFA4F541
:10137000404101EB873101442A46304636F085FF73
:101380000020F8BD6FF03800FBE76FF01600F8E7BB
:101390006FF00B00F5E76FF00C00F2E70128F7B5EE
:1013A00007460C4616461D4626D80B44B3F5804F1B
:1013B00025D23AB3AB0828D0FFF784FFA4F5404408
:1013C00004EB873404440EF08DFE07460028FAD162
:1013D0000EF078FE214600972B4632460C4801F06D
:1013E000A9FA04460EF07EFE0028FBD1201C18BF8F
:1013F0000120404203B0F0BD6FF03800FAE76FF013
:101400001600F7E76FF00B00F4E76FF00C00F1E760
:101410000006002001282DE9F041064626D8FFF7F6
:1014200051FF00EB8630A0F54044DFF84C8004F516
:1014300080470EF057FE05460028FAD10EF042FE16
:101440002B4601222146404601F034FB88B90EF0BC
:1014500049FE05460028FAD104F58054BC42E8D183
:1014600030460EF047FE2846BDE8F0816FF03800A8
:10147000FAE74FF0FF30F7E70006002010B5084C00
:10148000D4F8083153B19BB22246D4F8041194F831
:101490000001FFF783FF0023C4F8083110BD00BF2F
:1014A000540C00202DE9F8431C4C1E46D4F808319A
:1014B00081460F4690466BB194F80021824207D1D5
:1014C000D4F804211A44914202D1B3F5807F01D1AE
:1014D000FFF7D4FFD4F8080118B984F80091C4F8D4
:1014E0000471C0F58075B54234BFADB235464DB11B
:1014F0002A464146204436F0C8FED4F808312B4431
:10150000C4F80831761BB6B216B93046BDE8F88388
:10151000FFF7B4FF2F44A844DCE700BF540C0020C1
:1015200007B50C4B18680090FFF7CCFE0422A0F51D
:1015300080410DEB020036F0A8FE042269460DEB57
:10154000020036F093FEB0FA80F0400903B05DF877
:1015500004FB00BFFE9F030070B506460D4614460F
:10156000FFF7B0FEA4F57F543C3C324629462044A8
:10157000BDE87040FFF7DBBE0048704704A00300E1
:101580000422032102708170002206214270C17082
:1015900042607047B0F5A27F01D10EF0ADBD70473B
:1015A00008B5FFF7E9FF02F0FDFDFFF7E5FF02F0E8
:1015B00005FE024B00221A7008BD00BF600D00201E
:1015C000014B1878704700BF600D00201FB502A8BE
:1015D000FFF7D6FFFFF7D0FF104A02A902F066FD21
:1015E00008B1FFF789FDFFF7C7FF0368D3F810457F
:1015F000FFF7C2FFE2B24FF47031012421FA02F288
:1016000002232146009402F02CFEFFF7B5FF02F002
:10161000BBFD034B1C7004B010BD00BF951500004E
:10162000600D002008B5084B1B780BB9FFF7CEFF03
:10163000FFF7A2FF02F0EAFD28B9FFF79DFFBDE822
:10164000084002F0A1BD08BD600D00202DE9F04F5B
:101650003B4F89B000263B4B1B78F5B2AB4202D81A
:1016600009B0BDE8F08F384B196811F83500012436
:10167000A0F12002C0F1200304FA02F924FA03F3D6
:1016800049EA0309D7E9002304FA00F8CDE9042365
:1016900002EA080203EA0903134301EBC50B4CD02D
:1016A000DDE9042322EA080223EA0903C7E900234B
:1016B000079102F05FF90799844611F83500A0F10F
:1016C0002002C0F1200324FA03F304FA02F21A43C1
:1016D00004FA00F300931D4B0192DDE90045D3E9C4
:1016E000002314401D4022462B465FFA8CF400254F
:1016F000CDE90445049CA0F12005AC400394049C72
:10170000C0F1200124FA01F1039C0C4304990394D5
:1017100081400291DDE90245AB4208BFA2420CD1F3
:101720009BF801104B1E59425941A1EB0C02DBF80A
:1017300004305142514103B1984701368BE700BF55
:10174000900D0020610D0020980D0020880D0020D4
:101750002DE9F84F0646244800F016FE002841D136
:101760000123A6F12001C6F1200203FA01FB23FAAE
:1017700002F203FA06FA1D4BD3E900014BEA020B11
:1017800000EA0A0801EA0B0958EA09021F4623D1B8
:10179000304602F0EFF8164BB8B1D3E9000140EA49
:1017A0000A0441EA0B05C3E90045D7E900234AEAE8
:1017B00002044BEA0305C7E900450E4B0A481968C5
:1017C0000022BDE8F84F00F09DBDD3E9000120EAFA
:1017D0000A0421EA0B05E6E720EA0A0421EA0B05E0
:1017E000C3E90045BDE8F88F680D0020900D00208A
:1017F000880D0020640D0020042A2DE9F3410546E0
:101800000C4616463AD901F0E9FED8B11C4B1D49E9
:101810001D601D4BDFF884801C701C4B00221E6075
:101820000023C1E900231A49C1E90023013CE4B2C5
:1018300000260327FF2C0CD1164A1748002100F080
:101840004FFD03E001F094FE0028DFD002B0BDE8B8
:10185000F08123B205EBC30201A992788DF805202F
:1018600015F833008DF8066042468DF8047001F0DB
:10187000B1FF013CE4B20028DCD0E7E70720E5E750
:10188000980D0020880D0020610D0020640D0020BF
:10189000900D00204D1600000CA003005117000011
:1018A00070B5084D084E00242B789C4201D30020CF
:1018B00070BD3368012113F8340002F011F80134CF
:1018C000F2E700BF610D0020980D00201FB5002138
:1018D000039001AA44F20100CDE9011106F0DAF902
:1018E00005B05DF804FB2DE9F8430468054694F85B
:1018F000200002F04DF904F11807FF264FF0FF39E0
:101900004FF00008207AFF2802D002F041F9267239
:10191000607AFF2802D002F03BF966722068431C0F
:1019200003D001F0DBFEC4F8009084F80B800C3487
:10193000BC42E7D16868BDE8F84302F03FBC000054
:101940002DE9F041134DDFF850800E4600240127A9
:1019500005EB41052B5D5BB12B5D013BDBB22B55EC
:101960002B5D93B958F826301B683046DB699847E1
:101970004CB167B1084B53F8263002215868BDE8D6
:10198000F04102F099BC0124E4E70027F0E7BDE84C
:10199000F08100BFD43D00209C0D002040680C4920
:1019A00002798B5CDBB2FF2B0DD0FE2B0DD00068D3
:1019B00003F5A87350F82330064850F822009842E7
:1019C00003D1FF238B54002070470120704700BFD4
:1019D000B00D0020B80D00202DE9F74F03689046A8
:1019E00093F82120022A04460F4640F09B800C25E4
:1019F0004D435A195268904509D1DB691BB9002043
:101A000003B0BDE8F08F426810799847F7E7FFF719
:101A1000C5FF8346002840F087806368DFF8149193
:101A20001B79FE2209F80320266896F8200002F0B0
:101A300001F9CA46B8F1000F1FD13544687A02F0A7
:101A4000F9F8287A02F0E0F863681B79FF2209F8B8
:101A500003200C2303FB0766C6F804802368DB69B8
:101A6000002BCCD063681A79304B03EB4203022180
:101A7000D955606802F00CFCC1E7B169884507D30D
:101A800035441FFA81F8287A02F0D4F8687AD9E749
:101A900007EB47094FEA890906EB090360685A68B2
:101AA00091423AD0002A38D0904536D25B46032185
:101AB00002F0BCFB636896F820B01B6856F809007A
:101AC000354403F5A6730193AB7A1BB301F05CFEBA
:101AD00002460199584602F077F896F8200002F085
:101AE00093F863681B790AF8037063681A79104BDE
:101AF00043F822800C2505FB076500234246394642
:101B0000606802F093FB287A02F07EF8687A02F0AF
:101B10007BF89EE701F02AFEDAE70379FF220AF854
:101B20000320E7E708206BE7112069E7D43D002098
:101B3000B80D0020B00D002003681B8B5A436423AE
:101B4000B2FBF3F292B2FFF747BF00002DE9F04F6E
:101B500089B0044604928946002900F03C81066859
:101B600096F82130002B40F0388101F0E5FA08B1F9
:101B7000852821D101F032FD00B3994B1B6803F099
:101B8000F003302B20D10023964A00211370FF234D
:101B90004FF0FF3286F82030F17233727372326088
:101BA000F17532757375F26006F1200001F0C4FF23
:101BB00060B12046FFF797FE04271AE001F0D8FC39
:101BC0000028DAD0032714E00123DDE707464FF0B1
:101BD0000C0A59F827B0FBB2BBF1FF3F039300F0AA
:101BE0008980256895F8211049B108272046FFF71C
:101BF0007AFE384609B0BDE8F08F0127E9E709EB26
:101C000007020AFB07F8137A029305EB080258460D
:101C10005160937203228DF818202268424406A96D
:101C2000927AB2FA82F252098DF8192001228DF8C7
:101C30001A20059201F0DCFCD0B9029B45F808B0EF
:101C4000059A002B00F0AF80BBF11F0F86BF0BF091
:101C50001F0B65494FF0A04102FA0BF2C1F80C25A9
:101C60000AFB07FB0BF10800284401F065FF08B1EF
:101C70000427BBE70BF10900284401F05DFF0028B1
:101C8000F6D105EB0B030593187A01F0D3FF059B02
:101C9000587A01F0CFFF029B55F80800002B00F0A6
:101CA0008F8001F071FD834655F8080001F05EFD5C
:101CB00063680AFB07551B6807F1500103EB8101BC
:101CC00080465A46287A01F07FFF6368687A19686F
:101CD000424601F5A47101F077FF0123EB726368BE
:101CE000424A1B79039902EB430320460022DA554E
:101CF000FFF772FE002F80D0D9F810200023B2F534
:101D0000805F01D3092B63D1364A127812B1002BC0
:101D100008BF01238DF8183000238DF819308DF895
:101D20001A306068324A07238DF81B300379079315
:101D300006A902F0BBF9074600287FF457AF636895
:101D4000D9F810201B68D3F81055EDB2100FC5F16B
:101D50002001120100FA01F1A5F1200322FA05F594
:101D600020FA03F30D431D43B56160684FF001088D
:101D700002F058FA04232A4602216068CDF8008058
:101D800002F06FFA0221606802F096FA049BF36198
:101D90006368184A1B7986F8218042F82340164A66
:101DA000FF21D15425E7BBF11F0F86BF0BF01F0B9E
:101DB0000D494FF0A04102FA0BF2C1F808254FE798
:101DC00001F0D4FC834655F8080001F0DDFC6FE714
:101DD0005208013393E70B270BE7082709E700BFF9
:101DE000E80F00F0CC0D002000030050D43D00208F
:101DF000411900009C0D0020B00D00202DE9F04796
:101E00000768DFF86890002604463D46B0464FF06C
:101E10000C0A63681B7909EB430303F80680EB7A2D
:101E200073B1236828680AFB0633997AB1FA81F105
:101E3000490901F0B7FC286801F086FCC5F8048068
:101E40000C357EB16368084A1B79FF21D154606864
:101E500002F0E8F9606802F097F9022387F8213070
:101E6000BDE8F0870126D4E7B00D0020D43D002066
:101E7000094A537891780133DBB2994208BF0023B5
:101E8000117899421FBF03705078182303FB00207C
:101E900014BF043000207047D00D002037B5044631
:101EA00000200D4600F092FA0DF10700FFF7E0FF69
:101EB00090B10570094B9DF8072044605A700024CA
:101EC000002000F085FA24B9054B4FF48012C3F8C6
:101ED0000021204603B030BD0424F1E7D00D0020DE
:101EE00000E100E0024B4FF43C6043F0010318476F
:101EF00010A0030038B50C4B0C4C4FF40032C3F863
:101F0000802001254FF48033C4F84833C4F80833E7
:101F10006560FFF7E7FF064BA56000241C60FFF734
:101F2000E1FF044B1C7038BD00E100E000100140EF
:101F3000EC0E0020DD0E0020F8B51F491F4B0025D8
:101F4000C1F84051C1F84451C1F84851C1F84C5151
:101F5000C1F80051C1F804511B684BB3D1F80445D6
:101F600017490968641A24F07F442F461A68A24270
:101F700009D8A41A15441A7CDE691AB11F74D3E972
:101F800005209047AEB90F4B0F4A197813788B4252
:101F900005D10133DBB2022B08BF00231370127886
:101FA0000A4B43F822500A4B4FF48012C3F8002129
:101FB000F8BD3346DAE700BF00100140F00E002004
:101FC000EC0E0020E80E0020E90E0020E00E0020BC
:101FD00000E100E02DE9F74F9E4A9F491378097808
:101FE0009E4D99423CD00133DBB2022B08BF002347
:101FF00013709B4912789B4B0F6853F822003B18D3
:1020000023F07F4300220B602B681646144694464B
:1020100013B942B12B6006E0196881420ED902B1B2
:102020002B60091A19604FF001082B68DFF83CA2F9
:1020300000930027BEB9DFF83CB260E0401A0C44C0
:10204000D968C3F800C0D3F81CE031B13A1922F0C6
:102050007F42C3E90121DE611E4601227346D7E7B4
:102060000026B046E1E73446F6697D4A63681268A7
:10207000DFF804C2A068991A21F07F41614500F29F
:10208000A58001442160012222742A680023C4E94A
:102090000133E361002A40F0A2802C60CAE75A1C99
:1020A0009BF80210D2B291428BF8002004BF0022AC
:1020B0008BF80020182202FB03B32A6819799C6868
:1020C000022974D003297ED0012918D1217CB1B90D
:1020D000DA6862601A69A2605A69E2609B69A3616A
:1020E000614B1B78002BC0D06160BEE79C4200F0C2
:1020F00093809946DB69002BF8D1002323749BF869
:1021000000309BF801209A42C9D12B682FB9009A60
:10211000934202D1B8F1000F43D0002B79D0D3F80D
:1021200000A0524D4E4BD5F804751C68DFF84C8169
:102130003E1B98F8003026F07F4603369BB94FF4DB
:102140008033C5F84433C5F80433494B4FF40032AB
:102150004FF00109C3F880211A60C5F80090FFF71D
:10216000C1FE88F80090B2452CBF5444A41924F055
:102170007F44C5F84045D5F80435DB1B23F07F4389
:10218000E41B033324F07F44A3420AD9D5F8043575
:10219000C5F84035FFF7A6FE354B4FF40032C3F8C3
:1021A0000021314B00221A7003B0BDE8F08F1346B6
:1021B0009146A0E71174D2690123002AFAD1002BBD
:1021C0009DD02A609BE700231946F6E7D31A23F037
:1021D0007F43834234BFC31A0023236053E721683F
:1021E0001368994213D8591A1160E26155E7091A28
:1021F000D8691A4638B1034618688842F7D3401A9E
:102200001860184613462160E061DC6112E713464E
:10221000F2E7FFF76FFEC4E74C450DD1D3692B60A1
:1022200053B90F4801920121CAF8081003600E4B00
:102230001970FFF757FE019AE1692368C9F81C106D
:1022400011B1086803440B602B689A4218BF01273C
:1022500053E700BFE80E0020E90E0020F00E00203A
:10226000EC0E0020E00E0020DC0E002000100140EB
:1022700000E100E0D00D0020FEFF7F00DD0E002019
:1022800008B5FFF737FE104B00200B2218809A701C
:102290000E4B18600E4B18700E4B18700E4B4FF40F
:1022A0008012C021C3F8802183F814131A6002F150
:1022B0008042A2F56F22C2F8080583F81113074B7C
:1022C000D2F804251A6008BDD00D0020F00E0020C1
:1022D000E80E0020E90E002000E100E0EC0E0020F6
:1022E000074B9B784BB132B128B10368187C20B9F9
:1022F00059745A617047072070470820704700BF23
:10230000D00D00202DE9F3411C4EB37804460D4654
:1023100017468BB380B304292CD9436963B3437C3C
:102320000020012B0CBF88464FF0000800F04EF84B
:102330000DF10700FFF79CFDD0B101230370104B96
:102340004460D3F80435C0E90487C0E902359DF83C
:10235000073073700024002000F03AF824B9094BCC
:102360004FF48012C3F80021204602B0BDE8F0818E
:102370000424F0E70724F7E70824F5E7D00D002050
:102380000010014000E100E0064A92783AB130B115
:10239000426922B1002202740221FFF77FBD0820AA
:1023A000704700BFD00D002072B6024A1368013397
:1023B00013607047F40E0020034A1368013B13605A
:1023C00003B962B6704700BFF40E0020FFF7ECBF00
:1023D000FFF7F2BF50E8002F0B4640E8003C9CF0AE
:1023E000000FF7D11046704750E8002F42EA010372
:1023F00040E8003C9CF0000FF6D11046704750E8D2
:10240000003F43EA010240E8002C9CF0000FF6D1A7
:102410001046704750E8002F02EA010340E8003CF4
:102420009CF0000FF6D11046704750E8003F03EAD9
:10243000010240E8002C9CF0000FF6D110467047D6
:1024400050E8003F03EB010240E8002C9CF0000F35
:10245000F6D11046704750E8003FA3EB010240E878
:10246000002C9CF0000FF6D1104670470121FFF7B9
:10247000BBBF0121FFF7C3BF0021FFF7CBBF002186
:10248000FFF7D3BF10B590B1D0E9012301689B1AC3
:10249000DBB20A60013BDBB2FF2B026802D10020F5
:1024A000107110BD11684C1C14600B70F2E70E2007
:1024B000F7E738B504460020FFF788FF2268616817
:1024C00013688B4215D9591E116013F8015CA28A5A
:1024D000E36802FB05352268A36811685B1A11796D
:1024E000DBB2994200D213710020FFF771FF28463A
:1024F00038BD0025F8E738B5054600200C46FFF743
:1025000065FF2A681368591C1160E968641AA98A72
:10251000B4FBF1F41C700020BDE83840FFF758BF51
:1025200010B5826804462AB143690168006998477A
:102530000023A36010BD0EB403B5039929B102AA0C
:1025400004AB42F8043D00F073F802B05DF804EB10
:1025500003B070470A2938B504460D4602D10D2153
:10256000FFF7F8FFA3682268591CA160D554D4E98D
:1025700001329A4204D32046BDE83840FFF7D0BF6D
:1025800038BD00002DE9F84F9946DDE90A431746AA
:10259000824688460A460126BA420FD24E4538BFC7
:1025A0004E4613F0010B01D164B900240125B9F1A5
:1025B000010F1AD909F1FF397D43F8E7B2FBF7F2B1
:1025C0000136E9E79B070ED5B9F1000F0CBF3025A6
:1025D0002025A642EAD2013C29465046FFF7BAFF21
:1025E000002CF6D1E1E72025F3E7B8FBF5F39F4295
:1025F000E2D9DFF83890B8FBF5F3504619F803102C
:1026000005FB1388FFF7A6FFB5FBF7F5002DF2D108
:10261000BBF1000F02D00CB1A64201D3BDE8F88F88
:1026200020215046013CFFF795FFF4E716A0030078
:102630002DE9F74F054690460E46002900F03A81F5
:1026400016F8011B002958D0252940F0D180002719
:1026500002E047F001071646324612F8013B2D2BE7
:10266000F7D0302B04D02B2B05D147F00407F2E72D
:1026700047F00207EFE700242A2B06F101021BD1E5
:10268000D8F80030191DC8F800101B6816461C4405
:1026900033782E2B1CD101364FF0000A314611F849
:1026A000012BA2F13000092814D80A2303FB0A23C6
:1026B000A3F1300A0E46F1E712F8013CA3F1300114
:1026C0000929E5D80A2101FB0434303C1646D3E73A
:1026D0004FF0000A324612F8011B01F0FB00682897
:1026E0001646F8D0692916D054D8582970D00ED87B
:1026F00025297DD03378002BA2D12B7B002B00F035
:10270000D980284603B0BDE8F04FFFF709BF632921
:1027100068D06429EED1D8F80020111DC8F8001047
:10272000D2F8009089EAE972A2EBE9724FF0010B4E
:10273000092A61DCD34538BFD3462CB1B9F1000F6B
:1027400001DB790700D5013CBA0702D5BAF1000FC9
:1027500004D0FB0702D4002C54D10024B9F1000F9F
:1027600058DAC9F100092D212846FFF7F3FE07F0DA
:102770000302022A05D1BAF1000F02D1002C4DD17B
:102780000024CDE9004753460A2249462846FFF770
:10279000F9FEAFE7732954D016D87029AAD1D8F81A
:1027A00000301A1DC8F80020302128461C68FFF7A9
:1027B000D1FE78212846FFF7CDFE00220823CDE97F
:1027C000003221461022E1E775292FD0782991D1D6
:1027D000D8F800100A1DC8F80020CDE9004753467C
:1027E00010222CE0D8F800301A1DC8F80020197803
:1027F0002846FFF7AFFE7DE70A230BF1010B92FBA2
:10280000F3F295E7A345A9D220212846013CFFF722
:10281000A1FEA0E77807AAD52B21A5E7A345B0D252
:1028200030212846013CFFF795FEA7E7D8F80010B5
:10283000CDE900470A1DC8F8002053460A2209685E
:10284000A4E7D8F800301A1DC8F80020F907D3F81B
:10285000009012D54F46A7EB090B17F8011B41B9A1
:10286000A345BFF447AF20212846013CFFF772FE85
:10287000F6E72846FFF76EFEEDE7B9F1000F17D037
:10288000484636F04DF80746BC4200D954B909F124
:10289000FF3919F8011F00293FF42CAF2846FFF734
:1028A00059FEF6E720212846013CFFF753FEEBE7EF
:1028B0004F46E9E703B0BDE8F08F000007B50B46CF
:1028C000A0B9154B5B886BB1144B1548154AC01A5B
:1028D0000E23C0080093144B0004144940F001007B
:1028E000FEF720F90E2003B05DF804FB6BB90A4B2C
:1028F0005B88002BF6D0094B09480D4AC01AC00866
:102900000E2300930004084BE7E703601B681146A1
:1029100003B05DF804EB1847A00500202CC20300AB
:102920008CC20300D3A0030026A00300D8A003009C
:102930004FA103002DE9F3419646B0B9504B5B8897
:10294000002B00F095804F4B4F48504AC01AC008EA
:102950000E244F4B009400044E4940F00100FEF756
:10296000E1F8204602B0BDE8F0816AB9444B5B88CB
:10297000002B7DD0434B4448474AC01AC0080E2460
:1029800000040094424BE7E7D0F800C0BCF1000F10
:102990000DD13B4B5B88002B6CD03A4B3A483F4AF9
:1029A000C01AC008082400040094394BD4E76BB95E
:1029B000334B5B88002B5FD0324B3348384AC01A08
:1029C000C008092400040094314BC5E74768D7F8D4
:1029D0000480B3FBF8F708FB17376FB1284B5B880F
:1029E000002B49D0274B28482E4AC01AC00809247A
:1029F00000040094264BAFE78F070DD0204B5B8877
:102A0000002B3BD01F4B2048274AC01AC008102477
:102A1000000400941E4B9FE712F0030F0CD0184BDC
:102A20005B885BB3174B1848204AC01AC0081024B3
:102A300000040094164B8FE7C768B9420BD34C1EB5
:102A400005691C44AC4206D8DCF80C40A44602B030
:102A5000BDE8F04160470A4B5B887BB1094B0A48EF
:102A6000134AC01AC008102400040094084B73E7EE
:102A70000E2476E7082474E7092472E7102470E72F
:102A8000A00500202CC203008CC20300D3A00300C9
:102A900038A00300D8A0030055A1030049A10300FA
:102AA00008A103005BA1030085A103009DA1030011
:102AB000C0A10300F7B5A0B9374B5B88002B63D0EA
:102AC000364B3748374AC01AC0080E24364B00949C
:102AD0000004364940F00100FEF724F8204603B018
:102AE000F0BDD0F800C0BCF1000F0DD12A4B5B88BF
:102AF000002B4BD0294B2A482D4AC01AC008082465
:102B000000040094284BE4E76AB9234B5B88002B50
:102B10003ED0224B2248274AC01AC008092400048C
:102B20000094214BD5E74768D7F800E00EF1FF3756
:102B30000F420CD0184B5B8863B3184B18481E4AE1
:102B4000C01AC008102400040094174BC1E7C768DE
:102B5000B9420CD34C1E05690EFB0244AC4206D8A8
:102B6000DCF81040A44603B0BDE8F04060470A4BD3
:102B70005B887BB1094B0A48104AC01AC008102470
:102B800000040094084BA4E70E24A7E70824A5E757
:102B90000924A3E71024A1E7A00500202CC203000C
:102BA0008CC20300D3A003004BA00300D8A00300F5
:102BB00049A1030008A103005EA0030084A0030054
:102BC000014B436000207047F4A1030008467047A2
:102BD00000207047024B1868003018BF0120704772
:102BE000F80E002008B50248FFF749FC002008BD98
:102BF000F80E002008B510461A4635F046FB0020B6
:102C000008BD00002DE9F041804686B013480E460D
:102C100015461F46FFF72AFC044630B1112018E084
:102C200006EB043000F0A2FB0134A542F8D10B48BA
:102C3000FFF725FCD8F8083000246BB10222684663
:102C40008DF80020CDE90146CDE903450597984769
:102C5000204606B0BDE8F0811846FAE7F80E0020DD
:102C60002DE9F041804686B012480F4616461D46B3
:102C7000FFF7FCFB0446D8B9AA083146384600F0F5
:102C80008DFB0C48FFF7FBFBD8F8083073B101222D
:102C90008DF800200C9A05926846CDE90147CDE9F0
:102CA00003659847204606B0BDE8F0811846FAE76C
:102CB0001120F8E7F80E00202DE9F047B0F8069053
:102CC0004479D2F800A09DF8208009FB04F4043C6C
:102CD00006460AEB0300A0420F4688BFA4EB030A96
:102CE000191DC2F800A0B1FBF9F509FB15114DB98A
:102CF000A9EB0104544528BF5446BAF1000F04D192
:102D0000BDE8F0873668013DF1E704317B197018A2
:102D10002246B8F1000F0ED001461846AAEB040A6D
:102D200035F0B3FAD145254436684C464FF00001E2
:102D300028BF5446E1E71946F0E7FFF7A3BBF8B513
:102D400046790146721E0546002393422D6803D33F
:102D50000024A64202D8F8BD0133F6E70F682846E2
:102D6000FFF7C9FB01343946F3E72DE9F843CD1CE1
:102D7000868A0746FFF79DFB043E35440446B5FBB3
:102D8000F6F5F0B14FF48073EDB28380C680013D5B
:102D9000076081464FF00008A84512D23846FFF779
:102DA00088FB064648B163790133637108F1010875
:102DB000C9F8000007608146EEE72046FFF7BFFF35
:102DC00034462046BDE8F88301210430FFF738BBC4
:102DD00010B5012104460430FFF73DFB10F0FF0F52
:102DE00004D12046BDE81040FFF7A9BF10BD1FB5B4
:102DF00004AC44F8042D002200922246FFF75CFF49
:102E000004B010BD1FB504AC44F8042D012200929B
:102E10002246FFF751FF04B010BD000008B50020A6
:102E2000FFF7D4FAF1EE103A23F09F03E1EE103AE7
:102E3000BFF35F8F054B4022C3F884210020FFF7CA
:102E4000C7FA20BF40BF20BF08BD00BF00E100E0BF
:102E5000026813685268934291BFD01A80680130AB
:102E6000801888BFC01A70472DE9F84303681D68B1
:102E70005C68A54284BF836801331746884694BFC7
:102E8000641B5C1BC2684168BC42064605FB02111C
:102E90000CD37A43404635F0F8F9B3683D449D427F
:102EA00088BF002533681D60BDE8F88304FB02F984
:102EB0004A46404635F0E9F9F26871683C1B6243C6
:102EC00008EB090035F0E1F933681C60ECE70368B2
:102ED00081681A685B688B4234BF01330023D31AC0
:102EE000584258417047F8B5044600200D46FFF798
:102EF0006DFA2046FFF7EBFF10B1237C002B3DD18C
:102F00002168A6684B684A68B24234BF0132002289
:102F10004A6038B12168A0680A68824234BF013231
:102F200000220A60E2686068511E072920D8DFE8A5
:102F300001F004101F141F1F1F182A78C2542046C6
:102F4000FFF786FF23689A68824200D298600024C7
:102F500015E02A8820F81320F1E72A6840F823209A
:102F6000EDE7D5E9006700EBC300C0E90067E6E7DD
:102F7000294602FB030035F088F9E0E7042400202D
:102F8000FFF726FA2046F8BD70B505460E461446F2
:102F900082B10020FFF71AFA2846FFF759FFA04236
:102FA0000AD3224631462846FFF75EFF0024002060
:102FB000FFF70EFA204670BD0524F8E710B5044669
:102FC0000020FFF703FA2046FFF742FF04460020E7
:102FD000FFF7FEF9204610BD8268002393608268E7
:102FE0001361826853618268D3608268536082682B
:102FF0001360704738B5084C04F1080305460028F3
:1030000018BF1C4623682BB11A6822605B682846EB
:103010009847F7E738BD00BF040F002020B9054BE3
:1030200001225A70FFF7E6BF012802D1014A9070D1
:10303000F8E77047FC0E002038B5094C23786BB9CF
:1030400008486360A3602361E36000F0C7F90546A8
:1030500000F0D2F901232370284638BD8525FBE70F
:10306000FC0E00201D30000038B5134CA378054637
:1030700003F0FF0073B115B16B6801209847002081
:10308000FFF7A4F9E3680133E3600020BDE83840AE
:10309000FFF79EB9FFF79AF925B1226913463BB9AC
:1030A0002A602561E368002BECD100F0B7F9E9E76D
:1030B0009D42F7D01B68F2E7FC0E002038B5134C98
:1030C0006378054603F0FF0073B115B16B6800200B
:1030D00098470020FFF77AF96368013363600020A6
:1030E000BDE83840FFF774B9FFF770F925B1A26861
:1030F00013463BB92A60A5606368002BECD100F051
:103100009FF9E9E79D42F7D01B68F2E7FC0E00202B
:1031100038B5084C0020FFF759F96368013B63603C
:10312000656815B900F09EF965700020BDE838406B
:10313000FFF74EB9FC0E0020034B187810B901229E
:103140001A70704785207047100F002007B502A93C
:1031500001F8010D0548FFF7C6FE0448FFF7B7FE6A
:1031600008B100F05DFF03B05DF804FB14C203007A
:1031700038B50C4D2B7893B90B4B0C49002808BF80
:1031800018460388284620F8013F00F009FF04464E
:1031900018B900F033FF01232B70204638BD852479
:1031A000FBE700BF600F00202FA203004D3100009D
:1031B00010B504460248FFF701FF207010BD00BFA4
:1031C00014C2030010B50A4601460448FFF7DCFEAE
:1031D000044600F013FF204610BD00BF14C20300D8
:1031E0001FB503788DF800304368019383688DF82C
:1031F0000830C3680393054A054B684653F82130ED
:1032000052F82110984705B05DF804FB640F0020C8
:103210006C0F00201FB503788DF8003043680193D0
:1032200083688DF80830C3680393054A054B6846E8
:1032300053F8213052F82110984705B05DF804FB8F
:10324000640F00206C0F0020F0B5194B0778DFF8F1
:1032500070E043F82720174B94460A6943F827206B
:103260004B7F0EF807300C4606460FCC89B06D46F2
:103270000FC594E80F0085E80F00337804971EF817
:10328000033053B1BCF1000F0B4A694608BF00225E
:10329000301D01F043FB09B0F0BDBCF1000F074A3F
:1032A000694608BF002206F10C0001F00FF9F2E7B1
:1032B0006C0F0020640F0020E13100001532000087
:1032C000DE3D0020074A084B1360084A03F1100155
:1032D0001160074A03F120011160064A0120C2F87B
:1032E00004357047AC0F00207C0F0020780F0020C1
:1032F000740F002000E0004010B5114B0446186820
:10330000884202D0102234F0C0FF0E4B0022C3F8D6
:10331000002101221A604FF08070D3F8002162B1C1
:103320000022C3F80021084B1968A14203D01022E3
:10333000204634F0AAFF012001E00138EDD110BD94
:10334000780F002000E00040740F0020024B01467F
:103350001022186834F099BFAC0F0020024AD2F84E
:103360000034002BFBD0704700E001400A4908B54B
:103370000223C1F80435BFF36F8FBFF34F8FC1F83D
:103380000805FFF7EBFF0023C1F80435BFF36F8F8B
:10339000BFF34F8F08BD00BF00E001400E4B10B5DA
:1033A0000124C3F80445BFF36F8FBFF34F8F01EBC8
:1033B0008204401AA14208D1074B0022C3F8042519
:1033C000BFF36F8FBFF34F8F10BD431851F8042B1D
:1033D0001A60FFF7C3FFEDE700E00140054A1379EB
:1033E0002BB9012110601171537118467047852067
:1033F000704700BFB00F0020074B1A68D2075FBFAD
:10340000C02283F8002301221A604FF0804301227A
:10341000C3F81825704700BF00E100E0074B002209
:103420001A6082B01B680193019B4FF08043022217
:10343000C3F8042301229A6002B0704704010040DF
:10344000074B00221A6082B01B680193019B4FF06A
:1034500080430122C3F804231A6002B0704700BF02
:1034600000010040074B01221A604FF08042D2F861
:103470000C3403F00113B3F1011FF8D0024B00220A
:103480005A71704704000040B00F002007B5154B7B
:103490001A687AB100221A601B680093009B4FF0F3
:1034A00080430122C3F808230F4B587910B95A7191
:1034B0001B6898470D4B1A6882B100221A601B687E
:1034C0000193019B4FF080430222C3F80823064B6F
:1034D0001B68012003B05DF804EB184703B05DF8EA
:1034E00004FB00BF00010040B00F002004010040B9
:1034F00000F1804000F5C040002382B00360036803
:103500000193019B02B0704703681F2B83BF03F038
:103510001F03036001484FF0A040704700030050B4
:1035200007B502AB43F8040D1846FFF7EDFF019B0A
:1035300000EB8300D0F8003723F44033C0F80037A5
:10354000D0F8003743EA0141C0F8001703B05DF836
:1035500004FB0000054B4FF0FF32072843F8202002
:1035600084BF1B1883F85820704700BFB80F002095
:1035700010B5164C94F86A3033BBFF21E2180133C2
:10358000302B82F83010F9D10021C8B2FFF7E2FFEA
:1035900001310C29F9D1062200210D4834F099FEA1
:1035A0000C4BC02283F8062340221A604FF4BE70F1
:1035B000FFF79EFF084B4FF00042C3F8042301239E
:1035C00084F86A30002010BD0820FCE7B80F002006
:1035D0001C10002000E100E000600040034B93F865
:1035E0006A00003018BF0120704700BFB80F0020EC
:1035F00030B5384C2318024693F93000013085B0BD
:1036000065D18878002854D0002354F82350013520
:103610004FEA830047D1A51800F1804085F830308B
:10362000002500F5C04044F82350D0F810550B7821
:103630004C7825F499151B04240525F4F85504F459
:10364000801403F44033C0F8105523431402D0F81B
:10365000105504F47C5423432B43C0F810354978AB
:10366000012904A829D140F80C2DFFF74DFF019B3B
:103670009940C0F8081504A840F8042DFFF744FF4E
:10368000039B03F5E073032140F82310124822FA4C
:1036900001F1012302F0070203FA02F2435C1A432C
:1036A0004254002003E00133082BAED1042005B0C2
:1036B00030BDFE2083F83000D1E740F8082DFFF739
:1036C00023FF029901238B40C0F80C35D3E7082073
:1036D000EDE700BFB80F00201C10002037B51749D8
:1036E0000D18044695F83000072809D8FFF732FF77
:1036F00095F93030124A03F5A273002042F82300F6
:103700000B19FF220F4D83F83020E10804F0070366
:1037100001229A406B5C13420ED002A840F8044D7F
:10372000FFF7F2FE019B03F5E073022440F823400B
:103730006B5C23EA02026A5403B030BDB80F00206C
:10374000006000401C100020074B184490F93030F6
:103750009B0003F1804303F5C043D3F8102542F0EA
:103760000302C3F810257047B80F0020054B18441A
:1037700090F930000C308000C0B200F1804000F5BC
:10378000C0407047B80F0020054B184490F9300036
:1037900018308000C0B200F1804000F5C040704792
:1037A000B80F00200A4B1844003190F930304FEA2E
:1037B000830303F1804303F5C04318BF0121D3F80D
:1037C000102522F4801242EA0152C3F810257047F6
:1037D000B80F0020F7B5404F3B18044693F930303E
:1037E000002B944675DA8B78C3F34003002B15BF8A
:1037F0000025082508200C20854202D1042003B0B2
:10380000F0BD57F8252001324FEA850649D1381915
:1038100047F825C080F8305013B97B1983F8584019
:103820008B785A071BD4D8073DD502A840F8084D1D
:10383000FFF76AFE009B00EB8300D0F8003723F00F
:103840000203C0F800372548E20804F0070C012302
:1038500003FA0CF310F802C043EA0C03835488788F
:1038600091F800C010F002002AD006F1804303F561
:10387000C0432402D3F8102522F44F3222F44072C0
:10388000C3F810254FEA0C4CD3F8102504F47C54EF
:103890000CF4403C44EA0C041443C3F810450020E7
:1038A000ADE70135A8E702A84A7840F8044DFFF7D4
:1038B0002BFE019B03F5E073920040F82320C2E742
:1038C000083D3D4495F8604044EA8C1C85F860C092
:1038D00095E7082093E700BFB80F00201C100020D8
:1038E00073B5224C2518064695F93020072A1ADDB3
:1038F000224492F858309B09032B10D102A840F8BB
:10390000046DFFF701FE019AD0F81035D340DB07B4
:1039100007D402213046FFF703FE02B070BD012B31
:10392000F7D00321F6E7D3B2072BF6D8930003F1C3
:10393000804303F5C043D3F8100540F00100C3F8FD
:10394000100502F14000800080B2FFF7D1FD002990
:10395000E3D095F9303054F82330002BDDD001232B
:1039600003FA02F2024BC3F80423D6E7B80F002093
:103970000060004007B502AB43F8040D1846FFF79E
:10398000C3FD019BD0F81005D84000F0010003B042
:103990005DF804FB2DE9F04F002489B0CDE9024425
:1039A0005F4A604E604D01211368A2F5C040012BB3
:1039B00080B206D1D6F804330B4202D0FFF798FD4F
:1039C0000C430432AA424FEA4101EDD1574B1B6828
:1039D000012B0ED14FF4BE70FFF78AFD4FF0A043CC
:1039E00044F00044D3F810350293514BD3F810350E
:1039F000039314F0FF0F1AD04E4F002501263442D6
:103A000010D0AB0003F1804303F5C043D3F8100599
:103A1000D3F8101557F82530C0F30520C1F3014144
:103A200003B198470135082D4FEA4606E7D1002C2F
:103A300072DA04AE0023049373604FF0FF33CDE9D4
:103A400006333C4F4FF0010800252C467B1993F9B3
:103A50006020531C47D0D2B222F0C00908A84FEA18
:103A6000D90300EB030B02F007011BF8080C08FA5E
:103A700001F1084237D007EB0900920990F93000B4
:103A800057F820A0BAF1000F05D1032A2BD1F05C22
:103A90000843F05401E0032AF9D001A8CDF80490BE
:103AA000FFF732FD019B03F5E07350F823301BF85C
:103AB000180C0842C3F3014305D0022B13D1032A8B
:103AC0000BD1114604E0032B0DD1032A05D10221AD
:103AD0004846FFF725FD0134E4B2BAF1000F02D0E9
:103AE00011464846D0470135042DAFD1A4B14FF05F
:103AF000A0430299D3F8102503F540739142D3F8FF
:103B0000103502D10399994206D002920393049A88
:103B1000059B0692079397E709B0BDE8F08F00BFB9
:103B20000061004000600040206100407C61004076
:103B300000030050B80F00202DE9F84F124D134F2D
:103B400080464FF0000A04264FF001095FFA8AFB15
:103B5000002009FA0BF4FEF739FC2C4208D03B6830
:103B600014EA030201BF23433B6088F800B0164605
:103B70000020FEF72DFC1EB1A5430AF1010AE5D194
:103B80003046BDE8F88F00BFFFFF0F002410002073
:103B900010B501248440C4F313037BB1084B00200B
:103BA000C3F80845FEF712FC064A1368002023EA12
:103BB00004041460FEF70CFC002010BD0720FCE795
:103BC00000F001402410002010B5A1B19AB10123EA
:103BD0008340C3F3130484B10A4C246823420ED0FB
:103BE000C00000F1804000F5F830C0F81015C0F8B2
:103BF0001425002010BD0E20FCE70720FAE708205E
:103C0000F8E700BF24100020012303FA00F0C0F3FE
:103C100013031BB1054B1B68184204D0044BC3F8B7
:103C20000405002070470820704700BF24100020C2
:103C300000F00140012303FA00F0C0F313031BB1AD
:103C4000054B1B68184204D0044BC3F8080500203C
:103C500070470820704700BF2410002000F001408A
:103C6000014B1B68184700BF2810002038B50A4BCD
:103C700098420D460CD10020FEF7A8FB074B1C799B
:103C800014B901221D601A710020FEF7A1FB0CB9C6
:103C9000002038BD1120FCE7002000402810002043
:103CA000034B984201BF034B00221A601A71704700
:103CB00000200040281000200023435082B04358C9
:103CC0000193019B02B0704738B51D4602230B716A
:103CD0000B684A7104467BB112F0040F14BF9221A5
:103CE0008221100748BF41F02001D306236848BF56
:103CF00021F08001C3F8001320684FF48271FFF7B0
:103D0000DBFF206812F0800F05BF012343514019EB
:103D1000002038BD2DE9F04F90F80480584D4FEA4F
:103D2000C806AB190F461B7985B0044603F0FF01A6
:103D3000002B40F0A380DFF854C145F838204FF045
:103D4000FF390A464FF0030A4FF0010EB95CFF2914
:103D500000F0918021F0800308064DF822307DD5D7
:103D60001F2B87BF01F01F00E34618464FF0A04B02
:103D70000EFA00F0CBF808051F2B8ABF01F01F03D5
:103D80004FF0A041614603F5E07341F823A00132F2
:103D9000042ADBD12368009AC3F86025019AC3F88E
:103DA0006425029AC3F86825039AC3F86C25236832
:103DB0000122C3F800252368B9793A897879C3F8D4
:103DC0000C05C3F80415C3F8082523687A89C3F8DD
:103DD000102522680023C2F800322268C2F800339E
:103DE0004FF48E712068FFF767FF4FF488712068E9
:103DF000FFF762FF4FF48A712068FFF75DFF4FF411
:103E000082712068FFF758FF55F83830FBB1216800
:103E10003A79090B4BB2002BAEBF03F1604301F0BE
:103E20000F01184B4FEA4212D2B2AABF03F5614309
:103E30005A5483F8002323681B0B5AB2012103F064
:103E40001F0301FA03F352090F4941F822303544A8
:103E500001232B71002005B0BDE8F08F1F2B87BF19
:103E600001F01F00E34618464FF0A04B0EFA00F099
:103E7000CBF80C0580E74DF8229088E70820EAE7A8
:103E80003010002014ED00E000E100E000030050DD
:103E900070B40C461D461D490379266801EBC30129
:103EA0000368C3F82065A688C3F82465A668C3F82C
:103EB0002865E668C3F82C6503682668C3F8406582
:103EC000A688C3F84465A668C3F84865E468C3F8E3
:103ED0004C45036802F0010404EB5202C3F81425B8
:103EE000EB0711D415F0020303D0002C14BF0823F4
:103EF00004230268002CC2F80032EAB214BF0C237B
:103F0000082370BCFFF7E0BE1023F2E7301000205A
:103F100010B52148D0F810315BB14FF48871FFF72C
:103F2000CBFE1E4B5A79510703D51B680BB10120FC
:103F300098471948D0F814315BB14FF48A71FFF7F4
:103F4000BBFE164B5A79120703D51B680BB1022032
:103F500098471148D0F81C315BB14FF48E71FFF7D0
:103F6000ABFE0E4B587910F0100002D11B6803B164
:103F700098470948D0F8043163B14FF48271FFF7D4
:103F80009BFE064B01221A711B681BB10320BDE882
:103F90001040184710BD00BF00C001403010002085
:103FA00010B5124C2278FAB9114B1960037813F04E
:103FB000010F104B1EBFD3F8042542F00102C3F8D5
:103FC0000425D3F8002222F00102C3F8002243782E
:103FD000094A5B01DBB282F80D334FF400531360E2
:103FE00001232370002010BD8520FCE73C10002039
:103FF0003810002000D0004000E100E0064B002215
:104000001A6082B01B680193019B044B0122C3F824
:1040100004231A6002B0704700D1004000D0004075
:10402000024A0123C2F808335360704700D00040B1
:10403000074B00221A6082B01B680193019B054B5D
:10404000D3F80805044B1B68C0B202B0184700BF84
:1040500000D1004000D00040381000202DE9F34787
:10406000002406460F46904600F5A0754FF48039AF
:10407000A24604F150002B68800080B26BB1D6F8E4
:10408000043309FA04F21A4207D0C5F800A02B68DD
:104090000193019BD7E9003198470134E3B2984579
:1040A00005F10405E5D802B0BDE8F087F7B506795B
:1040B000324D0C2474432F193B7A002B5BD12A51CB
:1040C0004A687A609C461A4647790368D4B2A74288
:1040D00002F1010246D81B0BCC78294F5AB2002AB4
:1040E000AEBF02F1604303F00F03264A4FEA4414C7
:1040F000E4B2AABF03F56143D45483F800430368D4
:104100001B0B5CB26409012203F01F0302FA03F3E4
:1041100047F8243007684B78D7F8044503F00303C9
:1041200024F003042343C7F8043507688B78D7F8D5
:10413000084503F0030324F003042343C7F80835BC
:1041400004680B78D4F8100503F00F0320F00F017A
:104150000B43C4F810350C2303FB065500202A72CC
:1041600003B0F0BDA40004F5A07443F804C01B59CB
:104170000193019BA8E70820F2E700BF4010002050
:1041800000E100E014ED00E0036801221A60037909
:10419000034A0C2101FB032302221A72704700BF5D
:1041A000401000200368044901221A6103790C20A1
:1041B00000FB03131A7270474010002038B50368E3
:1041C0001B0B5AB20121520903F01F0301FA03F33A
:1041D00020320C4941F8223003680025D3F8002230
:1041E000C3F8005203684FF0FF320446C3F80823B7
:1041F000FFF7D8FF2379044A0C2101FB03231D722A
:1042000038BD00BF00E100E0401000200379044AFF
:104210000C2101FB0323187A831E58425841704732
:104220004010002003680122DA60704773B54FF434
:1042300080348C4005688BB101F150039B0000264F
:10424000EE50EB580193019B0368C3F804430368E5
:1042500001F5A87143F8212002B070BDC5F80843EC
:10426000F5E7F0B407689DF810C0D7F8004240F2B7
:1042700001158D4024EA0504C7F800420568D5F809
:1042800000422343C5F80032F0BC6346FFF7CEBFBF
:1042900001F1500313B59B0002689BB20024D45077
:1042A000D3580193019B02684FF4803303FA01F164
:1042B000C2F8041302B010BD02684FF4803303FA51
:1042C00001F1C2F808137047042202490248FFF7BF
:1042D000C5BE00BF4010002000A0004006220249D9
:1042E0000248FFF7BBBE00BF4C10002000A00140F9
:1042F0000023435082B043580193019B02B07047A2
:104300000A4610B54FF48E71FFF7F2FF136A9168F9
:10431000C95C136A01331362C0F81C1510BD10B5D7
:104320008B690A464FF4847123B9FFF7E1FFD0F897
:10433000183510BDFFF7DCFF536AD168D0F81805B7
:10434000C854536A01335362F3E700001FB50123D9
:104350008DF80030044BCDE90110D3E90012684616
:10436000904705B05DF804FB5810002030B54D4A69
:10437000D2F8043313F4007F85B015464FD0D2F83D
:104380002431002B4BD04FF492711046FFF7B0FF51
:104390004FF40173C2F80833434B93F8291009B95D
:1043A000012151603F4902228DF80020D1F880247C
:1043B000C1F8802403929A690292DA68019200227D
:1043C000C3E906226846D3E9001290473548D0F881
:1043D0001C315BB134490A6A4B699A420A464CD295
:1043E00091F82830002B48D1FFF78AFF2D4AD2F8E8
:1043F000443193B14FF4A2711046FFF779FF2A4B75
:1044000093F8291009B1012111609A692AB100229B
:104410009A61586AD968FFF799FF05B030BDD5F8A1
:1044200004335B07D2D5D5F80831002BCED01E4C13
:104430001C482146FFF773FF636AA2699A4223462C
:10444000C4D1E26952B12369E168E3600023606A84
:10445000A261E3616362FFF779FFB7E794F829206F
:104460000AB901226A600F4A4FF40171C2F80813B9
:1044700000229A61586AD968EDE74FF48E710948B5
:10448000FFF736FF51690029B0D0002302919168EF
:104490008DF80030019153616846D2E900139847C6
:1044A000A4E700BF00200040581000201F2886BF4E
:1044B00000F01F00044B4FF0A04300F5E070022213
:1044C00043F82020704700BF000300502DE9F84357
:1044D0006C4F067991462C2202FB0672054692F833
:1044E0002A200C46002A40F0C68067490068FFF782
:1044F000BDFB8046002840F0C18023685A1C19D0BB
:104500001F2B4FF001028ABF60494FF0A04103F01A
:104510001F0302FA03F3C1F8083523681F2B86BF77
:1045200003F01F03594A4FF0A04203F5E073032143
:1045300042F8231061684B1C0BD01F2986BF01F085
:104540001F01524B4FF0A04301F5E071002243F8E8
:1045500021202B68A269C3F82425217D637D2A6868
:104560000B43C2F86C35D4E900122B68C3F814254C
:10457000C3F80C15237D012B32D1A168481C0BD048
:104580001F2986BF01F01F01404B4FF0A04301F5EA
:10459000E071002243F82120E3685A1C19D01F2B38
:1045A0004FF001028ABF39494FF0A04103F01F03C9
:1045B00002FA03F3C1F80835E3681F2B86BF03F046
:1045C0001F03324A4FF0A04203F5E073032142F883
:1045D0002310D4E902122B68C3F80825C3F810157C
:1045E0002C237343FA18C2F804902269FA50B9F1E7
:1045F000000F2DD04FF48E712868227FFFF778FED0
:104600004FF4A2712868FFF773FE2B682049C3F8A6
:1046100004132968090B4BB2002BAEBF03F16043B2
:1046200001F00F011B4B4FEA4212D2B2AABF03F5B1
:1046300061435A5483F800232B681B0B5AB20121A3
:1046400003F01F0301FA03F35209134941F8223022
:104650002B680422C3F800252C2303FB06730022D9
:10466000C3E9062283F829205A61012283F82A200F
:104670004046BDE8F8834FF00808F9E74FF011080D
:10468000F6E700BF581000206D4300000003005003
:104690008000020014ED00E000E100E02DE9F041AF
:1046A00003680479274D0022C3F800252C2303FB5F
:1046B000045301465B6883B10368234AC3F80823A7
:1046C00003681B0B5AB20120520903F01F0300FAC2
:1046D00003F320321D4840F822300B684FF0FF32C0
:1046E000D3F80C05D3F81485D3F80865D3F8107502
:1046F000C3F81425C3F80C250B689042C3F80825AD
:10470000C3F8102501D0FFF7D1FEB8F1FF3F02D06A
:104710004046FFF7CBFE7A1C02D03846FFF7C6FEB4
:10472000731C02D03046FFF7C1FE0868FFF7B8FAE5
:104730002C2303FB0454002384F82A306360BDE873
:10474000F08100BF581000208402020000E100E068
:104750002DE9F843224B07794FF02C0909FB073468
:10476000064665699846002D35D16261A1602562D3
:1047700084F828504FF48E710068FFF7B9FD336854
:1047800001229A6021463068FFF7BAFD6368A146AE
:104790001BBB3568226A63699A4211D33368D3F828
:1047A0001C21002AFBD00122DA6000202C2303FB0D
:1047B000078700237B61BDE8F88394F8283043B96C
:1047C000D5F81C31002BF8D049462846FFF798FD54
:1047D000E0E70F20EAE71120EDE72846EBE700BF0E
:1047E000581000200023435082B043580193019B8E
:1047F00002B070471FB501238DF80030044BCDE99E
:104800000110D3E900126846904705B05DF804FB3B
:10481000841000207FB5374AD2F82461002E48D09A
:1048200010464FF49271FFF7DDFF02238DF8003040
:10483000D2F88034C2F880340393D2F83C35029326
:104840002D4BDA6801920022C3E906226846D3E9BB
:1048500000129047274AD2F844317BB14FF4A2713D
:104860001046FFF7BFFF244B996939B10021C3E916
:104870000611D968D2F83C05FFF7BCFF1D4AD2F8F3
:104880002031A3B14FF490711046FFF7ABFF1A4BE4
:10489000596961B1D2F84C150291002299688DF8DE
:1048A000002001915A616846D3E90012904704B094
:1048B00070BDD2F81031002BCCD04FF48871104667
:1048C000FFF790FF0C4BD2F83C0599698842C1D1A3
:1048D000DC69D96864B1D2F8005225F02005C2F82D
:1048E00000521A699C61DA60DE61FFF783FFB1E76D
:1048F0009C61FAE700200040841000201F2886BF3A
:1049000000F01F00044B4FF0A04300F5E0700222BE
:1049100043F82020704700BF000300502DE9F84302
:10492000704F06799146242202FB0672054692F8E2
:1049300020200C46002A40F0CE806B490068FFF72B
:1049400095F98046002840F0C98023685A1C19D088
:104950001F2B4FF001028ABF64494FF0A04103F0C2
:104960001F0302FA03F3C1F8083523681F2B86BF23
:1049700003F01F035D4A4FF0A04203F5E0730321EB
:1049800042F8231061684B1C0BD01F2986BF01F031
:104990001F01564B4FF0A04301F5E071002243F890
:1049A00021202B68A269C3F82425217D637D2A6814
:1049B0000B43C2F86C35D4E900212B68C3F80C25F1
:1049C000C3F81415237D012B32D1A168481C0BD0EC
:1049D0001F2986BF01F01F01444B4FF0A04301F592
:1049E000E071002243F82120E3685A1C19D01F2BE4
:1049F0004FF001028ABF3D494FF0A04103F01F0371
:104A000002FA03F3C1F80835E3681F2B86BF03F0F1
:104A10001F03364A4FF0A04203F5E073032142F82A
:104A20002310D4E902122B68C3F80825C3F8101527
:104A300024237343FA18C2F804902269FA50B9F19A
:104A4000000F37D04FF488712868227FFFF7CAFE25
:104A50004FF490712868FFF7C5FE4FF492712868F3
:104A6000FFF7C0FE4FF4A2712868FFF7BBFE2B686A
:104A70001F49C3F804132968090B4BB2002BAEBFC2
:104A800003F1604301F00F011A4B4FEA4212D2B218
:104A9000AABF03F561435A5483F800232B681B0B0C
:104AA0005AB2012103F01F0301FA03F3520912491C
:104AB00041F822302B680822C3F80025242303FB89
:104AC00006730022C3E906225A61012283F82020DE
:104AD0004046BDE8F8834FF00808F9E74FF01108A9
:104AE000F6E700BF841000201548000000030050C6
:104AF0001003020014ED00E000E100E02DE9F041B8
:104B000003680479274D0022C3F80025242303FB02
:104B1000045301465B6883B10368234AC3F8082342
:104B200003681B0B5AB20120520903F01F0300FA5D
:104B300003F320321D4840F822300B684FF0FF325B
:104B4000D3F80C05D3F81485D3F80865D3F810759D
:104B5000C3F80C25C3F814250B689042C3F8082548
:104B6000C3F8102501D0FFF7C9FEB8F1FF3F02D00E
:104B70004046FFF7C3FE7A1C02D03846FFF7BEFE60
:104B8000731C02D03046FFF7B9FE0868FFF788F8BB
:104B9000242303FB0454002384F820306360BDE821
:104BA000F08100BF841000201003020000E100E04B
:104BB00001F06043B3F1005F2DE9F041064634D1C6
:104BC0001D4B0779242505FB073598466C6974BB96
:104BD0006A61A96000684FF49071FFF703FE4FF41B
:104BE000AC713068FFF7FEFD33686A69A968C3F8E5
:104BF0004415C3F84825336801229A606B68C3B92D
:104C00003268D2F82011D2F8583149B9002BF8D0C7
:104C10000F20242303FB078700237B61BDE8F0817D
:104C2000002B14BF0F200020F3E71020F6E711201F
:104C3000F4E72046F2E700BF841000200220FCF7D2
:104C4000B1B900002DE9F04781460D46FCF7CAF9DD
:104C50000328044604D8012D04D024D3022D2FD0DC
:104C6000BDE8F087194D47003A18A918AE5C4A789C
:104C700052B1DFF86880164842464FF40041FDF714
:104C800041FB08B988F800903B192B449A78114BE6
:104C90001A55002EE4D0104B1B68002BE0D0304694
:104CA000BDE8F04718470A48FDF76EFB074B04EBD9
:104CB000440213449E78074B1B5DB342D0D1E8E712
:104CC000024B00EB40041C446678E2E70C11002024
:104CD000CC1000202511002020110020A810002059
:104CE00002210078FFF7AEBF08B5094B1B7853B11E
:104CF0000020FCF725F90120FCF722F90320BDE88C
:104D00000840FCF71DB9BDE80840FCF72DB900BF0D
:104D1000A9100020F8B57B4C237805461BB1002371
:104D20002370FFF7E1FF172D00F28880DFE805F020
:104D30000C17174354657680888D888D959A9A9ABA
:104D40009A9AC4C9D1D9E4E4FFF7CEFF6E48FDF7C3
:104D50001BFB6E4B002204461A702046F8BD002053
:104D6000FCF7C6F8F8B10020FCF7EAF8022D0CBFFA
:104D70004FF4E1614FF47A61644B1D704FF40040D1
:104D80004FF4FA740025E0FB01454FF47A720023DA
:104D90002046294634F036FB002201465A48BDE839
:104DA000F840FDF7AFBAFCF7B7F8022D0CBFC821E9
:104DB0004FF4C871E0E70020FCF79AF840B10020FA
:104DC000FCF7BEF84FF44871504B03221A70D5E738
:104DD000FCF7A2F8C821F7E70020FCF789F838B102
:104DE0000020FCF7ADF84FF47A61484B0422EDE760
:104DF000FCF792F84FF4C871F7E70020FCF778F859
:104E000048B10020FCF79CF8404B05221A7041F68F
:104E10009A110022C2E7FCF77FF8F5E70020FCF7C3
:104E2000C1F83A4B06221A70002240F6CD41B5E790
:104E30000020FCF771F8354B07221A7000248CE72C
:104E400001202070FCF7AEF8EEE701202070FCF79F
:104E5000A9F800224FF48041A0E7FCF794F82B4B0F
:104E60000C22EAE72A482B4EFDF78EFAD5F1110500
:104E700004461CD0D8B9012D13D0C8235D434FF48C
:104E800000474FF4FA7000214FF47A720023C7FBF9
:104E9000050134F0B7FA224601461D48FDF732FA03
:104EA00004460220FCF738F80123337055E702204E
:104EB000FCF746F80023F8E7FFF716FF134B122222
:104EC000BBE7FFF711FF0020FCF726F80F4B13227A
:104ED000B3E7FFF709FF0120FCF71EF80B4B142284
:104EE000ABE7FFF701FF0020FCF716F80120FCF705
:104EF00013F8064B1522A0E7FCF745F8034B1D708D
:104F00009CE700BF1C110020EC10002024110020A1
:104F1000AC100020A9100020044B1B68DB0703D550
:104F2000034B1878FFF7F6BE704700BF181100203A
:104F30002411002038B51C4B18601C4B10F00204E3
:104F4000054619601AD01A4B1A480E221A700F2201
:104F5000DA7010229A7111225A72042140F26662AC
:104F6000FCF74AFC044648B9FCF79AFC044628B909
:104F70000146114A1148FDF7B3F90446EB0711D574
:104F80000120FCF741F86CB921460D4A0D48FDF7A8
:104F9000A7F9044630B90C4A0C480121BDE8384055
:104FA000FDF79EB9204638BD1811002020110020C1
:104FB0000C11002078A20300E14C00009CA2030029
:104FC000194F0000A0A203003D4C000098A203006E
:104FD000014B01221A7070474631002073B5304CE6
:104FE0001128024663884AD12E4AB2F87620002A58
:104FF00034D1022B09D92C482C4B2D49C01AC0089A
:10500000000440F00300FBF775FD0A2001F006FCE8
:1050100045420646002D41D063889BB12846FCF7E7
:1050200031F8214C214B2349E41AE40840F23913AA
:1050300024040193204B00932A46034644F00100C8
:10504000FBF77CFDFBF7CAFB0028FBD1C6F59C40B3
:10505000203002B0BDE87040FCF738BC022B09D903
:105060001148124B1549C01AC008000440F0030053
:10507000FBF740FD02B0BDE8704001F00DBC022B13
:105080000CD90A48084B0E491B1ADB081B0443F0D5
:10509000030002B0BDE87040FBF730BD02B070BD48
:1050A00094050020BC30002074C203002CC2030011
:1050B000ACA20300C9A20300E0A20300F0A2030017
:1050C0000CA3030070B5284B5B8886B0022BADF8AB
:1050D0000E000BD92548264BBDF80E202549C01AD5
:1050E000C008000440F00300FBF708FD00240DF1A8
:1050F0000E03009308212346019401220A200FF099
:1051000059FCBDF80E300DF1170133BBCDE900138A
:105110008DF81730012206210A200FF04BFC164EA5
:105120009DF80E40642514FB05F5FF23B5FBF3F550
:105130002A4600213046FCF7FFFC1128F8D0012C4C
:1051400088BF6408200240EA0440204300F0B6FC17
:105150000A4B01221A7006B070BD01228DF817208B
:10516000CDE900142346D6E79405002074C203005D
:105170002CC203002DA30300A4A20300463100208B
:10518000F0B54FF4D87285B00021554D0AF098FC67
:1051900018210AF0BBFB6B88022B04460AD9514840
:1051A000514B22785149C01AC008000440F0030056
:1051B000FBF7A4FC2278002363606B889AB1072A6E
:1051C00040F08480022B0AD94648474B227A48494E
:1051D000C01AC008000440F00300FBF78FFC207ADF
:1051E000FFF770FF3DE0227AA67A062A4DD1022B06
:1051F000277B6FD93B483C4B3E49C01AC00800048E
:105200003A4640F00300FBF779FC56BB6B888DF8FB
:105210000F70022B0AD93348334B3749C01AC008E4
:1052200000043A4640F00300FBF768FC00230DF150
:105230000F0201930092062101220A200FF0BAFB0F
:105240009DF80F30EBB92D4E002211463046FCF789
:1052500073FC1128F8D0002000F030FC284B01220C
:105260001A706B88022B0AD91E481F4B62682549A9
:10527000C01AC008000440F00300FBF73FFC05B073
:10528000F0BD214B93F88600AAE7082A11D1022B22
:10529000A78922D91348144B1C49C01AC00800041E
:1052A0003A4640F00300FBF729FC002ED9D13846DE
:1052B00096E7022BE3D90C4B0A481549C01AC008DF
:1052C000000440F00300FBF719FCCAE74FF0FF337E
:1052D0006360C6E7002ED2D198E7002ECFD1E6E773
:1052E0009405002074C203002CC2030076A40300BE
:1052F0008BA40300A7A40300C7A40300A4A2030077
:105300004631002026A50300BC300020DCA40300A9
:1053100003A50300FBF758BF7FB504A9002541F89A
:10532000045D044616F004F840F2EF1206462946E2
:1053300020460AF0C5FB062EB0F9042015D8052E2C
:10534000514D24D2032E7FD04F4B5B88022B2FD997
:105350004E4B4F484F49C01AC0080004134640F056
:1053600003003246FBF7D4FB22E0142EECD1FAB155
:10537000454B5B88012B1BD9444B45484649C01A15
:10538000C008000440F00200FBF7B4FB10E06B889B
:10539000CAB9022B09D93E483C4B4049C01AC00843
:1053A000000440F00300FBF7A5FB0220FBF7B4FD6F
:1053B0003CB140F22122002120460AF081FB0AF094
:1053C00047F904B070BD4BB13148304B3449C01A75
:1053D000C008000440F00100FBF790FB0220FBF73F
:1053E000AFFD022000F056FF0128E1D06B8863B1C9
:1053F000264B27482B4A2C49C01AC00800044FF4FA
:10540000007340F00100FBF783FB6B889BB1012028
:10541000FBF738FE1E4D1D4B2449ED1AED084FF4E5
:1054200000732D04019301221E4B0093034645EAAD
:105430000200FBF783FBFBF7D1F90028FBD144F610
:105440002160FCF743FAB3E792B90220FBF778FD3D
:105450006B88022BACD90D4B0D481549C01A039B24
:10546000C00800041A7940F00300FBF747FB9FE7F0
:105470006B88002B9CD00648044B0E49C01AC0080C
:10548000000440F00100F0E7940500202CC2030066
:1054900074C2030056A40300E9A303007FA3030022
:1054A0009BA30300E0A20300BEA30300C9A2030064
:1054B00015A4030032A403002DE9F04188B0FCF7E5
:1054C000DFFE08B1FCF702FA4FF400410020FBF7C1
:1054D000D1F808B1FCF7FAF9FAF7ECFF0320FBF773
:1054E0007BFD4FF0FF330493002303908DF81430BD
:1054F0008DF81530012241F2883372490320CDE93D
:105500000623FFF717FD08B1FCF7E0F9002203A915
:105510006D48FCF71BFB08B1FCF7D8F96A486A4CE8
:10552000FCF76CFC632200212046FCF705FB1128E8
:10553000F8D0272000F054FA08B1FCF7C7F9634B04
:10554000634C00251D70634B1D80634B1D700AF07A
:105550008FFC0AF08FFC03A8FBF716FE03A80EF0E1
:10556000CDFE4FF480300EF0F2FE0A200EF0F2FE77
:10557000284600F0BDF9C3200DF07AFC8A222946A6
:10558000204632F0A6FE0FF0F9FD544BC0F8A030D3
:10559000534800F099FB4FF48173238040F60A339F
:1055A000638006224F494FF00608601D32F06DFE01
:1055B00012224D4984F8048004F1250032F065FE82
:1055C000122384F8243008224849082704F14500B2
:1055D00032F05BFE04230B22454984F8447004F149
:1055E000560084F8543032F050FE0B2384F85530C6
:1055F000FF23012684F8863004F1800384F8645088
:10560000A4F8765084F88060A4F88850324600935D
:1056100041462B4601950A200FF0CCF904F1860390
:1056200032463946009301952B460A200FF0C2F905
:1056300094F88600FFF746FD2E4A2F483146FCF7C6
:105640004FFE08B1FCF742F900224FF420312B48FD
:10565000FCF758FE08B1FCF739F90EF081FE45421F
:105660000646FDB1264B5B889BB12846FBF70AFD39
:10567000244C254B2549E41AE40840F2672324040E
:105680000193234B00932A46034644F00100FBF7A5
:1056900055FAFBF7A3F80028FBD1C6F59C40203053
:1056A000FCF714F91B4C0EF05DFEFBF797F823781E
:1056B000002BF8D00021084600F0EEF90028F2D1C6
:1056C0002070F0E7DD4F0000A4A2030032020020AA
:1056D000BC3000203402002036020020815100003E
:1056E000F300002050A3030057A303006AA30300A4
:1056F00073A30300D14F00004CA3030048310020E6
:105700009405002074C203002CC20300C9A2030048
:10571000E0A2030046310020054B1B68082B01BFA7
:10572000044B1868B0FA80F0400918BF0020704799
:10573000300100103401001008B54FF08043002202
:10574000C3F80C21C3F81021C3F838254FF080525C
:1057500003F54043D2F80414C3F82015D2F8081416
:10576000C3F82415D2F80C14C3F82815D2F8101475
:10577000C3F82C15D2F81414C3F83015D2F8181445
:10578000C3F83415D2F81C14C3F84015D2F820140D
:10579000C3F84415D2F82414C3F84815D2F82814D5
:1057A000C3F84C15D2F82C14C3F85015D2F83014A5
:1057B000C3F85415D2F83414C3F86015D2F838146D
:1057C000C3F86415D2F83C14C3F86815D2F8401435
:1057D000C3F86C15D2F84424C3F87025FFF79CFF7A
:1057E00010B1384B384A1A60FFF796FF18B1374BA3
:1057F000FB22C3F81825FFF78FFF48B13449354B1A
:105800000A681B6822F00F0203F00F0313430B60BA
:10581000FFF782FF18B1304B4FF400721A604FF05F
:105820008043D3F80024D20744BF6FF00102C3F8CD
:1058300000242A4AD2F8883043F47003C2F8883032
:10584000BFF34F8FBFF36F8F4FF01023D3F80022B9
:10585000002A03DBD3F80432002B2FDA204B01227D
:10586000C3F80425D3F80024002AFBD04FF01022FF
:105870001221C2F80012D3F80024002AFBD04FF006
:1058800010231222C3F80422154B1A46D3F8001431
:105890000029FBD00021C3F80415D2F80034002BF6
:1058A000FBD0BFF34F8F0D490E4BCA6802F4E06284
:1058B0001343CB60BFF34F8F00BFFDE70A4B0B4A8A
:1058C0001A6008BD8C5600404881030000F000407B
:1058D000E40E0040580200104096024000ED00E047
:1058E00000E001400400FA05240200200090D003EB
:1058F00007B500BB124B0C22C3F824270A22D3F8A9
:105900001015013AC1F340210191F8D1019B73B9FF
:105910000C4B5B88022B09D90B480C4B0C49C01A65
:10592000C008000440F00300FBF7E4F80120044B3A
:105930000222C3F8242703B05DF804EB0EF0E6BCA6
:10594000000300509405002074C203002CC2030021
:1059500040A50300F0B50F480F4C002348F20605A0
:1059600048F20E06195C4FEAC30E002211F0800FB8
:105970000EEB020702F101020CBFAC46B446082A46
:1059800024F817C04FEA4101F0D10133782BE9D157
:10599000F0BD00BF68310020E8310020A8B90B4AF3
:1059A0001378DBB2012B06D1022111700848094996
:1059B0006422FEF76DBA13781070022B05D1064BE6
:1059C0001B6813B1054A10681847704768390020F2
:1059D0002802002094A50300E0310020E4310020DB
:1059E00030B5782285B0054600211448144C32F0B9
:1059F00070FCFFF7AFFF134B2068616800221A604C
:105A0000114B1A60114B1A7001AB03C3A0681860E8
:105A1000FF238DF804304FF6FF73ADF806308DF894
:105A2000092014230A4A0B488DF8055001A9ADF846
:105A30000C30FEF76FF905B030BD00BF68310020B3
:105A400076A50300E0310020E43100206839002011
:105A50009D5900002802002010B50A4A137803F06F
:105A6000FF0463B901231370074A1060074A08480E
:105A700011601A460749FEF70BFA204610BD1120A7
:105A8000FCE700BF68390020E0310020E43100204D
:105A90002802002084A5030038B5074B1B78044674
:105AA0000D463BB9FFF756FF29462046BDE8384072
:105AB000FFF7D2BF112038BD68390020074B10B561
:105AC000C1B2C0F3072403F17802C0F307401C7091
:105AD0005870997003339342F9D310BD6831002098
