:1000000000000420B5020000DD020000DF02000055
:10001000E1020000E3020000E50200000000000031
:10002000000000000000000000000000E7020000E7
:10003000E902000000000000EB020000ED020000F9
:10004000812E0000F1410300ADE40200EF02000048
:10005000EF020000EF02000085320000EF02000016
:10006000EF020000EF020000EF020000EF020000CC
:10007000EF020000A9D80200EF020000EF0200002A
:10008000EF020000490D0000EF020000EF02000047
:10009000E90D0000EF020000EF020000EF02000097
:1000A000EF020000EF020000EF020000EF0200008C
:1000B000EF020000EF02000000000000000000005E
:1000C000EF020000EF020000EF020000EF0200006C
:1000D000A5B00200EF020000EF020000EF020000F6
:1000E000EF020000EF020000091B03000000000007
:1000F00000000000EF02000000000000EF0200001E
:1001000000000000000000000000000000000000EF
:1001100000000000000000000000000000000000DF
:1001200000000000000000000000000000000000CF
:1001300000000000000000000000000000000000BF
:1001400000000000000000000000000000000000AF
:10015000000000000000000000000000000000009F
:10016000000000000000000000000000000000008F
:10017000000000000000000000000000000000007F
:10018000000000000000000000000000000000006F
:10019000000000000000000000000000000000005F
:1001A000000000000000000000000000000000004F
:1001B000000000000000000000000000000000003F
:1001C000000000000000000000000000000000002F
:1001D000000000000000000000000000000000001F
:1001E000000000000000000000000000000000000F
:1001F00000000000000000000000000000000000FF
:1002000010B5054C237833B9044B13B10448AFF350
:1002100000800123237010BD880200200000000030
:10022000A811040008B5034B1BB103490348AFF301
:10023000008008BD000000008C020020A81104000E
:10024000154B002B08BF134B9D46A3F5803A0021A8
:100250008B460F461348144A121A36F078FA0F4BA1
:10026000002B00D098470E4B002B00D09847002061
:10027000002104000D000D48002802D00C48AFF307
:10028000008036F0E1F92000290000F047FB36F04D
:10029000B5F900BF000008000000042000000000C5
:1002A000000000008802002030F300200000000061
:1002B000000000000649074A074B9B1A03DD043B78
:1002C000C858D050FBDC04F0AFFDFFF7B9FF0000C9
:1002D000081204000000002088020020FEE7FEE76C
:1002E000FEE7FEE7FEE7FEE7FEE7FEE7FEE7FEE7E6
:1002F000074B1B5C1F2B8ABF064A4FF0A04203F03E
:100300001F03D2F80405D840C04300F00100704735
:100310009C80030000030050074B1B5C1F2B86BF13
:1003200003F01F0305494FF0A041012202FA03F335
:10033000C1F80C35704700BF9C80030000030050DB
:10034000074B1B5C1F2B86BF03F01F0305494FF0B3
:10035000A041012202FA03F3C1F80835704700BF3B
:100360009C800300000300504FF0A04310B44FF4F2
:1003700080404FF400544FF400414FF48032C3F8F2
:100380000845C3F80805C3F80815C3F808255DF843
:10039000044B70474FF0A04310B44FF480404FF42B
:1003A00000544FF400414FF48032C3F80C45C3F8B9
:1003B0000C05C3F80C15C3F80C255DF8044B704709
:1003C0000A4B195C1F298ABF09484FF0A04001F071
:1003D0001F01D0F8043501228A4022EA03011340AC
:1003E000C0F80815C0F80C35704700BF9C800300AA
:1003F000000300500B2809D00C2809D0182809D078
:1004000019280CBF03204FF0FF30704700207047C1
:100410000120704702207047C20730B40ED4830712
:100420000AD54FF0A0430C22C3F82C27C3F830277D
:10043000C3F86027C3F8642730BC70474FF0A0436F
:100440000322C3F834274FF40055C3F838274FF47C
:100450008044C3F83C274FF40041C3F840274FF4D1
:100460008032C3F80855C3F80845C3F80815C3F827
:100470000825D4E770B50546084619F0EAFA074C96
:10048000074B0849E41AE408240403462A4644F0CA
:100490000300BDE8704002F049B900BFBC11040080
:1004A000AC110400488503002DE9F0410B780C469F
:1004B0000D2B3CD8DFE813F00E0054003B006F001A
:1004C0003B0086009C003B00B600C500C900E2006E
:1004D000E6003D00994B9A4C9A499B4DE41AE4087A
:1004E000240444F0030001F005FF4FF0A0434FF453
:1004F00080310022C3F80C15C3F808252B78002B97
:1005000000F0D3809148924E36F06AFD33789149DD
:10051000C2B2002B00F0F2808F4B09688F4804F0C4
:10052000EFFE002840F0FD80307000232B70BDE806
:10053000F081834C814B8A49E41AE408240444F096
:10054000030001F0D7FE0A21844804F07BFE002856
:10055000EDD044F001008349BDE8F04101F0CABE8E
:100560007748764B8049C01AC008000440F0030069
:1005700001F0C0FE4FF0A0434FF480310022C3F8D9
:100580000815C3F80C2506F04DFD4FF47A71BDE84F
:10059000F0410FF0D8B8694B69487449744D754FF4
:1005A000C01AC008000440F0030001F0A3FEA668D2
:1005B000F36830687168B2680FC5338A2B8023797D
:1005C0003B70B4E75D4B5E4D6B49ED1AED082D04B1
:1005D00045F00305284601F08DFE5E4B228B9B887B
:1005E0009A42284677D06549BDE8F04101F082BEC5
:1005F000524B534D6249ED1AED082D0445F00305A9
:10060000284601F077FE534B228B5E499A8028469C
:1006100002F014F806F006FD4FF47A71BDE8F041DF
:100620000FF091B8454B464D5749ED1AED082D0492
:1006300045F00305284601F05DFE2846227953491E
:10064000E6E73F483D4B52498DE73C4B3C4851491A
:10065000C01AC008000440F0030001F04BFE06F091
:10066000E1FC64210FF06FF84FF0A0434FF48031AC
:100670000022C3F80C15C3F8082558E7304C2F4B5F
:10068000454959E72D4B2E4D4449ED1AED082D04EF
:1006900045F00305284601F02DFE2846E3886279DF
:1006A0003F49BDE8F04102F041B82A4B27481D6898
:1006B00036F096FC294682B2274B284804F0DCFD30
:1006C00000283FF434AF0246364944F00100BDE84B
:1006D000F04101F0B3BF344901F00CFEE3691B782F
:1006E000012B14D0002B7FF422AF4FF0A0424FF427
:1006F0000041C2F80815C2F80C3518E7164B096816
:10070000164804F0DBFD90B9012333700DE74FF07C
:10071000A0434FF400410022C3F80C15C3F808258C
:1007200005E744F00100214901F0E4FDFDE644F055
:1007300001001F4901F0DEFDF7E600BFAC11040027
:10074000BC110400A0810300360400201C0000201E
:10075000370400201400002034040020A4020020EC
:10076000308303000C830300508203006881030080
:10077000200400203204002060830300C4830300AF
:1007800078820300A4820300D88403001485030048
:10079000108403003C840300DC82030060840300B7
:1007A000A0840300188203008C830300C48103002B
:1007B000F081030038B5044606F034FC19F049F91D
:1007C000012805D9102C3DD0112C02D00F2C21D09E
:1007D00038BD06F027FC64210EF0B5FF3E4804F05A
:1007E0004DFC03284ED03D4B3D4C1A783D493E4BC5
:1007F00039480125257004F081FC0028E8D03B4BE6
:100800003B483C49C01AC00800042843BDE83840B2
:1008100001F070BD06F006FC64210EF094FF052186
:100820002D4804F027FF0028D2D0314B2F4A3249FF
:100830009B1ADB081B04024643F00100BDE8384068
:1008400001F0FCBE06F0EEFB64210EF07CFF2248B6
:1008500004F014FC03280CD0204A234B12782149C1
:100860001D4804F04BFC0028B2D0214B1F4A2349FD
:10087000DEE7194804F0C6FC0028A9D01C4B1B4A2F
:100880001F49D5E71F48204C36F0AAFB23781F49A3
:10089000C2B23BB11E4B09680F4804F031FD50B99C
:1008A000207038BD1A4B09680B4804F007FD70B979
:1008B0000123237038BD0E480C4B1649C01AC008DE
:1008C000000440F00100BDE8384001F013BD0848C5
:1008D000064B1149F2E700BFA402002032040020B9
:1008E0003604002020040020BC030020AC110400CA
:1008F000BC11040040810300A08003000C810300B0
:10090000D88003001C0000203704002014000020C1
:1009100034040020C4810300F081030000B54FF4CB
:10092000004185B0002001F085FC08B100F0C4F959
:1009300001F006FC00F022FC08B100F0BDF9002334
:1009400001204FF0A041032204E015F4F03F18BF4E
:1009500041F824200133202B00FA03F503F5E0745D
:10096000F3D14FF0A04100224FF4F033C1F8083525
:1009700001A8C1F80C25012328214FF47A74CDE990
:10098000012403918DF804308DF8063006F07AFAD0
:10099000194806F04DFB1949032003F0A1FA08B1EC
:1009A00000F08AF906F03EFB03F0E0FB08B100F02E
:1009B00083F906F037FB124A03464BF659011148FA
:1009C00004F060FB08B100F077F90F4C0F4B236087
:1009D0000F4836F005FB0E49034682B204F10A00C7
:1009E000A38035F090FE06F0F1FA01F01BFF00281D
:1009F000F9D106F0F7FAF6E775040000B507000034
:100A0000A9040000A4020020BC03002001003C0057
:100A100000000020434B1978002900F081802DE967
:100A2000F04F002487B001258E4603E00134E4B284
:100A3000744560D23C4B27B21E6816F837C0ACF143
:100A4000200205FA02F9394ACCF12003D2E900016B
:100A500025FA03F349EA030905FA0CF800EA08024B
:100A600001EA0903134306EBC70BDFD021EA0903B0
:100A70002E4920EA08026046C1E9002302F0F2FB99
:100A800016F837C0ACF1200205FA02F20192019982
:100A9000CCF12003C6B225FA03F3ACF120021943CE
:100AA00006FA02F30393224B0191D3E90023CDE927
:100AB000042305FA0CF30093CCF12001039B26FAE2
:100AC00001F10B43039306FA0CF30293DDE904678B
:100AD000DDE9002316401F4032463B46DDE9026750
:100AE000BB4208BFB24209D00E4B013493F800E07C
:100AF000E4B274459ED307B0BDE8F08F9BF80110B7
:100B0000DBF80430A1F10101B1FA81F14909091AB8
:100B1000B1FA81F14909002BE6D060469847E3E736
:100B2000704700BF380400207004002068040020D3
:100B3000600400202DE9F84F0646244800F0D2FB5F
:100B4000D8B9234F0123A6F1200103FA01FBC6F116
:100B50002002D7E9000123FA02F24BEA020B03FA62
:100B600006FA00EA0A0201EA0B03134307D020EA5F
:100B70000A0421EA0B05C7E90045BDE8F88F3046B5
:100B800002F070FB134ED6E90089C8B148EA0A03A7
:100B900049EA0B049846A146D7E900234BEA03052E
:100BA0000D4B0A4819684AEA02044B464246C6E918
:100BB0000023C7E900450022BDE8F84F00F044BB20
:100BC00028EA0A0829EA0B09E6E700BF40040020EA
:100BD00068040020600400203C040020042A36D968
:100BE0002DE9F04182B00E460546144602F0C4F9E4
:100BF000002836D01D491E4A1E4B0D601E481F4955
:100C00001C60167000230022741EC0E90023C1E995
:100C10000023E4B2EEB105EBC404194F083D4FF0D8
:100C20000008032601E0AC4213D0A37820788DF8A9
:100C300006803A4601A98DF804608DF8053002F06F
:100C4000A5F9083C0028EED002B0BDE8F0810720ED
:100C500070470C4A0C48002100F0E4FA02B0BDE8ED
:100C6000F08102F03FF90028C4D0EDE770040020C5
:100C7000380400203C0400206004002068040020A8
:100C8000350B0000150A00007885030070B5084D8B
:100C90002B785BB1074E00243368012113F8340030
:100CA00002F064FA2B780134A342F5D8002070BD1D
:100CB000380400207004002000B585B000230390A4
:100CC000194601AA44F20100CDE9013300F004F80D
:100CD00005B05DF804FB00BF10B572B601F0E2FD8F
:100CE00001F0A0FD0028FBD1104B114C1149E41A72
:100CF000E408240444F0010001F0FCFA0E4B1B68E8
:100D0000DB0700D500BE44F002000C4901F0F2FA06
:100D1000BFF34F8F0A490B4BCA6802F4E0621343DA
:100D2000CB60BFF34F8F00BFFDE700BFAC110400E5
:100D3000BC1104007C850300F0ED00E08885030011
:100D400000ED00E00400FA05F8B5204A204B00242D
:100D5000C2F84041C2F84441C2F84841C2F84C418F
:100D6000C2F80041C2F804411B6833B31949D2F8F4
:100D700004550A68AD1A1A6825F07F45AA4227462D
:100D80000DD8197CDE69AD1A144419B11F74D3E96A
:100D9000052090471EB133461A68AA42F1D90E4980
:100DA0000E4A0B7812789A4208D00D490D4A41F844
:100DB00023404FF48013C2F80031F8BD531CDBB25E
:100DC000022B08BF00230B70EFE700BF00100140AB
:100DD00094050020900500208D0500208C05002042
:100DE0008405002000E100E02DE9F04F8C4A8D4998
:100DF00013780978DFF85082994285B0D8F800A0BE
:100E000000F07B810133DBB2022B08BF0023864850
:100E10001370864A076852F823107B1823F07F432B
:100E200000240360534626462046A446ABB11A6808
:100E30008A4200F26581DC68C3F800C0891A104458
:100E4000DA6934B13D1825F07F45C3E90154DE610C
:100E50001E4613460124002BE9D1002C40F07C8172
:100E600001230093724B734FDFF8E09143F00103CD
:100E7000019355464FF0000B46B3D6E901C1344605
:100E8000F669694B6C481A68ACEB020323F07F43A8
:100E9000834248D80B44236000220121C4E9012287
:100EA000E2612174002D5DD02A689A424DD2284615
:100EB00003E00A689A424FD20846C1699B1A00298A
:100EC000F7D12360E161C461002ED6D178783978FA
:100ED000884264D00B4603EB43034C1CBA7807EB03
:100EE000C303E1B28A421A79397004BF0021397014
:100EF000022A9C6844D0032A38D0012AE8D1227CF7
:100F0000002AE5D1D3F80CC0C4F804C01969A16067
:100F10005869E06099F800009B69A3610028B0D08F
:100F200062609446ADE7A2EB0C0222F07F428A4257
:100F300002D28B1A2360AFE700230122C4E90033F9
:100F4000A360E36122746DB12A68C8F80040D31A27
:100F50002B60E56125468FE7D21A0A602360E161C4
:100F6000C461B1E7C8F80040254685E7002DAFD041
:100F700000232B74ED69002DFBD1C8F80050A5E7C4
:100F80004DB1AC422B4603D1E4E094422FD013463E
:100F9000DA69002AF9D10023237488429AD1BBF17F
:100FA000000F01D1554553D0002D56D1234E244A70
:100FB0001F4C4FF480334FF400310127C2F88010EA
:100FC0003C43C6F848334FF43C60C6F808337760BA
:100FD000A047154BB7604FF43C601D60A047194B0C
:100FE0001D70002389F8003005B0BDE8F08FA342E2
:100FF00000F09180E0692168D861002800F08680C7
:101000002A4603680B440360AA424FF00003397874
:10101000787823741CBF15464FF0010BBDE700BF65
:101020008C0500208D0500209005002084050020FF
:10103000A085030074040020FEFF7F000010014023
:1010400000E100E0810500209405002080050020DB
:10105000009B002BC5D0002DA8D0434B434A1C68F1
:10106000D2F80465424FD5F800A03978331B23F03D
:101070007F43DD1CB9B93F493F4B4FF48030C2F884
:1010800044034FF00108C2F804034FF40030C1F8E4
:10109000800143F001030860C2F800804FF43C6017
:1010A000984787F80080AA452CBF04EB0A03631910
:1010B0002E4923F07F43C1F84035D1F80425921B17
:1010C0009B1B22F07F4223F07F4303329A4288D950
:1010D000294BD1F80425C1F8402543F001034FF412
:1010E0003C609847234B4FF40032C3F800210023A3
:1010F00089F8003005B0BDE8F08F00260096B1E613
:1011000074BB521A1A6001230093ABE600233978AE
:101110007878237441E71946EA69C8F8002092B943
:10112000CDE90231114BDFF840C001209860019BEE
:1011300089F80000CCF800204FF43C609847DDE9C6
:101140000231D8F80020C8690968D86100287FF406
:1011500058AF59E72946DFE7C8F800309A467FE6DE
:10116000C8F800309A46CCE79005002000100140F6
:101170008105002000E100E0A08503002DE9F8438F
:101180001F4D204E204FDFF898804FF480334FF4EE
:1011900000324FF001090024C6F8802047EA090711
:1011A000C5F848334FF43C60C5F80833C5F80490DF
:1011B000B847C5F808904FF43C60C8F80040B847FD
:1011C000124A134B13491C601470134B134A0C70D2
:1011D0000B2114701C8099704FF48012C023C6F844
:1011E000802186F814333260C5F8084586F811333B
:1011F000D5F80435C8F800302046BDE8F88300BFB4
:101200000010014000E100E0A085030081050020FE
:10121000940500208C050020740400208D0500201A
:1012200090050020074B9B784BB132B128B1036881
:10123000187C20B959745A617047072070470820FC
:10124000704700BF740400202DE9F843224CA378B6
:10125000002B35D0002833D0042934D943697BB31F
:10126000437C0646012B4FF000000CBF88468046A9
:101270001746894600F06AF86378A17822785D1CE9
:10128000EDB2A94208BF0025AA421FD003EB4303D9
:1012900004EBC3030121114A9E601971D2F80425A1
:1012A000DA600020C3E904989F61657000F056F889
:1012B0000B4B4FF48012C3F800210020BDE8F883E7
:1012C0000820BDE8F8830720BDE8F883002000F07F
:1012D00045F80420F2E700BF74040020001001402C
:1012E00000E100E070B5174DAB7823B318B3436944
:1012F0000BB3002404740646204600F027F86A78F1
:10130000A8782978531CDBB2984208BF234699423B
:1013100013D002EB420205EBC20202219660204686
:1013200011716B7000F01AF8074B4FF48012C3F87C
:101330000021204670BD082070BD204600F00EF848
:10134000042070BD7404002000E100E072B6024A7F
:10135000136801331360704798050020034A13682F
:10136000013B136003B962B6704700BF98050020C7
:10137000054A064913686FEA13336FEA0333012005
:1013800008701360002070479C050020A00D00200D
:10139000174B1B780BB900207047431EFF2BFAD860
:1013A000202830B413D800221346124D2C68082B85
:1013B00024FA03F034BF80214FF4807110F0010053
:1013C0000DD101330C2B0A44F1D130BC70474028B9
:1013D000E9D98028E7D94FF480620823E5E70121A5
:1013E0009940054824EA01042C60104430BC704741
:1013F000A00D00209C050020A0050020284B1B7894
:1014000083B378B3274B984237D003F180029042E0
:1014100035D003F58072904233D003F5C07290420C
:1014200031D003F5007290422FD003F52072904224
:101430002DD003F5407290422BD003F56073984293
:1014400029D08033984216D003F58072904224D080
:1014500003F50072904206D003F54073984208BF2E
:101460000B2001D070470A200F4901220B688240EF
:1014700013430B6070470820F6E70020F4E70120D3
:10148000F2E70220F0E70320EEE70420ECE7052076
:10149000EAE70620E8E70720E6E70920E4E700BFDF
:1014A000A00D0020A00500209C05002050E8002F82
:1014B0000B4640E8003C9CF0000FF7D11046704707
:1014C00050E8003F03EB010240E8002C9CF0000FC5
:1014D000F6D11046704700BF50E8003FA3EB010271
:1014E00040E8002C9CF0000FF6D11046704700BF7A
:1014F000012350E8002F42EA030C40E800C191F0BC
:10150000000FF6D160467047002350E800CF0CEA88
:10151000030240E8002191F0000FF6D160467047C9
:10152000B8B130B4D0E90112521A0468D2B2531ED5
:101530002160DBB242B101680A685C1E551C0D6077
:101540001370E3B2FF2BF6D103680020187130BC92
:1015500070470E20704700BF38B504460020FFF7E3
:10156000F5FED4E900311A688A4215D9511E196076
:101570002168A3680868258A12F8012CE4681B1A00
:101580000879DBB2984205FB024400D20B710020BF
:10159000FFF7E4FE204638BD0024F8E738B50546DD
:1015A00000200C46FFF7D2FE2A681368591C116010
:1015B000E9682A8A641AB4FBF2F41C700020BDE8C2
:1015C0003840FFF7CBBE00BF826842B110B5044679
:1015D00043690168006998470023A36010BD704704
:1015E0000EB400B582B0039929B102AA04AB42F847
:1015F000043D00F0A9F802B05DF804EB03B07047B9
:101600002DE9F04F924683B051450F4605461E46E0
:10161000DDE90CB2C0F092800B464FF00108B3FB3D
:10162000FAF39A4508F10108F9D9B04538BFB04638
:1016300012F00109A96802D1BBF1000F54D10124B5
:1016400002E0013E0AFB04F4012EFAD8B7FBF4F0E5
:101650008245F7D93B4E02E0A968B7FBF4F0335C52
:101660002A680A2B04FB107702EB010E01F101003E
:1016700029D0A8608EF80030D5E90131994202D313
:101680002846FFF7A1FFB4FBFAF4002CE4D1B9F12E
:10169000000F15D0BBF1000F12D0C34510D9202484
:1016A000AB682A68591CA960D454D5E901329A4222
:1016B0000BF1FF3B14D2BBF1000F01D0C345EFD1BA
:1016C00003B0BDE8F08FA8604FF00D005054D5E98D
:1016D000011088421DD2296801EB000E0130C8E7D5
:1016E0002846FFF771FFE6E7930722D42024C3457D
:1016F000A5D92B684A1CAA605C54D5E901319942EE
:101700000BF1FF3B10D2BBF1000F98D0C345F0D1D5
:1017100095E728460193FFF757FFAA682968019BC0
:10172000501C01EB020EA4E72846FFF74DFFA96805
:10173000E9E7002E0CBF30242024D8E74FF0010841
:1017400073E700BFB4850300002900F0B9822DE9DA
:10175000F04F054687B091460C460E78DFF8C8A6D4
:101760004FF00D0B13E0AB6828680A2E03F101025D
:1017700000EB030100F04B82AA600E70D5E9013244
:101780009A4280F01B812678002E00F01E810134E1
:10179000002E00F01A81252EE5D12346002713F8EC
:1017A000012B2D2A00F0E380302A00F0E4802B2A60
:1017B00000F0D4802A2A00F00D81A2F13006F1B2A7
:1017C000092903D97DE2A1F130060346184606EB4C
:1017D000860110F8012BA2F13004092C02EB410123
:1017E000F1D92E2A00F002814FF00008013301E008
:1017F00013F8012B02F0FB0168291C46F8D0253AAA
:10180000532AC0D801A353F822F000BFF71B0000F1
:101810008717000087170000871700008717000050
:101820008717000087170000871700008717000040
:101830008717000087170000871700008717000030
:101840008717000087170000871700008717000020
:101850008717000087170000871700008717000010
:101860008717000087170000871700008717000000
:1018700087170000871700008717000087170000F0
:1018800087170000871700008717000087170000E0
:1018900087170000871700008717000087170000D0
:1018A00087170000871700008717000087170000C0
:1018B00087170000871700008717000087170000B0
:1018C00087170000871700008717000087170000A0
:1018D0008717000087170000DB1B00008717000038
:1018E0008717000087170000871700008717000080
:1018F0008717000087170000871700008717000070
:10190000871700007F190000611B00008717000087
:10191000871700008717000087170000611B000071
:10192000871700008717000087170000871700003F
:101930008717000087170000C91A000087170000EA
:1019400087170000411A000087170000251A0000C1
:101950008717000087170000DB1B000047F0040713
:101960001C46234613F8012B2D2A7FF41DAF47F0A8
:1019700001071C46F5E747F002071C46F1E7D9F8D6
:1019800000301A1DC9F800201E78AB680A2E0CD151
:101990002A68591CA96002F803B0D5E901239342D3
:1019A00003D32846FFF710FEAB682A68591CA960CC
:1019B000D654D5E901329A42FFF4E5AE2846FFF746
:1019C00003FE2678002E7FF4E2AE2B7B23BB07B00C
:1019D000BDE8F08FD9F80020111DC9F80010166875
:1019E00062782E2A04F102007FF4FEAE5A78A2F14A
:1019F0003003092B00F2BD814FF0000808EB880886
:101A000002EB480810F8012FA2F13003092BA8F1CE
:101A10003008F3D90346E9E6284607B0BDE8F04FA1
:101A2000FFF7D2BDD9F800301A1DC9F80020196897
:101A30000197434600960A222846FFF7E1FDA2E6F9
:101A4000D9F800301A1DC9F80020D3F80080FB0730
:101A500000F1E880B8F1000F00F0A181404635F0B8
:101A6000BFFA0746BE4215D9A6B1202100E08EB1CB
:101A7000AA682B68501CA8609954D5E901329A4293
:101A800006F1FF3604D328460391FFF79DFD039925
:101A9000BE42ECD108F1FF3818F8016F002E3FF478
:101AA00072AEAB6828680A2E03F1010200EB030155
:101AB00000F09081AA600E70D5E901329A42EBD312
:101AC0002846FFF781FDE7E7D9F80020131DC9F884
:101AD0000030AB6829681768581C3022A860CA54C7
:101AE000D5E90123934280F0E6802A68581C7821CA
:101AF000A860D154D5E90123934280F0D7800F2FFD
:101B000003D93A4612090F2AFCD84FF080560DE04F
:101B1000AA6081F80080D5E901329A4202D32846B2
:101B2000FFF752FD36093FF42EAEAB68B7FBF6F275
:101B30001AF802802868B8F10A0F06FB127700EB4A
:101B4000030103F10102E3D1AA6000F803B0D5E973
:101B500001329A4280F049812B6899180132D7E707
:101B6000D9F800301A1DC9F80020196881EAE1731C
:101B7000A3EBE173092B40F30E81AA480122A0FBDD
:101B800003C3DB08092B02F10102F8DC42451346CE
:101B900038BF4346039307F00203002E40F09580C0
:101BA000002B00F0B780B8F1000F00F0F680F807C6
:101BB00040F1B0800029C0F2FF807A0700F1C880B0
:101BC00007F00303022B00F0A780CDE9006743462E
:101BD0000A222846FFF714FDD5E5D9F800301A1D72
:101BE000C9F800201968019743460096102228463C
:101BF000FFF706FDC7E5AB682A68581C2521A860D9
:101C0000D154D5E901329A42FFF4BDADD6E6AA60BF
:101C100000F803B0D5E901329A423FD22968114455
:101C20000132A9E54146A1EB080311F8017BD7B1C8
:101C3000AB68D5F800C00A2F03F101020CEB0300DA
:101C400000F0AF80AA600770D5E901329A42EAD36A
:101C500028460391FFF7B8FC0399A1EB080311F89C
:101C6000017B002FE4D19E427FF68DAD202702E05C
:101C7000002E3FF488ADA9682A68481CA860575414
:101C8000D5E90121914206F1FF3604D3284603939A
:101C9000FFF79AFC039BB342EAD174E52846FFF7AD
:101CA00093FCAB6829685A1C194465E52846FFF780
:101CB0008BFCAB6823E72846FFF786FCAB6814E78C
:101CC00070471846002623468BE5002920DB7A075B
:101CD0001ED41BB1B8F1000F3FF46CAFF8073FF50D
:101CE00069AFBEB1039BB342BFF464AF2023AA68BF
:101CF000501CA86028688354D5E90102824206F18D
:101D0000FF3640D236B1039AB242F0D1164651E7BF
:101D1000013EDEE700264DE7B8F1000F7FF455AF36
:101D2000002E6AD0039BB342BFF44FAF3023AA68A2
:101D3000501CA86028688354D5E90102824206F14C
:101D4000FF3618D2002E58D0039AB242EFD13CE7AA
:101D5000AA68531CAB602B682B209854D5E901323C
:101D60009A42FFF42DAF28460491FFF72DFC049909
:101D700026E7034638E52846CDE90413FFF724FC9F
:101D8000DDE90413DEE72846CDE90413FFF71CFC68
:101D9000DDE90413B6E70122F8E646460AE74746BE
:101DA00060E6AA600CF803B0D5E901329A4226D267
:101DB0002B689818013245E7AA68531CAB602B6862
:101DC0002D209854D5E901329A42C1F10001FFF467
:101DD000F7AEC8E7AA6000F803B0D5E901329A422D
:101DE00017D229681144013264E62846FFF7ECFB5C
:101DF000A9682B684A1C19448AE60026E5E62846AD
:101E00000391FFF7E1FBA8682B680399421C184473
:101E100018E72846FFF7D8FBAB6829685A1C194415
:101E200048E600BFCDCCCCCCB4850300FFF778BB2F
:101E30002DE9F041058ACE1C043D2E440746B6FB31
:101E4000F5F6FFF789FB78B3F6B24FF48073013EE5
:101E50000446C5800760838027D08046002509E0BE
:101E60006379AE4203F101036371C8F800000760B3
:101E700080461AD03846FFF76FFB01350028EFD1B6
:101E80006679721E14D02346013082421B68FBD152
:101E90001F684EB1002523682146013538461C468F
:101EA000FFF77CFBAE42F6D100242046BDE8F0816E
:101EB0002768EFE704300121FFF702BBF8B50121E5
:101EC00004460430FFF708FBC0B200B1F8BD6679E4
:101ED000721E12D02346013082421B68FBD11F685C
:101EE000002EF3D0002523682146013538461C46D4
:101EF000FFF754FBAE42F6D1F8BD2768F2E700BF0A
:101F00002DE9F843C788467907FB06F6043E02EB45
:101F1000030C0446664503F1040015468846B0FBF1
:101F2000F7F238BFF51A07FB120012B1013A246824
:101F3000FCD13E1AAE4228BF2E469DB14FF000099B
:101F40000430AD1B2044324608EB090134F0DBFBC2
:101F5000AF42B14424683E464FF0000028BF2E46F1
:101F6000002DEDD1BDE8F8832DE9F843C788467907
:101F7000154607FB06F6043E05EB030C1A1D6645E5
:101F800004468846B2FBF7F038BFF51A07FB10216C
:101F900010B101382468FCD17E1AAE4228BF2E460B
:101FA0009DB14FF0000904312144AD1B324608EBCE
:101FB000090034F0A8FBAF42B14424683E464FF01C
:101FC000000128BF2E46002DEDD1BDE8F88300BFEB
:101FD000826800239360826813618268536182681B
:101FE000D36082685360826813607047704700BF97
:101FF00000B583B0044B0093044A402300F036F848
:1020000003B05DF804FB00BF11200000A40D002008
:1020100002B32DE9F843114B114E8846144643F0A4
:10202000010903270025224608EB0501002002F0E4
:10203000B1FD03461D444FF47A40E41A23B93378C6
:1020400033B1C847013F06D001233370002CEAD1D9
:10205000BDE8F88370473770BDE8F883D08503008A
:10206000A10D0020704700BF02F0AEBEF0B595B0E4
:10207000002415460F4608461E46FFF71BFF38464C
:1020800023460895082205A91A9D09960D950A94DC
:102090008DF82C400C94FFF767FF9DF814308DF8F5
:1020A0001140DDE9061003F00302012ACDE9020127
:1020B00027D0022A04D03846FFF700FF15B0F0BD44
:1020C000BDF81650C3F3C2038DF81030AD090826D1
:1020D000082D2C4628BF0824334622460EA9384630
:1020E000FFF742FF2D1B214608AB02AA0EA826448B
:1020F00000F094FC002DEBD13846FFF7DFFE15B061
:10210000F0BDBDF81460059DC6F38316C3F3C20489
:10211000B2000EA9384608238DF81040C5F3952566
:10212000FFF722FF08AB324628460EA9009302AB08
:1021300000F0CEFB3846FFF7C1FE15B0F0BD00BF82
:1021400008B5FFF791FF0421034800F077FB034B2C
:1021500001225A7108BD00BFDC11040034000020C8
:10216000F0B5324C85B004F58360FFF7C1F904F295
:102170001440FFF7BDF9D4E9013703EA0702D01C88
:1021800004EB800114F8200010F0040044D003F1A7
:10219000020C0E7806F00306012E654635D0022E9D
:1021A00002F1030621D004EB86010028F1D104EBF3
:1021B00082020133D26801923B4004EB830302F0B8
:1021C0000302012ADE6829D0022A23D1BDF8063095
:1021D0009B090333360C05EB93051548FFF794F97B
:1021E00000B16560304605B0F0BD4B880CEB931331
:1021F00007EA0302D11C03F1020C14F82100654622
:1022000004EB810100F00400CFE70B88C3F38313D4
:102210006344EDE70026E0E79D1CC8E7BDF8043005
:10222000C3F38313360C1D44D7E700BFB40E002060
:10223000C81200200B4B0C4810B50022FF21C3F838
:1022400018249960C3E90022C3F8142483F82024D9
:10225000FFF7ECFD044610B90448FFF7B9FE20462D
:1022600010BD00BFB40E0020EC110400F485030083
:1022700021B9124B03EBC00000687047104A0F49A8
:10228000521AD20815D030B40E4D2B88834212D08A
:10229000002303E035F82340844205D001339A42FD
:1022A000F8D1002030BC704701EBC300006830BC9F
:1022B0007047104670470846F8E700BFAC110400AD
:1022C000DC11040088020020094B013903EBC00037
:1022D00003290BD8DFE801F002080604022070474A
:1022E000407970470079704704207047002070479C
:1022F000AC1104002DE9F843DFF8D8900746002020
:102300008846D9F80840FFF721F8D9E90132D9F811
:102310000060134401339B1B012B56D809F21C4566
:1023200001212846FFF7CCF8FFF71AFF014628469F
:10233000FFF7C6F8D9E90132D9F800101344013388
:102340005B1A012BECD90A4003320523023100202D
:1023500049F82230C9F80010FFF700F800211C48A6
:10236000FFF7A4F880F31000731C234009EB8303EC
:1023700000043440033440EA1740D86019F8243090
:1023800067F3C50309F8243039F824306FF3891353
:1023900029F8243059F8242068F39F22134601219C
:1023A00061F301036FF3820349F8242009F8243014
:1023B00099F820341BB906E000F00EF818B1D9E9FD
:1023C00000329A42F8D1BDE8F8833146BBE700BF3E
:1023D000D0120020B40E00202DE9F047914C0023CC
:1023E00084B0C4F81834BFF34F8FD4E9015605EA1E
:1023F0000602D31C04EB830114F82330580719D5C7
:1024000027680B7803F00303012B43D0022B03D181
:102410004B88023505EB931506EA0502D4F818043B
:10242000D31C04EB830128B9AF4239D914F8233007
:102430005B07E6D404EB82026B1CD2680192334046
:1024400004EB830302F00302DB680293022A05F126
:10245000020700F08980012A26D0D4F810543DB13B
:102460002B6828469B689847EB681D68002DF7D1BC
:102470006D486E4B6E49C01AC008000440F002005F
:10248000FFF738FFD4E90030C01A18BF012004B0AC
:10249000BDE8F0870B880235C3F383131D44BBE707
:1024A000676004B0BDE8F087BDF804206148C2F35E
:1024B0008313062B28BF062363F389120233990086
:1024C000ADF80420FFF7B4FC80460028C5D0FFF724
:1024D000F1FC0023082201A94046FFF711FDBDF8D9
:1024E000043013F4707F00F09B806FF0010AAAEBB8
:1024F000050A082506EA070103312B46042204EBEE
:1025000081014046FFF7FCFCBDF8043007F10109EA
:102510000AEB0902C3F3831393424F4605F1040506
:10252000E8D8D4F81834002B64D1D4F8105465B12D
:10253000EB685A7928464146002A57D02B681B6819
:102540009847EB681D68002DF2D14046FFF7B6FCB6
:102550000020FEF7FBFED4F818340BB9C4F8049041
:102560000020FEF7FBFE8DE7BDF8063031484FEA4C
:1025700093194D46502D28BF502565F38F1305F153
:102580000801ADF80630FFF753FC804600283FF401
:1025900064AF26EA070A0AF1010AFFF78BFC4FEA4B
:1025A0008A0A0023082201A94046FFF7A9FC5545E5
:1025B0002BD9EBB2BAF1000F20D006EA0701A3EB4A
:1025C0000A03033104EB8101DDB252460823404681
:1025D000FFF796FC2A460AF1080317494046FFF721
:1025E0008FFC09F1030907EB99099AE71D68002D93
:1025F0009ED1AAE74046FFF761FC43E72A4608233D
:102600000D494046FFF77CFCEBE706EA0701033182
:1026100004EB81012A4608234046FFF771FCE0E7FE
:10262000B9467EE7B40E0020BC110400AC110400D2
:1026300000860300EC110400C00E00202DE9F047D5
:10264000DFF8E4A00746002091468846DAF8084003
:10265000FEF77CFEDAE90132DAF800601344013358
:102660009B1B022B5CD80AF21C4501212846FEF771
:1026700027FFFFF775FD01462846FEF721FFDAE93F
:102680000132DAF80010134401335B1A022BECD943
:102690000A4003320331452300204AF82230CAF8A9
:1026A0000010FEF75BFEB31C23400AEB83030021FE
:1026B0001C48C3F80C90FEF7F9FE80F31000731C61
:1026C00023400AEB830300043440033440EA1740FC
:1026D000D8601AF8243067F3C5030AF824303AF8B2
:1026E0002430012161F389132AF824305AF8242078
:1026F00068F39F22134661F301036FF382034AF8E4
:1027000024200AF824309AF820341BB906E0FFF799
:1027100063FE18B1DAE900329A42F8D1BDE8F087D9
:102720003146B5E7D0120020B40E00202DE9F84F55
:102730003A4C8046002093469A468946A568FEF7A3
:1027400005FED4E90132276813440133DB1B032B58
:1027500061D804F21C4601213046FEF7B1FEFFF7B6
:10276000FFFC01463046FEF7ABFED4E9013221689A
:10277000134401335B1A032BEDD90A4003320431B1
:102780008523002044F822302160FEF7E7FDBA1CC3
:10279000FB1C2A402B4004EB820204EB8303002144
:1027A0001F48C2F80CB0C3F80CA0FEF77FFE80F300
:1027B00010007B1C2B4004EB830300043D400335D9
:1027C00040EA1840D86014F8253068F3C50304F8CF
:1027D000253034F82530022262F3891324F825309D
:1027E00054F8252069F39F221346012161F3010368
:1027F0006FF3820344F8252004F8253094F8203440
:102800001BB906E0FFF7E8FD18B1D4E900329A429F
:10281000F8D1BDE8F88F3946AFE700BFB40E00200D
:10282000D0120020044BD3E900239A4201D0FFF7D5
:10283000D3BD0020704700BFB40E002030B4184D47
:10284000D5F8104400215CB1E3681A798A4204D1BA
:1028500016E0DB681A798A4212D01B68002BF8D187
:10286000C3681971D5F8103493B1DA68C368126877
:102870001A60D5F81034DB68186030BC0846704721
:1028800001310A29DFD14FF0FF31084630BC7047D3
:10289000C5F81004C2681360084630BC704700BF1A
:1028A000B40E002038B5094BD3F81044012583F845
:1028B00020544CB1E3685D71236820465B689847FB
:1028C000E3681C68002CF5D138BD00BFB40E0020B1
:1028D0002DE9F04784B01D460C9C002394F80C8031
:1028E0002373EB8881460E461746002B40D1297A88
:1028F00005290ED06B7AA88873BB404B53F821A0F2
:102900000021FFF7B5FC524603463D492046FEF73D
:1029100067FE062F09D8DFE807F0046A4249525DD6
:10292000330049462046FEF75BFE2B7A052B05D087
:102930006B7A5BB933492046FEF752FE2046FEF71C
:1029400043FE84F80C8004B0BDE8F0872E4A2F497E
:102950002046FEF745FEEDE7FFF7B6FC2C4B2B4972
:1029600053F820202046FEF73BFE297AA888C4E7CA
:10297000254A00922749284A2046FEF731FEB6E74D
:10298000D6E90410D6E900230390D6E902070291A4
:10299000CDE9000749462046FEF722FEC5E7494635
:1029A000D6E900232046FEF71BFEBEE7B168D6E954
:1029B0000023204600914946FEF712FEB5E7D6E90E
:1029C0000201D6E900230191009049462046FEF716
:1029D00007FEAAE7D6E90371B068D6E900230291A1
:1029E000CDE9000749462046FEF7FAFD9DE732682B
:1029F00049462046FEF7F4FD97E700BF84860300B2
:102A0000788603005C830300708603005490030003
:102A1000188603005886030050860300082900D951
:102A200070472DE9F04F1D46904600232A7B2B73FB
:102A300085B0B8F80630039207460E46002B7BD1CE
:102A400098F80810052911D098F80930B8F8040052
:102A5000002B63D13C4B53F821400021FFF708FCC9
:102A60002246034639492846FEF7BAFDDFF8FCB096
:102A7000DFF8FC90002405E03A5D0134FEF7B0FD7C
:102A8000082C09D0A64249462846F5D859460134B3
:102A9000FEF7A6FD082CF5D12D49DFF8D8B0DFF8F8
:102AA000D8902846FEF79CFD00240CE017F804A0FF
:102AB000BAF17E0F23D92E22494628460134FEF76B
:102AC0008FFD082C08D0A642F0D85946284601347C
:102AD000FEF786FD082CF6D198F80830052B02D0B9
:102AE00098F80930A3B91B492846FEF779FD284616
:102AF000FEF76AFD039B2B7305B0BDE8F08F33F042
:102B0000CBFD50445246437813F0970FD3D0D3E710
:102B1000114A12492846FEF763FDE4E7FFF7D4FBAC
:102B20000F4B0E4953F820202846FEF759FD98F820
:102B30000810B8F804008DE7074A009209490A4ACC
:102B40002846FEF74DFD7BE7848603007886030068
:102B5000488603005C8303007086030054900300E2
:102B6000188603005886030050860300448603003D
:102B70003C860300808603004C86030010B570B1CC
:102B800001280BD10D4C2369A0703BB1D3E9002380
:102B90000120226198472369002BF7D110BD074C13
:102BA000A36801226270002BF8D0D3E90023002033
:102BB000A2609847A368002BF7D1EFE770130020BD
:102BC00038B50A4C23786BB909486360A360236168
:102BD000E36000F0EBF8054600F0F6F801232370FF
:102BE000284638BD8525284638BD00BF7013002013
:102BF0007D2B000038B5154CA378054673B110B194
:102C00004368012098470020FEF7A0FBE3680133EA
:102C1000E3600020BDE83840FEF7A0BB03F0FF00F2
:102C2000FEF794FB65B1226942B1954208D0134684
:102C300001E09D4204D01B68002BFAD12A60256177
:102C4000E368002BE2D100F0D1F8DFE77013002039
:102C500038B5084C0020FEF779FBE368013BE360E0
:102C6000E56815B900F0DAF8A5700020BDE8384035
:102C7000FEF774BB701300204FF08043D3F81804A4
:102C8000C0F30040704700BF38B5154C6378054667
:102C900073B110B14368002098470020FEF756FB3F
:102CA0006368013363600020BDE83840FEF756BB1F
:102CB00003F0FF00FEF74AFB65B1A26842B19542FE
:102CC00008D0134601E09D4204D01B68002BFAD1C6
:102CD0002A60A5606368002BE2D100F0ABF8DFE763
:102CE0007013002038B5084C0020FEF72FFB6368F6
:102CF000013B6360656815B900F0AEF865700020AF
:102D0000BDE83840FEF72ABB701300200A4A0223B0
:102D1000C2F80435BFF36F8FBFF34F8FC2F80805B9
:102D2000D2F80034002BFBD00023C2F80435BFF3E7
:102D30006F8FBFF34F8F704700E001409AB32DE9CA
:102D4000F047194CA0EB01080D468E18C0004FF05B
:102D5000FF0E4FF0010C002708EB050222F00302E2
:102D600000F01809116815F8013BC4F804C50EFA03
:102D700009FA21EA0A01BFF36F8FBFF34F8F03FAFD
:102D800009F30B441360D4F80034002BFBD0C4F8D3
:102D90000475BFF36F8FBFF34F8FAE4200F1080091
:102DA000DAD1BDE8F087704700E00140054A1379A9
:102DB0002BB901211060537118461171704785209D
:102DC000704700BF84130020074B1A68D20704D451
:102DD000C021012283F800131A604FF080430122C2
:102DE000C3F81825704700BF00E100E010B4094B9C
:102DF000094A0021196083B01B680193019C4FF0C0
:102E0000804102200123C1F80403136003B05DF880
:102E1000044B70470401004008000040044B0122AD
:102E20001A604FF08042D2F81834DB03FBD47047AD
:102E30000C000040074B00221A6082B01B6801930F
:102E400001994FF080430122C3F804231A6002B0B5
:102E5000704700BF00010040074B01221A604FF08D
:102E60008042D2F80C3403F00113B3F1011FF8D003
:102E7000024B00225A717047040000408413002066
:102E800010B5154B1A6882B07AB10021134A196047
:102E90001B68507900934FF080410123009CC1F8DA
:102EA000083310B91168537188470D4B1A6882B105
:102EB00000221A601B6801934FF080420221074BE9
:102EC0000198C2F808131B68012002B0BDE8104049
:102ED000184702B010BD00BF00010040841300205D
:102EE0000401004030B5204C94F86A5083B0002DA6
:102EF00036D14FF0FF332946062204F16400C4E9BD
:102F00000033C4E90233C4E90433C4E90633C4E935
:102F10000833C4E90A33C4E90C33C4E90E33C4E905
:102F20001033C4E91233C4E91433C4E916332366F9
:102F300033F00DFC0D4A0E4B0E491D60C02082F887
:102F40000603402010601B68019301984FF0004376
:102F50000122284684F86A20C1F8043303B030BD4A
:102F6000082003B030BD00BF8C13002000E100E05A
:102F70007C61004000600040034B93F86A00003021
:102F800018BF0120704700BF8C130020F0B5744BB0
:102F90001C1894F93050002D6ADA8E78C6F340067A
:102FA0009646002E5ED11D6A013500F0C4800924CA
:102FB0000C2553F8247001375DD004F1010C53F84F
:102FC0002C70013700F0C280A71CAF4248D253F8E2
:102FD0002720013200F0BC8004F1030CAC453FD245
:102FE00053F82C70013700F0B18004F1040CAC45AB
:102FF00036D253F82C70013700F0A88004F1050C8C
:10300000AC452DD253F82C70013700F09F8004F1AD
:10301000060CAC4524D253F82C70013700F0968092
:1030200004F1070CAC451BD253F82C70013700F0AB
:103030008D8004F1080CAC4512D253F82C70013786
:1030400000F0848004F1090CAC4509D253F82C70CF
:1030500001377BD00A34AC4202D2DC6A013409D099
:103060000420F0BD1D68013574D001240825A0E7B7
:103070000820F0BD0B241F1865B243F824E087F840
:103080003050002E5ED08A7854071AD4D60741D427
:103090001F284A7887BF334E00F01F0404464FF0C4
:1030A000A04604F5E074920046F824202E4EC40891
:1030B00000F0070C375D012202FA0CF23A43325558
:1030C0008A780C7812F0020209D1083D2B44104690
:1030D00093F8602042EA841483F86040F0BDAB00AE
:1030E00003F1804303F5C0430202D3F8101521F425
:1030F0004F3121F44071C3F810152404D3F8101592
:1031000004F4403402F47C5222430A43C3F81025ED
:103110000020F0BD1F2887BF124A00F01F0404469C
:103120004FF0A04202EB8402D2F8004724F00204E0
:10313000C2F80047BAE7082684F83060C3F820E0F8
:10314000354634461C4484F858009CE7644692E7B0
:103150003C4690E700251A6084F8305093E700BFA2
:103160008C13002000030050F013002070B43A4D7F
:103170002E1883B096F93030072B20DD2B4493F8BE
:1031800058309B09032B45D0012B14BF4FF440311D
:103190004FF400311F284DD900F01F002F4B03EBD7
:1031A0008000D0F8002722F44032C0F80027D0F881
:1031B00000370B43C0F8003703B070BC7047DAB279
:1031C000072AF9D8980000F1804000F5C04003F1CB
:1031D0004002D0F81045920092B244F0010402F18E
:1031E0008042C0F8104502F5C04200200190019CC9
:1031F00010600029E0D096F9302055F82220002AEE
:10320000DAD00122164902FA03F3C1F8043303B0FD
:1032100070BC70471F2810D9104BD3F8103500F040
:103220001F00C34013F0010F0CBF4FF400314FF4E7
:103230004031B3E74FF0A043B1E74FF0A04213464F
:10324000D2F81025C24012F0010F14BF4FF44031E4
:103250004FF40031A3E700BF8C130020000300509F
:10326000006000401F288ABF054B4FF0A04300F0CC
:103270001F00D3F8103523FA00F000F0010070476A
:10328000000300502DE9F047002388B0CDE9023358
:10329000CE4A1668012E00F03B821E46CC4B1A68BF
:1032A000012A00F02782CB4B1A68012A00F0148211
:1032B000C94B1A68012A00F00182C84B1A68012A1A
:1032C00000F0EE81C64B1A68012A00F0DB81C54B85
:1032D0001A68012A00F0C881C34B1A68012A00F05D
:1032E000B581C24B1A68012A0FD100221A601B68EF
:1032F00001934FF0A042019BD2F81025BC4B0292E3
:10330000D3F81035039346F0004616F0FF0F1AD09D
:10331000B84F00240125A30003F180432E4203F59A
:10332000C0434FEA45050BD0D3F8100557F82420C9
:10333000D3F81015C0F30520C1F3014102B1904745
:103340000134082CE7D1002E02DB08B0BDE8F0877D
:10335000A84CA74F4FF0FF33CDE9063394F9603006
:103360000DF1100800225D1CC8F8042004924FF0F3
:10337000010600F0F4805FFA83FC2CF0C00008AB7B
:103380004FEAD00903EB090E0CF007031EF8082CD6
:1033900006FA03F312EA030521D022184FEA9C1122
:1033A00092F9302054F82220002A00F029810329C4
:1033B00000F028811F2800F2F98005464FF0A04C4C
:1033C0000CEB850C1EF8185CDCF800E71D40CEF312
:1033D000014E40F0DF80BEF1030F00F0BF8194F991
:1033E0006130581C32D0DBB223F0C00008AA4FEA8B
:1033F000D00E02EB0E0C03F007011CF8082C06FAA5
:1034000001F912EA090F21D02218990992F9302006
:1034100054F82220002A00F0FB80032900F0FB80F2
:103420001F2800F2E98003464FF0A04E0EEB830305
:103430001CF818ECD3F800C71EEA090FCCF3014CB6
:1034400040F0B880BCF1030F00F0AE8194F9623017
:10345000591C30D0DBB223F0C00008AA4FEAD00ECE
:1034600002EB0E0C03F007011CF8082C06FA01F918
:1034700012EA090F1FD02218990992F9302054F846
:103480002220002A00F0D880032900F0D8801F28CD
:103490007CD803464FF0A04E0EEB83031CF818ECCB
:1034A000D3F800C71EEA090FCCF3014C64D1BCF17C
:1034B000030F00F0658194F963305A1C34D0DBB2FD
:1034C00023F0C00008AA4FEAD00E02EB0E0C03F066
:1034D00007021CF8081C06FA02F2114224D004EB81
:1034E0000009990999F9309054F82990B9F1000F21
:1034F00000F09880032900F098801F288BBFBE46FB
:103500004FF0A04E03F01F0303460EEB83031CF89D
:1035100018ECD3F800C71EEA020FCCF3014C20D1FF
:10352000BCF1030F00F00181002D3FF40EAF4FF00E
:10353000A0430299D3F81035D7F81025994203D14A
:10354000039991423FF401AFDDE90401CDE9023274
:1035500094F960305D1CCDE906017FF40CAF0025C5
:103560003DE7BCF1020FDFD1032900F03481B9F14E
:10357000000F40F0F180D7E7BCF1020F9BD1032987
:1035800000F02681002A96D0904794E703F01F03AD
:10359000BE4681E7BEF1020FE1D1032900F021818F
:1035A0000025002A3FF41BAF904718E70CF01F05D9
:1035B000BC4605E7BCF1020F7FF448AF032900F0D9
:1035C0000D81002A3FF442AF90473FE70061004081
:1035D00004610040086100400C610040106100403F
:1035E00014610040186100401C6100407C61004093
:1035F000000300508C13002003F01F03BE4615E7A4
:103600000329ACD118F809501D4308F80950D1E638
:1036100003297FF41BAF18F80EA04AEA090A08F83C
:103620000EA0FDE603297FF47FAF18F80EA04AEA4A
:10363000020A08F80EA060E703297FF43CAF18F8EF
:103640000EA04AEA090A08F80EA020E7664AD2F856
:10365000042317067FF545AE00221A601B6800930D
:10366000009B46F080063CE65F4AD2F804235206EF
:103670007FF532AE00221A601B680093009B46F073
:10368000400629E6584AD2F8042391067FF51FAE7A
:1036900000221A601B680093009B46F0200616E685
:1036A000514AD2F80423D0067FF50CAE00221A60EE
:1036B0001B680093009B46F0100603E64A4AD2F8C6
:1036C000042314077FF5F9AD00221A601B680093EC
:1036D000009B46F00806F0E5434AD2F8042355075C
:1036E0007FF5E6AD00221A601B680093009B46F050
:1036F0000406DDE53C4AD2F8042397077FF5D3ADF5
:1037000000221A601B680093009B46F00206CAE57F
:103710003549D1F8041311F0010104D01360136886
:103720000093009BBAE50E46B8E503297FF41FAF6E
:103730004FF4003CD3F8002722F44032C3F80027AE
:10374000D3F80027013542EA0C02EDB2C3F8002796
:10375000B9F1000F3FF4EBAEC847E5E603297FF46B
:1037600020AF4FF40035DCF8003723F44033CCF8B9
:103770000037DCF800372B43CCF80037012510E781
:1037800003297FF4FFAE4FF4003ED3F800C72CF4BA
:10379000403CC3F800C7D3F800C701354EEA0C0C13
:1037A000EDB2C3F800C7EDE603297FF40AAF4FF48A
:1037B000003ED3F800C72CF4403CC3F800C7D3F850
:1037C00000C701354EEA0C0CEDB2C3F800C7F8E6AD
:1037D0004FF4403ED9E74FF4403CABE74FF4403E56
:1037E000E7E74FF44035BEE7006000400220FCF7F9
:1037F000E7BD00BF2DE9F0470D460646FCF7FAFD90
:1038000003281ED8012D04461DD00ED3022D18D139
:103810001B4B00EB40041C44657895B1194B1B68A9
:103820007BB12846BDE8F04718471748FDF75AFD19
:10383000134B164A04EB44010B44125D9D78AA42D7
:10384000EBD0BDE8F0870E4F4FEA400808EB0003CD
:10385000FA18FD5C53782BB9A04447440B4BBA7857
:103860001A55DAE7DFF8289007484A464FF4004136
:10387000FDF7EAFC0028EFD189F80060ECE700BF13
:103880005C140020701400201C1400207814002008
:10389000F813002010B50078FCF7ACFD03280BD816
:1038A000064B00EB40001844407828B1044B1B68DD
:1038B00013B1BDE81040184710BD00BF5C140020D4
:1038C00070140020B44B1B68DB0700D4704770B540
:1038D000B24DB34E2B7834786BB1B24B1B780020CD
:1038E0002870002B4BD0FCF72BFD0120FCF728FDA6
:1038F0000320FCF725FD172C40D8DFE814F0B600B4
:10390000F400F400DC000801CA001301EE005000CE
:103910004300500043006100180018001800180010
:103920001800660077008B009F005D005D009E48D8
:10393000FDF7D8FCD4F11104054600F00081002801
:1039400040F0FD80012C13D0C82303FB04F44FF496
:10395000FA704FF400430021C3FB04014FF47A7264
:10396000002334F00FFA2A4601468F48FDF76CFC1D
:103970000220FCF7D1FC8B4B01221A7070BDFCF7C2
:10398000F3FCB8E7012318462B70FCF719FD002261
:103990004FF480418548BDE87040FDF755BC0123D8
:1039A00018462B70FCF70CFD002240F6CD417F48F5
:1039B000BDE87040FDF748BCFCF7ECFC347070BD0E
:1039C000FCF7E8FC0C23337070BD764B1B78002BA2
:1039D00000F0BF800020FCF7B3FC0120FCF7B0FC36
:1039E0000320FCF7ADFC1223337070BD6D4B1B78C8
:1039F000002B00F0B1800020FCF7A2FC0120FCF7B6
:103A00009FFC0320FCF79CFC0020FCF785FC1323A3
:103A1000337070BD634B1B78002B00F0AD8000202D
:103A2000FCF78EFC0120FCF78BFC0320FCF788FCE4
:103A30000120FCF771FC1423337070BD594B1B78C7
:103A4000002B00F083800020FCF77AFC0120FCF7BB
:103A500077FC0320FCF774FC0020FCF75DFC0120E0
:103A6000FCF75AFC1523337070BD4E4B1B78002BAE
:103A700000F08A800020FCF763FC0120FCF760FC6A
:103A80000320FCF75DFC4948FDF72CFC0023337054
:103A900070BD0020FCF72CFC002860D00020FCF753
:103AA0004FFC05233370002241F69A113F48BDE8D0
:103AB0007040FDF7C9BB0020FCF71AFC00285ED05F
:103AC0000020FCF73DFC46F26661032333700022C0
:103AD0003648BDE87040FDF7B7BB0020FCF71CFC82
:103AE0000723337070BD0020FCF702FCD0B3002028
:103AF000FCF726FC022C4EF2666118BF4FF4003131
:103B0000347000222948BDE87040FDF79DBB0020BD
:103B1000FCF7EEFBD8B30020FCF712FC4FF40031A9
:103B20000423D3E70020FCF74BFC0623337000226C
:103B300040F6CD411D48BDE87040FDF785BB022031
:103B4000FCF7FEFB174B00221A7070BDFCF70CFC53
:103B500082E7FCF709FC46E7FCF706FC54E7FCF7B4
:103B6000DBFB9EE7FCF7D8FB43F2333141F69A13B7
:103B7000022C08BF1946C3E7FCF7F6FB58E7FCF731
:103B8000CBFB41F69A11A0E7FCF7EEFB7BE7FCF7D5
:103B9000C3FB43F23331C3E7681400206C140020E8
:103BA00074140020F9130020FC1300203C140020A2
:103BB00038B5C54B1C6814F0010401D1204638BD4E
:103BC000C24C2378054663B1C14B1B78002020709E
:103BD00023B3FCF7B5FB0120FCF7B2FB0320FCF795
:103BE000AFFB172D00F26D81DFE815F0C300EC008C
:103BF000EC001001D90023010201360128001B004E
:103C000028001B006A0071007100710071007100D2
:103C10009A00AD0035004B0064006400FCF7A4FB83
:103C2000DFE7012318462370FCF7CAFB00224FF49C
:103C30008041A848BDE83840FDF706BB012318467F
:103C40002370FCF7BDFB002240F6CD41A148BDE842
:103C50003840FDF7F9BA9E4B1B78002B00F0168117
:103C60000020FCF76DFB0120FCF76AFB0320FCF74A
:103C700067FB0120FCF750FB974B14221A700024BD
:103C80009CE7934B1B78002B00F003810020FCF78E
:103C900057FB0120FCF754FB0320FCF751FB0020ED
:103CA000FCF73AFB0120FCF737FB8B4B15221A700F
:103CB000002483E7FCF76EFB874B00241D707DE733
:103CC000FCF768FB844B0C221A70002476E78348CB
:103CD000FDF708FB0446D5F1110000F0C580002C6B
:103CE00040F0C280012814D0C82505FB00F54FF430
:103CF00000434FF4FA700021C3FB05014FF47A72C0
:103D0000002334F03FF8224601467448FDF79CFA40
:103D100004460220FCF700FB6D4B01221A704DE7B0
:103D20006B4B1B78002B00F0AE800020FCF708FBEB
:103D30000120FCF705FB0320FCF702FB664B122277
:103D40001A7000243AE7624B1B78002B00F0938036
:103D50000020FCF7F5FA0120FCF7F2FA0320FCF74B
:103D6000EFFA0020FCF7D8FA5B4B13221A700024FC
:103D700024E7574B1B78002B00F08E800020FCF7C7
:103D8000DFFA0120FCF7DCFA0320FCF7D9FA5148EE
:103D9000FDF7A8FA504B002204461A700EE70020E7
:103DA000FCF7A6FA002869D00020FCF7C9FA4FF406
:103DB0000031494B474804241C700022BDE83840BC
:103DC000FDF742BA0020FCF793FA00286CD00020DF
:103DD000FCF7B6FA022D4EF2666118BF4FF40031BF
:103DE0003D4B3C481D700022BDE83840FDF72CBA21
:103DF0000020FCF7E5FA384B364806241C700022F8
:103E000040F6CD41BDE83840FDF71EBA0020FCF772
:103E10006FFA002843D00020FCF792FA46F2666160
:103E20002D4B2C4803241C700022BDE83840FDF7C0
:103E30000BBA0020FCF75CFA00283FD00020FCF70A
:103E40007FFA254B234805241C70002241F69A1165
:103E5000BDE83840FDF7F8B90020FCF75DFA1E4BCD
:103E600007221A700024A9E60220FCF769FA184B11
:103E700000221A70A2E6FCF777FA72E7FCF74CFA18
:103E800043F2333195E7FCF76FFA57E7FCF76CFA2A
:103E9000EFE6FCF769FA02E7FCF766FA77E7FCF76A
:103EA0003BFA41F69A11BBE7FCF736FA43F233319D
:103EB00041F69A13022D08BF194691E7FCF72CFA38
:103EC000BFE700247AE600BF681400206C140020CD
:103ED000F91300203C14002074140020FC1300206F
:103EE00038B5244B244A19608307106000F001059F
:103EF00003D4CDB92C46204638BD204B20480E2493
:103F00000F2210211C701124DA7099715C7240F23A
:103F100066620421FCF762FE0446B8B115B10120C7
:103F2000FCF77AFA204638BD0120FCF775FA154AED
:103F300015480021FDF776F904460028F2D1134A0E
:103F400013480121BDE83840FDF76CB9FCF79EFE2F
:103F500004460028E2D101460E4A0F48FDF762F9F7
:103F60000446002DDED00120FCF756FA002CD9D1F2
:103F7000DDE700BF70140020681400205C140020EE
:103F800008870300C538000030870300ED370000C4
:103F900028870300953800002C87030008B51B789C
:103FA000802B00D008BD0D4B072201201A70FCF7B2
:103FB0009FF960B9FCF7B0F90120FCF7ADF90022D8
:103FC00041F69A110648BDE80840FDF73DB90020CA
:103FD000FCF7B6F90120FCF7B3F9F0E7AC140020C8
:103FE000B0140020420700D4704708B5084615F009
:103FF00030FD88B1831E022B0A4A06D906231370AE
:104000001846BDE80840FFF7D3BD072313701846D4
:10401000BDE80840FFF7CCBD024A1070BDE808407B
:10402000FFF7C6BD9D14002008B51C4B1B78032B61
:1040300027D8DFE803F0211207020120BDE808407D
:10404000FCF76AB90120FCF7BBF9002240F6CD412C
:104050001348BDE80840FDF7F7B80120FCF748F920
:1040600080B90120FCF758F941F69A1100220C485A
:10407000BDE80840FDF7E8B80120BDE80840FCF7BE
:104080005FB908BD0120FCF75BF946F266610022CA
:104090000348BDE80840FDF7D7B800BF9C140020D6
:1040A0007C14002008B52C4A1378013BDBB2137056
:1040B00083B10120FCF71CF9A0B9FCF72DF9012010
:1040C000FCF72AF9002241F69A112448BDE808407D
:1040D000FDF7BAB8224B1B78032B0DD8DFE803F0AD
:1040E000121B2B090020FCF72BF90120FCF728F903
:1040F000E8E70120FCF710F91A4B1878BDE80840F2
:10410000FFF756BD0120FCF71BF9164B1878BDE8E8
:104110000840FFF74DBD0120FCF7EAF8A8B10120E7
:10412000FCF70EF946F2666100220F48FDF78CF8A5
:104130000028E1D008BD0120FCF742F9002240F63A
:10414000CD410948FDF780F8F2E70120FCF7E4F8DB
:1041500041F69A11E8E700BFAC140020B01400202B
:104160009C1400209D1400207C14002070B5134A7C
:10417000134E144B00242146147005460C22304681
:104180001C7032F0E4FA21460F4B104A104833609D
:10419000FDF748F8044628B901460E4A0E48FDF7D7
:1041A00041F804462A460D49284609F0D7FD28461D
:1041B000034909F021FD204670BD00BF9D14002079
:1041C000A01400209C1400209D3F00002940000006
:1041D00034870300A540000038870300E53F000056
:1041E000F0B502F1080583B007460C46164695E87F
:1041F0000700019700F0F0FA053000F073FAA042D2
:104200002ADC0146019800F073FA019B02AC1844C5
:1042100044F8040D0421204600F09AFAB27DF37DA3
:1042200000216FF3070162F3820163F3C3012046AB
:10423000C9B200F08DFA2046012100F089FAB18A56
:10424000204600F08BFA204695E80E0000F0A0FA18
:104250000198C01B03B0F0BD6FF00100FAE700BF8A
:1042600030B50B4683B01146054601AA18460093A7
:1042700000F04CFADDE900320344022A04460093C0
:1042800002DC204603B030BD684600F05BFA05282A
:10429000F7D1684600F056FA01242860F1E700BF24
:1042A00070B582B0161E044601900D4619DD03203C
:1042B00000F018FA854227DB0146019800F018FA51
:1042C000019B02AD184445F8040D1821284600F062
:1042D0003FFA3146284600F041FA0198001B02B02F
:1042E00070BD012000F0FEF9854201460CDB01980B
:1042F00000F0FEF9019A02AB104443F8040D1821B6
:10430000184600F025FAE8E76FF0010002B070BD32
:1043100082B030B583B006AC84E80C0006AB05462D
:104320000C4693E80700019500F056FA013000F0C2
:10433000D9F9A04218DC0146019800F0D9F9019B97
:1043400002AC184444F8040D1621204600F000FA8F
:1043500006AB20460ECB00F01BFA0198401B03B0C1
:10436000BDE8304002B070476FF00100F7E700BFD2
:104370002DE9F04184B090460AAA06460D4607CAC8
:1043800001AC84E807001F46009600F025FA0230D1
:1043900000F0A8F9854221DB0146009800F0A8F959
:1043A000009B04AD184445F8100D0721284600F085
:1043B000CFF900216FF3070168F3461167F3041189
:1043C0002846C9B200F0C4F9284694E80E0000F06F
:1043D000DFF90098801B04B0BDE8F0816FF00100A8
:1043E000F9E700BF82B070B584B008AC84E80C0077
:1043F00006460D4694E8070001AC84E807000096E5
:1044000000F0EAF9013000F06DF9854218DB014651
:10441000009800F06DF9009B04AD184445F8100DAC
:104420000921284600F094F9284694E80E0000F08F
:10443000AFF90098801B04B0BDE8704002B070472F
:104440006FF00100F7E700BF10B50B4682B01146D0
:10445000044601AA1846009300F058F9DDE900323D
:104460001844022A009003DC0023184602B010BD55
:10447000684600F067F91B28F6D1684600F062F93B
:1044800001232060F1E700BF10B50B4682B0114652
:10449000044601AA1846009300F038F9DDE900321D
:1044A0001844022A009003DC0023184602B010BD15
:1044B000684600F047F91D28F6D1684600F042F939
:1044C00001232060F1E700BF2DE9F04383B002AF84
:1044D000002447F8044DDDE90D4581460E4620468F
:1044E000904629463A4600941F4600F00FF9DDE950
:1044F000003218441444231AAB42009003DD00201C
:1045000003B0BDE8F083684600F01CF90C28F6D132
:10451000684600F017F9002360F30703C3F30102B4
:1045200043F3C011C3F34110C3F3001389F8001023
:10453000306088F800300A9BD1B21A70D1B10129DD
:104540001BD0684600F0FEF80A9B1871684600F020
:10455000F9F80A9B5871684600F0ECF80A9B38801D
:104560001B7883B1009B0C9AE41A14600B9A01200B
:104570001360C5E73368032B0FD0684600F0DAF804
:104580000A9B9880E7E73268009B032AEBD10A9ADE
:104590000A9992684B601344E5E7684600F0CAF850
:1045A0000A9B9860D7E700BF2DE9F04182B00DF17A
:1045B000080C00244CF8044D089D009380460F46DB
:1045C00018461646294662461C4600F09FF8DDE96B
:1045D000002310441C44241AAC42009004DD002344
:1045E000184602B0BDE8F081684600F0ABF80D282F
:1045F000F5D1684600F09EF8A8F80000684600F083
:1046000099F83880684600F09DF801233070E7E79C
:104610002DE9F04383B00DF1080C00260A9D4CF8FB
:10462000046D8146884618461746294662461C4650
:10463000009300F06BF8DDE9002310441C44231ABA
:10464000AB42009003DD002003B0BDE8F083684674
:1046500000F078F80A28F6D1684600F06BF8A9F85F
:104660000000684600F066F8009BA8F80000E41A15
:10467000C7E90064BB600120E6E700BF2DE9F04117
:1046800082B00DF1080C00244CF8044D089D0093F5
:1046900080460F4618461646294662461C4600F0DC
:1046A00035F8DDE9002310441C44241AAC42009084
:1046B00004DD0023184602B0BDE8F081684600F032
:1046C00041F80B28F5D1684600F034F8A8F800004E
:1046D000684600F02FF83880684600F033F8012370
:1046E0003070E7E7FF28CCBF03300130704700BFD0
:1046F000FF290346CAB202DC01201A70704782709B
:1047000009120122417003201A70704700290EDD42
:104710000378012B02D0136001207047022906DDC7
:104720004178837803EB01231360032070474FF037
:10473000FF307047036819785A780233036002EB40
:10474000012070470368024613F8010B136070479D
:104750000368197003680133036070470029026819
:10476000B4BF01F1FF030B461B1210B413700268B3
:104770004B42DBB2C9B202F1010458BF5942046096
:10478000517003685DF8044B01330360704700BF4C
:1047900070B584B004AC04E90E00029D002D0446FF
:1047A0000FDC019D5DB1284632F01AFC2946064611
:1047B0000246206831F0A7FF20683044206004B032
:1047C00070BD2A460399006831F09DFF23681D449F
:1047D000256004B070BD00BF84B004AB03E90700DE
:1047E000019810B9029804B0704704B032F0F8BBD9
:1047F00070B582B0054602200C4601951646FFF7BB
:1048000071FFA04214DC01460198FFF771FF019B84
:1048100002AC184444F8040D01212046FFF798FF2C
:1048200020463146FFF794FF0198401B02B070BD4F
:104830006FF00100FAE700BF2DE9F04182B00546B4
:1048400006200C46019590461F469DF82060FFF714
:1048500049FFA0421DDC01460198FFF749FF019B7B
:1048600002AC184444F8040D0D212046FFF770FFF8
:1048700041462046FFF772FF39462046FFF76EFF9C
:1048800020463146FFF764FF0198401B02B0BDE8A7
:10489000F0816FF00100F9E72DE9F04782B007469B
:1048A0000A9E019034688A46914698464CB3204649
:1048B00032F096FB0546681DFFF714FF504524DCD7
:1048C00001460198FFF714FF019B02AC184444F81D
:1048D000040D0A212046FFF73BFF49462046FFF71B
:1048E0003DFF41462046FFF739FF3168019851B13D
:1048F0002A4631F008FF01982844C01B02B0BDE8E9
:10490000F0877568D7E7B168F2E76FF00100F5E767
:104910002DE9F04182B0054606200C4601959046EF
:104920001F469DF82060FFF7DDFEA0421DDC01461A
:104930000198FFF7DDFE019B02AC184444F8040D1A
:104940000B212046FFF704FF41462046FFF706FFF4
:1049500039462046FFF702FF20463146FFF7F8FEB2
:104960000198401B02B0BDE8F0816FF00100F9E74B
:104970002DE9F04782B006460B9DBDF828702C78D3
:1049800001908A46914698467CBBA8680430FFF7A0
:10499000A9FE504547DC01460198FFF7A9FE019B9F
:1049A00002AC184444F8040D12212046FFF7D0FE53
:1049B00000216FF307012B7869F3C71168F34611E3
:1049C00063F30101C9B22046FFF7C2FE3946204613
:1049D000FFF7C4FE2B7873B1012B1ED0022B13D02E
:1049E0000198801B02B0BDE8F087013C012C94BF08
:1049F00006200420CBE7D5E90112019831F083FEAF
:104A0000AB6801981844ECE729792046FFF7A0FE2F
:104A100069792046FFF79CFEE2E72046A988FFF768
:104A20009DFE0198DDE76FF00100DBE72DE9F04323
:104A300083B002AE002446F8044DDDE90A45814604
:104A40008846204617462946324600941E46FFF700
:104A50005DFEDDE9003218441444241AAC42009093
:104A600004DD0023184603B0BDE8F0836846FFF775
:104A700069FE1328F5D16846FFF764FEC0F34110C4
:104A8000C9F800006846FFF755FEA8F80000684620
:104A9000FFF750FE38806846FFF754FE0123307060
:104AA000E0E700BFF0B51D4683B01B7801900646D5
:104AB0000C46174633BBA8680430FFF713FEA0422C
:104AC0003EDC01460198FFF713FE019B02AC18443F
:104AD00044F8040D14212046FFF73AFE29782046B9
:104AE00001F00301FFF734FE39462046FFF736FE9A
:104AF0002B786BB1012B1DD0022B12D00198801B9B
:104B000003B0F0BD013B012B94BF06200420D4E785
:104B1000D5E90112019831F0F6FDAB68019818440F
:104B2000EDE729792046FFF713FE69792046FFF764
:104B30000FFEE3E72046A988FFF710FE0198DEE7A5
:104B40006FF00100DCE700BF70B582B002AB00245B
:104B500043F8044D15460C461A460646294620469B
:104B60000094FFF7D3FDDDE9003218441444241A01
:104B7000AC42009003DD0023184602B070BD6846C9
:104B8000FFF7E0FD1528F6D16846FFF7D3FD0123B6
:104B90003080F1E72DE9F84F4400DFF85CB12618CA
:104BA0000BEBC6068146F76A012F8A46904667D00E
:104BB0003DD3022F30D100F1010909EB4909756A93
:104BC0004FEAC9090027B36A346AAB4203F1FF32E6
:104BD0009CBF1B1903F1FF33A4EB05048CBF531BCF
:104BE0005B1B0BEB0902444528BF44469C425068BE
:104BF00028BF1C4628445146224631F084FD336AC2
:104C000025449D422744A8EB0408A24408D07562BD
:104C1000B8F1000FD7D100E000273846BDE8F88F83
:104C200000231D467362B8F1000FCCD1F5E7B36ADB
:104C3000756AAB429CBF326A9B18013B5B1B98456F
:104C4000EBD8044400F101090BEBC40409EB49095A
:104C50000BEBC90B266ADBF80400761BB045284431
:104C600043D33246A8EB060531F04DFD0AEB0601B1
:104C7000DBF804002A4631F046FD47466562CCE782
:104C8000D6E90825B76AAF4298BFBF18461C013F56
:104C900006EB46067F1B0BEBC606474528BF47467B
:104CA0007068A2EB05084745284412D3A144424648
:104CB000A7EB08050BEBC90B31F025FD0AEB08014A
:104CC00070682A4631F01FFDCBF824503846BDE805
:104CD000F88FA1440BEBC90B3A463D4431F013FD6C
:104CE000CBF824503846BDE8F88F4246454431F0B1
:104CF0000AFD4746656290E7C4D100202DE9F041E6
:104D00002B4C94F800C00546884616461F46BCF159
:104D1000000F23D02369AB4246D90020FCF716FBD5
:104D20005DB92A46154404EBC504069BE3620020E6
:104D3000FCF714FB0020BDE8F0816B1C03EB430380
:104D4000DB006A00511904EBC10144F803802344DD
:104D500000200F625E6088624862E3E7154B1648E8
:104D6000A3610222C4E904224FF40071134AA36430
:104D70001023C4F828C02365C4F824C0C4F82CC08C
:104D8000C4F858C0C4F854C0C4F85CC0E0612162E3
:104D9000E2640B49E01D32F006F90A49204632F080
:104DA00002F92023A371B5E74FF0FF30C3E700BF3E
:104DB000C4D100203C870300E0140020D014002060
:104DC000488703004C87030038B5114C114B12483B
:104DD000E36110254FF40073104A11492362E06427
:104DE00000232565E01D0225A3626362E362A365DB
:104DF0006365E365A261A264C4E9045532F0D3F8A7
:104E00002046084932F0CFF82023A37138BD00BFF7
:104E1000C4D10020E0140020D01400203C870300FF
:104E2000488703004C87030010B44FF080414FF0D7
:104E300080520020C1F80C015E4BC1F81001C1F88E
:104E40003805D2F80414C3F82015D2F80814C3F8B2
:104E50002415D2F80C14C3F82815D2F81014C3F88E
:104E60002C15D2F81414C3F83015D2F81814C3F85E
:104E70003415D2F81C14C3F84015D2F82014C3F826
:104E80004415D2F82414C3F84815D2F82814C3F8EE
:104E90004C15D2F82C14C3F85015D2F83014C3F8BE
:104EA0005415D2F83414C3F86015D2F83814C3F886
:104EB0006415D2F83C04C3F86805D2F840043E49B2
:104EC000C3F86C050968D2F84424C3F87025082992
:104ED00024D04FF08043D3F80024D20744BF6FF0B2
:104EE0000102C3F80024354AD2F8883043F4700335
:104EF000C2F88830BFF34F8FBFF36F8F4FF010238E
:104F0000D3F80022002A23DBD3F80432002B1FDB66
:104F10002B4B2C4A1A605DF8044B70472A4B1B68D8
:104F2000002BD6D129482A4A2A4C04602A492B4B07
:104F3000FB20C2F818050A681B68294822F00F02F6
:104F400003F00F0313434FF400720B600260C0E7DD
:104F5000244B0122C3F80425D3F80024002AFBD0F7
:104F60004FF0102312221F49C3F80022D1F8003459
:104F7000002BFBD04FF0102212211A4BC2F8041262
:104F8000D3F80024002AFBD000221649C3F80425D8
:104F9000D1F80034002BFBD0BFF34F8F0749124BE1
:104FA000CA6802F4E0621343CB60BFF34F8F00BFC7
:104FB000FDE700BF00C000403001001000ED00E040
:104FC0003C0000200090D003340100108C560040BB
:104FD00000F0004048810300E40E00405802001039
:104FE0004096024000E001400400FA0590F82830A5
:104FF000013B062B33D8DFE803F0070E162B2028E1
:10500000040007291DD07047022934D00C2918D07C
:10501000012920D07047042913D00929F8D1012390
:1050200080F828307047042921D00C2909D00329A1
:10503000F0D1062380F828307047052913D00B29BA
:1050400010D1042380F8283070470629E7D0704734
:10505000012900D07047052380F8283070470829BF
:10506000EFD0D7E77047032380F828307047072335
:1050700080F82830704780F82810704790F8280092
:10508000704700BFD0B1CAB1C3B1F8B507461C46DE
:1050900015460E4600F0B0FBFCF76AF980B92246CF
:1050A0003146384601F05AFEB0B901F0B3FDB8B947
:1050B0000423C7F8145187F82830F8BD0E20704734
:1050C00009480A4B0A49C01AC008000440F0010010
:1050D000FDF710F90320F8BD0348044B0549F2E73A
:1050E0000148024B0449EEE7BC110400AC11040076
:1050F000548703007C870300A0870300B0B1A9B1E7
:10510000A3B19AB12DE9F0415C88B4B19C88A4B1F7
:105110005C78012C0CD090F82840002C6FD0042C27
:105120000ED0013C012C0BD9082007E00E2070475F
:10513000DC8814B11C89002CEDD10E20BDE8F08173
:1051400000F13A08054617460E4612220021404655
:105150001C4631F0FCFA40463146122231F0D3FAB7
:1051600085F838706388A5F84E30237885F84C3080
:10517000637885F84D30637803BBA388A5F8503079
:1051800005F15606A2880021304631F0E0FA30469B
:10519000A28804F10A0131F0B6FA284601F0ECF9D0
:1051A0000028CBD195F82830002BC7D0022B01D98D
:1051B000042BC3D1052385F82830BFE72389A5F840
:1051C000543005F18D0622893046002131F0BFFAB6
:1051D000228904F14101304631F095FAE388A5F8BF
:1051E000523005F16D06E2883046002131F0AFFA09
:1051F0003046E28804F1210131F085FABDE70F2045
:105200009CE700BFB8B110B590F82830023B012BE5
:10521000044604D8002101F0B9FC10B110BD0F20E4
:1052200010BD94F82830022B07D0032BF6D10723AA
:1052300084F8283010BD0E207047042384F82830ED
:1052400010BD00BFB0B199B110B590F82820032A65
:10525000044601D00F2010BD01F098FC0028FAD1BF
:1052600094F82830032BF6D1062384F8283010BD9B
:10527000072070470E20704768B161B170B582B0E9
:1052800032B190F82850032D07D00F2002B070BD26
:105290000E2002B070BD0E2070470C4602A91E46BB
:1052A00041F8084D00230546019301F007FA002E4E
:1052B000ECD02B88338002B070BD00BF68B161B103
:1052C00070B582B032B190F82850032D07D00F206E
:1052D00002B070BD0E2002B070BD0E2070470C46AB
:1052E00002A91E4641F8084D00230546019301F02E
:1052F000FDFA002EECD02B88338002B070BD00BFC9
:1053000068B161B170B582B032B190F82850032D08
:1053100007D00F2002B070BD0E2002B070BD0E206D
:1053200070470C4602A91E4641F8084D0023054669
:10533000019301F085FB002EECD02B88338002B066
:1053400070BD00BFF8B5044601F094FC94F82D3010
:10535000002B3ED0314B1B78002B53D1236B1B1AF3
:1053600094F81061EEB1D4F8BC10091A8B4228BF32
:105370000B46012E15D0D4F8D410091A8B4228BF41
:105380000B46022E0DD0D4F8EC10091A8B4228BF20
:105390000B46032E05D0D4F80421121A934228BFDD
:1053A000134665682D1A9D4219D20023237301F01C
:1053B00063FC074601F058FC0646B0B9B5FBF7F1AF
:1053C000204607FB115101F033FC0646E8B9304690
:1053D000F8BD94F81061E6B14FF0FF33C3E75A1CF3
:1053E00008BF0026F3D01D46E1E70D480D4B0E49DE
:1053F000C01AC008000440F001003246FDF71EF953
:105400003046F8BD636B1B1AAAE70548054B0749F0
:10541000EEE765682D1A691CC7D1D8E7E0160020B1
:10542000BC110400AC110400F487030030880300B1
:105430002DE9F04F054689B001F01CFC95F82D30A0
:105440008146C3B1874E337853B92C6B01F014FCFD
:10545000044001F011FC09EA0000844240F2D780C8
:105460006C6B01F009FC044001F006FC09EA000045
:10547000844240F2C68095F81031FBB17A4B7B4AEA
:10548000A3EB02084FEAD8084FEA084848F00108A1
:105490002C46002705F13A0AD4F8BC6001F0ECFB79
:1054A000064001F0E9FB09EA0000864212D995F8AE
:1054B00010310137BB4204F11804EDDC95F82830B7
:1054C00003F0FD03012B4ED02846FFF73BFF09B048
:1054D000BDE8F08F94F8B06066BB20223146684684
:1054E00031F035F94FF0010B0C23D4F8B4008DF8EE
:1054F00000308DF804B000F053FBB4F8BA308DF8EA
:105500000500D4F8B400ADF8063000F049FB0628D9
:105510006AD0072800F0848000287ED03246B4F894
:10552000BA10284600F098F96946D5F81431284693
:105530009847BCE7013E84F8B0604FF4FA5001F0A0
:105540009FFBB4F8B830C4F8BC00D4F8B42051467E
:10555000284600F045FF0028A9D0024644494046AD
:10556000FDF76CF8A3E76C6801F086FB044001F0DE
:1055700083FB09EA00008442A6D82B7C002B52D082
:10558000297B0029A0D195F82820012A0FD10223D8
:1055900085F828302022684631F0D9F80A238DF8A2
:1055A00000306946D5F81431284698472B7C013BDA
:1055B0002B744FF4FA5001F063FB2B8B68606A691F
:1055C00005F13A01284600F00BFF00283FF47CAFBC
:1055D000264A254B26499B1ADB081B04024643F04A
:1055E0000100FDF72BF86FE75A461A21284600F014
:1055F00033F995F82830052B96D1042385F8283007
:1056000092E700232846337000F0C0F833E7012307
:105610002846337000F088F82DE75A460421E5E764
:105620005A461C21E2E795F82830012B15D0032BB0
:1056300013D068462022002131F089F80C20012285
:1056400005238DF800008DF8053069468DF804209B
:10565000D5F814312846984736E7042385F82830D2
:10566000E7E700BFE0160020BC110400AC11040005
:10567000C087030000284CD090F82830042B27D195
:1056800070B590F82D6088B026BB04464FF4FA60E0
:105690000D4601F0FBFA01F0F3FA1F4B20630122E3
:1056A0004FF47A7084F82C6084F82D2000FB05F00C
:1056B0001E705E7001F0E4FA60632046FFF742FE60
:1056C00058B920460021FFF791FC002008B070BDBA
:1056D0000F207047112008B070BD104A104B1149BF
:1056E0009B1ADB081B04024643F00100FCF7A6FFEF
:1056F00031466846202231F02AF8082202238DF82C
:10570000043069468DF80020D4F8143120469847BB
:10571000D7E70E20704700BFE4160020AC1104004C
:10572000BC1104008088030070B5144B1C7888B04D
:105730000CB108B070BD012605461E7000F052FE87
:105740000028F6D00E4A0F4B0F499B1ADB081B04AA
:10575000024643EA0600FCF771FF21462022684614
:1057600030F0F5FF08238DF8003069468DF80460AD
:10577000D5F814312846984708B070BDE4160020CB
:10578000AC110400BC1104008088030070B5194BF3
:105790005D7888B0B5B990F82C6080F82D50012262
:1057A00004465A7086B129466846202230F0CFFF61
:1057B00008238DF8003069468DF80450D4F8143170
:1057C0002046984708B070BD0A21FFF70FFC31460C
:1057D0006846202230F0BBFF082203238DF80430F6
:1057E00069468DF80020D4F814312046984708B057
:1057F00070BD00BFE4160020B0306422002130F0FC
:10580000A6BF00BFF8B590F81061042E11D00D4668
:1058100007460FCD06EB460407EBC404B0340FC4B3
:1058200095E8030084E80300013687F81061002042
:10583000F8BD064B06480749C01AC008000440F0EE
:105840000100FCF757FD3046F8BD00BFAC11040065
:10585000BC110400C08803002DE9F84390F8103112
:10586000002B5AD00646002A00F0CB80012A61D1D5
:10587000D0F8B4000478012C14BF01240324005D87
:10588000884200F0E580012B47D0D6F8CC000478A0
:10589000012C14BF01240324005D884200F0D28053
:1058A000022B3ADDD6F8E4000478012C14BF012461
:1058B0000324005D884200F0C780032B2DDDD6F85D
:1058C000FC000478012C14BF01240324005D8842ED
:1058D00000F0BC80042B20DDD6F814010478012CE4
:1058E00014BF01240324005D884216D0052B14DD6B
:1058F000052404EB440006EBC00022B3012A09D1C1
:10590000D0F8B4000578012D14BF01250325405DB2
:1059100088421CD001349C42EBDB4F4B4F4850492E
:10592000C01AC008000440F00100FCF7E3FC0520A9
:10593000BDE8F883012BF0D0022BEED0032BECD086
:10594000042BD3D1E9E7B0F8BA008842E2D1042CA5
:10595000E3D004EB440506EBC505D5F8B400FBF72E
:105960004DFD96F81071BC4245DA04F1010808EBD0
:10597000480C06EBCC0C0CF1B00CE646BEE80F0070
:10598000B0350FC59EE80300B84585E8030032DA5C
:1059900004F1020909EB490506EBC50505F1B00E56
:1059A000F046B8E80F0065460FC598E80300B94512
:1059B00085E803001FDA04F1030909EB490506EB4A
:1059C000C50505F1B00CE046B8E80F0075460FC5F7
:1059D00098E803004F4585E803000CDD043404EB30
:1059E000440406EBC404B0340FCC65460FC594E8FC
:1059F000030085E80300013F86F810710020BDE830
:105A0000F883B0F8BA0088421CD0012B85D0B6F8D4
:105A1000D20088421ED0022B7FF77FAFB6F8EA0093
:105A2000884211D0032B7FF778AFB6F80201884285
:105A30000CD0042B7FF771AFB6F81A0188427FF4BF
:105A400055AF6AE7144684E7022482E7032480E71F
:105A500000247EE701247CE7AC110400BC110400A3
:105A6000E488030090F81031002B00F08B8070B4B4
:105A7000002A5FD0012A54D1D0F8B4402578012DF6
:105A80000CBF03250125645D8C427DD0012B45D0E0
:105A9000D0F8CC402578012D0CBF03250125645D8D
:105AA0008C4274D0022B39DDD0F8E4402578012DEA
:105AB0000CBF03250125645D8C426BD0032B2DDDCB
:105AC000D0F8FC402578012D0CBF03250125645D2D
:105AD0008C4262D0042B21DDD0F814412578012DB1
