:020000040000FA
:10000000202C0020F902000001030000030300007F
:1000100005030000070300000903000000000000C2
:100020000000000000000000000000000B030000C2
:100030000D030000000000000F030000110300008A
:100040001303000013030000D1050000A10300000A
:100050001303000013030000130300001303000048
:100060001303000013030000130300001303000038
:100070001303000013030000130300001303000028
:100080001303000013030000130300001303000018
:100090001303000013030000130300001303000008
:1000A00013030000130300001303000013030000F8
:1000B0001303000013030000000000000000000014
:1000C00013030000130300001303000013030000D8
:1000D00013030000130300001303000013030000C8
:1000E00013030000130300001303000000000000CE
:1000F00000000000130300000000000013030000D4
:1001000000000000000000000000000000000000EF
:1001100000000000000000000000000000000000DF
:1001200000000000000000000000000000000000CF
:1001300000000000000000000000000000000000BF
:1001400000000000000000000000000000000000AF
:10015000000000000000000000000000000000009F
:10016000000000000000000000000000000000008F
:10017000000000000000000000000000000000007F
:10018000000000000000000000000000000000006F
:10019000000000000000000000000000000000005F
:1001A000000000000000000000000000000000004F
:1001B000000000000000000000000000000000003F
:1001C000000000000000000000000000000000002F
:1001D000000000000000000000000000000000001F
:1001E000000000000000000000000000000000000F
:1001F00000000000000000000000000000000000FF
:10020000DFF80CD000F0BAF800480047E921000000
:10021000202C002030B4044654E8000F0D4644E87A
:100220000053002BF8D1156030BC704730B4044641
:1002300054E8000F40EA010544E80053002BF7D1D1
:10024000156030BC704730B4044654E8000F00EA33
:10025000010544E80053002BF7D1156030BC70470E
:1002600030B4044654E8000F80EA010544E8005326
:10027000002BF7D1156030BC704730B4044654E809
:10028000000F00EB010544E80053002BF7D1156087
:1002900030BC704730B4044654E8000FA0EB0105B1
:1002A00044E80053002BF7D1156030BC704770B4A0
:1002B00004464FF0000054E8006F0D68AE4207BFDF
:1002C00044E80023012044E800630E60002B1CBFBB
:1002D0000020F0E770BC704730B4044654E8000FCB
:1002E00088422CBF451A054644E80053002BF5D13F
:1002F000156030BC7047000006488047064800473C
:10030000FEE7FEE7FEE7FEE7FEE7FEE7FEE7FEE7C5
:10031000FEE7FEE7F5030000010200000048704719
:10032000C44C000040EA01039B0703D009E008C960
:10033000121F08C0042AFAD203E011F8013B00F8AA
:10034000013B521EF9D27047D2B201E000F8012BF6
:10035000491EFBD270470022F6E710B513460A4645
:1003600004461946FFF7F0FF204610BD421C10F866
:10037000011B0029FBD1801A70470000064C074D75
:1003800006E0E06840F0010394E807009847103465
:10039000AC42F6D3FFF738FF784D0000984D0000CF
:1003A000F8B51248124E04464FF48C7102F087FEE5
:1003B00000281AD00025C4F81851D4F8180100906C
:1003C000F07F3446FF2806D0A17F11B102F065FA14
:1003D00001E002F0B3FA65772572D4E9002101B09B
:1003E00004F10800BDE8F0401047F8BD00300040BF
:1003F0009005002030B54FF0805000228300D0F8E7
:100400003011C3F80C21C3F81021624B1A60624B03
:100410001B68624C2360604B1B1D1B68241D2360FE
:100420005D4B08331B68241D23605B4B0C331B683A
:10043000241D2360584B10331B68241D2360564B2A
:1004400014331B68241D2360534B18331B68534C13
:1004500020342360504B1C331B68241D23604E4BFB
:1004600020331B68241D23604B4B24331B68241D41
:100470002360494B28331B68241D2360464B2C33D3
:100480001B68241D2360444B30331B68434C4034AD
:100490002360414B34331B68241D23603E4B3833AB
:1004A0001B68241D23603C4B3C331B68241D2360C8
:1004B000394B40331B68241D23600123082902D1D6
:1004C000D0F8344114B1082904D006E0354C344941
:1004D000216005E0D0F8344114B1082904D006E0C9
:1004E000314CFB21216005E0D0F8344114B10829DA
:1004F00008D00EE090F858422C48016864F30301DC
:10050000016002E0D0F834411CB929494FF4007071
:10051000086028480168C90702D06FF00101016036
:100520002548016841F470010160BFF34F8FBFF3AC
:100530006F8F4FF01021D1F80002002803DBD1F8B3
:100540000402002822DA1D4C23601D480368002B9A
:10055000FCD01223C1F800320568002DFCD0C1F890
:10056000043201680029FCD0226001680029FCD017
:10057000BFF34F8F10487C380168124A01F4E061E4
:1005800011430160BFF34F8F00BFFDE70F490E48D5
:10059000086030BD380500400404001020C500404C
:1005A000488103008C56004018F50040E40E0040DE
:1005B000409602400004004088ED00E004E5014060
:1005C00000E401400400FA050090D003B4000020CC
:1005D00001480068004700003000002002E008C821
:1005E000121F08C1002AFAD170477047002001E0AD
:1005F00001C1121F002AFBD17047000072B602F041
:1006000071FC00BF02F0B4FA0028FBD11148124976
:10061000401AC408012000EB044010A102F0C0FB06
:1006200011480068C00700D000BE022000EB044063
:100630000EA102F0B5FBBFF34F8F0B48E438016801
:100640000E4A01F4E06111430160BFF34F8F00BF18
:10065000FDE70000C84D0000A84D00004661746130
:100660006C206572726F7200F0ED00E05379737464
:10067000656D207265736574000000000400FA0562
:100680000EB500210091CDE901106A4644F2010047
:10069000FFF7B4FF0EBD0000144B10B593F82240D5
:1006A0002CB193F82240032C03D0112010BD082058
:1006B00010BD82B1042483F822409C7A240700D420
:1006C0004902C3E903019A820020DA829883012A51
:1006D00003D9522002E0072010BD5120012203F06F
:1006E000DDF908B1FFF7CCFF002010BD04060020A3
:1006F00070B5194B144693F822202AB193F82220A2
:10070000032A03D0112070BD082070BDECB1052272
:1007100083F822209A7A150700D44902C3E903011D
:100720009C820020DC829883012C10D002F007000C
:1007300001284FF001020DD02146D72003F0AEF979
:1007400008B1FFF79DFF002070BD072070BD01229A
:100750005820F3E75920F1E704060020054890F8F7
:100760002210032904D090F8220008B1012070471C
:100770000020704704060020044890F82210032946
:1007800001D3001D704700207047000004060020C0
:10079000F0B52F4C054687B094F822000F4610B1F3
:1007A000082007B0F0BDEFB3E878FF284DD0697896
:1007B000FF294AD02978FF2947D0A978FF2944D0BA
:1007C000002684F85800012200963346114601960F
:1007D00002F008F894F8580002F0CEF81D4B0DF125
:1007E000080C0FCB8CE80F00A8788DF8080028784B
:1007F0008DF8090068788DF80A0016480023164A1B
:1008000002A9103801F00CFE08B1FFF739FF44F8D7
:10081000227B012004F81909607820F00F00607035
:10082000A67600E011E0FF20E0770A20084B009058
:10083000084838330122A3F11001103801F028FED6
:1008400008B1FFF71DFF0020ABE70720A9E7000074
:1008500004060020884B0000D94200007CB50F4DF3
:1008600095F8220028B195F82200032803D0112022
:100870007CBD08207CBD0A4802F02EFD002495F8BE
:10088000580000942346224621462235019401F067
:10089000A9FF6C702C7000207CBD000004060020B5
:1008A0007C4B000000F002B800F008B872B60248B5
:1008B0000168491C0160704738000020034908683E
:1008C000401E086000D162B670470000380000206A
:1008D00070B5054608680C46411C04D002F038F893
:1008E000206801F0C6FF6068411C02D0002101F0C1
:1008F000A4FF2968A069C1F82405607D227D2968CC
:100900001043C1F86C05D4E900122868C0F814251A
:10091000C0F80C15207D012814D1A068411C02D01C
:10092000002101F08AFFE068411C04D002F010F8B9
:10093000E06801F09EFFD4E902122868C0F808259B
:10094000C0F8101570BD70B5054608680C46411C0E
:1009500004D002F007F8206801F095FF6068411CA0
:1009600002D0002101F072FF2968A069C1F82405B6
:10097000607D217D2A680843C2F86C05D4E9001225
:100980002868C0F80C15C0F81425207D012814D162
:10099000A068411C02D0002101F058FFE068411C12
:1009A00004D001F0DFFFE06801F06DFFD4E902122E
:1009B0002868C0F80825C0F8101570BD087A0A78B4
:1009C0002AB1012A03D0022A01D0032A09D100EB5F
:1009D000400204484978406800EB8200017200211F
:1009E000817270470C000020806970472DE9FE433A
:1009F0000E46016984698046B1F5007F02D0062069
:100A0000BDE8FE83134D696809B11120F8E7A660BF
:100A1000A261686010491430FFF7BAFE070008D1E0
:100A2000A6B900BFFFF79AFE0028FBD1287878B15D
:100A30000D27002068604EB1084A07CA8DE80700FC
:100A4000A0690290A2686946404690473846D7E7B9
:100A50000027FBE73C000020553B0000C84B00008E
:100A600019B1012906D0062070470AB10020107084
:100A70000020704712B1001D1060F9E70720704791
:100A8000FEB51C4F0646846978680D46B04202D117
:100A9000FFF764FE08B11120FEBD95E8070004F1E0
:100AA0000C0383E80700A888296882B2A868FFF7CA
:100AB000F3FD050009D1A068C0B900BFFFF74EFEE5
:100AC0000028FBD1387898B10D25A06870B16DB1C0
:100AD0000948016B806B029004F10C00CDE9001015
:100AE000A0690290A2686946304690472846FEBD3C
:100AF0000025EAE73C000020B04B0000FEB5124F95
:100B0000044685697868A04202D1FFF727FE08B144
:100B10001120FEBDFFF7A2FE060000D17860A86894
:100B200078B10A4907C98DE807000EB1012000E03D
:100B300000208DF80100A8690290AA686946204645
:100B400090473046FEBD00003C000020D44B000022
:100B5000FEB51C4F0646846978680D46B04202D146
:100B6000FFF7FCFD08B11120FEBD95E8070004F178
:100B70000C0383E80700A888296882B2A868FFF7F9
:100B8000B7FD050009D1A068C0B900BFFFF7E6FDB9
:100B90000028FBD1387898B10D25A06870B16DB1EF
:100BA0000948C16B406C029004F10C00CDE90010C3
:100BB000A0690290A2686946304690472846FEBD6B
:100BC0000025EAE73C000020B04B00002DE9FC4185
:100BD0000646C0074FF000050ED0104F002401223A
:100BE000385D009500231146019501F097FD641CC6
:100BF000042CF4D300F01CF8B0070DD5074E0024E8
:100C0000361D0022305D032300951146019501F049
:100C100085FD641C042CF4D3BDE8FC81544B00001A
:100C20000249085C012101F0B1BE0000544B0000F4
:100C300010B500242046FFF7F3FF641C042CF9D301
:100C400010BD00002DE9F0470546861C90460F4672
:100C50004FF001090020FFF725FE1B4C206838608B
:100C6000D4E90001401AA16804F21C47081A0EE0FA
:100C70000121384601F069FB01F068FA0146384667
:100C800001F063FBD4E90001401AA168081A401C76
:100C90008642EDD8B8F1000F03D0052065F3891026
:100CA00002E0062065F39F50A2682168114004EB22
:100CB0008101C8602068304420600020FFF7F4FD07
:100CC0004846BDE8F0870000F807002070B50D46E3
:100CD00004460A2902D10D21FFF7F8FFA068226817
:100CE000411CA1601554D4E90101814204D320467E
:100CF000BDE8704001F019BC70BD0000034803C896
:100D0000814201D10120704700207047F807002080
:100D100010B504460020E070401EE062204601F05D
:100D2000F5FA08B1042010BD04F22E2001F008FAF3
:100D3000A0F52A41553901D0032010BD94F83000A8
:100D4000E92805D0EB2814D194F83200902810D16E
:100D500004F1660001F0E9F90749B1EB002F06D074
:100D600004F1820001F0E1F90449884201D1002038
:100D700010BD022010BD00000046415446415433CE
:100D80004269891E921E8A4201D800207047826AF9
:100D9000408901FB002070472DE9F04105680F00F4
:100DA000804606D001F054F8022809D20120BDE89F
:100DB000F081EE6816B16869B04207D8012605E0F7
:100DC000411CF4D069698142F1D83E4634466869D5
:100DD000641CA04202D80224022E0AD321464046B7
:100DE00001F036F838B10128E1D0411CDFD0B4421F
:100DF000EDD10020DBE74FF0FF3632462146284692
:100E000002F06EFD30B957B122463946284602F04D
:100E100067FD20B101280FD001242046C7E7EC6010
:100E2000D5E90401891E884201D2401E2861287933
:100E300040F001002871F0E73446EEE72DE9F0417B
:100E40000E4620300D6804460B22202101F000FAE6
:100E50000020014608232A5C401C202A12D92F2A90
:100E60000BD05C2A09D02E2A01D0994214D30B2B27
:100E700037D02E2A35D10CE0401C2B5C2F2BFBD019
:100E80005C2BF9D02844306059B32078E52834D061
:100E900035E008210B23DEE7A2F181071E2F02D9DE
:100EA0005F3F1C2F13D82F5C401CA7F1400CBCF1F6
:100EB0003F0F04D3A7F1800CBCF17D0F11D2A3F139
:100EC000010C61450DD26254491C675413E010A710
:100ED00000E07F1C97F800C0BCF1000F04D09445DF
:100EE000F7D10620BDE8F081A2F16107192F01D8E2
:100EF000203AD2B26254491CADE705202070202A66
:100F000001D8042000E00020E0720020EAE70000A1
:100F1000222A2B2C3A3B3C3D3E3F5B5D7C7F000010
:100F200020BF70472DE9F04104460021056800F01C
:100F300008F9002826D12846A16901F0E7F9020046
:100F40001FD1E069017899B1C17A01F03F01A17127
:100F5000C17A09070FD404F120010B2610F8013BD8
:100F600011F8017BDB1B761E04D0002BF6D002E0CB
:100F7000042206E02BB10021204600F005F8020013
:100F8000D9D01046BDE8F0812DE9F0470546076944
:100F9000046880698946203710B1B7F5001F02D375
:100FA0000420BDE8F087F90560D1401CA86169699B
:100FB0004FF0000829B16089401E10EA572F05D074
:100FC00054E02089B0EB571F1DD94FE0284600F0B0
:100FD0003FFF064601281BD9701C33D06069B04220
:100FE0003ED8B9F1000F0ED028466969FFF7D4FE4C
:100FF00006000BD0012E0BD0701C23D0204603F02E
:1010000075FBF8B906E0C5F81880C9E70720C8E7FE
:101010000220C6E74FF40072002104F1300001F015
:1010200017F94FF0000831462046FFF7A9FE4FF0B0
:101030000109E0620DE000BF84F80390204603F050
:1010400055FB08B10120ACE7E06A08F10108401C3B
:10105000E06261894145EFD8E16AA1EB0800E062F6
:10106000314620466E61FFF78BFEA861C7F308008A
:10107000204430302F61E861002092E770B50446CB
:101080000E460420256821E0284601F03FF910BBF8
:10109000E2691178B1B1D27AE52902F03F02A2717A
:1010A0000AD02E2908D00F2A06D022F020010829C4
:1010B0000AD00021B14210D000212046FFF764FF82
:1010C00020B108E0042006E00121F3E7A16900292E
:1010D000DAD1002801D00021A16170BD70B50446AD
:1010E0000021066800F02DF80DE03046A16901F0FE
:1010F0000DF950B9E0690078E52809D040B1012127
:101100002046FFF741FF0028EFD0042807D007E072
:101110003046A16901F0FAF8050003D00FE007207E
:1011200005460CE020220021E06901F091F80B2235
:1011300004F12001E06901F081F80120F0702846F7
:1011400070BD2DE9F04107680E460546B1F5001F58
:1011500036D2F00634D12E61AC6824B93878032831
:1011600005D37C6A1CB178894FEA402812E038899F
:10117000B0EB561F24D9786A12E0284600F068FECA
:101180000446401C1AD0022C1AD37869A04217D901
:10119000A6EB080646452146EFD23846FFF7F0FD9C
:1011A000C5E9054060B100EB5620A861C6F3080010
:1011B00038443030E8610020BDE8F0810120FBE7D1
:1011C0000220F9E770B51C4C217888420DD2616885
:1011D00000EB400551F825303BB101EB85014A7A1F
:1011E000D20704D04A6822B105E0032070BD487AD6
:1011F00070BD124A4A6001228A720246186810497C
:1012000006681846B04710B110E040688047606833
:1012100000EB8500817A0029F7D1616801EB850137
:10122000097A19B9417A21F001014172606800EB35
:101230008500407A70BD00000C000020210F0000E6
:10124000BD09000038B51D4D2B78984201D304200C
:1012500038BD00EB400439B118480129406815D069
:1012600002291DD0012038BD01208DF800006868DA
:101270006A46002150F8240001F0CFF808B1112887
:1012800017D19DF800000028F1D112E050F8240099
:1012900088B101681446496988470068206008E001
:1012A00050F8240038B1016814464969884780889D
:1012B0002080002038BD032038BD00000C00002035
:1012C000FEB51D4C2578A8420DD263B100EB400558
:1012D000606850F8256026B100EB8506777AFF0735
:1012E00003D00320FEBD0420FEBD0092CDE90131F4
:1012F0000121B17250F825606F463068416930466F
:10130000884700680099884214D930683946826855
:101310003046904710B10DE040688047606800EBB0
:101320008500817A0029F7D1606800EB8500007A9A
:101330000028D9D00120FEBD0C00002006490A7803
:10134000904201D301207047496800EB400001EB57
:101350008000407A704700000C000020FEB5204C51
:101360002578A8420DD263B100EB4005606850F8C3
:10137000256026B100EB8506777AFF0703D00320AE
:10138000FEBD0420FEBD777A7F0701D50220FEBD99
:101390000092CDE901310121B17250F825606F460C
:1013A000306841693046884700680099884214D9FE
:1013B00030683946C2683046904710B10DE0406849
:1013C0008047606800EB8500817A0029F7D160686A
:1013D00000EB8500007A0028D9D00120FEBD000076
:1013E0000C000020014A5060117070470C00002072
:1013F00010B50021024800F0B3FF80F3100010BDCB
:10140000140C002038B5044600F05EF9002807D11E
:101410006946204603F076FB002801D100212160B7
:1014200038BD000017B581B0144602980090684698
:1014300000F09EFD002802DA0B2004B010BD0B4A1C
:10144000002352F8201001B10B700199002900D03F
:101450000B7042F8201001D0012C01D00020ECE7E5
:10146000002201A902A800F093FBE6E71800002083
:101470002DE9F7438CB005000BD002F03F06324651
:1014800069460DA800F084FB04004FF0000804D06A
:10149000BFE009200FB0BDE8F0830098019001A8DB
:1014A0000D9900F09BFC040004D19DF82F0000066C
:1014B00000D5062416F01C0F4CD04CB1042C03D1DF
:1014C00001A8FFF70BFE044646F008065CB1A0E059
:1014D0009DF80A0010F0110F01D0072499E0700761
:1014E00001D5082495E0300743D54D4F089839467B
:1014F0000E3003F065F808983946163003F060F8AE
:1015000008992020C8720899009800F0FBFD074652
:1015100000220899009803F03FF8089800211C3039
:1015200003F04EF800990120C87007B3D1F82C9051
:101530000022394601A802F048FA040069D1494660
:10154000009800F0E3FE04000098A7F10107C760CF
:101550000BD05EE0C4BB9DF80A00C10601D504248F
:1015600057E0B10701D5C007B7D1300701D546F024
:1015700040060098C16A296208996962089900F0DA
:10158000C1FDA86008981C3000F0CFFDE86000980D
:1015900028604FF40072C088A8802E7485F81180EE
:1015A000C5F81C8005F1280000218146C5F814808B
:1015B00000F04EFEB0062ED5EE6866B36E61009860
:1015C000A968408947020FE023E0284600F040FC6C
:1015D0000146012800D80224481C02D0F61B1CB189
:1015E00004E00124F61B01E0BE42EED8A96184B9F3
:1015F000F00510D00098FFF7C3FB70B100EB562246
:10160000EA610098012349464078FFF759FE10B17E
:101610000124C5F8008020463CE70224F9E70000D9
:101620000000214813B582B0040006D000226946AC
:1016300003A800F0ADFA18B120E0092004B010BDF5
:10164000009921602046039900F0C8FB90B994F8F6
:101650002B00000607D4A079C00612D5E1690098D6
:1016600000F050FDA0600098C188A18020460021B4
:10167000FFF767FD042804D00028DFD00021216097
:10168000DCE70520FAE738B50C460546694603F065
:1016900039FA002813D1014628468CB1FFF7EEFC39
:1016A000042801D000280AD12146284600F02FFC4A
:1016B00000212846FFF768FC042800D1002038BD2F
:1016C000FFF73FFD38BD0000F8B50446694603F05A
:1016D00019FA00280ED1217C4A060BD508060ED532
:1016E0000098E2690123407804F12801FFF736FEF3
:1016F00008B10120F8BD207C00F07F002074154E59
:10170000216A009800F002FE0028F3D1656A29469C
:10171000E87A40F02000E872A268206802F03CFFFE
:1017200005F11C00E16802F04BFF314605F116009F
:1017300002F046FF002105F1120002F049FF009877
:101740000121C17002F08EFF217C01F0BF012174E4
:10175000F8BD0000000021482DE9FE4F8846002119
:10176000196099461546044602A903F0CBF90028F2
:1017700006D1607C002803D1207C800702D407209A
:10178000BDE8FE8F6069012742194FF0020A04F19B
:10179000280B824200D2C54394E06069C1056ED136
:1017A00002994989491E11EA502612D108B1A1694E
:1017B00002E0A06828B900212046FFF7EDFA0028D2
:1017C0007DD001282DD0411C54D0A061A16801B961
:1017D000A060207C00060BD50298E26901234078C6
:1017E0005946FFF7BBFDA0BB207C00F07F002074B2
:1017F000A1690298FFF7C4FA98B130440190680AD1
:10180000009027D0029932184889824201D9801B62
:101810000090DDE9003248784146FFF79FFDC0B9EE
:1018200003E084F811A00220AAE7E1690198081AF0
:10183000009988420AD208EB40214FF400725846C2
:1018400000F0FCFC207C00F07F0020740098460231
:1018500027E00FE0E169019881420ED0E1686069FC
:1018600088420AD20298012359464078019AFFF72C
:1018700027FD10B16774012082E70198E061A08A1A
:10188000C0F30800C0F50076AE4200D92E462044D1
:1018900032464146283000F0D1FC207C40F08000E8
:1018A00020746069B04430446061E168884200D8C7
:1018B0000846E060D9F80000AD1B304400E004E0C9
:1018C000C9F80000002D7FF468AF207C40F0400094
:1018D0002074002054E70000F8B501214A48FFF7C2
:1018E00081FD4A484A49401AC608032000EB0640D9
:1018F000044648A101F054FA03250020FFF762FCDA
:101900006D1E02D00028F8D103E010B1204649A195
:1019100060E04F4D4F486969884740684FF4801137
:10192000B1FBF0F769694B48884700684AA1B0FBF2
:10193000F7F2204601F038FA20464BA101F030FAC8
:1019400001223BA14D48FFF76DFD0028204601D044
:101950004BA13FE04EA101F023FA53A15348FFF7FA
:1019600061FE10B1204652A134E005204F4D00EB3E
:1019700006462C3505F109074C494C482C31FFF738
:1019800082FE10B151A1204624E0687A88B1287AFD
:10199000C00605D530463A4652A101F005FA05E0E9
:1019A00030463B4653A12A6801F005FA687A0028C0
:1019B000E2D130461EA101F0F3F9204650A101F01A
:1019C000EFF93A48332256A14430FFF751FD20B1D8
:1019D000204656A101F0E4F9F8BD34486B461022C8
:1019E0005DA14430FFF7B8FE0028204603D05FA178
:1019F00001F0D6F903E061A1009A01F0D5F92B4876
:101A00004430FFF7FFFCF8BD00000020C84D000087
:101A1000A84D0000496E697469616C697A696E67E6
:101A2000206469736B20302028534443292E2E2EC6
:101A3000000000004469736B20696E697469616C11
:101A4000697A6174696F6E206661696C65642E00E5
:101A5000984B0000384B00004361706163697479F2
:101A60003A202564204D42004D6F756E74696E6793
:101A700020766F6C756D652E2E2E0000B80000204C
:101A80004D6F756E74206661696C65642E00000090
:101A90000D0A204C697374696E672064697265630E
:101AA000746F72793A202F002F000000E8020020A6
:101AB0004469726563746F7279206C697374696EBE
:101AC00067206661696C6564210000004469726585
:101AD00063746F72792072656164206661696C65F8
:101AE000642E00002020203C4449523E2020202526
:101AF0007300000025396C7520202573000000005C
:101B000057726974696E6720746F2066696C65200E
:101B10004E4F524449432E5458542E2E2E0000004E
:101B20004E4F524449432E5458540000556E616242
:101B30006C6520746F206F70656E206F7220637209
:101B4000656174652066696C653A204E4F52444960
:101B5000432E5458542E0000534420636172642075
:101B60006578616D706C652E0000000057726974B5
:101B700065206661696C65640D0A2E00256420622B
:101B800079746573207772697474656E2E00000035
:101B90002DE9FF41002790460E460F6000F0E8F95E
:101BA000050003D50B2004B0BDE8F081884850F84B
:101BB00025409CB13460207808F0FE0620B16078A2
:101BC000FFF7BCFBC1070BD02770E8B2B8466070C6
:101BD000FFF7F8FAC10708D00320E4E70C20E2E79A
:101BE0000EB1400704D40020DDE71EB1400701D547
:101BF0000A20D8E7002631462046FFF789F8022858
:101C000022D100254FEA0D0704EB051090F8F211E0
:101C100000F5F77019B1083000F087FA00E00020F5
:101C200047F825006D1C042DEED3002557F82560DC
:101C300036B131462046FFF76BF8022801D203E0A7
:101C400003206D1C042DF1D3042809D002286DD285
:101C500004F13B0000F074FAB0F5007F66D101E0BA
:101C60000120A0E704F1460000F06AFA18B904F177
:101C7000540000F05AFAA06194F84050A570012D6C
:101C800001D0022D52D1454394F83D006081E8B364
:101C9000411E08424AD104F1410000F051FA20816E
:101CA000000743D104F1430000F04AFA070004D1D1
:101CB00004F1500000F039FA074604F13E0000F04C
:101CC0003FFA010032D02389481900EB13129742E2
:101CD0002CD3B81A6789B0FBF7F0B8B103274FF6D9
:101CE000F57C604500D8022740F6F57C604500D8B9
:101CF0000127801C3244A26231446061C4E907615B
:101D0000032F15D013B12944616200E00EE0022FC9
:101D10001FD000F0010100EB400001EB500000BFBC
:101D2000A16900F2FF10B1EB502F14D20D203AE759
:101D300004F15A0000F004FA0028F7D120890028A5
:101D4000F4D104F15C0000F0F0F960626069800099
:101D5000E6E74000E4E74FF0FF302061E0608020DC
:101D60002071032F2CD104F1600000F0E9F9012863
:101D700026D1711C204600F0C9FA08BB84F8048003
:101D800004F22E2000F0DCF9A0F52A41553917D1D4
:101D900004F1300000F0C9F90E49884210D104F571
:101DA000057000F0C2F90C49884209D104F50670AB
:101DB00000F0BBF9206104F5077000F0B6F9E060AF
:101DC00003492770091F0888401C0880E0800AE743
:101DD00018000020525261417272416173B504468D
:101DE0000568019801E0401C019001782F29FAD084
:101DF0005C29F8D00021A16001980078202806D243
:101E0000802084F82B002046FFF79BF97CBD01A9B8
:101E10002046FFF713F80028F8D12046FFF782F894
:101E200094F82B1028B10428F0D14907EED40520EE
:101E30007CBD4907FCD4A079C006F8D5208AC0F340
:101E4000080041192846303100F05CF9A060DEE757
:101E50002DE9F04104680D4602290BD36069A842C0
:101E600008D920784FF0FF36012807D002282BD060
:101E7000032839D001263046BDE8F081206A05EB01
:101E8000550700EB5721204600F040FA0028F2D118
:101E9000C7F3080020447F1C90F83080206A00EBD4
:101EA0005721204600F032FA0028E4D1C7F3080099
:101EB000204490F8301048EA0120E90701D00609D3
:101EC000D9E7C0F30B06D6E7206A00EB15212046C0
:101ED00000F01CFA0028CED1E8B204EB400030300C
:101EE00000F02EF90646C6E7206A00EBD511204621
:101EF00000F00CFA0028BED140F2FF1000EA850085
:101F00002044303000F011F920F07046B3E72DE99D
:101F1000F041002305464B7280690C46002825D00D
:101F200000210A462E26E869805C521C20280AD02F
:101F3000052800D1E520092A02D16718491C7E72C4
:101F40006718491C78720B2AEDD360184372E86950
:101F5000C07A2072E8691C3000F0E7F82060E86978
:101F6000163000F0E2F8E080000CA080BDE8F081BF
:101F700010B504464FF0FF302268002A13D01146F6
:101F800000E0491C0B78212B0ED33A2BF9D112F823
:101F9000013B303B0A2B06D28A4204D1002B02D1EE
:101FA000491C1846216010BD002010BD2DE9FC5FC2
:101FB0000E008346DDE90C47C6F1000098469246C4
:101FC000814600D40846012503E000BF90FBFAF0EB
:101FD0006D1C5045FADAA84500D9454624B1002EBB
:101FE00001DB780700D5641EB80702D5B8F1000FF1
:101FF0000AD0F80708D13CB1A54205D220215846A5
:10200000641EFEF763FEF6E7002E02DA4E462D212F
:1020100002E0780703D52B215846FEF757FE07F05C
:10202000030002280BD1B8F1000F08D13CB1A54242
:1020300005D230215846641EFEF748FEF6E7CDE98A
:102040000047434652463146584602F001FDBDE87E
:10205000FC9F000070B50D46044600684FF488717F
:1020600001F048F84FF49071206801F043F84FF404
:102070009271206801F03EF84FF4A271206801F0DF
:1020800039F820681149C0F804132068690740F343
:102090000730090E002806DA00F00F0000F1E020FA
:1020A00080F8141D03E000F1E02080F8001420689F
:1020B000012140F3073000F01F02914040098000E9
:1020C00000F1E020C0F8001170BD00001003020014
:1020D000024600201268530713D502F003000128BE
:1020E00002D002280CD105E0C2F383100B68801CDB
:1020F000184404E00223086803EB9252104408607D
:102100000120704770B506460D4601F11A0000F037
:1021100017F804463078032805D105F1140000F0C3
:102120000FF844EA0044204670BDC178827842EA44
:1021300001214278007842EA012140EA01207047FB
:102140004178007840EA0120704700002DE9FF4106
:102150000026234800F0F6F82148001F074600F04B
:10216000F1F8204C60680090A56800E0009869468E
:10217000284004EB80000C30FFF7AAFF0028F5D1BF
:1021800001AA009901EA050304EB8303491CDB68FB
:1021900042F82030401C00910228F2D3019800F050
:1021A000030001280BD0022810D10198032101EB74
:1021B00090500099BDF80A6001EB900005E001988D
:1021C000BDF80A60C0F3831008440090384600F060
:1021D000B6F808B10098606004B03046BDE8F08100
:1021E000100C0020F80700200120FEF7EFFC002172
:1021F000084600F041FE08B1FEF742FA00F0AAFCE2
:1022000006480749401AC008032101EB004005A118
:1022100000F0C6FDFFF760FB20BFFDE7C84D0000E2
:10222000A84D00004641544653206578616D706C9E
:102230006520737461727465642E0000002A05D0F5
:1022400011F8013B00F8013B521EF9D17047000024
:102250005FFA81F100F8011B521EFBD170472DE996
:10226000F047C5881E1DB6FBF5F78946B6FBF5F1AC
:10227000044605FB176C407916686843DDF820A01A
:10228000F718001F874200D9C61A166001E02468BB
:10229000491E0029FBD1A5EB0C078846B74216D88A
:1022A00018E004EB0C00001D09EB0803BAF1000F65
:1022B0003A4602D00146184600E01946FEF732F8C9
:1022C0002468F61B4FF0000CB844B54201D93746DC
:1022D00000E02F46002EE4D1BDE8F08730B502467D
:1022E00051B100F0E7FD0021074C08E034F821303F
:1022F0001568AB4202D11160002030BD491C8142FB
:10230000F4D3052030BD00000000000070B5044685
:10231000C06A0D460026A8420FD0204602F0E6F91A
:1023200006000AD1607801232A4604F13001FEF745
:10233000C7FF08B1751E0126E562304670BD002159
:1023400000F009B8012100F010B808B56A46FDF7A1
:1023500094FF009808BD08B56A46FDF774FF08BDF4
:1023600008B56A46FDF756FF08BD08B56A46FDF791
:102370005DFF009808BD08B56A46FDF78BFF009821
:1023800008BD70B5044600252846FEF78BFA216883
:102390006268086890420ED9401E08600178238A5E
:1023A000E26801FB0325227A2168101AC0B20A797B
:1023B000824200D208710020FEF776FA284670BDEE
:1023C00070B505460C460020FEF76CFAE868298ACD
:1023D000201AB0FBF1F12A681068431C13600170E9
:1023E000BDE870400020FEF75FBA10B530B1017A49
:1023F00042680368891AC9B21A6006E00E2010BD4F
:1024000003681A68541C1C601170491EC9B2F7D2C7
:10241000006800210171084610BD03681B69184758
:102420002DE9FF411C460378164D174E45F8232031
:10243000103545F82340F0CE8DE8F0000C788DF88B
:1024400000404C788DF801408C788DF80240CC78B3
:102450008DF803400C798DF805404C798DF80640D5
:102460008C6802940C7B8DF80C40497B8DF80D1024
:1024700002B1064A6946001D00F074FE04B0BDE8D2
:10248000F0810000700500205C4B0000A5440000B6
:102490001FB5001D069C8DE81E000022694600F055
:1024A0005FFF04B010BD0000F0B505460478154884
:1024B00089B0164640F82420124A08690832A2F171
:1024C0000C0742F82400487F385520226846FDF763
:1024D00029FF04942878385C48B10EB10A4A00E01C
:1024E00000226946281D01F0A1F809B0F0BD0EB127
:1024F000064A00E00022694605F10C0000F06AFF80
:10250000F3E70000200000202D490000794700007B
:102510000FB408B50399002904D004AA00926A46B2
:1025200000F00FF801B05DF814FB10B582680446A6
:10253000002A05D0D4E90403216898470020A06050
:1025400010BD2DE9FC4791460C00804676D014F86A
:10255000011B39B125290ED04046FEF7B7FB207884
:102560000028F4D198F80C00002867D04046BDE858
:10257000FC47FFF7DABF0020012221782B291BD06E
:102580002D2902D0302908D102E040F0010001E0FD
:1025900040F00200641C002AEFD100252A290ED049
:1025A0002178A1F130020A2A11D205EB850201EB54
:1025B0004205641C303DF1E740F00400EAE7D9F839
:1025C00000100B1DC9F800300968641C0D44217807
:1025D00000232E290BD114F8011FA1F130020A2A81
:1025E00005D203EB830201EB4203303BF3E76C2996
:1025F0000DD068290BD0692921D00BDC252918D0F2
:10260000582931D063290ED0642915D117E014F868
:10261000011FECE7702969D0732932D075291BD0CE
:10262000782909D120E0D9F80000011DC9F800106F
:1026300001784046FEF74AFB641C90E76CE0D9F84D
:1026400000100A1DC9F800200968CDE900500A22CF
:102650004046FFF7ABFCEFE7D9F800100A1DC9F8B8
:10266000002009680A2206E0D9F800100A1DC9F8FE
:10267000002009681022CDE90050404602F0E8F938
:10268000DAE7D9F8001000270A1DC9F800200E6803
:10269000C00705D112E04046761C7F1CFEF716FBF2
:1026A00031780029F7D104E0202140466D1EFEF765
:1026B0000DFBBD42C0D9002DF6D1BDE74EB130466D
:1026C000FDF754FE074604E0202140466D1EFEF74C
:1026D000FDFABD4206D9002DF6D103E04046761C36
:1026E000FEF7F4FA31780029F8D1A5E7D9F800000F
:1026F000011DC9F80010056830214046FEF7E6FAD2
:1027000078214046FEF7E2FA08200021CDE90001D9
:10271000034610222946B0E7BDE8FC872DE9FF41BA
:102720001C46DDE90A7815460E46684600F0C0F8FA
:1027300046EA450141EA840141EA072242EA0841AA
:10274000009A00EB8200C0F80017BDE8FF812DE978
:10275000FF411C46DDE90A7815460E46684600F042
:10276000B5F846EA450141EA840141EA072242EA16
:102770000841009A00EB8200C0F80017BDE8FF8115
:102780002DE9FF411C46DDE90A7815460E466846EC
:1027900000F0AAF846EA450141EA840141EA07222D
:1027A00042EA0841009A00EB8200C0F80017BDE839
:1027B000FF812DE9FF411C46DDE90A7815460E46EA
:1027C000684600F09FF846EA450141EA840141EA83
:1027D000072242EA0841009A00EB8200C0F8001785
:1027E000BDE8FF812DE9FF411C46DDE90A78154669
:1027F0000E46684600F094F846EA450141EA840135
:1028000041EA072242EA0841009A00EB8200C0F840
:102810000017BDE8FF811CB5002100910B46012285
:102820000191FFF7ADFF1CBD1CB5002100910B46C7
:1028300001220191FFF7BDFF1CBD1CB500220B4614
:10284000009211460192FFF79BFF1CBD1CB50022B0
:102850000B46009211460192FFF7ABFF1CBD1CB561
:10286000002100910B46012201911146FFF76FFFF5
:102870001CBD1CB5002100910B460122019111469F
:10288000FFF77EFF1CBD1CB5002100910B46012205
:1028900001911146FFF78DFF1CBD01B5684600F0A0
:1028A00015F8009A01219140C0F80C1508BD0000F0
:1028B0000168202902D24FF0A040704701F01F01AB
:1028C00001600148704700000003005001682029A2
:1028D00002D24FF0A040704701F01F010160014893
:1028E00070470000000300500168202902D24FF019
:1028F000A040704701F01F010160014870470000CF
:10290000000300500168202902D24FF0A040704718
:1029100001F01F01016001487047000000030050F2
:102920000168202902D24FF0A040704701F01F013A
:1029300001600148704700000003005001B568467F
:10294000FFF7C4FF009A01219140C0F8081508BDA7
:1029500001B56846FFF7C8FF009A01219140C0F811
:10296000081508BD01B56846FFF7CCFF009A0121A4
:102970009140C0F8081508BD01B56846FFF7D0FFC3
:10298000009A01219140C0F8081508BD38B501240E
:102990000090684631B1FFF78BFF00998C40C0F87A
:1029A000084538BDFFF784FF00998C40C0F80C45FE
:1029B00038BD000030B5154A01460020D2F8104459
:1029C00023460AE0DB681D79854205D1401C0A28B0
:1029D000F6DB4FF0FF3030BD1B68002BF2D1431CFB
:1029E000F9D0CB681871D2F8103443B1DB68CC68E9
:1029F0001B682360D2F81024D268116030BDC2F881
:102A00001014C96800220A6030BD0000F8070020D9
:102A1000F0B595B01C4615460F4608461A9E00F0C4
:102A20001BFB182109A8FDF796FC0E96CDE9095469
:102A30000023082203A9384600F023FB05980690DE
:102A4000BDF81000ADF81C00BDF81200ADF81E0076
:102A500000208DF821000398082600F003000128CB
:102A600002D0022818D032E003983346850AC0F31A
:102A7000C2008DF8200003980FA9C0F38314A200B0
:102A8000384600F0FEFA09A8009006AB22460FA9CE
:102A9000284600F03DFA1AE00398840DC0F3C20006
:102AA0008DF82000082C01D2254600E00825334689
:102AB0002A460FA9384600F0E4FA2E44641B09ABFD
:102AC00006AA29460FA800F07FF9002CEAD1384663
:102AD00000F0C8FA15B0F0BD7047002001F06ABEE2
:102AE000084810B50178084A515C19B1001D00F082
:102AF00029FE02E00C3000F037FDBDE81040002058
:102B000001F058BE480000201C00002008B5034A10
:102B100000924023024AFFF77BFF08BD9942000064
:102B2000600600200A4A012902EBC00007D00229F2
:102B300007D0032907D0042907D0002070470220BE
:102B40007047042070470079704740797047000053
:102B5000A84D000010B5FFF7C0FF04210348FFF7A0
:102B600029FF02490120C968487110BD984D000035
:102B70002DE9F0478CB0FEF7C1F818B100200CB079
:102B8000BDE8F0877D4C0020C4F81804BFF34F8FD8
:102B900060680290A5684FF00008284004EB8000B0
:102BA0000CE000BFD4F8180470B921680298814283
:102BB00001D86160E2E7284004EB80000C3002A9F4
:102BC000FFF786FA0028EDD1002003AA029901EA56
:102BD000050304EB8303491CDB6842F82030401CEA
:102BE00002910228F2D3039800F00300022802D0D9
:102BF00001284DD0A7E003985022810D8946B2EB01
:102C0000905F00D850210E4666F39F500390083124
:102C10005B4800F0D8F9070078D000F01DFA434671
:102C2000082203A9384600F034FA029908F1080A8C
:102C30002940681A8000001D864222D94F4D0C356C
:102C400030B1C2B204EB8101301A90460C3104E07D
:102C50002946F2B2002590462846C6B25346384669
:102C600000F017FA0AEB080325B132462946384628
:102C700000F00FFA029909F1030001EB90000290B5
:102C80003BE004EB81015346324638460C31EFE716
:102C90000398C0F38310062800D30620039960F33D
:102CA0008911C1F38310801C03918100344800F026
:102CB0008AF9070047D000F0CFF94346082203A95C
:102CC000384600F0E6F908F1080800260FE00298FF
:102CD000434600EA0501401C04EB810102900422F6
:102CE00038460C3100F0D5F908F10408761C039839
:102CF000C0F38310B042EAD847B1D4F81054D4F8E6
:102D0000180478B1384600F0ADF931E01BE0E8680E
:102D10004079012804D12A6828463946126890472C
:102D2000E8680568002DF2D1384600F09BF90020D4
:102D3000FDF7B8FDD4F8180408B9029860600020C7
:102D4000FDF7B2FD14E0D4F8104405E021682046F8
:102D500089688847E0680468002CF7D109480A4967
:102D6000401AC008022101EB004008A100F018F849
:102D7000FDF7C4FF80F0010001E70000F807002024
:102D8000D04D0000C84D0000A84D00004261636BAB
:102D9000656E647320666C7573686564000000007E
:102DA00000231A4601F018BC08B5012300926A46B8
:102DB00001F012FC08BD1CB5CDE9002302236A46D0
:102DC00001F00AFC1CBD00002DE9F0470E468046CC
:102DD0001C469246082940D894F80C900020207395
:102DE0001946104600F024FD0025B54206D218F819
:102DF00005201BA12046FFF78BFB03E01AA120460C
:102E0000FFF786FB6D1C082DEFD318A12046FFF7B6
:102E10007FFB0025B54212D218F805707E2F08D826
:102E2000FDF77CFA0068C05D10F03E0F01D03A4615
:102E300000E02E220EA12046FFF76AFB03E00DA161
:102E40002046FFF765FB6D1C082DE3D301222146C8
:102E5000504600F0CFFC84F80C90BDE8F0870000ED
:102E60002025303278000000202020007C00000067
:102E700025630000200000000B4810B5FF21816091
:102E8000002101604160C0F81814C0F81414012139
:102E900080F82014054800F0E3F8002803D1044826
:102EA00000F0FFF8002010BDF8070020D04D000012
:102EB000344C000002480349401AC0087047000023
:102EC000D04D0000A84D000013B56846FFF706FA84
:102ED00008B100201CBD0248009950F831001CBD0B
:102EE000A84D000070B509480125D0F8104480F8BD
:102EF000205407E0E068457121682046496888470A
:102F0000E0680468002CF5D170BD0000F8070020CF
:102F10002DE9FF4781460C9D00200C462F7B28732E
:102F2000984616462946184600F082FC072E42D2E3
:102F3000DFE806F004090F161F2A36004946284626
:102F4000FFF7E6FA37E0494628462268FFF7E0FA3D
:102F500031E0D4E9002349462846FFF7D9FA2AE0B0
:102F6000A0680090D4E9002349462846FFF7D0FA2C
:102F700021E0D4E90201CDE90001D4E9002349466A
:102F80002846FFF7C5FA16E004F1080007C88DE8E7
:102F90000700D4E9002349462846FFF7B9FA0AE0BA
:102FA00004F108000FC88DE80F00D4E9002349465A
:102FB0002846FFF7ADFA00222946404600F01AFCE9
:102FC0002F73BDE8FF872DE9F041058A80462D1F4C
:102FD0004819C01CB0FBF5F0C6B24046FFF7D1F966
:102FE000041E19D00020207101206071E5800027A7
:102FF0002546761EC4F800800BE04046FFF7C1F975
:1030000060B16179491C6171286005467F1CC0F878
:103010000080B742F1D32046BDE8F081204600F0A1
:1030200002F80020F8E72DE9F041457901466B1ED2
:10303000002201E00968521C9A42FBD30F68014646
:10304000002605E038460C68FFF7BAF92146761CE1
:10305000AE42F7D3BDE8F0810121001DFFF775B93D
:10306000FFF7C3B910B504460121001DFFF783F92E
:1030700010F0FF0F04D12046BDE81040FFF7D3BF8A
:1030800010BD1CB501920122009201AAFFF7E7F8DA
:103090001CBD1CB501920022009201AAFFF7DFF8C7
:1030A0001CBD826800219160826811618268516153
:1030B0008268D160826851608068016070474058C2
:1030C000002800D0012070474058002800D001207F
:1030D000704708B5002242504058009008BDD0F813
:1030E0000403084000D0012070474058002800D059
:1030F0000120704708B5002242504058009008BD9A
:103100000121B1EB507F01D10120704700207047B1
:103110000121B1EB507F01D10120704700207047A1
:1031200070B50D4600F0D0FB04000FD00020FDF775
:10313000B9FB207920B10020FDF7B6FB112070BD4E
:103140000120256020710020FDF7AEFB002070BD3E
:1031500010B500F0B9FB002802D000210160017118
:1031600010BD00002DE9FC470C461546017980464C
:10317000574A01EBC10002EB80069946307F10B13F
:103180000820BDE8FC87534AD8F80000074652F8EB
:103190002110FFF7C5FF08B11120F2E7C6E9005979
:1031A000207B0128207802D8FFF777FB01E0FFF7AA
:1031B000C5FB4FF0000ACDF800A0CDF804A02078A0
:1031C000534652460121FFF7C2FA60784FF0FF35AF
:1031D000FF2806D08146FFF760FB4846FFF73FFB1C
:1031E00000E0A946A078FF2809D000220546012367
:1031F000CDF800A01146CDF804A0FFF7A8FAA078FA
:1032000086F82000E078F077E078FF280BD021796D
:1032100011B1FFF742FB01E0FFF790FBE078FFF709
:103220001EFB2079B0772178C7F80815C7F80C95F0
:10323000C7F81055A068C7F82405217B607B00B152
:103240000120012904D0022905D0032908D105E075
:1032500040F0020004E040F0040001E040F006000D
:10326000C7F85405A079C7F8C005306810B14020F0
:10327000C7F804030720C7F800053068012108B328
:10328000D8F80000627940F3073000284FEA421274
:1032900006DA00F00F0000F1E02080F8142D03E0C2
:1032A00000F1E02080F80024D8F8000040F3073057
:1032B00000F01F0201FA02F24009800000F1E02054
:1032C000C0F80021504686F81DA0317759E700006C
:1032D000900500206C4B00002DE9FC410746007969
:1032E0001D4900EBC00001EB80040121206860B1A2
:1032F000386840F3073000F01F0201FA02F240097B
:10330000800000F1E020C0F880213D6820680026A0
:1033100070B11248C5F80803607F48B169614FF485
:10332000827841462846FFF7CAFE0028F9D0667722
:1033300094F82000FF2806D00023009601221946A9
:103340000196FFF704FAC5F800653868FFF700FF3B
:103350002677BDE8FC81000090050020520108009E
:103360002DE9F04105460F460079154900EBC000F4
:1033700001EB80041646607F10B11120BDE8F0819A
:10338000206820B116F0140F01D10120607797E872
:103390000F0004F10C0888E80F00E07FFF2806D03A
:1033A000A17F11B1FFF7CAFA01E0FFF776FA3346C1
:1033B0003A4621462868BDE8F04101F08FB8000088
:1033C000900500200149024801F01CBAB405002014
:1033D000002000402DE9F0410546007916460F46D1
:1033E00000EB40012C4A01EBC00102EB810494F890
:1033F0002A1011B10820BDE8F081284951F82010A9
:103400002868FFF78DFE08B11120F4E739462846F9
:10341000FDF75EFA66603869206030004FF0010603
:103420002DD03F7F4FF48E712868FFF752FE4FF486
:10343000A2712868FFF74DFE28681949C0F80413E7
:1034400028684FEA471140F30730002806DA00F0F9
:103450000F0000F1E02080F8141D03E000F1E020EF
:1034600080F80014286840F3073000F01F0106FAC6
:1034700001F14009800000F1E020C0F80011286847
:103480000421C0F800150020A061E06184F8290043
:1034900044F8140FA675AEE7B4050020704B000089
:1034A000800002002DE9F047054600790B4600EB4D
:1034B000400101EBC000234901EB8004284600F0E5
:1034C00043F810B11120BDE8F0874FF00008C4F8B0
:1034D0002080A360626184F828804FF48E7647468E
:1034E00031462868FFF7F5FD28684FF00109C0F85C
:1034F00008902146286801F022F9606800BBD5F8E1
:1035000000A00EE094F8280008B10F2716E031461D
:103510005046FFF7D9FD0028F4D02146504601F06F
:103520000EF9216A60698142F1D331462868FFF7BC
:10353000CBFD0028F9D02868C0F80C90C4F814809E
:103540003846C0E7B4050020007900EB400101EBEC
:10355000C000044901EB80004069002800D0012030
:1035600070470000B40500202DE9F04704460079BB
:103570004FF0000900EB400101EBC000254901EBD1
:1035800080072068C0F80095786880B120682249DB
:10359000C0F808132068012140F3073000F01F0233
:1035A00091404009800000F1E020C0F880112068BF
:1035B000D0F80C25D0F81485D0F80865D0F810554F
:1035C0004FF0FF31C0F81415C0F80C152068C0F892
:1035D0000815C0F81015501C02D01046FFF71BF953
:1035E000B8F1FF3F02D04046FFF715F9681C02D042
:1035F0002846FFF710F9701C02D03046FFF70BF990
:103600002068FFF7A5FD87F82A90C7F80490BDE869
:10361000F0870000B405002084020200014902483E
:1036200001F09CB9E0050020002000402DE9F041A8
:103630000546164600790F46154A00EBC00102EB1D
:10364000810494F8201011B10820BDE8F0811149DF
:1036500051F820102868FFF763FD08B11120F4E746
:1036600039462846FDF76FF96660386920601EB15B
:10367000397F2846FEF7EEFC28680821C0F80015BF
:103680000020A061E0616061012184F82010DCE786
:10369000E0050020744B00002DE9F04704460E467B
:1036A0000079204900EBC00001EB80051746304649
:1036B000FFF72EFD30B1204600F036F820B1112082
:1036C000BDE8F0871020FBE76F61AE604FF49076A5
:1036D000002731462068FFF70DFD4FF4AC784146D6
:1036E0002068FFF707FD2068AA686969C0F84425CB
:1036F000C0F84815206801218160686878B9B14632
:1037000049462068FFF7F1FC064641462068FFF76E
:10371000ECFC0643F4D000B10F2700206861384666
:10372000CEE70000E00500200079054900EBC0006D
:1037300001EB80004069002800D0012070470000A4
:10374000E00500202DE9F04704460079274900EB09
:10375000C00001EB800720684FF00009C0F8009519
:10376000786880B120682249C0F8081320680121D8
:1037700040F3073000F01F0291404009800000F143
:10378000E020C0F880112068D0F80C25D0F814850E
:10379000D0F80865D0F810554FF0FF31C0F80C157F
:1037A000C0F814152068C0F80815C0F81015501C92
:1037B00002D01046FFF738F8B8F1FF3F02D040467C
:1037C000FFF732F8681C02D02846FFF72DF8701C6E
:1037D00002D03046FFF728F82068FFF7B9FC87F8D9
:1037E0002090C7F80490BDE8F0870000E0050020B5
:1037F0001003020010B50C46017A052908D0407A62
:1038000038B1084808A102682046FEF781FE00E0B2
:103810001AB106A12046FEF77BFE2046BDE8104007
:10382000FEF783BE90000020257300000D0A000003
:1038300038B5C3880D46044633B114A0009015A2D4
:1038400016A12846FEF764FE217A05291CD0607A6D
:1038500048B1A088FFF766F9164951F8202016A153
:103860002846FEF755FEA0880021FFF72DFB0346F2
:103870001049207A143951F8202001B02846BDE8BB
:1038800030400EA1FEF744BE38BD00001B5B306D1A
:10389000000000001B5B313B33316D0025734C6F22
:1038A00067732064726F7070656420282564292511
:1038B000730D0A0090000020257300003C25733E24
:1038C0002025733A200000000349884201D10348B3
:1038D00070470020704700000020004030000020AA
:1038E0002DE9F047022617460D460446022969D302
:1038F0006069A84266D920784FF00109012804D0F8
:10390000022836D003285DD143E0216A05EB550833
:1039100001EB58212046FEF7F9FC060052D1C8F30E
:1039200008002044303008F10108E90704D001788C
:10393000FAB262F31F1100E03946017084F8039077
:10394000216A204601EB5821FEF7E0FC060039D140
:10395000C8F3080020443030E90702D0C7F307114C
:1039600005E00178C7F3032201F0F0011143017073
:1039700026E0206A00EB15212046FEF7C7FC060072
:1039800020D1E8B204EB4000B9B2303000F020FEA4
:1039900016E0206A00EBD5112046FEF7B7FC0600C2
:1039A00010D140F2FF1000EA850020443030054677
:1039B000FEF7BBFB67F31B000146284600F000FE44
:1039C00084F803903046BDE8F0872DE9F0410568A2
:1039D00013460E46074602292DD36869B0422AD9FC
:1039E0003BB14FF0FF3219462846FFF779FF002818
:1039F0001FD131463846FEF72BFA040018D0012CAF
:103A000019D0601C19D0002231462846FFF768FF04
:103A100000280ED1D5E90410821E914205D2491C1E
:103A20002961297941F0010129712646B042E0D887
:103A30000020BDE8F0810220FBE70120F9E770B526
:103A4000054688690C4600284FF4847128460AD040
:103A5000FFF73FFBD5F81805626AE1688854606A91
:103A6000401C606270BDFFF734FBD5F8180570BDCF
:103A70001FB501238DF80030CDE90121D0E90012F6
:103A8000684690471FBD1FB501238DF80030CDE972
:103A90000121D0E90012684690471FBD2DE9F04191
:103AA0002B4B93F8234014B11120BDE8F081012580
:103AB000002783F82350040612D5022483F82340FC
:103AC000772483F82840002483F8294083F82A408B
:103AD00083F82B40062783F82C40FF2483F82D40E1
:103AE000DC1900F07F0684F828600E0E84F8296047
:103AF0000E0C84F82A600E0A84F82B6084F82C10CF
:103B0000402810D0482810D05FF0FF0184F82D1015
:103B10000521022A0BD0032A09D083F8245000067D
:103B200008D5012008E09521F0E78721EEE783F82A
:103B30002410F4E793F82400054A0E30C3B238325B
:103B40000621A2F1100000F083FB0020ADE7000089
:103B500004060020FEB5214E054640783070776897
:103B60002978BC6949B11E4801291CD002292FD0EF
:103B7000BDE8FE400320FCF783BDFCF7FDFD0068B7
:103B800020604FF400706060706880698068002871
:103B90001DD00020009001900290687800B10120B3
:103BA0008DF801000DE0A168002910D007C88DE84C
:103BB0000700687800B101208DF8010004F10C00C5
:103BC0000190A0690290A268694638469047FEBD00
:103BD000A1680029FBD00C30E8E700003C00002081
:103BE000B04B00002DE9F84FA34C1746D0F8012048
:103BF000A34612BA037922F0FF02BBF8205042EA32
:103C0000030EA38B6D1C8A460BF148061FFA85F93B
:103C1000017840F2122C04229BF80AB00025A3F28E
:103C20001228634575D020DC40F2ED16A3F2ED1C9E
:103C3000B34239D00EDC4FF4F5775BB3BB4225D1EC
:103C4000012200214020FFF729FF08B1FCF718FDF1
:103C5000A683C1E08848BCF1060F807A20F00700F7
:103C600032D0BCF1130F11D148E0B8F1290F75D053
:103C700006DCB8F1150F78D0B8F11B0F06D183E040
:103C8000B8F1330F6CD0B8F1380F6AD0A583032098
:103C9000BDE8F88F012200214020FFF7FFFE08B1A8
:103CA000FCF7EEFCA78397E0880801D03A70BBE0F0
:103CB00003224FF4D5714820FFF7F0FE08B1FCF75E
:103CC000DFFC40F2F31086E04B0703D4C01CA07267
:103CD0008808EBD12584A07A00F0070003280AD0D9
:103CE00000210222E920FFF7D9FE08B1FCF7C8FC49
:103CF0004FF400706FE04FF08041F2E74B0734D58E
:103D0000401CA072A4F82090B9F5FA6F02D90220E5
:103D10007BE00AE0022200214120FFF7BFFE08B14C
:103D2000FCF7AEFC40F2122055E08808BED1C8076F
:103D3000E8D131E0A4F82090B9F5FA6FE7D80BF09C
:103D4000070003280ED000210222E920FFF7A6FE7B
:103D500008B1FCF795FC40F227203CE02CE004E0A1
:103D60003CE046E04FF08041EEE788089ED1C8076E
:103D7000E0D1022200217A20FFF790FE08B1FCF783
:103D80007FFC40F22D2026E088088FD15FEA4E00AC
:103D900002D54BF00800A072A07A00F007000328BB
:103DA0000CD0012251025020FFF778FE08B1FCF739
:103DB00067FC40F23B200EE088088AD10120E660D3
:103DC000A082024600214920FFF768FE08B1FCF7F7
:103DD00057FC40F24520A083012059E78908A5D16E
:103DE000AAF1010101F0FF0AE58340F24A21A18313
:103DF000401C6B461022514600F080F8022801D288
:103E0000002045E79DF8000008B138700CE03078DC
:103E100080090CD0012823D0022808D028466060F1
:103E20004FF4007020813D70A583022030E7307A86
:103E3000F179800900EB8100B179B27A01F00301D8
:103E400000EB8120737A7179D20903F0030301F04A
:103E50000F0102EB43021144401CC91F8840DEE7FA
:103E6000307A0102F07901EB0040717A0844800257
:103E700000F58060D3E7000004060020F8B51E4C72
:103E800016460025A28B42B1A2F50072723A10D0FC
:103E90000A2A2CD0A5830320F8BD0278920801D00D
:103EA000042012E0491EE58340F27222C9B2A283C7
:103EB000401C6B464FF4007200F020F8022801D23B
:103EC0000020F8BD9DF8000008B1307010E0A08A15
:103ED00001280CD9012200214C20FFF7DFFD08B199
:103EE000FCF7CEFB4FF41F70A0830120F8BD3570A6
:103EF000A5830220F8BD0000040600202DE9F05F34
:103F0000544C9A461646E38B254605F1380240F29A
:103F1000B31B2835A3F2B31C4FF000095B455ED0FC
:103F200004DC73B11CF1120306D154E0BCF1070F9D
:103F300079D0BCF1130F75D0A4F81E900320BDE812
:103F4000F09FA38AE3826FE0A4F8209084F82870A1
:103F5000A4F81890032384F82330238C44F62067B8
:103F60005B1C9BB22384BB4204D902210AE0491E98
:103F7000C9B2401C59B10378FF2BF8D0DBB2FE2B3D
:103F80000FD005218AF80010A4F81E9060E01023DD
:103F90000121284600F05CF940F2A110E0830120E5
:103FA000CDE7491E0423C9B2401C84F82330B14236
:103FB00001D9374600E00F46002306E0D4F80C8014
:103FC00010F803C008F803C05B1CBB42F6D327837C
:103FD000E3683B44E36094F82330032BBDD0208B8F
:103FE000B04213D2301A86B2F02E00D9F026F3B2C6
:103FF00001212846E26800F02BF9E0683044E060D7
:10400000208B30442083A4F81EB0C8E7E08A022346
:10401000401EE0820121284600F01AF94FF4DD70BD
:10402000BCE700E00EE00021E38AFF27002B8BD1E4
:1040300084F8287002230121284600F009F94FF482
:10404000E370ABE784F823908AF80090A4F81E9000
:10405000022074E7040600202DE9F05F7B4C8946BE
:10406000214613460746B4F81CC001F1380201F19D
:10407000280091F823A08E8A40F2C6250021ACF2D8
:10408000C6284FF0040B4FF0030EAC456ED00CDC8D
:10409000BCF1000F16D018F1290C2CD0BCF1100F78
:1040A00053D0BCF1210F09D14FE0B8F11E0F7FD0E2
:1040B000B8F1340F78D0B8F1440F76D0A183032043
:1040C000BDE8F09F3D78AD0803D000BF83F800B095
:1040D000A3E0A57A05F00705012D0FD0012E0DD91B
:1040E000012259202169FFF7D9FC08B1FCF7C8FA71
:1040F00040F29D2016E03D78AD08E7D1E6826AE007
:10410000218384F823B084F82850012E01D9FC21A2
:1041100000E0FE2184F829100223194600F098F8E7
:1041200040F2AD20A08369E0C3F5007085B2F02DA8
:1041300000D9F025C818E9B2012300F089F8208BD6
:104140002844208340F2BE20ECE74049238BC96815
:10415000B3F5007FE8D301F50071E16084F823E056
:104160000323012100F074F8A58347E094F83A5046
:1041700005F01F05052D05D00B2D01D00D2DA5D166
:10418000052013E0218420E0258C44F620666D1C78
:10419000ADB22584B5423ED81023012100F058F875
:1041A0004FF43970BEE703E02AE040E0187034E0D5
:1041B000002508E017F805C0BCF1000F02D084F814
:1041C000231005E06D1C4D45F4D3BAF1030FDBD08D
:1041D000E58A6D1EE582E78AFF25002F90D1012E2A
:1041E00032D984F82850FD2184F8291003230221B4
:1041F0001C3400F02DF840F2FA20208001205FE707
:10420000218484F823E0258C44F620666D1CADB231
:104210002584B54204D90220C8E7A18302204FE7D4
:104220001023012100F014F840F20A307AE700254B
:1042300005E07E5D16B184F8231005E06D1C4D4548
:10424000F7D3BAF1030FDED01970E6E704060020B9
:10425000F8B507460E481C46154690F858000090E1
:104260000E466846FEF75CFB0146009A012090402E
:10427000C1F80C052B463246394606480094FEF735
:1042800007F9002803D0BDE8F840FCF7F9B9F8BDFC
:1042900004060020784B000070B50D4C0020D2B20F
:1042A0002070201D0B4D0378EB5C1BB1001DFFF748
:1042B000F3F902E00C30FFF7F5F808B1FCF7E0F98C
:1042C0006078002802D021780029FAD070BD000063
:1042D000440000201C0000202DE9F04FDFF8BC81D5
:1042E0000746057CC468B8F8160087B018B998F876
:1042F0005800FEF741FB98F8230000264FF0020B10
:104300004FF003094FF0010A022801D001284BD1D8
:104310007968AD1FA41D0978EDB24C2903D15DB1B8
:104320006D1EEDB2641C1DB12278FF2AF8D005E0A5
:104330004C2901D0002402E00125641E5CBB98F8E2
:104340002210012927D08DF801A098F8221050469C
:10435000012907D0022905D004290DD005290ED046
:10436000032006E08DF8006088F82290FCF776FACA
:1043700038B1FCF785F904E08DF8000001E08DF814
:1043800000B098F85800FEF7F7FA88F822906846CF
:10439000D8F8001065E0022804D188F823A020781E
:1043A000400814D088F8236006208DF80C0098F897
:1043B0002200012817D0022819D0042838D0052857
:1043C00051D00320FCF75CF907B0BDE8F08F98F8F6
:1043D0002400324A0E30C3B238320621A2F10A005C
:1043E000FFF736FFF0E788F822B0A8F81C6003AAB0
:1043F00029462046FFF7F6FB0228E5D38DF8086032
:104400009DF80C008DF8090088F8229098F8580063
:10441000FEF7B2FA9DF80C0020B1FCF71FFA08B1C4
:10442000FCF72EF91E494FF08040C1F8240515E035
:1044300003AA29462046FFF721FD0228C4D38DF8A0
:1044400008A09DF80C008DF8090088F82290A8F8C3
:104450001460A8F8166088F8236019E0D8F80010F6
:1044600002A88847B0E703AA29462046FFF7F4FDD3
:104470000228A9D38DF808B09DF80C008DF809002A
:1044800088F8229088F82360A8F81460A8F81660CD
:1044900098F85800FEF770FAE0E7000004060020E4
:1044A0000030004000B585B00A4601788DF8001054
:1044B00041680191017A8DF80810C1680391007C70
:1044C0008DF81000044850F82210103850F82220BF
:1044D0006846904705B000BD800500202DE9F843EF
:1044E000044610681E4615460F464FF0000810B1EE
:1044F000FEF706FEF8B1A86810B1FEF701FED0B1D4
:10450000D5E90001C4F84405C4F84815D5E902010D
:10451000C4F83405C4F838154FF48C754046C4F817
:104520001881D4F818110091F2074FF0010107D05B
:10453000C4F8501506E087F81D801020BDE8F88308
:10454000C4F85005B20702D5C4F8401501E0C4F81C
:104550004005300700D42161386848B146F3800037
:10456000401C4FF0400014D0C4F804030020E5E7DD
:1045700029462046FEF7A3FD0028F9D0F87FFF2842
:10458000F4D0B97F11B1FEF788F9EFE7FEF7D6F95D
:10459000ECE7C4F80803E9E770B50C460646154693
:1045A00091B204F11A0000F013F83078032806D114
:1045B000290C04F11400BDE8704000F009B870BD8A
:1045C0000170090A4170090A8170090AC1707047B7
:1045D0000170090A417070472DE9F84F204D92464D
:1045E000894606469846012269461846AF68FCF798
:1045F00029FB58B3009800210446801C09E000BF45
:1046000000EA07035AF8212005EB8303401C491CEC
:10461000DA604145F4D34FEA164AFCF7E9FE4AEA6C
:104620000041601C384005EB80003C4005EB8402F3
:10463000C160D06866F3C50068F3891069F39F20F4
:1046400020F00300401C20F00400D06095F8200406
:1046500002E000BFFEF78CFA0028FBD1BDE8F88F1E
:10466000F807002070B5044600F040F8050036D188
:10467000207803282CD12079012829D1420204F185
:10468000300000210646FDF7E3FD4AF6552104F20D
:104690002E20FFF79DFF13493046FFF791FF124987
:1046A00004F50570FFF78CFF04F506702169FFF72C
:1046B00087FF04F50770E168FFF782FFE2690123D5
:1046C000521CE26260783146FCF748FE00202071FF
:1046D000002260781146FCF7B5FD00B1012528469F
:1046E00070BD000052526141727241612DE9F0418A
:1046F0000446C0780027F8B1E56A04F1300160781B
:1047000001232A468846FCF729FE08B1012713E059
:104710000020E070206AA169281A88420CD2A6788D
:1047200008E0A0690123054460782A464146FCF769
:1047300015FE761E022EF4D23846BDE8F08170B523
:104740000C4605464FF48E71FEF7C3FC216AA06843
:10475000415C206A401C2062C5F81C1570BD1FB565
:1047600000228DF800200291816801914261D0E918
:104770000012684690471FBD1FB50A4601788DF8A4
:10478000001041680191017A8DF80810C06803900B
:10479000044850F82210083850F822206846904704
:1047A0001FBD00002800002001490120087070474B
:1047B0004400002010B588B0044620220E49684607
:1047C000FBF7B0FD06200090C01F019002900390FF
:1047D0004FF0EB7006900CB1084A00E000226946E9
:1047E0000748FDF761FE08B1FBF74AFF0448001FC8
:1047F000447008B010BD0000144C0000A947000030
:10480000480000202DE9FF470C4605464FF4007193
:10481000FEF765FC01274FF40178002618B34FF42A
:10482000927949462846FEF74FFCE0B149462846B2
:10483000FEF74FFCC5F8088394F8290000B96F60B3
:1048400002208DF80000D5F88004C5F8800403909C
:10485000A0690290E0680190A661E661D4E90012C7
:104860006846904728E004212846FEF738FC18B334
:104870004FF484712846FEF727FCE8B1214628460C
:10488000FFF7DDF8616AA069884215D1E06938B1A7
:10489000E268616AA0612069E6616662E06008E042
:1048A00094F8290000B96F60C5F80883A661E26832
:1048B000616A2046FFF7DCF84FF48E7841462846BF
:1048C000FEF702FC78B1206A6169884202D294F84E
:1048D000280020B341462846FEF7FBFB616911B171
:1048E0002046FFF73CFF4FF4A27841462846FEF7EA
:1048F000EBFB002818D041462846FEF7EAFB94F867
:10490000290000B12F60A06900280DD0A661E268DF
:10491000616A04B02046BDE8F047FFF7A9B8214618
:104920002846FFF70CFFDEE7BDE8FF871FB50A4604
:1049300001788DF8001041680191017A8DF8081016
:10494000C0680390044850F82210083850F822201C
:10495000684690471FBD0000280000202DE9FF4158
:104960000C464FF4927706463946FEF7BEFB00250B
:10497000B8B139463046FEF7BDFB02208DF8000085
:10498000D6F88004C6F880040390D6F83C0502905F
:10499000E0680190A561E561D4E90012684690479E
:1049A00023E04FF4887739463046FEF79EFBE0B1AE
:1049B00039463046FEF79EFBD6F83C15A069884282
:1049C00013D1E06960B1E268D6F8000220F020005F
:1049D000C6F80002E069A0612069E561E06001E0DD
:1049E000A561E2682046FFF74EF84FF4A2773946FA
:1049F0003046FEF77AFB68B139463046FEF77AFB5F
:104A0000A06938B1A561E561D6F83C152046E26899
:104A1000FFF739F84FF4907739463046FEF765FBDB
:104A2000002812D039463046FEF764FB6069002842
:104A30000BD0D6F84C058DF800500290A06801907C
:104A40006561D4E9001268469047BDE8FF81000027
:104A50002DE9F05F8346DDE90A4A994690460D4606
:104A60000846012703E000BFB0FBF8F07F1C40457B
:104A7000FAD2B94500D94F465FEACA7012D18CB15B
:104A80005FEA8A7002D5B9F1000F01D0202607E055
:104A9000302605E031465846641EFCF717F90CB184
:104AA000A742F7D35FF00106B9F1010F02D9A9F1CE
:104AB000010903E0B5FBF6F0404502D306FB08F61A
:104AC000F2E7DFF83C9000BFB5FBF6F000FB1655AF
:104AD00019F800105846FCF7F9F8B6FBF8F6002E66
:104AE000F2D15FEACA7009D0002C07D0A74205D2E4
:104AF00020215846641EFCF7E9F8F5E7BDE8F09F71
:104B0000F84B000070B50D4604000CD0206850B181
:104B1000017841B1C188A288914204D14078FCF764
:104B20000DFCC00703D000202860092070BD20685C
:104B30002860002070BD0000984B0000D44C00009D
:104B4000D04C0000C84C0000000200002D2E2F2C7D
:104B5000540500200D0E0F100B0C1819FFFFFFFF5E
:104B60000006FF000000004000000000A10300005C
:104B7000C53300001D36000000000000003000407A
:104B80000000000001000000000000FF06FF000020
:104B90000000000400000000ED090000FD0A000014
:104BA000810A0000510B0000610A0000E9090000C1
:104BB00002000000000000000000000003000000F0
:104BC00000000000000000000001000000000000E4
:104BD00000000000010000000000000000000000D4
:104BE00002010000000000000000000002010000BF
:104BF0000000000000000000303132333435363719
:104C000038394142434445460D2B0000E12A00005B
:104C1000D92A0000FFFFFFFFFFFFFFFFFFFFFFFF9D
:104C2000FFFFFFFF00000000000000000000D601B1
:104C300006010000600700207F000000E007002060
:104C4000004040404040404040404141414141409F
:104C50004040404040404040404040404040404054
:104C600040050202020202020202020202020202E3
:104C700002202020202020202020200202020202E8
:104C80000202909090909090101010101010101040
:104C9000101010101010101010101010020202024C
:104CA0000202888888888888080808080808080890
:104CB000080808080808080808080808020202028C
:104CC00040000000414C0000312E30300000000058
:104CD000534443004E6F7264696300007761726EE3
:104CE000696E670064656275670000001B5B313B9D
:104CF00033306D001B5B306D000000001B5B313BEF
:104D000033316D001B5B313B33326D001B5B313B3C
:104D100033336D001B5B313B33346D001B5B313B28
:104D200033356D001B5B313B33366D001B5B313B14
:104D300033376D00696E666F000000006572726F38
:104D400072000000505253005350494D00000000C3
:104D50005541525400000000554152544500000096
:104D6000756172745F6C6F675F6261636B656E64BF
:104D70000000000061707000E44D000000000020A1
:104D8000B8000000DC0500009C4E0000B8000020C8
:104D9000682B0000EC050000084C0000000000003B
:104DA000604D00005C000020444D00000000000049
:104DB000484D000000000000504D000000000000C1
:104DC000584D000000000000744D00000000030377
:104DD0006C000020640000206C000020A006002071
:104DE00018000000384B0000000000000001000027
:104DF00000000000000000000000000000000000B3
:104E000000000000000000000000000000000000A2
:104E10000000000000000000000000000000000092
:104E20000000000000000000000000000000000082
:104E300000200040000000000020004000000000B2
:104E400000000000FF000000000000000000000063
:104E50000000000000000000000000000000000052
:104E6000000000003C4D0000DC4C0000344D000010
:104E7000E44C0000F44C0000EC4C0000FC4C000042
:104E8000044D00000C4D0000144D00001C4D0000AE
:0C4E9000244D00002C4D00000090D003C9
:0400000500000201F4
:00000001FF
