:020000022000DC
:1060000000000420B5620200DD620200DF620200CF
:10601000E1620200E3620200E562020000000000AB
:10602000000000000000000000000000E762020025
:10603000E962020000000000EB620200ED62020073
:10604000EDA40200EF620200B5A90200EF620200B7
:10605000EF620200EF62020011A8020015AB02001D
:10606000EF620200EF620200A5AE0200EF620200E2
:10607000EF620200D1AA0200EF620200EF620200AA
:10608000EF620200F9730200EF620200EF620200A9
:10609000B5740200EF620200ED0C0300551006001B
:1060A000EF620200EF620200B9AE0200EF6202008E
:1060B000EF620200EF62020000000000000000003A
:1060C000EF620200EF620200EF620200EF62020084
:1060D000A5FF0500EF620200EF620200EF6202001E
:1060E000EF620200EF620200EF62020000000000B7
:1060F00000000000EF62020000000000EF620200FA
:10610000000000000000000000000000000000008F
:10611000000000000000000000000000000000007F
:10612000000000000000000000000000000000006F
:10613000000000000000000000000000000000005F
:10614000000000000000000000000000000000004F
:10615000000000000000000000000000000000003F
:10616000000000000000000000000000000000002F
:10617000000000000000000000000000000000001F
:10618000000000000000000000000000000000000F
:1061900000000000000000000000000000000000FF
:1061A00000000000000000000000000000000000EF
:1061B00000000000000000000000000000000000DF
:1061C00000000000000000000000000000000000CF
:1061D00000000000000000000000000000000000BF
:1061E00000000000000000000000000000000000AF
:1061F000000000000000000000000000000000009F
:1062000010B5054C237833B9044B13B10448AFF3F0
:1062100000800123237010BD3831002000000000F1
:106220007072060008B5034B1BB103490348AFF376
:10623000008008BD000000003C31002070720600A4
:10624000154B002B08BF134B9D46A3F5803A002148
:106250008B460F461348144A121A3BF0AEF80F4B08
:10626000002B00D098470E4B002B00D09847002001
:10627000002104000D000D48002802D00C48AFF3A7
:1062800000803BF023F82000290005F00FFF3AF0D2
:10629000F7FF00BF0000080000000420000000001D
:1062A00000000000383100200089002000000000BC
:1062B000000000000649074A074B9B1A03DD043B18
:1062C000C858D050FBDC0AF00FFBFFF7B9FF000005
:1062D0004C740600082C002038310020FEE7FEE751
:1062E000FEE7FEE7FEE7FEE7FEE7FEE7FEE7FEE786
:1062F000F0B595B01C46164608460D4603F0D8F892
:106300001A9B0D93CDE9086400242346082205A9B1
:1063100028460A948DF82C400C9403F0E7F8079B6C
:106320000293BDF81830ADF80C30BDF81A30ADF856
:106330000E309DF814308DF8114003F00302012A4D
:106340001DD1BDF81440059EC3F3C203C4F38314EA
:106350008DF81030A20008230EA9284603F0C6F8D5
:10636000C6F3952608AB0093224602AB0EA9304631
:1063700000F002FD284603F09FF815B0F0BD022A98
:10638000F8D1BDF81640C3F3C203A4098DF810304C
:106390000827082C264628BF08263B4632460EA969
:1063A000284603F0A3F8A41B08AB02AA31460EA8A6
:1063B000374400F045FD002CEBD1DBE7014B012217
:1063C0001A707047953100207047000070B50F4D6E
:1063D00006460FCD88B06C460FC495E80F00002E1E
:1063E00084E80F004FF006030093094A09484FF074
:1063F000805308BF00226946069303F0D5FF08B119
:1064000000F0BCFE044B1E7008B070BD0C280600E6
:10641000BD630200082C00205431002007B5044B56
:106420000093044A4023FFF763FF03B05DF804FBC9
:10643000396402005531002038B50D4B0D4D002058
:1064400018700D4804782D5DD2B21C4665B1043039
:1064500005F09CF908B100F091FE084B1A7812B1D2
:106460002378002BFBD038BD0C3004F05FFFF1E740
:1064700095310020F06B0020082C002054310020C2
:1064800008B50848084A0378D35C3BB1043005F0EE
:1064900023F90020BDE80840FFF798BF0C3004F056
:1064A000EBFEF6E7082C0020F06B00200120FFF740
:1064B0008DBF000008B5FFF7F9FF0421034800F085
:1064C000B9FB034B01225A7108BD00BF34740600AA
:1064D0001C2C0020037813F0040216D003F00303F1
:1064E000012B03D0022B09D0012070470A680088D5
:1064F0000232C0F3831002440A60F5E70B68428859
:10650000023303EB92130B60EEE710467047000076
:106510002DE9F04F89B00546861C08A8484C019229
:1065200000230F4600F8113D01F0B0F923683B60ED
:10653000D4E901231344226801339B1A04F21C4757
:1065400004F5836A04F21448B3421AD3019A002373
:10655000002A6DD0012262F3010343F0040365F3C6
:1065600089132168A2689DF80F000A4003320E4487
:1065700044F82230266001F0ADF9012009B0BDE8F1
:10658000F08F0121384602F0BBF9504602F0D1F9F4
:10659000404602F0CEF90DF120096068D4F808B049
:1065A00049F8100D00EA0B00033004EB8000494667
:1065B000FFF790FF049BB0B90BEA030204EB8202E1
:1065C000D16805919A1C013303EA0B0B04EB8B0C89
:1065D00001F00303012B0492DCF80CB020D0022B55
:1065E00004D083460BE00BEA0300DDE7BDF816306C
:1065F0009B0903334FEA1B4B02EB93030493404682
:1066000002F09AF908B1049B63605946384602F0DB
:1066100077F9D4E901231344226801339B1A93E7E5
:10662000BDF81430C3F383134FEA1B4B1344E5E763
:10663000022262F3010343F0040365F39F5390E7E2
:106640006832002030B50A4B0A4A0B49D21AD208E8
:1066500000239A4201D1052006E031F82350046856
:10666000A54202D10360002030BD0133F1E700BF35
:106670002C73060034740600303000202DE9F84FEA
:10668000224B2348FF229A600022C3F81824C3E952
:106690000022C3F8142483F8202402F0C2FE8046AE
:1066A00088B91C481C4E1D4DDFF874A003F025F876
:1066B000AD1BED084446AC4208D1002318491948E7
:1066C0001A469C421BD14046BDE8F88F4FF00009A6
:1066D0004F4606EBC40BBC420AD0142256F83710C2
:1066E000DBF800003BF098F90028C8BF09F1010968
:1066F0000137BD42EFD12AF824900134DBE701EBEA
:10670000830540F823206A800133DAE768320020ED
:10671000147306004C2806002C730600347406001F
:1067200030300020B430002007B5019031B9019A13
:10673000064B53F8320003B05DF804FB01A8FFF7E5
:1067400081FF0028F3D00020F5E700BF2C7306007E
:10675000094B013903EBC000032909D8DFE801F038
:106760000A02040604207047007970474079704798
:1067700000207047022070472C73060030B5124C81
:1067800000EB400054F821508240072303FA00F048
:106790006A4002400D4B6A40C2F3821044F8212047
:1067A00003EB8101C2F3C203834238BF0346C2F345
:1067B0004220834202F0070238BF03469A4238BFA4
:1067C0001A464A8030BD00BFB4300020303000206F
:1067D000034BD3E90030C31A58425841704700BFF9
:1067E000683200202DE9F04F87B0FFF7F1FF064631
:1067F000002840F01B818E4DC5F81804BFF34F8F61
:106800006868AC6806AF47F8100D2040033005EB10
:1068100080003946FFF75EFE029B18B1D5F81824B8
:10682000002A66D004EA0302991C013305EB8202B8
:10683000234005EB8303D268DB68049302F0030373
:10684000022B0392029169D1BDF80E3079489DF870
:106850000C604FEA931ABAF1500FD14628BF4FF09F
:10686000500969F38F1309F10801ADF80E3002F0F9
:10687000F0FDC6F3C2068046002800F0BE8002F09C
:1068800017FE03A900230822404602F024FE0299C5
:1068900024EA01070137BF00B94538D95FFA89F901
:1068A00097B3FFB2A9EB0709214003315FFA89FBD7
:1068B000B946614F05EB810108234A46404602F084
:1068C0000AFE37B109F108035A463946404602F03C
:1068D00002FE029B0AF1030A03EB9A030293D5F826
:1068E0001834002B50D1D5F81044DFF860910727F9
:1068F0006FE02A689A4204D86A60304607B0BDE863
:10690000F08F04EA030081E74B49BB46D4E72140FE
:10691000033108234A4605EB8101D7E7012B6CD1EF
:10692000BDF80C604348C6F38311062928BF062131
:1069300061F3891602318900ADF80C6002F089FD1F
:10694000C6F3C2068046002857D002F0B1FD0023EE
:10695000082203A9404602F0BEFD0027BDF80C2026
:10696000C2F38312BB1C97424FEA8303B7D202994A
:106970004A1C21400331029205EB8101042240466A
:1069800002F0A9FD0137E9E7404602F095FDFFF767
:106990001FFF80F00100C6B2AFE7E3685A79B2B1D9
:1069A0001B79BDF8101003EB430259F8211007FAC8
:1069B00002F3052E03EA010323FA02F308BF0326BC
:1069C000B34204D3236841461B6820469847E368D6
:1069D0001C68002CE1D1404602F06EFD06A800F8CC
:1069E000114D00F053FFD5F818340BB9029B6B60C2
:1069F0009DF8070000F06EFFC9E7D5F8104474B9A0
:106A00000E4B5B88012BC2D90D4B0E480E49C01AA4
:106A1000C008000440F0020000F072F8B7E72368F5
:106A200020469B689847E3681C68E8E7002664E70F
:106A300068320020147306007432002054300020A5
:106A40002C7306007473060058280600B43000202A
:106A50002DE9F74F284C80460F46924601A90122A6
:106A600018469B46D4F80890FFF752FD88B3019D65
:106A70000026A91C5E4506EB010234D100211F4807
:106A800001F0FDFE80F310006A1C02EA090204EB2B
:106A90008202000405EA0903033340EA1840D0608B
:106AA00014F8232068F3C50204F8232034F82320C7
:106AB00066F3891224F8232054F82320012167F378
:106AC0009F2244F8232061F301026FF3820204F84D
:106AD000232094F820341BB1FFF784FE0028FBD15B
:106AE00003B0BDE8F08F09EA020204EB82025AF813
:106AF0002630D3600136BDE768320020843600209E
:106B000000231A46FFF7A4BF13B502AC012344F8D3
:106B1000042D2246FFF79CFF02B010BD07B5CDE95A
:106B2000002302236A46FFF793FF03B05DF804FBDE
:106B30001FB5CDE90123069B039301AA0323FFF7A9
:106B400087FF05B05DF804FB1FB5CDE90023069B68
:106B50000293079B03936A460423FFF779FF05B06E
:106B60005DF804FB2DE9F3478046304CD01C8A4683
:106B7000174601A900228008A568FFF7C9FC002874
:106B800040D0DDF80490A66809F1020001900136BA
:106B90002840361AB6000330B74204EB80003BD8D9
:106BA0003A4651463AF0E5FB0021214801F067FEE4
:106BB00080F3100009F101032B4004EB83034FEA3B
:106BC000184242EA0040D86005EA0903033304EBA7
:106BD000830214F8231068F3C50104F8231034F875
:106BE00023106FF38F1124F82310518867F38F114E
:106BF000518014F82320022161F301026FF3820215
:106C000004F8232094F820341BB1FFF7EBFD002893
:106C1000FBD102B0BDE8F087324651463AF0A9FBFD
:106C2000BA1B0AEB060104F10C00BBE76832002036
:106C3000843600202DE9F8431F4B8846D3F8101402
:106C4000054600240A469AB9E9680C71D3F8101475
:106C5000A1B9C3F81054EB681A60184F184EF61B10
:106C6000F6084FF00009B14511D12046BDE8F88380
:106C7000D2681079A04218D01268E4E7C968EA68BF
:106C800009681160D3F81034DB681D60E5E707EB95
:106C9000C9034946DA79EB68424528BF424618796C
:106CA000FFF76CFD09F10109DDE701340A2CC9D1B8
:106CB0004FF0FF34D9E700BF683200202C73060084
:106CC0003474060010B5037A052B0C460FD0437AB6
:106CD00023B1084A0849204601F091FE07492046A1
:106CE00001F08DFE2046BDE8104001F07DBE002A77
:106CF000F8D0F3E7B32806006F480600D528060051
:106D000073B5C38804460D4633B1144A0092144942
:106D1000144A284601F073FE217A05291CD0637AB3
:106D20004BB1A088FFF714FD0F4B104953F82020FA
:106D3000284601F064FE227A0D4BA08853F82260A9
:106D40000021FFF7F1FC0B4903463246284602B00A
:106D5000BDE8704001F053BE02B070BDB32806001C
:106D6000C0280600B8280600802806006F480600E4
:106D7000E4280600D82806002DE9F04385B01F4618
:106D80000C9D002306460C46904695F80C902B73FC
:106D900029463846FFF7B4FFB8F1060F09D8DFE8F7
:106DA00008F00412181F283340003146284601F02D
:106DB00026FE002229463846FFF784FF85F80C900E
:106DC00005B0BDE8F08322683146284601F017FE81
:106DD000EFE7D4E900233146284601F010FEE8E74A
:106DE000A36800933146D4E90023284601F007FE4A
:106DF000DFE7E3680193A36800933146D4E90023F9
:106E0000284601F0FCFDD4E723690293E36801936F
:106E1000A36800933146D4E90023284601F0EFFD32
:106E2000C7E76369039323690293E3680193A36847
:106E300000933146D4E90023284601F0E0FDB8E78D
:106E400008292DE9F84F80460E4617461C4635D8CE
:106E5000002593F80C901D7319461046FFF750FF5C
:106E6000DFF88CA0DFF88CB0AE4229D918F80520E5
:106E70005946204601F0C3FD0135082DF4D11A49C9
:106E8000DFF874B0204601F0BAFD4FF0000A564515
:106E900024D918F80A507E2D17D92E22594620469B
:106EA00001F0ADFD0AF1010ABAF1080FEFD101229C
:106EB00021463846FFF706FF84F80C90BDE8F88FAE
:106EC0005146204601F09BFDD6E73AF023FA2844CC
:106ED000427812F0970FE0D02A46DFE703492046B8
:106EE00001F08DFDDEE700BFAE280600AC280600ED
:106EF000AA280600A4280600B02806002DE9F04FB5
:106F00003B4F89B000263B4B1B78F5B2AB4202D811
:106F100009B0BDE8F08F384B196811F8350001242D
:106F2000A0F12002C0F1200304FA02F924FA03F3CD
:106F300049EA0309D7E9002304FA00F8CDE904235C
:106F400002EA080203EA0903134301EBC50B4CD024
:106F5000DDE9042322EA080223EA0903C7E9002342
:106F6000079103F045FC0799844611F83500A0F11C
:106F70002002C0F1200324FA03F304FA02F21A43B8
:106F800004FA00F300931D4B0192DDE90045D3E9BB
:106F9000002314401D4022462B465FFA8CF4002546
:106FA000CDE90445049CA0F12005AC400394049C69
:106FB000C0F1200124FA01F1039C0C4304990394CD
:106FC00081400291DDE90245AB4208BFA2420CD1EB
:106FD0009BF801104B1E59425941A1EB0C02DBF802
:106FE00004305142514103B1984701368BE700BF4D
:106FF0005837002024370020603700205037002009
:107000002DE9F84F0646244800F030FC002841D115
:107010000123A6F12001C6F1200203FA01FB23FAA5
:1070200002F203FA06FA1D4BD3E900014BEA020B08
:1070300000EA0A0801EA0B0958EA09021F4623D1AF
:10704000304603F0D5FB164BB8B1D3E9000140EA56
:107050000A0441EA0B05C3E90045D7E900234AEADF
:1070600002044BEA0305C7E900450E4B0A481968BC
:107070000022BDE8F84F00F0B5BBD3E9000120EADB
:107080000A0421EA0B05E6E720EA0A0421EA0B05D7
:10709000C3E90045BDE8F88F2C37002058370020A1
:1070A0005037002028370020042A2DE9F3410546F7
:1070B0000C4616463AD903F0C1FAD8B11C4B1D490B
:1070C0001D601D4BDFF884801C701C4B00221E606D
:1070D0000023C1E900231A49C1E90023013CE4B2BD
:1070E00000260327FF2C0CD1164A1748002100F078
:1070F00067FB03E003F06CFA0028DFD002B0BDE8C4
:10710000F08123B205EBC30201A992788DF8052026
:1071100015F833008DF8066042468DF8047003F0D0
:1071200097FA013CE4B20028DCD0E7E70720E5E766
:1071300060370020503700202437002028370020F7
:1071400058370020FD6E02004C2906000170020035
:1071500070B5084D084E00242B789C4201D30020C6
:1071600070BD3368012113F8340003F0F7FA0134DD
:10717000F2E700BF24370020603700201FB5002150
:10718000039001AA44F20100CDE901110BF0D4FAF9
:1071900005B05DF804FB000012F0030310B511D137
:1071A000094C22604C1CE400A4B22244074C22602B
:1071B000074A1370074A1370074A1080074A184697
:1071C000118010BD0720FCE76C37002068370020D5
:1071D0006437002074370020703700207237002099
:1071E0002DE9F3472B4D2B888B4206460C4617465C
:1071F0004BD302A84FF0000800F8018D00F046FBC9
:10720000254B264A18781178CBB2254909888B423C
:1072100038BF0133C0B238BF5FFA83F840452ED083
:1072200092F800801378DBB2994286BF0133DBB25B
:10723000002313709DF8070000F04CFB4FF6FF731E
:10724000984524D0DFF860A0DAF800304FEAC8098A
:1072500003EB090243F83870A6B19CB1114B2888A2
:107260001B68224608FB003031463AF082F8DAF813
:1072700000304B4400209C8002B0BDE8F0874FF600
:10728000FF78D7E700209080F6E70920F4E7042094
:10729000F2E700BF70370020743700206437002009
:1072A00072370020683700206C370020F8B5124C88
:1072B000124D264622782B789A4200D1F8BD2378C9
:1072C0000F48104A078812680F48DBB219B202EB68
:1072D000C10C006852F83120BCF8041003FB070011
:1072E00090470A4A23781288DBB29A4286BF01335C
:1072F000DBB200233370DDE77437002064370020F1
:10730000703700206C37002068370020723700206B
:10731000094A537891780133DBB2994208BF0023C0
:10732000117899421FBF03705078182303FB002087
:1073300014BF04300020704778370020082910B5AA
:10734000044602D00020FFF719FFD4E90030BDE861
:107350001040184773B5054602A8002400F8014DF7
:107360000E4600F093FA0DF10600FFF7D1FF90B141
:1073700006700A4B9DF8062045605A709DF807007C
:1073800000F0A8FA24B9064B4FF48012C3F800218C
:10739000204602B070BD0424F0E700BF783700201B
:1073A00000E100E0024B4FF43C6043F0010318475A
:1073B0005029060038B50C4B0C4C4FF40032C3F882
:1073C000802001254FF48033C4F84833C4F80833D3
:1073D0006560FFF7E7FF064BA56000241C60FFF720
:1073E000E1FF044B1C7038BD00E100E000100140DB
:1073F00094380020853800202DE9F3412549264B9B
:107400000025C1F84051C1F84451C1F84851C1F8B4
:107410004C51C1F80051C1F804511B68002B34D005
:10742000D1F804451D49DFF888800968641A24F002
:107430007F442F461A68A24212D8A41A15441A7C17
:10744000DE6962B15A691F7400929B6901934246DA
:1074500008216846FFF7C4FE08B1FFF78FFEBEB9EA
:107460000F4B104A197813788B4205D10133DBB2E8
:10747000022B08BF0023137012780B4B43F82250E5
:107480000A4B4FF48012C3F8002102B0BDE8F0812E
:107490003346CFE700100140983800209438002090
:1074A00090380020913800208838002000E100E06A
:1074B0003D7302002DE9F74F9E4A9F4913780978E2
:1074C0009E4D99423CD00133DBB2022B08BF002312
:1074D00013709B4912789B4B0F6853F822003B189E
:1074E00023F07F4300220B602B6816461446944617
:1074F00013B942B12B6006E0196881420ED902B17E
:107500002B60091A19604FF001082B68DFF83CA2C4
:1075100000930027BEB9DFF83CB260E0401A0C448B
:10752000D968C3F800C0D3F81CE031B13A1922F091
:107530007F42C3E90121DE611E4601227346D7E77F
:107540000026B046E1E73446F6697D4A6368126872
:10755000DFF804C2A068991A21F07F41614500F26A
:10756000A58001442160012222742A680023C4E915
:107570000133E361002A40F0A2802C60CAE75A1C64
:107580009BF80210D2B291428BF8002004BF002277
:107590008BF80020182202FB03B32A6819799C6833
:1075A000022974D003297ED0012918D1217CB1B9D8
:1075B000DA6862601A69A2605A69E2609B69A36135
:1075C000614B1B78002BC0D06160BEE79C4200F08D
:1075D00093809946DB69002BF8D1002323749BF834
:1075E00000309BF801209A42C9D12B682FB9009A2C
:1075F000934202D1B8F1000F43D0002B79D0D3F8D9
:1076000000A0524D4E4BD5F804751C68DFF84C8134
:107610003E1B98F8003026F07F4603369BB94FF4A6
:107620008033C5F84433C5F80433494B4FF4003276
:107630004FF00109C3F880211A60C5F80090FFF7E8
:10764000B1FE88F80090B2452CBF5444A41924F030
:107650007F44C5F84045D5F80435DB1B23F07F4354
:10766000E41B033324F07F44A3420AD9D5F8043540
:10767000C5F84035FFF796FE354B4FF40032C3F89E
:107680000021314B00221A7003B0BDE8F08F134681
:107690009146A0E71174D2690123002AFAD1002B88
:1076A0009DD02A609BE700231946F6E7D31A23F002
:1076B0007F43834234BFC31A0023236053E721680A
:1076C0001368994213D8591A1160E26155E7091AF3
:1076D000D8691A4638B1034618688842F7D3401A69
:1076E0001860184613462160E061DC6112E713461A
:1076F000F2E7FFF75FFEC4E74C450DD1D3692B607D
:1077000053B90F4801920121CAF8081003600E4BCB
:107710001970FFF747FE019AE1692368C9F81C1048
:1077200011B1086803440B602B689A4218BF012707
:1077300053E700BF9038002091380020983800208F
:107740009438002088380020843800200010014040
:1077500000E100E078370020FEFF7F008538002040
:1077600008B5FFF727FE104B00200B2218809A70F7
:107770000E4B18600E4B18700E4B18700E4B4FF4DA
:107780008012C021C3F8802183F814131A6002F11B
:107790008042A2F56F22C2F8080583F81113074B47
:1077A000D2F804251A6008BD7837002098380020E8
:1077B000903800209138002000E100E0943800204B
:1077C000074B9B784BB132B128B10368187C20B9C4
:1077D00059745A617047072070470820704700BFEE
:1077E000783700202DE9F7431D4FBB7805460E463C
:1077F00090469BB390B304292ED9436973B3437C5D
:1078000002A80024012B00F8014D0CBF8946A146B7
:1078100000F03CF80DF10600FFF77AFDD0B101232E
:107820000370104B4560D3F80435C0E90498C0E9F3
:1078300002369DF806307B709DF8070000F04AF88C
:1078400024B9094B4FF48012C3F80021204603B03D
:10785000BDE8F0830424EFE70724F7E70824F5E701
:10786000783700200010014000E100E0064A9278DD
:107870003AB130B1426922B1002202740221FFF70D
:1078800069BD0820704700BF7837002070B5EFF35E
:10789000108672B60C4A946801239CB993600B4B16
:1078A0000B4DD3F8801029401160C3F88050D3F8F5
:1078B000841051604FF0FF32C3F88420047006B981
:1078C00062B670BD0370FAE7E46B002000E100E0EF
:1078D000FC06FFBD10B5084B9A685AB150B9EFF3DA
:1078E000108172B6054A1C6814605C685460986028
:1078F00001B962B610BD00BFE46B002000E100E0FA
:1079000070B5064E0546002456F824300BB12846C3
:1079100098470134042CF7D170BD00BFA83800206F
:10792000033080B240F2FD33984230B51FD8124B7D
:107930001A783AB91C895D892C440444A4B2B4F580
:10794000806F0AD31A7DA2B99A8BDC8B2244024441
:1079500092B2B2F5806F0CD201220A801446142232
:1079600002FB04335A8910445881002030BD09209D
:10797000FCE70720FAE700BFDC3800200B4A0C4B7D
:107980005188142000FB0131CB6833B904204968C9
:1079900010700122074801F0F1BA0523064913705F
:1079A00002238B80012200230968F3E7C0380020FE
:1079B000DC380020083000209439002007B500236F
:1079C00005490093054A09680548082301F016FA9D
:1079D00003B05DF804FB00BF943900206429060061
:1079E0000830002007B50023009301460823034A0E
:1079F000034801F003FA03B05DF804FB5C290600BC
:107A00000830002013B500230C46009301460423E0
:107A1000074A084801F0F2F938B9074B142202FB73
:107A200004340123237402B010BD0E20FBE700BF15
:107A30005829060008300020DC38002037B50A48F5
:107A40000A4B42689C8819685388032503330570E4
:107A50009BB2002000909B0001EB8401044801F0E0
:107A6000CDF903B030BD00BFC038002094390020EC
:107A70000830002010B50146044800F034FE1C22F6
:107A80000446002139F099FC204610BD242C00202A
:107A90004388033300EB8303994209D382884FF66E
:107AA000FF739A4206D00088B0FA80F04009704710
:107AB00002207047012070472DE9F8430223DFF8C8
:107AC00060800B800D46174600F5805600F10804D3
:107AD0004FF00109B4420FD2236801330CD0314674
:107AE0002046FFF7D5FF48B10FB187F80090022874
:107AF0000BD14FF480632B80BDE8F883A368D8F8DE
:107B00000020934201D9C8F800302B8862880333E3
:107B100013442B806388033304EB8304DAE700BF4C
:107B2000D438002070B5144A142303FB00200B68DE
:107B300044680D4604F580569BB15C88033403EB22
:107B40008404B4420BD22368013308D03146204666
:107B5000FFF79EFF012809D005D30228F1D10020AC
:107B600003E00834EDE72C60012070BD6388033327
:107B700004EB8304E5E700BFDC38002073B54368FD
:107B800005460C466BB3254AD1688B4229D312694E
:107B9000934226D813F0030223D121490089098991
:107BA00088421ED12868996888421AD11D494868C0
:107BB000834203D900F5805083420ED38A699342F1
:107BC0000DD902F58052934209D20123238000206F
:107BD000B0FA80F0400902B070BD1346F6E70A2003
:107BE000F6E7002323801E462388012B01D90020BD
:107BF000F1E7019601A92088FFF794FF18B92388BF
:107C000001332380F0E7019B2A6899689142F1D102
:107C10006B60034B1B892B81DDE700BF0830002020
:107C2000C0380020DC3800202DE9F8431C461F4BEB
:107C30001B7806460F461546002B32D0002A32D05C
:107C4000002C30D0DFF86C804FF01409A388012B92
:107C500001D90A201BE009FB03F318F80330C3B174
:107C6000A3880133A380F1E723681EB19988328885
:107C700091420ED11FB119883A88914209D19B686F
:107C80002B6023686B600A4B1B892B810020BDE8A9
:107C9000F8832146A088FFF745FF0028E4D1206043
:107CA000DEE70220F3E70520F1E700BFB838002047
:107CB000C0380020DC38002008B5074B191D588853
:107CC000FFF730FF18B1BDE80840FFF7B7BEBDE8C9
:107CD0000840FFF753BE00BFC03800202DE9F04F29
:107CE000A04FDFF8A49289B00646B8463B6823B996
:107CF00049469D4800F031FD3860D8F80050297899
:107D00004B1E052B00F21381DFE813F0060076000E
:107D10007600070107015D0126B1944B00225A60ED
:107D2000012424E02B79032B1DD8DFE803F0150292
:107D3000424D8F490B78022B084631D00B7D022B28
:107D40004FF001032ED114225343C2180020C8540F
:107D50005068FFF747FE03E001232B71FFF72EFE6B
:107D6000002800F0D480814B00225A600E24142297
:107D7000002103A839F021FB41F61D539C4208BFA6
:107D80000024D8F8003004941A78023A042A00F249
:107D9000D381DFE812F0B401C001E301EB01F2018D
:107DA0000023D0E7714A13700023536041F61D543D
:107DB000DDE770497048002302222B718A8001227E
:107DC000096801F0DBF8CBE76A4C00262E712068C9
:107DD000674DFFF707FE694BD4F800C05A8814239B
:107DE0005343EA18EE5451682160A188C2F804C0D8
:107DF00011810222A280B3E7B5F814A0AA7DDFF8B2
:107E000070B11423AEB1022A06D903FB0AB3EA8883
:107E1000198903320A441A81142303FB0ABAEB8836
:107E2000BAF80A20C3F57F43FD331344AAF80A3099
:107E300076E703FB0AB318895C6804EB8004062A22
:107E400005D8DFE802F0274D35431D5967000F24A0
:107E5000AB7D022B07D9142202FB0AB2EB881189F1
:107E600003330B441381142303FB0ABAEB88BAF8DB
:107E70000A20C3F57F43FD331344AAF80A3076E79E
:107E80003F48404900234360AB690360FFF776FE3B
:107E900000285AD00223AB75002300930423EA186C
:107EA0002146354800F0AAFF002830D00E24CFE745
:107EB0002B69002B0CBF01230323AB750023009318
:107EC00005F10C02042304F10801EAE70123AB7574
:107ED0000022EB8800929B002A6904F10C01E0E784
:107EE000032914BF06230523AB7500230093042345
:107EF00005F10802E118D4E70623AB75214B198878
:107F00001F4B5868FFF77EFD04460028A0D109B03A
:107F1000BDE8F08F41F61D549AE7002E7FF400AFC4
:107F20002B79012B32D004D3022B3FF43FAF0F2427
:107F30001DE702232B71CDE904660DF10A01EB6800
:107F4000039303A8FFF71AFE08B90A240FE7049861
:107F5000BDF80A108388EB8003882B81FFF752FD60
:107F6000044626E0D8380020242C0020B838002011
:107F7000DC3800209439002008300020C038002070
:107F80009C380020A0390020D0380020DFF808A25B
:107F900003AA53463146A81DFFF746FE044660B9C2
:107FA000BAF804100498FFF72DFD04460A2C3FF49C
:107FB000FDAE002C7FF4DBAEA9E708223146504627
:107FC00039F0FBF9F2E7002E7FF4AAAE6D4B1A7B75
:107FD000B2B11E731A78013A062AA8D801A151F845
:107FE00022F000BF8B800200B1800200CF8002002F
:107FF000D58002002F7F0200DB800200F1800200AA
:108000001A78072AE6D801A151F822F02D80020043
:10801000D57F0200D57F02005380020067800200F6
:1080200087800200878002004F8002001A8956492B
:1080300001321A8100225A801A730A78B2FA82F247
:1080400052099A720A7DB2FA82F25209DA72012258
:1080500007E04E4958688A884088033202448A8083
:1080600002221A70B6E7484C5A884849142505FB85
:1080700002420868546850608888108102228A8011
:108080000C600622EDE70722EBE79A7A32B9DA7A3A
:108090008AB900221A705A805A6087E63A4900224B
:1080A0009A72CA68002AF2D1097C0029EFD05A805E
:1080B000FFF702FE54E70022DA72334A116A002900
:1080C000E7D192F82420002AE3D00122EFE7FFF75E
:1080D000B5FC45E7FFF752FC42E706221A702A4A30
:1080E0005B88142101FB03235868FFF77BFC37E70B
:1080F00007221A7000225A60FFF760FC30E7012265
:108100008DF80C201A89ADF818209A88ADF81A203D
:10811000DB68059310E002228DF80C201A89ADF877
:1081200018209A88ADF81A20DA6805929B7D9A1F6C
:10813000534253418DF81C3003A8FFF7E1FB0026A2
:1081400049461348C8F8006000F032FB012111488D
:1081500000F0E1FB00287FF4C9ADD8E603228DF8DA
:108160000C20DA88ADF818201A89CFE704228DF8A0
:108170000C20DB88ADF81830DEE705238DF80C30D5
:10818000DAE700BFC0380020DC3800209439002036
:10819000242C002090390020A43900204068FFF7EB
:1081A0009DBD000008B50121044800F09EFB18B9F0
:1081B000BDE80840FFF792BD08BD00BF9039002020
:1081C0002DE9F3419846344B1B7806460D46002BAB
:1081D00059D0002959D009884FF6FF73994256D0DB
:1081E0006B88002B53D06B689B0752D14AB92F89FB
:1081F0000DF102013846FFF793FB30B102B0BDE844
:10820000F08113885788ADF8023001A8FFF732FCDF
:10821000044658B9BDF80230204A142101FB03235B
:1082200058890338C01B58810820E7E780F8008090
:1082300000238375BDF8023083826B6803610121DE
:10824000174800F05DFBE0602B8823816B88A380DA
:10825000B8F1030F04BF0423A375E78004BF33689C
:10826000A3610025658101A90E4800F066FA36B1C8
:108270007560E36833600C4BB5721B893381FFF77F
:1082800091FF0020BAE70220B8E70520B6E70420F6
:10829000B4E70320B2E700BFB8380020DC38002084
:1082A000D4380020242C0020C038002008B5084B0A
:1082B0001A68042A09D01968064A42F821000121E7
:1082C000184600F01DFB002008BD0C20FCE700BF95
:1082D0009C390020A83800202DE9F04F89B01422E5
:1082E000002103A839F069F8734A1378904603F027
:1082F000FF0B3BB103A8FFF703FB0027384609B08B
:10830000BDE8F08F101D00F011FB05460028F4D1E8
:1083100040F6F8734FF080521B685C1C08BF674B37
:10832000674C08BF1B6811695269581C08BF02FBE3
:1083300001F3A3F540422261A3F570430022614995
:10834000E360204600F01EFD009407460028D5D1CA
:108350001C238C225C495D485D4E00F08FF9BA46C3
:108360004FF003093C46009BDA680AEB0200034623
:108370005AF8022068B357498A422AD142685649BE
:108380008A4214D001318A4223D1544BBBF1000FF1
:108390004ED10022524918600193FFF78DFB019BDB
:1083A0009B88022B14BF082304231D432FE01421B4
:1083B000614373180022725401F1100208315860B1
:1083C00032443144FFF778FB45F002050134A4B292
:1083D0001DE000F580511A68013261D104339942E1
:1083E000F9D13E4B1A682AB9022218609A804FF0E0
:1083F000010B0AE0142363430221F218F154394BB4
:1084000050605C8001341181A4B245F001050AF589
:10841000805ABAF5405FA6D1B9F1010F98BF002587
:10842000EDB2022D02D0062D10D0CDB90B2765E795
:1084300014226243B1184FF0020C06F802C0013456
:108440001A684A60A1F808C0A4B2A2E7012388F81C
:10845000003003A80023C8F80430FFF751FA4DE7B5
:1084600002A8FFF707FBC8B10123013D03700A2DE5
:1084700009D8DFE805F006080608070807080F1105
:108480000F000023037102A9104800F056F9FFF70E
:1084900089FE33E70323F5E70223F3E708272DE7F7
:1084A00014236343F21809F1FF39506003221FFAC5
:1084B00089F9F2548AE700BFB83800201410001080
:1084C00008300020682B060004390020242C0020EE
:1084D000DC380020DEC0ADDEFE011EF19439002044
:1084E00098390020C038002073B50D460446C8B145
:1084F000C1B10DF10601FFF741FBA8B10B4BBDF86F
:1085000006006668142202FB003001210C3000F0E6
:10851000F7F92E6063680C336B600123A3720020AF
:1085200002B070BD0520FBE70A20F9E7DC38002027
:1085300013B50446A8B10DF10601FFF71FFB90B17A
:108540000B4ABDF80630142101FB0323DA6862B13F
:10855000A27A52B1DA680020013ADA60A07202B061
:1085600010BD0520FBE70A20F9E70620F7E700BF6A
:10857000DC38002002230022FFF722BE18B10323BB
:108580000022FFF71DBE05207047000013B5104BF9
:108590001B780446ABB14FF6FF73984213D001A885
:1085A000FFF768FA88B10523037001230371C480C3
:1085B00001A9084800F0C1F8FFF7F4FD002002B05F
:1085C00010BD0220FBE70420F9E70820F7E700BF11
:1085D000B8380020242C002007B50E4B1B78A3B11F
:1085E00001A8FFF747FA90B10623037001A90A48D2
:1085F00000F0A3F8094B1A780AB101221A73FFF7A9
:10860000D1FD002003B05DF804FB0220FAE708204A
:10861000F8E700BFB8380020242C0020C038002024
:1086200007B5ADF8060002A820F8041D01460DF1BB
:108630000600FFF7F9FA03B05DF804FB13B502ACCE
:10864000134624F8020D0A4600202146FFF7ECFAF3
:1086500002B010BD13B502AC134624F8020D0A4651
:1086600020460021FFF7E0FA02B010BD20B119B199
:1086700003680B60002070470520704710B561B19A
:10868000B2FBF3F403FB1424A4B244B9C0E9001410
:1086900084608281C381204610BD0E20FCE7092042
:1086A000FAE782B050E8022FC188B2EB324F4FF0A8
:1086B000000317BF92B241EA014142EA014104E0DE
:1086C0004268B2EB324F08BF012340E80212002A91
:1086D000E8D18DF807309DF80730002B0CBF112032
:1086E000002002B0704737B550E8013F9DB2C48901
:1086F00025448489A54228BF2D1B0489A54202BFB9
:10870000BFF32F8F002207E0C5EA030540E80154BC
:10871000002CE9D14FF001028DF803200193019B59
:108720009DF803200B6002F0FF0322B10B88006864
:10873000184403B030BD1846FBE70A884B889A42BC
:1087400009D150E8012FC2EA024240E80123002B80
:10875000F7D1012070470020704737B550E8023F3D
:108760001FFAA3F5C488A54202BFBFF32F8F0022D2
:108770000DE0C48925448489A54228BF2D1BC3EA86
:10878000054540E80254002CE8D14FF001028DF875
:1087900003200193019B9DF803200B6002F0FF036F
:1087A00022B14B880068184403B030BD1846FBE77F
:1087B0000A884B889A4209D150E8022FC2EA224225
:1087C00040E80223002BF7D10120704700207047BA
:1087D00001F01F024B090121914000EB830000F0E2
:1087E00063B84B0910B501F01F040121A14000EB53
:1087F000830000F04EF8E04000F0010010BD01F0F1
:108800001F0301229A404B0900EB8300D14300F083
:1088100061B84B0901F01F0150F82300C84000F077
:10882000010070472DE9F0474E1E760980460F463D
:108830000136002558F8254008EB850AE44394FAF0
:10884000A4F4B4FA84F44FEA4519202C06D101357A
:10885000AE42EFD83C462046BDE8F0874C44A742E4
:10886000F5D921464046FFF7BCFF0028F3D0DAF8DF
:108870000040E44394FAA4F4B4FA84F4E5E750E841
:10888000002F0B4640E8003C9CF0000FF7D110464B
:10889000704750E8002F42EA010340E8003C9CF09A
:1088A000000FF6D11046704750E8003F43EA01023E
:1088B00040E8002C9CF0000FF6D11046704750E8BD
:1088C000002F02EA010340E8003C9CF0000FF6D1C3
:1088D0001046704750E8003F03EA010240E8002CD0
:1088E0009CF0000FF6D11046704750E8002F02EBC5
:1088F000010340E8003C9CF0000FF6D110467047A1
:1089000050E8003F03EB010240E8002C9CF0000F10
:10891000F6D11046704750E8003FA3EB010240E853
:10892000002C9CF0000FF6D1104670470121FFF794
:10893000B0BF0121FFF7B8BF0021FFF7C0BF10B5DE
:1089400090B1D0E9012301689B1ADBB20A60013BB8
:10895000DBB2FF2B026802D10020107110BD11683C
:108960004C1C14600B70F2E70E20F7E737B5054694
:1089700002A8002400F8014DFEF788FF2A68696804
:1089800013688B4210D9591E116013F8014CAA8A42
:10899000EB6802FB04342A68AB6811685B1A117932
:1089A000DBB2994238BF13719DF80700FEF792FFC2
:1089B000204603B030BD37B5054602A8002300F8B5
:1089C000013D0C46FEF762FF2A681368591C1160CE
:1089D000E968641AA98AB4FBF1F41C709DF80700D9
:1089E000FEF778FF03B030BD10B5826804462AB1A7
:1089F00043690168006998470023A36010BD0EB465
:108A000003B5039929B102AA04AB42F8043D00F072
:108A100073F802B05DF804EB03B070470A2938B56B
:108A200004460D4602D10D21FFF7F8FFA368226826
:108A3000591CA160D554D4E901329A4204D320468E
:108A4000BDE83840FFF7D0BF38BD00002DE9F84F32
:108A50009946DDE90A431746824688460A460126BA
:108A6000BA420FD24E4538BF4E4613F0010B01D12A
:108A700064B900240125B9F1010F1AD909F1FF39B0
:108A80007D43F8E7B2FBF7F20136E9E79B070ED525
:108A9000B9F1000F0CBF30252025A642EAD2013CD7
:108AA00029465046FFF7BAFF002CF6D1E1E7202512
:108AB000F3E7B8FBF5F39F42E2D9DFF83890B8FB53
:108AC000F5F3504619F8031005FB1388FFF7A6FFCE
:108AD000B5FBF7F5002DF2D1BBF1000F02D00CB1C0
:108AE000A64201D3BDE8F88F20215046013CFFF794
:108AF00095FFF4E77B2906002DE9F74F05469046E0
:108B00000E46002900F03A8116F8011B002958D0C2
:108B1000252940F0D180002702E047F001071646E2
:108B2000324612F8013B2D2BF7D0302B04D02B2BE3
:108B300005D147F00407F2E747F00207EFE700240A
:108B40002A2B06F101021BD1D8F80030191DC8F8F4
:108B500000101B6816461C4433782E2B1CD101369E
:108B60004FF0000A314611F8012BA2F1300009281C
:108B700014D80A2303FB0A23A3F1300A0E46F1E7B7
:108B800012F8013CA3F130010929E5D80A2101FBC3
:108B90000434303C1646D3E74FF0000A324612F850
:108BA000011B01F0FB0068281646F8D0692916D091
:108BB00054D8582970D00ED825297DD03378002B71
:108BC000A2D12B7B002B00F0D980284603B0BDE852
:108BD000F04FFFF709BF632968D06429EED1D8F8B8
:108BE0000020111DC8F80010D2F8009089EAE9723F
:108BF000A2EBE9724FF0010B092A61DCD34538BFC3
:108C0000D3462CB1B9F1000F01DB790700D5013C47
:108C1000BA0702D5BAF1000F04D0FB0702D4002C2A
:108C200054D10024B9F1000F58DAC9F100092D21FF
:108C30002846FFF7F3FE07F00302022A05D1BAF136
:108C4000000F02D1002C4DD10024CDE9004753463E
:108C50000A2249462846FFF7F9FEAFE7732954D0A8
:108C600016D87029AAD1D8F800301A1DC8F80020EB
:108C7000302128461C68FFF7D1FE78212846FFF7EF
:108C8000CDFE00220823CDE9003221461022E1E783
:108C900075292FD0782991D1D8F800100A1DC8F86D
:108CA0000020CDE90047534610222CE0D8F80030D0
:108CB0001A1DC8F8002019782846FFF7AFFE7DE797
:108CC0000A230BF1010B92FBF3F295E7A345A9D21E
:108CD00020212846013CFFF7A1FEA0E77807AAD58E
:108CE0002B21A5E7A345B0D230212846013CFFF750
:108CF00095FEA7E7D8F80010CDE900470A1DC8F88F
:108D0000002053460A220968A4E7D8F800301A1D4B
:108D1000C8F80020F907D3F8009012D54F46A7EB0A
:108D2000090B17F8011B41B9A345BFF447AF202138
:108D30002846013CFFF772FEF6E72846FFF76EFE75
:108D4000EDE7B9F1000F17D0484638F05DFE074651
:108D5000BC4200D954B909F1FF3919F8011F0029A3
:108D60003FF42CAF2846FFF759FEF6E720212846AE
:108D7000013CFFF753FEEBE74F46E9E703B0BDE8E0
:108D8000F08F000007B50B46A0B9154B5B886BB19F
:108D9000144B1548154AC01A0E23C0080093144BF3
:108DA0000004144940F00100FDF7C2FE0E2003B09C
:108DB0005DF804FB6BB90A4B5B88002BF6D0094BBE
:108DC00009480D4AC01AC0080E2300930004084B3E
:108DD000E7E703601B68114603B05DF804EB184732
:108DE0006C3000202C730600A4730600382A06009D
:108DF0008B2906003D2A0600B42A06002DE9F3411E
:108E00009646B0B9504B5B88002B00F095804F4BD5
:108E10004F48504AC01AC0080E244F4B009400041B
:108E20004E4940F00100FDF783FE204602B0BDE848
:108E3000F0816AB9444B5B88002B7DD0434B44489A
:108E4000474AC01AC0080E2400040094424BE7E7CA
:108E5000D0F800C0BCF1000F0DD13B4B5B88002B5C
:108E60006CD03A4B3A483F4AC01AC0080824000464
:108E70000094394BD4E76BB9334B5B88002B5FD040
:108E8000324B3348384AC01AC00809240004009401
:108E9000314BC5E74768D7F80480B3FBF8F708FB08
:108EA00017376FB1284B5B88002B49D0274B2848D8
:108EB0002E4AC01AC008092400040094264BAFE7CC
:108EC0008F070DD0204B5B88002B3BD01F4B2048D9
:108ED000274AC01AC0081024000400941E4B9FE7C4
:108EE00012F0030F0CD0184B5B885BB3174B18487C
:108EF000204AC01AC008102400040094164B8FE7C3
:108F0000C768B9420BD34C1E05691C44AC4206D855
:108F1000DCF80C40A44602B0BDE8F04160470A4BC3
:108F20005B887BB1094B0A48134AC01AC008102459
:108F300000040094084B73E70E2476E7082474E7D6
:108F4000092472E7102470E76C3000202C730600AF
:108F5000A4730600382A06009D2906003D2A060053
:108F6000BA2A0600AE2A06006D2A0600C02A0600AC
:108F7000EA2A0600022B0600252B0600F7B5A0B949
:108F8000374B5B88002B63D0364B3748374AC01AC3
:108F9000C0080E24364B00940004364940F001000E
:108FA000FDF7C6FD204603B0F0BDD0F800C0BCF10F
:108FB000000F0DD12A4B5B88002B4BD0294B2A4840
:108FC0002D4AC01AC008082400040094284BE4E786
:108FD0006AB9234B5B88002B3ED0224B2248274A9C
:108FE000C01AC008092400040094214BD5E7476843
:108FF000D7F800E00EF1FF370F420CD0184B5B881A
:1090000063B3184B18481E4AC01AC0081024000445
:109010000094174BC1E7C768B9420CD34C1E0569D1
:109020000EFB0244AC4206D8DCF81040A44603B064
:10903000BDE8F04060470A4B5B887BB1094B0A48AA
:10904000104AC01AC008102400040094084BA4E77A
:109050000E24A7E70824A5E70924A3E71024A1E725
:109060006C3000202C730600A4730600382A06001A
:10907000B02906003D2A0600AE2A06006D2A060029
:10908000C3290600E929060029DF704728DF704759
:1090900070B50568AB6886B004460E4673B11422FD
:1090A0000021684638F089F9A36805932379019671
:1090B00033B1012B0ED0AB686846984706B070BD3F
:1090C00001238DF8003023690293E36803936369F9
:1090D0000493F0E702238DF80030E3681B0302934A
:1090E000F5E708467047002070470000024B187AE9
:1090F000003018BF01207047383A0020034B187A1F
:109100000122B0FA80F05A7440097047383A0020C2
:1091100008B510461A4638F02CF9002008BD0000AA
:1091200008B514220021044838F047F90348FFF736
:10913000B8FA002008BD00BF383A0020382C0020C3
:1091400010B5094C094B43602046FFF7EFFB40B9CF
:1091500007F0B2FD1C2320748C2205490548FFF757
:109160008DFA002010BD00BF383A00205C2B0600AD
:10917000AC390020382C002070B5244D244E2B7AB9
:109180002C463BB923492448FFF7E7FA306008B979
:10919000686070BD0223237233681A7972B1012AA4
:1091A00024D018460321FFF773FF00232372636066
:1091B00018491948BDE87040FFF7FABAD3E905200D
:1091C000121AB2F5805F28BF4FF48052D3E903151D
:1091D0009208012A014438BF01222844FFF754FFB6
:1091E00050B11128DDD101232372D2E7D3E9030264
:1091F0001044FFF74BFFF3E7237C002BC9D1014656
:10920000BDE87040022000F009B800BF383A0020E5
:10921000503A00204C3A0020382C002038B5831EEC
:10922000012B45D8234C237A002B41D0022B09D1A6
:10923000032830D0204B00221B68E2601A793AB133
:10924000012A22D0637C7BBBBDE83840FFF794BF86
:10925000D3E905128D1AB5F5805F94BF521902F556
:1092600080529A619142EDD102284FF0000308BF6D
:1092700019462372104B18BF0D211868FFF708FF1D
:109280000E490F48FFF794FADCE71A6901321A61B8
:109290005B699A42E7E7E3680133082B01D8E36092
:1092A000D0E70023E360DFE7BDE8384007F0F4BC17
:1092B00038BD00BF383A0020503A00204C3A002018
:1092C000382C002000F0FD03012B08D1044B0022B4
:1092D0005A74421E504250411874FFF74DBF7047F8
:1092E000383A002010B5064C201DFFF71FFB28B9A7
:1092F000637C1BB9BDE81040FFF73EBF10BD00BF47
:10930000383A00202DE9F34180460D460F4801A967
:1093100016461F46FFF7E7F90446A8B11C220021B4
:1093200038F04BF82D0B0123237101A9C4F80080FC
:10933000A760E56066610548FFF7FFF9FFF7D2FF18
:10934000002002B0BDE8F0810420FAE7382C0020AC
:109350002DE9F74381468846104801A917461E4665
:10936000FFF7C1F90446B0B11C22002138F025F8FE
:1093700000250A9BA36001A92571C4F80090C4E9E7
:10938000037866610548FFF7D8F9FFF7ABFF284679
:1093900003B0BDE8F0830420FAE700BF382C0020BA
:1093A0002DE9F047B0F806904479D2F800A09DF876
:1093B000208009FB04F4043C06460AEB0300A042AB
:1093C0000F4688BFA4EB030A191DC2F800A0B1FB29
:1093D000F9F509FB15114DB9A9EB0104544528BF56
:1093E0005446BAF1000F04D1BDE8F0873668013D5C
:1093F000F1E704317B1970182246B8F1000F0ED046
:1094000001461846AAEB040A37F0B3FFD1452544BC
:1094100036684C464FF0000128BF5446E1E7194634
:10942000F0E7FFF78CBAF8B546790146721E05469B
:10943000002393422D6803D30024A64202D8F8BD2E
:109440000133F6E70F682846FFF7B5FA01343946CD
:10945000F3E72DE9F843CD1C868A0746FFF786FA25
:10946000043E35440446B5FBF6F5F0B14FF4807385
:10947000EDB28380C680013D076081464FF0000851
:10948000A84512D23846FFF771FA064648B163790B
:109490000133637108F10108C9F8000007608146D3
:1094A000EEE72046FFF7BFFF34462046BDE8F883CD
:1094B00001210430FFF724BA10B50121044604301D
:1094C000FFF729FA10F0FF0F04D12046BDE8104045
:1094D000FFF7A9BF10BD1FB504AC44F8042D00224E
:1094E00000922246FFF75CFF04B010BD1FB504AC2C
:1094F00044F8042D012200922246FFF751FF04B0E8
:1095000010BD41DF7047000007B502A8002300F836
:10951000013DFEF7BBF9F1EE103A23F09F03E1EEB7
:10952000103ABFF35F8F0A4B4022C3F884219DF8A5
:109530000700FEF7CFF907F0BFFB20B1FFF7E1FF0F
:1095400003B05DF804FB20BF40BF20BFF8E700BFB9
:1095500000E100E0026813685268934291BFD01A9C
:1095600080680130801888BFC01A70472DE9F84321
:1095700003681D685C68A54284BF83680133174691
:10958000884694BF641B5C1BC2684168BC420646A7
:1095900005FB02110CD37A43404637F0EAFEB3686C
:1095A0003D449D4288BF002533681D60BDE8F883B7
:1095B00004FB02F94A46404637F0DBFEF268716868
:1095C0003C1B624308EB090037F0D3FE33681C6094
:1095D000ECE7036881681A685B688B4234BF01332B
:1095E0000023D31A584258417047F7B5044602A8E1
:1095F000002300F8013D0D46FEF748F92046FFF72D
:10960000E8FF10B1237C002B3DD12168A6684B6890
:109610004A68B24234BF013200224A6038B1216840
:10962000A0680A68824234BF013200220A60E26800
:109630006068511E072920D8DFE801F004101F14CC
:109640001F1F1F182A78C2542046FFF783FF236884
:109650009A68824200D29860002415E02A8820F897
:109660001320F1E72A6840F82320EDE7D5E90067E9
:1096700000EBC300C0E90067E6E7294602FB0300F0
:1096800037F077FEE0E704249DF80700FEF722F9A3
:10969000204603B0F0BDF7B506460F461446002538
:1096A0009AB102A800F8015DFEF7F0F83046FFF726
:1096B00051FFA0420CD3224639463046FFF756FFF1
:1096C0002C469DF80700FEF705F9204603B0F0BDD3
:1096D0000524F6E713B5044602A8002300F8013D6F
:1096E000FEF7D4F82046FFF735FF04469DF8070043
:1096F000FEF7F0F8204602B010BD826800239360A8
:1097000082681361826853618268D36082685360A3
:1097100082681360704701600B6843604A68934237
:1097200004BF002343607047436843B102689168F7
:109730000B4443605268934204BF00234360704768
:109740000D4930B5A1F594720225914201D800204F
:109750000EE08B1ADB1093FBF5F302EBC30452F817
:109760003330834205D802D204F10802EDE7606885
:1097700030BD2146E9E700BFDC2C060008B5FFF745
:10978000DFFF024B002808BF184608BD9F2B0600CC
:109790000D4930B5A1F50E720225914201D8002085
:1097A0000EE08B1ADB1093FBF5F302EBC30452F8C7
:1097B0003330834205DC02DA04F10802EDE7606829
:1097C00030BD2146E9E700BF2438060008B5FFF7A1
:1097D000DFFF024B002808BF184608BD8A3006008C
:1097E00046DF704713B502AC002304F8053D019332
:1097F0009DF80330032B08D904210DEB010000F084
:109800006DFD30B9019802B010BD204600F054FD46
:10981000EEE70020F7E700000B2802460CD80123F2
:10982000834040F2F1110B4204D140F60C610B422F
:1098300002D0704736F0FCBF074B5B88012B09D97B
:109840000648074B0749C01AC008000440F0020050
:10985000FDF75AB9704700BF5430002074730600FA
:109860002C7306002438060008B500F093FA00F0C7
:109870008DF8002000F0F4FC10B100F0DDF8FCE7FA
:10988000FFF7B0FFBDE8084038F066B808B500F053
:10989000D3F8FCE70020FEF71DB807B502A80023A7
:1098A00000F8013DFDF7F2FF03B05DF804FBFFF7A0
:1098B00099BF08B515F0F8F94FF47053584308BD37
:1098C000034A431A934288BF0B1A1846704700BFD9
:1098D000FEFFFF7F10B50446FFF7EBFF0444FFF7E0
:1098E000E8FFA04204D9FFF7E4FFA042FBD810BD77
:1098F000FFF7DFFFA042FBD3F9E730B50D468DB08F
:109900001446A2B199B190B101461022684637F0D1
:1099100030FD102229460DEB020037F02AFD684683
:10992000FFF75EFF102208A9204637F022FD0DB098
:1099300030BDEFF30580003018BF012070470000F4
:10994000F7B54FF0805300251C6E596E04F0FF07E9
:1099500045EA010206A5D5E9004502A9224347EAE6
:10996000050361E90223082237F003FD03B0F0BDCF
:10997000000000000036CEF400487047543A002042
:10998000002006F073BFFFF7BFBD000008B511F05F
:10999000DFF848B9054B1B7813B9054B1B781BB191
:1099A000BDE8084011F0DAB808BD00BF302D002036
:1099B000342D00202DE9F84307460E4611F0C8F873
:1099C00058B1184C184BDFF86890DFF86880E41A3B
:1099D000E408240444F003040EB9BDE8F883D9F880
:1099E0000000C0F10805B542A8BF35462A463946F1
:1099F000404437F0BEFCD9F800202A44082AC9F8B0
:109A000000202F44A6EB0506E6D1084B5B88022B0D
:109A100003D941462046FDF7A5F80023C9F80030D8
:109A2000DAE700BF247406002C730600AC30002077
:109A3000A03A0020983A002010B50C4C226882B160
:109A40000B4B5B88022B0AD90A480B4B0B49C01AF7
:109A5000C008000492B240F00300FDF783F8002331
:109A60002360BDE81040FCF7BDBE00BFA03A002057
:109A7000AC300020247406002C730600983A0020B5
:109A800040F6F8731868431C04BF054B18684FF084
:109A90008053411C1A695B6908BF03FB02F07047E1
:109AA000141000100378022B01D811F065B870472C
:109AB00010B5FFF7E5FF0A4C2061FFF7E1FF094B06
:109AC0000949A0F54040E06000222046C3F8082183
:109AD000FFF758F918B1BDE81040FFF7D7BE10BD29
:109AE0001C300020A43A0020682B06004FF4804070
:109AF00070470220704708B513460A4631B143B19A
:109B00000146184637F035FC002008BD6FF00A000A
:109B1000FBE76FF00B00F8E70128F8B507460C46A5
:109B200016461D4612D80B44B3F5804F11D29AB198
:109B3000ADB1FFF7A5FFA4F5404101EB873101442A
:109B40002A46304637F015FC0020F8BD6FF038008B
:109B5000FBE76FF01600F8E76FF00B00F5E76FF02A
:109B60000C00F2E70128F7B507460C4616461D46DD
:109B700026D80B44B3F5804F25D23AB3AB0828D092
:109B8000FFF77EFFA4F5404404EB8734044410F053
:109B9000FBFF07460028FAD110F0E6FF21460097A8
:109BA0002B4632460C48FFF729F9044610F0ECFF2B
:109BB0000028FBD1201C18BF0120404203B0F0BD9B
:109BC0006FF03800FAE76FF01600F7E76FF00B0060
:109BD000F4E76FF00C00F1E71C30002001282DE9BC
:109BE000F041064626D8FFF74BFF00EB8630A0F584
:109BF0004044DFF84C8004F5804710F0C5FF05466F
:109C00000028FAD110F0B0FF2B4601222146404631
:109C1000FFF7B4F988B910F0B7FF05460028FAD16C
:109C200004F58054BC42E8D1304610F0B5FF284618
:109C3000BDE8F0816FF03800FAE74FF0FF30F7E74A
:109C40001C30002010B5084CD4F8083153B19BB239
:109C50002246D4F8041194F80001FFF783FF002393
:109C6000C4F8083110BD00BFA43A00202DE9F84324
:109C70001C4C1E46D4F8083181460F4690466BB105
:109C800094F80021824207D1D4F804211A44914269
:109C900002D1B3F5807F01D1FFF7D4FFD4F80801DA
:109CA00018B984F80091C4F80471C0F58075B54204
:109CB00034BFADB235464DB12A464146204437F057
:109CC00058FBD4F808312B44C4F80831761BB6B2DF
:109CD00016B93046BDE8F883FFF7B4FF2F44A84417
:109CE000DCE700BFA43A002007B50C4B18680090D1
:109CF000FFF7C6FE0422A0F580410DEB020037F00D
:109D000038FB042269460DEB020037F023FBB0FA62
:109D100080F0400903B05DF804FB00BF4538060041
:109D200070B506460D461446FFF7AAFEA4F57F540B
:109D30003C3C324629462044BDE87040FFF7DBBE7C
:109D4000004870474C3806000422032102708170DD
:109D5000002206214270C17042607047B0F5A27FB8
:109D600001D110F01BBF704708B5FFF7E9FF01F004
:109D700027F8FFF7E5FF01F02FF8024B00221A70D9
:109D800008BD00BFB03B0020014B1878704700BFF2
:109D9000B03B00201FB502A8FFF7D6FFFFF7D0FFAA
:109DA000104A02A900F090FF08B1FFF76FFDFFF71E
:109DB000C7FF0368D3F81045FFF7C2FFE2B24FF4C4
:109DC0007031012421FA02F202232146009401F0AD
:109DD00052F8FFF7B5FF00F0E5FF034B1C7004B02D
:109DE00010BD00BF5D9D0200B03B002008B5084BD0
:109DF0001B780BB9FFF7CEFFFFF7A2FF01F014F8B5
:109E000028B9FFF79DFFBDE8084000F0CBBF08BDB3
:109E1000B03B0020074B1B5C1F2B8ABF064A4FF04C
:109E2000A04203F01F03D2F80405D840C04300F05D
:109E3000010070475838060000030050074B1B5CB8
:109E40001F2B86BF03F01F0305494FF0A0410122DD
:109E500002FA03F3C1F80C35704700BF583806000A
:109E600000030050074B1B5C1F2B86BF03F01F0332
:109E700005494FF0A041012202FA03F3C1F8083569
:109E8000704700BF583806000003005008B5002096
:109E9000FFF7E8FF0120FFF7E5FF0220FFF7E2FFF1
:109EA0000320BDE80840FFF7DDBF08B50020FFF73D
:109EB000C5FF0120FFF7C2FF0220FFF7BFFF03200D
:109EC000BDE80840FFF7BABF0A4B185C1F288ABFDD
:109ED000094B4FF0A04300F01F00D3F804250121E7
:109EE000814021EA02000A40C3F80805C3F80C25A6
:109EF000704700BF5838060000030050074B1B5C3A
:109F00001F2B8ABF064A4FF0A04203F01F03D2F86E
:109F10001005D840C04300F00100704754380600D7
:109F2000000300500B2809D00C2809D0182809D0AC
:109F300019280CBF03204FF0FF30704700207047F6
:109F40000120704702207047C20710B504460CD5A7
:109F50004FF0A0430322C3F83427C3F83827C3F8CF
:109F60003C27C3F84027FFF791FFA3070AD54FF01E
:109F7000A0430C22C3F82C27C3F83027C3F860276E
:109F8000C3F8642710BD42DF704743DF704700000D
:109F900038B5084C04F108030546002818BF1C46D4
:109FA00023682BB11A6822605B6828469847F7E758
:109FB00038BD00BFBC3B002020B9054B01225A70C0
:109FC000FFF7E6BF012802D1014A9070F8E7704719
:109FD000B43B002020B9034B01225A70FFF7D8BFD1
:109FE000704700BFB43B002038B50B4C237883B9D1
:109FF0000A486360A3602361E36000F013FA05463A
:10A0000006F05AFE08B900F01BFA01232370284617
:10A0100038BD8525FBE700BFB43B0020B99F020097
:10A0200037B5184CA378054603F0FF029BB110B179
:10A0300043680120984700230DF107008DF8073091
:10A04000FDF724FCE3689DF807000133E360FDF7AA
:10A0500041FC03B030BD0DF107008DF80720FDF77E
:10A0600015FC25B1226913463BB92A602561E368D6
:10A07000002BE7D100F0F6F9E4E79D42F7D01B682A
:10A08000F2E700BFB43B002037B502A80023094C1B
:10A0900000F8013DFDF7FAFBE368013BE360E5688A
:10A0A00015B900F0F1F9A5709DF80700FDF712FC55
:10A0B00003B030BDB43B0020012813B509D003D351
:10A0C00003281BD002B010BD0F4B0122C3F8802023
:10A0D000F8E702A800230D4C00F8013DFDF7D6FB80
:10A0E00023780BB9FFF780FFE3689DF80700013381
:10A0F000E3600123A370FDF7EDFBE3E700F0A0F9B7
:10A10000FFF7C2FFDEE700BF00E100E0B43B002044
:10A1100037B51B4C6378054603F0FF029BB110B1C5
:10A1200043680020984700230DF107008DF80730A1
:10A13000FDF7ACFB63689DF8070001336360FDF732
:10A14000C9FB03B030BD0DF107008DF80720FDF706
:10A150009DFB25B1A268134653B92A60A5606368C8
:10A16000002BE7D106F0A8FD30B1FFF70CFFE1E7C7
:10A170009D42F4D01B68EFE700F092F9DAE700BFE8
:10A18000B43B002073B502A800230D4C00F8013D3C
:10A19000FDF77CFB6368013B6360666836B906F0D7
:10A1A0008BFD054640B1FFF7F0FE66709DF8070095
:10A1B000FDF790FB02B070BD00F084F96570F5E723
:10A1C000B43B002030DF704731DF70471FB58DF89A
:10A1D000070004A8002300F8013DFDF757FB06F037
:10A1E0006BFD50B90DF107010748FFF7FEF906486E
:10A1F000FFF7EFF908B100F04FFC9DF80F00FDF7F5
:10A2000069FB05B05DF804FBCC72060007B520B110
:10A2100003280BD003B05DF804FB0F4B1B78012B18
:10A22000F8D100F039FC00F03FFCF3E702A800236E
:10A2300000F8013DFDF72AFB07480378012B05D103
:10A240000649013000F0E8FB00F014FC9DF807001F
:10A25000FDF740FBDEE700BF183C0020CDA1020067
:10A2600013B5124C2378F3B9114A002808BF1046E1
:10A270000288A4F8012002A800F8013DFDF706FBC2
:10A2800006F01AFD30B90B49601C00F0C5FB40B95F
:10A2900000F0F0FB01239DF807002370FDF71AFB87
:10A2A000002002B010BD8520FBE700BF183C002055
:10A2B00062380600CDA1020010B5044606F0FCFC91
:10A2C00020B90548FFF706FA207010BD2046FFF7B9
:10A2D00079FF0028F5D1F8E7CC7206002DE9F743A5
:10A2E0000024DFF8589005460E46A0460DF1070001
:10A2F0008DF80780FDF7CAFA06F0DEFC074638B98C
:10A30000324629464846FFF7C6F9044600F0B2FB3C
:10A310009DF80700FDF7DEFA47B131462846FFF702
:10A3200053FF42F207039842044605D0022CDDD0C9
:10A33000204603B0BDE8F0830524F9E7CC7206009F
:10A340001FB503788DF800304368019383688DF85A
:10A350000830C3680393054A054B684653F821301B
:10A3600052F82110984705B05DF804FB1C3C002012
:10A37000243C00201FB503788DF80030436801931A
:10A3800083688DF80830C3680393054A054B684617
:10A3900053F8213052F82110984705B05DF804FBBE
:10A3A0001C3C0020243C0020F0B5194B0778DFF856
:10A3B00070E043F82720174B94460A6943F827209A
:10A3C0004B7F0EF807300C4606460FCC89B06D4621
:10A3D0000FC594E80F0085E80F00337804971EF846
:10A3E000033053B1BCF1000F0B4A694608BF00228D
:10A3F000301D01F081F809B0F0BDBCF1000F074A33
:10A40000694608BF002206F10C0000F04DFEF2E79D
:10A41000243C00201C3C002041A3020075A3020044
:10A42000F06B0020054A13792BB9012110601171DE
:10A430005371184670478520704700BF2C3C0020A0
:10A44000074B1A68D2075FBFC02283F8002301229E
:10A450001A604FF080430122C3F81825704700BFEF
:10A4600000E100E0074B00221A6082B01B680193F4
:10A47000019B4FF080430222C3F8042301229A601B
:10A4800002B0704704010040044B01221A604FF0F3
:10A490008042D2F81834DB03FBD470470C00004034
:10A4A000074B00221A6082B01B680193019B4FF09A
:10A4B00080430122C3F804231A6002B0704700BF32
:10A4C00000010040074B01221A604FF08042D2F891
:10A4D0000C3403F00113B3F1011FF8D0024B00223A
:10A4E0005A717047040000402C3C002007B5154B02
:10A4F0001A687AB100221A601B680093009B4FF023
:10A5000080430122C3F808230F4B587910B95A71C0
:10A510001B6898470D4B1A6882B100221A601B68AD
:10A520000193019B4FF080430222C3F80823064B9E
:10A530001B68012003B05DF804EB184703B05DF819
:10A5400004FB00BF000100402C3C0020040100403F
:10A5500000F1804000F5C040002382B00360036832
:10A560000193019B02B0704703681F2B83BF03F068
:10A570001F03036001484FF0A040704700030050E4
:10A5800007B502AB43F8040D1846FFF7EDFF019B3A
:10A5900000EB8300D0F8003723F44033C0F80037D5
:10A5A000D0F8003743EA0141C0F8001703B05DF866
:10A5B00004FB0000054B4FF0FF32072843F8202032
:10A5C00084BF1B1883F85820704700BF343C00201C
:10A5D00010B5164C94F86A3033BBFF21E2180133F2
:10A5E000302B82F83010F9D10021C8B2FFF7E2FF1A
:10A5F00001310C29F9D1062200210D4836F0DDFE8B
:10A600000C4BC02283F8062340221A604FF4BE7020
:10A61000FFF79EFF084B4FF00042C3F804230123CD
:10A6200084F86A30002010BD0820FCE7343C00208C
:10A63000983C002000E100E000600040034B93F8EC
:10A640006A00003018BF0120704700BF343C002072
:10A65000F7B5404F3B18044693F93030002B944631
:10A6600075DA8B78C3F34003002B15BF002508254E
:10A6700008200C20854202D1042003B0F0BD57F819
:10A68000252001324FEA850649D1381947F825C0FF
:10A6900080F8305013B97B1983F858408B785A07EB
:10A6A0001BD4D8073DD502A840F8084DFFF75CFF42
:10A6B000009B00EB8300D0F8003723F00203C0F8C2
:10A6C00000372548E20804F0070C012303FA0CF3D5
:10A6D00010F802C043EA0C038354887891F800C054
:10A6E00010F002002AD006F1804303F5C043240293
:10A6F000D3F8102522F44F3222F44072C3F810250B
:10A700004FEA0C4CD3F8102504F47C540CF4403C74
:10A7100044EA0C041443C3F810450020ADE70135AA
:10A72000A8E702A84A7840F8044DFFF71DFF019BF7
:10A7300003F5E073920040F82320C2E7083D3D4452
:10A7400095F8604044EA8C1C85F860C095E70820C5
:10A7500093E700BF343C0020983C002073B5224CA6
:10A760002518064695F93020072A1ADD224492F86A
:10A7700058309B09032B10D102A840F8046DFFF755
:10A78000F3FE019AD0F81035D340DB0707D402213D
:10A790003046FFF7F5FE02B070BD012BF7D0032164
:10A7A000F6E7D3B2072BF6D8930003F1804303F505
:10A7B000C043D3F8100540F00100C3F8100502F1C2
:10A7C0004000800080B2FFF7C3FE0029E3D095F976
:10A7D000303054F82330002BDDD0012303FA02F28D
:10A7E000024BC3F80423D6E7343C0020006000404D
:10A7F00007B502AB43F8040D1846FFF7B5FE019B01
:10A80000D0F81005D84000F0010003B05DF804FB5B
:10A810002DE9F04F002489B0CDE902445F4A604E33
:10A82000604D01211368A2F5C040012B80B206D112
:10A83000D6F804330B4202D0FFF78AFE0C430432F1
:10A84000AA424FEA4101EDD1574B1B68012B0ED1B3
:10A850004FF4BE70FFF77CFE4FF0A04344F000447D
:10A86000D3F810350293514BD3F81035039314F0FD
:10A87000FF0F1AD04E4F00250126344210D0AB00F6
:10A8800003F1804303F5C043D3F81005D3F8101546
:10A8900057F82530C0F30520C1F3014103B19847B3
:10A8A0000135082D4FEA4606E7D1002C72DA04AED6
:10A8B0000023049373604FF0FF33CDE906333C4F20
:10A8C0004FF0010800252C467B1993F96020531C9A
:10A8D00047D0D2B222F0C00908A84FEAD90300EB52
:10A8E000030B02F007011BF8080C08FA01F10842FB
:10A8F00037D007EB0900920990F9300057F820A0F3
:10A90000BAF1000F05D1032A2BD1F05C0843F054B3
:10A9100001E0032AF9D001A8CDF80490FFF724FE46
:10A92000019B03F5E07350F823301BF8180C084224
:10A93000C3F3014305D0022B13D1032A0BD11146D7
:10A9400004E0032B0DD1032A05D102214846FFF76D
:10A9500017FE0134E4B2BAF1000F02D011464846A6
:10A96000D0470135042DAFD1A4B14FF0A0430299D7
:10A97000D3F8102503F540739142D3F8103502D176
:10A980000399994206D002920393049A059B06927A
:10A99000079397E709B0BDE8F08F00BF0061004062
:10A9A00000600040206100407C61004000030050D6
:10A9B000343C0020014B1B68184700BFA03C00201E
:10A9C0000D4B984237B50D4610D102A8002300F870
:10A9D000013DFCF75BFF094B1C7914B901221D6096
:10A9E0001A719DF80700FCF775FF14B9002003B039
:10A9F00030BD1120FBE700BF00200040A03C00203C
:10AA0000034B984201BF034B00221A601A71704732
:10AA100000200040A03C002010B5124C2278FAB96A
:10AA2000114B1960037813F0010F104B1EBFD3F8C0
:10AA3000042542F00102C3F80425D3F8002222F0D5
:10AA40000102C3F800224378094A5B01DBB282F8B5
:10AA50000D334FF40053136001232370002010BD09
:10AA60008520FCE7AC3C0020A83C002000D0004042
:10AA700000E100E0064B00221A6082B01B680193DF
:10AA8000019B044B0122C3F804231A6002B07047F3
:10AA900000D1004000D00040024A0123C2F8083330
:10AAA0005360704700D00040064A0123C2F80833C3
:10AAB0005360054B4FF40052C3F88020034B002233
:10AAC0001A70704700D0004000E100E0AC3C00206C
:10AAD000074B00221A6082B01B680193019B054B53
:10AAE000D3F80805044B1B68C0B202B0184700BF7A
:10AAF00000D1004000D00040A83C002000F1804080
:10AB000000F5E040002382B0036003680193019BDD
:10AB100002B07047F0B5514B514C1B6885B0DBB1AA
:10AB20004FF4827094F82E20FFF7E8FF12B194F8EA
:10AB30002F30A3B1636802932389ADF80C30E3682A
:10AB400000218DF80410002B44D12374236801A840
:10AB50009847002384F82F3094F82E3003B3414BEC
:10AB60001B68EBB14FF48070FFF7C8FF94F82D20FD
:10AB7000638B91B28B4238D95B1A21899BB2638374
:10AB8000CB1A616801EB4301374BC3F82C16C3F8AD
:10AB900030264FF48270FFF7B1FF344B01221A6068
:10ABA000334B1B685BB14FF48870FFF7A7FF00239E
:10ABB00004A82374022300F80C3D236898472D4B0A
:10ABC0001B6813B34FF48A70FFF798FF00232374B8
:10ABD00005B0F0BD208B608363602081E160002AB6
:10ABE000B4D1214B01221A60B0E7D2D1E368012130
:10ABF00084F82F103BB1002161831B49C1F82C362A
:10AC0000C1F83026C5E76383C3E766694FF00047A4
:10AC10000125002EDCD0B6FA86F227FA02F346327E
:10AC2000920026EA030602F1804303F5E0431B6825
:10AC3000002BEED01046FFF761FFA2F58C72D3080F
:10AC400082F00402C2F380028DF808308DF80450BF
:10AC50008DF80920236801A89847DAE704710040BD
:10AC6000B03C0020007100400070004004700040C3
:10AC700010710040147100402DE9F347002406468E
:10AC80000F46904600F5A0754FF48039A24604F1B6
:10AC900050002B68800080B26BB1D6F8043309FAFB
:10ACA00004F21A4207D0C5F800A02B680193019B5B
:10ACB000D7E9003198470134E3B2984505F104051E
:10ACC000E5D802B0BDE8F087F7B50679324D0C241F
:10ACD00074432F193B7A002B5BD12A514A687A6062
:10ACE0009C461A4647790368D4B2A74202F1010292
:10ACF00046D81B0BCC78294F5AB2002AAEBF02F1BE
:10AD0000604303F00F03264A4FEA4414E4B2AABF9B
:10AD100003F56143D45483F8004303681B0B5CB212
:10AD20006409012203F01F0302FA03F347F82430F9
:10AD300007684B78D7F8044503F0030324F00304B5
:10AD40002343C7F8043507688B78D7F8084503F024
:10AD5000030324F003042343C7F8083504680B7881
:10AD6000D4F8100503F00F0320F00F010B43C4F8D3
:10AD700010350C2303FB065500202A7203B0F0BDEA
:10AD8000A40004F5A07443F804C01B590193019B6F
:10AD9000A8E70820F2E700BFE03C002000E100E067
:10ADA00014ED00E0036801221A600379034A0C21C4
:10ADB00001FB032302221A72704700BFE03C00200F
:10ADC0000368044901221A6103790C2000FB031374
:10ADD0001A727047E03C002038B503681B0B5AB26A
:10ADE0000121520903F01F0301FA03F320320C4939
:10ADF00041F8223003680025D3F80022C3F800523E
:10AE000003684FF0FF320446C3F80823FFF7D8FF6A
:10AE10002379044A0C2101FB03231D7238BD00BFB6
:10AE200000E100E0E03C00200379044A0C2101FB32
:10AE30000323187A831E584258417047E03C002093
:10AE400073B54FF480348C4005688BB101F1500329
:10AE50009B000026EE50EB580193019B0368C3F85A
:10AE60000443036801F5A87143F8212002B070BDC6
:10AE7000C5F80843F5E7F0B407689DF810C0D7F8A7
:10AE8000004240F201158D4024EA0504C7F8004253
:10AE90000568D5F800422343C5F80032F0BC63468C
:10AEA000FFF7CEBF042202490248FFF7E5BE00BF0C
:10AEB000E03C002000A00040062202490248FFF7C3
:10AEC000DBBE00BFEC3C002000A00140002343504B
:10AED00082B043580193019B02B070470A4610B5F7
:10AEE0004FF48E71FFF7F2FF136A9168C95C136A21
:10AEF00001331362C0F81C1510BD10B58B690A46EA
:10AF00004FF4847123B9FFF7E1FFD0F8183510BD75
:10AF1000FFF7DCFF536AD168D0F81805C854536AAC
:10AF200001335362F3E700001FB501238DF80030B1
:10AF3000044BCDE90110D3E900126846904705B0F3
:10AF40005DF804FBF83C002030B54D4AD2F80433DC
:10AF500013F4007F85B015464FD0D2F82431002B72
:10AF60004BD04FF492711046FFF7B0FF4FF40173CE
:10AF7000C2F80833434B93F8291009B901215160F5
:10AF80003F4902228DF80020D1F88024C1F88024A6
:10AF900003929A690292DA6801920022C3E90622BA
:10AFA0006846D3E9001290473548D0F81C315BB1B0
:10AFB00034490A6A4B699A420A464CD291F82830C1
:10AFC000002B48D1FFF78AFF2D4AD2F8443193B1C4
:10AFD0004FF4A2711046FFF779FF2A4B93F829101E
:10AFE00009B1012111609A692AB100229A61586A57
:10AFF000D968FFF799FF05B030BDD5F804335B077A
:10B00000D2D5D5F80831002BCED01E4C1C48214695
:10B01000FFF773FF636AA2699A422346C4D1E269CB
:10B0200052B12369E168E3600023606AA261E361D1
:10B030006362FFF779FFB7E794F829200AB9012284
:10B040006A600F4A4FF40171C2F8081300229A6136
:10B05000586AD968EDE74FF48E710948FFF736FF5B
:10B0600051690029B0D00023029191688DF8003019
:10B07000019153616846D2E900139847A4E700BFE5
:10B0800000200040F83C00201F2886BF00F01F0071
:10B09000044B4FF0A04300F5E070022243F820205B
:10B0A000704700BF000300502DE9F8436C4F06794C
:10B0B00091462C2202FB0672054692F82A200C4685
:10B0C000002A40F0C68067490068FFF779FC804697
:10B0D000002840F0C18023685A1C19D01F2B4FF064
:10B0E00001028ABF60494FF0A04103F01F0302FA3A
:10B0F00003F3C1F8083523681F2B86BF03F01F0335
:10B10000594A4FF0A04203F5E073032142F823109F
:10B1100061684B1C0BD01F2986BF01F01F01524BE9
:10B120004FF0A04301F5E071002243F821202B6885
:10B13000A269C3F82425217D637D2A680B43C2F8E8
:10B140006C35D4E900122B68C3F81425C3F80C152C
:10B15000237D012B32D1A168481C0BD01F2986BF4B
:10B1600001F01F01404B4FF0A04301F5E0710022B8
:10B1700043F82120E3685A1C19D01F2B4FF001021D
:10B180008ABF39494FF0A04103F01F0302FA03F3CD
:10B19000C1F80835E3681F2B86BF03F01F03324A4E
:10B1A0004FF0A04203F5E073032142F82310D4E9E5
:10B1B00002122B68C3F80825C3F810152C2373431B
:10B1C000FA18C2F804902269FA50B9F1000F2DD094
:10B1D0004FF48E712868227FFFF778FE4FF4A2713A
:10B1E0002868FFF773FE2B682049C3F80413296809
:10B1F000090B4BB2002BAEBF03F1604301F00F010E
:10B200001B4B4FEA4212D2B2AABF03F561435A5414
:10B2100083F800232B681B0B5AB2012103F01F0394
:10B2200001FA03F35209134941F822302B68042232
:10B23000C3F800252C2303FB06730022C3E9062272
:10B2400083F829205A61012283F82A204046BDE86C
:10B25000F8834FF00808F9E74FF01108F6E700BF50
:10B26000F83C002049AF02000003005080000200BB
:10B2700014ED00E000E100E02DE9F04103680479FD
:10B28000274D0022C3F800252C2303FB045301465D
:10B290005B6883B10368234AC3F8082303681B0B68
:10B2A0005AB20120520903F01F0300FA03F32032BF
:10B2B0001D4840F822300B684FF0FF32D3F80C05E0
:10B2C000D3F81485D3F80865D3F81075C3F814259E
:10B2D000C3F80C250B689042C3F80825C3F8102565
:10B2E00001D0FFF7D1FEB8F1FF3F02D04046FFF793
:10B2F000CBFE7A1C02D03846FFF7C6FE731C02D084
:10B300003046FFF7C1FE0868FFF77AFB2C2303FBEA
:10B310000454002384F82A306360BDE8F08100BF44
:10B32000F83C00208402020000E100E02DE9F8432F
:10B33000224B07794FF02C0909FB07340646656953
:10B340009846002D35D16261A160256284F82850AD
:10B350004FF48E710068FFF7B9FD336801229A60DF
:10B3600021463068FFF7BAFD6368A1461BBB35680C
:10B37000226A63699A4211D33368D3F81C21002AE8
:10B38000FBD00122DA6000202C2303FB0787002377
:10B390007B61BDE8F88394F8283043B9D5F81C31B7
:10B3A000002BF8D049462846FFF798FDE0E70F202C
:10B3B000EAE71120EDE72846EBE700BFF83C002064
:10B3C0000023435082B043580193019B02B0704761
:10B3D0001FB501238DF80030044BCDE90110D3E9EE
:10B3E00000126846904705B05DF804FB243D00203C
:10B3F0007FB5374AD2F82461002E48D010464FF46A
:10B400009271FFF7DDFF02238DF80030D2F880340F
:10B41000C2F880340393D2F83C3502932D4BDA689E
:10B4200001920022C3E906226846D3E90012904740
:10B43000274AD2F844317BB14FF4A2711046FFF78E
:10B44000BFFF244B996939B10021C3E90611D968BE
:10B45000D2F83C05FFF7BCFF1D4AD2F82031A3B15A
:10B460004FF490711046FFF7ABFF1A4B596961B169
:10B47000D2F84C150291002299688DF800200191B4
:10B480005A616846D3E90012904704B070BDD2F803
:10B490001031002BCCD04FF488711046FFF790FF8D
:10B4A0000C4BD2F83C0599698842C1D1DC69D96856
:10B4B00064B1D2F8005225F02005C2F800521A6992
:10B4C0009C61DA60DE61FFF783FFB1E79C61FAE718
:10B4D00000200040243D00201F2886BF00F01F00F0
:10B4E000044B4FF0A04300F5E070022243F8202007
:10B4F000704700BF000300502DE9F843704F0679F4
:10B500009146242202FB0672054692F820200C4642
:10B51000002A40F0CE806B490068FFF751FA804660
:10B52000002840F0C98023685A1C19D01F2B4FF007
:10B5300001028ABF64494FF0A04103F01F0302FAE1
:10B5400003F3C1F8083523681F2B86BF03F01F03E0
:10B550005D4A4FF0A04203F5E073032142F8231047
:10B5600061684B1C0BD01F2986BF01F01F01564B91
:10B570004FF0A04301F5E071002243F821202B6831
:10B58000A269C3F82425217D637D2A680B43C2F894
:10B590006C35D4E900212B68C3F80C25C3F81415C9
:10B5A000237D012B32D1A168481C0BD01F2986BFF7
:10B5B00001F01F01444B4FF0A04301F5E071002260
:10B5C00043F82120E3685A1C19D01F2B4FF00102C9
:10B5D0008ABF3D494FF0A04103F01F0302FA03F375
:10B5E000C1F80835E3681F2B86BF03F01F03364AF6
:10B5F0004FF0A04203F5E073032142F82310D4E991
:10B6000002122B68C3F80825C3F8101524237343CE
:10B61000FA18C2F804902269FA50B9F1000F37D035
:10B620004FF488712868227FFFF7CAFE4FF49071AB
:10B630002868FFF7C5FE4FF492712868FFF7C0FE37
:10B640004FF4A2712868FFF7BBFE2B681F49C3F8AF
:10B6500004132968090B4BB2002BAEBF03F1604302
:10B6600001F00F011A4B4FEA4212D2B2AABF03F502
:10B6700061435A5483F800232B681B0B5AB20121F3
:10B6800003F01F0301FA03F35209124941F8223073
:10B690002B680822C3F80025242303FB067300222D
:10B6A000C3E906225A61012283F820204046BDE802
:10B6B000F8834FF00808F9E74FF01108F6E700BFEC
:10B6C000243D0020F1B302000003005010030200EB
:10B6D00014ED00E000E100E02DE9F0410368047999
:10B6E000274D0022C3F80025242303FB0453014601
:10B6F0005B6883B10368234AC3F8082303681B0B04
:10B700005AB20120520903F01F0300FA03F320325A
:10B710001D4840F822300B684FF0FF32D3F80C057B
:10B72000D3F81485D3F80865D3F81075C3F80C2541
:10B73000C3F814250B689042C3F80825C3F81025F8
:10B7400001D0FFF7C9FEB8F1FF3F02D04046FFF736
:10B75000C3FE7A1C02D03846FFF7BEFE731C02D02F
:10B760003046FFF7B9FE0868FFF74AF9242303FBC8
:10B770000454002384F820306360BDE8F08100BFEA
:10B78000243D00201003020000E100E001F06043CE
:10B79000B3F1005F2DE9F041064634D11D4B077926
:10B7A000242505FB073598466C6974BB6A61A9605E
:10B7B00000684FF49071FFF703FE4FF4AC713068EE
:10B7C000FFF7FEFD33686A69A968C3F84415C3F83A
:10B7D0004825336801229A606B68C3B93268D2F891
:10B7E0002011D2F8583149B9002BF8D00F2024236A
:10B7F00003FB078700237B61BDE8F081002B14BFAA
:10B800000F200020F3E71020F6E71120F4E7204690
:10B81000F2E700BF243D00200220FEF755BB0000E8
:10B820002DE9F04781460D46FEF77CFB03280446D0
:10B8300004D8012D04D024D3022D2FD0BDE8F087E9
:10B84000194D47003A18A918AE5C4A7852B1DFF892
:10B850006880164842464FF40041FBF7C3FF08B921
:10B8600088F800903B192B449A78114B1A55002EFA
:10B87000E4D0104B1B68002BE0D03046BDE8F04709
:10B8800018470A48FBF7F2FF074B04EB4402134446
:10B890009E78074B1B5DB342D0D1E8E7024B00EB2B
:10B8A00040041C446678E2E7AC3D00206C3D00207B
:10B8B000C53D0020C03D0020483D00200221007809
:10B8C000FFF7AEBF08B5094B1B7853B10020FEF758
:10B8D000C9FA0120FEF7C6FA0320BDE80840FEF7CA
:10B8E000C1BABDE80840FEF7D1BA00BF493D00200B
:10B8F000F8B57B4C237805461BB100232370FFF776
:10B90000E1FF172D00F28880DFE805F00C171743E0
:10B9100054657680888D888D959A9A9A9A9AC4C92A
:10B92000D1D9E4E4FFF7CEFF6E48FBF79FFF6E4BE3
:10B93000002204461A702046F8BD0020FEF76AFA7D
:10B94000F8B10020FEF78EFA022D0CBF4FF4E16132
:10B950004FF47A61644B1D704FF400404FF4FA7459
:10B960000025E0FB01454FF47A720023204629466A
:10B9700036F0C0FD002201465A48BDE8F840FBF70A
:10B9800031BFFEF75BFA022D0CBFC8214FF4C8711E
:10B99000E0E70020FEF73EFA40B10020FEF762FA31
:10B9A0004FF44871504B03221A70D5E7FEF746FA60
:10B9B000C821F7E70020FEF72DFA38B10020FEF786
:10B9C00051FA4FF47A61484B0422EDE7FEF736FA5C
:10B9D0004FF4C871F7E70020FEF71CFA48B10020C9
:10B9E000FEF740FA404B05221A7041F69A110022E8
:10B9F000C2E7FEF723FAF5E70020FEF765FA3A4BB7
:10BA000006221A70002240F6CD41B5E70020FEF76D
:10BA100015FA354B07221A7000248CE7012020709C
:10BA2000FEF752FAEEE701202070FEF74DFA0022F1
:10BA30004FF48041A0E7FEF738FA2B4B0C22EAE7DF
:10BA40002A482B4EFBF712FFD5F1110504461CD0F6
:10BA5000D8B9012D13D0C8235D434FF400474FF4EC
:10BA6000FA7000214FF47A720023C7FB050136F00B
:10BA700041FD224601461D48FBF7B4FE0446022064
:10BA8000FEF7DCF90123337055E70220FEF7EAF9EF
:10BA90000023F8E7FFF716FF134B1222BBE7FFF76F
:10BAA00011FF0020FEF7CAF90F4B1322B3E7FFF78F
:10BAB00009FF0120FEF7C2F90B4B1422ABE7FFF799
:10BAC00001FF0020FEF7BAF90120FEF7B7F9064B97
:10BAD0001522A0E7FEF7E9F9034B1D709CE700BFB4
