:020000040002F8
:1060000028560020C1630200C9630200CB6302006E
:10601000CD630200CF630200D163020000000000E4
:10602000000000000000000000000000D363020038
:10603000D563020000000000D7630200D9630200AC
:1060400091670200DB630200F1690200DB6302007A
:10605000DB630200DB63020079650200DB630200A0
:10606000DB630200DB630200DB630200DB63020030
:10607000DB630200DB630200DB630200DB63020020
:10608000DB630200E9670200DB630200DB630200FE
:106090000D680200DB63020011680200DB6302008E
:1060A000DB630200DB630200DB630200DB630200F0
:1060B000DB630200DB630200000000000000000060
:1060C000DB630200DB630200DB630200DB630200D0
:1060D000DB630200DB630200DB630200DB630200C0
:1060E000DB630200DB630200DB63020000000000F0
:1060F00000000000DB63020000000000DB63020020
:10610000000000000000000000000000000000008F
:10611000000000000000000000000000000000007F
:10612000000000000000000000000000000000006F
:10613000000000000000000000000000000000005F
:10614000000000000000000000000000000000004F
:10615000000000000000000000000000000000003F
:10616000000000000000000000000000000000002F
:10617000000000000000000000000000000000001F
:10618000000000000000000000000000000000000F
:1061900000000000000000000000000000000000FF
:1061A00000000000000000000000000000000000EF
:1061B00000000000000000000000000000000000DF
:1061C00000000000000000000000000000000000CF
:1061D00000000000000000000000000000000000BF
:1061E00000000000000000000000000000000000AF
:1061F000000000000000000000000000000000009F
:10620000DFF80CD000F07AF90048004711AA02002C
:106210002856002030B450E8012F93B2C48923449B
:106220008489A34228BF1B1B0489A34202BFBFF37A
:106230002F8F002007E0C3EA020340E80134002C5E
:10624000E9D14FF001000A6030BC704750E8012FDF
:10625000C2EA024240E801210029F7D1704730B478
:1062600050E8022F1FFAA2F3C488A34202BFBFF373
:106270002F8F00200DE0C48923448489A34228BFC6
:106280001B1BC2EA034340E80234002CE8D14FF064
:1062900001000A6030BC704750E8022FC2EA224277
:1062A00040E802210029F7D17047034653E8022F46
:1062B000D988B2EB324F4FF0000017BF92B241EADB
:1062C000014142EA014104E05A68B2EB324F08BF93
:1062D000012043E80212002AE8D1704730B4044696
:1062E00054E8000F0D4644E80053002BF8D1156028
:1062F00030BC704730B4044654E8000F40EA010552
:1063000044E80053002BF7D1156030BC704730B41F
:10631000044654E8000F00EA010544E80053002B4E
:10632000F7D1156030BC704730B4044654E8000F14
:1063300080EA010544E80053002BF7D1156030BC1A
:10634000704730B4044654E8000F00EB010544E800
:106350000053002BF7D1156030BC704730B40446B1
:1063600054E8000FA0EB010544E80053002BF7D1DF
:10637000156030BC704770B404464FF0000054E81C
:10638000006F0D68AE4207BF44E80023012044E8D7
:1063900000630E60002B1CBF0020F0E770BC70474C
:1063A00030B4044654E8000F88422CBF451A054615
:1063B00044E80053002BF5D1156030BC7047000055
:1063C0000648804706480047FEE7FEE7FEE7FEE78F
:1063D000FEE7FEE7FEE7FEE7FEE7FEE715680200E0
:1063E000016202002DE9F05F0546002092469B46BF
:1063F00088460646814640241BE0284641464746DB
:10640000224600F06BF853465A46C01A914110D309
:1064100011461846224600F016F82D1A67EB0108BF
:106420004F4622460120002100F00DF817EB00092D
:106430004E41201EA4F10104DFDC484631462A46C5
:106440004346BDE8F09F202A04DB203A00FA02F11F
:10645000002070479140C2F1200320FA03F3194352
:106460009040704700487047E412030040EA01037F
:106470009B0703D009E008C9121F08C0042AFAD2FA
:1064800003E011F8013B00F8013B521EF9D27047BE
:10649000D2B201E000F8012B491EFBD27047002266
:1064A000F6E710B513460A4604461946FFF7F0FF13
:1064B000204610BD421C10F8011B0029FBD1801A98
:1064C000704730B504460020034600E05B1C934251
:1064D00003D2E05CCD5C401BF8D030BD202A04DB49
:1064E000203A21FA02F00021704721FA02F3D0404D
:1064F000C2F120029140084319467047064C074DEF
:1065000006E0E06840F0010394E807009847103483
:10651000AC42F6D3FFF778FE2C2903004C29030088
:1065200070B58C1810F8015B15F0070301D110F855
:10653000013B2A1106D110F8012B03E010F8016B82
:1065400001F8016B5B1EF9D12B0705D40023521E05
:106550000DD401F8013BFAE710F8013BCB1A921C6D
:1065600003E013F8015B01F8015B521EF9D5A1426B
:10657000D8D3002070BD00002DE9F04F00268DB06B
:10658000DFF8A081B14604964FF4807501243746A8
:106590000596284605F084FC38B1D8F8040320425B
:1065A00003D0284605F072FC26432D1D64007F1C95
:1065B000ADB2082FEDD34FF4BE74204605F070FC49
:1065C00048B1204605F062FC46F0004604AA0221CC
:1065D000002005F045FC544C16F0FF0F15D00127A4
:1065E000002537420DD008EB8501D1F81005D1F810
:1065F0001015C0F3052054F82520C1F3014102B164
:1066000090477F006D1C082DEBD3002E7EDA002012
:10661000CDF82890411E0DF1100B07AACDF82C9053
:1066200042F82010401C91460228F9D300252E463E
:10663000A11911F8607F91F9000027F0C008401CF3
:1066400040D007A9404604F02CFD40B34FEA971A0A
:10665000404602F04BF954F820701FB1BAF1030F15
:1066600003D006E0BAF1030F2CD10AA9404604F08A
:1066700020FD02A8CDF8088005F096FB029900EBFA
:106680008100D0F8000704A9C0F301400290404601
:1066900004F007FD0028029802D0022802D011E081
:1066A00003280FD1BAF1030F08D10298022833D082
:1066B0000221404605F052FB6D1CEDB217B1514668
:1066C0004046B847761C042EB2D3002D21D001AA33
:1066D0000221002005F0C4FB00205A460DF1040100
:1066E00052F8206051F82030B34217D000200AAE93
:1066F0004FEA090351F8207042F8207056F82070D4
:1067000043F82070401C0228F4D300E001E0002D83
:106710008CD10DB0BDE8F08F0321CAE7401C0228E0
:10672000DED3F6E700600040AC2C002000F01F0232
:10673000012191404009800000F1E020C0F8801262
:10674000704700F01F02012191404009800000F1D4
:10675000E020C0F80011704700F01F0201219140B5
:106760004009800000F1E020C0F80012704749079E
:10677000090E002806DA00F00F0000F1E02080F892
:10678000141D704700F1E02080F8001470470000ED
:1067900070B54FF48076304604F0C6FD114CB50557
:1067A00060B1304604F0C7FD0120C5F808036079E8
:1067B00020B9012060712168002088474FF482765B
:1067C000304604F0B1FD00280AD0304604F0B3FD95
:1067D0000220C5F808032168BDE870400120084781
:1067E00070BD00009024002007480021C0F840112F
:1067F000C0F84411C0F84811C0F84C11C0F800119D
:10680000C0F8041109F00CBD0010014009F056BC9D
:1068100006F010B930B54FF0805000228300D0F858
:106820003011C3F80C21C3F81021624B1A60624B7F
:106830001B68624C2360604B1B1D1B68241D23607A
:106840005D4B08331B68241D23605B4B0C331B68B6
:10685000241D2360584B10331B68241D2360564BA6
:1068600014331B68241D2360534B18331B68534C8F
:1068700020342360504B1C331B68241D23604E4B77
:1068800020331B68241D23604B4B24331B68241DBD
:106890002360494B28331B68241D2360464B2C334F
:1068A0001B68241D2360444B30331B68434C403429
:1068B0002360414B34331B68241D23603E4B383327
:1068C0001B68241D23603C4B3C331B68241D236044
:1068D000394B40331B68241D23600123082902D152
:1068E000D0F8344114B1082904D006E0354C3449BD
:1068F000216005E0D0F8344114B1082904D006E045
:10690000314CFB21216005E0D0F8344114B1082955
:1069100008D00EE090F858422C48016864F3030157
:10692000016002E0D0F834411CB929494FF40070ED
:10693000086028480168C90702D06FF001010160B2
:106940002548016841F470010160BFF34F8FBFF328
:106950006F8F4FF01021D1F80002002803DBD1F82F
:106960000402002822DA1D4C23601D480368002B16
:10697000FCD01223C1F800320568002DFCD0C1F80C
:10698000043201680029FCD0226001680029FCD093
:10699000BFF34F8F10487C380168124A01F4E06160
:1069A00011430160BFF34F8F00BFFDE70F490E4851
:1069B000086030BD380500400404001020C50040C8
:1069C000488103008C56004018F50040E40E00405A
:1069D000409602400004004088ED00E004E50140DC
:1069E00000E401400400FA050090D003882500204F
:1069F00001480068004700009824002002E008C811
:106A0000121F08C1002AFAD170477047002001E028
:106A100001C1121F002AFBD170470000012120286C
:106A200003DA81400548014003E0402802DA2038BB
:106A3000814009B10120704700207047FC06FFBD6E
:106A40002DE9F843804643F2020659B9694607F03A
:106A500011FBB04202D008B100F0A0F99DF800008F
:106A6000800744D40021404607F040FB05003ED09B
:106A7000112D3CD01F482049401AC708022000EBC6
:106A800007440D2D0AD00B2D1DD0B5421FD11B4937
:106A900020464246BDE8F84305F006BC2046424683
:106AA000174905F001FC1321404676DF00281ED06F
:106AB00006F048F8024601B020464346BDE8F043E0
:106AC00010A105F0F8BB204642461C49E2E72846E3
:106AD00006F038F80246012000EB0740434618A1B3
:106AE00005F0E9FB2846BDE8F84300F057B9BDE8DA
:106AF000F8830000942903005C290300AC1A03000A
:106B0000381A030073645F626C655F6761705F646D
:106B10006973636F6E6E656374282920726574757E
:106B2000726E6564202573206F6E20636F6E6E5FDA
:106B300068616E646C652025642E0000F81A0300FD
:106B4000417373657274696E672E20706D5F636F39
:106B50006E6E5F7365637572652829207265747542
:106B6000726E6564202573206F6E20636F6E6E5F9A
:106B700068616E646C652025642E000010B560B1FC
:106B800059B102780B785208B2EB530F05D10622A7
:106B9000401C491CFFF795FC08B1002010BD0120E6
:106BA00010BD800701D00020704701207047C368E6
:106BB0008B4206D811440069491E814201D8012048
:106BC00070470020704710B501220221002001F01B
:106BD0004DFC08B1072810D107220221012001F045
:106BE00045FC08B1072808D100210A22084601F017
:106BF0003DFC08B1072800D1002010BD10B50446A7
:106C00002C21FFF74CFC012020714FF4967020617D
:106C100044F25060606110BD70B58CB015460E46F0
:106C200000236C46C3F10F01415CE1545B1C102B47
:106C3000F8D30D2104F11000FFF731FC0020C0F162
:106C40000F02315C2244401C11740328F7D36846BC
:106C500046DF0020C0F10F01214491F82010295493
:106C6000401C0328F6D30CB070BD022001F000BB1D
:106C70000149C97800F06CBE5824002070B500248A
:106C8000064D06E06868012110F8340005F0BCFFED
:106C9000641C28788442F5D3002070BDA024002015
:106CA000F8B515460C460646052A01D20720F8BD60
:106CB00006F0A0F818B906F065F80028F7D11249D7
:106CC00000224E600C708D60C1E90422C1E90622E9
:106CD0000E4D0DE006EBC4002968009181788DF817
:106CE000011000780A4A694605F0DAFF0028DED173
:106CF000641EE4B2EED2BDE8F84004480021054A23
:106D0000001D00F09FB80000A0240020540F0300D5
:106D10004D9C0200898E020072B605F075FB00BF23
:106D200005F0A4F90028FBD111481249401AC40803
:106D3000012000EB044010A105F0B2FA11480068F0
:106D4000C00700D000BE022000EB04400EA105F0F9
:106D5000A7FABFF34F8F0B48E43801680E4A01F4DD
:106D6000E06111430160BFF34F8F00BFFDE70000FA
:106D7000EC2903005C290300466174616C20657294
:106D8000726F7200F0ED00E053797374656D2072DC
:106D900065736574000000000400FA050EB500215B
:106DA0000091CDE901106A4644F20100FFF7B4FFFB
:106DB0000EBD000010B502280ED108480849401A3F
:106DC000C108032000EB0140044606A105F068FA63
:106DD000204610A105F064FA012010BDEC29030043
:106DE0005C290300506F776572206D616E61676585
:106DF0006D656E742077616E747320746F20726598
:106E000073657420746F20444655206D6F64652E41
:106E100000000000506F776572206D616E616765DC
:106E20006D656E7420616C6C6F77656420746F2083
:106E3000726573657420746F20444655206D6F64CD
:106E4000652E0000074B9B7823B12AB120B1006862
:106E5000037C1BB1082070470720704741744261D2
:106E600000207047882D002070B508F041FA1048C6
:106E700000240B21047044700E4D817014206C604E
:106E80002C706C70FFF752FC06211420FFF76FFC8A
:106E90001420FFF756FC0848046006211120FFF774
:106EA00066FC0548001F0068A860002070BD000057
:106EB000882D0020C0240020081501402DE9FC4742
:106EC000DFF8789099F8023073B368B3052902D2DD
:106ED0000720BDE8FC87436933B3437C012B25D0F1
:106EE000002704460025884616468DF8005068465F
:106EF00000F038F801A809F035FCC8B10121017093
:106F00000F4944600968C0E90218C0E904769DF899
:106F1000040089F801009DF8000000F047F81420F3
:106F2000FFF71AFC2846D4E70820D2E70F46D8E737
:106F300004259DF8000000F039F8F3E7882D0020C3
:106F4000041501400649897839B130B1416921B150
:106F500000210174022109F03FB9082070470000A8
:106F6000882D002030B5EFF3108172B60D4A946879
:106F7000012324B10370002900D162B630BD9360B3
:106F80004FF0E023D3F88051074C25401560C3F83B
:106F90008041D3F8844154605A17C3F884210022F9
:106FA0000270E8E7942E0020FC06FFBD0B498A68BA
:106FB000002A11D000280FD1EFF3108072B60B68B1
:106FC0004FF0E022C2F800314B68C2F804310022D1
:106FD0008A60002800D162B670470000942E00201D
:106FE00070B5054608680C46411C04D004F011FF3A
:106FF000206804F09FFE6068411C02D0002104F06C
:1070000087FE2968A069C1F82405607D227D296872
:107010001043C1F86C05D4E900122868C0F81425A3
:10702000C0F80C15207D012814D1A068411C02D0A5
:10703000002104F06DFEE068411C04D004F0E9FE7C
:10704000E06804F077FED4E902122868C0F8082549
:10705000C0F8101570BD70B5054608680C46411C97
:1070600004D004F0E0FE206804F06EFE6068411C6D
:1070700002D0002104F055FE2968A069C1F824055A
:10708000607D217D2A680843C2F86C05D4E90012AE
:107090002868C0F80C15C0F81425207D012814D1EB
:1070A000A068411C02D0002104F03BFEE068411CB6
:1070B00004D004F0B8FEE06804F046FED4E9021201
:1070C0002868C0F80825C0F8101570BD03F070BB23
:1070D0002DE9F047814605884A484FF000088AB0FC
:1070E00001784246284600F04BFC99F8050040071D
:1070F00001D4002176E005F58077B8B201AB01221A
:10710000072106F019FC04003F48404A4FF00101F6
:10711000A0EB02004FEAD00001EB00460AD0204667
:1071200005F010FD024630462B46394905F0C3F8FC
:10713000214629E0284603F059F84FF6FF7104462E
:1071400088422BD18A46029802F0BAFF0446504585
:1071500010D00146284603F029F82846FFF788FD9D
:10716000E0B9284608F0CCFA2846FFF781FD002850
:10717000BFD013E006F0ACFD0446504508D13046C0
:1071800024A105F08DF80421284608F0E7FAB0E7BD
:107190000146284603F00AF84FF00108B8B222462B
:1071A000072106F041FC07001BD0862F1ED005F0FA
:1071B000C9FC024630462B462349009405F083F86B
:1071C0003946284608F0CAFA0021484606F0A8FACF
:1071D000B8F1000F02D0204602F0F2FF0AB0BDE87D
:1071E000F0870121484606F09BFAF7E71822174975
:1071F00003A8FFF73BF9ADF80E5003A802F04EF8D4
:10720000EFE70000582400209C2903005C290300BC
:10721000B01D0300436F756C64206E6F7420616C49
:107220006C6F63617465206E657720706565725F51
:10723000696420666F7220696E636F6D696E672086
:10724000626F6E642E000000CC1E0300D80E030097
:107250002DE9FC47002517880646158090F82D007B
:107260001446894630B13A462146484600F0B2FB02
:10727000051E09D1B0784FF00C0A18B32088C84613
:10728000001DB84202D95046BDE8FC87684679DF48
:107290000028F9D12088032108F80010208819213E
:1072A000401C80B2208008F800102088401C80B26A
:1072B000208000EB0801BDF8000009F074F9218876
:1072C00008442080F0780222C8B1218896F9033062
:1072D00001F1030C4846BC45D5D8425421884FF0F3
:1072E000010C491C89B2218000F801C02188491C89
:1072F00089B2218009F801302088401C2080706804
:10730000B8B1218890F9003001F1030C4846BC4522
:10731000B9D8425421880A22491C89B2218042549A
:107320002188491C89B2218009F801302088401C3D
:107330002080308950B1CDE900474B46062202211A
:1073400006F1080009F026FA051E9DD1308A50B1D9
:10735000CDE900474B460722032106F1100009F052
:1073600019FA051E90D1308B50B1CDE900474B463C
:107370001522142106F1180009F00CFA051E83D11C
:10738000306A30B13B462246494601F036FC051EC4
:10739000DBD1706A30B13B462246494603F05AFCC5
:1073A000051ED2D196F82C0038B13B4622464946FC
:1073B000304608F015FB051EC7D1307838B13B4682
:1073C00022464946304603F0D3FC051EBDD128466F
:1073D0005AE718B504460020ADF8000013466A4687
:1073E000204600F006F8002802D0BDF80000204436
:1073F00018BD70B588B182B10024158803E0065D20
:10740000641C3444A4B2A54203D8061976789E427F
:1074100001D08C42F3D38C4201D3002070BDA11C5B
:107420001180005D401E80B270BD80F83010704742
:107430002DE9F0470D00044606D02CB195F87A00EE
:107440000026012803D006E00E20BDE8F08795F85D
:107450009800012821D04FF00109A6702C2205F1D7
:107460007801201DFFF702F884F83060D5F8A400F9
:107470006063D5F8A800A0634FF6FF70A4F8480237
:1074800004F50D70C4F84402C4F84A62A4F84E62D0
:1074900084F85062207810B104E00720D5E7FF207F
:1074A00084F8540004F15501C4F8341294F824000F
:1074B000EE274FF01F08012833D0A4F8388200BF10
:1074C00004F50E722846FFF7C3FE0028BDD104F272
:1074D0004311C4F83C1294F82400012824D0A4F8E5
:1074E000408200BF04F5107205F13C00FFF7B0FECA
:1074F0000028AAD184F85190208BA4F8480084F881
:107500003C90266484F85060606960644D4604F1E4
:107510003C02002104F1540072DF002895D125704F
:1075200093E7A4F83872CBE7A4F84072DAE72C228C
:10753000001DFEF79BBF10B50288102A1BD0112A30
:1075400020D0262A1DD1007A0C46012801D002281D
:1075500017D1A0780521401CB0FBF1F201FB12010C
:10756000204600F03BF800280BD0A16B002908D082
:10757000BDE810400847C27B012A02D18088A1F8EB
:10758000480210BD0C46002184F852128088B4F8DD
:1075900048128842F5D120790028F2D10121DFE795
:1075A000704710B5044690F8540074DF012084F849
:1075B0005202002084F8540284F85000062120462C
:1075C00002F048F8002808D1A178204600F006F81B
:1075D00010B1A16B01B18847002010BD2DE9F05F0B
:1075E000044600780F4698B1A7700025C4F84A52A7
:1075F000A4F84E5284F85052A079012608B1012F08
:1076000009D0E07980B1012F05D0022F03D00BE023
:107610000820BDE8F09F616B21B184F85162082019
:10762000884701E084F8515204F24B2100200A5CA3
:107630000AB1304603E0401C0628F8D300204FF082
:1076400002084FF0030B012F06D0022F0CD0032F9E
:107650000FD0042F15D110E0A17929B194F824108E
:1076600011B908B130460DE0E17911B108B14046D9
:1076700008E0207A08B1584604E0607A08B1042096
:1076800000E02846A070616B41B1032801D00428B6
:1076900004D1607910B194F85202A0B184F8535229
:1076A00004F13C0018210746FEF7F9FE04F12C0016
:1076B00084F83C60814606F047FC58B194F82C00F1
:1076C00084F8510008E084F8545284F8536207208B
:1076D0008847E5E784F8516094F8240050B14846A3
:1076E00006F032FC20B194F8280084F8520001E042
:1076F00084F8526084F85050A27804F24A2104F5CC
:107700000D794FF0060A052A62D2DFE802F07A030B
:107710000F22410084F83160C4F84452C4E91015C6
:1077200084F83C808020A4F8480053E084F831803D
:1077300094F82420384612B10722027001E080F844
:1077400000B0228A8281C4F844524160E168B96085
:1077500040E06069B860208BB88194F824003D4611
:1077600010B184F83CA001E084F83C60204608F0A9
:10777000D5FF50B185F814800421204601F06AFF3E
:1077800030BB052184F8311020E084F831B01DE0D1
:10779000E069B860208CB88194F824003D4610B1AF
:1077A00084F83CA001E084F83C60204608F0B6FF75
:1077B00048B185F814800421204601F04BFF38B908
:1077C00084F831A002E0042084F83100C4F8449227
:1077D000A07878B13A4604F15400D4F8441272DF2C
:1077E00000287FF416AF94F8301094F8540073DF3B
:1077F0000028F6D1616B11B194F831008847002060
:1078000007E784F83150F5E770B5040012D001465F
:107810001C221448FEF72AFE1248134D056020680A
:1078200050B17ADF002806D12068016829604068DD
:10783000686005E00E2070BD0B487BDF0028FAD1A0
:1078400008484FF6FF711438084A20F8041B054910
:10785000343901600021FFF7F5FA0028EBD003204E
:1078600070BD0000B8280020B0230020B50603003A
:1078700010B5044600F0A4F8002805D02146BDE864
:107880001040024803F071BB10BD0000E428002046
:107890000346034880680A46194601F007BF000006
:1078A000D428002070B515460E46044608F042FF65
:1078B000002809D0054800EB840080692A4631463B
:1078C000BDE8704001F0F2BE70BD0000D428002079
:1078D00010B5044600F074F8002805D02146BDE834
:1078E0001040024803F041BB10BD0000E828002012
:1078F00070B50546002400F063F838B12946044805
:1079000003F033FB08B1022400E00124204670BDDF
:10791000E028002070B50546002400F051F838B189
:107920002946044803F021FB08B1022400E00124A9
:10793000204670BDDC28002010B51821034803F054
:10794000EFFA182800D0C0B210BD0000D4280020E3
:1079500070B505460C46084608F0ECFE60B12846B6
:1079600000F02EF840B10548294600EB8400BDE840
:107970007040183003F0F9BA002070BDD428002000
:1079800070B5054614460E46084608F0D3FE00289A
:1079900012D0284600F014F800280DD007482946D8
:1079A00000EB860018301CB1BDE8704003F0E8BA67
:1079B000BDE8704003F099BA70BD0000D4280020E3
:1079C000142801D3002070470146014803F0CDBAC6
:1079D000D82800207CB5054608880C46093090421E
:1079E00001D90C207CBD68466DDF0028FAD12188C2
:1079F0000820685420881B21401C80B22080295414
:107A00002088401C80B220802844DDF801100160ED
:107A1000BDF8051081802088801D80B220809DF8EF
:107A20000010490800D0012129542088401C2080E2
:107A300000207CBD10B503F087FC002809D1054863
:107A40004FF0020C00DF002803D1BDE8104003F026
:107A5000E9BC10BD4C2C002020B10349086003484C
:107A600007F028B90E207047782400201DE102009D
:107A700010B54FF0FF3100203DDF00280BD1B121C0
:107A80003CDF002807D104484169012088470220D3
:107A900004F0E4FD002010BD302C002010B5064C91
:107AA000206841690020884706F008FA21680861CB
:107AB00002F026F9002010BD7824002010B588B00F
:107AC000044620216846FEF7EAFC0420ADF80000D9
:107AD00020788DF802009DF80D00172140F0280055
:107AE0008DF80D000120ADF804108DF81000022172
:107AF0008DF813108DF812108DF80C008DF8110010
:107B00006088A21D694600F0F9FE08B010BD0000B3
:107B100010B5184C86B01ECC8DE81E0050B1164C26
:107B20004FF6FF71A18000680021606161762176C7
:107B300018B104E00E2006B010BD104860610E4878
:107B4000FFF78AFF0028F6D101208DF812004FF6CA
:107B50005960ADF81000A21C04A90120A8DF00287C
:107B6000E9D10549684662DF0028E4D10248FFF701
:107B7000A5FFE0E7340F0300302C00206D8F0200DA
:107B800010B500280FD00188214C502926D00BDCDD
:107B900010291DD0112906D1A1888088814202D1E7
:107BA0004FF6FF70A08010BD512913D05329FAD190
:107BB000C088E1888842F6D1607E0028F3D0FFF7C4
:107BC0006DFF0028EFD06169BDE810400220084732
:107BD0008088E7E7BDE8104005F026BC30F8061FB6
:107BE00062899142DFD141890229DCD10C3000F059
:107BF000F3FA0849084A2076891AC908032202EBD9
:107C000001430246BDE8104004A1184604F04CBBF5
:107C1000302C0020EC2903005C29030052656365C9
:107C20006976656420696E6469636174696F6E204A
:107C300073746174652025640000000070B505460A
:107C4000007B0424012810D00224287B214600F068
:107C500051F80C4C18B1206841690320884720680E
:107C60004169BDE870400220084701F0A7F90028EB
:107C700007D0112803D00F28E7D10724E5E7062411
:107C8000E3E770BD7824002070B5184900250A6824
:107C9000002A2AD04A68002A27D0012608319047B6
:107CA000082822D0124C0028206810D0457685760E
:107CB0000621012000F01EF818B120684169032058
:107CC000884720684169BDE8704002200847467631
:107CD00085760121084600F00DF8002805D02068BF
:107CE0004169032088472068457670BD4C2C0020F0
:107CF0007824002086B00323ADF8003020238DF8CF
:107D000014308DF8150000220E48019202928DF871
:107D10001610C188ADF8041002218DF8061005A9CF
:107D20000491ADF80820CDF80CD0808801A9AEDF11
:107D3000002804D1BDF80010032900D00C2006B0A3
:107D400070470000302C002030B51F491F4B012523
:107D50000322C91AC9088BB002EB014478B101288B
:107D600025D0194A1946511AC908012202EB0142CD
:107D700002281FD0032810461FD015A11EE0204660
:107D80001DA104F08DFA6846FEF738FF8DF800500B
:107D900069462548FFF7CBFB00212448FFF778FD13
:107DA0000246204622A104F07FFA0BB030BD2046E7
:107DB00025A103E010462DA100E03BA10BB0BDE8DA
:107DC000304004F06DBA0000EC2903005C29030088
:107DD000556E6B6E6F776E206576656E7420667279
:107DE0006F6D20626C655F6466755F627574746F39
:107DF0006E6C6573732E0000446576696365206957
:107E00007320707265706172696E6720746F20658F
:107E10006E74657220626F6F746C6F61646572203E
:107E20006D6F64652E000000C0250020258F0200C4
:107E3000446973636F6E6E656374656420256420A6
:107E40006C696E6B732E00004465766963652077FC
:107E5000696C6C20656E74657220626F6F746C6FF4
:107E600061646572206D6F64652E000052657175E6
:107E700065737420746F20656E74657220626F6F15
:107E8000746C6F61646572206D6F646520666169F2
:107E90006C6564206173796E6368726F6E656F756F
:107EA000736C792E00000000526571756573742043
:107EB000746F2073656E64206120726573706F6EDD
:107EC000736520746F20636C69656E7420666169E8
:107ED0006C65642E0000000038B504460088212837
:107EE0001CD013DC102822D1072000F0E1FA08B1E1
:107EF000FEF754FF1048A1880180104803F09CF958
:107F0000002814D0BDE83840FEF748BF3B280FD00A
:107F100056280CD1A088132176DFF1E700200090CD
:107F2000A08869468FDF002801D0FEF737FF38BDF3
:107F3000A088132176DFE3E790230020B4250020FA
:107F400010B51A4C0188606810290ED011292BD168
:107F5000401E606028D1FEF736FE002824D021683C
:107F6000002921D0BDE810400847D0B900210122E6
:107F7000084600F07BFA08B107280FD1072202213A
:107F8000012000F073FA08B1072807D1042202216A
:107F9000002000F06BFA20B1072802D0216801B15F
:107FA00088476068401C606010BD0000A823002066
:107FB0002DE9F04701883B4E40F2F3194FF6FF756B
:107FC00010291BD011293ED0122954D0502946D156
:107FD000C188F289841D914241D1618902293ED133
:107FE0008688304602F0B0F9050038D004F10C0064
:107FF00000F0F6F8A8B3294630464EE0C17B8788EA
:10800000044601292BD1A846284602F09DF9050017
:1080100017D02F8000202872234843464A46016823
:10802000C5F80A104068C5F80E0004F1100105F10A
:108030000A0002F047FA6872F08900280FD1294639
:108040002AE0042013E0808802F07EF9040006D0C4
:108050006068FEF777FF08B107F064FB2580BDE894
:10806000F087FFE76868FEF76DFF0028F7D0BDE8EE
:10807000F04707F057BB87880646384602F064F998
:108080000400ECD02B464A4606F1080104F10A0030
:1080900002F018FA607221463846BDE8F04700F059
:1080A000F3BD0000B8280020B02300202DE9F04FD8
:1080B0000746858802883D48012197B08346102AEB
:1080C00009D0112A49D01A2A6CD1387AB1EB101F85
:1080D00045D2012244E0354C083CA068C0430B90D7
:1080E00061680BA802F065FF0B990CA800F066FD13
:1080F0002C220CA96846FEF7B9F90026E946A046ED
:1081000010E000BF09EB46005FF00004B0F804A0E7
:1081100008EB84005146001D02F0E7FE641C1D2C94
:10812000F6D3761C0098B042ECD8142D05D317B0C6
:108130000420BDE8F04FFEF731BE2946584602F054
:108140001FFF294608F1040002F01AFFF87B0128FE
:1081500028D016482946001D15E029461AE00022BD
:108160000221B1EB101F01D2012600E000260F49C9
:10817000083901F11000041D294682B102F000FF08
:1081800036B12946204617B0BDE8F04F02F0F8BEE0
:108190002946204617B0BDE8F04F02F0A6BE02F017
:1081A000A4FEF5E717B0BDE8F08F0000DC28002042
:1081B00010B504460748007800280AD0204601F090
:1081C000F1FE204607F0BCFC2046BDE8104001F05F
:1081D00079BB10BDE82300200078C0F34000704751
:1081E000007800F0010070470149085C704700000A
:1081F000500D0300084908B5085C0090684603F07C
:10820000C5FDD0F810050099C84010F0010000D05D
:10821000012080F0010008BD500D03002DE9FC4154
:108220000646C0074FF000050ED0104F0024012273
:10823000385D009500231146019503F0F3FC641CA2
:10824000042CF4D300F04EF8B0070DD5074E0024EF
:10825000361D0022305D032300951146019503F081
:10826000E1FC641C042CF4D3BDE8FC814C0D03003C
:10827000094908B5085C0090684603F087FDD0F80E
:108280000425009B0121994021EA0203C0F808352A
:108290001140C0F80C1508BD4C0D03000249085CE4
:1082A000012103F0CABD00004C0D03000249085C27
:1082B000002103F0C2BD00004C0D0300084908B5C1
:1082C000085C0090684603F061FDD0F80405009951
:1082D000C84010F0010000D0012080F0010008BD6E
:1082E0004C0D030010B500242046FFF7D7FF641C97
:1082F000042CF9D310BD10B500242046FFF7D6FF9B
:10830000641C042CF9D310BD10B50246064B4FF087
:10831000FF3000215C5C944201D1084610BD491C2D
:108320000429F7D310BD0000500D030070B50C4EAA
:108330000C004FF0000530600BD0012000F06AF80F
:1083400008B1022004E0002000F064F800B10B2026
:108350002070706810B9FEF736FC0546284670BDDF
:10836000A823002010B5002000F0DCF908B1062891
:1083700006D1012000F0D6F908B1062800D100206E
:1083800010BD00002DE9F0470D468146FFF7BCFF08
:108390000446042836D2DFF874801B481C4EA8F12E
:1083A0000C0725B3012D0ED0022D2BD104EB440078
:1083B00030444578002D25D0B968002922D02846C0
:1083C000BDE8F047084704EB4401755C0E44717842
:1083D00049B10E4A4FF40041093A8068FEF76EFD3C
:1083E00008B987F80390B17808F80410E2E78068CC
:1083F000FEF7A8FD04EB4401314418F804008D7821
:10840000A842D7D0BDE8F087540D0300A423002074
:1084100058280020042801D2FFF7ECBE0020704746
:108420000146104810B50088042907D007290ED04E
:108430000A2915D1BDE8104007F06CBB132176DF87
:108440000CE000280CD0BDE81040FEF7A7BCA0F55A
:108450007F41FF3904D10448FFF7A3F80828F0D181
:1084600010BD000090230020C025002070B500231F
:10847000042810D20D4D00EB4004012A02D101293D
:108480000CD00022094E00EB4000304461B10129BC
:1084900006D0022906D00723184670BD0E30C2B29E
:1084A0002A55F9E74270F7E78270F5E7582800206F
:1084B000044A014600201279D20702D0084600F093
:1084C0004DB870479823002070B506461E4800241A
:1084D000C0E90161B00720D50025012211462846D8
:1084E000FFF7C4FF6D1C0446042D02D2002CF4D00B
:1084F00013E094B940F2666204211448FEF7D0FB01
:1085000004000AD1FEF7BAFB040006D10F48104A56
:108510000021001FFEF796FC0446F00712D0012050
:10852000FFF77CFE74B909480A4A00210C38FEF7AF
:1085300089FC040006D10548074A01210838FEF7E6
:1085400081FC0446204670BD98230020600D030086
:108550000188020059A502006B6C02002DE9F05F52
:108560006E4C054600266078B34618B184F801B019
:1085700001F0DAFF6A4F4FF47A694FF4C87A4FF08E
:108580000108182D69D2DFE805F00C1313384754A1
:10859000696E727B727BC58484848484B3B6B9BCF3
:1085A000C5C501F0C1FF3868FEF7CCFC06465CE0AB
:1085B0000020FFF783FE00284FF0000008D0FFF7EF
:1085C0006DFE022D02D14FF4E16008E0484606E05E
:1085D000FFF76CFE022D01D1C82000E05046410C8F
:1085E000C0034FF4FA72801841F100012570520067
:1085F0000023FDF7F7FE01462AE00020FFF75EFEAC
:1086000000284FF0000004D0FFF748FE4FF44870F8
:10861000E5E7FFF74BFEDFE70020FFF74FFE0028FE
:108620004FF0000002D0FFF739FECFE7FFF73EFE24
:10863000D4E70020FFF742FE00284FF0000002D0F0
:10864000FFF72CFE01E0FFF731FE257041F69A118D
:1086500000223868FEF732FC064646E00020FFF7AD
:1086600007FE257008E0002051E025703DE084F809
:1086700001800120FFF7FCFD002240F6CD41E8E734
:1086800084F801800120FFF7F3FD00224FF48041C0
:10869000DFE77868FEF756FC0646D5F1110000D0FA
:1086A0002EB10220FFF7FAFD84F802B01DE0012888
:1086B00016D980B2C8214843C117C90341EA5041C5
:1086C000C0034FF4FA72801841F1000152000023F8
:1086D000FDF788FE014600227868FEF7EFFB0646AC
:1086E0000220FFF7E3FD84F802803046BDE8F09FEA
:1086F00001F01AFFB9E701F017FFB4E701F014FF2A
:1087000004E001F011FF0020FFF7D0FD0120FFF78A
:10871000CDFDAAE7FFF7EFFDA7E7000098230020B3
:10872000540D0300012108F09DB800002DE9F84325
:108730000546861C00208DF8000090460F464FF03D
:1087400001096846FEF70EFC1B4C20683860D4E92E
:108750000001401AA16804F21C47081A0EE001212A
:10876000384602F020FC02F005F90146384602F0D6
:108770001AFCD4E90001401AA168081A401C86427C
:10878000EDD8B8F1000F03D0052065F3891002E0A1
:10879000062065F39F50A2682168114004EB810117
:1087A000C8602068304420609DF80000FEF7FEFBA2
:1087B0004846BDE8F88300000432002070B50D463D
:1087C00004460A2902D10D21FFF7F8FFA0682268AC
:1087D000411CA1601554D4E90101814204D3204613
:1087E000BDE8704002F0E3BE70BD0000034803C85E
:1087F000814201D1012070470020704704320020DF
:1088000000780221FFF7BEBD032805D10349A92046
:108810000860002003F022BF7047000020050040E0
:108820001CB5044601F0E2FC00236A46092105F06C
:10883000C5F9052805D10348012241792046FFF7F3
:108840009FF81CBDB82300201CB5044600200090F2
:1088500042F6A620ADF8000001208DF8020008487D
:1088600001AA6946006801902046A0DF002805D1D2
:108870000448012281792046FFF782F81CBD0000E0
:10888000800D0300B823002005494FF0FF3208286F
:1088900041F8202002D3084480F858207047000097
:1088A000AC2C0020F0B54FF0FF3512B100230826A4
:1088B00001E008230C260C4C05E000BF54F823709F
:1088C0007F1C04D05B1CB342F8D32846F0BD2618A9
:1088D0005DB286F8305044F82310002AF5D1E11833
:1088E00081F85800F1E70000AC2C00200249084450
:1088F00090F9300070470000AC2C00202DE9F043C7
:108900008146887891B090460C4600B901208DF8D8
:108910003E002088ADF83C0000250095607C69464B
:1089200007F0A2F86E46A07C711C07F09DF8E07B72
:1089300000289DF8020002D040F0080001E020F07D
:1089400008008DF80200217C11B140F0100001E018
:1089500020F010008DF80200217B11B140F00100E1
:1089600001E020F001008DF80200217D09B1022113
:1089700000E0012161F342008DF802001C2102A8F1
:10898000FDF78DFD607BC10601D4800617D50E95DD
:108990000EAFE07C791C07F067F89DF83800079768
:1089A00020F00F00401C20F0F00010308DF838004F
:1089B0009DF83A0020F00600801C8DF83A00607B9C
:1089C0008DF80800A07B8DF80900142109A8FDF797
:1089D00066FD0FA8CDE90906A088ADF83000A068B3
:1089E00020B1E088ADF82C00A0680D90A06998B384
:1089F00001950088ADF81000A06901AD01A940887B
:108A0000ADF81200A069406806950390A069007B4C
:108A100007F02AF8A069691C407B07F025F8A069D7
:108A2000807A00289DF8060002D040F0080001E09E
:108A300020F008008DF80600A169C97A11B140F054
:108A4000100001E020F010008DF80600A169097AFD
:108A500019B140F0010002E00DE020F001008DF8B6
:108A60000600A169897B09B1022100E0012161F3BF
:108A700042008DF80600E06900B10590434609AA5E
:108A800002A94846AADF11B0BDE8F08370B50446DC
:108A90004FF6FF750A462846AC4209D14FF4807460
:108AA0002146104602F03CFA80B2A0420BD070BDC5
:108AB000FF2CFCD82146104602F022FA90F0010F5C
:108AC00001D0204670BD284670BD000070B5084C2E
:108AD000050009D010342168002907D008682060FB
:108AE000496828468847F6E70834F4E770BD000077
:108AF000982C0020054A012120B1012805D1917050
:108B0000FFF7E4BF51700020FAE77047982C00206F
:108B10002DE9F05F26484168F1B3DFF898B00E68A0
:108B20008146DBF8004087688078E11B21F07F45B3
:108B3000ED1CB0B9DFF880804FF48030C8F84403F2
:108B4000C8F804031120FDF7F1FD1120FDF7F9FD30
:108B50004FF0010AC8F800A02F2004F04DF889F862
:108B600002A0B54200D23546124BE8193C3320F042
:108B70007F401860DBF800105A46091B21F07F4146
:108B8000001B20F07F40C91C81420FD9106818607B
:108B90002F2004F031F800E004E0BDE8F05F112080
:108BA000FDF7DABDBDE8F05F06F0A2BBBDE8F09FBF
:108BB000C0240020041501400010014073B58CB0A2
:108BC0000646002000900D9880B100246D46214695
:108BD0000DA802F0CAF930B1009805EB400084807E
:108BE0000098401C0090641C142CF0D32C22694681
:108BF0003046FDF73BFC0EB070BD2DE9F041178803
:108C00000646B81D14460D46984202D90C20BDE810
:108C1000F0813188072206290AD34FF4486C4FF6B9
:108C2000FF73614501D9994202D17088062801D2AB
:108C30001046ECE7604501D99842F9D1994203D03A
:108C4000984201D08142F3D80520E85520881221AE
:108C5000401C80B2208029542088401C80B2208093
:108C60004119308807F09FFC2188084480B2208099
:108C70004119708807F097FC218808442080002063
:108C8000C5E7FEF78BB8000038B54A7A0F4B62B1E2
:108C900000220A725969002906D001228DF80020AD
:108CA000ADF802006846884738BD0A7A62B19B6811
:108CB0004C68024619462046FEF700F90028F3D01A
:108CC000BDE8384006F02EBD5B68F1E7B82800200B
:108CD000F0B587B016460F4604461D4618220B49CC
:108CE0006846FDF7C3FB0A488DF80870ADF80240EE
:108CF000ADF80A608DF80C50017800222046FEF78E
:108D00003FFE684600F0CAFA07B0F0BDF00E03005F
:108D100058240020FDF794BE70B588B006460020A8
:108D200005900690ADF81410ADF816100190029061
:108D300001AA05A9304690DF050021D003F002FF0B
:108D40000346114811493246401AC108012000EB80
:108D5000014004460E4903F0AEFABDF8042012B9F2
:108D6000BDF8060028B1BDF80630204609A103F081
:108D7000A2FABDF808201AB12046164903F094FA69
:108D800008B0284670BD0000742903005C29030068
:108D90006C1603005468652072657175657374659F
:108DA000642054582F5258207061636B6574206C96
:108DB000656E67746820697320746F6F206C6F6EC6
:108DC000672062792025752F2575206F637465747F
:108DD000732E0000B816030070B50446094801213F
:108DE00002F0FCF8BFF35F8F0025002808D1204671
:108DF00001F03AFD002803D1BFF35F8F0148056001
:108E000070BD0000C42300207FB50C4610B10120C6
:108E100004B070BD2079002638B141F61D550128F7
:108E20001BD0022826D00F20F2E7022020710296E4
:108E30000396E0680190694601A806F07DF950B1FB
:108E400002988188E18000882081BDF80010029896
:108E500006F0F0F9DCE70A20DAE70A4B6A4600215F
:108E6000A01D06F025F938B1064918398E61CE618A
:108E70000A28CDD12846CBE702488188019806F020
:108E8000D9F9F5E7EC2400202DE9F0470025DFF8BB
:108E900090803DE06068002100EBC506012032783B
:108EA0009146FDF7D0FAD4E9062300EA020701EA69
:108EB000030C57EA0C0729D082438B434846C4E988
:108EC000062303F057FF32788246914601200021A5
:108ED000FDF7B9FAD4E9042300EA020401EA030722
:108EE0004A4650460021FDF7AEFA44404F403C430D
:108EF0000CD17078012801D0012000E000207268B8
:108F000080EA0A0012B1C1B2484690476D1CEDB22A
:108F100098F8000044468542BCD3BDE8F0870000C5
:108F2000A024002030B40446132176DF03000BD0C8
:108F3000064807492246401AC008022101EB0040BA
:108F400030BC044903F0B7B930BC7047EC290300CA
:108F50005C290300E812030010B50021024802F06A
:108F60003DF880F3100010BD20360020704700004F
:108F70000E4910B50A784C780023A24212D0521C38
:108F8000D2B20A70022A00D10B70084A0B780C3258
:108F900052F8232002608868104420F07F408860E7
:108FA000012010BD0360002010BD0000C02400207F
:108FB00013460A460021FFF78BBE000070B5174824
:108FC0001749401AC508032000EB054015A103F01E
:108FD00067F91E4E3068807E28B1BDE870400621DA
:108FE0000120FEF787BE06F049F9002815D1184880
:108FF000A0F10C010A68011F904704004FF0010026
:1090000002D00F2C03D007E03168887604E000EB33
:109010000540104903F044F9204670BDEC290300D7
:109020005C29030057726974696E67207065657208
:10903000206461746120746F2074686520626F6FB2
:10904000746C6F616465722E2E2E000078240020EF
:10905000582C0020042103002DE9F843104D0F4641
:1090600080461E4691466946286801F012FF0400BA
:1090700014D01C21FDF713FA01202071C4F81490BC
:10908000380BC4F80080C4E902606946286801F022
:1090900021FF05F079FF0020BDE8F8830420FBE7FD
:1090A000F00F030010B503780022072B06D2DFE88B
:1090B00003F005040610202930000A7010BD0123BA
:1090C0000B7003898B818388CB81C06888600A74A8
:1090D00010BD02220A7002898A818288CA81C26810
:1090E0008A60807D062802D00020087410BD01200F
:1090F000FBE703220A70C2888A810289CA81C0689C
:10910000886010BD04230B70C0888881CA818A6082
:1091100010BD0520087010BD70B5064D0646002430
:1091200055F8241009B130468847641C042CF7D345
:1091300070BD0000BC2E002030B50446006887B02A
:109140000D46806800281FD018216846FDF7A7F952
:109150000195A0680590207910B1012810D107E091
:1091600001208DF8000020690290E068039005E07E
:1091700002208DF80000E06800030290606904900E
:10918000206881686846884707B030BD2DE9F04106
:1091900086B016460C00804629D0112C27D0082C0A
:1091A00025D018216846FDF77AF9ADF802804046CF
:1091B00001F01CF8ADF804001B481C490027401AB8
:1091C000C5080D2C16D0204603F0BCFC0246012039
:1091D00000EB05404346164903F06DF807208DF873
:1091E000000002948DF80C70684600F065F806B037
:1091F000BDE8F081022000EB054042460D4903F036
:1092000053F803208DF8000026B13078C00701D054
:10921000012000E002208DF8080041F201108DF8D5
:109220000C70ADF80A00DFE7A42903005C290300F5
:1092300098200300881F030010B50446408800F002
:10924000D5FFA080024801682046BDE810400847CD
:10925000C023002010B50446808800F011FF608014
:10926000024801682046BDE810400847D02300208E
:109270002DE9F04107460024064E074D05E000BFEA
:1092800056F8241038468847641CE8788442F7DB97
:10929000BDE8F081E42B0020E823002010B504464F
:1092A000408800F0A3FFA080024801682046BDE886
:1092B00010400847A40E0300014909680847000050
:1092C000300F030070B586B0044618216846FDF7DC
:1092D000E6F8A0890125A0F54040ADF8040020780B
:1092E000324E062835D2DFE800F0340303032E4E59
:1092F000A08900F093F930B9E08943F6FE71A0F53A
:109300004040884225D8A07B8DF8080020780328AB
:1093100011D000208DF80900A0680390606860B14A
:1093200009208DF80000606804908DF8145068469C
:1093300004F096FB0DE00120ECE708208DF800001A
:109340008DF81050F3E7A08900F068F908B1E089C2
:1093500030B17078002801D004F0CCFC06B070BDAC
:10936000606840B10B208DF80000606802908DF8B5
:109370000C507570DBE70A208DF80000BDF8040082
:1093800004F056FDF5E7606858B114208DF8000030
:10939000606802908DF80C504FF6FF70ADF8040035
:1093A000C5E713208DF80000F6E70000D423002065
:1093B00038B504460E480078A8B1A4F57F40FF38C0
:1093C0000FD0684605F012FD78B10521017001212A
:1093D0000171C480684605F017FD05F0C7FD002047
:1093E00038BD042038BD022038BD082038BD00003B
:1093F000F42400200C4808B5007888B1684605F0D0
:10940000F5FC78B106210170684605F0FDFC0748BF
:10941000017809B10121017305F0A8FD002008BD04
:10942000022008BD082008BDF4240020802F002061
:10943000F0B587B014216846FDF731F82F4C20783D
:1094400018B16846FFF768FE55E0201D01F0A8FD41
:1094500098BB40F6F8700168481C02D14FF010200C
:1094600041694FF08050026940694B1C01D100FBFB
:1094700002F1234800220161A1F54051C160214958
:1094800002F02AFA002822D120481C238C221E49EF
:10949000006801F0EBFC04F075F8050016D0022D11
:1094A00014D000270126062D13D005A805F09EFC38
:1094B00090B106700C2D19D200E01CE0DFE805F039
:1094C000160E160E16151615161012100B2007B0D4
:1094D000F0BD26706760B4E70820F8E7077105E083
:1094E000032100E00221017100E0067105A805F0EA
:1094F0008BFC05F03BFD0020E9E70000F424002090
:109500008C25002000100300CC2E0020680F0300E3
:1095100038B5040014D0694605F00EFEA0B1BDF8C0
:10952000000000EB8001094800EB8100C16849B1EF
:10953000A17A39B1C168491EC1600020A07238BD4E
:10954000052038BD062038BD0A2038BD582F002020
:109550001FB501A9684605F0ABFD04B010BD07B505
:1095600013460A466946002005F0A2FD0EBD07B568
:1095700013460A460021684605F09AFD0EBD20B14B
:1095800019B100680860002070470520704700008E
:10959000F8B50D46040018D0BDB1694605F0CCFD04
:1095A000A8B1BDF800000B4900EB800001EB800082
:1095B00001210C30666801F0F6FC2E6060680C300A
:1095C00068600120A0720020F8BD0520F8BD0A20C7
:1095D000F8BD0000582F002018B10323002207F027
:1095E0008DBA052070470223002207F087BA0000D9
:1095F000084910B50A69042A0AD0074A096942F8DD
:10960000210004480121103001F0CDFC002010BDE4
:109610000C2010BDD4240020BC2E002043F6FE7187
:10962000A0F54040884201D80120704700207047D3
:1096300010B504460078182802D1FEF77DF9207095
:1096400010BD10B504460078182802D1FEF774F951
:10965000207010BD70B50D460446B0F83812D0F831
:1096600034020122FDF7B5FE00B1057004F13C02A1
:1096700004F50D7104F1540072DF70BD70B513462E
:1096800000220546112900D10122074C33B121796E
:10969000FEF776F900226178284600E06178BDE89F
:1096A0007040FEF76DB9000060240020F7B5174642
:1096B0000E0011D00098002560B1002421466846B4
:1096C00001F053FC18B1A0B23946B0476D1C641CC0
:1096D000142CF3D32846FEBD0020FEBD406805F0E3
:1096E000A5BB000070B508B1012070BD194C002564
:1096F000207B08B1257301E000F0A0F8207808284D
:1097000026D2DFE800F02504080C10251420BDE85F
:10971000704000F021B8BDE8704000F07DB8BDE8B1
:10972000704000F05FB8BDE8704000F03BB8608862
:10973000084900EB8000283901EB80004068BDE853
:10974000704003F0FFBE6560BDE8704003F008BFE5
:109750000F2070BD802F00201149F0B48A1C00201A
:109760000346A1F128050C18A67A4EB1A37200EBAE
:10977000800405EB8404E66816B9247C012C0AD029
:10978000401C80B20228EED30B704B804B60F0BCC3
:1097900041F61D5070471080F0BC00F03DB800004D
:1097A000802F00200C48418801EB8102A0F12801A4
:1097B00001EB8201CA6852B10521017007480221FC
:1097C0008180016800230122054801F0E9BF0422DD
:1097D00002704968F6E70000802F0020FC2400207A
:1097E0008C25002038B50A49084803240B684268D4
:1097F000898803EB810153880470DB1C00201B0463
:1098000000909B0B034802F01FF938BD802F002009
:10981000FC2400208C250020074910B54888091D2C
:1098200005F0DAFC18B1BDE81040FFF7DBBFBDE87A
:109830001040FFF7B7BF0000802F0020F0B51F4891
:109840001F490125067802248B88A0F12802082EE2
:1098500019D2DFE806F00418181B222F2F170189F0
:10986000491C01810021418080F80C1001EB81032B
:1098700012F8233043B100234418491C89B2A37263
:109880000229F3D30570F0BD0123F5E74268528841
:10989000D21C1A448A800470F0BD46880D6806EB1D
:1098A000860602EB860256680E60556013818C8036
:1098B000062100E007210170F0BD0000802F00208C
:1098C000FC2400202DE9F043064680883288DFF82A
:1098D0005C8187B00746502A37D010DC5449554B7D
:1098E00006F10A05A1EB03014FEAD1014FF0020393
:1098F00003EB0144352A3AD0362A07D168E0522AD0
:1099000002D0542AF9D102E000F052FF82E018227E
:1099100049496846FCF7AAFDADF80270384600F0E8
:1099200065FCADF8040000F0D3F90022444698F835
:1099300004103846FEF724F80022E1783846FEF796
:109940001FF86846FFF778FC64E0307B012861D19E
:10995000B07A01285ED13089A0F52451023959D15D
:109960000121384600F078FF06F08CFE52E098F8AE
:109970000610FDF7EDFF00284CD0002298F80610E5
:109980003846FDF7FDFFF288B2F5857F17D012B19A
:1099900020462AA10BE02A88012A03D0204636A1BE
:1099A00002F082FC6A88012A04D0204641A102F01C
:1099B0007BFC04E0A98800223846A1DF08B1002121
:1099C00025E0012298F807103846FDF7D9FF21E07D
:1099D0004FF0000998F80710FDF7BAFFD0B1002248
:1099E00098F807103846FDF7CBFFF28812B12046F1
:1099F00012A104E0AA88012A04D020462DA102F079
:109A000053FC03E0A87900B101208146494638465D
:109A100006F01EFB0022364998F80200FDF742FFCF
:109A200007B0BDE8F04305F005BF0000B8230020F3
:109A30005C2903005C290300E40D0300556E657882
:109A40007065637465642047415454207374617475
:109A50007573207768696C652067657474696E67D3
:109A60002043415220636861722076616C75653ACB
:109A700020307825780000004D756C7469706C6535
:109A80002028256429204341522063686172616364
:109A900074657269737469637320666F756E642C84
:109AA000207573696E6720746865206669727374C7
:109AB0002E000000556E6578706563746564204300
:109AC000415220636861726163746572697374697D
:109AD000632076616C7565206C656E6774682028FC
:109AE0002564292C2073746F726520302E000000CD
:109AF000CD70020070B504460078002814D160884B
:109B000000F056FE6588284600F0B2F928B10748F3
:109B10000122C1782846FDF733FF6088FEF780FEFA
:109B2000BDE8704006F0AEBD70BD0000B823002057
:109B300070B5204C00252570FDF7FEFE6070FDF726
:109B4000FBFEA070FDF7F8FEE070FDF7F5FE20715A
:109B5000FDF7F2FE6071FDF7EFFEA071FDF7ECFE80
:109B6000E07162780121182A18D0A278182A15D03D
:109B7000E278182A12D02279182A0FD06279182A8E
:109B80000CD0A279182A09D0182807D004F10C00AB
:109B90000560BFF35F8F2170002070BD0648074A43
:109BA000801AC00801EB0040054902F079FB032050
:109BB00070BD0000B82300205C2903005C2903006D
:109BC0002C1303007CB504460078082837D1607A4E
:109BD00058BB207A1C4E4FF6FF75012811D007287C
:109BE00002D008282BD121E0A08800F049FA0446D1
:109BF000A84224D0012100F02FFE2046FEF710FEDF
:109C00001DE0A0886A46012103F04CFE68B9019866
:109C1000007850B1A08800F033FAA8420FD001229A
:109C2000F178FDF7ADFE05F005FE08E0F0680128CB
:109C300005D1BFF35F8F044900200C310860BDE8F7
:109C40007C4006F01FBD0000B82300202DE9F04144
:109C50008046024601200021FCF7F5FB1A4F05461D
:109C60000E467868FDF76EF900280CD1174CD4E940
:109C7000062110462A4001EA06031A4305D0A843EC
:109C8000B143C4E90601BDE8F081404603F072F833
:109C900030B1D4E9040128433143C4E9040105E0AB
:109CA000D4E90410A943B043C4E90410D4E906017F
:109CB00028433143C4E90601A1687868BDE8F04152
:109CC0000022FDF7FBB80000540F0300A024002081
:109CD0001CB5054AD2E90212CDE9001200226946FC
:109CE00003F0A6FF1CBD0000000E030003484FF662
:109CF000FF7181800121017000207047C82300207E
:109D000010B54FF6FF7003F023FF03498880BDE8CC
:109D1000104005F099BD0000C82300202DE9FC414A
:109D2000804600F063FA002403250127A0F57F4157
:109D30002646FF3908D06A46082103F0B3FD18B95A
:109D40000198841D8688056832462B462146404688
:109D5000B1DF042804D0082804D00B2808D002E082
:109D6000112000E00020002F00D10B20BDE8FC8175
:109D70000027A80701D50125E6E7344303D00024D6
:109D800026460325E0E7064806494246401AC00831
:109D9000012101EB0040044902F086FAE5E70000EA
:109DA000642903005C290300F41503002DE9FC413C
:109DB000804600F01BFAA0F57F410646FF390ED021
:109DC00001252A466D1C0027ADB26B46082130469E
:109DD00003F0B2FD040006D0072C33D033E043F289
:109DE0000200BDE8FC81019903230A1D0B60404677
:109DF000891DB2DF040004D00C2C09D0052C09D039
:109E000009E032460821104603F00EFE04461AE02F
:109E1000012700E000240821304603F0FBFD70B16B
:109E200002F090FE0346094809493246401AC0082C
:109E3000012101EB0040074902F03DFA0324002F05
:109E4000BFD100E00C242046CBE7000064290300CA
:109E50005C2903007415030004488088A0F57F4145
:109E6000FF3901D005F0F0BC70470000C823002086
:109E70000EB502A9019100F0B9F96A46012103F07B
:109E800011FD08B100200EBD019800780EBD000044
:109E90002DE9F04107464FF6FF761048B3DF78B161
:109EA00002F050FE02460E480E49401AC008012139
:109EB00001EB00400C4902F0F7F90320BDE8F08106
:109EC000064C43F20305A41E324661883846AFDFD4
:109ED000A842F3D16088401C6080F5E7CA230020C7
:109EE000642903005C29030028150300428800EB65
:109EF00082020C328A4201D9022070478188A1F582
:109F00007F42FF3A03D0008808B10020704701204B
:109F10007047884204D20068401C01D0012070477D
:109F2000002070473EB5027802230C46B3EB520F77
:109F300017D1B0F80110ADF80010C1788DF80210FB
:109F40008188ADF8041080798DF8060002AA01A975
:109F50002046FCF761FE032202A96846FCF7B1FA2D
:109F600008B100203EBD01203EBD000070B50D4689
:109F70000446142810D2FDF723FD68B1084904EB0C
:109F8000840001EB4000D0F802102960C188A9804C
:109F9000007AA871002070BD43F2020070BD00007D
:109FA0004C29002070B5018892B0102961D1011DA3
:109FB0002C226846FCF75AFA9DF804004FF6FF760B
:109FC00003213446B1EB500F2BD003F0EFFD9DF889
:109FD00004006D4640080ED001280CD0022820D184
:109FE00018E00D99281D1131FCF7C8FD18B100BF0C
:109FF000BDF82C4015E00CAA0BA9072003F0AAFD20
:10A000000028EED10DE00D99281D491CFFF78AFFAD
:10A010000028EDD10CAA0BA9072003F09BFD002816
:10A02000F1D1BDF80000B44200EB8001124820F8E5
:10A03000114000EB41000199C0F80210BDF8081072
:10A04000C1809DF80A10017213D0BDF80000ADF870
:10A050002E000020ADF83040084E8DF82C000BADDE
:10A06000044600BF56F8241028468847641C022C7A
:10A07000F8D312B070BD00004C290020140E03006C
:10A080002DE9F0414FF6FF760546B04213D00B4F55
:10A09000002400BF04EB840037F81000A84206D16A
:10A0A0002046FDF78DFC10B12046BDE8F081641C10
:10A0B000A4B2142CEED33046F7E700004C29002060
:10A0C0003EB50C46054603F071FD0BE0BDF80000FF
:10A0D000A04207D02846029900F00EF810B1BDF852
:10A0E00000003EBD01AA6946072003F033FD0028A9
:10A0F000ECD14FF6FF703EBD2DE9F0410C46054610
:10A1000000F1110701F111061022491C401CFCF757
:10A11000D8F948B9681C00F0F7F928B1601C00F0C4
:10A12000F3F908B1012400E0002431463846FCF779
:10A1300025FD3B780222B2EB530F0CD00321B1EB8B
:10A14000530F08D03378B2EB530F04D0B1EB530F59
:10A1500001D0012100E00021084201D18C4302D04E
:10A160000120BDE8F0810020FBE7018811B9421809
:10A1700092780AB101207047491C0829F7D30020C2
:10A18000704710B50C460346FFF7EFFF00280AD0D2
:10A1900018882188884205D10822A11C981CFCF748
:10A1A00090F908B1002010BD012010BD142804D280
:10A1B000024A00EB800022F8101070474C29002062
:10A1C00070B50546FFF75CFF0446284603F06EFBBA
:10A1D000002808D1142C06D2034B04EB84024FF65E
:10A1E000FF7123F8121070BD4C29002010B50446F1
:10A1F000142808D2FDF7E4FB28B1044904EB8400DD
:10A2000031F8100010BD4FF6FF7010BD4C29002032
:10A210003EB5044603F0CAFC0EE0019920464631E3
:10A22000FFF7AFFF28B9019920462A31FFF7A9FFB0
:10A2300010B1BDF808003EBD6A4602A9072003F030
:10A2400089FC0028E9D14FF6FF703EBD10B50A49E0
:10A2500041600A4800F0A4FE58B902F0FDFB07492E
:10A260001C238C22087404488C39001F006800F0FD
:10A27000FDFD002010BD0000F40F03002C30002075
:10A280002DE9F0412D4F002518B17D600120BDE87A
:10A29000F0810879012258B1294E01280CD0274CB1
:10A2A0004FF002080834022821D0032842D128E0C8
:10A2B0000A7103F055F93BE05FF0000000EB80010C
:10A2C00016F82110022908D0401C80B20228F5D3CC
:10A2D0003A707D6041F61D50D9E700EB800006F82A
:10A2E000205006EB8000406803F02CF920E00D714F
:10A2F000A4F80480002301221248216801F050FADA
:10A3000016E00D71206803F01DF90D49236828310E
:10A31000498801EB810206EB8201D1F804C0C4F840
:10A3200000C04B60A3880B81A4F8048006F822507B
:10A330000028ACD07D600E20A9E70000F4240020A6
:10A34000582F00208C2500200146034802888A42AD
:10A3500000D0002070470000A42800202DE9FC5FF9
:10A360000E008346DDE90C47C6F100009846924690
:10A37000814600D40846012503E000BF90FBFAF0B7
:10A380006D1C5045FADAA84500D9454624B1002E87
:10A3900001DB780700D5641EB80702D5B8F1000FBD
:10A3A0000AD0F80708D13CB1A54205D22021584671
:10A3B000641EFEF703FAF6E7002E02DA4E462D2160
:10A3C00002E0780703D52B215846FEF7F7F907F08E
:10A3D000030002280BD1B8F1000F08D13CB1A5420F
:10A3E00005D230215846641EFEF7E8F9F6E7CDE9BC
:10A3F0000047434652463146584606F0E9F8BDE864
:10A40000FC9F000070B50D46044600684FF488714B
:10A4100002F0B8FB4FF49071206802F0B3FB4FF4E8
:10A420009271206802F0AEFB4FF4A271206802F036
:10A43000A9FB20681149C0F804132068690740F39C
:10A440000730090E002806DA00F00F0000F1E020C6
:10A4500080F8141D03E000F1E02080F8001420686B
:10A46000012140F3073000F01F02914040098000B5
:10A4700000F1E020C0F8001170BD000010030200E0
:10A48000024600201268530713D502F0030001288A
:10A4900002D002280CD105E0C2F383100B68801CA7
:10A4A000184404E00223086803EB92521044086049
:10A4B000012070470248007A002800D00120704730
:10A4C0002C300020F0B58488A518944200D822468C
:10A4D000A41AC288D6189A4200D81346D21A4B88BA
:10A4E0000788BB420CD34088834209D88888A042A1
:10A4F00006D3A84204D8C888904201D3B04201D9FB
:10A500000020F0BD0120F0BD0021425C0AB1012015
:10A510007047491C1029F8D300207047800701D0EC
:10A5200000207047012070470A4810B5807860B15C
:10A53000002401E0022C06D02046FDF7AFFE641C8B
:10A54000042CF7D310BD0324F6E7BDE81040FDF757
:10A55000C9BE00009823002003480179C90702D032
:10A560000078FDF7FBBF704798230020172101807A
:10A5700041800021017141711B218171C1717047BE
:10A580002DE9FE4F2E4F984692460D00814601D090
:10A5900000260DE0684600F03FFC6A460021484670
:10A5A00003F0D8F83878009E10B99DF8090098B1EA
:10A5B00052463146484605F025FC04460146002235
:10A5C0004846FFF75BF80D2C37D008DCA4B3082C05
:10A5D00033D00B2C09D130E00520BDE8FE8F112CC3
:10A5E0001ED0A4F54050023827D0204602F0AAFA27
:10A5F0000246144814494B46401AC008012101EB99
:10A600000040124901F057FE5FF00305B8F1000F5A
:10A6100004D0324621464846FEF7B8FD2846DCE71E
:10A620002A46F9784846FDF7ABF95246B9784846CC
:10A63000FDF7A6F90025E9E7FFE72546E6E7000074
:10A6400060240020A42903005C29030040200300AB
:10A6500070B50E460C49154604460978FDF778F9A1
:10A6600000280FD0204603F01BF800282A46314668
:10A67000204603D0BDE8704003F018B8BDE8704034
:10A68000FEF796BC70BD00005824002070B5094D3F
:10A690000646A978FDF75CF90446E9783046FDF7EF
:10A6A00057F9014622463046BDE870400123FFF7C6
:10A6B00067BF0000602400202DE9F047394E0027D5
:10A6C00080463D46DFF8E090D6F804A057E003D07E
:10A6D0000446D0F81C8035E099F8002002EB4201D6
:10A6E000521CD2B289F8002009EBC10199F802305E
:10A6F000091D9A4201D189F8005048680A78044639
:10A70000012A12D0022A02D0032A3BD108E005F028
:10A7100033FD00B10127257434E00574C06900E001
:10A7200070680028F9D170602CE0207C50BB8868EC
:10A730006060C868A0600869E0604869A061F0785E
:10A7400000B165606268B168184B501A20F07F4014
:10A75000984202D2A168084406E0881AA16820F055
:10A760007F40814202D9081A206000E025606560C0
:10A770000120A56020742046E56105F0DFFCB8F1FA
:10A780000000A4D199F8001099F801008142A3D1EA
:10A7900017B97168514502D00120BDE8F08700204B
:10A7A000FBE70000C0240020882D0020FFFF7F0071
:10A7B000F0B587B00546002718216846FBF76FFE05
:10A7C000A5F57F40ADF80250FF3825D02846FFF7A9
:10A7D000A5FA040022D01B481B49401AC6080B2CBE
:10A7E00022D0112C1ED0A4F5405002380ED02046A5
:10A7F00002F0A8F90246012000EB06402B4613495F
:10A8000001F059FD2146284604F094FF10483A46CD
:10A8100081782846FDF7B4F807B0F0BD0E208DF81A
:10A8200000000BE00127F1E70F208DF80000022067
:10A8300000EB06402A46074901F036FD6846FEF760
:10A84000FBFCE3E75C2903005C290300FC13030025
:10A85000B8230020501403000A4602494978FDF746
:10A860008FB80000B82300202DE9F041002786B002
:10A8700080463E46FFF79AFA040022D0112C22D0DF
:10A880001B481C49401AC508862C1ED0A4F5405010
:10A8900002380ED0204602F055F90246012000EBA6
:10A8A0000540434614A101F006FD2146404604F050
:10A8B00041FF39464046FFF7CFFF06B03046BDE8BE
:10A8C000F0810126F5E70127F3E718221A496846C7
:10A8D000FBF7CCFD0220ADF8028000EB05404246BC
:10A8E00016A101F0E1FC6846FEF7A6FCE1E70000D6
:10A8F0005C2903005C2903006773636D5F6C6F6301
:10A90000616C5F64625F63616368655F75706461F9
:10A91000746528292072657475726E6564202573CC
:10A9200020666F7220636F6E6E5F68616E646C6527
:10A930003A20256400000000B40D0300466C6173EA
:10A94000682066756C6C2E20436F756C64206E6F8A
:10A95000742073746F7265206461746120666F7215
:10A9600020636F6E6E5F68616E646C653A2025646B
:10A97000000000002DE9FF410026234800F00DFBF8
:10A980002148001F074600F008FB204C606800903B
:10A99000A56800E000986946284004EB80000C3070
:10A9A000FFF76EFD0028F5D101AA009901EA050321
:10A9B00004EB8303491CDB6842F82030401C009103
:10A9C0000228F2D3019800F0030001280BD00228DE
:10A9D00010D10198032101EB90500099BDF80A6055
:10A9E00001EB900005E00198BDF80A60C0F3831008
:10A9F00008440090384600F0CDFA08B10098606035
:10AA000004B03046BDE8F0811C360020043200203E
:10AA1000ACB04FF40041002001F0C0FC08B1FCF7DD
:10AA2000BDF901F015FBFDF705F808B1FCF7B6F923
:10AA3000FCF71AFA08B1FCF7B1F901F0C5FD08B14D
:10AA4000FCF7ACF967490320FDF73EFD08B1FCF7C0
:10AA5000A5F969460020FDF769FC08B1FCF79EF9ED
:10AA60009DF8000002287DD05FF0000501F0A8FFEE
:10AA700008B1FCF793F9002469460120009401F025
:10AA80002FFE08B1FCF78AF9684601F0A9FE08B16B
:10AA9000FCF784F903F022FA9DF8080052A120F097
:10AAA0000F00401C20F0F00010308DF8080011223B
:10AAB00002A87CDF08B1FCF771F900945020ADF8D2
:10AAC0000000A0200194ADF80200ADF804404FF45E
:10AAD000C870ADF8060068467ADF08B1FCF75EF989
:10AAE0000021464800F0EFFA08B1FCF757F9AC2115
:10AAF0006846FBF7D4FC02208DF8000001208DF899
:10AB000002000621ADF810008DF803103C480590B6
:10AB10001EA8FCF773F83B48299038486946203056
:10AB2000FCF786FC08B1FCF739F9344801212030E4
:10AB3000FCF77BFC344801A9CDE900402F481430D4
:10AB400000F085FB08B1FCF729F930480090684611
:10AB5000FCF7DEFF08B1FCF721F91C216846FBF782
:10AB60009EFC00E029E04FF42030CDE900404FF496
:10AB70007020029026480590032626488DF80C6028
:10AB80000690ADF80E408DF810406846FCF73CFE8C
:10AB900008B1FCF703F920482049401AC00806EB29
:10ABA000004004461EA101F07BFB65B1204625A1B3
:10ABB00001F076FB04F034F80AE0012556E700BF07
:10ABC000FCF7ECF806E00D4803212030FCF706FD09
:10ABD0000028F5D101F04AFA0028FBD101F01CFD54
:10ABE000F8E70000218402004E6F726469635F42DF
:10ABF0007574746F6E6C657373000000A02500207F
:10AC00009223002095D20200ADC60200497D0200C9
:10AC1000B9D20200838C0200EC2903005C290300F6
:10AC2000427574746F6E6C65737320444655204191
:10AC300070706C69636174696F6E20737461727493
:10AC400065642E00457261736520626F6E647321C6
:10AC50000000000070B5144682880E460546208824
:10AC6000111D0144921C994201D8FE2A01D90C20E1
:10AC700070BD521C32542088FF21401C80B22080BD
:10AC800031542088401C80B220808119288805F02A
:10AC90008AFC2188084480B22080AA8842B1A96831
:10ACA00041B13044FBF7E2FB2088A98808442080AA
:10ACB000002070BD072070BD2DE9F047C5881E1D1E
:10ACC000B6FBF5F78946B6FBF5F1044605FB176CB4
:10ACD000407916686843DDF820A0F718001F874206
:10ACE00000D9C61A166001E02468491E0029FBD16C
:10ACF000A5EB0C078846B74216D818E004EB0C0009
:10AD0000001D09EB0803BAF1000F3A4602D00146D4
:10AD1000184600E01946FBF7A9FB2468F61B4FF024
:10AD2000000CB844B54201D9374600E02F46002E4A
:10AD3000E4D1BDE8F087000030B5024651B101F022
:10AD40004BFB0021074C08E034F821301568AB427A
:10AD500002D11160002030BD491C8142F4D305208E
:10AD600030BD000000000000BFF35F8F00F0FDB8B1
:10AD7000F8B50F46017814460546012901D16878D7
:10AD800030B12088821C9A4232D8012902D006E0D4
:10AD90000720F8BD69780144891C994228D8181AFF
:10ADA000801E86B2ADF800602188B81C0844694650
:10ADB0007DDF0028EDD12978022904D06878BDF81C
:10ADC0000020904205D3BDF80000B04201D8092010
:10ADD0000AE00820012905D16978B14202D8ADF80E
:10ADE000001001E0ADF80060BDF80010FE2901D9A7
:10ADF0000C20F8BD2288491CB9542188491C89B20D
:10AE0000218078542088401C2080BDF80010084420
:10AE100020800020F8BD0000034A00219268C0E9AC
:10AE200000218160704700006024002070B54FF65B
:10AE3000FF750E46A84201D1002000E0401C84B2FC
:10AE400008E02146304600F090F808B1204670BD79
:10AE5000641CA4B2FF2CF4D9284670BD10B5FBF7D2
:10AE600024FA08B1002010BD112010BD10B531B179
:10AE7000B2FBF3F403FB14241CB1092010BD0E2017
:10AE800010BD01600021416081608281C38108465C
:10AE900010BD70B50C460546FBF7BCF9002802D082
:10AEA00021882868084470BD10B50A8849888A42FC
:10AEB00003D1FBF7F1F9012010BD002010BD70B5E2
:10AEC0000C460546FBF7CBF9002802D061882868BC
:10AED000084470BD10B50A8849888A4203D1FBF73F
:10AEE000B5F9012010BD002010BD01F01F030122A3
:10AEF0009A40D243490900EB8100114600F059B84D
:10AF00000A4601F01F030121994010B552090C4671
:10AF100000EB820000F05DF8204000D0012010BD61
:10AF20002DE9F04180460D460024481E012101EB29
:10AF3000501716E058F82400C04390FAA0F0B0FA79
:10AF400080F020280CD200EB4416AE4208D23146E5
:10AF50004046FFF7D5FF0028ECD13046BDE8F08130
:10AF6000641CA742E6D82846F8E74A0950F82200B0
:10AF700001F01F0201219140084000D001207047DC
:10AF800001F01F0301229A40490900EB810011469C
:10AF900000F029B8002100F017B8012100F023B813
:10AFA000012100F016B808B56A46FBF7CAF9009807
:10AFB00008BD08B56A46FBF7AAF9009808BD08B5B0
:10AFC0006A46FBF7BEF908BD08B56A46FBF79FF96C
:10AFD00008BD08B56A46FBF78DF908BD08B56A4695
:10AFE000FBF77CF908BD08B56A46FBF783F90098C2
:10AFF00008BD08B56A46FBF7B1F9009808BD38B539
:10B00000044600258DF800506846FBF7ABFF216829
:10B010006268086890420ED9401E08600178238A51
:10B02000E26801FB0325227A2168101AC0B20A796E
:10B03000824200D208719DF80000FBF7B7FF284656
:10B0400038BD38B5054600208DF800000C4668462E
:10B05000FBF788FFE868298A201AB0FBF1F12A681B
:10B060001068431C136001709DF80000FBF79EFF01
:10B0700038BD10B530B1017A42680368891AC9B287
:10B080001A6006E00E2010BD03681A68541C1C608C
:10B090001170491EC9B2F7D200680021017108463B
:10B0A00010BDC20800F007030120895C98400840E9
:10B0B000704710B5C20800F00703885C01249C406B
:10B0C0002043885410BD10B560B10161172120F8EC
:10B0D000021B20F8021B1B2100F8021BFFF746FA97
:10B0E000002010BD0E2010BDF0B5858893B00C4631
:10B0F000002D39D1018800263F4F24293BD006DCA2
:10B10000102909D011290CD0232958D14FE03A2910
:10B110000BD0552953D129E00146204602F0DAF838
:10B120004DE0A01DFFF722FA49E02246408934F89D
:10B13000061F814200D808466080172800D21720D9
:10B140006080106970B1607960B1D7E90001CDE924
:10B150000301ADF80E506088ADF81000136903A923
:10B16000104698476671267113B0F0BD014620461F
:10B1700002F004F923E0011D2C2206A8FBF776F962
:10B18000BDF81800BDF81C2004EBC0014A73226909
:10B19000AAB1D7E90423CDE90423ADF81200487B16
:10B1A0008DF814002269204604A9904707E0017A2F
:10B1B000207B884200D201462846FDF7ADFDA07AEB
:10B1C0000028D1D0E1882846A5DF012580B11128CB
:10B1D000CAD001F0B7FC02460848094913B0401A2A
:10B1E000C00805EB0040BDE8F04006A101F05CB8E6
:10B1F000A672E572B8E700001C0E03007429030074
:10B200005C29030073645F626C655F6761747463DB
:10B210005F65786368616E67655F6D74755F7265A1
:10B22000717565737428292072657475726E656412
:10B230002025732E0000000020B10278DE2A03D002
:10B24000082070470E20704741800020704760B191
:10B2500059B10278DE2A0AD009684160DE21017006
:10B260004FF6FF714180002070470E207047082084
:10B2700070477FB5054600294DD0002D4BD008788A
:10B280000C46DE2847D1A8886188884202D1204632
:10B2900005F056FA2888012825D002283BD011282D
:10B2A0003AD0512837D135F8040F6188884232D11D
:10B2B000A978A81C02292ED1017A042903D00629D5
:10B2C00001D0052927D10021009102228DF800200C
:10B2D00001914FF4C07202910391ADF80420007AFD
:10B2E00005280FD010E0297A2046012913D1A9881A
:10B2F000428891420FD10121017204B0BDE8704033
:10B3000005F01EBAADF8041028886946B0DF0028A1
:10B3100001D0616888477FBDA88861888842FAD1DA
:10B320004FF6FF7060807FBD00F18040006800280C
:10B3300000D00120704708B500F180400021016075
:10B340000068009008BD000070B540F6F870046811
:10B35000601C02D14FF0102044691248124B4FF08C
:10B360000102A3EB00004FEAD000611C02EB004594
:10B3700012D0032101EB004022460CA100F094FF03
:10B38000204613DF040005D0284613A100F088FFF3
:10B39000204670BD002070BD28461CA100F080FF33
:10B3A000042070BD5C290300EC290300536574740C
:10B3B000696E6720766563746F72207461626C6574
:10B3C00020746F20626F6F746C6F616465723A20D5
:10B3D00030782530387800004661696C65642072E9
:10B3E000756E6E696E672073645F736F66746465F3
:10B3F000766963655F766563746F725F7461626CB2
:10B40000655F626173655F73657400004E6F2062F3
:10B410006F6F746C6F616465722077617320666F03
:10B42000756E640070B50C480C490D4A401AC50889
:10B43000032000EB05400BA100F036FF084813DFA6
:10B44000040007D0012000EB054011A100F028FF07
:10B45000204670BD002070BDEC2903005C2903006C
:10B460000060020053657474696E672076656374CA
:10B470006F72207461626C6520746F206D61696EFB
:10B48000206170703A203078253038780000000054
:10B490004661696C65642072756E6E696E672073B3
:10B4A000645F736F66746465766963655F76656310
:10B4B000746F725F7461626C655F626173655F7304
:10B4C0006574000070B50B4C207808B185250FE03D
:10B4D0000020A06060602061E060074801F06EFB22
:10B4E000054601F0B9FA08B901F052FB01202070BD
:10B4F000284670BD982C0020F58A020038B500253A
:10B500008DF800506846FBF72DFD074CE068401EA3
:10B51000E060E06810B901F061FBA5709DF80000E3
:10B52000FBF744FD38BD0000982C0020F0B505461F
:10B530000478154889B0164640F82420124A086954
:10B540000832A2F10C0742F82400487F3855202227
:10B550006846FAF78BFF04942878385C48B10EB13E
:10B560000A4A00E000226946281D01F0AFFD09B03B
:10B57000F0BD0EB1064A00E00022694605F10C005C
:10B5800001F078FCF3E7000080240020850403002C
:10B59000D10203000FB408B50399002904D004AA0E
:10B5A00000926A4600F00FF801B05DF814FB10B588
:10B5B00082680446002A05D0D4E90403216898472C
:10B5C0000020A06010BD2DE9FC4791460C0080468C
:10B5D00076D014F8011B39B125290ED04046FDF76D
:10B5E000EDF820780028F4D198F80C00002867D0F6
:10B5F0004046BDE8FC47FFF7DABF00200122217872
:10B600002B291BD02D2902D0302908D102E040F08F
:10B61000010001E040F00200641C002AEFD1002587
:10B620002A290ED02178A1F130020A2A11D205EB85
:10B63000850201EB4205641C303DF1E740F0040057
:10B64000EAE7D9F800100B1DC9F800300968641C3E
:10B650000D44217800232E290BD114F8011FA1F1EC
:10B6600030020A2A05D203EB830201EB4203303B8E
:10B67000F3E76C290DD068290BD0692921D00BDCA8
:10B68000252918D0582931D063290ED0642915D125
:10B6900017E014F8011FECE7702969D0732932D044
:10B6A00075291BD0782909D120E0D9F80000011DA7
:10B6B000C9F8001001784046FDF780F8641C90E757
:10B6C0006CE0D9F800100A1DC9F800200968CDE91E
:10B6D00000500A224046FEF741FEEFE7D9F800107D
:10B6E0000A1DC9F8002009680A2206E0D9F80010EE
:10B6F0000A1DC9F8002009681022CDE90050404613
:10B7000004F066FFDAE7D9F8001000270A1DC9F82F
:10B7100000200E68C00705D112E04046761C7F1C51
:10B72000FDF74CF831780029F7D104E0202140469C
:10B730006D1EFDF743F8BD42C0D9002DF6D1BDE71F
:10B740004EB13046FAF7B6FE074604E020214046E7
:10B750006D1EFDF733F8BD4206D9002DF6D103E08A
:10B760004046761CFDF72AF831780029F8D1A5E784
:10B77000D9F80000011DC9F80010056830214046C5
:10B78000FDF71CF878214046FDF718F80820002145
:10B79000CDE90001034610222946B0E7BDE8FC8749
:10B7A0002DE9F843884605002C482D499946A0EB21
:10B7B00001004FEAD0004FF00101164601EB0044B2
:10B7C00024D0286800282CD0002E34D06968404648
:10B7D0004FF010070A68511E11EA080F11D10146F7
:10B7E00072432846FBF7E3F900282ED028684B4621
:10B7F0003246046901B041462846A446BDE8F043FC
:10B8000060472046174B18A2009722E00E200090B8
:10B810002046144B1EA220A100F055FD0E20BDE8CD
:10B82000F8830820009020460E4B26A21AA100F0B3
:10B830004AFD0820F3E7092000902046094B24A286
:10B8400015A100F040FD0920E9E7064B214A2046FA
:10B85000009711A100F037FD1020E0E7DC2903007C
:10B860005C290300DB0F0300616464725F69735F2E
:10B87000706167655F616C69676E656428705F669B
:10B88000732C20706167655F616464722900000039
:10B89000705F667300000000257320636865636B4A
:10B8A000206661696C656420696E202573282920F3
:10B8B000776974682076616C756520307825782EFC
:10B8C00000000000705F66732D3E705F617069005C
:10B8D0006C656E00C421030038B503001148124D99
:10B8E0004FF00E04A0EB05004FEAD0004FF0010529
:10B8F00005EB004009D061B119600C6801B0A446A5
:10B90000BDE83040114618466047084B08A2009435
:10B9100002E0064B08A2009409A100F0D4FC0E201E
:10B9200038BD0000DC2903005C290300900F0300F0
:10B93000705F667300000000705F61706900000056
:10B94000257320636865636B206661696C6564209C
:10B95000696E202573282920776974682076616CC8
:10B96000756520307825782E0000000004480121FC
:10B970004174007A08B10020704701207047000030
:10B980002C300020012801D0032808D104490022CE
:10B9900001284A7400D00020087403F097BA704759
:10B9A0002C30002070B50246022801D0032A45D170
:10B9B000234C207A002841D0012833D0022831D1ED
:10B9C00020480023022A006802D0032A2AD11BE063
:10B9D000E360017911B1012924D10DE0D0E90565B9
:10B9E000711B4FF48056B14200D331462944816126
:10B9F0004569A9420ED015E00169491C01614269FF
:10BA000091420FD1237213E0E168491CE1600829DB
:10BA100008D9E3602372022A0AD00D21FDF78CFBBE
:10BA200003F0FAF9607C28B1BDE8704001F01AB863
:10BA30000021F3E7BDE8704003F048BA70BD000094
:10BA40002C300020042500202DE9F84F90468A462E
:10BA50003A493B4A0500A1EB02014FEAD1014FF000
:10BA60000102DDF828901E464FF00E0002EB014463
:10BA70001AD0B8F1000F1CD02868002822D0092065
:10BA8000002E29D069684968B6FBF1F201FB12610A
:10BA9000002926D000902B4B20462BA235A100F088
:10BAA00012FC0920BDE8F88F00902046254B3CA2EF
:10BAB00003E00090234B20463BA22EA100F003FCA4
:10BAC0000E20EFE70820009020461E4B38A229A147
:10BAD00000F0F9FB0820E5E700902046194B37A25B
