:020000040000FA
:1000000030290020F9020000010300000303000072
:1000100005030000070300000903000000000000C2
:100020000000000000000000000000000B030000C2
:100030000D030000000000000F030000110300008A
:100040000906000013030000A509000013030000C7
:100050001303000013030000410400001303000019
:100060001303000013030000130300001303000038
:100070001303000013030000130300001303000028
:1000800013030000610600001303000013030000C7
:100090008506000013030000130300001303000093
:1000A00013030000130300001303000013030000F8
:1000B0001303000013030000000000000000000014
:1000C00013030000130300001303000013030000D8
:1000D00013030000130300001303000000000000DE
:1000E0000000000000000000000000000000000010
:1000F0000000000000000000000000000000000000
:1001000000000000000000000000000000000000EF
:1001100000000000000000000000000000000000DF
:1001200000000000000000000000000000000000CF
:1001300000000000000000000000000000000000BF
:1001400000000000000000000000000000000000AF
:10015000000000000000000000000000000000009F
:10016000000000000000000000000000000000008F
:10017000000000000000000000000000000000007F
:10018000000000000000000000000000000000006F
:10019000000000000000000000000000000000005F
:1001A000000000000000000000000000000000004F
:1001B000000000000000000000000000000000003F
:1001C000000000000000000000000000000000002F
:1001D000000000000000000000000000000000001F
:1001E000000000000000000000000000000000000F
:1001F00000000000000000000000000000000000FF
:10020000DFF80CD000F00AF900480047651A00003A
:100210003029002030B4044654E8000F0D4644E86D
:100220000053002BF8D1156030BC704730B4044641
:1002300054E8000F40EA010544E80053002BF7D1D1
:10024000156030BC704730B4044654E8000F00EA33
:10025000010544E80053002BF7D1156030BC70470E
:1002600030B4044654E8000F80EA010544E8005326
:10027000002BF7D1156030BC704730B4044654E809
:10028000000F00EB010544E80053002BF7D1156087
:1002900030BC704730B4044654E8000FA0EB0105B1
:1002A00044E80053002BF7D1156030BC704770B4A0
:1002B00004464FF0000054E8006F0D68AE4207BFDF
:1002C00044E80023012044E800630E60002B1CBFBB
:1002D0000020F0E770BC704730B4044654E8000FCB
:1002E00088422CBF451A054644E80053002BF5D13F
:1002F000156030BC7047000006488047064800473C
:10030000FEE7FEE7FEE7FEE7FEE7FEE7FEE7FEE7C5
:10031000FEE7FEE789060000010200002DE9F05F1C
:100320000546002092469B46884606468146402464
:100330001BE0284641464746224600F05EF85346F9
:100340005A46C01A914110D311461846224600F071
:1003500016F82D1A67EB01084F46224601200021AE
:1003600000F00DF817EB00094E41201EA4F1010426
:10037000DFDC484631462A464346BDE8F09F202A46
:1003800004DB203A00FA02F1002070479140C2F1EC
:10039000200320FA03F31943904070470048704748
:1003A0006C3E000040EA01039B0703D009E008C946
:1003B000121F08C0042AFAD203E011F8013B00F82A
:1003C000013B521EF9D27047D2B201E000F8012B76
:1003D000491EFBD270470022F6E710B513460A46C5
:1003E00004461946FFF7F0FF204610BD421C10F8E6
:1003F000011B0029FBD1801A7047202A04DB203A18
:1004000021FA02F00021704721FA02F3D040C2F134
:10041000200291400843194670470000064C074DE2
:1004200006E0E06840F0010394E8070098471034C4
:10043000AC42F6D3FFF7E8FE283F0000483F00003B
:100440002DE9F04700268AB0DFF85091B0464FF40E
:100450008075012437460696284601F05FFE38B1C4
:10046000D9F80403204203D0284601F04DFE26436C
:100470002D1D64007F1CADB2082FEDD34FF4BE7468
:10048000204601F04BFE48B1204601F03DFE46F00B
:10049000004606AA0121002001F022FE404D16F080
:1004A000FF0F15D00127002437420DD009EB84013E
:1004B000D1F81005D1F81015C0F3042055F8242008
:1004C000C1F3014102B190477F00641C082CEBD3BB
:1004D000002E5FDA4FF0FF30CDF8108054E028197D
:1004E00010F8507F90F9000027F0C008401C3BD066
:1004F00007A9404601F0BEFB10B34FEA97194046EA
:1005000000F0D2FF55F820701FB1B9F1030F03D0EE
:1005100006E0B9F1030F27D104A9404601F0B2FB70
:100520004FF0A04101EB8800D0F8000706A9C0F306
:10053000014A404601F09EFB18B1BAF1020F03D008
:1005400012E0BAF1030F0FD1B9F1030F08D1BAF1DC
:10055000020F1DD00221404601F0A6FD761CF6B226
:1005600017B149464046B847641C042CB7D3002E47
:1005700010D06A460121002001F0B2FD06990098D2
:10058000884207D006900498002634460790A6E7D4
:100590000321E0E70AB0BDE8F087000000600040FA
:1005A0007001002000F01F020121914040098000ED
:1005B00000F1E020C0F88012704700F01F02012116
:1005C00091404009800000F1E020C0F80011704720
:1005D00000F01F02012191404009800000F1E0205D
:1005E000C0F8001270474907090E002806DA00F02B
:1005F0000F0000F1E02080F8141D704700F1E020AA
:1006000080F800147047000070B54FF480763046D3
:1006100001F042FB114CB50560B1304601F043FBDF
:100620000120C5F80803607920B9012060712168B4
:10063000002088474FF48276304601F02DFB0028D9
:100640000AD0304601F02FFB0220C5F808032168CC
:10065000BDE870400120084770BD00002000002068
:1006600007480021C0F84011C0F84411C0F84811F3
:10067000C0F84C11C0F80011C0F8041103F0FAB82A
:100680000010014003F048B8F0B5B5480023021D42
:100690000178101D01254FF0805406290BD11678E2
:1006A000360708D10678C6F30316032E06D0042EAB
:1006B00004D0052E02D0062907D00EE0B4F824633A
:1006C000A84FC6F304263E6002E01678360704D130
:1006D0000678C6F30316032E02D0062904D00FE0D5
:1006E000A24FA14E7E670EE01678360708D1067835
:1006F000C6F30316032E06D0042E04D0052E02D016
:10070000062907D00EE0D4F84462994FC6F342366A
:100710003E6002E01678360704D10678C6F3031669
:10072000032E02D0062906D011E0924E376827F03A
:10073000807737600EE01678360708D10678C6F362
:100740000316032E06D0042E04D0052E02D006294F
:100750000AD011E04FF08046C6F80C31C6F81031CF
:10076000834E361F336002E01678360704D10678D0
:10077000C6F30316032E02D0062905D00CE07C4FE9
:10078000032664373E600AE01678360704D10678FF
:10079000C6F30316032E02D006290DD014E0764FBF
:1007A00005263E60744E78363560734E08363360E9
:1007B0003F263F1D3E6002E01678360704D10678DA
:1007C000C6F30316052E02D0062957D062E06B4E01
:1007D00036686B4F3E60694E361D36683F1D3E6081
:1007E000664E083636683F1D3E60644E0C363668ED
:1007F0003F1D3E60614E103636683F1D3E605F4EC5
:10080000143636683F1D3E605C4E183636685C4FC5
:1008100020373E60594E1C3636683F1D3E60574EAD
:10082000203636683F1D3E60544E243636683F1DE4
:100830003E60524E283636683F1D3E604F4E2C3685
:1008400036683F1D3E604D4E303636684C4F40375F
:100850003E604A4E343636683F1D3E60474E38365D
:1008600036683F1D3E60454E3C3636683F1D3E6053
:10087000424E403636683F1D3E6002E0167836072D
:1008800008D10678C6F30316032E06D0042E04D032
:10089000052E02D0062907D019E0D4F85812394A9B
:1008A00001F04F01116002E0117809070FD10078C3
:1008B000C0F30310032803D0042801D0052806D173
:1008C00031480168C90702D06FF001010160D4F816
:1008D0003001062808D1D4F83401062804D12B4869
:1008E000016841F48061016022487438016841F474
:1008F00070010160BFF34F8FBFF36F8F4FF0102176
:10090000D1F80002002803DBD1F80402002822DA23
:100910001F4A15601F480468002CFCD01524C1F83C
:1009200000420568002DFCD0C1F80442016800298E
:10093000FCD0136001680029FCD0BFF34F8F0D4835
:10094000F0380168144A01F4E06111430160BFF31B
:100950004F8F00BFFDE7124910480860F0BD00004E
:10096000E00F00F0403501400DF0ADBA00C0074087
:100970003C050040FCED00E010560040040400106F
:1009800020C50040E40E0040000400403C17004039
:1009900004E5014000E401400400FA050090D003A2
:1009A000EC000020014800680047000028000020FB
:1009B00002E008C8121F08C1002AFAD17047704728
:1009C000002001E001C1121F002AFBD17047022064
:1009D00000F024BA70B50024084D05E0686810F8EE
:1009E000340002F0BBF8641C28788442F6D3044833
:1009F0004068BDE8704000F027B9000030000020DA
:100A00005C3D000070B50024064D06E068680121D9
:100A100010F8340002F0C6F8641C28788442F5D33C
:100A2000002070BD30000020F8B515460C46064683
:100A3000052A01D20720F8BD02F0AEF918B902F07C
:100A400075F90028F7D1124900224E600C708D60B4
:100A5000C1E90422C1E906220E4D0DE006EBC400F7
:100A60002968009181788DF8011000780A4A69465A
:100A700002F0EAF80028DED1641EE4B2EED2BDE84E
:100A8000F84004480021054A001D00F061B800004C
:100A9000300000205C3D000099160000A915000000
:100AA00072B601F0D3FD00BF01F01EFC0028FBD19F
:100AB00011481249401AC408012000EB044010A15B
:100AC00001F02AFD11480068C00700D000BE0220D6
:100AD00000EB04400EA101F01FFDBFF34F8F0B4848
:100AE000E43801680E4A01F4E06111430160BFF38C
:100AF0004F8F00BFFDE70000903F0000583F00000F
:100B0000466174616C206572726F7200F0ED00E0F6
:100B100053797374656D207265736574000000000D
:100B20000400FA050EB500210091CDE901106A46D6
:100B300044F20100FFF7B4FF0EBD401A20F07F40E1
:100B4000704700000148006870470000041501402C
:100B5000074B9B7823B12AB120B10068037C1BB1FD
:100B60000820704707207047417442610020704799
:100B70003C02002070B502F0E9FB104800240B2174
:100B8000047044700E4D817014206C602C706C7079
:100B9000FFF708FD06211420FFF725FD1420FFF7BD
:100BA0000CFD0848046006211120FFF71CFD0548D4
:100BB000001F0068A860002070BD00003C020020FB
:100BC00050000020081501402DE9F843DFF870902F
:100BD00099F802305BB350B3052902D20720BDE873
:100BE000F88343691BB3437C012B22D000270446C2
:100BF000002588461646284600F042F8684603F06D
:100C000057F8C0B1012101700E4944600968C0E97C
:100C10000218C0E904769DF8000089F80100002060
:100C200000F030F81420FFF7D3FC2846D7E708205F
:100C3000D5E70F46DBE70425002000F023F8F4E7B2
:100C40003C020020041501400649897839B130B1D1
:100C5000416921B100210174022102F0EBBD08209D
:100C6000704700003C0200200448807818B103213E
:100C7000002002F0DFBD0820704700003C02002089
:100C800000F002B800F008B872B602480168491CCA
:100C9000016070476400002003490868401E086036
:100CA00000D162B670470000640000202DE9F041D9
:100CB000064608680C46411C4FF0A0474FF001055E
:100CC00006D005FA00F1C7F80815206801F0D8F938
:100CD0006068411C02D0002101F0C0F93168A069B0
:100CE000C1F82405607D227D31681043C1F86C0590
:100CF000D4E900123068C0F81425C0F80C15207D26
:100D0000012815D1A068411C02D0002101F0A6F9EC
:100D1000E068411C05D08540C7F80855E06801F03F
:100D2000AFF9D4E902123068C0F80825C0F81015F0
:100D3000BDE8F0812DE9F041064608680C46411CEB
:100D40004FF0A0474FF0010506D005FA00F1C7F8B3
:100D50000815206801F09EF96068411C02D000214E
:100D600001F085F93168A069C1F82405607D217D15
:100D700032680843C2F86C05D4E900123068C0F844
:100D80000C15C0F81425207D012815D1A068411C40
:100D900002D0002101F06BF9E068411C05D08540CC
:100DA000C7F80855E06801F075F9D4E90212306817
:100DB000C0F80825C0F81015BDE8F0810149085CAD
:100DC000704700001E3D00002DE9FC410646C007AB
:100DD0004FF000050ED0104F00240122385D009521
:100DE00000231146019501F0DFF8641C042CF4D3B4
:100DF00000F046F8B0070DD5074E0024361D00223E
:100E0000305D032300951146019501F0CDF8641C77
:100E1000042CF4D3BDE8FC811A3D000007490B5CAB
:100E20004FF0A041D1F804250120984020EA0203A8
:100E3000C1F808351040C1F80C0570471A3D000094
:100E40000249085C012101F040B900001A3D000090
:100E50000249085C002101F038B900001A3D000089
:100E60000649095C4FF0A040D0F80405C84010F0D6
:100E7000010000D0012080F0010070471A3D000001
:100E800010B500242046FFF7DBFF641C042CF9D3C7
:100E900010BD10B500242046FFF7DAFF641C042CB7
:100EA000F9D310BD10B50246064B4FF0FF300021BC
:100EB0005C5C944201D1084610BD491C0429F7D35B
:100EC00010BD00001E3D00002DE9F0470D46814693
:100ED000FFF7E8FF0446042836D2DFF874801B4889
:100EE0001C4EA8F10C0725B3012D0ED0022D2BD1DD
:100EF00004EB440030444578002D25D0B968002922
:100F000022D02846BDE8F047084704EB4401755C51
:100F10000E44717849B10E4A4FF40041093A806895
:100F2000FFF752FE08B987F80390B17808F804106B
:100F3000E2E78068FFF788FE04EB4401314418F8CB
:100F400004008D78A842D7D0BDE8F087243D00008A
:100F50001000002030010020FFF73CBD10B51949FA
:100F6000022000F0BFF808B1FFF7DCFD0C220221DF
:100F7000012000F029F808B1FFF7D4FD0A22002172
:100F8000012000F021F808B1FFF7CCFD002201217B
:100F9000104600F019F808B1FFF7C4FD00210E2239
:100FA000084600F011F808B1FFF7BCFD0922002146
:100FB000022000F009F8002803D0BDE81040FFF738
:100FC000B1BD10BD0D10000070B50023042810D273
:100FD0000D4D00EB4004012A02D101290CD0002262
:100FE000094E00EB4000304461B1012906D00229CE
:100FF00006D00723184670BD0E30C2B22A55F9E755
:101000004270F7E78270F5E73001002070B50646C0
:1010100001F0FCFB19481A49401AC108032000EBF3
:101020000140054617A101F077FA092E24D01B4C88
:101030000A2E1AD001200C2E15D00E2E14D1617854
:1010400021B100206070284615A102E0607028469A
:101050001CA101F061FAA078002805D06078002872
:1010600002D0042004E0207070BD207800B101207F
:10107000BDE8704001F058BC0320F9E7903F000044
:10108000583F0000506F776572206D616E61676533
:101090006D656E742066656400000000000000202D
:1010A00053797374656D206973206E6F7420726557
:1010B00061647920666F722073687574646F776EEF
:1010C0000000000053797374656D206973207265A8
:1010D00061647920666F722073687574646F776ECF
:1010E0000000000070B506461E480024C0E90161FA
:1010F000B00720D50025012211462846FFF764FFDE
:101100006D1C0446042D02D2002CF4D013E094B9D7
:1011100040F2666204211448FFF786FC04000AD1FD
:10112000FFF770FC040006D10F48104A0021001F91
:10113000FFF70EFD0446F00712D00120FFF744FE32
:1011400074B909480A4A00210C38FFF701FD040070
:1011500006D10548074A01210838FFF7F9FC044683
:10116000204670BD04000020303D00003D1400000A
:10117000BD180000CF0900002DE9F05F6E4C054658
:1011800000266078B34618B184F801B000F07EFB09
:101190006A4F4FF47A694FF4C87A4FF00108182D5E
:1011A00069D2DFE805F00C1313384754696E727B7F
:1011B000727BC58484848484B3B6B9BCC5C500F091
:1011C00065FB3868FFF740FD06465CE00020FFF74E
:1011D00047FE00284FF0000008D0FFF731FE022D37
:1011E00002D14FF4E16008E0484606E0FFF730FE28
:1011F000022D01D1C82000E05046410CC0034FF43D
:10120000FA72801841F10001257052000023FFF7A7
:1012100085F801462AE00020FFF722FE00284FF063
:10122000000004D0FFF70CFE4FF44870E5E7FFF72D
:101230000FFEDFE70020FFF713FE00284FF000004D
:1012400002D0FFF7FDFDCFE7FFF702FED4E7002055
:10125000FFF706FE00284FF0000002D0FFF7F0FD78
:1012600001E0FFF7F5FD257041F69A11002238687C
:10127000FFF7AAFC064646E00020FFF7CFFD2570E9
:1012800008E0002051E025703DE084F80180012055
:10129000FFF7C4FD002240F6CD41E8E784F8018065
:1012A0000120FFF7BBFD00224FF48041DFE77868A3
:1012B000FFF7CAFC0646D5F1110000D02EB102207E
:1012C000FFF7BEFD84F802B01DE0012816D980B2F8
:1012D000C8214843C117C90341EA5041C0034FF434
:1012E000FA72801841F1000152000023FFF716F84E
:1012F000014600227868FFF767FC06460220FFF7E8
:10130000A7FD84F802803046BDE8F09F00F0BEFAE9
:10131000B9E700F0BBFAB4E700F0B8FA04E000F077
:10132000B5FA0020FFF794FD0120FFF791FDAAE731
:10133000FFF7AFFDA7E7000004000020243D0000F8
:1013400010B50020FFF79CFC05480078400702D14B
:101350000449012088600020FFF794FC002010BDA4
:101360001054004000500040012102F0B9BC0000C0
:101370002DE9F0470546861C90460F464FF00109BF
:101380000020FFF77DFC1B4C20683860D4E9000189
:10139000401AA16804F21C47081A0EE001213846E1
:1013A00000F000FC00F010FB0146384600F0FAFBAC
:1013B000D4E90001401AA168081A401C8642EDD801
:1013C000B8F1000F03D0052065F3891002E0062074
:1013D00065F39F50A2682168114004EB8101C86049
:1013E0002068304420600020FFF74CFC4846BDE8F0
:1013F000F08700000C05002070B50D4604460A2950
:1014000002D10D21FFF7F8FFA0682268411CA160FE
:101410001554D4E90101814204D32046BDE870404F
:1014200000F0C9BC70BD0000034803C8814201D16F
:1014300001207047002070470C0500200078022131
:10144000FFF742BD05494FF0FF32082841F8202040
:1014500002D3084480F84820704700007001002043
:10146000F0B54FF0FF3512B10023082601E0082344
:101470000C260C4C05E000BF54F823707F1C04D0F0
:101480005B1CB342F8D32846F0BD26185DB286F83F
:10149000305044F82310002AF5D1E11881F84800B3
:1014A000F1E70000700100200249084490F9300083
:1014B000704700007001002070B5084C050009D08D
:1014C00010342168002907D0086820604968284640
:1014D0008847F6E70834F4E770BD00005C0100209F
:1014E000054A012120B1012805D19170FFF7E4BF21
:1014F00051700020FAE770475C0100202DE9F05F91
:1015000026484168F1B3DFF898B00E688146DBF8F1
:10151000004087688078E11B21F07F45ED1CB0B961
:10152000DFF880804FF48030C8F84403C8F8040323
:101530001120FFF737F81120FFF73FF84FF0010AAD
:10154000C8F800A02F2001F001FB89F802A0B542E5
:1015500000D23546124BE8193C3320F07F4018602A
:10156000DBF800105A46091B21F07F41001B20F0D8
:101570007F40C91C81420FD9106818602F2001F0EC
:10158000E5FA00E004E0BDE8F05F1120FFF720B8C5
:10159000BDE8F05F01F0DABEBDE8F09F500000202A
:1015A00004150140001001402DE9F0470025DFF847
:1015B00090803DE06068002100EBC5060120327894
:1015C0009146FEF7DCFED4E9062300EA020701EAB1
:1015D000030C57EA0C0729D082438B434846C4E9E1
:1015E000062301F099FB32788246914601200021C2
:1015F000FEF7C5FED4E9042300EA020401EA03076A
:101600004A4650460021FEF7BAFE44404F403C4354
:101610000CD17078012801D0012000E00020726810
:1016200080EA0A0012B1C1B2484690476D1CEDB283
:1016300098F8000044468542BCD3BDE8F08700001E
:101640003000002010B50021024800F0B6FA80F307
:10165000100010BD280900200E4910B50A784C78FA
:101660000023A24212D0521CD2B20A70022A00D128
:101670000B70084A0B780C3252F8232002608868FD
:10168000104420F07F408860012010BD03600020DE
:1016900010BD0000500000202DE9F04180460246B8
:1016A00001200021FEF76BFE1A4F05460E467868B2
:1016B000FFF7CAFA00280CD1174CD4E906211046CE
:1016C0002A4001EA06031A4305D0A843B143C4E9FE
:1016D0000601BDE8F081404601F01EFB30B1D4E9BF
:1016E000040128433143C4E9040105E0D4E90410AE
:1016F000A943B043C4E90410D4E9060128433143A7
:10170000C4E90601A1687868BDE8F0410022FFF74E
:101710005BBA00005C3D0000300000202DE9FC5F5A
:101720000E008346DDE90C47C6F10000984692465C
:10173000814600D40846012503E000BF90FBFAF083
:101740006D1C5045FADAA84500D9454624B1002E53
:1017500001DB780700D5641EB80702D5B8F1000F89
:101760000AD0F80708D13CB1A54205D2202158463D
:10177000641EFFF741FEF6E7002E02DA4E462D21E9
:1017800002E0780703D52B215846FFF735FE07F016
:10179000030002280BD1B8F1000F08D13CB1A542DB
:1017A00005D230215846641EFFF726FEF6E7CDE944
:1017B0000047434652463146584602F01FFABDE8FC
:1017C000FC9F000070B50D46044600684FF4887118
:1017D00001F069F94FF49071206801F064F94FF459
:1017E0009271206801F05FF94FF4A271206801F056
:1017F0005AF920681149C0F804132068690740F3BA
:101800000730090E002806DA00F00F0000F1E02092
:1018100080F8141D03E000F1E02080F80014206837
:10182000012140F3073000F01F0291404009800081
:1018300000F1E020C0F8001170BD000010030200AC
:10184000024600201268530713D502F00300012856
:1018500002D002280CD105E0C2F383100B68801C73
:10186000184404E00223086803EB92521044086015
:10187000012070470268134602E08A4204D01268D1
:10188000002AFAD10B600160704700000A4810B5C9
:10189000807860B1002401E0022C06D02046FFF7DA
:1018A000CFFA641C042CF7D310BD0324F6E7BDE87F
:1018B0001040FFF7E5BA000004000020034801795A
:1018C000C90702D00078FFF757BC7047040000201A
:1018D0002DE9F047394E002780463D46DFF8E0907D
:1018E000D6F804A057E003D00446D0F81C8035E0B9
:1018F00099F8002002EB4201521CD2B289F8002074
:1019000009EBC10199F80230091D9A4201D189F809
:10191000005048680A780446012A12D0022A02D0F0
:10192000032A3BD108E001F055FF00B101272574DF
:1019300034E00574C06900E070680028F9D1706077
:101940002CE0207C50BB88686060C868A060086993
:10195000E0604869A061F07800B165606268B168D4
:10196000184B501A20F07F40984202D2A1680844D8
:1019700006E0881AA16820F07F40814202D9081A47
:10198000206000E0256065600120A560207420468D
:10199000E56101F001FFB8F10000A4D199F8001051
:1019A00099F801008142A3D117B97168514502D05D
:1019B0000120BDE8F0870020FBE700005000002078
:1019C0003C020020FFFF7F002DE9FF410026234855
:1019D00000F0E5F82148001F074600F0E0F8204C31
:1019E00060680090A56800E000986946284004EB14
:1019F00080000C30FFF724FF0028F5D101AA0099E0
:101A000001EA050304EB8303491CDB6842F820303C
:101A1000401C00910228F2D3019800F00300012835
:101A20000BD0022810D10198032101EB90500099AE
:101A3000BDF80A6001EB900005E00198BDF80A606E
:101A4000C0F3831008440090384600F0A5F808B1B0
:101A50000098606004B03046BDE8F08124090020A1
:101A60000C0500204FF40041002000F0B9FD08B142
:101A7000FFF758F800F02AFC12481349401AC00832
:101A8000032101EB004011A100F046FD00F014F924
:101A900008B1FFF747F8002000F028F9FFF76AF8CF
:101AA00008B1FFF73FF8FFF759FA00F0C9FE08B197
:101AB000FFF738F800F018FC0028FBD100F006FF13
:101AC000F8E70000903F0000583F0000506F776536
:101AD00072204D616E6167656D656E742065786119
:101AE0006D706C65000000002DE9F047C5881E1D73
:101AF000B6FBF5F78946B6FBF5F1044605FB176C16
:101B0000407916686843DDF820A0F718001F874267
:101B100000D9C61A166001E02468491E0029FBD1CD
:101B2000A5EB0C078846B74216D818E004EB0C006A
:101B3000001D09EB0803BAF1000F3A4602D0014636
:101B4000184600E01946FEF72DFC2468F61B4FF0FE
:101B5000000CB844B54201D9374600E02F46002EAC
:101B6000E4D1BDE8F087000030B5024651B100F085
:101B700055FD0021074C08E034F821301568AB42D0
:101B800002D11160002030BD491C8142F4D30520F0
:101B900030BD000000000000002100F009B8012164
:101BA00000F010B808B56A46FEF767FB009808BD5C
:101BB00008B56A46FEF747FB08BD08B56A46FEF75A
:101BC00029FB08BD08B56A46FEF730FB009808BD42
:101BD00008B56A46FEF75EFB009808BD70B504467E
:101BE00000252846FFF74CF8216862680868904293
:101BF0000ED9401E08600178238AE26801FB0325A4
:101C0000227A2168101AC0B20A79824200D2087181
:101C10000020FFF737F8284670BD70B505460C4622
:101C20000020FFF72DF8E868298A201AB0FBF1F1AF
:101C30002A681068431C13600170BDE870400020E2
:101C4000FFF720B810B530B1017A42680368891AED
:101C5000C9B21A6006E00E2010BD03681A68541C51
:101C60001C601170491EC9B2F7D2006800210171D1
:101C7000084610BDC20800F007030120895C9840A7
:101C80000840704710B5C20800F00703885C0124C3
:101C90009C402043885410BD00F18040006800281B
:101CA00000D00120704708B500F18040002101609C
:101CB0000068009008BD000070B50A4C207808B19B
:101CC00085250CE00020A06060602061E06006488F
:101CD00000F006FF054600F0EDFE012020702846CA
:101CE00070BD00005C010020E114000070B5104DD3
:101CF0000446A87838B114B16168012088470020F3
:101D0000FEF7BEFF0CE00020FEF7BAFF24B1084842
:101D100021461030FFF7AEFDE86808B900F0F0FE8C
:101D2000E868401CE860BDE870400020FEF7AABFEC
:101D30005C010020F0B505460478154889B01646C8
:101D400040F82420124A0869121DA2F1080742F83F
:101D50002400487F385520226846FEF723FB049470
:101D60002878385C48B10EB10A4A00E00022694682
:101D7000281D01F079F909B0F0BD0EB1064A00E066
:101D80000022694605F10C0001F042F8F3E700007B
:101D900018000020D93A0000253900000FB408B51A
:101DA0000399002904D004AA00926A4600F00FF8B3
:101DB00001B05DF814FB10B582680446002A05D016
:101DC000D4E90403216898470020A06010BD2DE9E4
:101DD000FC4791460C00804676D014F8011B39B1BF
:101DE00025290ED04046FFF707FB20780028F4D1C4
:101DF00098F80C00002867D04046BDE8FC47FFF784
:101E0000DABF0020012221782B291BD02D2902D0F6
:101E1000302908D102E040F0010001E040F002006A
:101E2000641C002AEFD100252A290ED02178A1F1C7
:101E300030020A2A11D205EB850201EB4205641C2F
:101E4000303DF1E740F00400EAE7D9F800100B1D3F
:101E5000C9F800300968641C0D44217800232E293C
:101E60000BD114F8011FA1F130020A2A05D203EBAD
:101E7000830201EB4203303BF3E76C290DD0682964
:101E80000BD0692921D00BDC252918D0582931D055
:101E900063290ED0642915D117E014F8011FECE76F
:101EA000702969D0732932D075291BD0782909D1BE
:101EB00020E0D9F80000011DC9F800100178404663
:101EC000FFF79AFA641C90E76CE0D9F800100A1D3D
:101ED000C9F800200968CDE900500A224046FFF702
:101EE0001DFCEFE7D9F800100A1DC9F800200968A9
:101EF0000A2206E0D9F800100A1DC9F80020096876
:101F00001022CDE90050404601F078FEDAE7D9F81A
:101F1000001000270A1DC9F800200E68C00705D16F
:101F200012E04046761C7F1CFFF766FA31780029E4
:101F3000F7D104E0202140466D1EFFF75DFABD4257
:101F4000C0D9002DF6D1BDE74EB13046FEF74EFAAE
:101F5000074604E0202140466D1EFFF74DFABD42C2
:101F600006D9002DF6D103E04046761CFFF744FA6F
:101F700031780029F8D1A5E7D9F80000011DC9F88A
:101F80000010056830214046FFF736FA78214046B8
:101F9000FFF732FA08200021CDE9000103461022A4
:101FA0002946B0E7BDE8FC8770B541EA4201DDE9AA
:101FB00004564FF0A04441EA830141EA052104EBB5
:101FC000800041EA0641C0F8001770BD70B541EAD3
:101FD0004201DDE904564FF0A04441EA830141EAA1
:101FE000052104EB800041EA0641C0F8001770BDEE
:101FF00070B541EA4201DDE904564FF0A04441EAE0
:10200000830141EA052104EB800041EA0641C0F862
:10201000001770BD70B541EA4201DDE904564FF08A
:10202000A04441EA830141EA052104EB800041EA32
:102030000641C0F8001770BD1CB5002100910B4689
:1020400001220191FFF7D4FF1CBD1CB500210091B6
:102050000B4601220191FFF7DDFF1CBD1CB50022DC
:102060000B46009211460192FFF7C2FF1CBD1CB542
:1020700000220B46009211460192FFF7CBFF1CBDD8
:102080001CB5002100910B46012201911146FFF77A
:10209000AFFF1CBD1CB5002100910B460122019130
:1020A0001146FFF7B7FF1CBD4FF0A04202EB8000C6
:1020B000D0F8002722F44032C0F80027D0F80027DB
:1020C00042EA0141C0F80017704701224FF0A043D7
:1020D000824011B1C3F808257047C3F80C2570473A
:1020E00018B5084B6C4601441B68009306E000BF1E
:1020F00054F82030D3F81035401C08C28142F7D87C
:1021000018BD0000503D0000034908B508440021F7
:1021100001600068009008BD00600040024940581E
:10212000012800D0002070470060004030B5154AFB
:1021300001460020D2F8104423460AE0DB681D79EE
:10214000854205D1401C0A28F6DB4FF0FF3030BD38
:102150001B68002BF2D1431CF9D0CB681871D2F860
:10216000103443B1DB68CC681B682360D2F81024BC
:10217000D268116030BDC2F81014C96800220A602C
:1021800030BD00000C050020F0B595B01C4615468A
:102190000F4608461A9E00F013FB182109A8FEF707
:1021A0001AF90E96CDE909540023082203A93846EE
:1021B00000F01BFB05980690BDF81000ADF81C0060
:1021C000BDF81200ADF81E0000208DF82100039824
:1021D000082600F00300012802D0022818D032E0BF
:1021E00003983346850AC0F3C2008DF82000039897
:1021F0000FA9C0F38314A200384600F0F6FA09A82C
:10220000009006AB22460FA9284600F035FA1AE0E6
:102210000398840DC0F3C2008DF82000082C01D271
:10222000254600E0082533462A460FA9384600F027
:10223000DCFA2E44641B09AB06AA29460FA800F05D
:1022400077F9002CEAD1384600F0C0FA15B0F0BD9D
:102250007047012001F084BB084810B50178084A96
:10226000515C19B1001D00F08BFF02E00C3000F052
:1022700099FEBDE81040002001F072BB80000020F4
:102280001400002008B5034A00924023024AFFF7D9
:102290007BFF08BDE9330000740300200A4A0129CE
:1022A00002EBC00007D0022907D0032907D0042978
:1022B00007D0002070470220704704207047007943
:1022C0007047407970470000583F000010B5FFF795
:1022D000C0FF04210348FFF729FF02490120C96814
:1022E000487110BD483F00002DE9F0478CB0FFF762
:1022F0009BF818B100200CB0BDE8F0877D4C0020A1
:10230000C4F81804BFF34F8F60680290A5684FF0BF
:102310000008284004EB80000CE000BFD4F818044B
:1023200070B921680298814201D86160E2E72840D3
:1023300004EB80000C3002A9FFF782FA0028EDD1EF
:10234000002003AA029901EA050304EB8303491C58
:10235000DB6842F82030401C02910228F2D3039837
:1023600000F00300022802D001284DD0A7E0039816
:102370005022810D8946B2EB905F00D850210E4665
:1023800066F39F50039008315B4800F0D0F90700D6
:1023900078D000F015FA4346082203A9384600F029
:1023A0002CFA029908F1080A2940681A8000001DD9
:1023B000864222D94F4D0C3530B1C2B204EB8101B7
:1023C000301A90460C3104E02946F2B200259046BE
:1023D0002846C6B25346384600F00FFA0AEB080307
:1023E00025B132462946384600F007FA029909F12C
:1023F000030001EB900002903BE004EB81015346A7
:10240000324638460C31EFE70398C0F383100628B4
:1024100000D30620039960F38911C1F38310801C57
:1024200003918100344800F082F9070047D000F0A2
:10243000C7F94346082203A9384600F0DEF908F13F
:10244000080800260FE00298434600EA0501401CF8
:1024500004EB81010290042238460C3100F0CDF9E2
:1024600008F10408761C0398C0F38310B042EAD840
:1024700047B1D4F81054D4F8180478B1384600F0B5
:10248000A5F931E01BE0E8684079012804D12A6809
:102490002846394612689047E8680568002DF2D151
:1024A000384600F093F90020FEF7EAFBD4F8180450
:1024B00008B9029860600020FEF7E4FB14E0D4F84D
:1024C000104405E02168204689688847E068046870
:1024D000002CF7D109480A49401AC008022101EB33
:1024E000004008A100F018F8FEF79EFF80F0010000
:1024F00001E700000C050020983F0000903F00001D
:10250000583F00004261636B656E647320666C75B2
:10251000736865640000000000231A4601F0B6B835
:1025200008B5012300926A4601F0B0F808BD00002A
:102530002DE9F0470E4680461C469246082940D8B1
:1025400094F80C90002020731946104600F0A6FE67
:102550000025B54206D218F805201BA12046FFF73A
:102560001DFC03E01AA12046FFF718FC6D1C082D86
:10257000EFD318A12046FFF711FC0025B54212D277
:1025800018F805707E2F08D8FDF708FF0068C05DB9
:1025900010F03E0F01D03A4600E02E220EA1204658
:1025A000FFF7FCFB03E00DA12046FFF7F7FB6D1CD6
:1025B000082DE3D301222146504600F051FE84F855
:1025C0000C90BDE8F0870000202530327800000034
:1025D000202020007C000000256300002000000077
:1025E0000B4810B5FF218160002101604160C0F8F7
:1025F0001814C0F8141480F82014064800F0E4F809
:10260000002803D1044800F003FA002010BD0000A8
:102610000C050020983F0000DC3D00000248034903
:10262000401AC00870470000983F0000583F000063
:1026300013B56846FFF798FA08B100201CBD0248A0
:10264000009950F831001CBD583F000070B5094892
:102650000125D0F8104480F8205407E0E068457167
:102660002168204649688847E0680468002CF5D155
:1026700070BD00000C0500202DE9FF4781460C9D30
:1026800000200C462F7B287398461646294618468C
:1026900000F004FE072E42D2DFE806F004090F1610
:1026A0001F2A360049462846FFF778FB37E049469F
:1026B00028462268FFF772FB31E0D4E9002349463F
:1026C0002846FFF76BFB2AE0A0680090D4E90023BE
:1026D00049462846FFF762FB21E0D4E90201CDE933
:1026E0000001D4E9002349462846FFF757FB16E0CE
:1026F00004F1080007C88DE80700D4E90023494623
:102700002846FFF74BFB0AE004F108000FC88DE8EC
:102710000F00D4E9002349462846FFF73FFB00227B
:102720002946404600F09CFD2F73BDE8FF872DE948
:10273000F041058A80462D1F4819C01CB0FBF5F0FA
:10274000C6B24046FFF74AFA041E19D00020207195
:1027500001206071E58000272546761EC4F80080C0
:102760000BE04046FFF73AFA60B16179491C6171AC
:10277000286005467F1CC0F80080B742F1D3204690
:10278000BDE8F081204600F002F80020F8E72DE9CE
:10279000F041457901466B1E002201E00968521C98
:1027A0009A42FBD30F680146002605E038460C68C4
:1027B000FFF733FA2146761CAE42F7D3BDE8F0812D
:1027C0000121001DFFF7EEB9FFF73CBA10B5044632
:1027D0000121001DFFF7FCF910F0FF0F04D1204686
:1027E000BDE81040FFF7D3BF10BD1CB50192012218
:1027F000009201AAFFF778F91CBD1CB501920022D6
:10280000009201AAFFF770F91CBD000007480849B3
:1028100010B5401AC008042101EB004005A1FFF7E4
:102820007BFE06490020888010BD0000883F000024
:10283000583F000046656564000000006800002005
:1028400019481A4970B5401AC008032101EB00402D
:1028500017A1FFF761FE184D002405F108006C7008
:102860000460BFF35F8F1549154800F0DFF8154885
:10287000016841F010010160AC80EC600F482C61F0
:10288000AC70114A0121001FFEF762F9002809D13E
:102890000A480022001F4FF400410068BDE8704064
:1028A000FEF792B970BD0000883F0000583F00005D
:1028B000496E69740000000068000020A43D00001B
:1028C0006803002010ED00E09929000010B50020F9
:1028D000FEF7D6F9F1EE100A20F09F00E1EE100AA3
:1028E000BFF35F8F0E494020C1F880020020FEF741
:1028F000C9F90020FEF7C4F9FEF724F9044620BF09
:1029000040BF20BFFEF71EF92146FEF716F9054924
:10291000CA681044C860BDE810400020FEF7B2B994
:1029200004E000E06800002070B504461248012170
:10293000FFF743F9BFF35F8F002500280BD101217A
:102940000D4E042C0AD0A6F10800427822B100BF37
:10295000BFF35F8F356070BD047041700748084950
:102960002246401AC008032101EB004005A1FFF7F1
:10297000D7FD00F0E9FDEBE770000020883F000084
:10298000583F000053687574646F776E20726571EC
:10299000756573742025640070B5FEF7D3F8154C87
:1029A00006462169FEF7C9F8E1686422411A5143DD
:1029B000B1FBF0F0C5B2104810492A46401AC008D1
:1029C000032101EB00400EA1FFF7AAFDA078A84269
:1029D00000D2A5700020C4E90306A088032802D213
:1029E000401CA08070BD60780028FBD1BDE870401D
:1029F000FFF79ABF68000020883F0000583F0000A2
:102A00004350552055736167653A2025752525008B
:102A100082680021916082681161826851618268D8
:102A2000D160826851608068016070470160096808
:102A30004160AFF3008010B5D0E90021536899429E
:102A400001D1002104E0D1E90034A34202D01946AB
:102A5000816010BD08314160F0E7816800290BD02A
:102A6000026892680A44826041684B689A4203D1C6
:102A700008314160FFF7DFBF70474058002800D0A1
:102A80000120704708B5002242504058009008BD10
:102A9000D0F80403084000D00120704740580028B7
:102AA00000D00120704708B50022425040580090E5
:102AB00008BD000008480068012110F0010F06D190
:102AC0004FF0E020C02280F80024C0F80011034934
:102AD000012008607047000000E100E01805004098
:102AE0000649024600200B790BB1852070470A6029
:102AF00001220A7100224A71704700002000002064
:102B000070B54FF48270FFF7CEF802204107C1F88C
:102B100004030B4B196841F0807018600948026883
:102B200042F00104046044684FF40A554668361BBD
:102B3000AE42FBD30260196003490120086070BDFA
:102B4000FCED00E0001000E008000040002802D08A
:102B50000149800108477047713D000010B50446E7
:102B600000F066FB28B12046BDE810400021FFF7C9
:102B70009BBA204600F068FB00280FD02046FEF7E5
:102B800093FC074A02EB8001D1F8103523F00103D2
:102B9000C1F8103501218140C2F8081310BD0000B2
:102BA000006000402DE9F0418846054600F040FBFA
:102BB000234E002828461AD0FEF776FC304490F8C1
:102BC00048008009032802D001280ED007E04FF00A
:102BD000A040D0F81005E84010F0010F05D0032107
:102BE0002846BDE8F041FFF75FBA0221F8E700F0A0
:102BF0002BFB002822D02846FEF756FC04464FF453
:102C0000807000EB84000F4F81B207EB8400D0F896
:102C1000102542F00102C0F810250846FFF774FAAB
:102C2000B8F1000F0AD02846FEF73EFC56F8200007
:102C3000002803D00120A040C7F80403BDE8F081BC
:102C400070010020006000402DE9FC41DFF8BC80ED
:102C5000044608EB0400002790F930001346C01723
:102C60000E46401C01D008274CE0B0781946C0F34E
:102C700040022046FEF7F4FB0546401C41D0B078E8
:102C8000410719D4C0070AD04FF0A04000EB8401DF
:102C9000D1F8000720F00200C1F8000707E000218A
:102CA0007378204600910A460191FFF78FF9174982
:102CB00020465431FEF7E6FFB078800718D5144857
:102CC000317800EB8500D0F81025124B1A40C0F87F
:102CD00010254FF4F8524FF4403302EA042203EA7D
:102CE00001410A43D0F810150A43C0F8102509E045
:102CF00008EB0500327810F8481F41EA8211017094
:102D000000E004273846BDE8FC8100007001002087
:102D100000600040FFE0FCFF4FF0A041D1F810152B
:102D2000C14011F0010000D00120704770B5174D6F
:102D300095F8580008B1082070BD0020411E2A18DF
:102D4000401CC0B282F830102028F8D3002420465E
:102D5000FEF778FB641CE4B20C2CF8D300240C4979
:102D6000C0206C6581F8000401264020891FC1F84D
:102D700000014FF4BE70FFF7C7F90649F007C1F82C
:102D8000040385F85860204670BD000070010020E3
:102D900006E000E000600040034890F8580000287A
:102DA00000D0012070470000700100200121B1EB2C
:102DB000507F01D1012070470020704770B50D464B
:102DC00000F0B8FA04000FD00020FDF759FF207979
:102DD00020B10020FDF756FF112070BD01202560B5
:102DE00020710020FDF74EFF002070BD10B500F0EF
:102DF000A1FA002802D000210160017110BD00007D
:102E00000149024800F0D4BDCC0100200020004060
:102E10002DE9F0410546007916460F4600EB4001CA
:102E20002C4A01EBC00102EB810494F82A1011B185
:102E30000820BDE8F081284951F820102868FFF7E4
:102E4000BDFF08B11120F4E739462846FDF72EFFF3
:102E500066603869206030004FF001062DD03F7F5A
:102E60004FF48E712868FFF70DFE4FF4A2712868A9
:102E7000FFF708FE28681949C0F8041328684FEACC
:102E8000471140F30730002806DA00F00F0000F188
:102E9000E02080F8141D03E000F1E02080F8001429
:102EA000286840F3073000F01F0106FA01F14009DD
:102EB000800000F1E020C0F8001128680421C0F86B
:102EC00000150020A061E06184F8290044F8140F87
:102ED000A675AEE7CC010020543D00008000020042
:102EE0002DE9F047054600790B4600EB400101EB68
:102EF000C000234901EB8004284600F043F810B1DC
:102F00001120BDE8F0874FF00008C4F82080A360CE
:102F1000626184F828804FF48E76474631462868EF
:102F2000FFF7B0FD28684FF00109C0F8089021466E
:102F3000286800F0D9FC606800BBD5F800A00EE05E
:102F400094F8280008B10F2716E031465046FFF7E5
:102F500094FD0028F4D02146504600F0C5FC216ABB
:102F600060698142F1D331462868FFF786FD002869
:102F7000F9D02868C0F80C90C4F814803846C0E72F
:102F8000CC010020007900EB400101EBC0000449B6
:102F900001EB80004069002800D00120704700004C
:102FA000CC0100202DE9F047044600794FF00009DC
:102FB00000EB400101EBC000254901EB80072068D0
:102FC000C0F80095786880B120682249C0F80813DD
:102FD0002068012140F3073000F01F0291404009B2
:102FE000800000F1E020C0F880112068D0F80C25A6
:102FF000D0F81485D0F80865D0F810554FF0FF319F
:10300000C0F81415C0F80C152068C0F80815C0F8F1
:103010001015501C02D01046FFF70EF8B8F1FF3F14
:1030200002D04046FFF708F8681C02D02846FFF798
:1030300003F8701C02D03046FEF7FEFF2068FFF751
:10304000D5FE87F82A90C7F80490BDE8F087000005
:10305000CC010020840202000149024800F054BD66
:10306000F8010020002000402DE9F04105461646F9
:1030700000790F46154A00EBC00102EB810494F879
:10308000201011B10820BDE8F081114951F820103D
:103090002868FFF793FE08B11120F4E73946284667
:1030A000FDF748FE6660386920601EB1397F28460A
:1030B000FEF788FB28680821C0F800150020A061F1
:1030C000E0616061012184F82010DCE7F801002054
:1030D000583D00002DE9F04704460E46007920498E
:1030E00000EBC00001EB800517463046FFF75EFE9F
:1030F00030B1204600F036F820B11120BDE8F0874D
:103100001020FBE76F61AE604FF4907600273146E8
:103110002068FFF7C8FC4FF4AC7841462068FFF701
:10312000C2FC2068AA686969C0F84425C0F848153F
:10313000206801218160686878B9B14649462068F5
:10314000FFF7ACFC064641462068FFF7A7FC0643A4
:10315000F4D000B10F27002068613846CEE70000A8
:10316000F80100200079054900EBC00001EB800068
:103170004069002800D0012070470000F8010020BD
:103180002DE9F04704460079274900EBC00001EB28
:10319000800720684FF00009C0F80095786880B17A
:1031A00020682249C0F808132068012140F3073045
:1031B00000F01F0291404009800000F1E020C0F8BB
:1031C00080112068D0F80C25D0F81485D0F8086557
:1031D000D0F810554FF0FF31C0F80C15C0F8141599
:1031E0002068C0F80815C0F81015501C02D0104611
:1031F000FEF72BFFB8F1FF3F02D04046FEF725FF58
:10320000681C02D02846FEF720FF701C02D0304612
:10321000FEF71BFF2068FFF7E9FD87F82090C7F84D
:103220000490BDE8F0870000F801002010030200C0
:103230000449084490F93000082801DB0120704758
:1032400000207047700100200449084490F93000C4
:10325000082801D20120704700207047700100202B
:1032600010B50C46017A052908D0407A38B10848D3
:1032700008A102682046FEF791FD00E01AB106A100
:103280002046FEF78BFD2046BDE81040FEF793BDBB
:10329000C8000020257300000D0A000038B5C3885F
:1032A0000D46044633B114A0009015A216A128467D
:1032B000FEF774FD217A05291CD0607A48B1A088F8
:1032C000FEF7ECFF164951F8202016A12846FEF71C
:1032D00065FDA0880021FFF7ABF903461049207A6D
:1032E000143951F8202001B02846BDE830400EA125
:1032F000FEF754BD38BD00001B5B306D00000000C0
:103300001B5B313B33316D0025734C6F6773206459
:10331000726F70706564202825642925730D0A007A
:10332000C8000020257300003C25733E2025733A19
:10333000200000000349884201D103487047002063
:1033400070470000002000402800002070B50126D2
:1033500070044FF0E0210025C1F88001084C4010B6
:10336000C4F84803C4F8080366602F20FFF7EEFB9B
:10337000A660044C2F20A560FFF7E8FBA57070BD88
:10338000001001405000002070B5054688690C46C9
:1033900000284FF4847128460AD0FFF773FBD5F854
:1033A0001805626AE1688854606A401C606270BDFA
:1033B000FFF768FBD5F8180570BD1FB501238DF820
:1033C0000030CDE90121D0E90012684690471FBDC9
:1033D0001FB501238DF80030CDE90121D0E900129D
:1033E000684690471FBD000070B50D4C0020D2B25A
:1033F0002070201D0B4D0378EB5C1BB1001DFFF707
:1034000069FE02E00C30FFF76BFD08B1FDF78AFBA7
:103410006078002802D021780029FAD070BD000021
:103420007C00002014000020204910B54A780123B8
:1034300072B11F491F4C0322091BC90802EB01424C
:10344000A8B1012807D002281DD0032826D121E0E9
:103450008B70002010BD104617A1FFF75DF8FDF737
:103460007BFD00281AD000BFFDF75CFB16E010467C
:1034700019A1FFF751F8FDF76FFD0120FDF774FF6B
:10348000FDF75EFF0AE003EB01401BA1FFF744F8E4
:103490009020E9E7104624A1FFF73EF8FDF7E4FB92
:1034A00008B1FDF73FFB012010BD00000000002027
:1034B000903F0000583F00004E52465F5057525F09
:1034C0004D474D545F4556545F505245504152450B
:1034D0005F5359534F4646004E52465F5057525F16
:1034E0004D474D545F4556545F50524550415245EB
:1034F0005F57414B45555000456E746572696E6764
:1035000020444655206973206E6F74207375707067
:103510006F727465642062792074686973206578BD
:10352000616D706C652E00004E52465F5057525FC1
:103530004D474D545F4556545F505245504152459A
:103540005F524553455400002DE9F0412548264976
:10355000264E401AC108032000EB01400446327891
:1035600023A1FEF7DDFF294F0CE02968307888475A
:1035700000282A68204623D025A1FEF7D1FF234842
:10358000FFF76BFABD68002DEFD12046B27828A175
:10359000FEF7C6FF20462CA1FEF7BEFFFFF756F848
:1035A000FEF7A2FE0028FBD1307803280DD00228B8
:1035B0000BD02A4901200860BFF34F8F20BFFDE7E1
:1035C000BDE8F04126A1FEF7ABBFBFF34F8F2D48FA
:1035D00001682D4A01F4E06111430160BFF34F8F90
:1035E00000BFFDE7883F0000583F00006800002052
:1035F00053687574646F776E207374617274656458
:103600002E20547970652025640000006803002096
:103610005379734F66662068616E646C6572203002
:103620007825303858203D3E20726561647900006D
:103630004D6178696D756D204350552075736167D4
:10364000653A20257525250053687574646F776E7B
:1036500020636F6D706C6574652E0000000500407E
:103660005379734F66662068616E646C65722030B2
:103670007825303858203D3E20626C6F636B696E50
:10368000670000000CED00E00400FA052DE9F84F9A
:10369000204D9246894606469846012269461846BC
:1036A000AF68FDF765FE58B3009800210446801C02
:1036B00009E000BF00EA07035AF8212005EB830365
:1036C000401C491CDA604145F4D34FEA164AFDF725
:1036D000B9FF4AEA0041601C384005EB80003C40DD
:1036E00005EB8402C160D06866F3C50068F38910F9
:1036F00069F39F2020F00300401C20F00400D060FC
:1037000095F8200402E000BFFEF7EEFD0028FBD193
:10371000BDE8F88F0C0500202DE9F84F1D4C002561
:103720006846D4E901A6FDF797FF002738B30023C8
:10373000009A61681CE0D1F800C00846944503D99E
:10374000ACEB02020A6015E0A2EB0C0263440760D6
:10375000D0F80CC0C1698146BCF1000F08D006EB5F
:10376000030828F07F48C0E9018CC9F81C500546C1
:103770000029E0D128466160FEF7AAF803E0284658
:10378000FEF7A6F810B15046FDF7B8FEE770BDE8A9
:10379000F88F0000500000200D4B10B5596831B172
:1037A00002680C68A24204D8A21A0A60C16158607B
:1037B00010BD0B4603E00B46C969121B21B10C6812
:1037C0009442F8D3A41A0C600260C161D86110BDA4
:1037D000500000202DE9F041144E77683D462C46FC
:1037E00003E0844204D02546E469002CF9D11BE0B3
:1037F000D4B1A5420BD1F869706040B90C490120E1
:1038000088600021B160F0702F20FFF79FF92168D8
:10381000E069E86110B10268114401607068874294
:1038200002D00120BDE8F0810020FBE7500000201D
:1038300000100140F8B5064600240D462046FDF76D
:103840001FFA684600F034FA68B10570084946600E
:103850009DF8000048700020FDF714FA1420FCF7D2
:10386000B7FE2046F8BD04240020FDF70BFAF8E768
:103870003C0200202DE9F041194D6C68002C2CD041
:10388000184800270068A968B846401A20F07F460B
:103890002068B0420CD82146361A0744E469087CF7
:1038A00020B181F81080886949698847002CEFD1E0
:1038B00029786878814206D1401CC0B2687002281D
:1038C00001D185F80180064869780C3040F82170F4
:1038D000BDE8F0411420FCF77BBEBDE8F08100009C
:1038E000500000200415014070B50C4605464FF409
:1038F0008E71FFF7C7F8216AA068415C206A401CFE
:103900002062C5F81C1570BD1FB500228DF800207F
:103910000291816801914261D0E9001268469047A6
:103920001FBD00001FB50A4601788DF800104168E0
:103930000191017A8DF80810C0680390044850F88E
:103940002210001F50F82220684690471FBD00003B
:103950001C00002001490120087070477C000020F5
:1039600010B588B0044620220E496846FCF71AFDBF
:1039700006200090C01F0190029003904FF0EB7062
:1039800006900CB1084A00E0002269460748FEF79D
:10399000D1F908B1FDF7C6F80448001F447008B01B
:1039A00010BD0000BC3D0000553900008000002023
:1039B0002DE9FF470C4605464FF40071FFF768F804
:1039C00001274FF40178002618B34FF49279494645
:1039D0002846FFF752F8E0B149462846FFF752F86B
:1039E000C5F8088394F8290000B96F6002208DF8AB
:1039F0000000D5F88004C5F880040390A069029007
:103A0000E0680190A661E661D4E90012684690473B
:103A100028E004212846FFF73BF818B34FF48471DF
:103A20002846FFF72AF8E8B121462846FFF7ACFC04
:103A3000616AA069884215D1E06938B1E268616ABB
:103A4000A0612069E6616662E06008E094F8290000
:103A500000B96F60C5F80883A661E268616A204614
:103A6000FFF7ABFC4FF48E7841462846FFF705F888
:103A700078B1206A6169884202D294F8280020B3A4
:103A800041462846FEF7FEFF616911B12046FFF767
:103A90003BFF4FF4A27841462846FEF7EEFF002890
:103AA00018D041462846FEF7EDFF94F8290000B1F2
:103AB0002F60A06900280DD0A661E268616A04B099
:103AC0002046BDE8F047FFF778BC21462846FFF7BF
:103AD0000BFFDEE7BDE8FF871FB50A4601788DF8CA
:103AE000001041680191017A8DF80810C0680390B8
:103AF000044850F82210001F50F8222068469047D2
:103B00001FBD00001C0000202DE9FF410C464FF4B2
:103B1000927706463946FEF7C1FF0025B8B139460F
:103B20003046FEF7C0FF02208DF80000D6F8800472
:103B3000C6F880040390D6F83C050290E068019036
:103B4000A561E561D4E900126846904723E04FF48F
:103B5000887739463046FEF7A1FFE0B13946304656
:103B6000FEF7A1FFD6F83C15A069884213D1E069A1
:103B700060B1E268D6F8000220F02000C6F800022A
:103B8000E069A0612069E561E06001E0A561E268AB
:103B90002046FFF71DFC4FF4A27739463046FEF76A
:103BA0007DFF68B139463046FEF77DFFA06938B128
:103BB000A561E561D6F83C152046E268FFF708FCF0
:103BC0004FF4907739463046FEF768FF002812D050
:103BD00039463046FEF767FF606900280BD0D6F8FB
:103BE0004C058DF800500290A06801906561D4E901
:103BF000001268469047BDE8FF8100002DE9F05FA4
:103C00008346DDE90A4A994690460D460846012753
:103C100003E000BFB0FBF8F07F1C4045FAD2B94585
:103C200000D94F465FEACA7012D18CB15FEA8A7040
:103C300002D5B9F1000F01D0202607E0302605E0BB
:103C400031465846641EFDF7D7FB0CB1A742F7D3A7
:103C50005FF00106B9F1010F02D9A9F1010903E0F2
:103C6000B5FBF6F0404502D306FB08F6F2E7DFF8B5
:103C70003C9000BFB5FBF6F000FB165519F800109C
:103C80005846FDF7B9FBB6FBF8F6002EF2D15FEA15
:103C9000CA7009D0002C07D0A74205D2202158466F
:103CA000641EFDF7A9FBF5E7BDE8F09F763D000037
:103CB0000A494A788B78521CD2B2934200D1002232
:103CC0000B78934201D1002070470270487800EBD6
:103CD000400001EBC000001D704700003C020020C6
:103CE00010B5042817D209B1032400E00024FDF721
:103CF00065F84FF0A04101EB8000D0F8001721F4E7
:103D00004031C0F80017D0F8001741EA0441C0F86C
:103D10000017002010BD062010BD111213140D0E47
:103D20000F100000F0000020100100203C010020D6
:103D30000D000300C90E00000E000300C90E0000B4
:103D40000F000300C90E000010000300C90E0000A0
:103D500000000050012E0000593000000300000058
:103D60001C02002000000000000000000000000015
:103D70000338FDD87047303132333435363738396F
:103D80004142434445460000AC3F0000B03F0000C4
:103D90000000000000000000000000000000000023
:103DA00048030020883D0000A03D00000400000002
:103DB000852200005922000051220000FFFFFFFF72
:103DC000FFFFFFFFFFFFFFFFFFFFFFFF00000000FF
:103DD000000000000000D60106010000740400206D
:103DE0007F000000F404002000404040404040407C
:103DF00040404141414141404040404040404040BE
:103E00004040404040404040400502020202020261
:103E100002020202020202020220202020202020B0
:103E200020202002020202020202909090909090C4
:103E30001010101010101010101010101010101082
:103E400010101010020202020202888888888888F6
:103E500008080808080808080808080808080808E2
:103E6000080808080202020240000000E93D0000C4
:103E70007761726E696E6700646562756700000045
:103E80001B5B313B33306D001B5B306D000000006D
:103E90001B5B313B33316D001B5B313B33326D00BB
:103EA0001B5B313B33336D001B5B313B33346D00A7
:103EB0001B5B313B33356D001B5B313B33366D0093
:103EC0001B5B313B33376D00696E666F000000008D
:103ED0006572726F72000000636C6F636B000000AC
:103EE000434C4F434B0000004750494F544500009E
:103EF0005052530055415254000000005541525455
:103F0000450000007077725F6D676D7400000000FF
:103F1000756172745F6C6F675F6261636B656E641D
:103F20000000000061707000B03F00000000002041
:103F3000F0000000B0090000A0400000F0000020E8
:103F400040280000C0090000B03D00000000000053
:103F5000103F000094000020D83E00000000000048
:103F6000E03E000000000000E83E0000000000000D
:103F7000F03E000000000000F43E000000000000E1
:103F8000FC3E000000000000043F000000000404AC
:103F9000243F000000000404A40000209C00002036
:103FA000A4000020B4030020180000002934000001
:103FB0000000000000000000000000000000000001
:103FC00000000000000000000000000000000000F1
:103FD00000000000000000000000000000000000E1
:103FE00000000000000000000000000000000000D1
:103FF00000000000000000000000000000000000C1
:1040000000000000000000000000000000000000B0
:1040100000000000000000000000000000000000A0
:104020000000000000000000000000000000000090
:1040300000000000002000400000000000200040C0
:104040000000000000000000FF0000000000000071
:104050000000000000000000000000000000000060
:104060000000000000000000D03E0000703E000094
:10407000C83E0000783E0000883E0000803E000000
:10408000903E0000983E0000A03E0000A83E0000C8
:10409000B03E0000B83E0000C03E00000090D003DB
:0400000500000201F4
:00000001FF
