:020000040000FA
:1000000080220020150200001D0200001F020000D7
:100010002102000023020000250200000000000071
:1000200000000000000000000000000027020000A7
:1000300029020000000000002B0200002D02000039
:10004000150500002F0200002F0200002F02000003
:100050002F0200002F020000FD0200002F0200000E
:100060002F0200002F0200002F0200002F020000CC
:100070002F0200002F0200002F0200002F020000BC
:10008000710700006D0500002F0200002F02000024
:10009000910500002F0200002F0200002F02000037
:1000A0002F0200002F0200002F0200002F0200008C
:1000B0002F0200002F0200000000000000000000DE
:1000C0002F0200002F0200002F0200002F0200006C
:1000D0002F0200002F0200002F0200002F0200005C
:1000E0002F0200002F0200002F020000000000007D
:1000F000000000002F020000000000002F0200009E
:1001000000000000000000000000000000000000EF
:1001100000000000000000000000000000000000DF
:1001200000000000000000000000000000000000CF
:1001300000000000000000000000000000000000BF
:1001400000000000000000000000000000000000AF
:10015000000000000000000000000000000000009F
:10016000000000000000000000000000000000008F
:10017000000000000000000000000000000000007F
:10018000000000000000000000000000000000006F
:10019000000000000000000000000000000000005F
:1001A000000000000000000000000000000000004F
:1001B000000000000000000000000000000000003F
:1001C000000000000000000000000000000000002F
:1001D000000000000000000000000000000000001F
:1001E000000000000000000000000000000000000F
:1001F00000000000000000000000000000000000FF
:10020000DFF80CD000F068F8004800472D1200001D
:10021000802200200648804706480047FEE7FEE7A8
:10022000FEE7FEE7FEE7FEE7FEE7FEE7FEE7FEE7A6
:1002300095050000010200002DE9F05F0546002051
:1002400092469B4688460646814640241BE0284647
:1002500041464746224600F02FF853465A46C01AF8
:10026000914110D311461846224600F016F82D1A77
:1002700067EB01084F4622460120002100F00DF8EF
:1002800017EB00094E41201EA4F10104DFDC4846B3
:1002900031462A464346BDE8F09F202A04DB203A37
:1002A00000FA02F1002070479140C2F1200320FAC9
:1002B00003F3194390407047202A04DB203A21FAC7
:1002C00002F00021704721FA02F3D040C2F120026F
:1002D0009140084319467047064C074D06E0E06818
:1002E00040F0010394E8070098471034AC42F6D37D
:1002F000FFF78AFF081B0000281B00002DE9F04FC4
:1003000000268DB0DFF8A081B14604964FF48075C9
:10031000012437460596284601F0DAF838B1D8F8B6
:100320000403204203D0284601F0C8F826432D1DBF
:1003300064007F1CADB2082FEDD34FF4BE7420468D
:1003400001F0C6F848B1204601F0B8F846F0004682
:1003500004AA0221002001F09BF8544C16F0FF0F74
:1003600015D00127002537420DD008EB8501D1F8C3
:100370001005D1F81015C0F3052054F82520C1F35D
:10038000014102B190477F006D1C082DEBD3002E78
:100390007EDA0020CDF82890411E0DF1100B07AA3F
:1003A000CDF82C9042F82010401C91460228F9D339
:1003B00000252E46A11911F8607F91F9000027F061
:1003C000C008401C40D007A9404600F07DFF40B364
:1003D0004FEA971A404600F04FFD54F820701FB1C5
:1003E000BAF1030F03D006E0BAF1030F2CD10AA92A
:1003F000404600F071FF02A8CDF8088001F01CF81B
:10040000029900EB8100D0F8000704A9C0F3014075
:100410000290404600F058FF0028029802D00228BF
:1004200002D011E003280FD1BAF1030F08D10298CE
:10043000022833D00221404600F0D8FF6D1CEDB2F7
:1004400017B151464046B847761C042EB2D3002D52
:1004500021D001AA0221002001F01AF800205A46FA
:100460000DF1040152F8206051F82030B34217D04A
:1004700000200AAE4FEA090351F8207042F82070BC
:1004800056F8207043F82070401C0228F4D300E096
:1004900001E0002D8CD10DB0BDE8F08F0321CAE73B
:1004A000401C0228DED3F6E700600040E400002094
:1004B00000F01F02012191404009800000F1E0207E
:1004C000C0F88012704700F01F02012191404009DE
:1004D000800000F1E020C0F80011704700F01F021A
:1004E000012191404009800000F1E020C0F8001295
:1004F00070474907090E002806DA00F00F0000F1E6
:10050000E02080F8141D704700F1E02080F800140E
:100510007047000070B54FF48076304600F0E6FE7C
:10052000114CB50560B1304600F0E7FE0120C5F87A
:100530000803607920B90120607121680020884794
:100540004FF48276304600F0D1FE00280AD03046C3
:1005500000F0D3FE0220C5F808032168BDE8704012
:100560000120084770BD000014000020074800214A
:10057000C0F84011C0F84411C0F84811C0F84C113F
:10058000C0F80011C0F8041101F02CBA00100140AD
:1005900001F07AB930B54FF0805000228300D0F8D6
:1005A0003011C3F80C21C3F81021624B1A60624B62
:1005B0001B68624C2360604B1B1D1B68241D23605D
:1005C0005D4B08331B68241D23605B4B0C331B6899
:1005D000241D2360584B10331B68241D2360564B89
:1005E00014331B68241D2360534B18331B68534C72
:1005F00020342360504B1C331B68241D23604E4B5A
:1006000020331B68241D23604B4B24331B68241D9F
:100610002360494B28331B68241D2360464B2C3331
:100620001B68241D2360444B30331B68434C40340B
:100630002360414B34331B68241D23603E4B383309
:100640001B68241D23603C4B3C331B68241D236026
:10065000394B40331B68241D23600123082902D134
:10066000D0F8344114B1082904D006E0354C34499F
:10067000216005E0D0F8344114B1082904D006E027
:10068000314CFB21216005E0D0F8344114B1082938
:1006900008D00EE090F858422C48016864F303013A
:1006A000016002E0D0F834411CB929494FF40070D0
:1006B000086028480168C90702D06FF00101016095
:1006C0002548016841F470010160BFF34F8FBFF30B
:1006D0006F8F4FF01021D1F80002002803DBD1F812
:1006E0000402002822DA1D4C23601D480368002BF9
:1006F000FCD01223C1F800320568002DFCD0C1F8EF
:10070000043201680029FCD0226001680029FCD075
:10071000BFF34F8F10487C380168124A01F4E06142
:1007200011430160BFF34F8F00BFFDE70F490E4833
:10073000086030BD380500400404001020C50040AA
:10074000488103008C56004018F50040E40E00403C
:10075000409602400004004088ED00E004E50140BE
:1007600000E401400400FA050090D003600000207E
:1007700038B5064C20680025002805D0044840689C
:10078000804725602068009038BD000000010140CE
:100790001C00002002E008C8121F08C1002AFAD17C
:1007A00070477047002001E001C1121F002AFBD1F1
:1007B0007047022000F028B970B50024064D06E00D
:1007C0006868012110F8340000F0C8FE641C287825
:1007D0008442F5D3002070BD28000020F8B51546EE
:1007E0000C460646052A01D20720F8BD00F0ACFFF2
:1007F00018B900F071FF0028F7D1124900224E60AD
:100800000C708D60C1E90422C1E906220E4D0DE095
:1008100006EBC4002968009181788DF801100078FA
:100820000A4A694600F0E6FE0028DED1641EE4B202
:10083000EED2BDE8F84004480021054A001D00F052
:1008400017B8000028000020EC1A00005510000026
:10085000790F000000F012F9FEE70EB500210091BB
:10086000CDE901106A4644F20100FFF7F3FF0EBD27
:10087000074B9B7823B12AB120B10068037C1BB1E0
:10088000082070470720704741744261002070477C
:100890007001002070B500F0D9FF104800240B2132
:1008A000047044700E4D817014206C602C706C705C
:1008B000FFF7FEFD06211420FFF71BFE1420FFF7B3
:1008C00002FE0848046006211120FFF712FE0548C9
:1008D000001F0068A860002070BD000070010020AB
:1008E00048000020081501402DE9F843DFF870901A
:1008F00099F802305BB350B3052902D20720BDE856
:10090000F88343691BB3437C012B22D000270446A4
:10091000002588461646284600F036F8684601F05D
:100920009BF8C0B1012101700E4944600968C0E91B
:100930000218C0E904769DF8000089F80100002043
:1009400000F024F81420FFF7C9FD2846D7E7082057
:10095000D5E70F46DBE70425002000F017F8F4E7A1
:1009600070010020041501400649897839B130B181
:10097000416921B100210174022101F013B808205E
:10098000704700007001002000F002B800F008B8C5
:1009900072B602480168491C016070475C00002083
:1009A00003490868401E086000D162B67047000025
:1009B0005C0000202DE9FC410646C0074FF0000511
:1009C0000ED0104F00240122385D009500231146FF
:1009D000019500F0D9FC641C042CF4D300F04EF80F
:1009E000B0070DD5074E0024361D0022305D0323CD
:1009F00000951146019500F0C7FC641C042CF4D34B
:100A0000BDE8FC81B01A0000094908B5085C0090F7
:100A1000684600F003FDD0F80425009B01219940B1
:100A200021EA0203C0F808351140C0F80C1508BDD2
:100A3000B01A00000249085C012100F016BD000058
:100A4000B01A00000249085C002100F00EBD000051
:100A5000B01A0000084908B5085C0090684600F02C
:100A6000DDFCD0F804050099C84010F0010000D06A
:100A7000012080F0010008BDB01A000010B500246C
:100A80002046FFF7D7FF641C042CF9D310BD10B526
:100A900000242046FFF7D6FF641C042CF9D310BDB8
:100AA00010B50246064B4FF0FF3000215C5C9442CB
:100AB00001D1084610BD491C0429F7D310BD000020
:100AC000B41A00002DE9F0470D468146FFF7E8FF14
:100AD0000446042836D2DFF874801B481C4EA8F167
:100AE0000C0725B3012D0ED0022D2BD104EB4400B1
:100AF00030444578002D25D0B968002922D02846F9
:100B0000BDE8F047084704EB4401755C0E4471787A
:100B100049B10E4A4FF40041093A8068FFF7E4FEFC
:100B200008B987F80390B17808F80410E2E7806804
:100B3000FFF71AFF04EB4401314418F804008D78E4
:100B4000A842D7D0BDE8F087B81A000010000020F6
:100B5000A4000020FFF730BE0E2803D10248007821
:100B600000F01ABE704700000000002070B500239E
:100B7000042810D20D4D00EB4004012A02D10129B6
:100B80000CD00022094E00EB4000304461B1012935
:100B900006D0022906D00723184670BD0E30C2B217
:100BA0002A55F9E74270F7E78270F5E7A4000020C4
:100BB00070B506461E480024C0E90161B00720D583
:100BC0000025012211462846FFF7D0FF6D1C044680
:100BD000042D02D2002CF4D013E094B940F26662E6
:100BE00004211448FFF7FAFD04000AD1FFF7E4FDE1
:100BF000040006D10F48104A0021001FFFF738FEFD
:100C00000446F00712D00120FFF7D4FE74B909485A
:100C10000A4A00210C38FFF72BFE040006D10548D4
:100C2000074A01210838FFF723FE0446204670BD1D
:100C300004000020C41A00000D0E00002111000065
:100C4000B30700002DE9F05F6E4C05460026607882
:100C5000B34618B184F801B000F04AFA6A4F4FF475
:100C60007A694FF4C87A4FF00108182D69D2DFE88D
:100C700005F00C1313384754696E727B727BC58480
:100C800084848484B3B6B9BCC5C500F031FA386831
:100C9000FFF76AFE06465CE00020FFF7DBFE002857
:100CA0004FF0000008D0FFF7C5FE022D02D14FF42F
:100CB000E16008E0484606E0FFF7C4FE022D01D1DE
:100CC000C82000E05046410CC0034FF4FA7280186F
:100CD00041F10001257052000023FFF7ADFA0146F3
:100CE0002AE00020FFF7B6FE00284FF0000004D0F5
:100CF000FFF7A0FE4FF44870E5E7FFF7A3FEDFE73C
:100D00000020FFF7A7FE00284FF0000002D0FFF7F9
:100D100091FECFE7FFF796FED4E70020FFF79AFE9B
:100D200000284FF0000002D0FFF784FE01E0FFF73B
:100D300089FE257041F69A1100223868FFF7D4FD2C
:100D4000064646E00020FFF75FFE257008E0002021
:100D500051E025703DE084F801800120FFF754FE4A
:100D6000002240F6CD41E8E784F801800120FFF73A
:100D70004BFE00224FF48041DFE77868FFF7F4FD77
:100D80000646D5F1110000D02EB10220FFF752FE29
:100D900084F802B01DE0012816D980B2C82148436A
:100DA000C117C90341EA5041C0034FF4FA728018D9
:100DB00041F1000152000023FFF73EFA01460022F4
:100DC0007868FFF791FD06460220FFF73BFE84F8A6
:100DD00002803046BDE8F09F00F08AF9B9E700F0E4
:100DE00087F9B4E700F084F904E000F081F900200D
:100DF000FFF728FE0120FFF725FEAAE7FFF747FED1
:100E0000A7E7000004000020B81A000000780221C3
:100E1000FFF758BE05494FF0FF32082841F820205F
:100E200002D3084480F8582070470000E4000020F6
:100E3000F0B54FF0FF3512B10023082601E008237A
:100E40000C260C4C05E000BF54F823707F1C04D026
:100E50005B1CB342F8D32846F0BD26185DB286F875
:100E6000305044F82310002AF5D1E11881F85800D9
:100E7000F1E70000E40000200249084490F9300046
:100E800070470000E400002070B5084C050009D050
:100E900010342168002907D0086820604968284676
:100EA0008847F6E70834F4E770BD0000D000002062
:100EB000054A012120B1012805D19170FFF7E4BF57
:100EC00051700020FAE77047D00000202DE9F05F54
:100ED00026484168F1B3DFF898B00E688146DBF828
:100EE000004087688078E11B21F07F45ED1CB0B998
:100EF000DFF880804FF48030C8F84403C8F804035A
:100F00001120FFF7D5FA1120FFF7DDFA4FF0010AA3
:100F1000C8F800A02F2000F019FB89F802A0B54204
:100F200000D23546124BE8193C3320F07F40186060
:100F3000DBF800105A46091B21F07F41001B20F00E
:100F40007F40C91C81420FD9106818602F2000F023
:100F5000FDFA00E004E0BDE8F05F1120FFF7BEBA43
:100F6000BDE8F05F00F072BCBDE8F09F48000020D3
:100F700004150140001001402DE9F0470025DFF87D
:100F800090803DE06068002100EBC50601203278CA
:100F90009146FFF782F9D4E9062300EA020701EA45
:100FA000030C57EA0C0729D082438B434846C4E917
:100FB000062300F089FB3278824691460120002109
:100FC000FFF76BF9D4E9042300EA020401EA0307FE
:100FD0004A4650460021FFF760F944404F403C43E9
:100FE0000CD17078012801D0012000E00020726847
:100FF00080EA0A0012B1C1B2484690476D1CEDB2BA
:1010000098F8000044468542BCD3BDE8F087000054
:10101000280000200E4910B50A784C780023A2421F
:1010200012D0521CD2B20A70022A00D10B70084AA8
:101030000B780C3252F8232002608868104420F0AC
:101040007F408860012010BD0360002010BD0000BB
:10105000480000202DE9F041804602460120002191
:10106000FFF71BF91A4F05460E467868FFF77CFC20
:1010700000280CD1174CD4E9062110462A4001EA79
:1010800006031A4305D0A843B143C4E90601BDE8ED
:10109000F081404600F018FB30B1D4E90401284348
:1010A0003143C4E9040105E0D4E90410A943B04385
:1010B000C4E90410D4E9060128433143C4E9060118
:1010C000A1687868BDE8F0410022FFF70DBC000080
:1010D000EC1A0000280000200268134602E08A4251
:1010E00004D01268002AFAD10B600160704700003A
:1010F0000A4810B5807860B1002401E0022C06D0C7
:101100002046FFF797FC641C042CF7D310BD032482
:10111000F6E7BDE81040FFF7B1BC00000400002076
:1011200003480179C90702D00078FFF78BBD7047EB
:10113000040000202DE9F047394E002780463D4647
:10114000DFF8E090D6F804A057E003D00446D0F8CA
:101150001C8035E099F8002002EB4201521CD2B20B
:1011600089F8002009EBC10199F80230091D9A4263
:1011700001D189F8005048680A780446012A12D043
:10118000022A02D0032A3BD108E000F0DBFB00B1C9
:101190000127257434E00574C06900E070680028F8
:1011A000F9D170602CE0207C50BB88686060C86812
:1011B000A0600869E0604869A061F07800B16560EE
:1011C0006268B168184B501A20F07F40984202D2F2
:1011D000A168084406E0881AA16820F07F40814297
:1011E00002D9081A206000E0256065600120A56032
:1011F00020742046E56100F087FBB8F10000A4D11F
:1012000099F8001099F801008142A3D117B97168CB
:10121000514502D00120BDE8F0870020FBE7000027
:101220004800002070010020FFFF7F000EB500F095
:101230006DF808B1FFF711FB002000F081F8FFF70F
:1012400029FB08B1FFF709FB1B490220FFF7B0FC9F
:1012500008B1FFF702FB0120FFF7ACFB174A07CAF2
:101260008DE807006846164900F0B0FA08B1FFF7AC
:10127000F4FA144800F072FA08B1FFF7EEFA00F041
:1012800097FA0E4D0024143D4FF47A47C826691C86
:1012900038468847761EFAD12046FFF7D3FB641CF8
:1012A000042CF3D3FFF756FC08B1FFF7D6FA40BF82
:1012B00020BF20BFFBE70000590B0000A41A00006C
:1012C000891A000000000020C20800F00703012076
:1012D000895C98400840704710B5C20800F00703C9
:1012E000885C01249C402043885410BD00F180405C
:1012F0000068002800D00120704708B500F1804048
:10130000002101600068009008BD000070B50A4C23
:10131000207808B185250CE00020A0606060206185
:10132000E060064800F0F2F8054600F0D9F8012028
:101330002070284670BD0000D0000020B10E0000D3
:1013400070B5104D0446A87838B114B16168012019
:1013500088470020FFF718FB0CE00020FFF714FB84
:1013600024B1084821461030FFF7B6FEE86808B9F6
:1013700000F0DCF8E868401CE860BDE87040002040
:10138000FFF704BBD00000202DE9FF411C46DDE93A
:101390000A7815460E46684600F040F846EA4501D0
:1013A00041EA840141EA072242EA0841009A00EB3F
:1013B0008200C0F80017BDE8FF812DE9FF411C46FF
:1013C000DDE90A7815460E46684600F035F846EA2B
:1013D000450141EA840141EA072242EA0841009AB4
:1013E00000EB8200C0F80017BDE8FF8113B50C4682
:1013F000684600F021F8009900EB8101D1F8002740
:1014000022F44032C1F80027009900EB8100D0F8A7
:10141000001741EA0441C0F800171CBD01682029EB
:1014200002D24FF0A040704701F01F010160014857
:1014300070470000000300500168202902D24FF0DD
:10144000A040704701F01F01016001487047000093
:101450000003005001B56846FFF7EEFFD0F8100515
:101460000099C84000F0010008BD38B50124009083
:10147000684631B1FFF7D2FF00998C40C0F80845AB
:1014800038BDFFF7CBFF00998C40C0F80C4538BD44
:101490001CB5094C0144D4E90034CDE900346C4654
:1014A00006E000BF54F82030D3F81035401C08C2C5
:1014B0008142F7D81CBD0000E41A0000034908B5BA
:1014C0000844002101600068009008BD00600040F1
:1014D00002494058012800D00020704700600040B9
:1014E00008480068012110F0010F06D14FF0E020FC
:1014F000C02280F80024C0F80011034901200860D0
:101500007047000000E100E018050040064902466F
:1015100000200B790BB1852070470A6001220A7107
:1015200000224A71704700001400002010B54FF4EB
:101530008270FFF7E2FE02204107C1F8040302496E
:101540000120086010BD000008000040002802D003
:101550000149800108477047011B00002DE9F04157
:101560000E46804600F05AF9204D0028404616D01D
:10157000FFF782FC284490F858008009032802D025
:1015800001280AD003E04046FFF764FF28B1032199
:101590004046BDE8F041FFF729BF0221F8E700F01F
:1015A00049F9002820D04046FFF766FC0446104F5A
:1015B0004FF4807007EB840100EB8400D1F8102514
:1015C00080B242F00102C1F81025FFF777FF002E2C
:1015D0000AD04046FFF750FC55F82000002803D001
:1015E0000120A040C7F80403BDE8F081E40000201A
:1015F000006000402DE9FC41DFF8C080044608EBA4
:101600000400002790F930001346C0170E46401C16
:1016100001D008274FE0B0781946C0F340022046B9
:10162000FFF706FC0546401C44D0B07841071CD4A7
:10163000C0070DD068460094FFF7FEFE009900EB4E
:101640008100D0F8001721F00201C0F8001707E070
:1016500000217378204600910A460191FFF7ADFE04
:10166000164920466431FFF737FEB078800718D559
:101670001348317800EB8500D0F81025114B1A4043
:10168000C0F810254FF47C524FF4403302EA042294
:1016900003EA01410A43D0F810150A43C0F81025A7
:1016A00009E008EB0500327810F8581F41EA821172
:1016B000017000E004273846BDE8FC81E40000200A
:1016C00000600040FFC0FCFF10B5FFF7C3FE00281C
:1016D00000D0012010BD000070B5184D95F86A00CB
:1016E00008B1082070BD0020411E2A18401CC0B25D
:1016F00082F830103028F8D300242046FFF78AFB08
:10170000641CE4B20C2CF8D30C490024C0204C66B5
:10171000A1F868400A4981F8000401264020891F89
:10172000C1F800014FF4BE70FFF7C8FE0549F0078D
:10173000C1F8040385F86A60204670BDE40000200B
:1017400006E000E000600040034890F86A000028CE
:1017500000D0012070470000E400002010B50446CE
:101760000020FFF711F90A4A517808290AD221709E
:10177000481C50700748026801238B401A430260DE
:10178000002400E004240020FFF700F9204610BDEB
:101790001C00002008050140044A034902EB8000B8
:1017A000C0F80016704700003546526E0000014038
:1017B00004490120C1F804030860034902200870AD
:1017C00070470000000001401C000020104A5160DA
:1017D000117809B108207047012111700D4A017874
:1017E000116041684FF47A72C903B1FBF2F1094A02
:1017F000083A1160007A0849400181F800044FF06E
:10180000E0224FF480310020C2F800117047000040
:101810001C0000200C05014010E000E004490844D1
:1018200090F93000082801DB012070470020704744
:10183000E40000200449084490F93000082801D24F
:101840000120704700207047E400002070B5012699
:1018500070044FF0E0210025C1F88001084C4010D1
:10186000C4F84803C4F8080366602F20FFF76EFE33
:10187000A660044C2F20A560FFF768FEA57070BD20
:1018800000100140480000202DE9F84F1D4C0025B4
:101890006846D4E901A6FFF7BDFB002738B3002353
:1018A000009A61681CE0D1F800C00846944503D94D
:1018B000ACEB02020A6015E0A2EB0C026344076085
:1018C000D0F80CC0C1698146BCF1000F08D006EB0E
:1018D000030828F07F48C0E9018CC9F81C50054670
:1018E0000029E0D128466160FFF724FC03E0284688
:1018F000FFF720FC10B15046FFF7E8FAE770BDE8AB
:10190000F88F0000480000200D4B10B5596831B128
:1019100002680C68A24204D8A21A0A60C161586029
:1019200010BD0B4603E00B46C969121B21B10C68C0
:101930009442F8D3A41A0C600260C161D86110BD52
:10194000480000202DE9F041144E77683D462C46B2
:1019500003E0844204D02546E469002CF9D11BE061
:10196000D4B1A5420BD1F869706040B90C4901208F
:1019700088600021B160F0702F20FFF7E7FD21683B
:10198000E069E86110B10268114401607068874243
:1019900002D00120BDE8F0810020FBE748000020D4
:1019A00000100140F8B5064600240D462046FEF71B
:1019B000EBFF684600F050F868B1057008494660D2
:1019C0009DF8000048700020FEF7E0FF1420FEF7AD
:1019D00085FD2046F8BD04240020FEF7D7FFF8E778
:1019E000700100202DE9F041194D6C68002C2CD0BD
:1019F000184800270068A968B846401A20F07F46BA
:101A00002068B0420CD82146361A0744E469087CA5
:101A100020B181F81080886949698847002CEFD18E
:101A200029786878814206D1401CC0B268700228CB
:101A300001D185F80180064869780C3040F82170A2
:101A4000BDE8F0411420FEF749BDBDE8F08100007B
:101A500048000020041501400A494A788B78521C3E
:101A6000D2B2934200D100220B78934201D10020E0
:101A700070470270487800EB400001EBC000001D89
:101A80007047000070010020FEF7F8BF0000000062
:101A90000338FDD87047000001000000D0070000A7
:101AA0000600000001000000D00700000600000052
:101AB0000D0E0F100B0C181964000020840000207C
:101AC000B00000200B000300C50A00000C0003005A
:101AD000C50A000018000300C50A00001900030031
:101AE000C50A000000000050000300500300000081
:101AF0005001002000000000000000000000000075
:101B00000338FDD870470000281B000000000020AB
:101B100064000000940700008C1B0000640000209B
:101B20001C220000A40700000000000000000000CC
:101B300000000000000000000000000000000000A5
:101B40000000000000000000000000000000000095
:101B50000000000000000000000000000000000085
:101B60000000000000000000000000000000000075
:101B70000000000000000000000000000000000065
:0C1B800000000000000000000090D003F6
:0400000500000201F4
:00000001FF
