:020000040000FA
:1000000070220020150200001D0200001F020000E7
:100010002102000023020000250200000000000071
:1000200000000000000000000000000027020000A7
:1000300029020000000000002B0200002D02000039
:10004000C50400002F0200002F0200002F02000054
:100050002F0200002F020000FD0200002F0200000E
:100060002F0200002F0200002F0200002F020000CC
:100070002F0200002F0200002F0200002F020000BC
:10008000610800001D0500002F0200002F02000083
:10009000410500002F0200002F0200002F02000087
:1000A0002F0200002F0200002F0200002F0200008C
:1000B0002F0200002F0200000000000000000000DE
:1000C0002F0200002F0200002F0200002F0200006C
:1000D0002F0200002F0200002F020000000000008D
:1000E0000000000000000000000000000000000010
:1000F0000000000000000000000000000000000000
:1001000000000000000000000000000000000000EF
:1001100000000000000000000000000000000000DF
:1001200000000000000000000000000000000000CF
:1001300000000000000000000000000000000000BF
:1001400000000000000000000000000000000000AF
:10015000000000000000000000000000000000009F
:10016000000000000000000000000000000000008F
:10017000000000000000000000000000000000007F
:10018000000000000000000000000000000000006F
:10019000000000000000000000000000000000005F
:1001A000000000000000000000000000000000004F
:1001B000000000000000000000000000000000003F
:1001C000000000000000000000000000000000002F
:1001D000000000000000000000000000000000001F
:1001E000000000000000000000000000000000000F
:1001F00000000000000000000000000000000000FF
:10020000DFF80CD000F068F8004800470D1300003C
:10021000702200200648804706480047FEE7FEE7B8
:10022000FEE7FEE7FEE7FEE7FEE7FEE7FEE7FEE7A6
:1002300045050000010200002DE9F05F05460020A1
:1002400092469B4688460646814640241BE0284647
:1002500041464746224600F02FF853465A46C01AF8
:10026000914110D311461846224600F016F82D1A77
:1002700067EB01084F4622460120002100F00DF8EF
:1002800017EB00094E41201EA4F10104DFDC4846B3
:1002900031462A464346BDE8F09F202A04DB203A37
:1002A00000FA02F1002070479140C2F1200320FAC9
:1002B00003F3194390407047202A04DB203A21FAC7
:1002C00002F00021704721FA02F3D040C2F120026F
:1002D0009140084319467047064C074D06E0E06818
:1002E00040F0010394E8070098471034AC42F6D37D
:1002F000FFF78AFF881B0000A81B00002DE9F047CC
:1003000000268AB0DFF85091B0464FF48075012482
:1003100037460696284601F005F938B1D9F80403A6
:10032000204203D0284601F0F3F826432D1D640037
:100330007F1CADB2082FEDD34FF4BE74204601F000
:10034000F1F848B1204601F0E3F846F0004606AA6D
:100350000121002001F0C8F8404D16F0FF0F15D024
:100360000127002437420DD009EB8401D1F8100594
:10037000D1F81015C0F3042055F82420C1F3014131
:1003800002B190477F00641C082CEBD3002E5FDA8B
:100390004FF0FF30CDF8108054E0281910F8507F4E
:1003A00090F9000027F0C008401C3BD007A9404648
:1003B00000F0FAFF10B34FEA9719404600F0CCFD69
:1003C00055F820701FB1B9F1030F03D006E0B9F161
:1003D000030F27D104A9404600F0EEFF4FF0A041E3
:1003E00001EB8800D0F8000706A9C0F3014A404697
:1003F00000F0DAFF18B1BAF1020F03D012E0BAF13F
:10040000030F0FD1B9F1030F08D1BAF1020F1DD0BC
:100410000221404601F04CF8761CF6B217B149466D
:100420004046B847641C042CB7D3002E10D06A464F
:100430000121002001F058F806990098884207D061
:1004400006900498002634460790A6E70321E0E7CB
:100450000AB0BDE8F087000000600040E400002022
:1004600000F01F02012191404009800000F1E020CE
:10047000C0F88012704700F01F020121914040092E
:10048000800000F1E020C0F80011704700F01F026A
:10049000012191404009800000F1E020C0F80012E5
:1004A00070474907090E002806DA00F00F0000F136
:1004B000E02080F8141D704700F1E02080F800145F
:1004C0007047000070B54FF48076304600F07EFF34
:1004D000114CB50560B1304600F07FFF0120C5F832
:1004E0000803607920B901206071216800208847E5
:1004F0004FF48276304600F069FF00280AD030467B
:1005000000F06BFF0220C5F808032168BDE87040C9
:100510000120084770BD000014000020074800219A
:10052000C0F84011C0F84411C0F84811C0F84C118F
:10053000C0F80011C0F8041101F098BA0010014091
:1005400001F0E6B9F0B5B5480023021D0178101D91
:1005500001254FF0805406290BD11678360708D1B3
:100560000678C6F30316032E06D0042E04D0052EFB
:1005700002D0062907D00EE0B4F82463A84FC6F3D2
:1005800004263E6002E01678360704D10678C6F3EA
:100590000316032E02D0062904D00FE0A24FA14E6D
:1005A0007E670EE01678360708D10678C6F3031684
:1005B000032E06D0042E04D0052E02D0062907D023
:1005C0000EE0D4F84462994FC6F342363E6002E032
:1005D0001678360704D10678C6F30316032E02D028
:1005E000062906D011E0924E376827F080773760F1
:1005F0000EE01678360708D10678C6F30316032EE8
:1006000006D0042E04D0052E02D006290AD011E00F
:100610004FF08046C6F80C31C6F81031834E361FB5
:10062000336002E01678360704D10678C6F3031665
:10063000032E02D0062905D00CE07C4F0326643738
:100640003E600AE01678360704D10678C6F3031632
:10065000032E02D006290DD014E0764F05263E6009
:10066000744E78363560734E083633603F263F1D32
:100670003E6002E01678360704D10678C6F303160A
:10068000052E02D0062957D062E06B4E36686B4FBC
:100690003E60694E361D36683F1D3E60664E083628
:1006A00036683F1D3E60644E0C3636683F1D3E6026
:1006B000614E103636683F1D3E605F4E1436366818
:1006C0003F1D3E605C4E183636685C4F20373E60FA
:1006D000594E1C3636683F1D3E60574E20363668F0
:1006E0003F1D3E60544E243636683F1D3E60524EDC
:1006F000283636683F1D3E604F4E2C3636683F1D0B
:100700003E604D4E303636684C4F40373E604A4E64
:10071000343636683F1D3E60474E383636683F1DDA
:100720003E60454E3C3636683F1D3E60424E403688
:1007300036683F1D3E6002E01678360708D106781D
:10074000C6F30316032E06D0042E04D0052E02D0C5
:10075000062907D019E0D4F85812394A01F04F01A0
:10076000116002E0117809070FD10078C0F303107F
:10077000032803D0042801D0052806D13148016898
:10078000C90702D06FF001010160D4F830010628DA
:1007900008D1D4F83401062804D12B48016841F46B
:1007A0008061016022487438016841F47001016081
:1007B000BFF34F8FBFF36F8F4FF01021D1F80002BE
:1007C000002803DBD1F80402002822DA1F4A156052
:1007D0001F480468002CFCD01524C1F800420568AD
:1007E000002DFCD0C1F8044201680029FCD0136040
:1007F00001680029FCD0BFF34F8F0D48F038016825
:10080000144A01F4E06111430160BFF34F8F00BF50
:10081000FDE7124910480860F0BD0000E00F00F04D
:10082000403501400DF0ADBA00C007403C05004026
:10083000FCED00E0105600400404001020C500400C
:10084000E40E0040000400403C17004004E5014075
:1008500000E401400400FA050090D003600000208D
:1008600038B5064C20680025002805D004484068AB
:10087000804725602068009038BD000000010140DD
:100880001C00002002E008C8121F08C1002AFAD18B
:1008900070477047002001E001C1121F002AFBD100
:1008A0007047022000F028B970B50024064D06E01C
:1008B0006868012110F8340000F090FE641C28786C
:1008C0008442F5D3002070BD28000020F8B51546FD
:1008D0000C460646052A01D20720F8BD00F078FF35
:1008E00018B900F03FFF0028F7D1124900224E60EE
:1008F0000C708D60C1E90422C1E906220E4D0DE0A5
:1009000006EBC4002968009181788DF80110007809
:100910000A4A694600F0B4FE0028DED1641EE4B243
:10092000EED2BDE8F84004480021054A001D00F061
:1009300017B8000028000020781B000035110000C7
:100940005910000000F00AF9FEE70EB500210091F1
:10095000CDE901106A4644F20100FFF7F3FF0EBD36
:10096000074B9B7823B12AB120B10068037C1BB1EF
:10097000082070470720704741744261002070478B
:100980006001002070B500F0A5FF104800240B2185
:10099000047044700E4D817014206C602C706C706B
:1009A000FFF75EFD06211420FFF77BFD1420FFF703
:1009B00062FD0848046006211120FFF772FD05481A
:1009C000001F0068A860002070BD000060010020CA
:1009D00048000020081501402DE9F843DFF8709029
:1009E00099F802305BB350B3052902D20720BDE865
:1009F000F88343691BB3437C012B22D000270446B4
:100A0000002588461646284600F036F8684601F06C
:100A100067F8C0B1012101700E4944600968C0E95E
:100A20000218C0E904769DF8000089F80100002052
:100A300000F024F81420FFF729FD2846D7E7082006
:100A4000D5E70F46DBE70425002000F017F8F4E7B0
:100A500060010020041501400649897839B130B1A0
:100A6000416921B100210174022100F0DFBF08209B
:100A7000704700006001002000F002B800F008B8E4
:100A800072B602480168491C016070475C00002092
:100A900003490868401E086000D162B67047000034
:100AA0005C0000202DE9FC410646C0074FF0000520
:100AB0000ED0104F00240122385D0095002311460E
:100AC000019500F0D1FC641C042CF4D300F046F82E
:100AD000B0070DD5074E0024361D0022305D0323DC
:100AE00000951146019500F0BFFC641C042CF4D362
:100AF000BDE8FC81401B000007490B5C4FF0A041A2
:100B0000D1F804250120984020EA0203C1F80835F5
:100B10001040C1F80C057047401B00000249085CFA
:100B2000012100F0D6BC0000401B00000249085C17
:100B3000002100F0CEBC0000401B00000649095C0B
:100B40004FF0A040D0F80405C84010F0010000D0DC
:100B5000012080F001007047401B000010B5002408
:100B60002046FFF7DBFF641C042CF9D310BD10B541
:100B700000242046FFF7DAFF641C042CF9D310BDD3
:100B800010B50246064B4FF0FF3000215C5C9442EA
:100B900001D1084610BD491C0429F7D310BD00003F
:100BA000441B00002DE9F0470D468146FFF7E8FFA2
:100BB0000446042836D2DFF874801B481C4EA8F186
:100BC0000C0725B3012D0ED0022D2BD104EB4400D0
:100BD00030444578002D25D0B968002922D0284618
:100BE000BDE8F047084704EB4401755C0E4471789A
:100BF00049B10E4A4FF40041093A8068FFF7ECFE14
:100C000008B987F80390B17808F80410E2E7806823
:100C1000FFF722FF04EB4401314418F804008D78FB
:100C2000A842D7D0BDE8F087481B00001000002084
:100C3000A4000020FFF738BE0E2803D10248007838
:100C400000F0EEBD704700000000002070B50023EA
:100C5000042810D20D4D00EB4004012A02D10129D5
:100C60000CD00022094E00EB4000304461B1012954
:100C700006D0022906D00723184670BD0E30C2B236
:100C80002A55F9E74270F7E78270F5E7A4000020E3
:100C900070B506461E480024C0E90161B00720D5A2
:100CA0000025012211462846FFF7D0FF6D1C04469F
:100CB000042D02D2002CF4D013E094B940F2666205
:100CC00004211448FFF702FE04000AD1FFF7ECFDEF
:100CD000040006D10F48104A0021001FFFF740FE14
:100CE0000446F00712D00120FFF7DCFE74B9094872
:100CF0000A4A00210C38FFF733FE040006D10548EC
:100D0000074A01210838FFF72BFE0446204670BD34
:100D100004000020541B0000ED0E00000112000032
:100D2000A30800002DE9F05F6E4C054600266078B0
:100D3000B34618B184F801B000F04AFA6A4F4FF494
:100D40007A694FF4C87A4FF00108182D69D2DFE8AC
:100D500005F00C1313384754696E727B727BC5849F
:100D600084848484B3B6B9BCC5C500F031FA386850
:100D7000FFF772FE06465CE00020FFF7DFFE00286A
:100D80004FF0000008D0FFF7C9FE022D02D14FF44A
:100D9000E16008E0484606E0FFF7C8FE022D01D1F9
:100DA000C82000E05046410CC0034FF4FA7280188E
:100DB00041F10001257052000023FFF73DFA014682
:100DC0002AE00020FFF7BAFE00284FF0000004D010
:100DD000FFF7A4FE4FF44870E5E7FFF7A7FEDFE753
:100DE0000020FFF7ABFE00284FF0000002D0FFF715
:100DF00095FECFE7FFF79AFED4E70020FFF79EFEAF
:100E000000284FF0000002D0FFF788FE01E0FFF756
:100E10008DFE257041F69A1100223868FFF7DCFD3F
:100E2000064646E00020FFF767FE257008E0002038
:100E300051E025703DE084F801800120FFF75CFE61
:100E4000002240F6CD41E8E784F801800120FFF759
:100E500053FE00224FF48041DFE77868FFF7FCFD86
:100E60000646D5F1110000D02EB10220FFF756FE44
:100E700084F802B01DE0012816D980B2C821484389
:100E8000C117C90341EA5041C0034FF4FA728018F8
:100E900041F1000152000023FFF7CEF90146002284
:100EA0007868FFF799FD06460220FFF73FFE84F8B9
:100EB00002803046BDE8F09F00F08AF9B9E700F003
:100EC00087F9B4E700F084F904E000F081F900202C
:100ED000FFF72CFE0120FFF729FEAAE7FFF747FEE8
:100EE000A7E7000004000020481B00000078022152
:100EF000FFF758BE05494FF0FF32082841F820207F
:100F000002D3084480F8482070470000E400002025
:100F1000F0B54FF0FF3512B10023082601E0082399
:100F20000C260C4C05E000BF54F823707F1C04D045
:100F30005B1CB342F8D32846F0BD26185DB286F894
:100F4000305044F82310002AF5D1E11881F8480008
:100F5000F1E70000E40000200249084490F9300065
:100F600070470000E400002070B5084C050009D06F
:100F700010342168002907D0086820604968284695
:100F80008847F6E70834F4E770BD0000D000002081
:100F9000054A012120B1012805D19170FFF7E4BF76
:100FA00051700020FAE77047D00000202DE9F05F73
:100FB00026484168F1B3DFF898B00E688146DBF847
:100FC000004087688078E11B21F07F45ED1CB0B9B7
:100FD000DFF880804FF48030C8F84403C8F8040379
:100FE0001120FFF73DFA1120FFF745FA4FF0010AF3
:100FF000C8F800A02F2000F0E9FA89F802A0B54255
:1010000000D23546124BE8193C3320F07F4018607F
:10101000DBF800105A46091B21F07F41001B20F02D
:101020007F40C91C81420FD9106818602F2000F042
:10103000CDFA00E004E0BDE8F05F1120FFF726BA2A
:10104000BDE8F05F00F046BCBDE8F09F480000201E
:1010500004150140001001402DE9F0470025DFF89C
:1010600090803DE06068002100EBC50601203278E9
:101070009146FFF712F9D4E9062300EA020701EAD4
:10108000030C57EA0C0729D082438B434846C4E936
:10109000062300F05DFB3278824691460120002154
:1010A000FFF7FBF8D4E9042300EA020401EA03078E
:1010B0004A4650460021FFF7F0F844404F403C4379
:1010C0000CD17078012801D0012000E00020726866
:1010D00080EA0A0012B1C1B2484690476D1CEDB2D9
:1010E00098F8000044468542BCD3BDE8F087000074
:1010F000280000200E4910B50A784C780023A2423F
:1011000012D0521CD2B20A70022A00D10B70084AC7
:101110000B780C3252F8232002608868104420F0CB
:101120007F408860012010BD0360002010BD0000DA
:10113000480000202DE9F0418046024601200021B0
:10114000FFF7ABF81A4F05460E467868FFF784FCA8
:1011500000280CD1174CD4E9062110462A4001EA98
:1011600006031A4305D0A843B143C4E90601BDE80C
:10117000F081404600F0ECFA30B1D4E90401284394
:101180003143C4E9040105E0D4E90410A943B043A4
:10119000C4E90410D4E9060128433143C4E9060137
:1011A000A1687868BDE8F0410022FFF715BC000097
:1011B000781B0000280000200268134602E08A42E3
:1011C00004D01268002AFAD10B6001607047000059
:1011D0000A4810B5807860B1002401E0022C06D0E6
:1011E0002046FFF79BFC641C042CF7D310BD03249E
:1011F000F6E7BDE81040FFF7B1BC00000400002096
:1012000003480179C90702D00078FFF78BBD70470A
:10121000040000202DE9F047394E002780463D4666
:10122000DFF8E090D6F804A057E003D00446D0F8E9
:101230001C8035E099F8002002EB4201521CD2B22A
:1012400089F8002009EBC10199F80230091D9A4282
:1012500001D189F8005048680A780446012A12D062
:10126000022A02D0032A3BD108E000F0AFFB00B114
:101270000127257434E00574C06900E07068002817
:10128000F9D170602CE0207C50BB88686060C86831
:10129000A0600869E0604869A061F07800B165600D
:1012A0006268B168184B501A20F07F40984202D211
:1012B000A168084406E0881AA16820F07F408142B6
:1012C00002D9081A206000E0256065600120A56051
:1012D00020742046E56100F05BFBB8F10000A4D16A
:1012E00099F8001099F801008142A3D117B97168EB
:1012F000514502D00120BDE8F0870020FBE7000047
:101300004800002060010020FFFF7F000EB500F0C4
:101310006DF808B1FFF719FB002000F081F8FFF726
:1013200031FB08B1FFF711FB1B490220FFF7B0FCAE
:1013300008B1FFF70AFB0120FFF7B4FB174A07CA01
:101340008DE807006846164900F084FA08B1FFF7F7
:10135000FCFA144800F046FA08B1FFF7F6FA00F07C
:101360006BFA0E4D0024143D4FF47A47C826691CD1
:1013700038468847761EFAD12046FFF7D7FB641C13
:10138000042CF3D3FFF756FC08B1FFF7DEFA40BF99
:1013900020BF20BFFBE70000390C0000341B000019
:1013A000111B000000000020C20800F0070301200C
:1013B000895C98400840704710B5C20800F00703E8
:1013C000885C01249C402043885410BD00F180407B
:1013D0000068002800D00120704708B500F1804067
:1013E000002101600068009008BD000070B50A4C43
:1013F000207808B185250CE00020A06060602061A5
:10140000E060064800F0ACF8054600F093F80120D3
:101410002070284670BD0000D0000020910F000011
:1014200070B5104D0446A87838B114B16168012038
:1014300088470020FFF720FB0CE00020FFF71CFB93
:1014400024B1084821461030FFF7B6FEE86808B915
:1014500000F096F8E868401CE860BDE870400020A5
:10146000FFF70CBBD000002070B541EA4201DDE976
:1014700004564FF0A04441EA830141EA052104EB00
:10148000800041EA0641C0F8001770BD70B541EA1E
:101490004201DDE904564FF0A04441EA830141EAEC
:1014A000052104EB800041EA0641C0F8001770BD39
:1014B0004FF0A04202EB8000D0F8002722F4403227
:1014C000C0F80027D0F8002742EA0141C0F8001711
:1014D000704701224FF0A043824011B1C3F80825A4
:1014E0007047C3F80C25704718B5084B6C4601448B
:1014F0001B68009306E000BF54F82030D3F8103585
:10150000401C08C28142F7D818BD0000741B0000BF
:10151000034908B50844002101600068009008BD37
:101520000060004002494058012800D00020704768
:101530000060004008480068012110F0010F06D14A
:101540004FF0E020C02280F80024C0F800110349C9
:10155000012008607047000000E100E0180500402D
:101560000649024600200B790BB1852070470A60BE
:1015700001220A7100224A71704700001400002005
:1015800070B54FF48270FFF728FF02204107C1F8C1
:1015900004030B4B196841F0807018600948026819
:1015A00042F00104046044684FF40A554668361B53
:1015B000AE42FBD30260196003490120086070BD90
:1015C000FCED00E0001000E008000040002802D020
:1015D0000149800108477047811B00002DE9F04157
:1015E0008846054600F05EF9234E002828461AD0AA
:1015F000FFF7B2FC304490F848008009032802D07D
:1016000001280ED007E04FF0A040D0F81005E840C8
:1016100010F0010F05D003212846BDE8F041FFF787
:1016200047BF0221F8E700F049F9002822D02846F8
:10163000FFF792FC04464FF4807000EB84000F4FDC
:1016400081B207EB8400D0F8102542F00102C0F807
:1016500010250846FFF75CFFB8F1000F0AD02846B6
:10166000FFF77AFC56F82000002803D00120A040A4
:10167000C7F80403BDE8F081E400002000600040EA
:101680002DE9FC41DFF8BC80044608EB040000278C
:1016900090F930001346C0170E46401C01D00827B1
:1016A0004CE0B0781946C0F340022046FFF730FC0A
:1016B0000546401C41D0B078410719D4C0070AD074
:1016C0004FF0A04000EB8401D1F8000720F00200A9
:1016D000C1F8000707E000217378204600910A4610
:1016E0000191FFF7D3FE174920465431FFF764FEFE
:1016F000B078800718D51448317800EB8500D0F811
:101700001025124B1A40C0F810254FF4F8524FF430
:10171000403302EA042203EA01410A43D0F81015DB
:101720000A43C0F8102509E008EB0500327810F8EC
:10173000481F41EA8211017000E004273846BDE8E5
:10174000FC810000E400002000600040FFE0FCFF9E
:101750004FF0A041D1F81015C14011F0010000D0A8
:101760000120704770B5174D95F8580008B1082052
:1017700070BD0020411E2A18401CC0B282F83010F3
:101780002028F8D300242046FFF7B4FB641CE4B201
:101790000C2CF8D300240C49C0206C6581F800049F
:1017A00001264020891FC1F800014FF4BE70FFF7E9
:1017B000AFFE0649F007C1F8040385F858602046DB
:1017C00070BD0000E400002006E000E00060004082
:1017D000034890F85800002800D00120704700000E
:1017E000E400002010B504460020FFF745F90A4A3E
:1017F000517808290AD22170481C507007480268A5
:1018000001238B401A430260002400E004240020DE
:10181000FFF734F9204610BD1C00002008050140E8
:10182000044A034902EB8000C0F80016704700002C
:101830003546526E0000014004490120C1F80403FE
:101840000860034902200870704700000000014052
:101850001C000020104A5160117809B1082070471F
:10186000012111700D4A0178116041684FF47A72BC
:10187000C903B1FBF2F1094A083A1160007A08493C
:10188000400181F800044FF0E0224FF48031002045
:10189000C2F80011704700001C0000200C05014038
:1018A00010E000E00449084490F93000082801DB0A
:1018B0000120704700207047E400002004490844DC
:1018C00090F93000082801D20120704700207047AD
:1018D000E400002070B5012670044FF0E0210025DF
:1018E000C1F88001084C4010C4F84803C4F808034C
:1018F00066602F20FFF76AFEA660044C2F20A560CB
:10190000FFF764FEA57070BD001001404800002084
:101910002DE9F84F1D4C00256846D4E901A6FFF7D4
:10192000E9FB002738B30023009A61681CE0D1F876
:1019300000C00846944503D9ACEB02020A6015E0EA
:10194000A2EB0C0263440760D0F80CC0C169814669
:10195000BCF1000F08D006EB030828F07F48C0E96F
:10196000018CC9F81C5005460029E0D12846616069
:10197000FFF750FC03E02846FFF74CFC10B150463F
:10198000FFF714FBE770BDE8F88F00004800002067
:101990000D4B10B5596831B102680C68A24204D8E9
:1019A000A21A0A60C161586010BD0B4603E00B46E5
:1019B000C969121B21B10C689442F8D3A41A0C60B7
:1019C0000260C161D86110BD480000202DE9F041DE
:1019D000144E77683D462C4603E0844204D02546E9
:1019E000E469002CF9D11BE0D4B1A5420BD1F86910
:1019F000706040B90C49012088600021B160F0702E
:101A00002F20FFF7E3FD2168E069E86110B102686B
:101A1000114401607068874202D00120BDE8F08166
:101A20000020FBE74800002000100140F8B5064602
:101A300000240D462046FFF71FF8684600F050F8D6
:101A400068B10570084946609DF8000048700020A4
:101A5000FFF714F81420FEF719FD2046F8BD042402
:101A60000020FFF70BF8F8E7600100202DE9F041B6
:101A7000194D6C68002C2CD0184800270068A96804
:101A8000B846401A20F07F462068B0420CD8214664
:101A9000361A0744E469087C20B181F8108088690F
:101AA00049698847002CEFD129786878814206D1AE
:101AB000401CC0B26870022801D185F80180064838
:101AC00069780C3040F82170BDE8F0411420FEF731
:101AD000DDBCBDE8F0810000480000200415014095
:101AE0000A494A788B78521CD2B2934200D1002224
:101AF0000B78934201D1002070470270487800EBC8
:101B0000400001EBC000001D704700006001002094
:101B1000FFF724B8000000000000000000000000F3
:101B20000338FDD87047000001000000D007000016
:101B30000600000001000000D007000006000000C1
:101B4000111213140D0E0F106400002084000020E9
:101B5000B00000200D000300A50B00000E000300E4
:101B6000A50B00000F000300A50B000010000300F0
:101B7000A50B000000000050030000004001002001
:101B80000338FDD870470000A81B000000000020AB
:101B900064000000840800000C1C000064000020A9
:101BA0000C2200009408000000000000000000006B
:101BB0000000000000000000000000000000000025
:101BC0000000000000000000000000000000000015
:101BD0000000000000000000000000000000000005
:101BE00000000000000000000000000000000000F5
:101BF00000000000000000000000000000000000E5
:0C1C000000000000000000000090D00375
:0400000500000201F4
:00000001FF
